{"contracts/GreenFiSeed.sol":{"GreenFiSeed":{"abi":[{"inputs":[],"stateMutability":"nonpayable","type":"constructor"},{"inputs":[{"internalType":"address","name":"target","type":"address"}],"name":"AddressEmptyCode","type":"error"},{"inputs":[{"internalType":"address","name":"implementation","type":"address"}],"name":"ERC1967InvalidImplementation","type":"error"},{"inputs":[],"name":"ERC1967NonPayable","type":"error"},{"inputs":[],"name":"FailedCall","type":"error"},{"inputs":[],"name":"InvalidInitialization","type":"error"},{"inputs":[],"name":"NotInitializing","type":"error"},{"inputs":[{"internalType":"address","name":"owner","type":"address"}],"name":"OwnableInvalidOwner","type":"error"},{"inputs":[{"internalType":"address","name":"account","type":"address"}],"name":"OwnableUnauthorizedAccount","type":"error"},{"inputs":[],"name":"ReentrancyGuardReentrantCall","type":"error"},{"inputs":[{"internalType":"address","name":"token","type":"address"}],"name":"SafeERC20FailedOperation","type":"error"},{"inputs":[],"name":"UUPSUnauthorizedCallContext","type":"error"},{"inputs":[{"internalType":"bytes32","name":"slot","type":"bytes32"}],"name":"UUPSUnsupportedProxiableUUID","type":"error"},{"anonymous":false,"inputs":[{"indexed":true,"internalType":"address","name":"payer","type":"address"},{"indexed":false,"internalType":"uint256","name":"feeAmount","type":"uint256"}],"name":"FeeCollected","type":"event"},{"anonymous":false,"inputs":[{"indexed":false,"internalType":"uint64","name":"version","type":"uint64"}],"name":"Initialized","type":"event"},{"anonymous":false,"inputs":[{"indexed":true,"internalType":"address","name":"previousOwner","type":"address"},{"indexed":true,"internalType":"address","name":"newOwner","type":"address"}],"name":"OwnershipTransferred","type":"event"},{"anonymous":false,"inputs":[{"indexed":true,"internalType":"string","name":"seedId","type":"string"},{"indexed":true,"internalType":"address","name":"seller","type":"address"}],"name":"SeedDelisted","type":"event"},{"anonymous":false,"inputs":[{"indexed":true,"internalType":"string","name":"seedId","type":"string"},{"indexed":true,"internalType":"address","name":"seller","type":"address"},{"indexed":false,"internalType":"string","name":"ipfsHash","type":"string"},{"indexed":false,"internalType":"string","name":"strain","type":"string"},{"indexed":false,"internalType":"uint256","name":"price","type":"uint256"},{"indexed":false,"internalType":"string","name":"contactInfo","type":"string"},{"indexed":false,"internalType":"uint256","name":"quantity","type":"uint256"},{"indexed":false,"internalType":"uint256","name":"discount","type":"uint256"},{"indexed":false,"internalType":"uint256","name":"fee","type":"uint256"}],"name":"SeedListed","type":"event"},{"anonymous":false,"inputs":[{"indexed":true,"internalType":"string","name":"seedId","type":"string"},{"indexed":true,"internalType":"address","name":"buyer","type":"address"},{"indexed":false,"internalType":"uint256","name":"quantity","type":"uint256"},{"indexed":false,"internalType":"uint256","name":"totalPrice","type":"uint256"}],"name":"SeedPurchased","type":"event"},{"anonymous":false,"inputs":[{"indexed":true,"internalType":"address","name":"implementation","type":"address"}],"name":"Upgraded","type":"event"},{"inputs":[],"name":"FEE_BASIS_POINTS","outputs":[{"internalType":"uint256","name":"","type":"uint256"}],"stateMutability":"view","type":"function"},{"inputs":[],"name":"UPGRADE_INTERFACE_VERSION","outputs":[{"internalType":"string","name":"","type":"string"}],"stateMutability":"view","type":"function"},{"inputs":[{"internalType":"string","name":"_seedId","type":"string"}],"name":"delistSeed","outputs":[],"stateMutability":"nonpayable","type":"function"},{"inputs":[],"name":"getAllSeeds","outputs":[{"components":[{"internalType":"string","name":"id","type":"string"},{"internalType":"address","name":"seller","type":"address"},{"internalType":"string","name":"ipfsHash","type":"string"},{"internalType":"string","name":"strain","type":"string"},{"internalType":"uint256","name":"price","type":"uint256"},{"internalType":"string","name":"contactInfo","type":"string"},{"internalType":"uint256","name":"quantity","type":"uint256"},{"internalType":"uint256","name":"discount","type":"uint256"},{"internalType":"bool","name":"isActive","type":"bool"}],"internalType":"struct GreenFiSeed.Seed[]","name":"","type":"tuple[]"}],"stateMutability":"view","type":"function"},{"inputs":[{"internalType":"address","name":"_seller","type":"address"}],"name":"getSellerSeeds","outputs":[{"components":[{"internalType":"string","name":"id","type":"string"},{"internalType":"address","name":"seller","type":"address"},{"internalType":"string","name":"ipfsHash","type":"string"},{"internalType":"string","name":"strain","type":"string"},{"internalType":"uint256","name":"price","type":"uint256"},{"internalType":"string","name":"contactInfo","type":"string"},{"internalType":"uint256","name":"quantity","type":"uint256"},{"internalType":"uint256","name":"discount","type":"uint256"},{"internalType":"bool","name":"isActive","type":"bool"}],"internalType":"struct GreenFiSeed.Seed[]","name":"","type":"tuple[]"}],"stateMutability":"view","type":"function"},{"inputs":[{"internalType":"address","name":"_weedlToken","type":"address"}],"name":"initialize","outputs":[],"stateMutability":"nonpayable","type":"function"},{"inputs":[{"internalType":"string","name":"_seedId","type":"string"},{"internalType":"string","name":"_ipfsHash","type":"string"},{"internalType":"uint256","name":"_price","type":"uint256"},{"internalType":"string","name":"_contactInfo","type":"string"},{"internalType":"string","name":"_strain","type":"string"},{"internalType":"uint256","name":"_quantity","type":"uint256"},{"internalType":"uint256","name":"_discount","type":"uint256"}],"name":"listSeed","outputs":[],"stateMutability":"nonpayable","type":"function"},{"inputs":[],"name":"owner","outputs":[{"internalType":"address","name":"","type":"address"}],"stateMutability":"view","type":"function"},{"inputs":[],"name":"proxiableUUID","outputs":[{"internalType":"bytes32","name":"","type":"bytes32"}],"stateMutability":"view","type":"function"},{"inputs":[{"internalType":"string","name":"_seedId","type":"string"},{"internalType":"uint256","name":"_quantity","type":"uint256"}],"name":"purchaseSeed","outputs":[],"stateMutability":"nonpayable","type":"function"},{"inputs":[],"name":"renounceOwnership","outputs":[],"stateMutability":"nonpayable","type":"function"},{"inputs":[{"internalType":"uint256","name":"","type":"uint256"}],"name":"seedIds","outputs":[{"internalType":"string","name":"","type":"string"}],"stateMutability":"view","type":"function"},{"inputs":[{"internalType":"string","name":"","type":"string"}],"name":"seeds","outputs":[{"internalType":"string","name":"id","type":"string"},{"internalType":"address","name":"seller","type":"address"},{"internalType":"string","name":"ipfsHash","type":"string"},{"internalType":"string","name":"strain","type":"string"},{"internalType":"uint256","name":"price","type":"uint256"},{"internalType":"string","name":"contactInfo","type":"string"},{"internalType":"uint256","name":"quantity","type":"uint256"},{"internalType":"uint256","name":"discount","type":"uint256"},{"internalType":"bool","name":"isActive","type":"bool"}],"stateMutability":"view","type":"function"},{"inputs":[{"internalType":"address","name":"","type":"address"},{"internalType":"uint256","name":"","type":"uint256"}],"name":"sellerSeeds","outputs":[{"internalType":"string","name":"","type":"string"}],"stateMutability":"view","type":"function"},{"inputs":[{"internalType":"address","name":"newOwner","type":"address"}],"name":"transferOwnership","outputs":[],"stateMutability":"nonpayable","type":"function"},{"inputs":[{"internalType":"address","name":"newImplementation","type":"address"},{"internalType":"bytes","name":"data","type":"bytes"}],"name":"upgradeToAndCall","outputs":[],"stateMutability":"payable","type":"function"},{"inputs":[],"name":"weedlToken","outputs":[{"internalType":"contract IERC20","name":"","type":"address"}],"stateMutability":"view","type":"function"},{"inputs":[],"name":"withdrawFees","outputs":[],"stateMutability":"nonpayable","type":"function"}],"evm":{"bytecode":{"linkReferences":{},"object":"60a080604052346100cc57306080527ff0c57e16840df040f15088dc2f81fe391c3923bec73e23a9662efc9c229c6a009081549060ff8260401c166100bd57506001600160401b036002600160401b031982821601610078575b604051611e7790816100d28239608051818181610b7d0152610c360152f35b6001600160401b031990911681179091556040519081527fc7f505b2f371ae2175ee4913f4499e1f2633a7b5936321eed1cdaeb6115181d290602090a1388080610059565b63f92ee8a960e01b8152600490fd5b600080fdfe6080604052600436101561001257600080fd5b60003560e01c80630d6f7e9c14611490578063391f0bb4146111ed5780633b9c8cfe146111c457806347289597146110cb578063476343ee14610f8d5780634aa93dd214610e155780634f1ef28614610be757806352d1902d14610b6a5780635576992814610615578063635d5c10146105e8578063715018a61461057e5780638da5cb5b14610548578063a25b0561146103c3578063a525ad3c146103a7578063ad3cb1cc14610339578063c4d66de81461017d578063e5b6addd146101125763f2fde38b146100e257600080fd5b3461010d57602036600319011261010d5761010b6100fe61177a565b610106611cc8565b611bcc565b005b600080fd5b3461010d57604036600319011261010d5761012b61177a565b6001600160a01b0316600090815260036020526040902080546024359081101561010d5761015f61016591610179936118ca565b906118e2565b604051918291602083526020830190611755565b0390f35b3461010d57602036600319011261010d5761019661177a565b7ff0c57e16840df040f15088dc2f81fe391c3923bec73e23a9662efc9c229c6a009081549060ff8260401c1615916001600160401b03811680159081610331575b6001149081610327575b15908161031e575b5061030c5767ffffffffffffffff1981166001178455826102ed575b5061020e611d5d565b610216611d5d565b61021f33611bcc565b610227611d5d565b61022f611d5d565b610237611d5d565b6001600080516020611e22833981519152556001600160a01b031680156102b3576bffffffffffffffffffffffff60a01b600054161760005561027657005b68ff00000000000000001981541690557fc7f505b2f371ae2175ee4913f4499e1f2633a7b5936321eed1cdaeb6115181d2602060405160018152a1005b60405162461bcd60e51b81526020600482015260126024820152715a65726f20746f6b656e206164647265737360701b6044820152606490fd5b68ffffffffffffffffff19166801000000000000000117835583610205565b60405163f92ee8a960e01b8152600490fd5b905015856101e9565b303b1591506101e1565b8491506101d7565b3461010d57600036600319011261010d5760405160408101908082106001600160401b03831117610391576101799160405260058152640352e302e360dc1b6020820152604051918291602083526020830190611755565b634e487b7160e01b600052604160045260246000fd5b3461010d57600036600319011261010d576020604051602a8152f35b3461010d57600036600319011261010d5760028054906103e282611983565b9160009160005b82811061043f575050506103fc81611983565b9160005b82811061041557604051806101798682611790565b8061042260019284611a12565b5161042d8287611a12565b526104388186611a12565b5001610400565b6104488161187d565b5061045a60ff80926008928391611b38565b01541661046c575b50506001016103e9565b61048061047a84979461187d565b50611b38565b916040519161048e836115a6565b610497846116b0565b83526001848101546001600160a01b03166020850152936104b98782016116b0565b60408501526104ca600382016116b0565b6060850152600481015460808501526104e5600582016116b0565b60a0850152600681015460c0850152600781015460e085015201541615156101008201526105138388611a12565b5261051e8287611a12565b506000198214610532570192600186610462565b634e487b7160e01b600052601160045260246000fd5b3461010d57600036600319011261010d57600080516020611e02833981519152546040516001600160a01b039091168152602090f35b3461010d57600036600319011261010d57610597611cc8565b600080516020611e0283398151915280546001600160a01b031981169091556000906001600160a01b03167f8be0079c531659141344cd1fd0a4f28419497f9722a3daafe3b4186f6b6457e08280a3005b3461010d57602036600319011261010d5760043560025481101561010d5761016561015f6101799261187d565b3461010d5760e036600319011261010d576001600160401b0360043581811161010d57610646903690600401611635565b9060243581811161010d5761065f903690600401611635565b9160643582811161010d57610678903690600401611635565b9160843590811161010d57610691903690600401611635565b9161069a611c40565b81518015159081610b5e575b5015610b275760405160018351916106c2838260208801611653565b8183820152602081838060a01b0394810103019020015416610af45760443515610ac05760a435151580610ab2575b15610a7b57603260c43511610a44576064815111610a0a578251156109d55783511561099e57604435602a6044350204602a036105325760005461074c90612710602a604435020490309033906001600160a01b0316611c70565b604051610758816115a6565b8281526020810190338252604081018681526060820186815260808301604435815260a084019086825260c085019260a435845260e086019460c435865261010087019760018952604051808c8181516020819301916107b792611653565b81016001815203602001902097516107cf9089611a26565b516001880180546001600160a01b0319166001600160a01b0392909216919091179055516108009060028801611a26565b5161080e9060038701611a26565b516004850155516108229060058501611a26565b5160068301555160078201556008019051151560ff198254169060ff1617905560025468010000000000000000908181101561039157806001610868920160025561187d565b610988578361087691611a26565b3360005260036020526040600020908154908110156103915761089e916001820181556118ca565b919091610988576109036108df846108da7f6719f47449bb581a70412293eed53eb4db0d90ad9e1f51d296d5d805c4f3abc79661091996611a26565b61194c565b946108f56040519760e0895260e0890190611755565b908782036020890152611755565b9060443560408701528582036060870152611755565b9260a435608082015260c43560a0820152612710602a604435020460c08201528033940390a3604051612710602a604435020481527f06c5efeff5c320943d265dc4e5f1af95ad523555ce0c1957e367dda5514572df60203392a26001600080516020611e2283398151915255005b634e487b7160e01b600052600060045260246000fd5b60405162461bcd60e51b815260206004820152600f60248201526e092dcecc2d8d2c892a08ca690c2e6d608b1b6044820152606490fd5b60405162461bcd60e51b815260206004820152600d60248201526c24b73b30b634b229ba3930b4b760991b6044820152606490fd5b60405162461bcd60e51b8152602060048201526012602482015271436f6e74616374496e666f546f6f4c6f6e6760701b6044820152606490fd5b60405162461bcd60e51b815260206004820152600f60248201526e125b9d985b1a59111a5cd8dbdd5b9d608a1b6044820152606490fd5b60405162461bcd60e51b815260206004820152600f60248201526e496e76616c69645175616e7469747960881b6044820152606490fd5b506103e860a43511156106f1565b60405162461bcd60e51b815260206004820152600c60248201526b496e76616c6964507269636560a01b6044820152606490fd5b60405162461bcd60e51b815260206004820152600b60248201526a536565644964496e55736560a81b6044820152606490fd5b60405162461bcd60e51b815260206004820152600f60248201526e125b9d985b1a59081cd95959081251608a1b6044820152606490fd5b602091501115856106a6565b3461010d57600036600319011261010d577f00000000000000000000000000000000000000000000000000000000000000006001600160a01b03163003610bd55760206040517f360894a13ba1a3210667c828492db98dca3e2076cc3735a920a3ca505d382bbc8152f35b60405163703e46dd60e11b8152600490fd5b604036600319011261010d57610bfb61177a565b6024356001600160401b03811161010d573660238201121561010d57610c2b9036906024816004013591016115fe565b906001600160a01b037f00000000000000000000000000000000000000000000000000000000000000008116308114908115610de7575b50610bd557610c6f611cc8565b6040516352d1902d60e01b8152908216916020918281600481875afa60009181610db8575b50610cb257604051634c9c8ce360e01b815260048101859052602490fd5b9284937f360894a13ba1a3210667c828492db98dca3e2076cc3735a920a3ca505d382bbc90818103610da05750823b15610d875780546001600160a01b03191682179055604051907fbc7cd75a20ee27fd9adebab32041f755214dbc6bffa90cc0225b39da2e5c2d3b600080a2835115610d6d5750600080848461010b96519101845af4903d15610d64573d610d47816115e3565b90610d5560405192836115c2565b8152600081943d92013e611d9e565b60609250611d9e565b9250505034610d7857005b63b398979f60e01b8152600490fd5b604051634c9c8ce360e01b815260048101839052602490fd5b60249060405190632a87526960e21b82526004820152fd5b9091508381813d8311610de0575b610dd081836115c2565b8101031261010d57519086610c94565b503d610dc6565b9050817f360894a13ba1a3210667c828492db98dca3e2076cc3735a920a3ca505d382bbc5416141584610c62565b3461010d5760208060031936011261010d576001600160a01b0380610e3861177a565b16600052600391600381526040600020918254610e548161196c565b93610e6260405195866115c2565b8185526000908152838120848087015b848410610f6f575050505050610e888351611983565b9360005b8451811015610f615780610ea260019287611a12565b5160ff600887610ebb6040519485815193849201611653565b83019288818795868152030190208760405194610ed7866115a6565b610ee0836116b0565b86528201541689850152610ef6600282016116b0565b6040850152610f068782016116b0565b606085015260048101546080850152610f21600582016116b0565b60a0850152600681015460c0850152600781015460e08501520154161515610100820152610f4f8289611a12565b52610f5a8188611a12565b5001610e8c565b604051806101798882611790565b6001918291610f7d856116b0565b8152019201920191908590610e72565b3461010d57600036600319011261010d57610fa6611cc8565b610fae611c40565b6000546040516370a0823160e01b81523060048201526001600160a01b0391821691602091908282602481875afa9182156110bf57600092611090575b50811561105857600080516020611e0283398151915254166040519263a9059cbb60e01b90840152602483015260448201526044815260808101918183106001600160401b038411176103915761104492604052611d01565b6001600080516020611e2283398151915255005b60405162461bcd60e51b815260048101849052601060248201526f4e6f46656573546f576974686472617760801b6044820152606490fd5b9091508281813d83116110b8575b6110a881836115c2565b8101031261010d57519084610feb565b503d61109e565b6040513d6000823e3d90fd5b3461010d57602036600319011261010d576004356001600160401b03811161010d576110fb903690600401611635565b611103611c40565b60405160208183516111188183858801611653565b8101600181520301902060018060a01b03600182015416330361118f57600801805461114660ff82166118f0565b60ff19169055611156339161194c565b7fce7d5a374b88b2a64f2970516112d4977854b27c776377a92890c6b8d29cb114600080a36001600080516020611e2283398151915255005b60405162461bcd60e51b815260206004820152600d60248201526c2737ba29b2b2b229b2b63632b960991b6044820152606490fd5b3461010d57600036600319011261010d576000546040516001600160a01b039091168152602090f35b3461010d57604036600319011261010d576004356001600160401b03811161010d5761121d903690600401611635565b602480359061122a611c40565b6040519283815160209581611243889383858801611653565b81016001815203019020600881019061125f60ff8354166118f0565b841561144c576006810190858254106114115760018101546001600160a01b03908116913383146113da578760076004830154920154806113a0575b506112a591611939565b95602a870290878204602a148815171561138c576113097f06c5efeff5c320943d265dc4e5f1af95ad523555ce0c1957e367dda5514572df8b8b8b6113308c8c8c6113168d8d6127108e049b8c926112fd848b61192c565b90338460005416611c70565b6000541630903390611c70565b61132186825461192c565b8091551561137e575b5061194c565b90604051928352838301527ff076f51bafb67bdc44d9949e6d7c35b30314795854f3d90b680b3b3f4572728e60403393a36040519283523392a26001600080516020611e2283398151915255005b805460ff191690558761132a565b634e487b7160e01b60009081526011600452fd5b905060640390606482116113c55760646113be6112a5938b93611939565b049161129b565b87634e487b7160e01b60005260116004526000fd5b60405162461bcd60e51b8152600481018a90526010818901526f10d85b9b9bdd109d5e53dddb94d9595960821b6044820152606490fd5b60405162461bcd60e51b81526004810188905260148187015273496e73756666696369656e745175616e7469747960601b6044820152606490fd5b60405162461bcd60e51b8152600481018790526017818601527f496e76616c696450757263686173655175616e746974790000000000000000006044820152606490fd5b3461010d57602036600319011261010d576004356001600160401b03811161010d576114db60206114c861155b933690600401611635565b8160405193828580945193849201611653565b810160018152030190206114ee816116b0565b9060018060a01b0360018201541690611509600282016116b0565b9061158f611519600383016116b0565b60048301549061157c61152e600586016116b0565b9161156e60068701549860ff600860078a015499015416986040519c8d9c8d610120908181520190611755565b9160208d01528b820360408d0152611755565b9089820360608b0152611755565b91608088015286820360a0880152611755565b9260c085015260e084015215156101008301520390f35b61012081019081106001600160401b0382111761039157604052565b90601f801991011681019081106001600160401b0382111761039157604052565b6001600160401b03811161039157601f01601f191660200190565b92919261160a826115e3565b9161161860405193846115c2565b82948184528183011161010d578281602093846000960137010152565b9080601f8301121561010d57816020611650933591016115fe565b90565b60005b8381106116665750506000910152565b8181015183820152602001611656565b90600182811c921680156116a6575b602083101461169057565b634e487b7160e01b600052602260045260246000fd5b91607f1691611685565b906040519182600082546116c381611676565b9081845260209460019160018116908160001461173357506001146116f4575b5050506116f2925003836115c2565b565b600090815285812095935091905b81831061171b5750506116f293508201013880806116e3565b85548884018501529485019487945091830191611702565b925050506116f294925060ff191682840152151560051b8201013880806116e3565b9060209161176e81518092818552858086019101611653565b601f01601f1916010190565b600435906001600160a01b038216820361010d57565b6020808201908083528351809252604092604081018260408560051b8401019601946000925b8584106117c7575050505050505090565b909192939495968580600192603f198582030187528a519061184b61182e61181b6117fc610120865190808752860190611755565b888060a01b038787015116878601528a8601518582038c870152611755565b6060808601519085830390860152611755565b6080808501519084015260a0808501519084830390850152611755565b9160c0808201519083015260e080820151908301526101008091015115159101529901940194019295949391906117b6565b6002548110156118b45760026000527f405787fa12a823e0f2b7631cc41b3ba8828b3321ca811111fa75cd3aa3bb5ace0190600090565b634e487b7160e01b600052603260045260246000fd5b80548210156118b45760005260206000200190600090565b9061098857611650906116b0565b156118f757565b60405162461bcd60e51b815260206004820152600d60248201526c536565644e6f7441637469766560981b6044820152606490fd5b9190820391821161053257565b8181029291811591840414171561053257565b61196490602060405192828480945193849201611653565b810103902090565b6001600160401b0381116103915760051b60200190565b9061198d8261196c565b60409061199d60405191826115c2565b83815280936119ae601f199161196c565b019160005b8381106119c05750505050565b60209082516119ce816115a6565b60608082528390600082840152808684015280808401526000608084015260a0830152600060c0830152600060e083015260006101008301528286010152016119b3565b80518210156118b45760209160051b010190565b91909182516001600160401b03811161039157611a438254611676565b601f8111611aee575b50602080601f8311600114611a89575081929394600092611a7e575b50508160011b916000199060031b1c1916179055565b015190503880611a68565b90601f19831695846000526020600020926000905b888210611ad657505083600195969710611abd575b505050811b019055565b015160001960f88460031b161c19169055388080611ab3565b80600185968294968601518155019501930190611a9e565b6000836000526020600020601f840160051c81019260208510611b2e575b601f0160051c01915b828110611b23575050611a4c565b818155600101611b15565b9092508290611b0c565b604051908160008254611b4a81611676565b93600191808316908115611bb05750600114611b72575b505060209250600181520301902090565b9091506000526020906020600020906000915b858310611b9c575050505060209181013880611b61565b805487840152869450918301918101611b85565b92505050602093915060ff191682528015150281013880611b61565b6001600160a01b03908116908115611c2757600080516020611e0283398151915280546001600160a01b031981168417909155167f8be0079c531659141344cd1fd0a4f28419497f9722a3daafe3b4186f6b6457e0600080a3565b604051631e4fbdf760e01b815260006004820152602490fd5b600080516020611e228339815191526002815414611c5e5760029055565b604051633ee5aeb560e01b8152600490fd5b6040516323b872dd60e01b60208201526001600160a01b03928316602482015292909116604483015260648083019390935291815260a08101918183106001600160401b03841117610391576116f292604052611d01565b600080516020611e02833981519152546001600160a01b03163303611ce957565b60405163118cdaa760e01b8152336004820152602490fd5b906000602091828151910182855af1156110bf576000513d611d5457506001600160a01b0381163b155b611d325750565b604051635274afe760e01b81526001600160a01b039091166004820152602490fd5b60011415611d2b565b60ff7ff0c57e16840df040f15088dc2f81fe391c3923bec73e23a9662efc9c229c6a005460401c1615611d8c57565b604051631afcd79f60e31b8152600490fd5b90611dc55750805115611db357805190602001fd5b60405163d6bda27560e01b8152600490fd5b81511580611df8575b611dd6575090565b604051639996b31560e01b81526001600160a01b039091166004820152602490fd5b50803b15611dce56fe9016d09d72d40fdae2fd8ceac6b6234c7706214fd39c1cd1e609a0528c1993009b779b17422d0df92223018b32b4d1fa46e071723d6817e2486d003becc55f00a2646970667358221220308db7729c4c9c4d91b89872dd1409fb5389fb2a5b631b2fb104d1ca5b84036764736f6c63430008160033","opcodes":"PUSH1 0xA0 DUP1 PUSH1 0x40 MSTORE CALLVALUE PUSH2 0xCC JUMPI ADDRESS PUSH1 0x80 MSTORE PUSH32 0xF0C57E16840DF040F15088DC2F81FE391C3923BEC73E23A9662EFC9C229C6A00 SWAP1 DUP2 SLOAD SWAP1 PUSH1 0xFF DUP3 PUSH1 0x40 SHR AND PUSH2 0xBD JUMPI POP PUSH1 0x1 PUSH1 0x1 PUSH1 0x40 SHL SUB PUSH1 0x2 PUSH1 0x1 PUSH1 0x40 SHL SUB NOT DUP3 DUP3 AND ADD PUSH2 0x78 JUMPI JUMPDEST PUSH1 0x40 MLOAD PUSH2 0x1E77 SWAP1 DUP2 PUSH2 0xD2 DUP3 CODECOPY PUSH1 0x80 MLOAD DUP2 DUP2 DUP2 PUSH2 0xB7D ADD MSTORE PUSH2 0xC36 ADD MSTORE RETURN JUMPDEST PUSH1 0x1 PUSH1 0x1 PUSH1 0x40 SHL SUB NOT SWAP1 SWAP2 AND DUP2 OR SWAP1 SWAP2 SSTORE PUSH1 0x40 MLOAD SWAP1 DUP2 MSTORE PUSH32 0xC7F505B2F371AE2175EE4913F4499E1F2633A7B5936321EED1CDAEB6115181D2 SWAP1 PUSH1 0x20 SWAP1 LOG1 CODESIZE DUP1 DUP1 PUSH2 0x59 JUMP JUMPDEST PUSH4 0xF92EE8A9 PUSH1 0xE0 SHL DUP2 MSTORE PUSH1 0x4 SWAP1 REVERT JUMPDEST PUSH1 0x0 DUP1 REVERT INVALID PUSH1 0x80 PUSH1 0x40 MSTORE PUSH1 0x4 CALLDATASIZE LT ISZERO PUSH2 0x12 JUMPI PUSH1 0x0 DUP1 REVERT JUMPDEST PUSH1 0x0 CALLDATALOAD PUSH1 0xE0 SHR DUP1 PUSH4 0xD6F7E9C EQ PUSH2 0x1490 JUMPI DUP1 PUSH4 0x391F0BB4 EQ PUSH2 0x11ED JUMPI DUP1 PUSH4 0x3B9C8CFE EQ PUSH2 0x11C4 JUMPI DUP1 PUSH4 0x47289597 EQ PUSH2 0x10CB JUMPI DUP1 PUSH4 0x476343EE EQ PUSH2 0xF8D JUMPI DUP1 PUSH4 0x4AA93DD2 EQ PUSH2 0xE15 JUMPI DUP1 PUSH4 0x4F1EF286 EQ PUSH2 0xBE7 JUMPI DUP1 PUSH4 0x52D1902D EQ PUSH2 0xB6A JUMPI DUP1 PUSH4 0x55769928 EQ PUSH2 0x615 JUMPI DUP1 PUSH4 0x635D5C10 EQ PUSH2 0x5E8 JUMPI DUP1 PUSH4 0x715018A6 EQ PUSH2 0x57E JUMPI DUP1 PUSH4 0x8DA5CB5B EQ PUSH2 0x548 JUMPI DUP1 PUSH4 0xA25B0561 EQ PUSH2 0x3C3 JUMPI DUP1 PUSH4 0xA525AD3C EQ PUSH2 0x3A7 JUMPI DUP1 PUSH4 0xAD3CB1CC EQ PUSH2 0x339 JUMPI DUP1 PUSH4 0xC4D66DE8 EQ PUSH2 0x17D JUMPI DUP1 PUSH4 0xE5B6ADDD EQ PUSH2 0x112 JUMPI PUSH4 0xF2FDE38B EQ PUSH2 0xE2 JUMPI PUSH1 0x0 DUP1 REVERT JUMPDEST CALLVALUE PUSH2 0x10D JUMPI PUSH1 0x20 CALLDATASIZE PUSH1 0x3 NOT ADD SLT PUSH2 0x10D JUMPI PUSH2 0x10B PUSH2 0xFE PUSH2 0x177A JUMP JUMPDEST PUSH2 0x106 PUSH2 0x1CC8 JUMP JUMPDEST PUSH2 0x1BCC JUMP JUMPDEST STOP JUMPDEST PUSH1 0x0 DUP1 REVERT JUMPDEST CALLVALUE PUSH2 0x10D JUMPI PUSH1 0x40 CALLDATASIZE PUSH1 0x3 NOT ADD SLT PUSH2 0x10D JUMPI PUSH2 0x12B PUSH2 0x177A JUMP JUMPDEST PUSH1 0x1 PUSH1 0x1 PUSH1 0xA0 SHL SUB AND PUSH1 0x0 SWAP1 DUP2 MSTORE PUSH1 0x3 PUSH1 0x20 MSTORE PUSH1 0x40 SWAP1 KECCAK256 DUP1 SLOAD PUSH1 0x24 CALLDATALOAD SWAP1 DUP2 LT ISZERO PUSH2 0x10D JUMPI PUSH2 0x15F PUSH2 0x165 SWAP2 PUSH2 0x179 SWAP4 PUSH2 0x18CA JUMP JUMPDEST SWAP1 PUSH2 0x18E2 JUMP JUMPDEST PUSH1 0x40 MLOAD SWAP2 DUP3 SWAP2 PUSH1 0x20 DUP4 MSTORE PUSH1 0x20 DUP4 ADD SWAP1 PUSH2 0x1755 JUMP JUMPDEST SUB SWAP1 RETURN JUMPDEST CALLVALUE PUSH2 0x10D JUMPI PUSH1 0x20 CALLDATASIZE PUSH1 0x3 NOT ADD SLT PUSH2 0x10D JUMPI PUSH2 0x196 PUSH2 0x177A JUMP JUMPDEST PUSH32 0xF0C57E16840DF040F15088DC2F81FE391C3923BEC73E23A9662EFC9C229C6A00 SWAP1 DUP2 SLOAD SWAP1 PUSH1 0xFF DUP3 PUSH1 0x40 SHR AND ISZERO SWAP2 PUSH1 0x1 PUSH1 0x1 PUSH1 0x40 SHL SUB DUP2 AND DUP1 ISZERO SWAP1 DUP2 PUSH2 0x331 JUMPI JUMPDEST PUSH1 0x1 EQ SWAP1 DUP2 PUSH2 0x327 JUMPI JUMPDEST ISZERO SWAP1 DUP2 PUSH2 0x31E JUMPI JUMPDEST POP PUSH2 0x30C JUMPI PUSH8 0xFFFFFFFFFFFFFFFF NOT DUP2 AND PUSH1 0x1 OR DUP5 SSTORE DUP3 PUSH2 0x2ED JUMPI JUMPDEST POP PUSH2 0x20E PUSH2 0x1D5D JUMP JUMPDEST PUSH2 0x216 PUSH2 0x1D5D JUMP JUMPDEST PUSH2 0x21F CALLER PUSH2 0x1BCC JUMP JUMPDEST PUSH2 0x227 PUSH2 0x1D5D JUMP JUMPDEST PUSH2 0x22F PUSH2 0x1D5D JUMP JUMPDEST PUSH2 0x237 PUSH2 0x1D5D JUMP JUMPDEST PUSH1 0x1 PUSH1 0x0 DUP1 MLOAD PUSH1 0x20 PUSH2 0x1E22 DUP4 CODECOPY DUP2 MLOAD SWAP2 MSTORE SSTORE PUSH1 0x1 PUSH1 0x1 PUSH1 0xA0 SHL SUB AND DUP1 ISZERO PUSH2 0x2B3 JUMPI PUSH12 0xFFFFFFFFFFFFFFFFFFFFFFFF PUSH1 0xA0 SHL PUSH1 0x0 SLOAD AND OR PUSH1 0x0 SSTORE PUSH2 0x276 JUMPI STOP JUMPDEST PUSH9 0xFF0000000000000000 NOT DUP2 SLOAD AND SWAP1 SSTORE PUSH32 0xC7F505B2F371AE2175EE4913F4499E1F2633A7B5936321EED1CDAEB6115181D2 PUSH1 0x20 PUSH1 0x40 MLOAD PUSH1 0x1 DUP2 MSTORE LOG1 STOP JUMPDEST PUSH1 0x40 MLOAD PUSH3 0x461BCD PUSH1 0xE5 SHL DUP2 MSTORE PUSH1 0x20 PUSH1 0x4 DUP3 ADD MSTORE PUSH1 0x12 PUSH1 0x24 DUP3 ADD MSTORE PUSH18 0x5A65726F20746F6B656E2061646472657373 PUSH1 0x70 SHL PUSH1 0x44 DUP3 ADD MSTORE PUSH1 0x64 SWAP1 REVERT JUMPDEST PUSH9 0xFFFFFFFFFFFFFFFFFF NOT AND PUSH9 0x10000000000000001 OR DUP4 SSTORE DUP4 PUSH2 0x205 JUMP JUMPDEST PUSH1 0x40 MLOAD PUSH4 0xF92EE8A9 PUSH1 0xE0 SHL DUP2 MSTORE PUSH1 0x4 SWAP1 REVERT JUMPDEST SWAP1 POP ISZERO DUP6 PUSH2 0x1E9 JUMP JUMPDEST ADDRESS EXTCODESIZE ISZERO SWAP2 POP PUSH2 0x1E1 JUMP JUMPDEST DUP5 SWAP2 POP PUSH2 0x1D7 JUMP JUMPDEST CALLVALUE PUSH2 0x10D JUMPI PUSH1 0x0 CALLDATASIZE PUSH1 0x3 NOT ADD SLT PUSH2 0x10D JUMPI PUSH1 0x40 MLOAD PUSH1 0x40 DUP2 ADD SWAP1 DUP1 DUP3 LT PUSH1 0x1 PUSH1 0x1 PUSH1 0x40 SHL SUB DUP4 GT OR PUSH2 0x391 JUMPI PUSH2 0x179 SWAP2 PUSH1 0x40 MSTORE PUSH1 0x5 DUP2 MSTORE PUSH5 0x352E302E3 PUSH1 0xDC SHL PUSH1 0x20 DUP3 ADD MSTORE PUSH1 0x40 MLOAD SWAP2 DUP3 SWAP2 PUSH1 0x20 DUP4 MSTORE PUSH1 0x20 DUP4 ADD SWAP1 PUSH2 0x1755 JUMP JUMPDEST PUSH4 0x4E487B71 PUSH1 0xE0 SHL PUSH1 0x0 MSTORE PUSH1 0x41 PUSH1 0x4 MSTORE PUSH1 0x24 PUSH1 0x0 REVERT JUMPDEST CALLVALUE PUSH2 0x10D JUMPI PUSH1 0x0 CALLDATASIZE PUSH1 0x3 NOT ADD SLT PUSH2 0x10D JUMPI PUSH1 0x20 PUSH1 0x40 MLOAD PUSH1 0x2A DUP2 MSTORE RETURN JUMPDEST CALLVALUE PUSH2 0x10D JUMPI PUSH1 0x0 CALLDATASIZE PUSH1 0x3 NOT ADD SLT PUSH2 0x10D JUMPI PUSH1 0x2 DUP1 SLOAD SWAP1 PUSH2 0x3E2 DUP3 PUSH2 0x1983 JUMP JUMPDEST SWAP2 PUSH1 0x0 SWAP2 PUSH1 0x0 JUMPDEST DUP3 DUP2 LT PUSH2 0x43F JUMPI POP POP POP PUSH2 0x3FC DUP2 PUSH2 0x1983 JUMP JUMPDEST SWAP2 PUSH1 0x0 JUMPDEST DUP3 DUP2 LT PUSH2 0x415 JUMPI PUSH1 0x40 MLOAD DUP1 PUSH2 0x179 DUP7 DUP3 PUSH2 0x1790 JUMP JUMPDEST DUP1 PUSH2 0x422 PUSH1 0x1 SWAP3 DUP5 PUSH2 0x1A12 JUMP JUMPDEST MLOAD PUSH2 0x42D DUP3 DUP8 PUSH2 0x1A12 JUMP JUMPDEST MSTORE PUSH2 0x438 DUP2 DUP7 PUSH2 0x1A12 JUMP JUMPDEST POP ADD PUSH2 0x400 JUMP JUMPDEST PUSH2 0x448 DUP2 PUSH2 0x187D JUMP JUMPDEST POP PUSH2 0x45A PUSH1 0xFF DUP1 SWAP3 PUSH1 0x8 SWAP3 DUP4 SWAP2 PUSH2 0x1B38 JUMP JUMPDEST ADD SLOAD AND PUSH2 0x46C JUMPI JUMPDEST POP POP PUSH1 0x1 ADD PUSH2 0x3E9 JUMP JUMPDEST PUSH2 0x480 PUSH2 0x47A DUP5 SWAP8 SWAP5 PUSH2 0x187D JUMP JUMPDEST POP PUSH2 0x1B38 JUMP JUMPDEST SWAP2 PUSH1 0x40 MLOAD SWAP2 PUSH2 0x48E DUP4 PUSH2 0x15A6 JUMP JUMPDEST PUSH2 0x497 DUP5 PUSH2 0x16B0 JUMP JUMPDEST DUP4 MSTORE PUSH1 0x1 DUP5 DUP2 ADD SLOAD PUSH1 0x1 PUSH1 0x1 PUSH1 0xA0 SHL SUB AND PUSH1 0x20 DUP6 ADD MSTORE SWAP4 PUSH2 0x4B9 DUP8 DUP3 ADD PUSH2 0x16B0 JUMP JUMPDEST PUSH1 0x40 DUP6 ADD MSTORE PUSH2 0x4CA PUSH1 0x3 DUP3 ADD PUSH2 0x16B0 JUMP JUMPDEST PUSH1 0x60 DUP6 ADD MSTORE PUSH1 0x4 DUP2 ADD SLOAD PUSH1 0x80 DUP6 ADD MSTORE PUSH2 0x4E5 PUSH1 0x5 DUP3 ADD PUSH2 0x16B0 JUMP JUMPDEST PUSH1 0xA0 DUP6 ADD MSTORE PUSH1 0x6 DUP2 ADD SLOAD PUSH1 0xC0 DUP6 ADD MSTORE PUSH1 0x7 DUP2 ADD SLOAD PUSH1 0xE0 DUP6 ADD MSTORE ADD SLOAD AND ISZERO ISZERO PUSH2 0x100 DUP3 ADD MSTORE PUSH2 0x513 DUP4 DUP9 PUSH2 0x1A12 JUMP JUMPDEST MSTORE PUSH2 0x51E DUP3 DUP8 PUSH2 0x1A12 JUMP JUMPDEST POP PUSH1 0x0 NOT DUP3 EQ PUSH2 0x532 JUMPI ADD SWAP3 PUSH1 0x1 DUP7 PUSH2 0x462 JUMP JUMPDEST PUSH4 0x4E487B71 PUSH1 0xE0 SHL PUSH1 0x0 MSTORE PUSH1 0x11 PUSH1 0x4 MSTORE PUSH1 0x24 PUSH1 0x0 REVERT JUMPDEST CALLVALUE PUSH2 0x10D JUMPI PUSH1 0x0 CALLDATASIZE PUSH1 0x3 NOT ADD SLT PUSH2 0x10D JUMPI PUSH1 0x0 DUP1 MLOAD PUSH1 0x20 PUSH2 0x1E02 DUP4 CODECOPY DUP2 MLOAD SWAP2 MSTORE SLOAD PUSH1 0x40 MLOAD PUSH1 0x1 PUSH1 0x1 PUSH1 0xA0 SHL SUB SWAP1 SWAP2 AND DUP2 MSTORE PUSH1 0x20 SWAP1 RETURN JUMPDEST CALLVALUE PUSH2 0x10D JUMPI PUSH1 0x0 CALLDATASIZE PUSH1 0x3 NOT ADD SLT PUSH2 0x10D JUMPI PUSH2 0x597 PUSH2 0x1CC8 JUMP JUMPDEST PUSH1 0x0 DUP1 MLOAD PUSH1 0x20 PUSH2 0x1E02 DUP4 CODECOPY DUP2 MLOAD SWAP2 MSTORE DUP1 SLOAD PUSH1 0x1 PUSH1 0x1 PUSH1 0xA0 SHL SUB NOT DUP2 AND SWAP1 SWAP2 SSTORE PUSH1 0x0 SWAP1 PUSH1 0x1 PUSH1 0x1 PUSH1 0xA0 SHL SUB AND PUSH32 0x8BE0079C531659141344CD1FD0A4F28419497F9722A3DAAFE3B4186F6B6457E0 DUP3 DUP1 LOG3 STOP JUMPDEST CALLVALUE PUSH2 0x10D JUMPI PUSH1 0x20 CALLDATASIZE PUSH1 0x3 NOT ADD SLT PUSH2 0x10D JUMPI PUSH1 0x4 CALLDATALOAD PUSH1 0x2 SLOAD DUP2 LT ISZERO PUSH2 0x10D JUMPI PUSH2 0x165 PUSH2 0x15F PUSH2 0x179 SWAP3 PUSH2 0x187D JUMP JUMPDEST CALLVALUE PUSH2 0x10D JUMPI PUSH1 0xE0 CALLDATASIZE PUSH1 0x3 NOT ADD SLT PUSH2 0x10D JUMPI PUSH1 0x1 PUSH1 0x1 PUSH1 0x40 SHL SUB PUSH1 0x4 CALLDATALOAD DUP2 DUP2 GT PUSH2 0x10D JUMPI PUSH2 0x646 SWAP1 CALLDATASIZE SWAP1 PUSH1 0x4 ADD PUSH2 0x1635 JUMP JUMPDEST SWAP1 PUSH1 0x24 CALLDATALOAD DUP2 DUP2 GT PUSH2 0x10D JUMPI PUSH2 0x65F SWAP1 CALLDATASIZE SWAP1 PUSH1 0x4 ADD PUSH2 0x1635 JUMP JUMPDEST SWAP2 PUSH1 0x64 CALLDATALOAD DUP3 DUP2 GT PUSH2 0x10D JUMPI PUSH2 0x678 SWAP1 CALLDATASIZE SWAP1 PUSH1 0x4 ADD PUSH2 0x1635 JUMP JUMPDEST SWAP2 PUSH1 0x84 CALLDATALOAD SWAP1 DUP2 GT PUSH2 0x10D JUMPI PUSH2 0x691 SWAP1 CALLDATASIZE SWAP1 PUSH1 0x4 ADD PUSH2 0x1635 JUMP JUMPDEST SWAP2 PUSH2 0x69A PUSH2 0x1C40 JUMP JUMPDEST DUP2 MLOAD DUP1 ISZERO ISZERO SWAP1 DUP2 PUSH2 0xB5E JUMPI JUMPDEST POP ISZERO PUSH2 0xB27 JUMPI PUSH1 0x40 MLOAD PUSH1 0x1 DUP4 MLOAD SWAP2 PUSH2 0x6C2 DUP4 DUP3 PUSH1 0x20 DUP9 ADD PUSH2 0x1653 JUMP JUMPDEST DUP2 DUP4 DUP3 ADD MSTORE PUSH1 0x20 DUP2 DUP4 DUP1 PUSH1 0xA0 SHL SUB SWAP5 DUP2 ADD SUB ADD SWAP1 KECCAK256 ADD SLOAD AND PUSH2 0xAF4 JUMPI PUSH1 0x44 CALLDATALOAD ISZERO PUSH2 0xAC0 JUMPI PUSH1 0xA4 CALLDATALOAD ISZERO ISZERO DUP1 PUSH2 0xAB2 JUMPI JUMPDEST ISZERO PUSH2 0xA7B JUMPI PUSH1 0x32 PUSH1 0xC4 CALLDATALOAD GT PUSH2 0xA44 JUMPI PUSH1 0x64 DUP2 MLOAD GT PUSH2 0xA0A JUMPI DUP3 MLOAD ISZERO PUSH2 0x9D5 JUMPI DUP4 MLOAD ISZERO PUSH2 0x99E JUMPI PUSH1 0x44 CALLDATALOAD PUSH1 0x2A PUSH1 0x44 CALLDATALOAD MUL DIV PUSH1 0x2A SUB PUSH2 0x532 JUMPI PUSH1 0x0 SLOAD PUSH2 0x74C SWAP1 PUSH2 0x2710 PUSH1 0x2A PUSH1 0x44 CALLDATALOAD MUL DIV SWAP1 ADDRESS SWAP1 CALLER SWAP1 PUSH1 0x1 PUSH1 0x1 PUSH1 0xA0 SHL SUB AND PUSH2 0x1C70 JUMP JUMPDEST PUSH1 0x40 MLOAD PUSH2 0x758 DUP2 PUSH2 0x15A6 JUMP JUMPDEST DUP3 DUP2 MSTORE PUSH1 0x20 DUP2 ADD SWAP1 CALLER DUP3 MSTORE PUSH1 0x40 DUP2 ADD DUP7 DUP2 MSTORE PUSH1 0x60 DUP3 ADD DUP7 DUP2 MSTORE PUSH1 0x80 DUP4 ADD PUSH1 0x44 CALLDATALOAD DUP2 MSTORE PUSH1 0xA0 DUP5 ADD SWAP1 DUP7 DUP3 MSTORE PUSH1 0xC0 DUP6 ADD SWAP3 PUSH1 0xA4 CALLDATALOAD DUP5 MSTORE PUSH1 0xE0 DUP7 ADD SWAP5 PUSH1 0xC4 CALLDATALOAD DUP7 MSTORE PUSH2 0x100 DUP8 ADD SWAP8 PUSH1 0x1 DUP10 MSTORE PUSH1 0x40 MLOAD DUP1 DUP13 DUP2 DUP2 MLOAD PUSH1 0x20 DUP2 SWAP4 ADD SWAP2 PUSH2 0x7B7 SWAP3 PUSH2 0x1653 JUMP JUMPDEST DUP2 ADD PUSH1 0x1 DUP2 MSTORE SUB PUSH1 0x20 ADD SWAP1 KECCAK256 SWAP8 MLOAD PUSH2 0x7CF SWAP1 DUP10 PUSH2 0x1A26 JUMP JUMPDEST MLOAD PUSH1 0x1 DUP9 ADD DUP1 SLOAD PUSH1 0x1 PUSH1 0x1 PUSH1 0xA0 SHL SUB NOT AND PUSH1 0x1 PUSH1 0x1 PUSH1 0xA0 SHL SUB SWAP3 SWAP1 SWAP3 AND SWAP2 SWAP1 SWAP2 OR SWAP1 SSTORE MLOAD PUSH2 0x800 SWAP1 PUSH1 0x2 DUP9 ADD PUSH2 0x1A26 JUMP JUMPDEST MLOAD PUSH2 0x80E SWAP1 PUSH1 0x3 DUP8 ADD PUSH2 0x1A26 JUMP JUMPDEST MLOAD PUSH1 0x4 DUP6 ADD SSTORE MLOAD PUSH2 0x822 SWAP1 PUSH1 0x5 DUP6 ADD PUSH2 0x1A26 JUMP JUMPDEST MLOAD PUSH1 0x6 DUP4 ADD SSTORE MLOAD PUSH1 0x7 DUP3 ADD SSTORE PUSH1 0x8 ADD SWAP1 MLOAD ISZERO ISZERO PUSH1 0xFF NOT DUP3 SLOAD AND SWAP1 PUSH1 0xFF AND OR SWAP1 SSTORE PUSH1 0x2 SLOAD PUSH9 0x10000000000000000 SWAP1 DUP2 DUP2 LT ISZERO PUSH2 0x391 JUMPI DUP1 PUSH1 0x1 PUSH2 0x868 SWAP3 ADD PUSH1 0x2 SSTORE PUSH2 0x187D JUMP JUMPDEST PUSH2 0x988 JUMPI DUP4 PUSH2 0x876 SWAP2 PUSH2 0x1A26 JUMP JUMPDEST CALLER PUSH1 0x0 MSTORE PUSH1 0x3 PUSH1 0x20 MSTORE PUSH1 0x40 PUSH1 0x0 KECCAK256 SWAP1 DUP2 SLOAD SWAP1 DUP2 LT ISZERO PUSH2 0x391 JUMPI PUSH2 0x89E SWAP2 PUSH1 0x1 DUP3 ADD DUP2 SSTORE PUSH2 0x18CA JUMP JUMPDEST SWAP2 SWAP1 SWAP2 PUSH2 0x988 JUMPI PUSH2 0x903 PUSH2 0x8DF DUP5 PUSH2 0x8DA PUSH32 0x6719F47449BB581A70412293EED53EB4DB0D90AD9E1F51D296D5D805C4F3ABC7 SWAP7 PUSH2 0x919 SWAP7 PUSH2 0x1A26 JUMP JUMPDEST PUSH2 0x194C JUMP JUMPDEST SWAP5 PUSH2 0x8F5 PUSH1 0x40 MLOAD SWAP8 PUSH1 0xE0 DUP10 MSTORE PUSH1 0xE0 DUP10 ADD SWAP1 PUSH2 0x1755 JUMP JUMPDEST SWAP1 DUP8 DUP3 SUB PUSH1 0x20 DUP10 ADD MSTORE PUSH2 0x1755 JUMP JUMPDEST SWAP1 PUSH1 0x44 CALLDATALOAD PUSH1 0x40 DUP8 ADD MSTORE DUP6 DUP3 SUB PUSH1 0x60 DUP8 ADD MSTORE PUSH2 0x1755 JUMP JUMPDEST SWAP3 PUSH1 0xA4 CALLDATALOAD PUSH1 0x80 DUP3 ADD MSTORE PUSH1 0xC4 CALLDATALOAD PUSH1 0xA0 DUP3 ADD MSTORE PUSH2 0x2710 PUSH1 0x2A PUSH1 0x44 CALLDATALOAD MUL DIV PUSH1 0xC0 DUP3 ADD MSTORE DUP1 CALLER SWAP5 SUB SWAP1 LOG3 PUSH1 0x40 MLOAD PUSH2 0x2710 PUSH1 0x2A PUSH1 0x44 CALLDATALOAD MUL DIV DUP2 MSTORE PUSH32 0x6C5EFEFF5C320943D265DC4E5F1AF95AD523555CE0C1957E367DDA5514572DF PUSH1 0x20 CALLER SWAP3 LOG2 PUSH1 0x1 PUSH1 0x0 DUP1 MLOAD PUSH1 0x20 PUSH2 0x1E22 DUP4 CODECOPY DUP2 MLOAD SWAP2 MSTORE SSTORE STOP JUMPDEST PUSH4 0x4E487B71 PUSH1 0xE0 SHL PUSH1 0x0 MSTORE PUSH1 0x0 PUSH1 0x4 MSTORE PUSH1 0x24 PUSH1 0x0 REVERT JUMPDEST PUSH1 0x40 MLOAD PUSH3 0x461BCD PUSH1 0xE5 SHL DUP2 MSTORE PUSH1 0x20 PUSH1 0x4 DUP3 ADD MSTORE PUSH1 0xF PUSH1 0x24 DUP3 ADD MSTORE PUSH15 0x92DCECC2D8D2C892A08CA690C2E6D PUSH1 0x8B SHL PUSH1 0x44 DUP3 ADD MSTORE PUSH1 0x64 SWAP1 REVERT JUMPDEST PUSH1 0x40 MLOAD PUSH3 0x461BCD PUSH1 0xE5 SHL DUP2 MSTORE PUSH1 0x20 PUSH1 0x4 DUP3 ADD MSTORE PUSH1 0xD PUSH1 0x24 DUP3 ADD MSTORE PUSH13 0x24B73B30B634B229BA3930B4B7 PUSH1 0x99 SHL PUSH1 0x44 DUP3 ADD MSTORE PUSH1 0x64 SWAP1 REVERT JUMPDEST PUSH1 0x40 MLOAD PUSH3 0x461BCD PUSH1 0xE5 SHL DUP2 MSTORE PUSH1 0x20 PUSH1 0x4 DUP3 ADD MSTORE PUSH1 0x12 PUSH1 0x24 DUP3 ADD MSTORE PUSH18 0x436F6E74616374496E666F546F6F4C6F6E67 PUSH1 0x70 SHL PUSH1 0x44 DUP3 ADD MSTORE PUSH1 0x64 SWAP1 REVERT JUMPDEST PUSH1 0x40 MLOAD PUSH3 0x461BCD PUSH1 0xE5 SHL DUP2 MSTORE PUSH1 0x20 PUSH1 0x4 DUP3 ADD MSTORE PUSH1 0xF PUSH1 0x24 DUP3 ADD MSTORE PUSH15 0x125B9D985B1A59111A5CD8DBDD5B9D PUSH1 0x8A SHL PUSH1 0x44 DUP3 ADD MSTORE PUSH1 0x64 SWAP1 REVERT JUMPDEST PUSH1 0x40 MLOAD PUSH3 0x461BCD PUSH1 0xE5 SHL DUP2 MSTORE PUSH1 0x20 PUSH1 0x4 DUP3 ADD MSTORE PUSH1 0xF PUSH1 0x24 DUP3 ADD MSTORE PUSH15 0x496E76616C69645175616E74697479 PUSH1 0x88 SHL PUSH1 0x44 DUP3 ADD MSTORE PUSH1 0x64 SWAP1 REVERT JUMPDEST POP PUSH2 0x3E8 PUSH1 0xA4 CALLDATALOAD GT ISZERO PUSH2 0x6F1 JUMP JUMPDEST PUSH1 0x40 MLOAD PUSH3 0x461BCD PUSH1 0xE5 SHL DUP2 MSTORE PUSH1 0x20 PUSH1 0x4 DUP3 ADD MSTORE PUSH1 0xC PUSH1 0x24 DUP3 ADD MSTORE PUSH12 0x496E76616C69645072696365 PUSH1 0xA0 SHL PUSH1 0x44 DUP3 ADD MSTORE PUSH1 0x64 SWAP1 REVERT JUMPDEST PUSH1 0x40 MLOAD PUSH3 0x461BCD PUSH1 0xE5 SHL DUP2 MSTORE PUSH1 0x20 PUSH1 0x4 DUP3 ADD MSTORE PUSH1 0xB PUSH1 0x24 DUP3 ADD MSTORE PUSH11 0x536565644964496E557365 PUSH1 0xA8 SHL PUSH1 0x44 DUP3 ADD MSTORE PUSH1 0x64 SWAP1 REVERT JUMPDEST PUSH1 0x40 MLOAD PUSH3 0x461BCD PUSH1 0xE5 SHL DUP2 MSTORE PUSH1 0x20 PUSH1 0x4 DUP3 ADD MSTORE PUSH1 0xF PUSH1 0x24 DUP3 ADD MSTORE PUSH15 0x125B9D985B1A59081CD95959081251 PUSH1 0x8A SHL PUSH1 0x44 DUP3 ADD MSTORE PUSH1 0x64 SWAP1 REVERT JUMPDEST PUSH1 0x20 SWAP2 POP GT ISZERO DUP6 PUSH2 0x6A6 JUMP JUMPDEST CALLVALUE PUSH2 0x10D JUMPI PUSH1 0x0 CALLDATASIZE PUSH1 0x3 NOT ADD SLT PUSH2 0x10D JUMPI PUSH32 0x0 PUSH1 0x1 PUSH1 0x1 PUSH1 0xA0 SHL SUB AND ADDRESS SUB PUSH2 0xBD5 JUMPI PUSH1 0x20 PUSH1 0x40 MLOAD PUSH32 0x360894A13BA1A3210667C828492DB98DCA3E2076CC3735A920A3CA505D382BBC DUP2 MSTORE RETURN JUMPDEST PUSH1 0x40 MLOAD PUSH4 0x703E46DD PUSH1 0xE1 SHL DUP2 MSTORE PUSH1 0x4 SWAP1 REVERT JUMPDEST PUSH1 0x40 CALLDATASIZE PUSH1 0x3 NOT ADD SLT PUSH2 0x10D JUMPI PUSH2 0xBFB PUSH2 0x177A JUMP JUMPDEST PUSH1 0x24 CALLDATALOAD PUSH1 0x1 PUSH1 0x1 PUSH1 0x40 SHL SUB DUP2 GT PUSH2 0x10D JUMPI CALLDATASIZE PUSH1 0x23 DUP3 ADD SLT ISZERO PUSH2 0x10D JUMPI PUSH2 0xC2B SWAP1 CALLDATASIZE SWAP1 PUSH1 0x24 DUP2 PUSH1 0x4 ADD CALLDATALOAD SWAP2 ADD PUSH2 0x15FE JUMP JUMPDEST SWAP1 PUSH1 0x1 PUSH1 0x1 PUSH1 0xA0 SHL SUB PUSH32 0x0 DUP2 AND ADDRESS DUP2 EQ SWAP1 DUP2 ISZERO PUSH2 0xDE7 JUMPI JUMPDEST POP PUSH2 0xBD5 JUMPI PUSH2 0xC6F PUSH2 0x1CC8 JUMP JUMPDEST PUSH1 0x40 MLOAD PUSH4 0x52D1902D PUSH1 0xE0 SHL DUP2 MSTORE SWAP1 DUP3 AND SWAP2 PUSH1 0x20 SWAP2 DUP3 DUP2 PUSH1 0x4 DUP2 DUP8 GAS STATICCALL PUSH1 0x0 SWAP2 DUP2 PUSH2 0xDB8 JUMPI JUMPDEST POP PUSH2 0xCB2 JUMPI PUSH1 0x40 MLOAD PUSH4 0x4C9C8CE3 PUSH1 0xE0 SHL DUP2 MSTORE PUSH1 0x4 DUP2 ADD DUP6 SWAP1 MSTORE PUSH1 0x24 SWAP1 REVERT JUMPDEST SWAP3 DUP5 SWAP4 PUSH32 0x360894A13BA1A3210667C828492DB98DCA3E2076CC3735A920A3CA505D382BBC SWAP1 DUP2 DUP2 SUB PUSH2 0xDA0 JUMPI POP DUP3 EXTCODESIZE ISZERO PUSH2 0xD87 JUMPI DUP1 SLOAD PUSH1 0x1 PUSH1 0x1 PUSH1 0xA0 SHL SUB NOT AND DUP3 OR SWAP1 SSTORE PUSH1 0x40 MLOAD SWAP1 PUSH32 0xBC7CD75A20EE27FD9ADEBAB32041F755214DBC6BFFA90CC0225B39DA2E5C2D3B PUSH1 0x0 DUP1 LOG2 DUP4 MLOAD ISZERO PUSH2 0xD6D JUMPI POP PUSH1 0x0 DUP1 DUP5 DUP5 PUSH2 0x10B SWAP7 MLOAD SWAP2 ADD DUP5 GAS DELEGATECALL SWAP1 RETURNDATASIZE ISZERO PUSH2 0xD64 JUMPI RETURNDATASIZE PUSH2 0xD47 DUP2 PUSH2 0x15E3 JUMP JUMPDEST SWAP1 PUSH2 0xD55 PUSH1 0x40 MLOAD SWAP3 DUP4 PUSH2 0x15C2 JUMP JUMPDEST DUP2 MSTORE PUSH1 0x0 DUP2 SWAP5 RETURNDATASIZE SWAP3 ADD RETURNDATACOPY PUSH2 0x1D9E JUMP JUMPDEST PUSH1 0x60 SWAP3 POP PUSH2 0x1D9E JUMP JUMPDEST SWAP3 POP POP POP CALLVALUE PUSH2 0xD78 JUMPI STOP JUMPDEST PUSH4 0xB398979F PUSH1 0xE0 SHL DUP2 MSTORE PUSH1 0x4 SWAP1 REVERT JUMPDEST PUSH1 0x40 MLOAD PUSH4 0x4C9C8CE3 PUSH1 0xE0 SHL DUP2 MSTORE PUSH1 0x4 DUP2 ADD DUP4 SWAP1 MSTORE PUSH1 0x24 SWAP1 REVERT JUMPDEST PUSH1 0x24 SWAP1 PUSH1 0x40 MLOAD SWAP1 PUSH4 0x2A875269 PUSH1 0xE2 SHL DUP3 MSTORE PUSH1 0x4 DUP3 ADD MSTORE REVERT JUMPDEST SWAP1 SWAP2 POP DUP4 DUP2 DUP2 RETURNDATASIZE DUP4 GT PUSH2 0xDE0 JUMPI JUMPDEST PUSH2 0xDD0 DUP2 DUP4 PUSH2 0x15C2 JUMP JUMPDEST DUP2 ADD SUB SLT PUSH2 0x10D JUMPI MLOAD SWAP1 DUP7 PUSH2 0xC94 JUMP JUMPDEST POP RETURNDATASIZE PUSH2 0xDC6 JUMP JUMPDEST SWAP1 POP DUP2 PUSH32 0x360894A13BA1A3210667C828492DB98DCA3E2076CC3735A920A3CA505D382BBC SLOAD AND EQ ISZERO DUP5 PUSH2 0xC62 JUMP JUMPDEST CALLVALUE PUSH2 0x10D JUMPI PUSH1 0x20 DUP1 PUSH1 0x3 NOT CALLDATASIZE ADD SLT PUSH2 0x10D JUMPI PUSH1 0x1 PUSH1 0x1 PUSH1 0xA0 SHL SUB DUP1 PUSH2 0xE38 PUSH2 0x177A JUMP JUMPDEST AND PUSH1 0x0 MSTORE PUSH1 0x3 SWAP2 PUSH1 0x3 DUP2 MSTORE PUSH1 0x40 PUSH1 0x0 KECCAK256 SWAP2 DUP3 SLOAD PUSH2 0xE54 DUP2 PUSH2 0x196C JUMP JUMPDEST SWAP4 PUSH2 0xE62 PUSH1 0x40 MLOAD SWAP6 DUP7 PUSH2 0x15C2 JUMP JUMPDEST DUP2 DUP6 MSTORE PUSH1 0x0 SWAP1 DUP2 MSTORE DUP4 DUP2 KECCAK256 DUP5 DUP1 DUP8 ADD JUMPDEST DUP5 DUP5 LT PUSH2 0xF6F JUMPI POP POP POP POP POP PUSH2 0xE88 DUP4 MLOAD PUSH2 0x1983 JUMP JUMPDEST SWAP4 PUSH1 0x0 JUMPDEST DUP5 MLOAD DUP2 LT ISZERO PUSH2 0xF61 JUMPI DUP1 PUSH2 0xEA2 PUSH1 0x1 SWAP3 DUP8 PUSH2 0x1A12 JUMP JUMPDEST MLOAD PUSH1 0xFF PUSH1 0x8 DUP8 PUSH2 0xEBB PUSH1 0x40 MLOAD SWAP5 DUP6 DUP2 MLOAD SWAP4 DUP5 SWAP3 ADD PUSH2 0x1653 JUMP JUMPDEST DUP4 ADD SWAP3 DUP9 DUP2 DUP8 SWAP6 DUP7 DUP2 MSTORE SUB ADD SWAP1 KECCAK256 DUP8 PUSH1 0x40 MLOAD SWAP5 PUSH2 0xED7 DUP7 PUSH2 0x15A6 JUMP JUMPDEST PUSH2 0xEE0 DUP4 PUSH2 0x16B0 JUMP JUMPDEST DUP7 MSTORE DUP3 ADD SLOAD AND DUP10 DUP6 ADD MSTORE PUSH2 0xEF6 PUSH1 0x2 DUP3 ADD PUSH2 0x16B0 JUMP JUMPDEST PUSH1 0x40 DUP6 ADD MSTORE PUSH2 0xF06 DUP8 DUP3 ADD PUSH2 0x16B0 JUMP JUMPDEST PUSH1 0x60 DUP6 ADD MSTORE PUSH1 0x4 DUP2 ADD SLOAD PUSH1 0x80 DUP6 ADD MSTORE PUSH2 0xF21 PUSH1 0x5 DUP3 ADD PUSH2 0x16B0 JUMP JUMPDEST PUSH1 0xA0 DUP6 ADD MSTORE PUSH1 0x6 DUP2 ADD SLOAD PUSH1 0xC0 DUP6 ADD MSTORE PUSH1 0x7 DUP2 ADD SLOAD PUSH1 0xE0 DUP6 ADD MSTORE ADD SLOAD AND ISZERO ISZERO PUSH2 0x100 DUP3 ADD MSTORE PUSH2 0xF4F DUP3 DUP10 PUSH2 0x1A12 JUMP JUMPDEST MSTORE PUSH2 0xF5A DUP2 DUP9 PUSH2 0x1A12 JUMP JUMPDEST POP ADD PUSH2 0xE8C JUMP JUMPDEST PUSH1 0x40 MLOAD DUP1 PUSH2 0x179 DUP9 DUP3 PUSH2 0x1790 JUMP JUMPDEST PUSH1 0x1 SWAP2 DUP3 SWAP2 PUSH2 0xF7D DUP6 PUSH2 0x16B0 JUMP JUMPDEST DUP2 MSTORE ADD SWAP3 ADD SWAP3 ADD SWAP2 SWAP1 DUP6 SWAP1 PUSH2 0xE72 JUMP JUMPDEST CALLVALUE PUSH2 0x10D JUMPI PUSH1 0x0 CALLDATASIZE PUSH1 0x3 NOT ADD SLT PUSH2 0x10D JUMPI PUSH2 0xFA6 PUSH2 0x1CC8 JUMP JUMPDEST PUSH2 0xFAE PUSH2 0x1C40 JUMP JUMPDEST PUSH1 0x0 SLOAD PUSH1 0x40 MLOAD PUSH4 0x70A08231 PUSH1 0xE0 SHL DUP2 MSTORE ADDRESS PUSH1 0x4 DUP3 ADD MSTORE PUSH1 0x1 PUSH1 0x1 PUSH1 0xA0 SHL SUB SWAP2 DUP3 AND SWAP2 PUSH1 0x20 SWAP2 SWAP1 DUP3 DUP3 PUSH1 0x24 DUP2 DUP8 GAS STATICCALL SWAP2 DUP3 ISZERO PUSH2 0x10BF JUMPI PUSH1 0x0 SWAP3 PUSH2 0x1090 JUMPI JUMPDEST POP DUP2 ISZERO PUSH2 0x1058 JUMPI PUSH1 0x0 DUP1 MLOAD PUSH1 0x20 PUSH2 0x1E02 DUP4 CODECOPY DUP2 MLOAD SWAP2 MSTORE SLOAD AND PUSH1 0x40 MLOAD SWAP3 PUSH4 0xA9059CBB PUSH1 0xE0 SHL SWAP1 DUP5 ADD MSTORE PUSH1 0x24 DUP4 ADD MSTORE PUSH1 0x44 DUP3 ADD MSTORE PUSH1 0x44 DUP2 MSTORE PUSH1 0x80 DUP2 ADD SWAP2 DUP2 DUP4 LT PUSH1 0x1 PUSH1 0x1 PUSH1 0x40 SHL SUB DUP5 GT OR PUSH2 0x391 JUMPI PUSH2 0x1044 SWAP3 PUSH1 0x40 MSTORE PUSH2 0x1D01 JUMP JUMPDEST PUSH1 0x1 PUSH1 0x0 DUP1 MLOAD PUSH1 0x20 PUSH2 0x1E22 DUP4 CODECOPY DUP2 MLOAD SWAP2 MSTORE SSTORE STOP JUMPDEST PUSH1 0x40 MLOAD PUSH3 0x461BCD PUSH1 0xE5 SHL DUP2 MSTORE PUSH1 0x4 DUP2 ADD DUP5 SWAP1 MSTORE PUSH1 0x10 PUSH1 0x24 DUP3 ADD MSTORE PUSH16 0x4E6F46656573546F5769746864726177 PUSH1 0x80 SHL PUSH1 0x44 DUP3 ADD MSTORE PUSH1 0x64 SWAP1 REVERT JUMPDEST SWAP1 SWAP2 POP DUP3 DUP2 DUP2 RETURNDATASIZE DUP4 GT PUSH2 0x10B8 JUMPI JUMPDEST PUSH2 0x10A8 DUP2 DUP4 PUSH2 0x15C2 JUMP JUMPDEST DUP2 ADD SUB SLT PUSH2 0x10D JUMPI MLOAD SWAP1 DUP5 PUSH2 0xFEB JUMP JUMPDEST POP RETURNDATASIZE PUSH2 0x109E JUMP JUMPDEST PUSH1 0x40 MLOAD RETURNDATASIZE PUSH1 0x0 DUP3 RETURNDATACOPY RETURNDATASIZE SWAP1 REVERT JUMPDEST CALLVALUE PUSH2 0x10D JUMPI PUSH1 0x20 CALLDATASIZE PUSH1 0x3 NOT ADD SLT PUSH2 0x10D JUMPI PUSH1 0x4 CALLDATALOAD PUSH1 0x1 PUSH1 0x1 PUSH1 0x40 SHL SUB DUP2 GT PUSH2 0x10D JUMPI PUSH2 0x10FB SWAP1 CALLDATASIZE SWAP1 PUSH1 0x4 ADD PUSH2 0x1635 JUMP JUMPDEST PUSH2 0x1103 PUSH2 0x1C40 JUMP JUMPDEST PUSH1 0x40 MLOAD PUSH1 0x20 DUP2 DUP4 MLOAD PUSH2 0x1118 DUP2 DUP4 DUP6 DUP9 ADD PUSH2 0x1653 JUMP JUMPDEST DUP2 ADD PUSH1 0x1 DUP2 MSTORE SUB ADD SWAP1 KECCAK256 PUSH1 0x1 DUP1 PUSH1 0xA0 SHL SUB PUSH1 0x1 DUP3 ADD SLOAD AND CALLER SUB PUSH2 0x118F JUMPI PUSH1 0x8 ADD DUP1 SLOAD PUSH2 0x1146 PUSH1 0xFF DUP3 AND PUSH2 0x18F0 JUMP JUMPDEST PUSH1 0xFF NOT AND SWAP1 SSTORE PUSH2 0x1156 CALLER SWAP2 PUSH2 0x194C JUMP JUMPDEST PUSH32 0xCE7D5A374B88B2A64F2970516112D4977854B27C776377A92890C6B8D29CB114 PUSH1 0x0 DUP1 LOG3 PUSH1 0x1 PUSH1 0x0 DUP1 MLOAD PUSH1 0x20 PUSH2 0x1E22 DUP4 CODECOPY DUP2 MLOAD SWAP2 MSTORE SSTORE STOP JUMPDEST PUSH1 0x40 MLOAD PUSH3 0x461BCD PUSH1 0xE5 SHL DUP2 MSTORE PUSH1 0x20 PUSH1 0x4 DUP3 ADD MSTORE PUSH1 0xD PUSH1 0x24 DUP3 ADD MSTORE PUSH13 0x2737BA29B2B2B229B2B63632B9 PUSH1 0x99 SHL PUSH1 0x44 DUP3 ADD MSTORE PUSH1 0x64 SWAP1 REVERT JUMPDEST CALLVALUE PUSH2 0x10D JUMPI PUSH1 0x0 CALLDATASIZE PUSH1 0x3 NOT ADD SLT PUSH2 0x10D JUMPI PUSH1 0x0 SLOAD PUSH1 0x40 MLOAD PUSH1 0x1 PUSH1 0x1 PUSH1 0xA0 SHL SUB SWAP1 SWAP2 AND DUP2 MSTORE PUSH1 0x20 SWAP1 RETURN JUMPDEST CALLVALUE PUSH2 0x10D JUMPI PUSH1 0x40 CALLDATASIZE PUSH1 0x3 NOT ADD SLT PUSH2 0x10D JUMPI PUSH1 0x4 CALLDATALOAD PUSH1 0x1 PUSH1 0x1 PUSH1 0x40 SHL SUB DUP2 GT PUSH2 0x10D JUMPI PUSH2 0x121D SWAP1 CALLDATASIZE SWAP1 PUSH1 0x4 ADD PUSH2 0x1635 JUMP JUMPDEST PUSH1 0x24 DUP1 CALLDATALOAD SWAP1 PUSH2 0x122A PUSH2 0x1C40 JUMP JUMPDEST PUSH1 0x40 MLOAD SWAP3 DUP4 DUP2 MLOAD PUSH1 0x20 SWAP6 DUP2 PUSH2 0x1243 DUP9 SWAP4 DUP4 DUP6 DUP9 ADD PUSH2 0x1653 JUMP JUMPDEST DUP2 ADD PUSH1 0x1 DUP2 MSTORE SUB ADD SWAP1 KECCAK256 PUSH1 0x8 DUP2 ADD SWAP1 PUSH2 0x125F PUSH1 0xFF DUP4 SLOAD AND PUSH2 0x18F0 JUMP JUMPDEST DUP5 ISZERO PUSH2 0x144C JUMPI PUSH1 0x6 DUP2 ADD SWAP1 DUP6 DUP3 SLOAD LT PUSH2 0x1411 JUMPI PUSH1 0x1 DUP2 ADD SLOAD PUSH1 0x1 PUSH1 0x1 PUSH1 0xA0 SHL SUB SWAP1 DUP2 AND SWAP2 CALLER DUP4 EQ PUSH2 0x13DA JUMPI DUP8 PUSH1 0x7 PUSH1 0x4 DUP4 ADD SLOAD SWAP3 ADD SLOAD DUP1 PUSH2 0x13A0 JUMPI JUMPDEST POP PUSH2 0x12A5 SWAP2 PUSH2 0x1939 JUMP JUMPDEST SWAP6 PUSH1 0x2A DUP8 MUL SWAP1 DUP8 DUP3 DIV PUSH1 0x2A EQ DUP9 ISZERO OR ISZERO PUSH2 0x138C JUMPI PUSH2 0x1309 PUSH32 0x6C5EFEFF5C320943D265DC4E5F1AF95AD523555CE0C1957E367DDA5514572DF DUP12 DUP12 DUP12 PUSH2 0x1330 DUP13 DUP13 DUP13 PUSH2 0x1316 DUP14 DUP14 PUSH2 0x2710 DUP15 DIV SWAP12 DUP13 SWAP3 PUSH2 0x12FD DUP5 DUP12 PUSH2 0x192C JUMP JUMPDEST SWAP1 CALLER DUP5 PUSH1 0x0 SLOAD AND PUSH2 0x1C70 JUMP JUMPDEST PUSH1 0x0 SLOAD AND ADDRESS SWAP1 CALLER SWAP1 PUSH2 0x1C70 JUMP JUMPDEST PUSH2 0x1321 DUP7 DUP3 SLOAD PUSH2 0x192C JUMP JUMPDEST DUP1 SWAP2 SSTORE ISZERO PUSH2 0x137E JUMPI JUMPDEST POP PUSH2 0x194C JUMP JUMPDEST SWAP1 PUSH1 0x40 MLOAD SWAP3 DUP4 MSTORE DUP4 DUP4 ADD MSTORE PUSH32 0xF076F51BAFB67BDC44D9949E6D7C35B30314795854F3D90B680B3B3F4572728E PUSH1 0x40 CALLER SWAP4 LOG3 PUSH1 0x40 MLOAD SWAP3 DUP4 MSTORE CALLER SWAP3 LOG2 PUSH1 0x1 PUSH1 0x0 DUP1 MLOAD PUSH1 0x20 PUSH2 0x1E22 DUP4 CODECOPY DUP2 MLOAD SWAP2 MSTORE SSTORE STOP JUMPDEST DUP1 SLOAD PUSH1 0xFF NOT AND SWAP1 SSTORE DUP8 PUSH2 0x132A JUMP JUMPDEST PUSH4 0x4E487B71 PUSH1 0xE0 SHL PUSH1 0x0 SWAP1 DUP2 MSTORE PUSH1 0x11 PUSH1 0x4 MSTORE REVERT JUMPDEST SWAP1 POP PUSH1 0x64 SUB SWAP1 PUSH1 0x64 DUP3 GT PUSH2 0x13C5 JUMPI PUSH1 0x64 PUSH2 0x13BE PUSH2 0x12A5 SWAP4 DUP12 SWAP4 PUSH2 0x1939 JUMP JUMPDEST DIV SWAP2 PUSH2 0x129B JUMP JUMPDEST DUP8 PUSH4 0x4E487B71 PUSH1 0xE0 SHL PUSH1 0x0 MSTORE PUSH1 0x11 PUSH1 0x4 MSTORE PUSH1 0x0 REVERT JUMPDEST PUSH1 0x40 MLOAD PUSH3 0x461BCD PUSH1 0xE5 SHL DUP2 MSTORE PUSH1 0x4 DUP2 ADD DUP11 SWAP1 MSTORE PUSH1 0x10 DUP2 DUP10 ADD MSTORE PUSH16 0x10D85B9B9BDD109D5E53DDDB94D95959 PUSH1 0x82 SHL PUSH1 0x44 DUP3 ADD MSTORE PUSH1 0x64 SWAP1 REVERT JUMPDEST PUSH1 0x40 MLOAD PUSH3 0x461BCD PUSH1 0xE5 SHL DUP2 MSTORE PUSH1 0x4 DUP2 ADD DUP9 SWAP1 MSTORE PUSH1 0x14 DUP2 DUP8 ADD MSTORE PUSH20 0x496E73756666696369656E745175616E74697479 PUSH1 0x60 SHL PUSH1 0x44 DUP3 ADD MSTORE PUSH1 0x64 SWAP1 REVERT JUMPDEST PUSH1 0x40 MLOAD PUSH3 0x461BCD PUSH1 0xE5 SHL DUP2 MSTORE PUSH1 0x4 DUP2 ADD DUP8 SWAP1 MSTORE PUSH1 0x17 DUP2 DUP7 ADD MSTORE PUSH32 0x496E76616C696450757263686173655175616E74697479000000000000000000 PUSH1 0x44 DUP3 ADD MSTORE PUSH1 0x64 SWAP1 REVERT JUMPDEST CALLVALUE PUSH2 0x10D JUMPI PUSH1 0x20 CALLDATASIZE PUSH1 0x3 NOT ADD SLT PUSH2 0x10D JUMPI PUSH1 0x4 CALLDATALOAD PUSH1 0x1 PUSH1 0x1 PUSH1 0x40 SHL SUB DUP2 GT PUSH2 0x10D JUMPI PUSH2 0x14DB PUSH1 0x20 PUSH2 0x14C8 PUSH2 0x155B SWAP4 CALLDATASIZE SWAP1 PUSH1 0x4 ADD PUSH2 0x1635 JUMP JUMPDEST DUP2 PUSH1 0x40 MLOAD SWAP4 DUP3 DUP6 DUP1 SWAP5 MLOAD SWAP4 DUP5 SWAP3 ADD PUSH2 0x1653 JUMP JUMPDEST DUP2 ADD PUSH1 0x1 DUP2 MSTORE SUB ADD SWAP1 KECCAK256 PUSH2 0x14EE DUP2 PUSH2 0x16B0 JUMP JUMPDEST SWAP1 PUSH1 0x1 DUP1 PUSH1 0xA0 SHL SUB PUSH1 0x1 DUP3 ADD SLOAD AND SWAP1 PUSH2 0x1509 PUSH1 0x2 DUP3 ADD PUSH2 0x16B0 JUMP JUMPDEST SWAP1 PUSH2 0x158F PUSH2 0x1519 PUSH1 0x3 DUP4 ADD PUSH2 0x16B0 JUMP JUMPDEST PUSH1 0x4 DUP4 ADD SLOAD SWAP1 PUSH2 0x157C PUSH2 0x152E PUSH1 0x5 DUP7 ADD PUSH2 0x16B0 JUMP JUMPDEST SWAP2 PUSH2 0x156E PUSH1 0x6 DUP8 ADD SLOAD SWAP9 PUSH1 0xFF PUSH1 0x8 PUSH1 0x7 DUP11 ADD SLOAD SWAP10 ADD SLOAD AND SWAP9 PUSH1 0x40 MLOAD SWAP13 DUP14 SWAP13 DUP14 PUSH2 0x120 SWAP1 DUP2 DUP2 MSTORE ADD SWAP1 PUSH2 0x1755 JUMP JUMPDEST SWAP2 PUSH1 0x20 DUP14 ADD MSTORE DUP12 DUP3 SUB PUSH1 0x40 DUP14 ADD MSTORE PUSH2 0x1755 JUMP JUMPDEST SWAP1 DUP10 DUP3 SUB PUSH1 0x60 DUP12 ADD MSTORE PUSH2 0x1755 JUMP JUMPDEST SWAP2 PUSH1 0x80 DUP9 ADD MSTORE DUP7 DUP3 SUB PUSH1 0xA0 DUP9 ADD MSTORE PUSH2 0x1755 JUMP JUMPDEST SWAP3 PUSH1 0xC0 DUP6 ADD MSTORE PUSH1 0xE0 DUP5 ADD MSTORE ISZERO ISZERO PUSH2 0x100 DUP4 ADD MSTORE SUB SWAP1 RETURN JUMPDEST PUSH2 0x120 DUP2 ADD SWAP1 DUP2 LT PUSH1 0x1 PUSH1 0x1 PUSH1 0x40 SHL SUB DUP3 GT OR PUSH2 0x391 JUMPI PUSH1 0x40 MSTORE JUMP JUMPDEST SWAP1 PUSH1 0x1F DUP1 NOT SWAP2 ADD AND DUP2 ADD SWAP1 DUP2 LT PUSH1 0x1 PUSH1 0x1 PUSH1 0x40 SHL SUB DUP3 GT OR PUSH2 0x391 JUMPI PUSH1 0x40 MSTORE JUMP JUMPDEST PUSH1 0x1 PUSH1 0x1 PUSH1 0x40 SHL SUB DUP2 GT PUSH2 0x391 JUMPI PUSH1 0x1F ADD PUSH1 0x1F NOT AND PUSH1 0x20 ADD SWAP1 JUMP JUMPDEST SWAP3 SWAP2 SWAP3 PUSH2 0x160A DUP3 PUSH2 0x15E3 JUMP JUMPDEST SWAP2 PUSH2 0x1618 PUSH1 0x40 MLOAD SWAP4 DUP5 PUSH2 0x15C2 JUMP JUMPDEST DUP3 SWAP5 DUP2 DUP5 MSTORE DUP2 DUP4 ADD GT PUSH2 0x10D JUMPI DUP3 DUP2 PUSH1 0x20 SWAP4 DUP5 PUSH1 0x0 SWAP7 ADD CALLDATACOPY ADD ADD MSTORE JUMP JUMPDEST SWAP1 DUP1 PUSH1 0x1F DUP4 ADD SLT ISZERO PUSH2 0x10D JUMPI DUP2 PUSH1 0x20 PUSH2 0x1650 SWAP4 CALLDATALOAD SWAP2 ADD PUSH2 0x15FE JUMP JUMPDEST SWAP1 JUMP JUMPDEST PUSH1 0x0 JUMPDEST DUP4 DUP2 LT PUSH2 0x1666 JUMPI POP POP PUSH1 0x0 SWAP2 ADD MSTORE JUMP JUMPDEST DUP2 DUP2 ADD MLOAD DUP4 DUP3 ADD MSTORE PUSH1 0x20 ADD PUSH2 0x1656 JUMP JUMPDEST SWAP1 PUSH1 0x1 DUP3 DUP2 SHR SWAP3 AND DUP1 ISZERO PUSH2 0x16A6 JUMPI JUMPDEST PUSH1 0x20 DUP4 LT EQ PUSH2 0x1690 JUMPI JUMP JUMPDEST PUSH4 0x4E487B71 PUSH1 0xE0 SHL PUSH1 0x0 MSTORE PUSH1 0x22 PUSH1 0x4 MSTORE PUSH1 0x24 PUSH1 0x0 REVERT JUMPDEST SWAP2 PUSH1 0x7F AND SWAP2 PUSH2 0x1685 JUMP JUMPDEST SWAP1 PUSH1 0x40 MLOAD SWAP2 DUP3 PUSH1 0x0 DUP3 SLOAD PUSH2 0x16C3 DUP2 PUSH2 0x1676 JUMP JUMPDEST SWAP1 DUP2 DUP5 MSTORE PUSH1 0x20 SWAP5 PUSH1 0x1 SWAP2 PUSH1 0x1 DUP2 AND SWAP1 DUP2 PUSH1 0x0 EQ PUSH2 0x1733 JUMPI POP PUSH1 0x1 EQ PUSH2 0x16F4 JUMPI JUMPDEST POP POP POP PUSH2 0x16F2 SWAP3 POP SUB DUP4 PUSH2 0x15C2 JUMP JUMPDEST JUMP JUMPDEST PUSH1 0x0 SWAP1 DUP2 MSTORE DUP6 DUP2 KECCAK256 SWAP6 SWAP4 POP SWAP2 SWAP1 JUMPDEST DUP2 DUP4 LT PUSH2 0x171B JUMPI POP POP PUSH2 0x16F2 SWAP4 POP DUP3 ADD ADD CODESIZE DUP1 DUP1 PUSH2 0x16E3 JUMP JUMPDEST DUP6 SLOAD DUP9 DUP5 ADD DUP6 ADD MSTORE SWAP5 DUP6 ADD SWAP5 DUP8 SWAP5 POP SWAP2 DUP4 ADD SWAP2 PUSH2 0x1702 JUMP JUMPDEST SWAP3 POP POP POP PUSH2 0x16F2 SWAP5 SWAP3 POP PUSH1 0xFF NOT AND DUP3 DUP5 ADD MSTORE ISZERO ISZERO PUSH1 0x5 SHL DUP3 ADD ADD CODESIZE DUP1 DUP1 PUSH2 0x16E3 JUMP JUMPDEST SWAP1 PUSH1 0x20 SWAP2 PUSH2 0x176E DUP2 MLOAD DUP1 SWAP3 DUP2 DUP6 MSTORE DUP6 DUP1 DUP7 ADD SWAP2 ADD PUSH2 0x1653 JUMP JUMPDEST PUSH1 0x1F ADD PUSH1 0x1F NOT AND ADD ADD SWAP1 JUMP JUMPDEST PUSH1 0x4 CALLDATALOAD SWAP1 PUSH1 0x1 PUSH1 0x1 PUSH1 0xA0 SHL SUB DUP3 AND DUP3 SUB PUSH2 0x10D JUMPI JUMP JUMPDEST PUSH1 0x20 DUP1 DUP3 ADD SWAP1 DUP1 DUP4 MSTORE DUP4 MLOAD DUP1 SWAP3 MSTORE PUSH1 0x40 SWAP3 PUSH1 0x40 DUP2 ADD DUP3 PUSH1 0x40 DUP6 PUSH1 0x5 SHL DUP5 ADD ADD SWAP7 ADD SWAP5 PUSH1 0x0 SWAP3 JUMPDEST DUP6 DUP5 LT PUSH2 0x17C7 JUMPI POP POP POP POP POP POP POP SWAP1 JUMP JUMPDEST SWAP1 SWAP2 SWAP3 SWAP4 SWAP5 SWAP6 SWAP7 DUP6 DUP1 PUSH1 0x1 SWAP3 PUSH1 0x3F NOT DUP6 DUP3 SUB ADD DUP8 MSTORE DUP11 MLOAD SWAP1 PUSH2 0x184B PUSH2 0x182E PUSH2 0x181B PUSH2 0x17FC PUSH2 0x120 DUP7 MLOAD SWAP1 DUP1 DUP8 MSTORE DUP7 ADD SWAP1 PUSH2 0x1755 JUMP JUMPDEST DUP9 DUP1 PUSH1 0xA0 SHL SUB DUP8 DUP8 ADD MLOAD AND DUP8 DUP7 ADD MSTORE DUP11 DUP7 ADD MLOAD DUP6 DUP3 SUB DUP13 DUP8 ADD MSTORE PUSH2 0x1755 JUMP JUMPDEST PUSH1 0x60 DUP1 DUP7 ADD MLOAD SWAP1 DUP6 DUP4 SUB SWAP1 DUP7 ADD MSTORE PUSH2 0x1755 JUMP JUMPDEST PUSH1 0x80 DUP1 DUP6 ADD MLOAD SWAP1 DUP5 ADD MSTORE PUSH1 0xA0 DUP1 DUP6 ADD MLOAD SWAP1 DUP5 DUP4 SUB SWAP1 DUP6 ADD MSTORE PUSH2 0x1755 JUMP JUMPDEST SWAP2 PUSH1 0xC0 DUP1 DUP3 ADD MLOAD SWAP1 DUP4 ADD MSTORE PUSH1 0xE0 DUP1 DUP3 ADD MLOAD SWAP1 DUP4 ADD MSTORE PUSH2 0x100 DUP1 SWAP2 ADD MLOAD ISZERO ISZERO SWAP2 ADD MSTORE SWAP10 ADD SWAP5 ADD SWAP5 ADD SWAP3 SWAP6 SWAP5 SWAP4 SWAP2 SWAP1 PUSH2 0x17B6 JUMP JUMPDEST PUSH1 0x2 SLOAD DUP2 LT ISZERO PUSH2 0x18B4 JUMPI PUSH1 0x2 PUSH1 0x0 MSTORE PUSH32 0x405787FA12A823E0F2B7631CC41B3BA8828B3321CA811111FA75CD3AA3BB5ACE ADD SWAP1 PUSH1 0x0 SWAP1 JUMP JUMPDEST PUSH4 0x4E487B71 PUSH1 0xE0 SHL PUSH1 0x0 MSTORE PUSH1 0x32 PUSH1 0x4 MSTORE PUSH1 0x24 PUSH1 0x0 REVERT JUMPDEST DUP1 SLOAD DUP3 LT ISZERO PUSH2 0x18B4 JUMPI PUSH1 0x0 MSTORE PUSH1 0x20 PUSH1 0x0 KECCAK256 ADD SWAP1 PUSH1 0x0 SWAP1 JUMP JUMPDEST SWAP1 PUSH2 0x988 JUMPI PUSH2 0x1650 SWAP1 PUSH2 0x16B0 JUMP JUMPDEST ISZERO PUSH2 0x18F7 JUMPI JUMP JUMPDEST PUSH1 0x40 MLOAD PUSH3 0x461BCD PUSH1 0xE5 SHL DUP2 MSTORE PUSH1 0x20 PUSH1 0x4 DUP3 ADD MSTORE PUSH1 0xD PUSH1 0x24 DUP3 ADD MSTORE PUSH13 0x536565644E6F74416374697665 PUSH1 0x98 SHL PUSH1 0x44 DUP3 ADD MSTORE PUSH1 0x64 SWAP1 REVERT JUMPDEST SWAP2 SWAP1 DUP3 SUB SWAP2 DUP3 GT PUSH2 0x532 JUMPI JUMP JUMPDEST DUP2 DUP2 MUL SWAP3 SWAP2 DUP2 ISZERO SWAP2 DUP5 DIV EQ OR ISZERO PUSH2 0x532 JUMPI JUMP JUMPDEST PUSH2 0x1964 SWAP1 PUSH1 0x20 PUSH1 0x40 MLOAD SWAP3 DUP3 DUP5 DUP1 SWAP5 MLOAD SWAP4 DUP5 SWAP3 ADD PUSH2 0x1653 JUMP JUMPDEST DUP2 ADD SUB SWAP1 KECCAK256 SWAP1 JUMP JUMPDEST PUSH1 0x1 PUSH1 0x1 PUSH1 0x40 SHL SUB DUP2 GT PUSH2 0x391 JUMPI PUSH1 0x5 SHL PUSH1 0x20 ADD SWAP1 JUMP JUMPDEST SWAP1 PUSH2 0x198D DUP3 PUSH2 0x196C JUMP JUMPDEST PUSH1 0x40 SWAP1 PUSH2 0x199D PUSH1 0x40 MLOAD SWAP2 DUP3 PUSH2 0x15C2 JUMP JUMPDEST DUP4 DUP2 MSTORE DUP1 SWAP4 PUSH2 0x19AE PUSH1 0x1F NOT SWAP2 PUSH2 0x196C JUMP JUMPDEST ADD SWAP2 PUSH1 0x0 JUMPDEST DUP4 DUP2 LT PUSH2 0x19C0 JUMPI POP POP POP POP JUMP JUMPDEST PUSH1 0x20 SWAP1 DUP3 MLOAD PUSH2 0x19CE DUP2 PUSH2 0x15A6 JUMP JUMPDEST PUSH1 0x60 DUP1 DUP3 MSTORE DUP4 SWAP1 PUSH1 0x0 DUP3 DUP5 ADD MSTORE DUP1 DUP7 DUP5 ADD MSTORE DUP1 DUP1 DUP5 ADD MSTORE PUSH1 0x0 PUSH1 0x80 DUP5 ADD MSTORE PUSH1 0xA0 DUP4 ADD MSTORE PUSH1 0x0 PUSH1 0xC0 DUP4 ADD MSTORE PUSH1 0x0 PUSH1 0xE0 DUP4 ADD MSTORE PUSH1 0x0 PUSH2 0x100 DUP4 ADD MSTORE DUP3 DUP7 ADD ADD MSTORE ADD PUSH2 0x19B3 JUMP JUMPDEST DUP1 MLOAD DUP3 LT ISZERO PUSH2 0x18B4 JUMPI PUSH1 0x20 SWAP2 PUSH1 0x5 SHL ADD ADD SWAP1 JUMP JUMPDEST SWAP2 SWAP1 SWAP2 DUP3 MLOAD PUSH1 0x1 PUSH1 0x1 PUSH1 0x40 SHL SUB DUP2 GT PUSH2 0x391 JUMPI PUSH2 0x1A43 DUP3 SLOAD PUSH2 0x1676 JUMP JUMPDEST PUSH1 0x1F DUP2 GT PUSH2 0x1AEE JUMPI JUMPDEST POP PUSH1 0x20 DUP1 PUSH1 0x1F DUP4 GT PUSH1 0x1 EQ PUSH2 0x1A89 JUMPI POP DUP2 SWAP3 SWAP4 SWAP5 PUSH1 0x0 SWAP3 PUSH2 0x1A7E JUMPI JUMPDEST POP POP DUP2 PUSH1 0x1 SHL SWAP2 PUSH1 0x0 NOT SWAP1 PUSH1 0x3 SHL SHR NOT AND OR SWAP1 SSTORE JUMP JUMPDEST ADD MLOAD SWAP1 POP CODESIZE DUP1 PUSH2 0x1A68 JUMP JUMPDEST SWAP1 PUSH1 0x1F NOT DUP4 AND SWAP6 DUP5 PUSH1 0x0 MSTORE PUSH1 0x20 PUSH1 0x0 KECCAK256 SWAP3 PUSH1 0x0 SWAP1 JUMPDEST DUP9 DUP3 LT PUSH2 0x1AD6 JUMPI POP POP DUP4 PUSH1 0x1 SWAP6 SWAP7 SWAP8 LT PUSH2 0x1ABD JUMPI JUMPDEST POP POP POP DUP2 SHL ADD SWAP1 SSTORE JUMP JUMPDEST ADD MLOAD PUSH1 0x0 NOT PUSH1 0xF8 DUP5 PUSH1 0x3 SHL AND SHR NOT AND SWAP1 SSTORE CODESIZE DUP1 DUP1 PUSH2 0x1AB3 JUMP JUMPDEST DUP1 PUSH1 0x1 DUP6 SWAP7 DUP3 SWAP5 SWAP7 DUP7 ADD MLOAD DUP2 SSTORE ADD SWAP6 ADD SWAP4 ADD SWAP1 PUSH2 0x1A9E JUMP JUMPDEST PUSH1 0x0 DUP4 PUSH1 0x0 MSTORE PUSH1 0x20 PUSH1 0x0 KECCAK256 PUSH1 0x1F DUP5 ADD PUSH1 0x5 SHR DUP2 ADD SWAP3 PUSH1 0x20 DUP6 LT PUSH2 0x1B2E JUMPI JUMPDEST PUSH1 0x1F ADD PUSH1 0x5 SHR ADD SWAP2 JUMPDEST DUP3 DUP2 LT PUSH2 0x1B23 JUMPI POP POP PUSH2 0x1A4C JUMP JUMPDEST DUP2 DUP2 SSTORE PUSH1 0x1 ADD PUSH2 0x1B15 JUMP JUMPDEST SWAP1 SWAP3 POP DUP3 SWAP1 PUSH2 0x1B0C JUMP JUMPDEST PUSH1 0x40 MLOAD SWAP1 DUP2 PUSH1 0x0 DUP3 SLOAD PUSH2 0x1B4A DUP2 PUSH2 0x1676 JUMP JUMPDEST SWAP4 PUSH1 0x1 SWAP2 DUP1 DUP4 AND SWAP1 DUP2 ISZERO PUSH2 0x1BB0 JUMPI POP PUSH1 0x1 EQ PUSH2 0x1B72 JUMPI JUMPDEST POP POP PUSH1 0x20 SWAP3 POP PUSH1 0x1 DUP2 MSTORE SUB ADD SWAP1 KECCAK256 SWAP1 JUMP JUMPDEST SWAP1 SWAP2 POP PUSH1 0x0 MSTORE PUSH1 0x20 SWAP1 PUSH1 0x20 PUSH1 0x0 KECCAK256 SWAP1 PUSH1 0x0 SWAP2 JUMPDEST DUP6 DUP4 LT PUSH2 0x1B9C JUMPI POP POP POP POP PUSH1 0x20 SWAP2 DUP2 ADD CODESIZE DUP1 PUSH2 0x1B61 JUMP JUMPDEST DUP1 SLOAD DUP8 DUP5 ADD MSTORE DUP7 SWAP5 POP SWAP2 DUP4 ADD SWAP2 DUP2 ADD PUSH2 0x1B85 JUMP JUMPDEST SWAP3 POP POP POP PUSH1 0x20 SWAP4 SWAP2 POP PUSH1 0xFF NOT AND DUP3 MSTORE DUP1 ISZERO ISZERO MUL DUP2 ADD CODESIZE DUP1 PUSH2 0x1B61 JUMP JUMPDEST PUSH1 0x1 PUSH1 0x1 PUSH1 0xA0 SHL SUB SWAP1 DUP2 AND SWAP1 DUP2 ISZERO PUSH2 0x1C27 JUMPI PUSH1 0x0 DUP1 MLOAD PUSH1 0x20 PUSH2 0x1E02 DUP4 CODECOPY DUP2 MLOAD SWAP2 MSTORE DUP1 SLOAD PUSH1 0x1 PUSH1 0x1 PUSH1 0xA0 SHL SUB NOT DUP2 AND DUP5 OR SWAP1 SWAP2 SSTORE AND PUSH32 0x8BE0079C531659141344CD1FD0A4F28419497F9722A3DAAFE3B4186F6B6457E0 PUSH1 0x0 DUP1 LOG3 JUMP JUMPDEST PUSH1 0x40 MLOAD PUSH4 0x1E4FBDF7 PUSH1 0xE0 SHL DUP2 MSTORE PUSH1 0x0 PUSH1 0x4 DUP3 ADD MSTORE PUSH1 0x24 SWAP1 REVERT JUMPDEST PUSH1 0x0 DUP1 MLOAD PUSH1 0x20 PUSH2 0x1E22 DUP4 CODECOPY DUP2 MLOAD SWAP2 MSTORE PUSH1 0x2 DUP2 SLOAD EQ PUSH2 0x1C5E JUMPI PUSH1 0x2 SWAP1 SSTORE JUMP JUMPDEST PUSH1 0x40 MLOAD PUSH4 0x3EE5AEB5 PUSH1 0xE0 SHL DUP2 MSTORE PUSH1 0x4 SWAP1 REVERT JUMPDEST PUSH1 0x40 MLOAD PUSH4 0x23B872DD PUSH1 0xE0 SHL PUSH1 0x20 DUP3 ADD MSTORE PUSH1 0x1 PUSH1 0x1 PUSH1 0xA0 SHL SUB SWAP3 DUP4 AND PUSH1 0x24 DUP3 ADD MSTORE SWAP3 SWAP1 SWAP2 AND PUSH1 0x44 DUP4 ADD MSTORE PUSH1 0x64 DUP1 DUP4 ADD SWAP4 SWAP1 SWAP4 MSTORE SWAP2 DUP2 MSTORE PUSH1 0xA0 DUP2 ADD SWAP2 DUP2 DUP4 LT PUSH1 0x1 PUSH1 0x1 PUSH1 0x40 SHL SUB DUP5 GT OR PUSH2 0x391 JUMPI PUSH2 0x16F2 SWAP3 PUSH1 0x40 MSTORE PUSH2 0x1D01 JUMP JUMPDEST PUSH1 0x0 DUP1 MLOAD PUSH1 0x20 PUSH2 0x1E02 DUP4 CODECOPY DUP2 MLOAD SWAP2 MSTORE SLOAD PUSH1 0x1 PUSH1 0x1 PUSH1 0xA0 SHL SUB AND CALLER SUB PUSH2 0x1CE9 JUMPI JUMP JUMPDEST PUSH1 0x40 MLOAD PUSH4 0x118CDAA7 PUSH1 0xE0 SHL DUP2 MSTORE CALLER PUSH1 0x4 DUP3 ADD MSTORE PUSH1 0x24 SWAP1 REVERT JUMPDEST SWAP1 PUSH1 0x0 PUSH1 0x20 SWAP2 DUP3 DUP2 MLOAD SWAP2 ADD DUP3 DUP6 GAS CALL ISZERO PUSH2 0x10BF JUMPI PUSH1 0x0 MLOAD RETURNDATASIZE PUSH2 0x1D54 JUMPI POP PUSH1 0x1 PUSH1 0x1 PUSH1 0xA0 SHL SUB DUP2 AND EXTCODESIZE ISZERO JUMPDEST PUSH2 0x1D32 JUMPI POP JUMP JUMPDEST PUSH1 0x40 MLOAD PUSH4 0x5274AFE7 PUSH1 0xE0 SHL DUP2 MSTORE PUSH1 0x1 PUSH1 0x1 PUSH1 0xA0 SHL SUB SWAP1 SWAP2 AND PUSH1 0x4 DUP3 ADD MSTORE PUSH1 0x24 SWAP1 REVERT JUMPDEST PUSH1 0x1 EQ ISZERO PUSH2 0x1D2B JUMP JUMPDEST PUSH1 0xFF PUSH32 0xF0C57E16840DF040F15088DC2F81FE391C3923BEC73E23A9662EFC9C229C6A00 SLOAD PUSH1 0x40 SHR AND ISZERO PUSH2 0x1D8C JUMPI JUMP JUMPDEST PUSH1 0x40 MLOAD PUSH4 0x1AFCD79F PUSH1 0xE3 SHL DUP2 MSTORE PUSH1 0x4 SWAP1 REVERT JUMPDEST SWAP1 PUSH2 0x1DC5 JUMPI POP DUP1 MLOAD ISZERO PUSH2 0x1DB3 JUMPI DUP1 MLOAD SWAP1 PUSH1 0x20 ADD REVERT JUMPDEST PUSH1 0x40 MLOAD PUSH4 0xD6BDA275 PUSH1 0xE0 SHL DUP2 MSTORE PUSH1 0x4 SWAP1 REVERT JUMPDEST DUP2 MLOAD ISZERO DUP1 PUSH2 0x1DF8 JUMPI JUMPDEST PUSH2 0x1DD6 JUMPI POP SWAP1 JUMP JUMPDEST PUSH1 0x40 MLOAD PUSH4 0x9996B315 PUSH1 0xE0 SHL DUP2 MSTORE PUSH1 0x1 PUSH1 0x1 PUSH1 0xA0 SHL SUB SWAP1 SWAP2 AND PUSH1 0x4 DUP3 ADD MSTORE PUSH1 0x24 SWAP1 REVERT JUMPDEST POP DUP1 EXTCODESIZE ISZERO PUSH2 0x1DCE JUMP INVALID SWAP1 AND 0xD0 SWAP14 PUSH19 0xD40FDAE2FD8CEAC6B6234C7706214FD39C1CD1 0xE6 MULMOD LOG0 MSTORE DUP13 NOT SWAP4 STOP SWAP12 PUSH24 0x9B17422D0DF92223018B32B4D1FA46E071723D6817E2486D STOP EXTCODESIZE 0xEC 0xC5 PUSH0 STOP LOG2 PUSH5 0x6970667358 0x22 SLT KECCAK256 ADDRESS DUP14 0xB7 PUSH19 0x9C4C9C4D91B89872DD1409FB5389FB2A5B631B 0x2F 0xB1 DIV 0xD1 0xCA JUMPDEST DUP5 SUB PUSH8 0x64736F6C63430008 AND STOP CALLER "},"methodIdentifiers":{"FEE_BASIS_POINTS()":"a525ad3c","UPGRADE_INTERFACE_VERSION()":"ad3cb1cc","delistSeed(string)":"47289597","getAllSeeds()":"a25b0561","getSellerSeeds(address)":"4aa93dd2","initialize(address)":"c4d66de8","listSeed(string,string,uint256,string,string,uint256,uint256)":"55769928","owner()":"8da5cb5b","proxiableUUID()":"52d1902d","purchaseSeed(string,uint256)":"391f0bb4","renounceOwnership()":"715018a6","seedIds(uint256)":"635d5c10","seeds(string)":"0d6f7e9c","sellerSeeds(address,uint256)":"e5b6addd","transferOwnership(address)":"f2fde38b","upgradeToAndCall(address,bytes)":"4f1ef286","weedlToken()":"3b9c8cfe","withdrawFees()":"476343ee"}},"storageLayout":{"storage":[{"astId":6500,"contract":"contracts/GreenFiSeed.sol:GreenFiSeed","label":"weedlToken","offset":0,"slot":"0","type":"t_contract(IERC20)2353"},{"astId":6527,"contract":"contracts/GreenFiSeed.sol:GreenFiSeed","label":"seeds","offset":0,"slot":"1","type":"t_mapping(t_string_memory_ptr,t_struct(Seed)6522_storage)"},{"astId":6530,"contract":"contracts/GreenFiSeed.sol:GreenFiSeed","label":"seedIds","offset":0,"slot":"2","type":"t_array(t_string_storage)dyn_storage"},{"astId":6535,"contract":"contracts/GreenFiSeed.sol:GreenFiSeed","label":"sellerSeeds","offset":0,"slot":"3","type":"t_mapping(t_address,t_array(t_string_storage)dyn_storage)"}],"types":{"t_address":{"encoding":"inplace","label":"address","numberOfBytes":"20"},"t_array(t_string_storage)dyn_storage":{"base":"t_string_storage","encoding":"dynamic_array","label":"string[]","numberOfBytes":"32"},"t_bool":{"encoding":"inplace","label":"bool","numberOfBytes":"1"},"t_contract(IERC20)2353":{"encoding":"inplace","label":"contract IERC20","numberOfBytes":"20"},"t_mapping(t_address,t_array(t_string_storage)dyn_storage)":{"encoding":"mapping","key":"t_address","label":"mapping(address => string[])","numberOfBytes":"32","value":"t_array(t_string_storage)dyn_storage"},"t_mapping(t_string_memory_ptr,t_struct(Seed)6522_storage)":{"encoding":"mapping","key":"t_string_memory_ptr","label":"mapping(string => struct GreenFiSeed.Seed)","numberOfBytes":"32","value":"t_struct(Seed)6522_storage"},"t_string_memory_ptr":{"encoding":"bytes","label":"string","numberOfBytes":"32"},"t_string_storage":{"encoding":"bytes","label":"string","numberOfBytes":"32"},"t_struct(Seed)6522_storage":{"encoding":"inplace","label":"struct GreenFiSeed.Seed","members":[{"astId":6505,"contract":"contracts/GreenFiSeed.sol:GreenFiSeed","label":"id","offset":0,"slot":"0","type":"t_string_storage"},{"astId":6507,"contract":"contracts/GreenFiSeed.sol:GreenFiSeed","label":"seller","offset":0,"slot":"1","type":"t_address"},{"astId":6509,"contract":"contracts/GreenFiSeed.sol:GreenFiSeed","label":"ipfsHash","offset":0,"slot":"2","type":"t_string_storage"},{"astId":6511,"contract":"contracts/GreenFiSeed.sol:GreenFiSeed","label":"strain","offset":0,"slot":"3","type":"t_string_storage"},{"astId":6513,"contract":"contracts/GreenFiSeed.sol:GreenFiSeed","label":"price","offset":0,"slot":"4","type":"t_uint256"},{"astId":6515,"contract":"contracts/GreenFiSeed.sol:GreenFiSeed","label":"contactInfo","offset":0,"slot":"5","type":"t_string_storage"},{"astId":6517,"contract":"contracts/GreenFiSeed.sol:GreenFiSeed","label":"quantity","offset":0,"slot":"6","type":"t_uint256"},{"astId":6519,"contract":"contracts/GreenFiSeed.sol:GreenFiSeed","label":"discount","offset":0,"slot":"7","type":"t_uint256"},{"astId":6521,"contract":"contracts/GreenFiSeed.sol:GreenFiSeed","label":"isActive","offset":0,"slot":"8","type":"t_bool"}],"numberOfBytes":"288"},"t_uint256":{"encoding":"inplace","label":"uint256","numberOfBytes":"32"}}}}}}