{"contracts/GreenFiLoan.sol":{"GreenFiLoan":{"abi":[{"inputs":[],"stateMutability":"nonpayable","type":"constructor"},{"inputs":[{"internalType":"address","name":"target","type":"address"}],"name":"AddressEmptyCode","type":"error"},{"inputs":[{"internalType":"address","name":"implementation","type":"address"}],"name":"ERC1967InvalidImplementation","type":"error"},{"inputs":[],"name":"ERC1967NonPayable","type":"error"},{"inputs":[],"name":"FailedCall","type":"error"},{"inputs":[],"name":"InvalidInitialization","type":"error"},{"inputs":[],"name":"NotInitializing","type":"error"},{"inputs":[{"internalType":"address","name":"owner","type":"address"}],"name":"OwnableInvalidOwner","type":"error"},{"inputs":[{"internalType":"address","name":"account","type":"address"}],"name":"OwnableUnauthorizedAccount","type":"error"},{"inputs":[],"name":"ReentrancyGuardReentrantCall","type":"error"},{"inputs":[{"internalType":"address","name":"token","type":"address"}],"name":"SafeERC20FailedOperation","type":"error"},{"inputs":[],"name":"UUPSUnauthorizedCallContext","type":"error"},{"inputs":[{"internalType":"bytes32","name":"slot","type":"bytes32"}],"name":"UUPSUnsupportedProxiableUUID","type":"error"},{"anonymous":false,"inputs":[{"indexed":false,"internalType":"string","name":"id","type":"string"},{"indexed":true,"internalType":"address","name":"lender","type":"address"}],"name":"CollateralClaimed","type":"event"},{"anonymous":false,"inputs":[{"indexed":false,"internalType":"uint64","name":"version","type":"uint64"}],"name":"Initialized","type":"event"},{"anonymous":false,"inputs":[{"indexed":false,"internalType":"string","name":"id","type":"string"},{"indexed":true,"internalType":"address","name":"borrower","type":"address"}],"name":"LoanCanceled","type":"event"},{"anonymous":false,"inputs":[{"indexed":false,"internalType":"string","name":"id","type":"string"},{"indexed":true,"internalType":"address","name":"borrower","type":"address"}],"name":"LoanClosed","type":"event"},{"anonymous":false,"inputs":[{"indexed":false,"internalType":"string","name":"id","type":"string"},{"indexed":true,"internalType":"address","name":"borrower","type":"address"},{"indexed":false,"internalType":"string","name":"landId","type":"string"},{"indexed":false,"internalType":"uint256","name":"amount","type":"uint256"},{"indexed":false,"internalType":"uint256","name":"duration","type":"uint256"},{"indexed":false,"internalType":"string","name":"contactInfo","type":"string"},{"indexed":false,"internalType":"uint256","name":"fee","type":"uint256"},{"indexed":false,"internalType":"string","name":"purpose","type":"string"},{"indexed":false,"internalType":"string","name":"collateralDetails","type":"string"},{"indexed":false,"internalType":"string","name":"latitude","type":"string"},{"indexed":false,"internalType":"string","name":"longitude","type":"string"}],"name":"LoanCreated","type":"event"},{"anonymous":false,"inputs":[{"indexed":false,"internalType":"string","name":"id","type":"string"},{"indexed":true,"internalType":"address","name":"lender","type":"address"},{"indexed":true,"internalType":"address","name":"borrower","type":"address"}],"name":"LoanFunded","type":"event"},{"anonymous":false,"inputs":[{"indexed":false,"internalType":"string","name":"id","type":"string"},{"indexed":true,"internalType":"address","name":"borrower","type":"address"},{"indexed":false,"internalType":"uint256","name":"amount","type":"uint256"},{"indexed":false,"internalType":"uint256","name":"interest","type":"uint256"}],"name":"LoanRepaid","type":"event"},{"anonymous":false,"inputs":[{"indexed":false,"internalType":"string","name":"id","type":"string"},{"indexed":false,"internalType":"string","name":"status","type":"string"}],"name":"LoanStatusChanged","type":"event"},{"anonymous":false,"inputs":[{"indexed":true,"internalType":"address","name":"previousOwner","type":"address"},{"indexed":true,"internalType":"address","name":"newOwner","type":"address"}],"name":"OwnershipTransferred","type":"event"},{"anonymous":false,"inputs":[{"indexed":true,"internalType":"address","name":"implementation","type":"address"}],"name":"Upgraded","type":"event"},{"inputs":[],"name":"FEE_BASIS_POINTS","outputs":[{"internalType":"uint256","name":"","type":"uint256"}],"stateMutability":"view","type":"function"},{"inputs":[],"name":"INTEREST_RATE_BASIS_POINTS","outputs":[{"internalType":"uint256","name":"","type":"uint256"}],"stateMutability":"view","type":"function"},{"inputs":[],"name":"MAX_LOAN_DURATION","outputs":[{"internalType":"uint256","name":"","type":"uint256"}],"stateMutability":"view","type":"function"},{"inputs":[],"name":"UPGRADE_INTERFACE_VERSION","outputs":[{"internalType":"string","name":"","type":"string"}],"stateMutability":"view","type":"function"},{"inputs":[{"internalType":"address","name":"","type":"address"}],"name":"borrowerLoanCount","outputs":[{"internalType":"uint256","name":"","type":"uint256"}],"stateMutability":"view","type":"function"},{"inputs":[{"internalType":"address","name":"","type":"address"},{"internalType":"uint256","name":"","type":"uint256"}],"name":"borrowerLoans","outputs":[{"internalType":"string","name":"","type":"string"}],"stateMutability":"view","type":"function"},{"inputs":[{"internalType":"address","name":"","type":"address"}],"name":"borrowerRepaidCount","outputs":[{"internalType":"uint256","name":"","type":"uint256"}],"stateMutability":"view","type":"function"},{"inputs":[{"internalType":"string","name":"_id","type":"string"}],"name":"cancelLoan","outputs":[],"stateMutability":"nonpayable","type":"function"},{"inputs":[{"internalType":"string","name":"_id","type":"string"}],"name":"claimCollateral","outputs":[],"stateMutability":"nonpayable","type":"function"},{"inputs":[{"internalType":"string","name":"_id","type":"string"},{"internalType":"string","name":"_landId","type":"string"},{"internalType":"uint256","name":"_amount","type":"uint256"},{"internalType":"uint256","name":"_duration","type":"uint256"},{"internalType":"string","name":"_contactInfo","type":"string"},{"internalType":"uint256","name":"_fee","type":"uint256"},{"internalType":"string","name":"_purpose","type":"string"},{"internalType":"string","name":"_collateralDetails","type":"string"},{"internalType":"string","name":"_latitude","type":"string"},{"internalType":"string","name":"_longitude","type":"string"}],"name":"createLoan","outputs":[],"stateMutability":"nonpayable","type":"function"},{"inputs":[{"internalType":"string","name":"_id","type":"string"}],"name":"fundLoan","outputs":[],"stateMutability":"nonpayable","type":"function"},{"inputs":[],"name":"getAllLoans","outputs":[{"components":[{"internalType":"string","name":"id","type":"string"},{"internalType":"address","name":"borrower","type":"address"},{"internalType":"string","name":"landId","type":"string"},{"internalType":"uint256","name":"amount","type":"uint256"},{"internalType":"uint256","name":"duration","type":"uint256"},{"internalType":"bool","name":"isActive","type":"bool"},{"internalType":"string","name":"contactInfo","type":"string"},{"internalType":"uint256","name":"fee","type":"uint256"},{"internalType":"uint256","name":"createdAt","type":"uint256"},{"internalType":"string","name":"purpose","type":"string"},{"internalType":"string","name":"status","type":"string"},{"internalType":"string","name":"collateralDetails","type":"string"},{"internalType":"string","name":"latitude","type":"string"},{"internalType":"string","name":"longitude","type":"string"},{"internalType":"address","name":"lender","type":"address"},{"internalType":"uint256","name":"repaidAmount","type":"uint256"}],"internalType":"struct GreenFiLoan.LoanInu[]","name":"","type":"tuple[]"}],"stateMutability":"view","type":"function"},{"inputs":[{"internalType":"address","name":"_borrower","type":"address"}],"name":"getBorrowerHistory","outputs":[{"internalType":"uint256","name":"","type":"uint256"},{"internalType":"uint256","name":"","type":"uint256"}],"stateMutability":"view","type":"function"},{"inputs":[{"internalType":"address","name":"_borrower","type":"address"}],"name":"getBorrowerLoans","outputs":[{"components":[{"internalType":"string","name":"id","type":"string"},{"internalType":"address","name":"borrower","type":"address"},{"internalType":"string","name":"landId","type":"string"},{"internalType":"uint256","name":"amount","type":"uint256"},{"internalType":"uint256","name":"duration","type":"uint256"},{"internalType":"bool","name":"isActive","type":"bool"},{"internalType":"string","name":"contactInfo","type":"string"},{"internalType":"uint256","name":"fee","type":"uint256"},{"internalType":"uint256","name":"createdAt","type":"uint256"},{"internalType":"string","name":"purpose","type":"string"},{"internalType":"string","name":"status","type":"string"},{"internalType":"string","name":"collateralDetails","type":"string"},{"internalType":"string","name":"latitude","type":"string"},{"internalType":"string","name":"longitude","type":"string"},{"internalType":"address","name":"lender","type":"address"},{"internalType":"uint256","name":"repaidAmount","type":"uint256"}],"internalType":"struct GreenFiLoan.LoanInu[]","name":"","type":"tuple[]"}],"stateMutability":"view","type":"function"},{"inputs":[{"internalType":"string","name":"_id","type":"string"}],"name":"getRepaymentStatus","outputs":[{"internalType":"uint256","name":"","type":"uint256"}],"stateMutability":"view","type":"function"},{"inputs":[{"internalType":"address","name":"_weedlToken","type":"address"}],"name":"initialize","outputs":[],"stateMutability":"nonpayable","type":"function"},{"inputs":[{"internalType":"uint256","name":"","type":"uint256"}],"name":"loanIds","outputs":[{"internalType":"string","name":"","type":"string"}],"stateMutability":"view","type":"function"},{"inputs":[{"internalType":"string","name":"","type":"string"}],"name":"loans","outputs":[{"internalType":"string","name":"id","type":"string"},{"internalType":"address","name":"borrower","type":"address"},{"internalType":"string","name":"landId","type":"string"},{"internalType":"uint256","name":"amount","type":"uint256"},{"internalType":"uint256","name":"duration","type":"uint256"},{"internalType":"bool","name":"isActive","type":"bool"},{"internalType":"string","name":"contactInfo","type":"string"},{"internalType":"uint256","name":"fee","type":"uint256"},{"internalType":"uint256","name":"createdAt","type":"uint256"},{"internalType":"string","name":"purpose","type":"string"},{"internalType":"string","name":"status","type":"string"},{"internalType":"string","name":"collateralDetails","type":"string"},{"internalType":"string","name":"latitude","type":"string"},{"internalType":"string","name":"longitude","type":"string"},{"internalType":"address","name":"lender","type":"address"},{"internalType":"uint256","name":"repaidAmount","type":"uint256"}],"stateMutability":"view","type":"function"},{"inputs":[],"name":"owner","outputs":[{"internalType":"address","name":"","type":"address"}],"stateMutability":"view","type":"function"},{"inputs":[],"name":"proxiableUUID","outputs":[{"internalType":"bytes32","name":"","type":"bytes32"}],"stateMutability":"view","type":"function"},{"inputs":[],"name":"renounceOwnership","outputs":[],"stateMutability":"nonpayable","type":"function"},{"inputs":[{"internalType":"string","name":"_id","type":"string"}],"name":"repayLoan","outputs":[],"stateMutability":"nonpayable","type":"function"},{"inputs":[{"internalType":"string","name":"","type":"string"}],"name":"repaymentStatus","outputs":[{"internalType":"uint256","name":"","type":"uint256"}],"stateMutability":"view","type":"function"},{"inputs":[{"internalType":"address","name":"newOwner","type":"address"}],"name":"transferOwnership","outputs":[],"stateMutability":"nonpayable","type":"function"},{"inputs":[{"internalType":"address","name":"newImplementation","type":"address"},{"internalType":"bytes","name":"data","type":"bytes"}],"name":"upgradeToAndCall","outputs":[],"stateMutability":"payable","type":"function"},{"inputs":[],"name":"weedlToken","outputs":[{"internalType":"contract IERC20","name":"","type":"address"}],"stateMutability":"view","type":"function"}],"evm":{"bytecode":{"linkReferences":{},"object":"60a080604052346100cc57306080527ff0c57e16840df040f15088dc2f81fe391c3923bec73e23a9662efc9c229c6a009081549060ff8260401c166100bd57506001600160401b036002600160401b031982821601610078575b604051612a3a90816100d282396080518181816112900152611a8c0152f35b6001600160401b031990911681179091556040519081527fc7f505b2f371ae2175ee4913f4499e1f2633a7b5936321eed1cdaeb6115181d290602090a1388080610059565b63f92ee8a960e01b8152600490fd5b600080fdfe60a0604052600436101561001257600080fd5b60003560e01c8063035dc3d914611d0a5780630d0b2ca614611ceb5780630e02faa814611cb157806319398a9a14611c9457806323fe30fb146111b75780633b9c8cfe14611c6b5780634f1ef28614611a3d57806352810666146112fa57806352d1902d1461127d578063715018a6146112135780638a48eb82146111b75780638da5cb5b14611181578063a525ad3c14611165578063a5bfd16a14610ff7578063ad3cb1cc14610fb1578063b48a836514610f6a578063c4d66de814610da8578063c6141f6314610bb5578063c70f2e2b146108d1578063c71230bf14610897578063e287183a1461061e578063e3ed1902146105d1578063eee8b7ff146103ef578063f2fde38b146103c4578063f8715a42146103795763f897eeba1461013a57600080fd5b3461036157602080600319360112610361576004356001600160401b0381116103615761016b903690600401612058565b6101736126de565b60405182818351610187818385880161208c565b810160018152030190206101a160ff600583015416612396565b600a8101906101f6604051858101906101cc816101be84886123d7565b03601f198101835282611fe5565b519020604051868101906327b832b760e11b8252600481526101ed81611fca565b5190201461262e565b6000546040516370a0823160e01b81523360048201526001600160a01b0392909186908390602490829087165afa91821561036d57600092610323575b5091604093916102b08461025e60036000805160206129a58339815191529a970193845411156124a6565b61027161026b8654612244565b86612509565b65119d5b99195960d21b94600c86019055600e8101336001600160601b0360a01b8254161790556001846000541691019284845416905491339061270e565b541683518381527f74b5814fe355ba520ea013b8cd67e3a8da7f4db3d413c0bb58f4ad047713a8b93391806102e78782018a6120af565b0390a36102fc835194848652848601906120af565b918483039283828701526006815201520190a160016000805160206129e583398151915255005b93915094918284813d8311610366575b61033d8183611fe5565b810103126103615792519194909291906000805160206129a5833981519152610233565b600080fd5b503d610333565b6040513d6000823e3d90fd5b3461036157602036600319011261036157600435600254811015610361576103ac6103a66103c092612323565b90612388565b6040519182916020835260208301906120af565b0390f35b34610361576020366003190112610361576103ed6103e0612076565b6103e861286b565b61266a565b005b3461036157602080600319360112610361576001600160a01b039081610413612076565b166000526003808252604060002091825461042d81612540565b9361043b6040519586611fe5565b8185526000908152828120838087015b8484106105b35750505050506104618351612557565b9360005b84518110156105a5578061047b6001928761261a565b51600f85610492604051938481519384920161208c565b820191868186948581520301902085604051936104ae85611fae565b6104b78361227e565b855282015416878401526104cd6002820161227e565b60408401528781015460608401526004810154608084015260ff600582015416151560a08401526105006006820161227e565b60c0840152600781015460e084015260088101546101008401526105266009820161227e565b610120840152610538600a820161227e565b61014084015261054a600b820161227e565b61016084015261055c600c820161227e565b61018084015261056e600d820161227e565b6101a084015285600e820154166101c084015201546101e0820152610593828961261a565b5261059e818861261a565b5001610465565b604051806103c088826120d4565b60019182916105c18561227e565b815201920192019190849061044b565b34610361576040366003190112610361576105ea612076565b6001600160a01b03166000908152600360205260409020805460243590811015610361576103a66103ac916103c093612370565b3461036157602080600319360112610361576004356001600160401b0381116103615761064f903690600401612058565b6106576126de565b6040518281835161066b818385880161208c565b810160018152030190206005810161068660ff825416612396565b600e8201546001600160a01b0316330361085457600a8201916106e3604051868101906106b7816101be84896123d7565b5190206040518781019065119d5b99195960d21b8252600681526106da81611fca565b5190201461245b565b6106f66008820154600483015490612499565b42111561080f57600b61070a910154612244565b156107d15792816000805160206129a58339815191529461073661073060409554612244565b83612509565b601268111959985d5b1d195960ba1b01909155805460ff19169055815181815268111959985d5b1d195960ba1b9033907f9d99ebbd63ad66bd41d937add2c439545d27de0cfce044c210a62e86d9ab200f9080610795868201896120af565b0390a26107aa835194848652848601906120af565b918483039283828701526009815201520190a160016000805160206129e583398151915255005b60405162461bcd60e51b81526004810185905260166024820152754e6f20636f6c6c61746572616c20746f20636c61696d60501b6044820152606490fd5b60405162461bcd60e51b815260048101869052601960248201527f4c6f616e206475726174696f6e206e6f742065787069726564000000000000006044820152606490fd5b6064846040519062461bcd60e51b825280600483015260248201527f4f6e6c79206c656e6465722063616e20636c61696d20636f6c6c61746572616c6044820152fd5b34610361576020366003190112610361576001600160a01b036108b8612076565b1660005260046020526020604060002054604051908152f35b3461036157602080600319360112610361576001600160401b0360043581811161036157610903903690600401612058565b9061090c6126de565b60405183818451610920818385890161208c565b81016001815203019020926005840161093c60ff825416612396565b60018501546001600160a01b03959086163303610b70576024600a82019261099360405186810190610972816101be848a6123d7565b519020604051878101906327b832b760e11b8252600481526101ed81611fca565b848860005416604051938480926370a0823160e01b82523060048301525afa91821561036d57600092610b41575b5060038301916109d960078454950194855490612499565b11610afc5790610a2292916109f161026b8654612244565b60106710d85b98d95b195960c21b01909455835460ff1916909355915491546710d85b98d95b195960c21b92612499565b9460005416926040519563a9059cbb60e01b84880152336024880152604487015260448652608086019086821090821117610ae6576000805160206129a583398151915295604094610a759286526128a4565b82518281527f64167c9f5767a6fa8b7008f5263e7f45d013dd7dd2213f2d254bec2da2bae1a7339180610aaa868201896120af565b0390a2610abf835194848652848601906120af565b918483039283828701526008815201520190a160016000805160206129e583398151915255005b634e487b7160e01b600052604160045260246000fd5b60405162461bcd60e51b815260048101869052601d60248201527f496e73756666696369656e7420636f6e74726163742062616c616e63650000006044820152606490fd5b9091508481813d8311610b69575b610b598183611fe5565b81010312610361575190886109c1565b503d610b4f565b60405162461bcd60e51b815260048101849052601860248201527f4f6e6c7920626f72726f7765722063616e2063616e63656c00000000000000006044820152606490fd5b34610361576020366003190112610361576004356001600160401b03811161036157610be5903690600401612058565b6040518181809351602081930191610bfc9261208c565b810160018152036020019020610c118161227e565b6001820154829081906001600160a01b03908116610c316002840161227e565b60038401546004850154600586015460ff1691610c506006880161227e565b9060078801549360088901549360098a01610c6a9061227e565b96610c77600a8c0161227e565b98610c84600b8d0161227e565b9a610c91600c8e0161227e565b9c600d01610c9e9061227e565b9d600e0154169e600f01549d604051608052610200806080515260805101610cc5916120af565b9060805160200152608051810360805160400152610ce2916120af565b926080516060015260805160800152151560805160a00152608051810360805160c00152610d0f916120af565b9160805160e00152608051610100015260805181036080516101200152610d35916120af565b60805181036080516101400152610d4b916120af565b60805181036080516101600152610d61916120af565b60805181036080516101800152610d77916120af565b60805181036080516101a00152610d8d916120af565b916080516101c001526080516101e001526080519003608051f35b3461036157602036600319011261036157610dc1612076565b7ff0c57e16840df040f15088dc2f81fe391c3923bec73e23a9662efc9c229c6a009081549060ff8260401c1615916001600160401b03811680159081610f62575b6001149081610f58575b159081610f4f575b50610f3d5767ffffffffffffffff198116600117845582610f1e575b50610e39612900565b610e41612900565b610e4a3361266a565b610e52612900565b610e5a612900565b610e62612900565b60016000805160206129e5833981519152556001600160a01b03168015610ed9576001600160601b0360a01b6000541617600055610e9c57005b68ff00000000000000001981541690557fc7f505b2f371ae2175ee4913f4499e1f2633a7b5936321eed1cdaeb6115181d2602060405160018152a1005b60405162461bcd60e51b815260206004820152601b60248201527f496e76616c696420574545444c20746f6b656e206164647265737300000000006044820152606490fd5b68ffffffffffffffffff19166801000000000000000117835583610e30565b60405163f92ee8a960e01b8152600490fd5b90501585610e14565b303b159150610e0c565b849150610e02565b34610361576020366003190112610361576001600160a01b03610f8b612076565b166000526004602052604080600020546005602052816000205482519182526020820152f35b34610361576000366003190112610361576103c0604051610fd181611fca565b60058152640352e302e360dc1b60208201526040519182916020835260208301906120af565b34610361576000366003190112610361576002805461101581612557565b9160005b82811061102e57604051806103c086826120d4565b8061103a600192612323565b50600f61104a60405180936123d7565b828591828152602094859103019020906040519361106785611fae565b6110708361227e565b8552868060a01b038092840154169085015261108d87830161227e565b6040850152600382015460608501526004820154608085015260ff600583015416151560a08501526110c16006830161227e565b60c0850152600782015460e085015260088201546101008501526110e76009830161227e565b6101208501526110f9600a830161227e565b61014085015261110b600b830161227e565b61016085015261111d600c830161227e565b61018085015261112f600d830161227e565b6101a0850152600e820154166101c084015201546101e0820152611153828761261a565b5261115e818661261a565b5001611019565b34610361576000366003190112610361576020604051602a8152f35b34610361576000366003190112610361576000805160206129c5833981519152546040516001600160a01b039091168152602090f35b34610361576020366003190112610361576004356001600160401b0381116103615761120060206111ed81933690600401612058565b816040519382858094519384920161208c565b8101600681520301902054604051908152f35b346103615760003660031901126103615761122c61286b565b6000805160206129c583398151915280546001600160a01b031981169091556000906001600160a01b03167f8be0079c531659141344cd1fd0a4f28419497f9722a3daafe3b4186f6b6457e08280a3005b34610361576000366003190112610361577f00000000000000000000000000000000000000000000000000000000000000006001600160a01b031630036112e85760206040517f360894a13ba1a3210667c828492db98dca3e2076cc3735a920a3ca505d382bbc8152f35b60405163703e46dd60e11b8152600490fd5b3461036157610140366003190112610361576001600160401b036004358181116103615761132c903690600401612058565b60243582811161036157611344903690600401612058565b6084358381116103615761135c903690600401612058565b60c43584811161036157611374903690600401612058565b9160e4358581116103615761138d903690600401612058565b9061010435868111610361576113a7903690600401612058565b9561012435908111610361576113c1903690600401612058565b936113ca6126de565b604435156119f9576064351515806119e9575b156119a45785511561195f57835115611922578051156118ea576003604051602081816114108b8381519384920161208c565b60018183015281010301902001546118ac57602a604435026044358104602a0361189657612710900460a43503611863576000546040516370a0823160e01b8152336004820152906001600160a01b0316602082602481845afa91821561036d5760009261182d575b506114966114ae9261148f60a435604435612499565b11156124a6565b6114a460a435604435612499565b903090339061270e565b6040516114ba81611fae565b86815233602082015282604082015260443560608201526064356080820152600160a08201528460c082015260a43560e0820152426101008201528161012082015260405161150881611fca565b600481526327b832b760e11b60208201526101408201528361016082015287610180820152856101a082015260006101c082015260006101e0820152600f6101e0604051602081816115608d8381519384920161208c565b8101600181520301902092611576815185612766565b60018060a01b036020820151166001600160601b0360a01b6001860154161760018501556115ab604082015160028601612766565b60608101516003850155608081015160048501556005840160a0820151151560ff801983541691161790556115e760c082015160068601612766565b60e08101516007850155610100810151600885015561160e61012082015160098601612766565b611620610140820151600a8601612766565b611632610160820151600b8601612766565b611644610180820151600c8601612766565b6116566101a0820151600d8601612766565b600e840160018060a01b036101c0830151166001600160601b0360a01b8254161790550151910155600254600160401b811015610ae65780600161169d9201600255612323565b61181757866116ab91612766565b33600052600360205260406000208054600160401b811015610ae6576116d691600182018155612370565b929092611817576000805160206129a5833981519152976117b188956117a36117d09561178d7f8095295dca7b6ac6873584ce5a8cc8bbbd1b124a0d355e962d9bd811251b98579a61176f6117c0986117328d6101409d612766565b336000526004602052604060002061174a8154612531565b90556117616040519d8d8f9e8f90815201906120af565b8c810360208e0152906120af565b9060443560408c015260643560608c01528a820360808c01526120af565b9060a43560a08a015288820360c08a01526120af565b9086820360e08801526120af565b908482036101008601526120af565b82810361012084015233956120af565b0390a260406117e7815192828452828401906120af565b6327b832b760e11b60208483039283828701526004815201520190a160016000805160206129e583398151915255005b634e487b7160e01b600052600060045260246000fd5b91506020823d60201161185b575b8161184860209383611fe5565b8101031261036157905190611496611479565b3d915061183b565b60405162461bcd60e51b815260206004820152600b60248201526a496e76616c69642066656560a81b6044820152606490fd5b634e487b7160e01b600052601160045260246000fd5b60405162461bcd60e51b81526020600482015260166024820152754c6f616e20494420616c72656164792065786973747360501b6044820152606490fd5b60405162461bcd60e51b815260206004820152601060248201526f141d5c9c1bdcd9481c995c5d5a5c995960821b6044820152606490fd5b60405162461bcd60e51b815260206004820152601560248201527410dbdb9d1858dd081a5b999bc81c995c5d5a5c9959605a1b6044820152606490fd5b60405162461bcd60e51b815260206004820152601760248201527f4c6f616e2049442063616e6e6f7420626520656d7074790000000000000000006044820152606490fd5b60405162461bcd60e51b815260206004820152601e60248201527f4475726174696f6e206d757374206265203120746f20333635206461797300006044820152606490fd5b506301e1338060643511156113dd565b606460405162461bcd60e51b815260206004820152602060248201527f416d6f756e74206d7573742062652067726561746572207468616e207a65726f6044820152fd5b604036600319011261036157611a51612076565b6024356001600160401b038111610361573660238201121561036157611a81903690602481600401359101612021565b906001600160a01b037f00000000000000000000000000000000000000000000000000000000000000008116308114908115611c3d575b506112e857611ac561286b565b6040516352d1902d60e01b8152908216916020918281600481875afa60009181611c0e575b50611b0857604051634c9c8ce360e01b815260048101859052602490fd5b9284937f360894a13ba1a3210667c828492db98dca3e2076cc3735a920a3ca505d382bbc90818103611bf65750823b15611bdd5780546001600160a01b03191682179055604051907fbc7cd75a20ee27fd9adebab32041f755214dbc6bffa90cc0225b39da2e5c2d3b600080a2835115611bc3575060008084846103ed96519101845af4903d15611bba573d611b9d81612006565b90611bab6040519283611fe5565b8152600081943d92013e612941565b60609250612941565b9250505034611bce57005b63b398979f60e01b8152600490fd5b604051634c9c8ce360e01b815260048101839052602490fd5b60249060405190632a87526960e21b82526004820152fd5b9091508381813d8311611c36575b611c268183611fe5565b8101031261036157519086611aea565b503d611c1c565b9050817f360894a13ba1a3210667c828492db98dca3e2076cc3735a920a3ca505d382bbc5416141584611ab8565b34610361576000366003190112610361576000546040516001600160a01b039091168152602090f35b346103615760003660031901126103615760206040516101a48152f35b34610361576020366003190112610361576001600160a01b03611cd2612076565b1660005260056020526020604060002054604051908152f35b346103615760003660031901126103615760206040516301e133808152f35b3461036157602080600319360112610361576004356001600160401b03811161036157611d3b903690600401612058565b611d436126de565b60405191815192818181850195611d5b81838961208c565b810160018152030190206005810190611d7760ff835416612396565b60018101546001600160a01b039081163303611f6957600a820192611daa604051868101906106b7816101be848a6123d7565b60038301918254936101a480860286810482148715171561189657600483015491828802029181830414901517156118965764496cebb800611dee91048096612499565b918060005416906040516370a0823160e01b81523360048201528981602481865afa90811561036d57600091611f16575b50986000805160206129a58339815191529b85600f7f3b62cc4e086a894a6c745362b81db744e8dd91af3eddccb44143e1f47ec952d09896611e838360409f98879f9e9d9b9998611e7583611e969b10156124a6565b600e8501541690339061270e565b01558b8b5193849283925192839161208c565b8101600681520301902055611eae61026b8654612244565b6514995c185a5960d21b94600c8601905560ff198154169055336000526005855285600020611edd8154612531565b9055549185519060608252611ef560608301896120af565b9386830152868201528033930390a26102fc835194848652848601906120af565b9980999897959396949291508a813d8311611f62575b611f368183611fe5565b8101031261036157985197989697959693959294919390926000805160206129a5833981519152611e1f565b503d611f2c565b60405162461bcd60e51b815260048101859052601760248201527f4f6e6c7920626f72726f7765722063616e2072657061790000000000000000006044820152606490fd5b61020081019081106001600160401b03821117610ae657604052565b604081019081106001600160401b03821117610ae657604052565b90601f801991011681019081106001600160401b03821117610ae657604052565b6001600160401b038111610ae657601f01601f191660200190565b92919261202d82612006565b9161203b6040519384611fe5565b829481845281830111610361578281602093846000960137010152565b9080601f830112156103615781602061207393359101612021565b90565b600435906001600160a01b038216820361036157565b60005b83811061209f5750506000910152565b818101518382015260200161208f565b906020916120c88151809281855285808601910161208c565b601f01601f1916010190565b6020808201908083528351809252604092604081018260408560051b8401019601946000925b85841061210b575050505050505090565b90919293949596858084600193603f198682030188528b5161221b6122076121f36121df6121cb6121a261216f61214c610200895190808c528b01906120af565b8b8901519a8e8060a01b03809c168d8c0152808a0151908b8303908c01526120af565b606080890151908a0152608080890151908a015260a0808901511515908a015260c080890151908a8303908b01526120af565b60e0808801519089015261010080880151908901526101208088015190898303908a01526120af565b6101408087015190888303908901526120af565b6101608086015190878303908801526120af565b6101808085015190868303908701526120af565b6101a08084015190858303908601526120af565b926101c0908183015116908301526101e0809101519101529901940194019295949391906120fa565b90600182811c92168015612274575b602083101461225e57565b634e487b7160e01b600052602260045260246000fd5b91607f1691612253565b9060405191826000825461229181612244565b9081845260209460019160018116908160001461230157506001146122c2575b5050506122c092500383611fe5565b565b600090815285812095935091905b8183106122e95750506122c093508201013880806122b1565b855488840185015294850194879450918301916122d0565b925050506122c094925060ff191682840152151560051b8201013880806122b1565b60025481101561235a5760026000527f405787fa12a823e0f2b7631cc41b3ba8828b3321ca811111fa75cd3aa3bb5ace0190600090565b634e487b7160e01b600052603260045260246000fd5b805482101561235a5760005260206000200190600090565b90611817576120739061227e565b1561239d57565b60405162461bcd60e51b81526020600482015260126024820152714c6f616e206973206e6f742061637469766560701b6044820152606490fd5b6000929181546123e681612244565b926001918083169081156124405750600114612403575b50505050565b9091929394506000526020906020600020906000915b85831061242f57505050500190388080806123fd565b805485840152918301918101612419565b60ff19168452505050811515909102019150388080806123fd565b1561246257565b60405162461bcd60e51b815260206004820152600f60248201526e131bd85b881b9bdd08199d5b991959608a1b6044820152606490fd5b9190820180921161189657565b156124ad57565b60405162461bcd60e51b815260206004820152601a60248201527f496e73756666696369656e7420574545444c2062616c616e63650000000000006044820152606490fd5b8181106124fd575050565b600081556001016124f2565b90601f8111612516575050565b6122c091600052601f6020600020910160051c8101906124f2565b60001981146118965760010190565b6001600160401b038111610ae65760051b60200190565b9061256182612540565b6040906125716040519182611fe5565b8381528093612582601f1991612540565b019160005b8381106125945750505050565b60209082516125a281611fae565b60608082528390600082840152808684015260008184015260006080840152600060a08401528060c0840152600060e08401526000610100840152806101208401528061014084015280610160840152806101808401526101a083015260006101c083015260006101e0830152828601015201612587565b805182101561235a5760209160051b010190565b1561263557565b60405162461bcd60e51b815260206004820152600d60248201526c2637b0b7103737ba1037b832b760991b6044820152606490fd5b6001600160a01b039081169081156126c5576000805160206129c583398151915280546001600160a01b031981168417909155167f8be0079c531659141344cd1fd0a4f28419497f9722a3daafe3b4186f6b6457e0600080a3565b604051631e4fbdf760e01b815260006004820152602490fd5b6000805160206129e583398151915260028154146126fc5760029055565b604051633ee5aeb560e01b8152600490fd5b6040516323b872dd60e01b60208201526001600160a01b03928316602482015292909116604483015260648083019390935291815260a08101918183106001600160401b03841117610ae6576122c0926040526128a4565b91909182516001600160401b038111610ae6576127838254612244565b601f811161282e575b50602080601f83116001146127c95750819293946000926127be575b50508160011b916000199060031b1c1916179055565b0151905038806127a8565b90601f19831695846000526020600020926000905b888210612816575050836001959697106127fd575b505050811b019055565b015160001960f88460031b161c191690553880806127f3565b806001859682949686015181550195019301906127de565b61285b90836000526020600020601f840160051c81019160208510612861575b601f0160051c01906124f2565b3861278c565b909150819061284e565b6000805160206129c5833981519152546001600160a01b0316330361288c57565b60405163118cdaa760e01b8152336004820152602490fd5b906000602091828151910182855af11561036d576000513d6128f757506001600160a01b0381163b155b6128d55750565b604051635274afe760e01b81526001600160a01b039091166004820152602490fd5b600114156128ce565b60ff7ff0c57e16840df040f15088dc2f81fe391c3923bec73e23a9662efc9c229c6a005460401c161561292f57565b604051631afcd79f60e31b8152600490fd5b90612968575080511561295657805190602001fd5b60405163d6bda27560e01b8152600490fd5b8151158061299b575b612979575090565b604051639996b31560e01b81526001600160a01b039091166004820152602490fd5b50803b1561297156fe8a7be6b6d998757cde134d68c5bc04568dbfd09aeda7c427b92e336502173fa49016d09d72d40fdae2fd8ceac6b6234c7706214fd39c1cd1e609a0528c1993009b779b17422d0df92223018b32b4d1fa46e071723d6817e2486d003becc55f00a26469706673582212200f6590544c888a68bc5c4560f7403ecc1cb6e471d6f90306c4e8e766e27762c964736f6c63430008160033","opcodes":"PUSH1 0xA0 DUP1 PUSH1 0x40 MSTORE CALLVALUE PUSH2 0xCC JUMPI ADDRESS PUSH1 0x80 MSTORE PUSH32 0xF0C57E16840DF040F15088DC2F81FE391C3923BEC73E23A9662EFC9C229C6A00 SWAP1 DUP2 SLOAD SWAP1 PUSH1 0xFF DUP3 PUSH1 0x40 SHR AND PUSH2 0xBD JUMPI POP PUSH1 0x1 PUSH1 0x1 PUSH1 0x40 SHL SUB PUSH1 0x2 PUSH1 0x1 PUSH1 0x40 SHL SUB NOT DUP3 DUP3 AND ADD PUSH2 0x78 JUMPI JUMPDEST PUSH1 0x40 MLOAD PUSH2 0x2A3A SWAP1 DUP2 PUSH2 0xD2 DUP3 CODECOPY PUSH1 0x80 MLOAD DUP2 DUP2 DUP2 PUSH2 0x1290 ADD MSTORE PUSH2 0x1A8C ADD MSTORE RETURN JUMPDEST PUSH1 0x1 PUSH1 0x1 PUSH1 0x40 SHL SUB NOT SWAP1 SWAP2 AND DUP2 OR SWAP1 SWAP2 SSTORE PUSH1 0x40 MLOAD SWAP1 DUP2 MSTORE PUSH32 0xC7F505B2F371AE2175EE4913F4499E1F2633A7B5936321EED1CDAEB6115181D2 SWAP1 PUSH1 0x20 SWAP1 LOG1 CODESIZE DUP1 DUP1 PUSH2 0x59 JUMP JUMPDEST PUSH4 0xF92EE8A9 PUSH1 0xE0 SHL DUP2 MSTORE PUSH1 0x4 SWAP1 REVERT JUMPDEST PUSH1 0x0 DUP1 REVERT INVALID PUSH1 0xA0 PUSH1 0x40 MSTORE PUSH1 0x4 CALLDATASIZE LT ISZERO PUSH2 0x12 JUMPI PUSH1 0x0 DUP1 REVERT JUMPDEST PUSH1 0x0 CALLDATALOAD PUSH1 0xE0 SHR DUP1 PUSH4 0x35DC3D9 EQ PUSH2 0x1D0A JUMPI DUP1 PUSH4 0xD0B2CA6 EQ PUSH2 0x1CEB JUMPI DUP1 PUSH4 0xE02FAA8 EQ PUSH2 0x1CB1 JUMPI DUP1 PUSH4 0x19398A9A EQ PUSH2 0x1C94 JUMPI DUP1 PUSH4 0x23FE30FB EQ PUSH2 0x11B7 JUMPI DUP1 PUSH4 0x3B9C8CFE EQ PUSH2 0x1C6B JUMPI DUP1 PUSH4 0x4F1EF286 EQ PUSH2 0x1A3D JUMPI DUP1 PUSH4 0x52810666 EQ PUSH2 0x12FA JUMPI DUP1 PUSH4 0x52D1902D EQ PUSH2 0x127D JUMPI DUP1 PUSH4 0x715018A6 EQ PUSH2 0x1213 JUMPI DUP1 PUSH4 0x8A48EB82 EQ PUSH2 0x11B7 JUMPI DUP1 PUSH4 0x8DA5CB5B EQ PUSH2 0x1181 JUMPI DUP1 PUSH4 0xA525AD3C EQ PUSH2 0x1165 JUMPI DUP1 PUSH4 0xA5BFD16A EQ PUSH2 0xFF7 JUMPI DUP1 PUSH4 0xAD3CB1CC EQ PUSH2 0xFB1 JUMPI DUP1 PUSH4 0xB48A8365 EQ PUSH2 0xF6A JUMPI DUP1 PUSH4 0xC4D66DE8 EQ PUSH2 0xDA8 JUMPI DUP1 PUSH4 0xC6141F63 EQ PUSH2 0xBB5 JUMPI DUP1 PUSH4 0xC70F2E2B EQ PUSH2 0x8D1 JUMPI DUP1 PUSH4 0xC71230BF EQ PUSH2 0x897 JUMPI DUP1 PUSH4 0xE287183A EQ PUSH2 0x61E JUMPI DUP1 PUSH4 0xE3ED1902 EQ PUSH2 0x5D1 JUMPI DUP1 PUSH4 0xEEE8B7FF EQ PUSH2 0x3EF JUMPI DUP1 PUSH4 0xF2FDE38B EQ PUSH2 0x3C4 JUMPI DUP1 PUSH4 0xF8715A42 EQ PUSH2 0x379 JUMPI PUSH4 0xF897EEBA EQ PUSH2 0x13A JUMPI PUSH1 0x0 DUP1 REVERT JUMPDEST CALLVALUE PUSH2 0x361 JUMPI PUSH1 0x20 DUP1 PUSH1 0x3 NOT CALLDATASIZE ADD SLT PUSH2 0x361 JUMPI PUSH1 0x4 CALLDATALOAD PUSH1 0x1 PUSH1 0x1 PUSH1 0x40 SHL SUB DUP2 GT PUSH2 0x361 JUMPI PUSH2 0x16B SWAP1 CALLDATASIZE SWAP1 PUSH1 0x4 ADD PUSH2 0x2058 JUMP JUMPDEST PUSH2 0x173 PUSH2 0x26DE JUMP JUMPDEST PUSH1 0x40 MLOAD DUP3 DUP2 DUP4 MLOAD PUSH2 0x187 DUP2 DUP4 DUP6 DUP9 ADD PUSH2 0x208C JUMP JUMPDEST DUP2 ADD PUSH1 0x1 DUP2 MSTORE SUB ADD SWAP1 KECCAK256 PUSH2 0x1A1 PUSH1 0xFF PUSH1 0x5 DUP4 ADD SLOAD AND PUSH2 0x2396 JUMP JUMPDEST PUSH1 0xA DUP2 ADD SWAP1 PUSH2 0x1F6 PUSH1 0x40 MLOAD DUP6 DUP2 ADD SWAP1 PUSH2 0x1CC DUP2 PUSH2 0x1BE DUP5 DUP9 PUSH2 0x23D7 JUMP JUMPDEST SUB PUSH1 0x1F NOT DUP2 ADD DUP4 MSTORE DUP3 PUSH2 0x1FE5 JUMP JUMPDEST MLOAD SWAP1 KECCAK256 PUSH1 0x40 MLOAD DUP7 DUP2 ADD SWAP1 PUSH4 0x27B832B7 PUSH1 0xE1 SHL DUP3 MSTORE PUSH1 0x4 DUP2 MSTORE PUSH2 0x1ED DUP2 PUSH2 0x1FCA JUMP JUMPDEST MLOAD SWAP1 KECCAK256 EQ PUSH2 0x262E JUMP JUMPDEST PUSH1 0x0 SLOAD PUSH1 0x40 MLOAD PUSH4 0x70A08231 PUSH1 0xE0 SHL DUP2 MSTORE CALLER PUSH1 0x4 DUP3 ADD MSTORE PUSH1 0x1 PUSH1 0x1 PUSH1 0xA0 SHL SUB SWAP3 SWAP1 SWAP2 DUP7 SWAP1 DUP4 SWAP1 PUSH1 0x24 SWAP1 DUP3 SWAP1 DUP8 AND GAS STATICCALL SWAP2 DUP3 ISZERO PUSH2 0x36D JUMPI PUSH1 0x0 SWAP3 PUSH2 0x323 JUMPI JUMPDEST POP SWAP2 PUSH1 0x40 SWAP4 SWAP2 PUSH2 0x2B0 DUP5 PUSH2 0x25E PUSH1 0x3 PUSH1 0x0 DUP1 MLOAD PUSH1 0x20 PUSH2 0x29A5 DUP4 CODECOPY DUP2 MLOAD SWAP2 MSTORE SWAP11 SWAP8 ADD SWAP4 DUP5 SLOAD GT ISZERO PUSH2 0x24A6 JUMP JUMPDEST PUSH2 0x271 PUSH2 0x26B DUP7 SLOAD PUSH2 0x2244 JUMP JUMPDEST DUP7 PUSH2 0x2509 JUMP JUMPDEST PUSH6 0x119D5B991959 PUSH1 0xD2 SHL SWAP5 PUSH1 0xC DUP7 ADD SWAP1 SSTORE PUSH1 0xE DUP2 ADD CALLER PUSH1 0x1 PUSH1 0x1 PUSH1 0x60 SHL SUB PUSH1 0xA0 SHL DUP3 SLOAD AND OR SWAP1 SSTORE PUSH1 0x1 DUP5 PUSH1 0x0 SLOAD AND SWAP2 ADD SWAP3 DUP5 DUP5 SLOAD AND SWAP1 SLOAD SWAP2 CALLER SWAP1 PUSH2 0x270E JUMP JUMPDEST SLOAD AND DUP4 MLOAD DUP4 DUP2 MSTORE PUSH32 0x74B5814FE355BA520EA013B8CD67E3A8DA7F4DB3D413C0BB58F4AD047713A8B9 CALLER SWAP2 DUP1 PUSH2 0x2E7 DUP8 DUP3 ADD DUP11 PUSH2 0x20AF JUMP JUMPDEST SUB SWAP1 LOG3 PUSH2 0x2FC DUP4 MLOAD SWAP5 DUP5 DUP7 MSTORE DUP5 DUP7 ADD SWAP1 PUSH2 0x20AF JUMP JUMPDEST SWAP2 DUP5 DUP4 SUB SWAP3 DUP4 DUP3 DUP8 ADD MSTORE PUSH1 0x6 DUP2 MSTORE ADD MSTORE ADD SWAP1 LOG1 PUSH1 0x1 PUSH1 0x0 DUP1 MLOAD PUSH1 0x20 PUSH2 0x29E5 DUP4 CODECOPY DUP2 MLOAD SWAP2 MSTORE SSTORE STOP JUMPDEST SWAP4 SWAP2 POP SWAP5 SWAP2 DUP3 DUP5 DUP2 RETURNDATASIZE DUP4 GT PUSH2 0x366 JUMPI JUMPDEST PUSH2 0x33D DUP2 DUP4 PUSH2 0x1FE5 JUMP JUMPDEST DUP2 ADD SUB SLT PUSH2 0x361 JUMPI SWAP3 MLOAD SWAP2 SWAP5 SWAP1 SWAP3 SWAP2 SWAP1 PUSH1 0x0 DUP1 MLOAD PUSH1 0x20 PUSH2 0x29A5 DUP4 CODECOPY DUP2 MLOAD SWAP2 MSTORE PUSH2 0x233 JUMP JUMPDEST PUSH1 0x0 DUP1 REVERT JUMPDEST POP RETURNDATASIZE PUSH2 0x333 JUMP JUMPDEST PUSH1 0x40 MLOAD RETURNDATASIZE PUSH1 0x0 DUP3 RETURNDATACOPY RETURNDATASIZE SWAP1 REVERT JUMPDEST CALLVALUE PUSH2 0x361 JUMPI PUSH1 0x20 CALLDATASIZE PUSH1 0x3 NOT ADD SLT PUSH2 0x361 JUMPI PUSH1 0x4 CALLDATALOAD PUSH1 0x2 SLOAD DUP2 LT ISZERO PUSH2 0x361 JUMPI PUSH2 0x3AC PUSH2 0x3A6 PUSH2 0x3C0 SWAP3 PUSH2 0x2323 JUMP JUMPDEST SWAP1 PUSH2 0x2388 JUMP JUMPDEST PUSH1 0x40 MLOAD SWAP2 DUP3 SWAP2 PUSH1 0x20 DUP4 MSTORE PUSH1 0x20 DUP4 ADD SWAP1 PUSH2 0x20AF JUMP JUMPDEST SUB SWAP1 RETURN JUMPDEST CALLVALUE PUSH2 0x361 JUMPI PUSH1 0x20 CALLDATASIZE PUSH1 0x3 NOT ADD SLT PUSH2 0x361 JUMPI PUSH2 0x3ED PUSH2 0x3E0 PUSH2 0x2076 JUMP JUMPDEST PUSH2 0x3E8 PUSH2 0x286B JUMP JUMPDEST PUSH2 0x266A JUMP JUMPDEST STOP JUMPDEST CALLVALUE PUSH2 0x361 JUMPI PUSH1 0x20 DUP1 PUSH1 0x3 NOT CALLDATASIZE ADD SLT PUSH2 0x361 JUMPI PUSH1 0x1 PUSH1 0x1 PUSH1 0xA0 SHL SUB SWAP1 DUP2 PUSH2 0x413 PUSH2 0x2076 JUMP JUMPDEST AND PUSH1 0x0 MSTORE PUSH1 0x3 DUP1 DUP3 MSTORE PUSH1 0x40 PUSH1 0x0 KECCAK256 SWAP2 DUP3 SLOAD PUSH2 0x42D DUP2 PUSH2 0x2540 JUMP JUMPDEST SWAP4 PUSH2 0x43B PUSH1 0x40 MLOAD SWAP6 DUP7 PUSH2 0x1FE5 JUMP JUMPDEST DUP2 DUP6 MSTORE PUSH1 0x0 SWAP1 DUP2 MSTORE DUP3 DUP2 KECCAK256 DUP4 DUP1 DUP8 ADD JUMPDEST DUP5 DUP5 LT PUSH2 0x5B3 JUMPI POP POP POP POP POP PUSH2 0x461 DUP4 MLOAD PUSH2 0x2557 JUMP JUMPDEST SWAP4 PUSH1 0x0 JUMPDEST DUP5 MLOAD DUP2 LT ISZERO PUSH2 0x5A5 JUMPI DUP1 PUSH2 0x47B PUSH1 0x1 SWAP3 DUP8 PUSH2 0x261A JUMP JUMPDEST MLOAD PUSH1 0xF DUP6 PUSH2 0x492 PUSH1 0x40 MLOAD SWAP4 DUP5 DUP2 MLOAD SWAP4 DUP5 SWAP3 ADD PUSH2 0x208C JUMP JUMPDEST DUP3 ADD SWAP2 DUP7 DUP2 DUP7 SWAP5 DUP6 DUP2 MSTORE SUB ADD SWAP1 KECCAK256 DUP6 PUSH1 0x40 MLOAD SWAP4 PUSH2 0x4AE DUP6 PUSH2 0x1FAE JUMP JUMPDEST PUSH2 0x4B7 DUP4 PUSH2 0x227E JUMP JUMPDEST DUP6 MSTORE DUP3 ADD SLOAD AND DUP8 DUP5 ADD MSTORE PUSH2 0x4CD PUSH1 0x2 DUP3 ADD PUSH2 0x227E JUMP JUMPDEST PUSH1 0x40 DUP5 ADD MSTORE DUP8 DUP2 ADD SLOAD PUSH1 0x60 DUP5 ADD MSTORE PUSH1 0x4 DUP2 ADD SLOAD PUSH1 0x80 DUP5 ADD MSTORE PUSH1 0xFF PUSH1 0x5 DUP3 ADD SLOAD AND ISZERO ISZERO PUSH1 0xA0 DUP5 ADD MSTORE PUSH2 0x500 PUSH1 0x6 DUP3 ADD PUSH2 0x227E JUMP JUMPDEST PUSH1 0xC0 DUP5 ADD MSTORE PUSH1 0x7 DUP2 ADD SLOAD PUSH1 0xE0 DUP5 ADD MSTORE PUSH1 0x8 DUP2 ADD SLOAD PUSH2 0x100 DUP5 ADD MSTORE PUSH2 0x526 PUSH1 0x9 DUP3 ADD PUSH2 0x227E JUMP JUMPDEST PUSH2 0x120 DUP5 ADD MSTORE PUSH2 0x538 PUSH1 0xA DUP3 ADD PUSH2 0x227E JUMP JUMPDEST PUSH2 0x140 DUP5 ADD MSTORE PUSH2 0x54A PUSH1 0xB DUP3 ADD PUSH2 0x227E JUMP JUMPDEST PUSH2 0x160 DUP5 ADD MSTORE PUSH2 0x55C PUSH1 0xC DUP3 ADD PUSH2 0x227E JUMP JUMPDEST PUSH2 0x180 DUP5 ADD MSTORE PUSH2 0x56E PUSH1 0xD DUP3 ADD PUSH2 0x227E JUMP JUMPDEST PUSH2 0x1A0 DUP5 ADD MSTORE DUP6 PUSH1 0xE DUP3 ADD SLOAD AND PUSH2 0x1C0 DUP5 ADD MSTORE ADD SLOAD PUSH2 0x1E0 DUP3 ADD MSTORE PUSH2 0x593 DUP3 DUP10 PUSH2 0x261A JUMP JUMPDEST MSTORE PUSH2 0x59E DUP2 DUP9 PUSH2 0x261A JUMP JUMPDEST POP ADD PUSH2 0x465 JUMP JUMPDEST PUSH1 0x40 MLOAD DUP1 PUSH2 0x3C0 DUP9 DUP3 PUSH2 0x20D4 JUMP JUMPDEST PUSH1 0x1 SWAP2 DUP3 SWAP2 PUSH2 0x5C1 DUP6 PUSH2 0x227E JUMP JUMPDEST DUP2 MSTORE ADD SWAP3 ADD SWAP3 ADD SWAP2 SWAP1 DUP5 SWAP1 PUSH2 0x44B JUMP JUMPDEST CALLVALUE PUSH2 0x361 JUMPI PUSH1 0x40 CALLDATASIZE PUSH1 0x3 NOT ADD SLT PUSH2 0x361 JUMPI PUSH2 0x5EA PUSH2 0x2076 JUMP JUMPDEST PUSH1 0x1 PUSH1 0x1 PUSH1 0xA0 SHL SUB AND PUSH1 0x0 SWAP1 DUP2 MSTORE PUSH1 0x3 PUSH1 0x20 MSTORE PUSH1 0x40 SWAP1 KECCAK256 DUP1 SLOAD PUSH1 0x24 CALLDATALOAD SWAP1 DUP2 LT ISZERO PUSH2 0x361 JUMPI PUSH2 0x3A6 PUSH2 0x3AC SWAP2 PUSH2 0x3C0 SWAP4 PUSH2 0x2370 JUMP JUMPDEST CALLVALUE PUSH2 0x361 JUMPI PUSH1 0x20 DUP1 PUSH1 0x3 NOT CALLDATASIZE ADD SLT PUSH2 0x361 JUMPI PUSH1 0x4 CALLDATALOAD PUSH1 0x1 PUSH1 0x1 PUSH1 0x40 SHL SUB DUP2 GT PUSH2 0x361 JUMPI PUSH2 0x64F SWAP1 CALLDATASIZE SWAP1 PUSH1 0x4 ADD PUSH2 0x2058 JUMP JUMPDEST PUSH2 0x657 PUSH2 0x26DE JUMP JUMPDEST PUSH1 0x40 MLOAD DUP3 DUP2 DUP4 MLOAD PUSH2 0x66B DUP2 DUP4 DUP6 DUP9 ADD PUSH2 0x208C JUMP JUMPDEST DUP2 ADD PUSH1 0x1 DUP2 MSTORE SUB ADD SWAP1 KECCAK256 PUSH1 0x5 DUP2 ADD PUSH2 0x686 PUSH1 0xFF DUP3 SLOAD AND PUSH2 0x2396 JUMP JUMPDEST PUSH1 0xE DUP3 ADD SLOAD PUSH1 0x1 PUSH1 0x1 PUSH1 0xA0 SHL SUB AND CALLER SUB PUSH2 0x854 JUMPI PUSH1 0xA DUP3 ADD SWAP2 PUSH2 0x6E3 PUSH1 0x40 MLOAD DUP7 DUP2 ADD SWAP1 PUSH2 0x6B7 DUP2 PUSH2 0x1BE DUP5 DUP10 PUSH2 0x23D7 JUMP JUMPDEST MLOAD SWAP1 KECCAK256 PUSH1 0x40 MLOAD DUP8 DUP2 ADD SWAP1 PUSH6 0x119D5B991959 PUSH1 0xD2 SHL DUP3 MSTORE PUSH1 0x6 DUP2 MSTORE PUSH2 0x6DA DUP2 PUSH2 0x1FCA JUMP JUMPDEST MLOAD SWAP1 KECCAK256 EQ PUSH2 0x245B JUMP JUMPDEST PUSH2 0x6F6 PUSH1 0x8 DUP3 ADD SLOAD PUSH1 0x4 DUP4 ADD SLOAD SWAP1 PUSH2 0x2499 JUMP JUMPDEST TIMESTAMP GT ISZERO PUSH2 0x80F JUMPI PUSH1 0xB PUSH2 0x70A SWAP2 ADD SLOAD PUSH2 0x2244 JUMP JUMPDEST ISZERO PUSH2 0x7D1 JUMPI SWAP3 DUP2 PUSH1 0x0 DUP1 MLOAD PUSH1 0x20 PUSH2 0x29A5 DUP4 CODECOPY DUP2 MLOAD SWAP2 MSTORE SWAP5 PUSH2 0x736 PUSH2 0x730 PUSH1 0x40 SWAP6 SLOAD PUSH2 0x2244 JUMP JUMPDEST DUP4 PUSH2 0x2509 JUMP JUMPDEST PUSH1 0x12 PUSH9 0x111959985D5B1D1959 PUSH1 0xBA SHL ADD SWAP1 SWAP2 SSTORE DUP1 SLOAD PUSH1 0xFF NOT AND SWAP1 SSTORE DUP2 MLOAD DUP2 DUP2 MSTORE PUSH9 0x111959985D5B1D1959 PUSH1 0xBA SHL SWAP1 CALLER SWAP1 PUSH32 0x9D99EBBD63AD66BD41D937ADD2C439545D27DE0CFCE044C210A62E86D9AB200F SWAP1 DUP1 PUSH2 0x795 DUP7 DUP3 ADD DUP10 PUSH2 0x20AF JUMP JUMPDEST SUB SWAP1 LOG2 PUSH2 0x7AA DUP4 MLOAD SWAP5 DUP5 DUP7 MSTORE DUP5 DUP7 ADD SWAP1 PUSH2 0x20AF JUMP JUMPDEST SWAP2 DUP5 DUP4 SUB SWAP3 DUP4 DUP3 DUP8 ADD MSTORE PUSH1 0x9 DUP2 MSTORE ADD MSTORE ADD SWAP1 LOG1 PUSH1 0x1 PUSH1 0x0 DUP1 MLOAD PUSH1 0x20 PUSH2 0x29E5 DUP4 CODECOPY DUP2 MLOAD SWAP2 MSTORE SSTORE STOP JUMPDEST PUSH1 0x40 MLOAD PUSH3 0x461BCD PUSH1 0xE5 SHL DUP2 MSTORE PUSH1 0x4 DUP2 ADD DUP6 SWAP1 MSTORE PUSH1 0x16 PUSH1 0x24 DUP3 ADD MSTORE PUSH22 0x4E6F20636F6C6C61746572616C20746F20636C61696D PUSH1 0x50 SHL PUSH1 0x44 DUP3 ADD MSTORE PUSH1 0x64 SWAP1 REVERT JUMPDEST PUSH1 0x40 MLOAD PUSH3 0x461BCD PUSH1 0xE5 SHL DUP2 MSTORE PUSH1 0x4 DUP2 ADD DUP7 SWAP1 MSTORE PUSH1 0x19 PUSH1 0x24 DUP3 ADD MSTORE PUSH32 0x4C6F616E206475726174696F6E206E6F74206578706972656400000000000000 PUSH1 0x44 DUP3 ADD MSTORE PUSH1 0x64 SWAP1 REVERT JUMPDEST PUSH1 0x64 DUP5 PUSH1 0x40 MLOAD SWAP1 PUSH3 0x461BCD PUSH1 0xE5 SHL DUP3 MSTORE DUP1 PUSH1 0x4 DUP4 ADD MSTORE PUSH1 0x24 DUP3 ADD MSTORE PUSH32 0x4F6E6C79206C656E6465722063616E20636C61696D20636F6C6C61746572616C PUSH1 0x44 DUP3 ADD MSTORE REVERT JUMPDEST CALLVALUE PUSH2 0x361 JUMPI PUSH1 0x20 CALLDATASIZE PUSH1 0x3 NOT ADD SLT PUSH2 0x361 JUMPI PUSH1 0x1 PUSH1 0x1 PUSH1 0xA0 SHL SUB PUSH2 0x8B8 PUSH2 0x2076 JUMP JUMPDEST AND PUSH1 0x0 MSTORE PUSH1 0x4 PUSH1 0x20 MSTORE PUSH1 0x20 PUSH1 0x40 PUSH1 0x0 KECCAK256 SLOAD PUSH1 0x40 MLOAD SWAP1 DUP2 MSTORE RETURN JUMPDEST CALLVALUE PUSH2 0x361 JUMPI PUSH1 0x20 DUP1 PUSH1 0x3 NOT CALLDATASIZE ADD SLT PUSH2 0x361 JUMPI PUSH1 0x1 PUSH1 0x1 PUSH1 0x40 SHL SUB PUSH1 0x4 CALLDATALOAD DUP2 DUP2 GT PUSH2 0x361 JUMPI PUSH2 0x903 SWAP1 CALLDATASIZE SWAP1 PUSH1 0x4 ADD PUSH2 0x2058 JUMP JUMPDEST SWAP1 PUSH2 0x90C PUSH2 0x26DE JUMP JUMPDEST PUSH1 0x40 MLOAD DUP4 DUP2 DUP5 MLOAD PUSH2 0x920 DUP2 DUP4 DUP6 DUP10 ADD PUSH2 0x208C JUMP JUMPDEST DUP2 ADD PUSH1 0x1 DUP2 MSTORE SUB ADD SWAP1 KECCAK256 SWAP3 PUSH1 0x5 DUP5 ADD PUSH2 0x93C PUSH1 0xFF DUP3 SLOAD AND PUSH2 0x2396 JUMP JUMPDEST PUSH1 0x1 DUP6 ADD SLOAD PUSH1 0x1 PUSH1 0x1 PUSH1 0xA0 SHL SUB SWAP6 SWAP1 DUP7 AND CALLER SUB PUSH2 0xB70 JUMPI PUSH1 0x24 PUSH1 0xA DUP3 ADD SWAP3 PUSH2 0x993 PUSH1 0x40 MLOAD DUP7 DUP2 ADD SWAP1 PUSH2 0x972 DUP2 PUSH2 0x1BE DUP5 DUP11 PUSH2 0x23D7 JUMP JUMPDEST MLOAD SWAP1 KECCAK256 PUSH1 0x40 MLOAD DUP8 DUP2 ADD SWAP1 PUSH4 0x27B832B7 PUSH1 0xE1 SHL DUP3 MSTORE PUSH1 0x4 DUP2 MSTORE PUSH2 0x1ED DUP2 PUSH2 0x1FCA JUMP JUMPDEST DUP5 DUP9 PUSH1 0x0 SLOAD AND PUSH1 0x40 MLOAD SWAP4 DUP5 DUP1 SWAP3 PUSH4 0x70A08231 PUSH1 0xE0 SHL DUP3 MSTORE ADDRESS PUSH1 0x4 DUP4 ADD MSTORE GAS STATICCALL SWAP2 DUP3 ISZERO PUSH2 0x36D JUMPI PUSH1 0x0 SWAP3 PUSH2 0xB41 JUMPI JUMPDEST POP PUSH1 0x3 DUP4 ADD SWAP2 PUSH2 0x9D9 PUSH1 0x7 DUP5 SLOAD SWAP6 ADD SWAP5 DUP6 SLOAD SWAP1 PUSH2 0x2499 JUMP JUMPDEST GT PUSH2 0xAFC JUMPI SWAP1 PUSH2 0xA22 SWAP3 SWAP2 PUSH2 0x9F1 PUSH2 0x26B DUP7 SLOAD PUSH2 0x2244 JUMP JUMPDEST PUSH1 0x10 PUSH8 0x10D85B98D95B1959 PUSH1 0xC2 SHL ADD SWAP1 SWAP5 SSTORE DUP4 SLOAD PUSH1 0xFF NOT AND SWAP1 SWAP4 SSTORE SWAP2 SLOAD SWAP2 SLOAD PUSH8 0x10D85B98D95B1959 PUSH1 0xC2 SHL SWAP3 PUSH2 0x2499 JUMP JUMPDEST SWAP5 PUSH1 0x0 SLOAD AND SWAP3 PUSH1 0x40 MLOAD SWAP6 PUSH4 0xA9059CBB PUSH1 0xE0 SHL DUP5 DUP9 ADD MSTORE CALLER PUSH1 0x24 DUP9 ADD MSTORE PUSH1 0x44 DUP8 ADD MSTORE PUSH1 0x44 DUP7 MSTORE PUSH1 0x80 DUP7 ADD SWAP1 DUP7 DUP3 LT SWAP1 DUP3 GT OR PUSH2 0xAE6 JUMPI PUSH1 0x0 DUP1 MLOAD PUSH1 0x20 PUSH2 0x29A5 DUP4 CODECOPY DUP2 MLOAD SWAP2 MSTORE SWAP6 PUSH1 0x40 SWAP5 PUSH2 0xA75 SWAP3 DUP7 MSTORE PUSH2 0x28A4 JUMP JUMPDEST DUP3 MLOAD DUP3 DUP2 MSTORE PUSH32 0x64167C9F5767A6FA8B7008F5263E7F45D013DD7DD2213F2D254BEC2DA2BAE1A7 CALLER SWAP2 DUP1 PUSH2 0xAAA DUP7 DUP3 ADD DUP10 PUSH2 0x20AF JUMP JUMPDEST SUB SWAP1 LOG2 PUSH2 0xABF DUP4 MLOAD SWAP5 DUP5 DUP7 MSTORE DUP5 DUP7 ADD SWAP1 PUSH2 0x20AF JUMP JUMPDEST SWAP2 DUP5 DUP4 SUB SWAP3 DUP4 DUP3 DUP8 ADD MSTORE PUSH1 0x8 DUP2 MSTORE ADD MSTORE ADD SWAP1 LOG1 PUSH1 0x1 PUSH1 0x0 DUP1 MLOAD PUSH1 0x20 PUSH2 0x29E5 DUP4 CODECOPY DUP2 MLOAD SWAP2 MSTORE SSTORE STOP JUMPDEST PUSH4 0x4E487B71 PUSH1 0xE0 SHL PUSH1 0x0 MSTORE PUSH1 0x41 PUSH1 0x4 MSTORE PUSH1 0x24 PUSH1 0x0 REVERT JUMPDEST PUSH1 0x40 MLOAD PUSH3 0x461BCD PUSH1 0xE5 SHL DUP2 MSTORE PUSH1 0x4 DUP2 ADD DUP7 SWAP1 MSTORE PUSH1 0x1D PUSH1 0x24 DUP3 ADD MSTORE PUSH32 0x496E73756666696369656E7420636F6E74726163742062616C616E6365000000 PUSH1 0x44 DUP3 ADD MSTORE PUSH1 0x64 SWAP1 REVERT JUMPDEST SWAP1 SWAP2 POP DUP5 DUP2 DUP2 RETURNDATASIZE DUP4 GT PUSH2 0xB69 JUMPI JUMPDEST PUSH2 0xB59 DUP2 DUP4 PUSH2 0x1FE5 JUMP JUMPDEST DUP2 ADD SUB SLT PUSH2 0x361 JUMPI MLOAD SWAP1 DUP9 PUSH2 0x9C1 JUMP JUMPDEST POP RETURNDATASIZE PUSH2 0xB4F JUMP JUMPDEST PUSH1 0x40 MLOAD PUSH3 0x461BCD PUSH1 0xE5 SHL DUP2 MSTORE PUSH1 0x4 DUP2 ADD DUP5 SWAP1 MSTORE PUSH1 0x18 PUSH1 0x24 DUP3 ADD MSTORE PUSH32 0x4F6E6C7920626F72726F7765722063616E2063616E63656C0000000000000000 PUSH1 0x44 DUP3 ADD MSTORE PUSH1 0x64 SWAP1 REVERT JUMPDEST CALLVALUE PUSH2 0x361 JUMPI PUSH1 0x20 CALLDATASIZE PUSH1 0x3 NOT ADD SLT PUSH2 0x361 JUMPI PUSH1 0x4 CALLDATALOAD PUSH1 0x1 PUSH1 0x1 PUSH1 0x40 SHL SUB DUP2 GT PUSH2 0x361 JUMPI PUSH2 0xBE5 SWAP1 CALLDATASIZE SWAP1 PUSH1 0x4 ADD PUSH2 0x2058 JUMP JUMPDEST PUSH1 0x40 MLOAD DUP2 DUP2 DUP1 SWAP4 MLOAD PUSH1 0x20 DUP2 SWAP4 ADD SWAP2 PUSH2 0xBFC SWAP3 PUSH2 0x208C JUMP JUMPDEST DUP2 ADD PUSH1 0x1 DUP2 MSTORE SUB PUSH1 0x20 ADD SWAP1 KECCAK256 PUSH2 0xC11 DUP2 PUSH2 0x227E JUMP JUMPDEST PUSH1 0x1 DUP3 ADD SLOAD DUP3 SWAP1 DUP2 SWAP1 PUSH1 0x1 PUSH1 0x1 PUSH1 0xA0 SHL SUB SWAP1 DUP2 AND PUSH2 0xC31 PUSH1 0x2 DUP5 ADD PUSH2 0x227E JUMP JUMPDEST PUSH1 0x3 DUP5 ADD SLOAD PUSH1 0x4 DUP6 ADD SLOAD PUSH1 0x5 DUP7 ADD SLOAD PUSH1 0xFF AND SWAP2 PUSH2 0xC50 PUSH1 0x6 DUP9 ADD PUSH2 0x227E JUMP JUMPDEST SWAP1 PUSH1 0x7 DUP9 ADD SLOAD SWAP4 PUSH1 0x8 DUP10 ADD SLOAD SWAP4 PUSH1 0x9 DUP11 ADD PUSH2 0xC6A SWAP1 PUSH2 0x227E JUMP JUMPDEST SWAP7 PUSH2 0xC77 PUSH1 0xA DUP13 ADD PUSH2 0x227E JUMP JUMPDEST SWAP9 PUSH2 0xC84 PUSH1 0xB DUP14 ADD PUSH2 0x227E JUMP JUMPDEST SWAP11 PUSH2 0xC91 PUSH1 0xC DUP15 ADD PUSH2 0x227E JUMP JUMPDEST SWAP13 PUSH1 0xD ADD PUSH2 0xC9E SWAP1 PUSH2 0x227E JUMP JUMPDEST SWAP14 PUSH1 0xE ADD SLOAD AND SWAP15 PUSH1 0xF ADD SLOAD SWAP14 PUSH1 0x40 MLOAD PUSH1 0x80 MSTORE PUSH2 0x200 DUP1 PUSH1 0x80 MLOAD MSTORE PUSH1 0x80 MLOAD ADD PUSH2 0xCC5 SWAP2 PUSH2 0x20AF JUMP JUMPDEST SWAP1 PUSH1 0x80 MLOAD PUSH1 0x20 ADD MSTORE PUSH1 0x80 MLOAD DUP2 SUB PUSH1 0x80 MLOAD PUSH1 0x40 ADD MSTORE PUSH2 0xCE2 SWAP2 PUSH2 0x20AF JUMP JUMPDEST SWAP3 PUSH1 0x80 MLOAD PUSH1 0x60 ADD MSTORE PUSH1 0x80 MLOAD PUSH1 0x80 ADD MSTORE ISZERO ISZERO PUSH1 0x80 MLOAD PUSH1 0xA0 ADD MSTORE PUSH1 0x80 MLOAD DUP2 SUB PUSH1 0x80 MLOAD PUSH1 0xC0 ADD MSTORE PUSH2 0xD0F SWAP2 PUSH2 0x20AF JUMP JUMPDEST SWAP2 PUSH1 0x80 MLOAD PUSH1 0xE0 ADD MSTORE PUSH1 0x80 MLOAD PUSH2 0x100 ADD MSTORE PUSH1 0x80 MLOAD DUP2 SUB PUSH1 0x80 MLOAD PUSH2 0x120 ADD MSTORE PUSH2 0xD35 SWAP2 PUSH2 0x20AF JUMP JUMPDEST PUSH1 0x80 MLOAD DUP2 SUB PUSH1 0x80 MLOAD PUSH2 0x140 ADD MSTORE PUSH2 0xD4B SWAP2 PUSH2 0x20AF JUMP JUMPDEST PUSH1 0x80 MLOAD DUP2 SUB PUSH1 0x80 MLOAD PUSH2 0x160 ADD MSTORE PUSH2 0xD61 SWAP2 PUSH2 0x20AF JUMP JUMPDEST PUSH1 0x80 MLOAD DUP2 SUB PUSH1 0x80 MLOAD PUSH2 0x180 ADD MSTORE PUSH2 0xD77 SWAP2 PUSH2 0x20AF JUMP JUMPDEST PUSH1 0x80 MLOAD DUP2 SUB PUSH1 0x80 MLOAD PUSH2 0x1A0 ADD MSTORE PUSH2 0xD8D SWAP2 PUSH2 0x20AF JUMP JUMPDEST SWAP2 PUSH1 0x80 MLOAD PUSH2 0x1C0 ADD MSTORE PUSH1 0x80 MLOAD PUSH2 0x1E0 ADD MSTORE PUSH1 0x80 MLOAD SWAP1 SUB PUSH1 0x80 MLOAD RETURN JUMPDEST CALLVALUE PUSH2 0x361 JUMPI PUSH1 0x20 CALLDATASIZE PUSH1 0x3 NOT ADD SLT PUSH2 0x361 JUMPI PUSH2 0xDC1 PUSH2 0x2076 JUMP JUMPDEST PUSH32 0xF0C57E16840DF040F15088DC2F81FE391C3923BEC73E23A9662EFC9C229C6A00 SWAP1 DUP2 SLOAD SWAP1 PUSH1 0xFF DUP3 PUSH1 0x40 SHR AND ISZERO SWAP2 PUSH1 0x1 PUSH1 0x1 PUSH1 0x40 SHL SUB DUP2 AND DUP1 ISZERO SWAP1 DUP2 PUSH2 0xF62 JUMPI JUMPDEST PUSH1 0x1 EQ SWAP1 DUP2 PUSH2 0xF58 JUMPI JUMPDEST ISZERO SWAP1 DUP2 PUSH2 0xF4F JUMPI JUMPDEST POP PUSH2 0xF3D JUMPI PUSH8 0xFFFFFFFFFFFFFFFF NOT DUP2 AND PUSH1 0x1 OR DUP5 SSTORE DUP3 PUSH2 0xF1E JUMPI JUMPDEST POP PUSH2 0xE39 PUSH2 0x2900 JUMP JUMPDEST PUSH2 0xE41 PUSH2 0x2900 JUMP JUMPDEST PUSH2 0xE4A CALLER PUSH2 0x266A JUMP JUMPDEST PUSH2 0xE52 PUSH2 0x2900 JUMP JUMPDEST PUSH2 0xE5A PUSH2 0x2900 JUMP JUMPDEST PUSH2 0xE62 PUSH2 0x2900 JUMP JUMPDEST PUSH1 0x1 PUSH1 0x0 DUP1 MLOAD PUSH1 0x20 PUSH2 0x29E5 DUP4 CODECOPY DUP2 MLOAD SWAP2 MSTORE SSTORE PUSH1 0x1 PUSH1 0x1 PUSH1 0xA0 SHL SUB AND DUP1 ISZERO PUSH2 0xED9 JUMPI PUSH1 0x1 PUSH1 0x1 PUSH1 0x60 SHL SUB PUSH1 0xA0 SHL PUSH1 0x0 SLOAD AND OR PUSH1 0x0 SSTORE PUSH2 0xE9C JUMPI STOP JUMPDEST PUSH9 0xFF0000000000000000 NOT DUP2 SLOAD AND SWAP1 SSTORE PUSH32 0xC7F505B2F371AE2175EE4913F4499E1F2633A7B5936321EED1CDAEB6115181D2 PUSH1 0x20 PUSH1 0x40 MLOAD PUSH1 0x1 DUP2 MSTORE LOG1 STOP JUMPDEST PUSH1 0x40 MLOAD PUSH3 0x461BCD PUSH1 0xE5 SHL DUP2 MSTORE PUSH1 0x20 PUSH1 0x4 DUP3 ADD MSTORE PUSH1 0x1B PUSH1 0x24 DUP3 ADD MSTORE PUSH32 0x496E76616C696420574545444C20746F6B656E20616464726573730000000000 PUSH1 0x44 DUP3 ADD MSTORE PUSH1 0x64 SWAP1 REVERT JUMPDEST PUSH9 0xFFFFFFFFFFFFFFFFFF NOT AND PUSH9 0x10000000000000001 OR DUP4 SSTORE DUP4 PUSH2 0xE30 JUMP JUMPDEST PUSH1 0x40 MLOAD PUSH4 0xF92EE8A9 PUSH1 0xE0 SHL DUP2 MSTORE PUSH1 0x4 SWAP1 REVERT JUMPDEST SWAP1 POP ISZERO DUP6 PUSH2 0xE14 JUMP JUMPDEST ADDRESS EXTCODESIZE ISZERO SWAP2 POP PUSH2 0xE0C JUMP JUMPDEST DUP5 SWAP2 POP PUSH2 0xE02 JUMP JUMPDEST CALLVALUE PUSH2 0x361 JUMPI PUSH1 0x20 CALLDATASIZE PUSH1 0x3 NOT ADD SLT PUSH2 0x361 JUMPI PUSH1 0x1 PUSH1 0x1 PUSH1 0xA0 SHL SUB PUSH2 0xF8B PUSH2 0x2076 JUMP JUMPDEST AND PUSH1 0x0 MSTORE PUSH1 0x4 PUSH1 0x20 MSTORE PUSH1 0x40 DUP1 PUSH1 0x0 KECCAK256 SLOAD PUSH1 0x5 PUSH1 0x20 MSTORE DUP2 PUSH1 0x0 KECCAK256 SLOAD DUP3 MLOAD SWAP2 DUP3 MSTORE PUSH1 0x20 DUP3 ADD MSTORE RETURN JUMPDEST CALLVALUE PUSH2 0x361 JUMPI PUSH1 0x0 CALLDATASIZE PUSH1 0x3 NOT ADD SLT PUSH2 0x361 JUMPI PUSH2 0x3C0 PUSH1 0x40 MLOAD PUSH2 0xFD1 DUP2 PUSH2 0x1FCA JUMP JUMPDEST PUSH1 0x5 DUP2 MSTORE PUSH5 0x352E302E3 PUSH1 0xDC SHL PUSH1 0x20 DUP3 ADD MSTORE PUSH1 0x40 MLOAD SWAP2 DUP3 SWAP2 PUSH1 0x20 DUP4 MSTORE PUSH1 0x20 DUP4 ADD SWAP1 PUSH2 0x20AF JUMP JUMPDEST CALLVALUE PUSH2 0x361 JUMPI PUSH1 0x0 CALLDATASIZE PUSH1 0x3 NOT ADD SLT PUSH2 0x361 JUMPI PUSH1 0x2 DUP1 SLOAD PUSH2 0x1015 DUP2 PUSH2 0x2557 JUMP JUMPDEST SWAP2 PUSH1 0x0 JUMPDEST DUP3 DUP2 LT PUSH2 0x102E JUMPI PUSH1 0x40 MLOAD DUP1 PUSH2 0x3C0 DUP7 DUP3 PUSH2 0x20D4 JUMP JUMPDEST DUP1 PUSH2 0x103A PUSH1 0x1 SWAP3 PUSH2 0x2323 JUMP JUMPDEST POP PUSH1 0xF PUSH2 0x104A PUSH1 0x40 MLOAD DUP1 SWAP4 PUSH2 0x23D7 JUMP JUMPDEST DUP3 DUP6 SWAP2 DUP3 DUP2 MSTORE PUSH1 0x20 SWAP5 DUP6 SWAP2 SUB ADD SWAP1 KECCAK256 SWAP1 PUSH1 0x40 MLOAD SWAP4 PUSH2 0x1067 DUP6 PUSH2 0x1FAE JUMP JUMPDEST PUSH2 0x1070 DUP4 PUSH2 0x227E JUMP JUMPDEST DUP6 MSTORE DUP7 DUP1 PUSH1 0xA0 SHL SUB DUP1 SWAP3 DUP5 ADD SLOAD AND SWAP1 DUP6 ADD MSTORE PUSH2 0x108D DUP8 DUP4 ADD PUSH2 0x227E JUMP JUMPDEST PUSH1 0x40 DUP6 ADD MSTORE PUSH1 0x3 DUP3 ADD SLOAD PUSH1 0x60 DUP6 ADD MSTORE PUSH1 0x4 DUP3 ADD SLOAD PUSH1 0x80 DUP6 ADD MSTORE PUSH1 0xFF PUSH1 0x5 DUP4 ADD SLOAD AND ISZERO ISZERO PUSH1 0xA0 DUP6 ADD MSTORE PUSH2 0x10C1 PUSH1 0x6 DUP4 ADD PUSH2 0x227E JUMP JUMPDEST PUSH1 0xC0 DUP6 ADD MSTORE PUSH1 0x7 DUP3 ADD SLOAD PUSH1 0xE0 DUP6 ADD MSTORE PUSH1 0x8 DUP3 ADD SLOAD PUSH2 0x100 DUP6 ADD MSTORE PUSH2 0x10E7 PUSH1 0x9 DUP4 ADD PUSH2 0x227E JUMP JUMPDEST PUSH2 0x120 DUP6 ADD MSTORE PUSH2 0x10F9 PUSH1 0xA DUP4 ADD PUSH2 0x227E JUMP JUMPDEST PUSH2 0x140 DUP6 ADD MSTORE PUSH2 0x110B PUSH1 0xB DUP4 ADD PUSH2 0x227E JUMP JUMPDEST PUSH2 0x160 DUP6 ADD MSTORE PUSH2 0x111D PUSH1 0xC DUP4 ADD PUSH2 0x227E JUMP JUMPDEST PUSH2 0x180 DUP6 ADD MSTORE PUSH2 0x112F PUSH1 0xD DUP4 ADD PUSH2 0x227E JUMP JUMPDEST PUSH2 0x1A0 DUP6 ADD MSTORE PUSH1 0xE DUP3 ADD SLOAD AND PUSH2 0x1C0 DUP5 ADD MSTORE ADD SLOAD PUSH2 0x1E0 DUP3 ADD MSTORE PUSH2 0x1153 DUP3 DUP8 PUSH2 0x261A JUMP JUMPDEST MSTORE PUSH2 0x115E DUP2 DUP7 PUSH2 0x261A JUMP JUMPDEST POP ADD PUSH2 0x1019 JUMP JUMPDEST CALLVALUE PUSH2 0x361 JUMPI PUSH1 0x0 CALLDATASIZE PUSH1 0x3 NOT ADD SLT PUSH2 0x361 JUMPI PUSH1 0x20 PUSH1 0x40 MLOAD PUSH1 0x2A DUP2 MSTORE RETURN JUMPDEST CALLVALUE PUSH2 0x361 JUMPI PUSH1 0x0 CALLDATASIZE PUSH1 0x3 NOT ADD SLT PUSH2 0x361 JUMPI PUSH1 0x0 DUP1 MLOAD PUSH1 0x20 PUSH2 0x29C5 DUP4 CODECOPY DUP2 MLOAD SWAP2 MSTORE SLOAD PUSH1 0x40 MLOAD PUSH1 0x1 PUSH1 0x1 PUSH1 0xA0 SHL SUB SWAP1 SWAP2 AND DUP2 MSTORE PUSH1 0x20 SWAP1 RETURN JUMPDEST CALLVALUE PUSH2 0x361 JUMPI PUSH1 0x20 CALLDATASIZE PUSH1 0x3 NOT ADD SLT PUSH2 0x361 JUMPI PUSH1 0x4 CALLDATALOAD PUSH1 0x1 PUSH1 0x1 PUSH1 0x40 SHL SUB DUP2 GT PUSH2 0x361 JUMPI PUSH2 0x1200 PUSH1 0x20 PUSH2 0x11ED DUP2 SWAP4 CALLDATASIZE SWAP1 PUSH1 0x4 ADD PUSH2 0x2058 JUMP JUMPDEST DUP2 PUSH1 0x40 MLOAD SWAP4 DUP3 DUP6 DUP1 SWAP5 MLOAD SWAP4 DUP5 SWAP3 ADD PUSH2 0x208C JUMP JUMPDEST DUP2 ADD PUSH1 0x6 DUP2 MSTORE SUB ADD SWAP1 KECCAK256 SLOAD PUSH1 0x40 MLOAD SWAP1 DUP2 MSTORE RETURN JUMPDEST CALLVALUE PUSH2 0x361 JUMPI PUSH1 0x0 CALLDATASIZE PUSH1 0x3 NOT ADD SLT PUSH2 0x361 JUMPI PUSH2 0x122C PUSH2 0x286B JUMP JUMPDEST PUSH1 0x0 DUP1 MLOAD PUSH1 0x20 PUSH2 0x29C5 DUP4 CODECOPY DUP2 MLOAD SWAP2 MSTORE DUP1 SLOAD PUSH1 0x1 PUSH1 0x1 PUSH1 0xA0 SHL SUB NOT DUP2 AND SWAP1 SWAP2 SSTORE PUSH1 0x0 SWAP1 PUSH1 0x1 PUSH1 0x1 PUSH1 0xA0 SHL SUB AND PUSH32 0x8BE0079C531659141344CD1FD0A4F28419497F9722A3DAAFE3B4186F6B6457E0 DUP3 DUP1 LOG3 STOP JUMPDEST CALLVALUE PUSH2 0x361 JUMPI PUSH1 0x0 CALLDATASIZE PUSH1 0x3 NOT ADD SLT PUSH2 0x361 JUMPI PUSH32 0x0 PUSH1 0x1 PUSH1 0x1 PUSH1 0xA0 SHL SUB AND ADDRESS SUB PUSH2 0x12E8 JUMPI PUSH1 0x20 PUSH1 0x40 MLOAD PUSH32 0x360894A13BA1A3210667C828492DB98DCA3E2076CC3735A920A3CA505D382BBC DUP2 MSTORE RETURN JUMPDEST PUSH1 0x40 MLOAD PUSH4 0x703E46DD PUSH1 0xE1 SHL DUP2 MSTORE PUSH1 0x4 SWAP1 REVERT JUMPDEST CALLVALUE PUSH2 0x361 JUMPI PUSH2 0x140 CALLDATASIZE PUSH1 0x3 NOT ADD SLT PUSH2 0x361 JUMPI PUSH1 0x1 PUSH1 0x1 PUSH1 0x40 SHL SUB PUSH1 0x4 CALLDATALOAD DUP2 DUP2 GT PUSH2 0x361 JUMPI PUSH2 0x132C SWAP1 CALLDATASIZE SWAP1 PUSH1 0x4 ADD PUSH2 0x2058 JUMP JUMPDEST PUSH1 0x24 CALLDATALOAD DUP3 DUP2 GT PUSH2 0x361 JUMPI PUSH2 0x1344 SWAP1 CALLDATASIZE SWAP1 PUSH1 0x4 ADD PUSH2 0x2058 JUMP JUMPDEST PUSH1 0x84 CALLDATALOAD DUP4 DUP2 GT PUSH2 0x361 JUMPI PUSH2 0x135C SWAP1 CALLDATASIZE SWAP1 PUSH1 0x4 ADD PUSH2 0x2058 JUMP JUMPDEST PUSH1 0xC4 CALLDATALOAD DUP5 DUP2 GT PUSH2 0x361 JUMPI PUSH2 0x1374 SWAP1 CALLDATASIZE SWAP1 PUSH1 0x4 ADD PUSH2 0x2058 JUMP JUMPDEST SWAP2 PUSH1 0xE4 CALLDATALOAD DUP6 DUP2 GT PUSH2 0x361 JUMPI PUSH2 0x138D SWAP1 CALLDATASIZE SWAP1 PUSH1 0x4 ADD PUSH2 0x2058 JUMP JUMPDEST SWAP1 PUSH2 0x104 CALLDATALOAD DUP7 DUP2 GT PUSH2 0x361 JUMPI PUSH2 0x13A7 SWAP1 CALLDATASIZE SWAP1 PUSH1 0x4 ADD PUSH2 0x2058 JUMP JUMPDEST SWAP6 PUSH2 0x124 CALLDATALOAD SWAP1 DUP2 GT PUSH2 0x361 JUMPI PUSH2 0x13C1 SWAP1 CALLDATASIZE SWAP1 PUSH1 0x4 ADD PUSH2 0x2058 JUMP JUMPDEST SWAP4 PUSH2 0x13CA PUSH2 0x26DE JUMP JUMPDEST PUSH1 0x44 CALLDATALOAD ISZERO PUSH2 0x19F9 JUMPI PUSH1 0x64 CALLDATALOAD ISZERO ISZERO DUP1 PUSH2 0x19E9 JUMPI JUMPDEST ISZERO PUSH2 0x19A4 JUMPI DUP6 MLOAD ISZERO PUSH2 0x195F JUMPI DUP4 MLOAD ISZERO PUSH2 0x1922 JUMPI DUP1 MLOAD ISZERO PUSH2 0x18EA JUMPI PUSH1 0x3 PUSH1 0x40 MLOAD PUSH1 0x20 DUP2 DUP2 PUSH2 0x1410 DUP12 DUP4 DUP2 MLOAD SWAP4 DUP5 SWAP3 ADD PUSH2 0x208C JUMP JUMPDEST PUSH1 0x1 DUP2 DUP4 ADD MSTORE DUP2 ADD SUB ADD SWAP1 KECCAK256 ADD SLOAD PUSH2 0x18AC JUMPI PUSH1 0x2A PUSH1 0x44 CALLDATALOAD MUL PUSH1 0x44 CALLDATALOAD DUP2 DIV PUSH1 0x2A SUB PUSH2 0x1896 JUMPI PUSH2 0x2710 SWAP1 DIV PUSH1 0xA4 CALLDATALOAD SUB PUSH2 0x1863 JUMPI PUSH1 0x0 SLOAD PUSH1 0x40 MLOAD PUSH4 0x70A08231 PUSH1 0xE0 SHL DUP2 MSTORE CALLER PUSH1 0x4 DUP3 ADD MSTORE SWAP1 PUSH1 0x1 PUSH1 0x1 PUSH1 0xA0 SHL SUB AND PUSH1 0x20 DUP3 PUSH1 0x24 DUP2 DUP5 GAS STATICCALL SWAP2 DUP3 ISZERO PUSH2 0x36D JUMPI PUSH1 0x0 SWAP3 PUSH2 0x182D JUMPI JUMPDEST POP PUSH2 0x1496 PUSH2 0x14AE SWAP3 PUSH2 0x148F PUSH1 0xA4 CALLDATALOAD PUSH1 0x44 CALLDATALOAD PUSH2 0x2499 JUMP JUMPDEST GT ISZERO PUSH2 0x24A6 JUMP JUMPDEST PUSH2 0x14A4 PUSH1 0xA4 CALLDATALOAD PUSH1 0x44 CALLDATALOAD PUSH2 0x2499 JUMP JUMPDEST SWAP1 ADDRESS SWAP1 CALLER SWAP1 PUSH2 0x270E JUMP JUMPDEST PUSH1 0x40 MLOAD PUSH2 0x14BA DUP2 PUSH2 0x1FAE JUMP JUMPDEST DUP7 DUP2 MSTORE CALLER PUSH1 0x20 DUP3 ADD MSTORE DUP3 PUSH1 0x40 DUP3 ADD MSTORE PUSH1 0x44 CALLDATALOAD PUSH1 0x60 DUP3 ADD MSTORE PUSH1 0x64 CALLDATALOAD PUSH1 0x80 DUP3 ADD MSTORE PUSH1 0x1 PUSH1 0xA0 DUP3 ADD MSTORE DUP5 PUSH1 0xC0 DUP3 ADD MSTORE PUSH1 0xA4 CALLDATALOAD PUSH1 0xE0 DUP3 ADD MSTORE TIMESTAMP PUSH2 0x100 DUP3 ADD MSTORE DUP2 PUSH2 0x120 DUP3 ADD MSTORE PUSH1 0x40 MLOAD PUSH2 0x1508 DUP2 PUSH2 0x1FCA JUMP JUMPDEST PUSH1 0x4 DUP2 MSTORE PUSH4 0x27B832B7 PUSH1 0xE1 SHL PUSH1 0x20 DUP3 ADD MSTORE PUSH2 0x140 DUP3 ADD MSTORE DUP4 PUSH2 0x160 DUP3 ADD MSTORE DUP8 PUSH2 0x180 DUP3 ADD MSTORE DUP6 PUSH2 0x1A0 DUP3 ADD MSTORE PUSH1 0x0 PUSH2 0x1C0 DUP3 ADD MSTORE PUSH1 0x0 PUSH2 0x1E0 DUP3 ADD MSTORE PUSH1 0xF PUSH2 0x1E0 PUSH1 0x40 MLOAD PUSH1 0x20 DUP2 DUP2 PUSH2 0x1560 DUP14 DUP4 DUP2 MLOAD SWAP4 DUP5 SWAP3 ADD PUSH2 0x208C JUMP JUMPDEST DUP2 ADD PUSH1 0x1 DUP2 MSTORE SUB ADD SWAP1 KECCAK256 SWAP3 PUSH2 0x1576 DUP2 MLOAD DUP6 PUSH2 0x2766 JUMP JUMPDEST PUSH1 0x1 DUP1 PUSH1 0xA0 SHL SUB PUSH1 0x20 DUP3 ADD MLOAD AND PUSH1 0x1 PUSH1 0x1 PUSH1 0x60 SHL SUB PUSH1 0xA0 SHL PUSH1 0x1 DUP7 ADD SLOAD AND OR PUSH1 0x1 DUP6 ADD SSTORE PUSH2 0x15AB PUSH1 0x40 DUP3 ADD MLOAD PUSH1 0x2 DUP7 ADD PUSH2 0x2766 JUMP JUMPDEST PUSH1 0x60 DUP2 ADD MLOAD PUSH1 0x3 DUP6 ADD SSTORE PUSH1 0x80 DUP2 ADD MLOAD PUSH1 0x4 DUP6 ADD SSTORE PUSH1 0x5 DUP5 ADD PUSH1 0xA0 DUP3 ADD MLOAD ISZERO ISZERO PUSH1 0xFF DUP1 NOT DUP4 SLOAD AND SWAP2 AND OR SWAP1 SSTORE PUSH2 0x15E7 PUSH1 0xC0 DUP3 ADD MLOAD PUSH1 0x6 DUP7 ADD PUSH2 0x2766 JUMP JUMPDEST PUSH1 0xE0 DUP2 ADD MLOAD PUSH1 0x7 DUP6 ADD SSTORE PUSH2 0x100 DUP2 ADD MLOAD PUSH1 0x8 DUP6 ADD SSTORE PUSH2 0x160E PUSH2 0x120 DUP3 ADD MLOAD PUSH1 0x9 DUP7 ADD PUSH2 0x2766 JUMP JUMPDEST PUSH2 0x1620 PUSH2 0x140 DUP3 ADD MLOAD PUSH1 0xA DUP7 ADD PUSH2 0x2766 JUMP JUMPDEST PUSH2 0x1632 PUSH2 0x160 DUP3 ADD MLOAD PUSH1 0xB DUP7 ADD PUSH2 0x2766 JUMP JUMPDEST PUSH2 0x1644 PUSH2 0x180 DUP3 ADD MLOAD PUSH1 0xC DUP7 ADD PUSH2 0x2766 JUMP JUMPDEST PUSH2 0x1656 PUSH2 0x1A0 DUP3 ADD MLOAD PUSH1 0xD DUP7 ADD PUSH2 0x2766 JUMP JUMPDEST PUSH1 0xE DUP5 ADD PUSH1 0x1 DUP1 PUSH1 0xA0 SHL SUB PUSH2 0x1C0 DUP4 ADD MLOAD AND PUSH1 0x1 PUSH1 0x1 PUSH1 0x60 SHL SUB PUSH1 0xA0 SHL DUP3 SLOAD AND OR SWAP1 SSTORE ADD MLOAD SWAP2 ADD SSTORE PUSH1 0x2 SLOAD PUSH1 0x1 PUSH1 0x40 SHL DUP2 LT ISZERO PUSH2 0xAE6 JUMPI DUP1 PUSH1 0x1 PUSH2 0x169D SWAP3 ADD PUSH1 0x2 SSTORE PUSH2 0x2323 JUMP JUMPDEST PUSH2 0x1817 JUMPI DUP7 PUSH2 0x16AB SWAP2 PUSH2 0x2766 JUMP JUMPDEST CALLER PUSH1 0x0 MSTORE PUSH1 0x3 PUSH1 0x20 MSTORE PUSH1 0x40 PUSH1 0x0 KECCAK256 DUP1 SLOAD PUSH1 0x1 PUSH1 0x40 SHL DUP2 LT ISZERO PUSH2 0xAE6 JUMPI PUSH2 0x16D6 SWAP2 PUSH1 0x1 DUP3 ADD DUP2 SSTORE PUSH2 0x2370 JUMP JUMPDEST SWAP3 SWAP1 SWAP3 PUSH2 0x1817 JUMPI PUSH1 0x0 DUP1 MLOAD PUSH1 0x20 PUSH2 0x29A5 DUP4 CODECOPY DUP2 MLOAD SWAP2 MSTORE SWAP8 PUSH2 0x17B1 DUP9 SWAP6 PUSH2 0x17A3 PUSH2 0x17D0 SWAP6 PUSH2 0x178D PUSH32 0x8095295DCA7B6AC6873584CE5A8CC8BBBD1B124A0D355E962D9BD811251B9857 SWAP11 PUSH2 0x176F PUSH2 0x17C0 SWAP9 PUSH2 0x1732 DUP14 PUSH2 0x140 SWAP14 PUSH2 0x2766 JUMP JUMPDEST CALLER PUSH1 0x0 MSTORE PUSH1 0x4 PUSH1 0x20 MSTORE PUSH1 0x40 PUSH1 0x0 KECCAK256 PUSH2 0x174A DUP2 SLOAD PUSH2 0x2531 JUMP JUMPDEST SWAP1 SSTORE PUSH2 0x1761 PUSH1 0x40 MLOAD SWAP14 DUP14 DUP16 SWAP15 DUP16 SWAP1 DUP2 MSTORE ADD SWAP1 PUSH2 0x20AF JUMP JUMPDEST DUP13 DUP2 SUB PUSH1 0x20 DUP15 ADD MSTORE SWAP1 PUSH2 0x20AF JUMP JUMPDEST SWAP1 PUSH1 0x44 CALLDATALOAD PUSH1 0x40 DUP13 ADD MSTORE PUSH1 0x64 CALLDATALOAD PUSH1 0x60 DUP13 ADD MSTORE DUP11 DUP3 SUB PUSH1 0x80 DUP13 ADD MSTORE PUSH2 0x20AF JUMP JUMPDEST SWAP1 PUSH1 0xA4 CALLDATALOAD PUSH1 0xA0 DUP11 ADD MSTORE DUP9 DUP3 SUB PUSH1 0xC0 DUP11 ADD MSTORE PUSH2 0x20AF JUMP JUMPDEST SWAP1 DUP7 DUP3 SUB PUSH1 0xE0 DUP9 ADD MSTORE PUSH2 0x20AF JUMP JUMPDEST SWAP1 DUP5 DUP3 SUB PUSH2 0x100 DUP7 ADD MSTORE PUSH2 0x20AF JUMP JUMPDEST DUP3 DUP2 SUB PUSH2 0x120 DUP5 ADD MSTORE CALLER SWAP6 PUSH2 0x20AF JUMP JUMPDEST SUB SWAP1 LOG2 PUSH1 0x40 PUSH2 0x17E7 DUP2 MLOAD SWAP3 DUP3 DUP5 MSTORE DUP3 DUP5 ADD SWAP1 PUSH2 0x20AF JUMP JUMPDEST PUSH4 0x27B832B7 PUSH1 0xE1 SHL PUSH1 0x20 DUP5 DUP4 SUB SWAP3 DUP4 DUP3 DUP8 ADD MSTORE PUSH1 0x4 DUP2 MSTORE ADD MSTORE ADD SWAP1 LOG1 PUSH1 0x1 PUSH1 0x0 DUP1 MLOAD PUSH1 0x20 PUSH2 0x29E5 DUP4 CODECOPY DUP2 MLOAD SWAP2 MSTORE SSTORE STOP JUMPDEST PUSH4 0x4E487B71 PUSH1 0xE0 SHL PUSH1 0x0 MSTORE PUSH1 0x0 PUSH1 0x4 MSTORE PUSH1 0x24 PUSH1 0x0 REVERT JUMPDEST SWAP2 POP PUSH1 0x20 DUP3 RETURNDATASIZE PUSH1 0x20 GT PUSH2 0x185B JUMPI JUMPDEST DUP2 PUSH2 0x1848 PUSH1 0x20 SWAP4 DUP4 PUSH2 0x1FE5 JUMP JUMPDEST DUP2 ADD SUB SLT PUSH2 0x361 JUMPI SWAP1 MLOAD SWAP1 PUSH2 0x1496 PUSH2 0x1479 JUMP JUMPDEST RETURNDATASIZE SWAP2 POP PUSH2 0x183B JUMP JUMPDEST PUSH1 0x40 MLOAD PUSH3 0x461BCD PUSH1 0xE5 SHL DUP2 MSTORE PUSH1 0x20 PUSH1 0x4 DUP3 ADD MSTORE PUSH1 0xB PUSH1 0x24 DUP3 ADD MSTORE PUSH11 0x496E76616C696420666565 PUSH1 0xA8 SHL PUSH1 0x44 DUP3 ADD MSTORE PUSH1 0x64 SWAP1 REVERT JUMPDEST PUSH4 0x4E487B71 PUSH1 0xE0 SHL PUSH1 0x0 MSTORE PUSH1 0x11 PUSH1 0x4 MSTORE PUSH1 0x24 PUSH1 0x0 REVERT JUMPDEST PUSH1 0x40 MLOAD PUSH3 0x461BCD PUSH1 0xE5 SHL DUP2 MSTORE PUSH1 0x20 PUSH1 0x4 DUP3 ADD MSTORE PUSH1 0x16 PUSH1 0x24 DUP3 ADD MSTORE PUSH22 0x4C6F616E20494420616C726561647920657869737473 PUSH1 0x50 SHL PUSH1 0x44 DUP3 ADD MSTORE PUSH1 0x64 SWAP1 REVERT JUMPDEST PUSH1 0x40 MLOAD PUSH3 0x461BCD PUSH1 0xE5 SHL DUP2 MSTORE PUSH1 0x20 PUSH1 0x4 DUP3 ADD MSTORE PUSH1 0x10 PUSH1 0x24 DUP3 ADD MSTORE PUSH16 0x141D5C9C1BDCD9481C995C5D5A5C9959 PUSH1 0x82 SHL PUSH1 0x44 DUP3 ADD MSTORE PUSH1 0x64 SWAP1 REVERT JUMPDEST PUSH1 0x40 MLOAD PUSH3 0x461BCD PUSH1 0xE5 SHL DUP2 MSTORE PUSH1 0x20 PUSH1 0x4 DUP3 ADD MSTORE PUSH1 0x15 PUSH1 0x24 DUP3 ADD MSTORE PUSH21 0x10DBDB9D1858DD081A5B999BC81C995C5D5A5C9959 PUSH1 0x5A SHL PUSH1 0x44 DUP3 ADD MSTORE PUSH1 0x64 SWAP1 REVERT JUMPDEST PUSH1 0x40 MLOAD PUSH3 0x461BCD PUSH1 0xE5 SHL DUP2 MSTORE PUSH1 0x20 PUSH1 0x4 DUP3 ADD MSTORE PUSH1 0x17 PUSH1 0x24 DUP3 ADD MSTORE PUSH32 0x4C6F616E2049442063616E6E6F7420626520656D707479000000000000000000 PUSH1 0x44 DUP3 ADD MSTORE PUSH1 0x64 SWAP1 REVERT JUMPDEST PUSH1 0x40 MLOAD PUSH3 0x461BCD PUSH1 0xE5 SHL DUP2 MSTORE PUSH1 0x20 PUSH1 0x4 DUP3 ADD MSTORE PUSH1 0x1E PUSH1 0x24 DUP3 ADD MSTORE PUSH32 0x4475726174696F6E206D757374206265203120746F2033363520646179730000 PUSH1 0x44 DUP3 ADD MSTORE PUSH1 0x64 SWAP1 REVERT JUMPDEST POP PUSH4 0x1E13380 PUSH1 0x64 CALLDATALOAD GT ISZERO PUSH2 0x13DD JUMP JUMPDEST PUSH1 0x64 PUSH1 0x40 MLOAD PUSH3 0x461BCD PUSH1 0xE5 SHL DUP2 MSTORE PUSH1 0x20 PUSH1 0x4 DUP3 ADD MSTORE PUSH1 0x20 PUSH1 0x24 DUP3 ADD MSTORE PUSH32 0x416D6F756E74206D7573742062652067726561746572207468616E207A65726F PUSH1 0x44 DUP3 ADD MSTORE REVERT JUMPDEST PUSH1 0x40 CALLDATASIZE PUSH1 0x3 NOT ADD SLT PUSH2 0x361 JUMPI PUSH2 0x1A51 PUSH2 0x2076 JUMP JUMPDEST PUSH1 0x24 CALLDATALOAD PUSH1 0x1 PUSH1 0x1 PUSH1 0x40 SHL SUB DUP2 GT PUSH2 0x361 JUMPI CALLDATASIZE PUSH1 0x23 DUP3 ADD SLT ISZERO PUSH2 0x361 JUMPI PUSH2 0x1A81 SWAP1 CALLDATASIZE SWAP1 PUSH1 0x24 DUP2 PUSH1 0x4 ADD CALLDATALOAD SWAP2 ADD PUSH2 0x2021 JUMP JUMPDEST SWAP1 PUSH1 0x1 PUSH1 0x1 PUSH1 0xA0 SHL SUB PUSH32 0x0 DUP2 AND ADDRESS DUP2 EQ SWAP1 DUP2 ISZERO PUSH2 0x1C3D JUMPI JUMPDEST POP PUSH2 0x12E8 JUMPI PUSH2 0x1AC5 PUSH2 0x286B JUMP JUMPDEST PUSH1 0x40 MLOAD PUSH4 0x52D1902D PUSH1 0xE0 SHL DUP2 MSTORE SWAP1 DUP3 AND SWAP2 PUSH1 0x20 SWAP2 DUP3 DUP2 PUSH1 0x4 DUP2 DUP8 GAS STATICCALL PUSH1 0x0 SWAP2 DUP2 PUSH2 0x1C0E JUMPI JUMPDEST POP PUSH2 0x1B08 JUMPI PUSH1 0x40 MLOAD PUSH4 0x4C9C8CE3 PUSH1 0xE0 SHL DUP2 MSTORE PUSH1 0x4 DUP2 ADD DUP6 SWAP1 MSTORE PUSH1 0x24 SWAP1 REVERT JUMPDEST SWAP3 DUP5 SWAP4 PUSH32 0x360894A13BA1A3210667C828492DB98DCA3E2076CC3735A920A3CA505D382BBC SWAP1 DUP2 DUP2 SUB PUSH2 0x1BF6 JUMPI POP DUP3 EXTCODESIZE ISZERO PUSH2 0x1BDD JUMPI DUP1 SLOAD PUSH1 0x1 PUSH1 0x1 PUSH1 0xA0 SHL SUB NOT AND DUP3 OR SWAP1 SSTORE PUSH1 0x40 MLOAD SWAP1 PUSH32 0xBC7CD75A20EE27FD9ADEBAB32041F755214DBC6BFFA90CC0225B39DA2E5C2D3B PUSH1 0x0 DUP1 LOG2 DUP4 MLOAD ISZERO PUSH2 0x1BC3 JUMPI POP PUSH1 0x0 DUP1 DUP5 DUP5 PUSH2 0x3ED SWAP7 MLOAD SWAP2 ADD DUP5 GAS DELEGATECALL SWAP1 RETURNDATASIZE ISZERO PUSH2 0x1BBA JUMPI RETURNDATASIZE PUSH2 0x1B9D DUP2 PUSH2 0x2006 JUMP JUMPDEST SWAP1 PUSH2 0x1BAB PUSH1 0x40 MLOAD SWAP3 DUP4 PUSH2 0x1FE5 JUMP JUMPDEST DUP2 MSTORE PUSH1 0x0 DUP2 SWAP5 RETURNDATASIZE SWAP3 ADD RETURNDATACOPY PUSH2 0x2941 JUMP JUMPDEST PUSH1 0x60 SWAP3 POP PUSH2 0x2941 JUMP JUMPDEST SWAP3 POP POP POP CALLVALUE PUSH2 0x1BCE JUMPI STOP JUMPDEST PUSH4 0xB398979F PUSH1 0xE0 SHL DUP2 MSTORE PUSH1 0x4 SWAP1 REVERT JUMPDEST PUSH1 0x40 MLOAD PUSH4 0x4C9C8CE3 PUSH1 0xE0 SHL DUP2 MSTORE PUSH1 0x4 DUP2 ADD DUP4 SWAP1 MSTORE PUSH1 0x24 SWAP1 REVERT JUMPDEST PUSH1 0x24 SWAP1 PUSH1 0x40 MLOAD SWAP1 PUSH4 0x2A875269 PUSH1 0xE2 SHL DUP3 MSTORE PUSH1 0x4 DUP3 ADD MSTORE REVERT JUMPDEST SWAP1 SWAP2 POP DUP4 DUP2 DUP2 RETURNDATASIZE DUP4 GT PUSH2 0x1C36 JUMPI JUMPDEST PUSH2 0x1C26 DUP2 DUP4 PUSH2 0x1FE5 JUMP JUMPDEST DUP2 ADD SUB SLT PUSH2 0x361 JUMPI MLOAD SWAP1 DUP7 PUSH2 0x1AEA JUMP JUMPDEST POP RETURNDATASIZE PUSH2 0x1C1C JUMP JUMPDEST SWAP1 POP DUP2 PUSH32 0x360894A13BA1A3210667C828492DB98DCA3E2076CC3735A920A3CA505D382BBC SLOAD AND EQ ISZERO DUP5 PUSH2 0x1AB8 JUMP JUMPDEST CALLVALUE PUSH2 0x361 JUMPI PUSH1 0x0 CALLDATASIZE PUSH1 0x3 NOT ADD SLT PUSH2 0x361 JUMPI PUSH1 0x0 SLOAD PUSH1 0x40 MLOAD PUSH1 0x1 PUSH1 0x1 PUSH1 0xA0 SHL SUB SWAP1 SWAP2 AND DUP2 MSTORE PUSH1 0x20 SWAP1 RETURN JUMPDEST CALLVALUE PUSH2 0x361 JUMPI PUSH1 0x0 CALLDATASIZE PUSH1 0x3 NOT ADD SLT PUSH2 0x361 JUMPI PUSH1 0x20 PUSH1 0x40 MLOAD PUSH2 0x1A4 DUP2 MSTORE RETURN JUMPDEST CALLVALUE PUSH2 0x361 JUMPI PUSH1 0x20 CALLDATASIZE PUSH1 0x3 NOT ADD SLT PUSH2 0x361 JUMPI PUSH1 0x1 PUSH1 0x1 PUSH1 0xA0 SHL SUB PUSH2 0x1CD2 PUSH2 0x2076 JUMP JUMPDEST AND PUSH1 0x0 MSTORE PUSH1 0x5 PUSH1 0x20 MSTORE PUSH1 0x20 PUSH1 0x40 PUSH1 0x0 KECCAK256 SLOAD PUSH1 0x40 MLOAD SWAP1 DUP2 MSTORE RETURN JUMPDEST CALLVALUE PUSH2 0x361 JUMPI PUSH1 0x0 CALLDATASIZE PUSH1 0x3 NOT ADD SLT PUSH2 0x361 JUMPI PUSH1 0x20 PUSH1 0x40 MLOAD PUSH4 0x1E13380 DUP2 MSTORE RETURN JUMPDEST CALLVALUE PUSH2 0x361 JUMPI PUSH1 0x20 DUP1 PUSH1 0x3 NOT CALLDATASIZE ADD SLT PUSH2 0x361 JUMPI PUSH1 0x4 CALLDATALOAD PUSH1 0x1 PUSH1 0x1 PUSH1 0x40 SHL SUB DUP2 GT PUSH2 0x361 JUMPI PUSH2 0x1D3B SWAP1 CALLDATASIZE SWAP1 PUSH1 0x4 ADD PUSH2 0x2058 JUMP JUMPDEST PUSH2 0x1D43 PUSH2 0x26DE JUMP JUMPDEST PUSH1 0x40 MLOAD SWAP2 DUP2 MLOAD SWAP3 DUP2 DUP2 DUP2 DUP6 ADD SWAP6 PUSH2 0x1D5B DUP2 DUP4 DUP10 PUSH2 0x208C JUMP JUMPDEST DUP2 ADD PUSH1 0x1 DUP2 MSTORE SUB ADD SWAP1 KECCAK256 PUSH1 0x5 DUP2 ADD SWAP1 PUSH2 0x1D77 PUSH1 0xFF DUP4 SLOAD AND PUSH2 0x2396 JUMP JUMPDEST PUSH1 0x1 DUP2 ADD SLOAD PUSH1 0x1 PUSH1 0x1 PUSH1 0xA0 SHL SUB SWAP1 DUP2 AND CALLER SUB PUSH2 0x1F69 JUMPI PUSH1 0xA DUP3 ADD SWAP3 PUSH2 0x1DAA PUSH1 0x40 MLOAD DUP7 DUP2 ADD SWAP1 PUSH2 0x6B7 DUP2 PUSH2 0x1BE DUP5 DUP11 PUSH2 0x23D7 JUMP JUMPDEST PUSH1 0x3 DUP4 ADD SWAP2 DUP3 SLOAD SWAP4 PUSH2 0x1A4 DUP1 DUP7 MUL DUP7 DUP2 DIV DUP3 EQ DUP8 ISZERO OR ISZERO PUSH2 0x1896 JUMPI PUSH1 0x4 DUP4 ADD SLOAD SWAP2 DUP3 DUP9 MUL MUL SWAP2 DUP2 DUP4 DIV EQ SWAP1 ISZERO OR ISZERO PUSH2 0x1896 JUMPI PUSH5 0x496CEBB800 PUSH2 0x1DEE SWAP2 DIV DUP1 SWAP7 PUSH2 0x2499 JUMP JUMPDEST SWAP2 DUP1 PUSH1 0x0 SLOAD AND SWAP1 PUSH1 0x40 MLOAD PUSH4 0x70A08231 PUSH1 0xE0 SHL DUP2 MSTORE CALLER PUSH1 0x4 DUP3 ADD MSTORE DUP10 DUP2 PUSH1 0x24 DUP2 DUP7 GAS STATICCALL SWAP1 DUP2 ISZERO PUSH2 0x36D JUMPI PUSH1 0x0 SWAP2 PUSH2 0x1F16 JUMPI JUMPDEST POP SWAP9 PUSH1 0x0 DUP1 MLOAD PUSH1 0x20 PUSH2 0x29A5 DUP4 CODECOPY DUP2 MLOAD SWAP2 MSTORE SWAP12 DUP6 PUSH1 0xF PUSH32 0x3B62CC4E086A894A6C745362B81DB744E8DD91AF3EDDCCB44143E1F47EC952D0 SWAP9 SWAP7 PUSH2 0x1E83 DUP4 PUSH1 0x40 SWAP16 SWAP9 DUP8 SWAP16 SWAP15 SWAP14 SWAP12 SWAP10 SWAP9 PUSH2 0x1E75 DUP4 PUSH2 0x1E96 SWAP12 LT ISZERO PUSH2 0x24A6 JUMP JUMPDEST PUSH1 0xE DUP6 ADD SLOAD AND SWAP1 CALLER SWAP1 PUSH2 0x270E JUMP JUMPDEST ADD SSTORE DUP12 DUP12 MLOAD SWAP4 DUP5 SWAP3 DUP4 SWAP3 MLOAD SWAP3 DUP4 SWAP2 PUSH2 0x208C JUMP JUMPDEST DUP2 ADD PUSH1 0x6 DUP2 MSTORE SUB ADD SWAP1 KECCAK256 SSTORE PUSH2 0x1EAE PUSH2 0x26B DUP7 SLOAD PUSH2 0x2244 JUMP JUMPDEST PUSH6 0x14995C185A59 PUSH1 0xD2 SHL SWAP5 PUSH1 0xC DUP7 ADD SWAP1 SSTORE PUSH1 0xFF NOT DUP2 SLOAD AND SWAP1 SSTORE CALLER PUSH1 0x0 MSTORE PUSH1 0x5 DUP6 MSTORE DUP6 PUSH1 0x0 KECCAK256 PUSH2 0x1EDD DUP2 SLOAD PUSH2 0x2531 JUMP JUMPDEST SWAP1 SSTORE SLOAD SWAP2 DUP6 MLOAD SWAP1 PUSH1 0x60 DUP3 MSTORE PUSH2 0x1EF5 PUSH1 0x60 DUP4 ADD DUP10 PUSH2 0x20AF JUMP JUMPDEST SWAP4 DUP7 DUP4 ADD MSTORE DUP7 DUP3 ADD MSTORE DUP1 CALLER SWAP4 SUB SWAP1 LOG2 PUSH2 0x2FC DUP4 MLOAD SWAP5 DUP5 DUP7 MSTORE DUP5 DUP7 ADD SWAP1 PUSH2 0x20AF JUMP JUMPDEST SWAP10 DUP1 SWAP10 SWAP9 SWAP8 SWAP6 SWAP4 SWAP7 SWAP5 SWAP3 SWAP2 POP DUP11 DUP2 RETURNDATASIZE DUP4 GT PUSH2 0x1F62 JUMPI JUMPDEST PUSH2 0x1F36 DUP2 DUP4 PUSH2 0x1FE5 JUMP JUMPDEST DUP2 ADD SUB SLT PUSH2 0x361 JUMPI SWAP9 MLOAD SWAP8 SWAP9 SWAP7 SWAP8 SWAP6 SWAP7 SWAP4 SWAP6 SWAP3 SWAP5 SWAP2 SWAP4 SWAP1 SWAP3 PUSH1 0x0 DUP1 MLOAD PUSH1 0x20 PUSH2 0x29A5 DUP4 CODECOPY DUP2 MLOAD SWAP2 MSTORE PUSH2 0x1E1F JUMP JUMPDEST POP RETURNDATASIZE PUSH2 0x1F2C JUMP JUMPDEST PUSH1 0x40 MLOAD PUSH3 0x461BCD PUSH1 0xE5 SHL DUP2 MSTORE PUSH1 0x4 DUP2 ADD DUP6 SWAP1 MSTORE PUSH1 0x17 PUSH1 0x24 DUP3 ADD MSTORE PUSH32 0x4F6E6C7920626F72726F7765722063616E207265706179000000000000000000 PUSH1 0x44 DUP3 ADD MSTORE PUSH1 0x64 SWAP1 REVERT JUMPDEST PUSH2 0x200 DUP2 ADD SWAP1 DUP2 LT PUSH1 0x1 PUSH1 0x1 PUSH1 0x40 SHL SUB DUP3 GT OR PUSH2 0xAE6 JUMPI PUSH1 0x40 MSTORE JUMP JUMPDEST PUSH1 0x40 DUP2 ADD SWAP1 DUP2 LT PUSH1 0x1 PUSH1 0x1 PUSH1 0x40 SHL SUB DUP3 GT OR PUSH2 0xAE6 JUMPI PUSH1 0x40 MSTORE JUMP JUMPDEST SWAP1 PUSH1 0x1F DUP1 NOT SWAP2 ADD AND DUP2 ADD SWAP1 DUP2 LT PUSH1 0x1 PUSH1 0x1 PUSH1 0x40 SHL SUB DUP3 GT OR PUSH2 0xAE6 JUMPI PUSH1 0x40 MSTORE JUMP JUMPDEST PUSH1 0x1 PUSH1 0x1 PUSH1 0x40 SHL SUB DUP2 GT PUSH2 0xAE6 JUMPI PUSH1 0x1F ADD PUSH1 0x1F NOT AND PUSH1 0x20 ADD SWAP1 JUMP JUMPDEST SWAP3 SWAP2 SWAP3 PUSH2 0x202D DUP3 PUSH2 0x2006 JUMP JUMPDEST SWAP2 PUSH2 0x203B PUSH1 0x40 MLOAD SWAP4 DUP5 PUSH2 0x1FE5 JUMP JUMPDEST DUP3 SWAP5 DUP2 DUP5 MSTORE DUP2 DUP4 ADD GT PUSH2 0x361 JUMPI DUP3 DUP2 PUSH1 0x20 SWAP4 DUP5 PUSH1 0x0 SWAP7 ADD CALLDATACOPY ADD ADD MSTORE JUMP JUMPDEST SWAP1 DUP1 PUSH1 0x1F DUP4 ADD SLT ISZERO PUSH2 0x361 JUMPI DUP2 PUSH1 0x20 PUSH2 0x2073 SWAP4 CALLDATALOAD SWAP2 ADD PUSH2 0x2021 JUMP JUMPDEST SWAP1 JUMP JUMPDEST PUSH1 0x4 CALLDATALOAD SWAP1 PUSH1 0x1 PUSH1 0x1 PUSH1 0xA0 SHL SUB DUP3 AND DUP3 SUB PUSH2 0x361 JUMPI JUMP JUMPDEST PUSH1 0x0 JUMPDEST DUP4 DUP2 LT PUSH2 0x209F JUMPI POP POP PUSH1 0x0 SWAP2 ADD MSTORE JUMP JUMPDEST DUP2 DUP2 ADD MLOAD DUP4 DUP3 ADD MSTORE PUSH1 0x20 ADD PUSH2 0x208F JUMP JUMPDEST SWAP1 PUSH1 0x20 SWAP2 PUSH2 0x20C8 DUP2 MLOAD DUP1 SWAP3 DUP2 DUP6 MSTORE DUP6 DUP1 DUP7 ADD SWAP2 ADD PUSH2 0x208C JUMP JUMPDEST PUSH1 0x1F ADD PUSH1 0x1F NOT AND ADD ADD SWAP1 JUMP JUMPDEST PUSH1 0x20 DUP1 DUP3 ADD SWAP1 DUP1 DUP4 MSTORE DUP4 MLOAD DUP1 SWAP3 MSTORE PUSH1 0x40 SWAP3 PUSH1 0x40 DUP2 ADD DUP3 PUSH1 0x40 DUP6 PUSH1 0x5 SHL DUP5 ADD ADD SWAP7 ADD SWAP5 PUSH1 0x0 SWAP3 JUMPDEST DUP6 DUP5 LT PUSH2 0x210B JUMPI POP POP POP POP POP POP POP SWAP1 JUMP JUMPDEST SWAP1 SWAP2 SWAP3 SWAP4 SWAP5 SWAP6 SWAP7 DUP6 DUP1 DUP5 PUSH1 0x1 SWAP4 PUSH1 0x3F NOT DUP7 DUP3 SUB ADD DUP9 MSTORE DUP12 MLOAD PUSH2 0x221B PUSH2 0x2207 PUSH2 0x21F3 PUSH2 0x21DF PUSH2 0x21CB PUSH2 0x21A2 PUSH2 0x216F PUSH2 0x214C PUSH2 0x200 DUP10 MLOAD SWAP1 DUP1 DUP13 MSTORE DUP12 ADD SWAP1 PUSH2 0x20AF JUMP JUMPDEST DUP12 DUP10 ADD MLOAD SWAP11 DUP15 DUP1 PUSH1 0xA0 SHL SUB DUP1 SWAP13 AND DUP14 DUP13 ADD MSTORE DUP1 DUP11 ADD MLOAD SWAP1 DUP12 DUP4 SUB SWAP1 DUP13 ADD MSTORE PUSH2 0x20AF JUMP JUMPDEST PUSH1 0x60 DUP1 DUP10 ADD MLOAD SWAP1 DUP11 ADD MSTORE PUSH1 0x80 DUP1 DUP10 ADD MLOAD SWAP1 DUP11 ADD MSTORE PUSH1 0xA0 DUP1 DUP10 ADD MLOAD ISZERO ISZERO SWAP1 DUP11 ADD MSTORE PUSH1 0xC0 DUP1 DUP10 ADD MLOAD SWAP1 DUP11 DUP4 SUB SWAP1 DUP12 ADD MSTORE PUSH2 0x20AF JUMP JUMPDEST PUSH1 0xE0 DUP1 DUP9 ADD MLOAD SWAP1 DUP10 ADD MSTORE PUSH2 0x100 DUP1 DUP9 ADD MLOAD SWAP1 DUP10 ADD MSTORE PUSH2 0x120 DUP1 DUP9 ADD MLOAD SWAP1 DUP10 DUP4 SUB SWAP1 DUP11 ADD MSTORE PUSH2 0x20AF JUMP JUMPDEST PUSH2 0x140 DUP1 DUP8 ADD MLOAD SWAP1 DUP9 DUP4 SUB SWAP1 DUP10 ADD MSTORE PUSH2 0x20AF JUMP JUMPDEST PUSH2 0x160 DUP1 DUP7 ADD MLOAD SWAP1 DUP8 DUP4 SUB SWAP1 DUP9 ADD MSTORE PUSH2 0x20AF JUMP JUMPDEST PUSH2 0x180 DUP1 DUP6 ADD MLOAD SWAP1 DUP7 DUP4 SUB SWAP1 DUP8 ADD MSTORE PUSH2 0x20AF JUMP JUMPDEST PUSH2 0x1A0 DUP1 DUP5 ADD MLOAD SWAP1 DUP6 DUP4 SUB SWAP1 DUP7 ADD MSTORE PUSH2 0x20AF JUMP JUMPDEST SWAP3 PUSH2 0x1C0 SWAP1 DUP2 DUP4 ADD MLOAD AND SWAP1 DUP4 ADD MSTORE PUSH2 0x1E0 DUP1 SWAP2 ADD MLOAD SWAP2 ADD MSTORE SWAP10 ADD SWAP5 ADD SWAP5 ADD SWAP3 SWAP6 SWAP5 SWAP4 SWAP2 SWAP1 PUSH2 0x20FA JUMP JUMPDEST SWAP1 PUSH1 0x1 DUP3 DUP2 SHR SWAP3 AND DUP1 ISZERO PUSH2 0x2274 JUMPI JUMPDEST PUSH1 0x20 DUP4 LT EQ PUSH2 0x225E JUMPI JUMP JUMPDEST PUSH4 0x4E487B71 PUSH1 0xE0 SHL PUSH1 0x0 MSTORE PUSH1 0x22 PUSH1 0x4 MSTORE PUSH1 0x24 PUSH1 0x0 REVERT JUMPDEST SWAP2 PUSH1 0x7F AND SWAP2 PUSH2 0x2253 JUMP JUMPDEST SWAP1 PUSH1 0x40 MLOAD SWAP2 DUP3 PUSH1 0x0 DUP3 SLOAD PUSH2 0x2291 DUP2 PUSH2 0x2244 JUMP JUMPDEST SWAP1 DUP2 DUP5 MSTORE PUSH1 0x20 SWAP5 PUSH1 0x1 SWAP2 PUSH1 0x1 DUP2 AND SWAP1 DUP2 PUSH1 0x0 EQ PUSH2 0x2301 JUMPI POP PUSH1 0x1 EQ PUSH2 0x22C2 JUMPI JUMPDEST POP POP POP PUSH2 0x22C0 SWAP3 POP SUB DUP4 PUSH2 0x1FE5 JUMP JUMPDEST JUMP JUMPDEST PUSH1 0x0 SWAP1 DUP2 MSTORE DUP6 DUP2 KECCAK256 SWAP6 SWAP4 POP SWAP2 SWAP1 JUMPDEST DUP2 DUP4 LT PUSH2 0x22E9 JUMPI POP POP PUSH2 0x22C0 SWAP4 POP DUP3 ADD ADD CODESIZE DUP1 DUP1 PUSH2 0x22B1 JUMP JUMPDEST DUP6 SLOAD DUP9 DUP5 ADD DUP6 ADD MSTORE SWAP5 DUP6 ADD SWAP5 DUP8 SWAP5 POP SWAP2 DUP4 ADD SWAP2 PUSH2 0x22D0 JUMP JUMPDEST SWAP3 POP POP POP PUSH2 0x22C0 SWAP5 SWAP3 POP PUSH1 0xFF NOT AND DUP3 DUP5 ADD MSTORE ISZERO ISZERO PUSH1 0x5 SHL DUP3 ADD ADD CODESIZE DUP1 DUP1 PUSH2 0x22B1 JUMP JUMPDEST PUSH1 0x2 SLOAD DUP2 LT ISZERO PUSH2 0x235A JUMPI PUSH1 0x2 PUSH1 0x0 MSTORE PUSH32 0x405787FA12A823E0F2B7631CC41B3BA8828B3321CA811111FA75CD3AA3BB5ACE ADD SWAP1 PUSH1 0x0 SWAP1 JUMP JUMPDEST PUSH4 0x4E487B71 PUSH1 0xE0 SHL PUSH1 0x0 MSTORE PUSH1 0x32 PUSH1 0x4 MSTORE PUSH1 0x24 PUSH1 0x0 REVERT JUMPDEST DUP1 SLOAD DUP3 LT ISZERO PUSH2 0x235A JUMPI PUSH1 0x0 MSTORE PUSH1 0x20 PUSH1 0x0 KECCAK256 ADD SWAP1 PUSH1 0x0 SWAP1 JUMP JUMPDEST SWAP1 PUSH2 0x1817 JUMPI PUSH2 0x2073 SWAP1 PUSH2 0x227E JUMP JUMPDEST ISZERO PUSH2 0x239D JUMPI JUMP JUMPDEST PUSH1 0x40 MLOAD PUSH3 0x461BCD PUSH1 0xE5 SHL DUP2 MSTORE PUSH1 0x20 PUSH1 0x4 DUP3 ADD MSTORE PUSH1 0x12 PUSH1 0x24 DUP3 ADD MSTORE PUSH18 0x4C6F616E206973206E6F7420616374697665 PUSH1 0x70 SHL PUSH1 0x44 DUP3 ADD MSTORE PUSH1 0x64 SWAP1 REVERT JUMPDEST PUSH1 0x0 SWAP3 SWAP2 DUP2 SLOAD PUSH2 0x23E6 DUP2 PUSH2 0x2244 JUMP JUMPDEST SWAP3 PUSH1 0x1 SWAP2 DUP1 DUP4 AND SWAP1 DUP2 ISZERO PUSH2 0x2440 JUMPI POP PUSH1 0x1 EQ PUSH2 0x2403 JUMPI JUMPDEST POP POP POP POP JUMP JUMPDEST SWAP1 SWAP2 SWAP3 SWAP4 SWAP5 POP PUSH1 0x0 MSTORE PUSH1 0x20 SWAP1 PUSH1 0x20 PUSH1 0x0 KECCAK256 SWAP1 PUSH1 0x0 SWAP2 JUMPDEST DUP6 DUP4 LT PUSH2 0x242F JUMPI POP POP POP POP ADD SWAP1 CODESIZE DUP1 DUP1 DUP1 PUSH2 0x23FD JUMP JUMPDEST DUP1 SLOAD DUP6 DUP5 ADD MSTORE SWAP2 DUP4 ADD SWAP2 DUP2 ADD PUSH2 0x2419 JUMP JUMPDEST PUSH1 0xFF NOT AND DUP5 MSTORE POP POP POP DUP2 ISZERO ISZERO SWAP1 SWAP2 MUL ADD SWAP2 POP CODESIZE DUP1 DUP1 DUP1 PUSH2 0x23FD JUMP JUMPDEST ISZERO PUSH2 0x2462 JUMPI JUMP JUMPDEST PUSH1 0x40 MLOAD PUSH3 0x461BCD PUSH1 0xE5 SHL DUP2 MSTORE PUSH1 0x20 PUSH1 0x4 DUP3 ADD MSTORE PUSH1 0xF PUSH1 0x24 DUP3 ADD MSTORE PUSH15 0x131BD85B881B9BDD08199D5B991959 PUSH1 0x8A SHL PUSH1 0x44 DUP3 ADD MSTORE PUSH1 0x64 SWAP1 REVERT JUMPDEST SWAP2 SWAP1 DUP3 ADD DUP1 SWAP3 GT PUSH2 0x1896 JUMPI JUMP JUMPDEST ISZERO PUSH2 0x24AD JUMPI JUMP JUMPDEST PUSH1 0x40 MLOAD PUSH3 0x461BCD PUSH1 0xE5 SHL DUP2 MSTORE PUSH1 0x20 PUSH1 0x4 DUP3 ADD MSTORE PUSH1 0x1A PUSH1 0x24 DUP3 ADD MSTORE PUSH32 0x496E73756666696369656E7420574545444C2062616C616E6365000000000000 PUSH1 0x44 DUP3 ADD MSTORE PUSH1 0x64 SWAP1 REVERT JUMPDEST DUP2 DUP2 LT PUSH2 0x24FD JUMPI POP POP JUMP JUMPDEST PUSH1 0x0 DUP2 SSTORE PUSH1 0x1 ADD PUSH2 0x24F2 JUMP JUMPDEST SWAP1 PUSH1 0x1F DUP2 GT PUSH2 0x2516 JUMPI POP POP JUMP JUMPDEST PUSH2 0x22C0 SWAP2 PUSH1 0x0 MSTORE PUSH1 0x1F PUSH1 0x20 PUSH1 0x0 KECCAK256 SWAP2 ADD PUSH1 0x5 SHR DUP2 ADD SWAP1 PUSH2 0x24F2 JUMP JUMPDEST PUSH1 0x0 NOT DUP2 EQ PUSH2 0x1896 JUMPI PUSH1 0x1 ADD SWAP1 JUMP JUMPDEST PUSH1 0x1 PUSH1 0x1 PUSH1 0x40 SHL SUB DUP2 GT PUSH2 0xAE6 JUMPI PUSH1 0x5 SHL PUSH1 0x20 ADD SWAP1 JUMP JUMPDEST SWAP1 PUSH2 0x2561 DUP3 PUSH2 0x2540 JUMP JUMPDEST PUSH1 0x40 SWAP1 PUSH2 0x2571 PUSH1 0x40 MLOAD SWAP2 DUP3 PUSH2 0x1FE5 JUMP JUMPDEST DUP4 DUP2 MSTORE DUP1 SWAP4 PUSH2 0x2582 PUSH1 0x1F NOT SWAP2 PUSH2 0x2540 JUMP JUMPDEST ADD SWAP2 PUSH1 0x0 JUMPDEST DUP4 DUP2 LT PUSH2 0x2594 JUMPI POP POP POP POP JUMP JUMPDEST PUSH1 0x20 SWAP1 DUP3 MLOAD PUSH2 0x25A2 DUP2 PUSH2 0x1FAE JUMP JUMPDEST PUSH1 0x60 DUP1 DUP3 MSTORE DUP4 SWAP1 PUSH1 0x0 DUP3 DUP5 ADD MSTORE DUP1 DUP7 DUP5 ADD MSTORE PUSH1 0x0 DUP2 DUP5 ADD MSTORE PUSH1 0x0 PUSH1 0x80 DUP5 ADD MSTORE PUSH1 0x0 PUSH1 0xA0 DUP5 ADD MSTORE DUP1 PUSH1 0xC0 DUP5 ADD MSTORE PUSH1 0x0 PUSH1 0xE0 DUP5 ADD MSTORE PUSH1 0x0 PUSH2 0x100 DUP5 ADD MSTORE DUP1 PUSH2 0x120 DUP5 ADD MSTORE DUP1 PUSH2 0x140 DUP5 ADD MSTORE DUP1 PUSH2 0x160 DUP5 ADD MSTORE DUP1 PUSH2 0x180 DUP5 ADD MSTORE PUSH2 0x1A0 DUP4 ADD MSTORE PUSH1 0x0 PUSH2 0x1C0 DUP4 ADD MSTORE PUSH1 0x0 PUSH2 0x1E0 DUP4 ADD MSTORE DUP3 DUP7 ADD ADD MSTORE ADD PUSH2 0x2587 JUMP JUMPDEST DUP1 MLOAD DUP3 LT ISZERO PUSH2 0x235A JUMPI PUSH1 0x20 SWAP2 PUSH1 0x5 SHL ADD ADD SWAP1 JUMP JUMPDEST ISZERO PUSH2 0x2635 JUMPI JUMP JUMPDEST PUSH1 0x40 MLOAD PUSH3 0x461BCD PUSH1 0xE5 SHL DUP2 MSTORE PUSH1 0x20 PUSH1 0x4 DUP3 ADD MSTORE PUSH1 0xD PUSH1 0x24 DUP3 ADD MSTORE PUSH13 0x2637B0B7103737BA1037B832B7 PUSH1 0x99 SHL PUSH1 0x44 DUP3 ADD MSTORE PUSH1 0x64 SWAP1 REVERT JUMPDEST PUSH1 0x1 PUSH1 0x1 PUSH1 0xA0 SHL SUB SWAP1 DUP2 AND SWAP1 DUP2 ISZERO PUSH2 0x26C5 JUMPI PUSH1 0x0 DUP1 MLOAD PUSH1 0x20 PUSH2 0x29C5 DUP4 CODECOPY DUP2 MLOAD SWAP2 MSTORE DUP1 SLOAD PUSH1 0x1 PUSH1 0x1 PUSH1 0xA0 SHL SUB NOT DUP2 AND DUP5 OR SWAP1 SWAP2 SSTORE AND PUSH32 0x8BE0079C531659141344CD1FD0A4F28419497F9722A3DAAFE3B4186F6B6457E0 PUSH1 0x0 DUP1 LOG3 JUMP JUMPDEST PUSH1 0x40 MLOAD PUSH4 0x1E4FBDF7 PUSH1 0xE0 SHL DUP2 MSTORE PUSH1 0x0 PUSH1 0x4 DUP3 ADD MSTORE PUSH1 0x24 SWAP1 REVERT JUMPDEST PUSH1 0x0 DUP1 MLOAD PUSH1 0x20 PUSH2 0x29E5 DUP4 CODECOPY DUP2 MLOAD SWAP2 MSTORE PUSH1 0x2 DUP2 SLOAD EQ PUSH2 0x26FC JUMPI PUSH1 0x2 SWAP1 SSTORE JUMP JUMPDEST PUSH1 0x40 MLOAD PUSH4 0x3EE5AEB5 PUSH1 0xE0 SHL DUP2 MSTORE PUSH1 0x4 SWAP1 REVERT JUMPDEST PUSH1 0x40 MLOAD PUSH4 0x23B872DD PUSH1 0xE0 SHL PUSH1 0x20 DUP3 ADD MSTORE PUSH1 0x1 PUSH1 0x1 PUSH1 0xA0 SHL SUB SWAP3 DUP4 AND PUSH1 0x24 DUP3 ADD MSTORE SWAP3 SWAP1 SWAP2 AND PUSH1 0x44 DUP4 ADD MSTORE PUSH1 0x64 DUP1 DUP4 ADD SWAP4 SWAP1 SWAP4 MSTORE SWAP2 DUP2 MSTORE PUSH1 0xA0 DUP2 ADD SWAP2 DUP2 DUP4 LT PUSH1 0x1 PUSH1 0x1 PUSH1 0x40 SHL SUB DUP5 GT OR PUSH2 0xAE6 JUMPI PUSH2 0x22C0 SWAP3 PUSH1 0x40 MSTORE PUSH2 0x28A4 JUMP JUMPDEST SWAP2 SWAP1 SWAP2 DUP3 MLOAD PUSH1 0x1 PUSH1 0x1 PUSH1 0x40 SHL SUB DUP2 GT PUSH2 0xAE6 JUMPI PUSH2 0x2783 DUP3 SLOAD PUSH2 0x2244 JUMP JUMPDEST PUSH1 0x1F DUP2 GT PUSH2 0x282E JUMPI JUMPDEST POP PUSH1 0x20 DUP1 PUSH1 0x1F DUP4 GT PUSH1 0x1 EQ PUSH2 0x27C9 JUMPI POP DUP2 SWAP3 SWAP4 SWAP5 PUSH1 0x0 SWAP3 PUSH2 0x27BE JUMPI JUMPDEST POP POP DUP2 PUSH1 0x1 SHL SWAP2 PUSH1 0x0 NOT SWAP1 PUSH1 0x3 SHL SHR NOT AND OR SWAP1 SSTORE JUMP JUMPDEST ADD MLOAD SWAP1 POP CODESIZE DUP1 PUSH2 0x27A8 JUMP JUMPDEST SWAP1 PUSH1 0x1F NOT DUP4 AND SWAP6 DUP5 PUSH1 0x0 MSTORE PUSH1 0x20 PUSH1 0x0 KECCAK256 SWAP3 PUSH1 0x0 SWAP1 JUMPDEST DUP9 DUP3 LT PUSH2 0x2816 JUMPI POP POP DUP4 PUSH1 0x1 SWAP6 SWAP7 SWAP8 LT PUSH2 0x27FD JUMPI JUMPDEST POP POP POP DUP2 SHL ADD SWAP1 SSTORE JUMP JUMPDEST ADD MLOAD PUSH1 0x0 NOT PUSH1 0xF8 DUP5 PUSH1 0x3 SHL AND SHR NOT AND SWAP1 SSTORE CODESIZE DUP1 DUP1 PUSH2 0x27F3 JUMP JUMPDEST DUP1 PUSH1 0x1 DUP6 SWAP7 DUP3 SWAP5 SWAP7 DUP7 ADD MLOAD DUP2 SSTORE ADD SWAP6 ADD SWAP4 ADD SWAP1 PUSH2 0x27DE JUMP JUMPDEST PUSH2 0x285B SWAP1 DUP4 PUSH1 0x0 MSTORE PUSH1 0x20 PUSH1 0x0 KECCAK256 PUSH1 0x1F DUP5 ADD PUSH1 0x5 SHR DUP2 ADD SWAP2 PUSH1 0x20 DUP6 LT PUSH2 0x2861 JUMPI JUMPDEST PUSH1 0x1F ADD PUSH1 0x5 SHR ADD SWAP1 PUSH2 0x24F2 JUMP JUMPDEST CODESIZE PUSH2 0x278C JUMP JUMPDEST SWAP1 SWAP2 POP DUP2 SWAP1 PUSH2 0x284E JUMP JUMPDEST PUSH1 0x0 DUP1 MLOAD PUSH1 0x20 PUSH2 0x29C5 DUP4 CODECOPY DUP2 MLOAD SWAP2 MSTORE SLOAD PUSH1 0x1 PUSH1 0x1 PUSH1 0xA0 SHL SUB AND CALLER SUB PUSH2 0x288C JUMPI JUMP JUMPDEST PUSH1 0x40 MLOAD PUSH4 0x118CDAA7 PUSH1 0xE0 SHL DUP2 MSTORE CALLER PUSH1 0x4 DUP3 ADD MSTORE PUSH1 0x24 SWAP1 REVERT JUMPDEST SWAP1 PUSH1 0x0 PUSH1 0x20 SWAP2 DUP3 DUP2 MLOAD SWAP2 ADD DUP3 DUP6 GAS CALL ISZERO PUSH2 0x36D JUMPI PUSH1 0x0 MLOAD RETURNDATASIZE PUSH2 0x28F7 JUMPI POP PUSH1 0x1 PUSH1 0x1 PUSH1 0xA0 SHL SUB DUP2 AND EXTCODESIZE ISZERO JUMPDEST PUSH2 0x28D5 JUMPI POP JUMP JUMPDEST PUSH1 0x40 MLOAD PUSH4 0x5274AFE7 PUSH1 0xE0 SHL DUP2 MSTORE PUSH1 0x1 PUSH1 0x1 PUSH1 0xA0 SHL SUB SWAP1 SWAP2 AND PUSH1 0x4 DUP3 ADD MSTORE PUSH1 0x24 SWAP1 REVERT JUMPDEST PUSH1 0x1 EQ ISZERO PUSH2 0x28CE JUMP JUMPDEST PUSH1 0xFF PUSH32 0xF0C57E16840DF040F15088DC2F81FE391C3923BEC73E23A9662EFC9C229C6A00 SLOAD PUSH1 0x40 SHR AND ISZERO PUSH2 0x292F JUMPI JUMP JUMPDEST PUSH1 0x40 MLOAD PUSH4 0x1AFCD79F PUSH1 0xE3 SHL DUP2 MSTORE PUSH1 0x4 SWAP1 REVERT JUMPDEST SWAP1 PUSH2 0x2968 JUMPI POP DUP1 MLOAD ISZERO PUSH2 0x2956 JUMPI DUP1 MLOAD SWAP1 PUSH1 0x20 ADD REVERT JUMPDEST PUSH1 0x40 MLOAD PUSH4 0xD6BDA275 PUSH1 0xE0 SHL DUP2 MSTORE PUSH1 0x4 SWAP1 REVERT JUMPDEST DUP2 MLOAD ISZERO DUP1 PUSH2 0x299B JUMPI JUMPDEST PUSH2 0x2979 JUMPI POP SWAP1 JUMP JUMPDEST PUSH1 0x40 MLOAD PUSH4 0x9996B315 PUSH1 0xE0 SHL DUP2 MSTORE PUSH1 0x1 PUSH1 0x1 PUSH1 0xA0 SHL SUB SWAP1 SWAP2 AND PUSH1 0x4 DUP3 ADD MSTORE PUSH1 0x24 SWAP1 REVERT JUMPDEST POP DUP1 EXTCODESIZE ISZERO PUSH2 0x2971 JUMP INVALID DUP11 PUSH28 0xE6B6D998757CDE134D68C5BC04568DBFD09AEDA7C427B92E33650217 EXTCODEHASH LOG4 SWAP1 AND 0xD0 SWAP14 PUSH19 0xD40FDAE2FD8CEAC6B6234C7706214FD39C1CD1 0xE6 MULMOD LOG0 MSTORE DUP13 NOT SWAP4 STOP SWAP12 PUSH24 0x9B17422D0DF92223018B32B4D1FA46E071723D6817E2486D STOP EXTCODESIZE 0xEC 0xC5 PUSH0 STOP LOG2 PUSH5 0x6970667358 0x22 SLT KECCAK256 0xF PUSH6 0x90544C888A68 0xBC 0x5C GASLIMIT PUSH1 0xF7 BLOCKHASH RETURNDATACOPY 0xCC SHR 0xB6 0xE4 PUSH18 0xD6F90306C4E8E766E27762C964736F6C6343 STOP ADDMOD AND STOP CALLER "},"methodIdentifiers":{"FEE_BASIS_POINTS()":"a525ad3c","INTEREST_RATE_BASIS_POINTS()":"19398a9a","MAX_LOAN_DURATION()":"0d0b2ca6","UPGRADE_INTERFACE_VERSION()":"ad3cb1cc","borrowerLoanCount(address)":"c71230bf","borrowerLoans(address,uint256)":"e3ed1902","borrowerRepaidCount(address)":"0e02faa8","cancelLoan(string)":"c70f2e2b","claimCollateral(string)":"e287183a","createLoan(string,string,uint256,uint256,string,uint256,string,string,string,string)":"52810666","fundLoan(string)":"f897eeba","getAllLoans()":"a5bfd16a","getBorrowerHistory(address)":"b48a8365","getBorrowerLoans(address)":"eee8b7ff","getRepaymentStatus(string)":"8a48eb82","initialize(address)":"c4d66de8","loanIds(uint256)":"f8715a42","loans(string)":"c6141f63","owner()":"8da5cb5b","proxiableUUID()":"52d1902d","renounceOwnership()":"715018a6","repayLoan(string)":"035dc3d9","repaymentStatus(string)":"23fe30fb","transferOwnership(address)":"f2fde38b","upgradeToAndCall(address,bytes)":"4f1ef286","weedlToken()":"3b9c8cfe"}},"storageLayout":{"storage":[{"astId":5504,"contract":"contracts/GreenFiLoan.sol:GreenFiLoan","label":"weedlToken","offset":0,"slot":"0","type":"t_contract(IERC20)2353"},{"astId":5551,"contract":"contracts/GreenFiLoan.sol:GreenFiLoan","label":"loans","offset":0,"slot":"1","type":"t_mapping(t_string_memory_ptr,t_struct(LoanInu)5546_storage)"},{"astId":5554,"contract":"contracts/GreenFiLoan.sol:GreenFiLoan","label":"loanIds","offset":0,"slot":"2","type":"t_array(t_string_storage)dyn_storage"},{"astId":5559,"contract":"contracts/GreenFiLoan.sol:GreenFiLoan","label":"borrowerLoans","offset":0,"slot":"3","type":"t_mapping(t_address,t_array(t_string_storage)dyn_storage)"},{"astId":5563,"contract":"contracts/GreenFiLoan.sol:GreenFiLoan","label":"borrowerLoanCount","offset":0,"slot":"4","type":"t_mapping(t_address,t_uint256)"},{"astId":5567,"contract":"contracts/GreenFiLoan.sol:GreenFiLoan","label":"borrowerRepaidCount","offset":0,"slot":"5","type":"t_mapping(t_address,t_uint256)"},{"astId":5571,"contract":"contracts/GreenFiLoan.sol:GreenFiLoan","label":"repaymentStatus","offset":0,"slot":"6","type":"t_mapping(t_string_memory_ptr,t_uint256)"}],"types":{"t_address":{"encoding":"inplace","label":"address","numberOfBytes":"20"},"t_array(t_string_storage)dyn_storage":{"base":"t_string_storage","encoding":"dynamic_array","label":"string[]","numberOfBytes":"32"},"t_bool":{"encoding":"inplace","label":"bool","numberOfBytes":"1"},"t_contract(IERC20)2353":{"encoding":"inplace","label":"contract IERC20","numberOfBytes":"20"},"t_mapping(t_address,t_array(t_string_storage)dyn_storage)":{"encoding":"mapping","key":"t_address","label":"mapping(address => string[])","numberOfBytes":"32","value":"t_array(t_string_storage)dyn_storage"},"t_mapping(t_address,t_uint256)":{"encoding":"mapping","key":"t_address","label":"mapping(address => uint256)","numberOfBytes":"32","value":"t_uint256"},"t_mapping(t_string_memory_ptr,t_struct(LoanInu)5546_storage)":{"encoding":"mapping","key":"t_string_memory_ptr","label":"mapping(string => struct GreenFiLoan.LoanInu)","numberOfBytes":"32","value":"t_struct(LoanInu)5546_storage"},"t_mapping(t_string_memory_ptr,t_uint256)":{"encoding":"mapping","key":"t_string_memory_ptr","label":"mapping(string => uint256)","numberOfBytes":"32","value":"t_uint256"},"t_string_memory_ptr":{"encoding":"bytes","label":"string","numberOfBytes":"32"},"t_string_storage":{"encoding":"bytes","label":"string","numberOfBytes":"32"},"t_struct(LoanInu)5546_storage":{"encoding":"inplace","label":"struct GreenFiLoan.LoanInu","members":[{"astId":5515,"contract":"contracts/GreenFiLoan.sol:GreenFiLoan","label":"id","offset":0,"slot":"0","type":"t_string_storage"},{"astId":5517,"contract":"contracts/GreenFiLoan.sol:GreenFiLoan","label":"borrower","offset":0,"slot":"1","type":"t_address"},{"astId":5519,"contract":"contracts/GreenFiLoan.sol:GreenFiLoan","label":"landId","offset":0,"slot":"2","type":"t_string_storage"},{"astId":5521,"contract":"contracts/GreenFiLoan.sol:GreenFiLoan","label":"amount","offset":0,"slot":"3","type":"t_uint256"},{"astId":5523,"contract":"contracts/GreenFiLoan.sol:GreenFiLoan","label":"duration","offset":0,"slot":"4","type":"t_uint256"},{"astId":5525,"contract":"contracts/GreenFiLoan.sol:GreenFiLoan","label":"isActive","offset":0,"slot":"5","type":"t_bool"},{"astId":5527,"contract":"contracts/GreenFiLoan.sol:GreenFiLoan","label":"contactInfo","offset":0,"slot":"6","type":"t_string_storage"},{"astId":5529,"contract":"contracts/GreenFiLoan.sol:GreenFiLoan","label":"fee","offset":0,"slot":"7","type":"t_uint256"},{"astId":5531,"contract":"contracts/GreenFiLoan.sol:GreenFiLoan","label":"createdAt","offset":0,"slot":"8","type":"t_uint256"},{"astId":5533,"contract":"contracts/GreenFiLoan.sol:GreenFiLoan","label":"purpose","offset":0,"slot":"9","type":"t_string_storage"},{"astId":5535,"contract":"contracts/GreenFiLoan.sol:GreenFiLoan","label":"status","offset":0,"slot":"10","type":"t_string_storage"},{"astId":5537,"contract":"contracts/GreenFiLoan.sol:GreenFiLoan","label":"collateralDetails","offset":0,"slot":"11","type":"t_string_storage"},{"astId":5539,"contract":"contracts/GreenFiLoan.sol:GreenFiLoan","label":"latitude","offset":0,"slot":"12","type":"t_string_storage"},{"astId":5541,"contract":"contracts/GreenFiLoan.sol:GreenFiLoan","label":"longitude","offset":0,"slot":"13","type":"t_string_storage"},{"astId":5543,"contract":"contracts/GreenFiLoan.sol:GreenFiLoan","label":"lender","offset":0,"slot":"14","type":"t_address"},{"astId":5545,"contract":"contracts/GreenFiLoan.sol:GreenFiLoan","label":"repaidAmount","offset":0,"slot":"15","type":"t_uint256"}],"numberOfBytes":"512"},"t_uint256":{"encoding":"inplace","label":"uint256","numberOfBytes":"32"}}}}}}