{"contracts/GreenFiLand.sol":{"GreenFiLand":{"abi":[{"inputs":[{"internalType":"address","name":"target","type":"address"}],"name":"AddressEmptyCode","type":"error"},{"inputs":[{"internalType":"address","name":"implementation","type":"address"}],"name":"ERC1967InvalidImplementation","type":"error"},{"inputs":[],"name":"ERC1967NonPayable","type":"error"},{"inputs":[],"name":"FailedCall","type":"error"},{"inputs":[],"name":"InsufficientBalance","type":"error"},{"inputs":[],"name":"InvalidCollateralValue","type":"error"},{"inputs":[],"name":"InvalidContactInfo","type":"error"},{"inputs":[],"name":"InvalidInitialization","type":"error"},{"inputs":[],"name":"InvalidLandId","type":"error"},{"inputs":[],"name":"InvalidPaginationParameters","type":"error"},{"inputs":[],"name":"InvalidTokenAddress","type":"error"},{"inputs":[],"name":"LandHasActiveLoan","type":"error"},{"inputs":[],"name":"LandInUse","type":"error"},{"inputs":[],"name":"LandNotActive","type":"error"},{"inputs":[],"name":"NotInitializing","type":"error"},{"inputs":[{"internalType":"address","name":"owner","type":"address"}],"name":"OwnableInvalidOwner","type":"error"},{"inputs":[{"internalType":"address","name":"account","type":"address"}],"name":"OwnableUnauthorizedAccount","type":"error"},{"inputs":[],"name":"ReentrancyGuardReentrantCall","type":"error"},{"inputs":[{"internalType":"address","name":"token","type":"address"}],"name":"SafeERC20FailedOperation","type":"error"},{"inputs":[],"name":"UUPSUnauthorizedCallContext","type":"error"},{"inputs":[{"internalType":"bytes32","name":"slot","type":"bytes32"}],"name":"UUPSUnsupportedProxiableUUID","type":"error"},{"inputs":[],"name":"Unauthorized","type":"error"},{"anonymous":false,"inputs":[{"indexed":true,"internalType":"address","name":"from","type":"address"},{"indexed":true,"internalType":"address","name":"to","type":"address"},{"indexed":false,"internalType":"uint256","name":"amount","type":"uint256"}],"name":"FeeTransferred","type":"event"},{"anonymous":false,"inputs":[{"indexed":false,"internalType":"uint64","name":"version","type":"uint64"}],"name":"Initialized","type":"event"},{"anonymous":false,"inputs":[{"indexed":true,"internalType":"string","name":"id","type":"string"},{"indexed":false,"internalType":"uint256","name":"newCollateralValue","type":"uint256"}],"name":"LandCollateralUpdated","type":"event"},{"anonymous":false,"inputs":[{"indexed":true,"internalType":"string","name":"id","type":"string"},{"indexed":true,"internalType":"address","name":"owner","type":"address"}],"name":"LandDelisted","type":"event"},{"anonymous":false,"inputs":[{"indexed":true,"internalType":"string","name":"id","type":"string"},{"indexed":true,"internalType":"address","name":"owner","type":"address"},{"indexed":false,"internalType":"string","name":"metadataURI","type":"string"},{"indexed":false,"internalType":"uint256","name":"collateralValue","type":"uint256"},{"indexed":false,"internalType":"string","name":"contactInfo","type":"string"}],"name":"LandListed","type":"event"},{"anonymous":false,"inputs":[{"indexed":true,"internalType":"address","name":"previousOwner","type":"address"},{"indexed":true,"internalType":"address","name":"newOwner","type":"address"}],"name":"OwnershipTransferred","type":"event"},{"anonymous":false,"inputs":[{"indexed":true,"internalType":"address","name":"implementation","type":"address"}],"name":"Upgraded","type":"event"},{"inputs":[],"name":"FEE_BASIS_POINTS","outputs":[{"internalType":"uint256","name":"","type":"uint256"}],"stateMutability":"view","type":"function"},{"inputs":[],"name":"MAX_CONTACT_LENGTH","outputs":[{"internalType":"uint256","name":"","type":"uint256"}],"stateMutability":"view","type":"function"},{"inputs":[],"name":"MAX_PAGE_SIZE","outputs":[{"internalType":"uint256","name":"","type":"uint256"}],"stateMutability":"view","type":"function"},{"inputs":[],"name":"UPGRADE_INTERFACE_VERSION","outputs":[{"internalType":"string","name":"","type":"string"}],"stateMutability":"view","type":"function"},{"inputs":[{"internalType":"string","name":"_id","type":"string"}],"name":"delistLand","outputs":[],"stateMutability":"nonpayable","type":"function"},{"inputs":[{"internalType":"uint256","name":"startIndex","type":"uint256"},{"internalType":"uint256","name":"pageSize","type":"uint256"}],"name":"getAllLandListingsPaginated","outputs":[{"components":[{"internalType":"string","name":"id","type":"string"},{"internalType":"address","name":"owner","type":"address"},{"internalType":"string","name":"metadataURI","type":"string"},{"internalType":"uint256","name":"collateralValue","type":"uint256"},{"internalType":"bool","name":"isActive","type":"bool"},{"internalType":"string","name":"loanId","type":"string"},{"internalType":"string","name":"borrowId","type":"string"},{"internalType":"string","name":"contactInfo","type":"string"}],"internalType":"struct GreenFiLand.LandListing[]","name":"","type":"tuple[]"},{"internalType":"uint256","name":"totalActive","type":"uint256"}],"stateMutability":"view","type":"function"},{"inputs":[{"internalType":"string","name":"_id","type":"string"}],"name":"getLandListing","outputs":[{"components":[{"internalType":"string","name":"id","type":"string"},{"internalType":"address","name":"owner","type":"address"},{"internalType":"string","name":"metadataURI","type":"string"},{"internalType":"uint256","name":"collateralValue","type":"uint256"},{"internalType":"bool","name":"isActive","type":"bool"},{"internalType":"string","name":"loanId","type":"string"},{"internalType":"string","name":"borrowId","type":"string"},{"internalType":"string","name":"contactInfo","type":"string"}],"internalType":"struct GreenFiLand.LandListing","name":"","type":"tuple"}],"stateMutability":"view","type":"function"},{"inputs":[],"name":"getTotalActiveListings","outputs":[{"internalType":"uint256","name":"","type":"uint256"}],"stateMutability":"view","type":"function"},{"inputs":[{"internalType":"address","name":"_owner","type":"address"},{"internalType":"uint256","name":"startIndex","type":"uint256"},{"internalType":"uint256","name":"pageSize","type":"uint256"}],"name":"getUserListingsPaginated","outputs":[{"components":[{"internalType":"string","name":"id","type":"string"},{"internalType":"address","name":"owner","type":"address"},{"internalType":"string","name":"metadataURI","type":"string"},{"internalType":"uint256","name":"collateralValue","type":"uint256"},{"internalType":"bool","name":"isActive","type":"bool"},{"internalType":"string","name":"loanId","type":"string"},{"internalType":"string","name":"borrowId","type":"string"},{"internalType":"string","name":"contactInfo","type":"string"}],"internalType":"struct GreenFiLand.LandListing[]","name":"","type":"tuple[]"},{"internalType":"uint256","name":"totalUserActive","type":"uint256"}],"stateMutability":"view","type":"function"},{"inputs":[{"internalType":"address","name":"_weedlToken","type":"address"}],"name":"initialize","outputs":[],"stateMutability":"nonpayable","type":"function"},{"inputs":[{"internalType":"string","name":"","type":"string"}],"name":"landIdIndices","outputs":[{"internalType":"uint256","name":"","type":"uint256"}],"stateMutability":"view","type":"function"},{"inputs":[{"internalType":"uint256","name":"","type":"uint256"}],"name":"landIds","outputs":[{"internalType":"string","name":"","type":"string"}],"stateMutability":"view","type":"function"},{"inputs":[{"internalType":"string","name":"","type":"string"}],"name":"landListings","outputs":[{"internalType":"string","name":"id","type":"string"},{"internalType":"address","name":"owner","type":"address"},{"internalType":"string","name":"metadataURI","type":"string"},{"internalType":"uint256","name":"collateralValue","type":"uint256"},{"internalType":"bool","name":"isActive","type":"bool"},{"internalType":"string","name":"loanId","type":"string"},{"internalType":"string","name":"borrowId","type":"string"},{"internalType":"string","name":"contactInfo","type":"string"}],"stateMutability":"view","type":"function"},{"inputs":[{"internalType":"string","name":"_id","type":"string"},{"internalType":"string","name":"_metadataURI","type":"string"},{"internalType":"uint256","name":"_collateralValue","type":"uint256"},{"internalType":"string","name":"_contactInfo","type":"string"}],"name":"listLand","outputs":[],"stateMutability":"nonpayable","type":"function"},{"inputs":[],"name":"owner","outputs":[{"internalType":"address","name":"","type":"address"}],"stateMutability":"view","type":"function"},{"inputs":[],"name":"proxiableUUID","outputs":[{"internalType":"bytes32","name":"","type":"bytes32"}],"stateMutability":"view","type":"function"},{"inputs":[],"name":"renounceOwnership","outputs":[],"stateMutability":"nonpayable","type":"function"},{"inputs":[{"internalType":"address","name":"newOwner","type":"address"}],"name":"transferOwnership","outputs":[],"stateMutability":"nonpayable","type":"function"},{"inputs":[{"internalType":"string","name":"_id","type":"string"},{"internalType":"uint256","name":"_newCollateralValue","type":"uint256"}],"name":"updateLandCollateral","outputs":[],"stateMutability":"nonpayable","type":"function"},{"inputs":[{"internalType":"address","name":"newImplementation","type":"address"},{"internalType":"bytes","name":"data","type":"bytes"}],"name":"upgradeToAndCall","outputs":[],"stateMutability":"payable","type":"function"},{"inputs":[],"name":"weedlToken","outputs":[{"internalType":"contract IERC20","name":"","type":"address"}],"stateMutability":"view","type":"function"}],"evm":{"bytecode":{"linkReferences":{},"object":"60a0806040523461002a57306080526120b790816100308239608051818181610ed20152610f8b0152f35b600080fdfe6080604052600436101561001257600080fd5b60e0600035811c908163278dad40146113ab57816332778954146112a457816335fe1a76146111af5781633b9c8cfe1461118657816348f4da201461116a5781634f1ef28614610f3c57816352d1902d14610ebf57816357b06e8c14610ca45781636cf3dcfc14610ad2578163715018a614610a6857816386a197f914610a0c5781638da5cb5b146109d6578163903a94511461098b578163a525ad3c1461096f578163a5298c4a14610910578163a75554cd14610731578163ad3cb1cc146106d5578163c4d66de814610539578163efb85b721461015257508063f2bc9a0e146101365763f2fde38b1461010657600080fd5b346101315760203660031901126101315761012f61012261192f565b61012a611ee8565b611d9d565b005b600080fd5b3461013157600036600319011261013157602060405160648152f35b34610131576080366003190112610131576001600160401b0360043581811161013157610183903690600401611758565b906024358181116101315761019c903690600401611758565b9260443591606435908111610131576101b9903690600401611758565b926101c2611e11565b805115610527578215610515576040519481516020936101ff858501926101ea818b86611776565b890198868160019b8c81520301902054611799565b6105035760648751116104f1578251156104f157602a8602868104602a036104db5761271090049061023182886119fc565b6000546040516370a0823160e01b81523360048201526001600160a01b0394929392918516908981602481855afa80156104cf57859160009161049e575b501061048c578a93303361028293611e90565b604051908152873091339160008051602061202283398151915291a38587898c604051966102af886116ae565b8488528388019033825260408901928b845260608a019485528a60808b0196828852604051986102de8a6116ca565b60008a5260a08d01998a526040519a6102f68c6116ca565b8d60008d5260c0019b8c528d019b8c526040518093819251809261031992611776565b810184815203019020995161032e908b611cd4565b89019151166bffffffffffffffffffffffff60a01b82541617905551600287019061035891611cd4565b516003860155600485019051151560ff198254169060ff1617905551600584019061038291611cd4565b516103909060068401611cd4565b5161039d91600701611cd4565b600254809185604051808093885180926103b692611776565b8101600381520301902055680100000000000000008110156104765780876103e192016002556119af565b929092610460577f85b890f88e543339e29c9bf9c4a788024690601e17aba1f2d25970872c492062936104238261041e61044b9461043897611cd4565b611bea565b95604051948594606086526060860190611878565b9184015282810360408401523396611878565b0390a360008051602061206283398151915255005b634e487b7160e01b600052600060045260246000fd5b634e487b7160e01b600052604160045260246000fd5b604051631e9acf1760e31b8152600490fd5b8092508b8092503d83116104c8575b6104b781836116e5565b81010312610131578490518e61026f565b503d6104ad565b6040513d6000823e3d90fd5b634e487b7160e01b600052601160045260246000fd5b60405163067116cf60e11b8152600490fd5b60405163767727f760e01b8152600490fd5b6040516341becd2f60e11b8152600490fd5b60405163f5217d2760e01b8152600490fd5b346101315760203660031901126101315761055261192f565b7ff0c57e16840df040f15088dc2f81fe391c3923bec73e23a9662efc9c229c6a009081549060ff8260401c1615916001600160401b038116801590816106cd575b60011490816106c3575b1590816106ba575b506106a85767ffffffffffffffff198116600117845582610689575b506001600160a01b038116908115610677573b15610677576105e1611f7d565b6105e9611f7d565b6105f233611d9d565b6105fa611f7d565b610602611f7d565b61060a611f7d565b6001600080516020612062833981519152556bffffffffffffffffffffffff60a01b600054161760005561063a57005b68ff00000000000000001981541690557fc7f505b2f371ae2175ee4913f4499e1f2633a7b5936321eed1cdaeb6115181d2602060405160018152a1005b604051630f58058360e11b8152600490fd5b68ffffffffffffffffff191668010000000000000001178355836105c1565b60405163f92ee8a960e01b8152600490fd5b905015856105a5565b303b15915061059d565b849150610593565b346101315760003660031901126101315760405160408101908082106001600160401b038311176104765761072d9160405260058152640352e302e360dc1b6020820152604051918291602083526020830190611878565b0390f35b34610131576040366003190112610131576024359060043582158015610906575b6108f45760029060025492838210156108f4576000805b8581106108c05750828111156108b9576107838382611a09565b868110156108af5761079490611c70565b956000935b868110806108a6575b15610897576107c06107b3826119af565b50600460ff928392611b56565b0154166107d7575b506107d290611c4a565b610799565b81956108909161087160076107f76107f16107d2976119af565b50611b56565b60405193610804856116ae565b61080d826117d3565b855260018201546001600160a01b0316602086015261082d8d83016117d3565b60408601526003820154606086015260048201541615156080850152610855600582016117d3565b60a0850152610866600682016117d3565b60c0850152016117d3565b8782015261087f828c611cc0565b5261088a818b611cc0565b50611c4a565b94906107c8565b6040518061072d858b83611945565b508185106107a2565b5061079486611c70565b6000610783565b60ff60046108d06107f1846119af565b0154166108e0575b600101610769565b906108ec600191611c4a565b9190506108d8565b6040516329d976df60e11b8152600490fd5b5060328311610752565b3461013157600036600319011261013157600080600254905b81811061093b57602083604051908152f35b60ff600461094b6107f1846119af565b01541661095b575b600101610929565b91610967600191611c4a565b929050610953565b34610131576000366003190112610131576020604051602a8152f35b3461013157602036600319011261013157600435600254811015610131576109b2906119af565b610460576109c261072d916117d3565b604051918291602083526020830190611878565b3461013157600036600319011261013157600080516020612042833981519152546040516001600160a01b039091168152602090f35b34610131576020366003190112610131576004356001600160401b03811161013157610a556020610a4281933690600401611758565b8160405193828580945193849201611776565b8101600381520301902054604051908152f35b3461013157600036600319011261013157610a81611ee8565b60008051602061204283398151915280546001600160a01b031981169091556000906001600160a01b03167f8be0079c531659141344cd1fd0a4f28419497f9722a3daafe3b4186f6b6457e08280a3005b34610131576040366003190112610131576004356001600160401b03811161013157610b02903690600401611758565b60243590610b0e611e11565b6040516020818351610b238183858801611776565b810160018152030190209060ff60048301541615610c925760018201546001600160a01b03929083163303610c8157831561051557600301805491602a830292808404602a14811517156104db57610b8190612710809504906119fc565b92602a860292868404602a036104db577f2a60fd80fc20a8222622be83146d698f4b74875b7a6da03f988bb1c731a1a6bd95602095610bc68994610c149704856119fc565b81811115610c3057610bed610bf29360005416610be38484611a09565b9030903390611e90565b611a09565b6040519081523090600080516020612022833981519152873392a35b55611bea565b92604051908152a2600160008051602061206283398151915255005b90808210610c41575b505050610c0e565b610bed610c5e9360005416610c568484611a09565b903390611e41565b6040519081523390600080516020612022833981519152873092a3878080610c39565b6040516282b42960e81b8152600490fd5b60405163168db56760e31b8152600490fd5b3461013157606090606060031936011261013157610cc061192f565b906024356044359384158015610eb5575b6108f4576002805494858410156108f4576000805b878110610e62575084811115610e5b57610d008582611a09565b88811015610e5157610d1190611c70565b976000955b88811080610e48575b15610e39578988610d326107b3846119af565b01541680610e0b575b610d51575b505050610d4c90611c4a565b610d16565b610df58a610e0094869c94610dec60078e8e97610d736107f1610d4c9d6119af565b91610da96040519a610d848c6116ae565b610d8d856117d3565b8c5260018501546001600160a01b031660208d015284016117d3565b60408b01526003830154908a015260048201541615156080890152610dd0600582016117d3565b60a0890152610de1600682016117d3565b60c0890152016117d3565b90850152611cc0565b5261088a818d611cc0565b96905089888c610d40565b50610e2d610e18856119af565b506001600160a01b0391829160019190611b56565b01541690881614610d3b565b6040518061072d858d83611945565b50818710610d1f565b50610d1188611c70565b6000610d00565b60ff6004610e726107f1846119af565b01541680610e9c575b610e88575b600101610ce6565b90610e94600191611c4a565b919050610e80565b50610ea9610e18826119af565b01541690841614610e7b565b5060328511610cd1565b34610131576000366003190112610131577f00000000000000000000000000000000000000000000000000000000000000006001600160a01b03163003610f2a5760206040517f360894a13ba1a3210667c828492db98dca3e2076cc3735a920a3ca505d382bbc8152f35b60405163703e46dd60e11b8152600490fd5b604036600319011261013157610f5061192f565b6024356001600160401b038111610131573660238201121561013157610f80903690602481600401359101611721565b906001600160a01b037f0000000000000000000000000000000000000000000000000000000000000000811630811490811561113c575b50610f2a57610fc4611ee8565b6040516352d1902d60e01b8152908216916020918281600481875afa6000918161110d575b5061100757604051634c9c8ce360e01b815260048101859052602490fd5b9284937f360894a13ba1a3210667c828492db98dca3e2076cc3735a920a3ca505d382bbc908181036110f55750823b156110dc5780546001600160a01b03191682179055604051907fbc7cd75a20ee27fd9adebab32041f755214dbc6bffa90cc0225b39da2e5c2d3b600080a28351156110c25750600080848461012f96519101845af4903d156110b9573d61109c81611706565b906110aa60405192836116e5565b8152600081943d92013e611fbe565b60609250611fbe565b92505050346110cd57005b63b398979f60e01b8152600490fd5b604051634c9c8ce360e01b815260048101839052602490fd5b60249060405190632a87526960e21b82526004820152fd5b9091508381813d8311611135575b61112581836116e5565b8101031261013157519086610fe9565b503d61111b565b9050817f360894a13ba1a3210667c828492db98dca3e2076cc3735a920a3ca505d382bbc5416141584610fb7565b3461013157600036600319011261013157602060405160328152f35b34610131576000366003190112610131576000546040516001600160a01b039091168152602090f35b3461013157602080600319360112610131576004356001600160401b03811161013157816111e4611200923690600401611758565b6111ec611c0a565b508160405193828580945193849201611776565b810160018152030190209161128c60076040519461121d866116ae565b611226816117d3565b865260018101546001600160a01b031685870152611246600282016117d3565b60408701526003810154606087015260ff60048201541615156080870152611270600582016117d3565b60a0870152611281600682016117d3565b60c0870152016117d3565b9083015261072d60405192828493845283019061189d565b3461013157602036600319011261013157600435906001600160401b0382116101315761072d611366916112e26020610a4281963690600401611758565b8101600181520301902061139e6112f8826117d3565b60018301546001600160a01b0316929061139090611318600284016117d3565b60038401549161137660ff60048701541691611336600588016117d3565b9361134f600761134860068b016117d3565b99016117d3565b996040519e8f9e8f94610100808752860190611878565b9301528c820360408e0152611878565b9260608b0152151560808a015288820360a08a0152611878565b9086820360c0880152611878565b9184830390850152611878565b34610131576020366003190112610131576004356001600160401b038111610131576113db903690600401611758565b6113e3611e11565b60405160208183516113f88183858801611776565b81016001815203019020600481019081549060ff821615610c925760018101546001600160a01b03163303610c81576114346005820154611799565b15801590611699575b6116875760030154602a810290808204602a14811517156104db576127106114669204906119fc565b9160ff19809216905560405160208185516114848183858a01611776565b810160038152030190205460025491828210611516575b50506000546114b79150829033906001600160a01b0316611e41565b604051908152339060008051602061202283398151915260203092a36114dd3391611bea565b7f2152209a408720bdbff2f67adde5349261224ae0980040578add1af5755542f9600080a3600160008051602061206283398151915255005b600019928084019081116104db5761152d906119af565b50611537836119af565b9190916104605761154791611a72565b611550826119af565b50906040518092600090805461156581611799565b9460018216918215611670575050600114611634575b5060209250600381520301902055600254801561161e570161159c816119af565b610460576115aa8154611799565b90816115e0575b5050600255600060405160208185516115cd8183858a01611776565b810160038152030190205582808061149b565b81601f600093116001146115f85750555b83806115b1565b908083918252611617601f60208420940160051c840160018501611a16565b55556115f1565b634e487b7160e01b600052603160045260246000fd5b9150506000528160206000206000905b83821061165857505060209181018861157b565b60209192508060019154848701520191018391611644565b16845250602093801515028301915089905061157b565b6040516303c811ab60e41b8152600490fd5b506116a76006820154611799565b151561143d565b61010081019081106001600160401b0382111761047657604052565b602081019081106001600160401b0382111761047657604052565b90601f801991011681019081106001600160401b0382111761047657604052565b6001600160401b03811161047657601f01601f191660200190565b92919261172d82611706565b9161173b60405193846116e5565b829481845281830111610131578281602093846000960137010152565b9080601f830112156101315781602061177393359101611721565b90565b60005b8381106117895750506000910152565b8181015183820152602001611779565b90600182811c921680156117c9575b60208310146117b357565b634e487b7160e01b600052602260045260246000fd5b91607f16916117a8565b906040519182600082546117e681611799565b908184526020946001916001811690816000146118565750600114611817575b505050611815925003836116e5565b565b600090815285812095935091905b81831061183e5750506118159350820101388080611806565b85548884018501529485019487945091830191611825565b9250505061181594925060ff191682840152151560051b820101388080611806565b9060209161189181518092818552858086019101611776565b601f01601f1916010190565b6117739160e061191e61190c6118e46118c0610100875190808852870190611878565b60018060a01b03602088015116602087015260408701518682036040880152611878565b6060860151606086015260808601511515608086015260a086015185820360a0870152611878565b60c085015184820360c0860152611878565b9201519060e0818403910152611878565b600435906001600160a01b038216820361013157565b9291906040840190604085528051809252606085019160608160051b870101916020809101936000905b838210611983575050505060209150930152565b90919293838061199f600193605f198d8203018652895161189d565b970192019201909493929161196f565b6002548110156119e65760026000527f405787fa12a823e0f2b7631cc41b3ba8828b3321ca811111fa75cd3aa3bb5ace0190600090565b634e487b7160e01b600052603260045260246000fd5b919082018092116104db57565b919082039182116104db57565b818110611a21575050565b60008155600101611a16565b9190601f8111611a3c57505050565b611815926000526020600020906020601f840160051c83019310611a68575b601f0160051c0190611a16565b9091508190611a5b565b90808214611b5257611a848154611799565b906001600160401b03821161047657611aa782611aa18554611799565b85611a2d565b600090601f8311600114611ae757611ad8929160009183611adc575b50508160011b916000199060031b1c19161790565b9055565b015490503880611ac3565b815260208082208483528183209291601f1985169083905b828210611b39575050908460019594939210611b20575b505050811b019055565b015460001960f88460031b161c19169055388080611b16565b8495819295850154815560018091019601940190611aff565b5050565b604051908160008254611b6881611799565b93600191808316908115611bce5750600114611b90575b505060209250600181520301902090565b9091506000526020906020600020906000915b858310611bba575050505060209181013880611b7f565b805487840152869450918301918101611ba3565b92505050602093915060ff191682528015150281013880611b7f565b611c0290602060405192828480945193849201611776565b810103902090565b60405190611c17826116ae565b8160e060609182815260006020820152826040820152600083820152600060808201528260a08201528260c08201520152565b60001981146104db5760010190565b6001600160401b0381116104765760051b60200190565b90611c7a82611c59565b611c8760405191826116e5565b8281528092611c98601f1991611c59565b019060005b828110611ca957505050565b602090611cb4611c0a565b82828501015201611c9d565b80518210156119e65760209160051b010190565b91909182516001600160401b03811161047657611cfb81611cf58454611799565b84611a2d565b602080601f8311600114611d3957508190611ad8939495600092611d2e5750508160011b916000199060031b1c19161790565b015190503880611ac3565b90601f19831695846000526020600020926000905b888210611d8557505083600195969710611d6c57505050811b019055565b015160001960f88460031b161c19169055388080611b16565b80600185968294968601518155019501930190611d4e565b6001600160a01b03908116908115611df85760008051602061204283398151915280546001600160a01b031981168417909155167f8be0079c531659141344cd1fd0a4f28419497f9722a3daafe3b4186f6b6457e0600080a3565b604051631e4fbdf760e01b815260006004820152602490fd5b6000805160206120628339815191526002815414611e2f5760029055565b604051633ee5aeb560e01b8152600490fd5b60405163a9059cbb60e01b60208201526001600160a01b03909216602483015260448083019390935291815260808101916001600160401b038311828410176104765761181592604052611f21565b6040516323b872dd60e01b60208201526001600160a01b03928316602482015292909116604483015260648083019390935291815260a08101918183106001600160401b038411176104765761181592604052611f21565b600080516020612042833981519152546001600160a01b03163303611f0957565b60405163118cdaa760e01b8152336004820152602490fd5b906000602091828151910182855af1156104cf576000513d611f7457506001600160a01b0381163b155b611f525750565b604051635274afe760e01b81526001600160a01b039091166004820152602490fd5b60011415611f4b565b60ff7ff0c57e16840df040f15088dc2f81fe391c3923bec73e23a9662efc9c229c6a005460401c1615611fac57565b604051631afcd79f60e31b8152600490fd5b90611fe55750805115611fd357805190602001fd5b60405163d6bda27560e01b8152600490fd5b81511580612018575b611ff6575090565b604051639996b31560e01b81526001600160a01b039091166004820152602490fd5b50803b15611fee56fe1d6298f49fc15449b78df91fcca6812136edc2972366cb70aa0d9145a308cd319016d09d72d40fdae2fd8ceac6b6234c7706214fd39c1cd1e609a0528c1993009b779b17422d0df92223018b32b4d1fa46e071723d6817e2486d003becc55f00a26469706673582212201babb29344811fe82ca6f365241890425269eb25312559807eed27bd9379cd1f64736f6c63430008160033","opcodes":"PUSH1 0xA0 DUP1 PUSH1 0x40 MSTORE CALLVALUE PUSH2 0x2A JUMPI ADDRESS PUSH1 0x80 MSTORE PUSH2 0x20B7 SWAP1 DUP2 PUSH2 0x30 DUP3 CODECOPY PUSH1 0x80 MLOAD DUP2 DUP2 DUP2 PUSH2 0xED2 ADD MSTORE PUSH2 0xF8B ADD MSTORE RETURN JUMPDEST PUSH1 0x0 DUP1 REVERT INVALID PUSH1 0x80 PUSH1 0x40 MSTORE PUSH1 0x4 CALLDATASIZE LT ISZERO PUSH2 0x12 JUMPI PUSH1 0x0 DUP1 REVERT JUMPDEST PUSH1 0xE0 PUSH1 0x0 CALLDATALOAD DUP2 SHR SWAP1 DUP2 PUSH4 0x278DAD40 EQ PUSH2 0x13AB JUMPI DUP2 PUSH4 0x32778954 EQ PUSH2 0x12A4 JUMPI DUP2 PUSH4 0x35FE1A76 EQ PUSH2 0x11AF JUMPI DUP2 PUSH4 0x3B9C8CFE EQ PUSH2 0x1186 JUMPI DUP2 PUSH4 0x48F4DA20 EQ PUSH2 0x116A JUMPI DUP2 PUSH4 0x4F1EF286 EQ PUSH2 0xF3C JUMPI DUP2 PUSH4 0x52D1902D EQ PUSH2 0xEBF JUMPI DUP2 PUSH4 0x57B06E8C EQ PUSH2 0xCA4 JUMPI DUP2 PUSH4 0x6CF3DCFC EQ PUSH2 0xAD2 JUMPI DUP2 PUSH4 0x715018A6 EQ PUSH2 0xA68 JUMPI DUP2 PUSH4 0x86A197F9 EQ PUSH2 0xA0C JUMPI DUP2 PUSH4 0x8DA5CB5B EQ PUSH2 0x9D6 JUMPI DUP2 PUSH4 0x903A9451 EQ PUSH2 0x98B JUMPI DUP2 PUSH4 0xA525AD3C EQ PUSH2 0x96F JUMPI DUP2 PUSH4 0xA5298C4A EQ PUSH2 0x910 JUMPI DUP2 PUSH4 0xA75554CD EQ PUSH2 0x731 JUMPI DUP2 PUSH4 0xAD3CB1CC EQ PUSH2 0x6D5 JUMPI DUP2 PUSH4 0xC4D66DE8 EQ PUSH2 0x539 JUMPI DUP2 PUSH4 0xEFB85B72 EQ PUSH2 0x152 JUMPI POP DUP1 PUSH4 0xF2BC9A0E EQ PUSH2 0x136 JUMPI PUSH4 0xF2FDE38B EQ PUSH2 0x106 JUMPI PUSH1 0x0 DUP1 REVERT JUMPDEST CALLVALUE PUSH2 0x131 JUMPI PUSH1 0x20 CALLDATASIZE PUSH1 0x3 NOT ADD SLT PUSH2 0x131 JUMPI PUSH2 0x12F PUSH2 0x122 PUSH2 0x192F JUMP JUMPDEST PUSH2 0x12A PUSH2 0x1EE8 JUMP JUMPDEST PUSH2 0x1D9D JUMP JUMPDEST STOP JUMPDEST PUSH1 0x0 DUP1 REVERT JUMPDEST CALLVALUE PUSH2 0x131 JUMPI PUSH1 0x0 CALLDATASIZE PUSH1 0x3 NOT ADD SLT PUSH2 0x131 JUMPI PUSH1 0x20 PUSH1 0x40 MLOAD PUSH1 0x64 DUP2 MSTORE RETURN JUMPDEST CALLVALUE PUSH2 0x131 JUMPI PUSH1 0x80 CALLDATASIZE PUSH1 0x3 NOT ADD SLT PUSH2 0x131 JUMPI PUSH1 0x1 PUSH1 0x1 PUSH1 0x40 SHL SUB PUSH1 0x4 CALLDATALOAD DUP2 DUP2 GT PUSH2 0x131 JUMPI PUSH2 0x183 SWAP1 CALLDATASIZE SWAP1 PUSH1 0x4 ADD PUSH2 0x1758 JUMP JUMPDEST SWAP1 PUSH1 0x24 CALLDATALOAD DUP2 DUP2 GT PUSH2 0x131 JUMPI PUSH2 0x19C SWAP1 CALLDATASIZE SWAP1 PUSH1 0x4 ADD PUSH2 0x1758 JUMP JUMPDEST SWAP3 PUSH1 0x44 CALLDATALOAD SWAP2 PUSH1 0x64 CALLDATALOAD SWAP1 DUP2 GT PUSH2 0x131 JUMPI PUSH2 0x1B9 SWAP1 CALLDATASIZE SWAP1 PUSH1 0x4 ADD PUSH2 0x1758 JUMP JUMPDEST SWAP3 PUSH2 0x1C2 PUSH2 0x1E11 JUMP JUMPDEST DUP1 MLOAD ISZERO PUSH2 0x527 JUMPI DUP3 ISZERO PUSH2 0x515 JUMPI PUSH1 0x40 MLOAD SWAP5 DUP2 MLOAD PUSH1 0x20 SWAP4 PUSH2 0x1FF DUP6 DUP6 ADD SWAP3 PUSH2 0x1EA DUP2 DUP12 DUP7 PUSH2 0x1776 JUMP JUMPDEST DUP10 ADD SWAP9 DUP7 DUP2 PUSH1 0x1 SWAP12 DUP13 DUP2 MSTORE SUB ADD SWAP1 KECCAK256 SLOAD PUSH2 0x1799 JUMP JUMPDEST PUSH2 0x503 JUMPI PUSH1 0x64 DUP8 MLOAD GT PUSH2 0x4F1 JUMPI DUP3 MLOAD ISZERO PUSH2 0x4F1 JUMPI PUSH1 0x2A DUP7 MUL DUP7 DUP2 DIV PUSH1 0x2A SUB PUSH2 0x4DB JUMPI PUSH2 0x2710 SWAP1 DIV SWAP1 PUSH2 0x231 DUP3 DUP9 PUSH2 0x19FC JUMP JUMPDEST PUSH1 0x0 SLOAD PUSH1 0x40 MLOAD PUSH4 0x70A08231 PUSH1 0xE0 SHL DUP2 MSTORE CALLER PUSH1 0x4 DUP3 ADD MSTORE PUSH1 0x1 PUSH1 0x1 PUSH1 0xA0 SHL SUB SWAP5 SWAP3 SWAP4 SWAP3 SWAP2 DUP6 AND SWAP1 DUP10 DUP2 PUSH1 0x24 DUP2 DUP6 GAS STATICCALL DUP1 ISZERO PUSH2 0x4CF JUMPI DUP6 SWAP2 PUSH1 0x0 SWAP2 PUSH2 0x49E JUMPI JUMPDEST POP LT PUSH2 0x48C JUMPI DUP11 SWAP4 ADDRESS CALLER PUSH2 0x282 SWAP4 PUSH2 0x1E90 JUMP JUMPDEST PUSH1 0x40 MLOAD SWAP1 DUP2 MSTORE DUP8 ADDRESS SWAP2 CALLER SWAP2 PUSH1 0x0 DUP1 MLOAD PUSH1 0x20 PUSH2 0x2022 DUP4 CODECOPY DUP2 MLOAD SWAP2 MSTORE SWAP2 LOG3 DUP6 DUP8 DUP10 DUP13 PUSH1 0x40 MLOAD SWAP7 PUSH2 0x2AF DUP9 PUSH2 0x16AE JUMP JUMPDEST DUP5 DUP9 MSTORE DUP4 DUP9 ADD SWAP1 CALLER DUP3 MSTORE PUSH1 0x40 DUP10 ADD SWAP3 DUP12 DUP5 MSTORE PUSH1 0x60 DUP11 ADD SWAP5 DUP6 MSTORE DUP11 PUSH1 0x80 DUP12 ADD SWAP7 DUP3 DUP9 MSTORE PUSH1 0x40 MLOAD SWAP9 PUSH2 0x2DE DUP11 PUSH2 0x16CA JUMP JUMPDEST PUSH1 0x0 DUP11 MSTORE PUSH1 0xA0 DUP14 ADD SWAP10 DUP11 MSTORE PUSH1 0x40 MLOAD SWAP11 PUSH2 0x2F6 DUP13 PUSH2 0x16CA JUMP JUMPDEST DUP14 PUSH1 0x0 DUP14 MSTORE PUSH1 0xC0 ADD SWAP12 DUP13 MSTORE DUP14 ADD SWAP12 DUP13 MSTORE PUSH1 0x40 MLOAD DUP1 SWAP4 DUP2 SWAP3 MLOAD DUP1 SWAP3 PUSH2 0x319 SWAP3 PUSH2 0x1776 JUMP JUMPDEST DUP2 ADD DUP5 DUP2 MSTORE SUB ADD SWAP1 KECCAK256 SWAP10 MLOAD PUSH2 0x32E SWAP1 DUP12 PUSH2 0x1CD4 JUMP JUMPDEST DUP10 ADD SWAP2 MLOAD AND PUSH12 0xFFFFFFFFFFFFFFFFFFFFFFFF PUSH1 0xA0 SHL DUP3 SLOAD AND OR SWAP1 SSTORE MLOAD PUSH1 0x2 DUP8 ADD SWAP1 PUSH2 0x358 SWAP2 PUSH2 0x1CD4 JUMP JUMPDEST MLOAD PUSH1 0x3 DUP7 ADD SSTORE PUSH1 0x4 DUP6 ADD SWAP1 MLOAD ISZERO ISZERO PUSH1 0xFF NOT DUP3 SLOAD AND SWAP1 PUSH1 0xFF AND OR SWAP1 SSTORE MLOAD PUSH1 0x5 DUP5 ADD SWAP1 PUSH2 0x382 SWAP2 PUSH2 0x1CD4 JUMP JUMPDEST MLOAD PUSH2 0x390 SWAP1 PUSH1 0x6 DUP5 ADD PUSH2 0x1CD4 JUMP JUMPDEST MLOAD PUSH2 0x39D SWAP2 PUSH1 0x7 ADD PUSH2 0x1CD4 JUMP JUMPDEST PUSH1 0x2 SLOAD DUP1 SWAP2 DUP6 PUSH1 0x40 MLOAD DUP1 DUP1 SWAP4 DUP9 MLOAD DUP1 SWAP3 PUSH2 0x3B6 SWAP3 PUSH2 0x1776 JUMP JUMPDEST DUP2 ADD PUSH1 0x3 DUP2 MSTORE SUB ADD SWAP1 KECCAK256 SSTORE PUSH9 0x10000000000000000 DUP2 LT ISZERO PUSH2 0x476 JUMPI DUP1 DUP8 PUSH2 0x3E1 SWAP3 ADD PUSH1 0x2 SSTORE PUSH2 0x19AF JUMP JUMPDEST SWAP3 SWAP1 SWAP3 PUSH2 0x460 JUMPI PUSH32 0x85B890F88E543339E29C9BF9C4A788024690601E17ABA1F2D25970872C492062 SWAP4 PUSH2 0x423 DUP3 PUSH2 0x41E PUSH2 0x44B SWAP5 PUSH2 0x438 SWAP8 PUSH2 0x1CD4 JUMP JUMPDEST PUSH2 0x1BEA JUMP JUMPDEST SWAP6 PUSH1 0x40 MLOAD SWAP5 DUP6 SWAP5 PUSH1 0x60 DUP7 MSTORE PUSH1 0x60 DUP7 ADD SWAP1 PUSH2 0x1878 JUMP JUMPDEST SWAP2 DUP5 ADD MSTORE DUP3 DUP2 SUB PUSH1 0x40 DUP5 ADD MSTORE CALLER SWAP7 PUSH2 0x1878 JUMP JUMPDEST SUB SWAP1 LOG3 PUSH1 0x0 DUP1 MLOAD PUSH1 0x20 PUSH2 0x2062 DUP4 CODECOPY DUP2 MLOAD SWAP2 MSTORE SSTORE STOP JUMPDEST PUSH4 0x4E487B71 PUSH1 0xE0 SHL PUSH1 0x0 MSTORE PUSH1 0x0 PUSH1 0x4 MSTORE PUSH1 0x24 PUSH1 0x0 REVERT JUMPDEST PUSH4 0x4E487B71 PUSH1 0xE0 SHL PUSH1 0x0 MSTORE PUSH1 0x41 PUSH1 0x4 MSTORE PUSH1 0x24 PUSH1 0x0 REVERT JUMPDEST PUSH1 0x40 MLOAD PUSH4 0x1E9ACF17 PUSH1 0xE3 SHL DUP2 MSTORE PUSH1 0x4 SWAP1 REVERT JUMPDEST DUP1 SWAP3 POP DUP12 DUP1 SWAP3 POP RETURNDATASIZE DUP4 GT PUSH2 0x4C8 JUMPI JUMPDEST PUSH2 0x4B7 DUP2 DUP4 PUSH2 0x16E5 JUMP JUMPDEST DUP2 ADD SUB SLT PUSH2 0x131 JUMPI DUP5 SWAP1 MLOAD DUP15 PUSH2 0x26F JUMP JUMPDEST POP RETURNDATASIZE PUSH2 0x4AD JUMP JUMPDEST PUSH1 0x40 MLOAD RETURNDATASIZE PUSH1 0x0 DUP3 RETURNDATACOPY RETURNDATASIZE SWAP1 REVERT JUMPDEST PUSH4 0x4E487B71 PUSH1 0xE0 SHL PUSH1 0x0 MSTORE PUSH1 0x11 PUSH1 0x4 MSTORE PUSH1 0x24 PUSH1 0x0 REVERT JUMPDEST PUSH1 0x40 MLOAD PUSH4 0x67116CF PUSH1 0xE1 SHL DUP2 MSTORE PUSH1 0x4 SWAP1 REVERT JUMPDEST PUSH1 0x40 MLOAD PUSH4 0x767727F7 PUSH1 0xE0 SHL DUP2 MSTORE PUSH1 0x4 SWAP1 REVERT JUMPDEST PUSH1 0x40 MLOAD PUSH4 0x41BECD2F PUSH1 0xE1 SHL DUP2 MSTORE PUSH1 0x4 SWAP1 REVERT JUMPDEST PUSH1 0x40 MLOAD PUSH4 0xF5217D27 PUSH1 0xE0 SHL DUP2 MSTORE PUSH1 0x4 SWAP1 REVERT JUMPDEST CALLVALUE PUSH2 0x131 JUMPI PUSH1 0x20 CALLDATASIZE PUSH1 0x3 NOT ADD SLT PUSH2 0x131 JUMPI PUSH2 0x552 PUSH2 0x192F JUMP JUMPDEST PUSH32 0xF0C57E16840DF040F15088DC2F81FE391C3923BEC73E23A9662EFC9C229C6A00 SWAP1 DUP2 SLOAD SWAP1 PUSH1 0xFF DUP3 PUSH1 0x40 SHR AND ISZERO SWAP2 PUSH1 0x1 PUSH1 0x1 PUSH1 0x40 SHL SUB DUP2 AND DUP1 ISZERO SWAP1 DUP2 PUSH2 0x6CD JUMPI JUMPDEST PUSH1 0x1 EQ SWAP1 DUP2 PUSH2 0x6C3 JUMPI JUMPDEST ISZERO SWAP1 DUP2 PUSH2 0x6BA JUMPI JUMPDEST POP PUSH2 0x6A8 JUMPI PUSH8 0xFFFFFFFFFFFFFFFF NOT DUP2 AND PUSH1 0x1 OR DUP5 SSTORE DUP3 PUSH2 0x689 JUMPI JUMPDEST POP PUSH1 0x1 PUSH1 0x1 PUSH1 0xA0 SHL SUB DUP2 AND SWAP1 DUP2 ISZERO PUSH2 0x677 JUMPI EXTCODESIZE ISZERO PUSH2 0x677 JUMPI PUSH2 0x5E1 PUSH2 0x1F7D JUMP JUMPDEST PUSH2 0x5E9 PUSH2 0x1F7D JUMP JUMPDEST PUSH2 0x5F2 CALLER PUSH2 0x1D9D JUMP JUMPDEST PUSH2 0x5FA PUSH2 0x1F7D JUMP JUMPDEST PUSH2 0x602 PUSH2 0x1F7D JUMP JUMPDEST PUSH2 0x60A PUSH2 0x1F7D JUMP JUMPDEST PUSH1 0x1 PUSH1 0x0 DUP1 MLOAD PUSH1 0x20 PUSH2 0x2062 DUP4 CODECOPY DUP2 MLOAD SWAP2 MSTORE SSTORE PUSH12 0xFFFFFFFFFFFFFFFFFFFFFFFF PUSH1 0xA0 SHL PUSH1 0x0 SLOAD AND OR PUSH1 0x0 SSTORE PUSH2 0x63A JUMPI STOP JUMPDEST PUSH9 0xFF0000000000000000 NOT DUP2 SLOAD AND SWAP1 SSTORE PUSH32 0xC7F505B2F371AE2175EE4913F4499E1F2633A7B5936321EED1CDAEB6115181D2 PUSH1 0x20 PUSH1 0x40 MLOAD PUSH1 0x1 DUP2 MSTORE LOG1 STOP JUMPDEST PUSH1 0x40 MLOAD PUSH4 0xF580583 PUSH1 0xE1 SHL DUP2 MSTORE PUSH1 0x4 SWAP1 REVERT JUMPDEST PUSH9 0xFFFFFFFFFFFFFFFFFF NOT AND PUSH9 0x10000000000000001 OR DUP4 SSTORE DUP4 PUSH2 0x5C1 JUMP JUMPDEST PUSH1 0x40 MLOAD PUSH4 0xF92EE8A9 PUSH1 0xE0 SHL DUP2 MSTORE PUSH1 0x4 SWAP1 REVERT JUMPDEST SWAP1 POP ISZERO DUP6 PUSH2 0x5A5 JUMP JUMPDEST ADDRESS EXTCODESIZE ISZERO SWAP2 POP PUSH2 0x59D JUMP JUMPDEST DUP5 SWAP2 POP PUSH2 0x593 JUMP JUMPDEST CALLVALUE PUSH2 0x131 JUMPI PUSH1 0x0 CALLDATASIZE PUSH1 0x3 NOT ADD SLT PUSH2 0x131 JUMPI PUSH1 0x40 MLOAD PUSH1 0x40 DUP2 ADD SWAP1 DUP1 DUP3 LT PUSH1 0x1 PUSH1 0x1 PUSH1 0x40 SHL SUB DUP4 GT OR PUSH2 0x476 JUMPI PUSH2 0x72D SWAP2 PUSH1 0x40 MSTORE PUSH1 0x5 DUP2 MSTORE PUSH5 0x352E302E3 PUSH1 0xDC SHL PUSH1 0x20 DUP3 ADD MSTORE PUSH1 0x40 MLOAD SWAP2 DUP3 SWAP2 PUSH1 0x20 DUP4 MSTORE PUSH1 0x20 DUP4 ADD SWAP1 PUSH2 0x1878 JUMP JUMPDEST SUB SWAP1 RETURN JUMPDEST CALLVALUE PUSH2 0x131 JUMPI PUSH1 0x40 CALLDATASIZE PUSH1 0x3 NOT ADD SLT PUSH2 0x131 JUMPI PUSH1 0x24 CALLDATALOAD SWAP1 PUSH1 0x4 CALLDATALOAD DUP3 ISZERO DUP1 ISZERO PUSH2 0x906 JUMPI JUMPDEST PUSH2 0x8F4 JUMPI PUSH1 0x2 SWAP1 PUSH1 0x2 SLOAD SWAP3 DUP4 DUP3 LT ISZERO PUSH2 0x8F4 JUMPI PUSH1 0x0 DUP1 JUMPDEST DUP6 DUP2 LT PUSH2 0x8C0 JUMPI POP DUP3 DUP2 GT ISZERO PUSH2 0x8B9 JUMPI PUSH2 0x783 DUP4 DUP3 PUSH2 0x1A09 JUMP JUMPDEST DUP7 DUP2 LT ISZERO PUSH2 0x8AF JUMPI PUSH2 0x794 SWAP1 PUSH2 0x1C70 JUMP JUMPDEST SWAP6 PUSH1 0x0 SWAP4 JUMPDEST DUP7 DUP2 LT DUP1 PUSH2 0x8A6 JUMPI JUMPDEST ISZERO PUSH2 0x897 JUMPI PUSH2 0x7C0 PUSH2 0x7B3 DUP3 PUSH2 0x19AF JUMP JUMPDEST POP PUSH1 0x4 PUSH1 0xFF SWAP3 DUP4 SWAP3 PUSH2 0x1B56 JUMP JUMPDEST ADD SLOAD AND PUSH2 0x7D7 JUMPI JUMPDEST POP PUSH2 0x7D2 SWAP1 PUSH2 0x1C4A JUMP JUMPDEST PUSH2 0x799 JUMP JUMPDEST DUP2 SWAP6 PUSH2 0x890 SWAP2 PUSH2 0x871 PUSH1 0x7 PUSH2 0x7F7 PUSH2 0x7F1 PUSH2 0x7D2 SWAP8 PUSH2 0x19AF JUMP JUMPDEST POP PUSH2 0x1B56 JUMP JUMPDEST PUSH1 0x40 MLOAD SWAP4 PUSH2 0x804 DUP6 PUSH2 0x16AE JUMP JUMPDEST PUSH2 0x80D DUP3 PUSH2 0x17D3 JUMP JUMPDEST DUP6 MSTORE PUSH1 0x1 DUP3 ADD SLOAD PUSH1 0x1 PUSH1 0x1 PUSH1 0xA0 SHL SUB AND PUSH1 0x20 DUP7 ADD MSTORE PUSH2 0x82D DUP14 DUP4 ADD PUSH2 0x17D3 JUMP JUMPDEST PUSH1 0x40 DUP7 ADD MSTORE PUSH1 0x3 DUP3 ADD SLOAD PUSH1 0x60 DUP7 ADD MSTORE PUSH1 0x4 DUP3 ADD SLOAD AND ISZERO ISZERO PUSH1 0x80 DUP6 ADD MSTORE PUSH2 0x855 PUSH1 0x5 DUP3 ADD PUSH2 0x17D3 JUMP JUMPDEST PUSH1 0xA0 DUP6 ADD MSTORE PUSH2 0x866 PUSH1 0x6 DUP3 ADD PUSH2 0x17D3 JUMP JUMPDEST PUSH1 0xC0 DUP6 ADD MSTORE ADD PUSH2 0x17D3 JUMP JUMPDEST DUP8 DUP3 ADD MSTORE PUSH2 0x87F DUP3 DUP13 PUSH2 0x1CC0 JUMP JUMPDEST MSTORE PUSH2 0x88A DUP2 DUP12 PUSH2 0x1CC0 JUMP JUMPDEST POP PUSH2 0x1C4A JUMP JUMPDEST SWAP5 SWAP1 PUSH2 0x7C8 JUMP JUMPDEST PUSH1 0x40 MLOAD DUP1 PUSH2 0x72D DUP6 DUP12 DUP4 PUSH2 0x1945 JUMP JUMPDEST POP DUP2 DUP6 LT PUSH2 0x7A2 JUMP JUMPDEST POP PUSH2 0x794 DUP7 PUSH2 0x1C70 JUMP JUMPDEST PUSH1 0x0 PUSH2 0x783 JUMP JUMPDEST PUSH1 0xFF PUSH1 0x4 PUSH2 0x8D0 PUSH2 0x7F1 DUP5 PUSH2 0x19AF JUMP JUMPDEST ADD SLOAD AND PUSH2 0x8E0 JUMPI JUMPDEST PUSH1 0x1 ADD PUSH2 0x769 JUMP JUMPDEST SWAP1 PUSH2 0x8EC PUSH1 0x1 SWAP2 PUSH2 0x1C4A JUMP JUMPDEST SWAP2 SWAP1 POP PUSH2 0x8D8 JUMP JUMPDEST PUSH1 0x40 MLOAD PUSH4 0x29D976DF PUSH1 0xE1 SHL DUP2 MSTORE PUSH1 0x4 SWAP1 REVERT JUMPDEST POP PUSH1 0x32 DUP4 GT PUSH2 0x752 JUMP JUMPDEST CALLVALUE PUSH2 0x131 JUMPI PUSH1 0x0 CALLDATASIZE PUSH1 0x3 NOT ADD SLT PUSH2 0x131 JUMPI PUSH1 0x0 DUP1 PUSH1 0x2 SLOAD SWAP1 JUMPDEST DUP2 DUP2 LT PUSH2 0x93B JUMPI PUSH1 0x20 DUP4 PUSH1 0x40 MLOAD SWAP1 DUP2 MSTORE RETURN JUMPDEST PUSH1 0xFF PUSH1 0x4 PUSH2 0x94B PUSH2 0x7F1 DUP5 PUSH2 0x19AF JUMP JUMPDEST ADD SLOAD AND PUSH2 0x95B JUMPI JUMPDEST PUSH1 0x1 ADD PUSH2 0x929 JUMP JUMPDEST SWAP2 PUSH2 0x967 PUSH1 0x1 SWAP2 PUSH2 0x1C4A JUMP JUMPDEST SWAP3 SWAP1 POP PUSH2 0x953 JUMP JUMPDEST CALLVALUE PUSH2 0x131 JUMPI PUSH1 0x0 CALLDATASIZE PUSH1 0x3 NOT ADD SLT PUSH2 0x131 JUMPI PUSH1 0x20 PUSH1 0x40 MLOAD PUSH1 0x2A DUP2 MSTORE RETURN JUMPDEST CALLVALUE PUSH2 0x131 JUMPI PUSH1 0x20 CALLDATASIZE PUSH1 0x3 NOT ADD SLT PUSH2 0x131 JUMPI PUSH1 0x4 CALLDATALOAD PUSH1 0x2 SLOAD DUP2 LT ISZERO PUSH2 0x131 JUMPI PUSH2 0x9B2 SWAP1 PUSH2 0x19AF JUMP JUMPDEST PUSH2 0x460 JUMPI PUSH2 0x9C2 PUSH2 0x72D SWAP2 PUSH2 0x17D3 JUMP JUMPDEST PUSH1 0x40 MLOAD SWAP2 DUP3 SWAP2 PUSH1 0x20 DUP4 MSTORE PUSH1 0x20 DUP4 ADD SWAP1 PUSH2 0x1878 JUMP JUMPDEST CALLVALUE PUSH2 0x131 JUMPI PUSH1 0x0 CALLDATASIZE PUSH1 0x3 NOT ADD SLT PUSH2 0x131 JUMPI PUSH1 0x0 DUP1 MLOAD PUSH1 0x20 PUSH2 0x2042 DUP4 CODECOPY DUP2 MLOAD SWAP2 MSTORE SLOAD PUSH1 0x40 MLOAD PUSH1 0x1 PUSH1 0x1 PUSH1 0xA0 SHL SUB SWAP1 SWAP2 AND DUP2 MSTORE PUSH1 0x20 SWAP1 RETURN JUMPDEST CALLVALUE PUSH2 0x131 JUMPI PUSH1 0x20 CALLDATASIZE PUSH1 0x3 NOT ADD SLT PUSH2 0x131 JUMPI PUSH1 0x4 CALLDATALOAD PUSH1 0x1 PUSH1 0x1 PUSH1 0x40 SHL SUB DUP2 GT PUSH2 0x131 JUMPI PUSH2 0xA55 PUSH1 0x20 PUSH2 0xA42 DUP2 SWAP4 CALLDATASIZE SWAP1 PUSH1 0x4 ADD PUSH2 0x1758 JUMP JUMPDEST DUP2 PUSH1 0x40 MLOAD SWAP4 DUP3 DUP6 DUP1 SWAP5 MLOAD SWAP4 DUP5 SWAP3 ADD PUSH2 0x1776 JUMP JUMPDEST DUP2 ADD PUSH1 0x3 DUP2 MSTORE SUB ADD SWAP1 KECCAK256 SLOAD PUSH1 0x40 MLOAD SWAP1 DUP2 MSTORE RETURN JUMPDEST CALLVALUE PUSH2 0x131 JUMPI PUSH1 0x0 CALLDATASIZE PUSH1 0x3 NOT ADD SLT PUSH2 0x131 JUMPI PUSH2 0xA81 PUSH2 0x1EE8 JUMP JUMPDEST PUSH1 0x0 DUP1 MLOAD PUSH1 0x20 PUSH2 0x2042 DUP4 CODECOPY DUP2 MLOAD SWAP2 MSTORE DUP1 SLOAD PUSH1 0x1 PUSH1 0x1 PUSH1 0xA0 SHL SUB NOT DUP2 AND SWAP1 SWAP2 SSTORE PUSH1 0x0 SWAP1 PUSH1 0x1 PUSH1 0x1 PUSH1 0xA0 SHL SUB AND PUSH32 0x8BE0079C531659141344CD1FD0A4F28419497F9722A3DAAFE3B4186F6B6457E0 DUP3 DUP1 LOG3 STOP JUMPDEST CALLVALUE PUSH2 0x131 JUMPI PUSH1 0x40 CALLDATASIZE PUSH1 0x3 NOT ADD SLT PUSH2 0x131 JUMPI PUSH1 0x4 CALLDATALOAD PUSH1 0x1 PUSH1 0x1 PUSH1 0x40 SHL SUB DUP2 GT PUSH2 0x131 JUMPI PUSH2 0xB02 SWAP1 CALLDATASIZE SWAP1 PUSH1 0x4 ADD PUSH2 0x1758 JUMP JUMPDEST PUSH1 0x24 CALLDATALOAD SWAP1 PUSH2 0xB0E PUSH2 0x1E11 JUMP JUMPDEST PUSH1 0x40 MLOAD PUSH1 0x20 DUP2 DUP4 MLOAD PUSH2 0xB23 DUP2 DUP4 DUP6 DUP9 ADD PUSH2 0x1776 JUMP JUMPDEST DUP2 ADD PUSH1 0x1 DUP2 MSTORE SUB ADD SWAP1 KECCAK256 SWAP1 PUSH1 0xFF PUSH1 0x4 DUP4 ADD SLOAD AND ISZERO PUSH2 0xC92 JUMPI PUSH1 0x1 DUP3 ADD SLOAD PUSH1 0x1 PUSH1 0x1 PUSH1 0xA0 SHL SUB SWAP3 SWAP1 DUP4 AND CALLER SUB PUSH2 0xC81 JUMPI DUP4 ISZERO PUSH2 0x515 JUMPI PUSH1 0x3 ADD DUP1 SLOAD SWAP2 PUSH1 0x2A DUP4 MUL SWAP3 DUP1 DUP5 DIV PUSH1 0x2A EQ DUP2 ISZERO OR ISZERO PUSH2 0x4DB JUMPI PUSH2 0xB81 SWAP1 PUSH2 0x2710 DUP1 SWAP6 DIV SWAP1 PUSH2 0x19FC JUMP JUMPDEST SWAP3 PUSH1 0x2A DUP7 MUL SWAP3 DUP7 DUP5 DIV PUSH1 0x2A SUB PUSH2 0x4DB JUMPI PUSH32 0x2A60FD80FC20A8222622BE83146D698F4B74875B7A6DA03F988BB1C731A1A6BD SWAP6 PUSH1 0x20 SWAP6 PUSH2 0xBC6 DUP10 SWAP5 PUSH2 0xC14 SWAP8 DIV DUP6 PUSH2 0x19FC JUMP JUMPDEST DUP2 DUP2 GT ISZERO PUSH2 0xC30 JUMPI PUSH2 0xBED PUSH2 0xBF2 SWAP4 PUSH1 0x0 SLOAD AND PUSH2 0xBE3 DUP5 DUP5 PUSH2 0x1A09 JUMP JUMPDEST SWAP1 ADDRESS SWAP1 CALLER SWAP1 PUSH2 0x1E90 JUMP JUMPDEST PUSH2 0x1A09 JUMP JUMPDEST PUSH1 0x40 MLOAD SWAP1 DUP2 MSTORE ADDRESS SWAP1 PUSH1 0x0 DUP1 MLOAD PUSH1 0x20 PUSH2 0x2022 DUP4 CODECOPY DUP2 MLOAD SWAP2 MSTORE DUP8 CALLER SWAP3 LOG3 JUMPDEST SSTORE PUSH2 0x1BEA JUMP JUMPDEST SWAP3 PUSH1 0x40 MLOAD SWAP1 DUP2 MSTORE LOG2 PUSH1 0x1 PUSH1 0x0 DUP1 MLOAD PUSH1 0x20 PUSH2 0x2062 DUP4 CODECOPY DUP2 MLOAD SWAP2 MSTORE SSTORE STOP JUMPDEST SWAP1 DUP1 DUP3 LT PUSH2 0xC41 JUMPI JUMPDEST POP POP POP PUSH2 0xC0E JUMP JUMPDEST PUSH2 0xBED PUSH2 0xC5E SWAP4 PUSH1 0x0 SLOAD AND PUSH2 0xC56 DUP5 DUP5 PUSH2 0x1A09 JUMP JUMPDEST SWAP1 CALLER SWAP1 PUSH2 0x1E41 JUMP JUMPDEST PUSH1 0x40 MLOAD SWAP1 DUP2 MSTORE CALLER SWAP1 PUSH1 0x0 DUP1 MLOAD PUSH1 0x20 PUSH2 0x2022 DUP4 CODECOPY DUP2 MLOAD SWAP2 MSTORE DUP8 ADDRESS SWAP3 LOG3 DUP8 DUP1 DUP1 PUSH2 0xC39 JUMP JUMPDEST PUSH1 0x40 MLOAD PUSH3 0x82B429 PUSH1 0xE8 SHL DUP2 MSTORE PUSH1 0x4 SWAP1 REVERT JUMPDEST PUSH1 0x40 MLOAD PUSH4 0x168DB567 PUSH1 0xE3 SHL DUP2 MSTORE PUSH1 0x4 SWAP1 REVERT JUMPDEST CALLVALUE PUSH2 0x131 JUMPI PUSH1 0x60 SWAP1 PUSH1 0x60 PUSH1 0x3 NOT CALLDATASIZE ADD SLT PUSH2 0x131 JUMPI PUSH2 0xCC0 PUSH2 0x192F JUMP JUMPDEST SWAP1 PUSH1 0x24 CALLDATALOAD PUSH1 0x44 CALLDATALOAD SWAP4 DUP5 ISZERO DUP1 ISZERO PUSH2 0xEB5 JUMPI JUMPDEST PUSH2 0x8F4 JUMPI PUSH1 0x2 DUP1 SLOAD SWAP5 DUP6 DUP5 LT ISZERO PUSH2 0x8F4 JUMPI PUSH1 0x0 DUP1 JUMPDEST DUP8 DUP2 LT PUSH2 0xE62 JUMPI POP DUP5 DUP2 GT ISZERO PUSH2 0xE5B JUMPI PUSH2 0xD00 DUP6 DUP3 PUSH2 0x1A09 JUMP JUMPDEST DUP9 DUP2 LT ISZERO PUSH2 0xE51 JUMPI PUSH2 0xD11 SWAP1 PUSH2 0x1C70 JUMP JUMPDEST SWAP8 PUSH1 0x0 SWAP6 JUMPDEST DUP9 DUP2 LT DUP1 PUSH2 0xE48 JUMPI JUMPDEST ISZERO PUSH2 0xE39 JUMPI DUP10 DUP9 PUSH2 0xD32 PUSH2 0x7B3 DUP5 PUSH2 0x19AF JUMP JUMPDEST ADD SLOAD AND DUP1 PUSH2 0xE0B JUMPI JUMPDEST PUSH2 0xD51 JUMPI JUMPDEST POP POP POP PUSH2 0xD4C SWAP1 PUSH2 0x1C4A JUMP JUMPDEST PUSH2 0xD16 JUMP JUMPDEST PUSH2 0xDF5 DUP11 PUSH2 0xE00 SWAP5 DUP7 SWAP13 SWAP5 PUSH2 0xDEC PUSH1 0x7 DUP15 DUP15 SWAP8 PUSH2 0xD73 PUSH2 0x7F1 PUSH2 0xD4C SWAP14 PUSH2 0x19AF JUMP JUMPDEST SWAP2 PUSH2 0xDA9 PUSH1 0x40 MLOAD SWAP11 PUSH2 0xD84 DUP13 PUSH2 0x16AE JUMP JUMPDEST PUSH2 0xD8D DUP6 PUSH2 0x17D3 JUMP JUMPDEST DUP13 MSTORE PUSH1 0x1 DUP6 ADD SLOAD PUSH1 0x1 PUSH1 0x1 PUSH1 0xA0 SHL SUB AND PUSH1 0x20 DUP14 ADD MSTORE DUP5 ADD PUSH2 0x17D3 JUMP JUMPDEST PUSH1 0x40 DUP12 ADD MSTORE PUSH1 0x3 DUP4 ADD SLOAD SWAP1 DUP11 ADD MSTORE PUSH1 0x4 DUP3 ADD SLOAD AND ISZERO ISZERO PUSH1 0x80 DUP10 ADD MSTORE PUSH2 0xDD0 PUSH1 0x5 DUP3 ADD PUSH2 0x17D3 JUMP JUMPDEST PUSH1 0xA0 DUP10 ADD MSTORE PUSH2 0xDE1 PUSH1 0x6 DUP3 ADD PUSH2 0x17D3 JUMP JUMPDEST PUSH1 0xC0 DUP10 ADD MSTORE ADD PUSH2 0x17D3 JUMP JUMPDEST SWAP1 DUP6 ADD MSTORE PUSH2 0x1CC0 JUMP JUMPDEST MSTORE PUSH2 0x88A DUP2 DUP14 PUSH2 0x1CC0 JUMP JUMPDEST SWAP7 SWAP1 POP DUP10 DUP9 DUP13 PUSH2 0xD40 JUMP JUMPDEST POP PUSH2 0xE2D PUSH2 0xE18 DUP6 PUSH2 0x19AF JUMP JUMPDEST POP PUSH1 0x1 PUSH1 0x1 PUSH1 0xA0 SHL SUB SWAP2 DUP3 SWAP2 PUSH1 0x1 SWAP2 SWAP1 PUSH2 0x1B56 JUMP JUMPDEST ADD SLOAD AND SWAP1 DUP9 AND EQ PUSH2 0xD3B JUMP JUMPDEST PUSH1 0x40 MLOAD DUP1 PUSH2 0x72D DUP6 DUP14 DUP4 PUSH2 0x1945 JUMP JUMPDEST POP DUP2 DUP8 LT PUSH2 0xD1F JUMP JUMPDEST POP PUSH2 0xD11 DUP9 PUSH2 0x1C70 JUMP JUMPDEST PUSH1 0x0 PUSH2 0xD00 JUMP JUMPDEST PUSH1 0xFF PUSH1 0x4 PUSH2 0xE72 PUSH2 0x7F1 DUP5 PUSH2 0x19AF JUMP JUMPDEST ADD SLOAD AND DUP1 PUSH2 0xE9C JUMPI JUMPDEST PUSH2 0xE88 JUMPI JUMPDEST PUSH1 0x1 ADD PUSH2 0xCE6 JUMP JUMPDEST SWAP1 PUSH2 0xE94 PUSH1 0x1 SWAP2 PUSH2 0x1C4A JUMP JUMPDEST SWAP2 SWAP1 POP PUSH2 0xE80 JUMP JUMPDEST POP PUSH2 0xEA9 PUSH2 0xE18 DUP3 PUSH2 0x19AF JUMP JUMPDEST ADD SLOAD AND SWAP1 DUP5 AND EQ PUSH2 0xE7B JUMP JUMPDEST POP PUSH1 0x32 DUP6 GT PUSH2 0xCD1 JUMP JUMPDEST CALLVALUE PUSH2 0x131 JUMPI PUSH1 0x0 CALLDATASIZE PUSH1 0x3 NOT ADD SLT PUSH2 0x131 JUMPI PUSH32 0x0 PUSH1 0x1 PUSH1 0x1 PUSH1 0xA0 SHL SUB AND ADDRESS SUB PUSH2 0xF2A JUMPI PUSH1 0x20 PUSH1 0x40 MLOAD PUSH32 0x360894A13BA1A3210667C828492DB98DCA3E2076CC3735A920A3CA505D382BBC DUP2 MSTORE RETURN JUMPDEST PUSH1 0x40 MLOAD PUSH4 0x703E46DD PUSH1 0xE1 SHL DUP2 MSTORE PUSH1 0x4 SWAP1 REVERT JUMPDEST PUSH1 0x40 CALLDATASIZE PUSH1 0x3 NOT ADD SLT PUSH2 0x131 JUMPI PUSH2 0xF50 PUSH2 0x192F JUMP JUMPDEST PUSH1 0x24 CALLDATALOAD PUSH1 0x1 PUSH1 0x1 PUSH1 0x40 SHL SUB DUP2 GT PUSH2 0x131 JUMPI CALLDATASIZE PUSH1 0x23 DUP3 ADD SLT ISZERO PUSH2 0x131 JUMPI PUSH2 0xF80 SWAP1 CALLDATASIZE SWAP1 PUSH1 0x24 DUP2 PUSH1 0x4 ADD CALLDATALOAD SWAP2 ADD PUSH2 0x1721 JUMP JUMPDEST SWAP1 PUSH1 0x1 PUSH1 0x1 PUSH1 0xA0 SHL SUB PUSH32 0x0 DUP2 AND ADDRESS DUP2 EQ SWAP1 DUP2 ISZERO PUSH2 0x113C JUMPI JUMPDEST POP PUSH2 0xF2A JUMPI PUSH2 0xFC4 PUSH2 0x1EE8 JUMP JUMPDEST PUSH1 0x40 MLOAD PUSH4 0x52D1902D PUSH1 0xE0 SHL DUP2 MSTORE SWAP1 DUP3 AND SWAP2 PUSH1 0x20 SWAP2 DUP3 DUP2 PUSH1 0x4 DUP2 DUP8 GAS STATICCALL PUSH1 0x0 SWAP2 DUP2 PUSH2 0x110D JUMPI JUMPDEST POP PUSH2 0x1007 JUMPI PUSH1 0x40 MLOAD PUSH4 0x4C9C8CE3 PUSH1 0xE0 SHL DUP2 MSTORE PUSH1 0x4 DUP2 ADD DUP6 SWAP1 MSTORE PUSH1 0x24 SWAP1 REVERT JUMPDEST SWAP3 DUP5 SWAP4 PUSH32 0x360894A13BA1A3210667C828492DB98DCA3E2076CC3735A920A3CA505D382BBC SWAP1 DUP2 DUP2 SUB PUSH2 0x10F5 JUMPI POP DUP3 EXTCODESIZE ISZERO PUSH2 0x10DC JUMPI DUP1 SLOAD PUSH1 0x1 PUSH1 0x1 PUSH1 0xA0 SHL SUB NOT AND DUP3 OR SWAP1 SSTORE PUSH1 0x40 MLOAD SWAP1 PUSH32 0xBC7CD75A20EE27FD9ADEBAB32041F755214DBC6BFFA90CC0225B39DA2E5C2D3B PUSH1 0x0 DUP1 LOG2 DUP4 MLOAD ISZERO PUSH2 0x10C2 JUMPI POP PUSH1 0x0 DUP1 DUP5 DUP5 PUSH2 0x12F SWAP7 MLOAD SWAP2 ADD DUP5 GAS DELEGATECALL SWAP1 RETURNDATASIZE ISZERO PUSH2 0x10B9 JUMPI RETURNDATASIZE PUSH2 0x109C DUP2 PUSH2 0x1706 JUMP JUMPDEST SWAP1 PUSH2 0x10AA PUSH1 0x40 MLOAD SWAP3 DUP4 PUSH2 0x16E5 JUMP JUMPDEST DUP2 MSTORE PUSH1 0x0 DUP2 SWAP5 RETURNDATASIZE SWAP3 ADD RETURNDATACOPY PUSH2 0x1FBE JUMP JUMPDEST PUSH1 0x60 SWAP3 POP PUSH2 0x1FBE JUMP JUMPDEST SWAP3 POP POP POP CALLVALUE PUSH2 0x10CD JUMPI STOP JUMPDEST PUSH4 0xB398979F PUSH1 0xE0 SHL DUP2 MSTORE PUSH1 0x4 SWAP1 REVERT JUMPDEST PUSH1 0x40 MLOAD PUSH4 0x4C9C8CE3 PUSH1 0xE0 SHL DUP2 MSTORE PUSH1 0x4 DUP2 ADD DUP4 SWAP1 MSTORE PUSH1 0x24 SWAP1 REVERT JUMPDEST PUSH1 0x24 SWAP1 PUSH1 0x40 MLOAD SWAP1 PUSH4 0x2A875269 PUSH1 0xE2 SHL DUP3 MSTORE PUSH1 0x4 DUP3 ADD MSTORE REVERT JUMPDEST SWAP1 SWAP2 POP DUP4 DUP2 DUP2 RETURNDATASIZE DUP4 GT PUSH2 0x1135 JUMPI JUMPDEST PUSH2 0x1125 DUP2 DUP4 PUSH2 0x16E5 JUMP JUMPDEST DUP2 ADD SUB SLT PUSH2 0x131 JUMPI MLOAD SWAP1 DUP7 PUSH2 0xFE9 JUMP JUMPDEST POP RETURNDATASIZE PUSH2 0x111B JUMP JUMPDEST SWAP1 POP DUP2 PUSH32 0x360894A13BA1A3210667C828492DB98DCA3E2076CC3735A920A3CA505D382BBC SLOAD AND EQ ISZERO DUP5 PUSH2 0xFB7 JUMP JUMPDEST CALLVALUE PUSH2 0x131 JUMPI PUSH1 0x0 CALLDATASIZE PUSH1 0x3 NOT ADD SLT PUSH2 0x131 JUMPI PUSH1 0x20 PUSH1 0x40 MLOAD PUSH1 0x32 DUP2 MSTORE RETURN JUMPDEST CALLVALUE PUSH2 0x131 JUMPI PUSH1 0x0 CALLDATASIZE PUSH1 0x3 NOT ADD SLT PUSH2 0x131 JUMPI PUSH1 0x0 SLOAD PUSH1 0x40 MLOAD PUSH1 0x1 PUSH1 0x1 PUSH1 0xA0 SHL SUB SWAP1 SWAP2 AND DUP2 MSTORE PUSH1 0x20 SWAP1 RETURN JUMPDEST CALLVALUE PUSH2 0x131 JUMPI PUSH1 0x20 DUP1 PUSH1 0x3 NOT CALLDATASIZE ADD SLT PUSH2 0x131 JUMPI PUSH1 0x4 CALLDATALOAD PUSH1 0x1 PUSH1 0x1 PUSH1 0x40 SHL SUB DUP2 GT PUSH2 0x131 JUMPI DUP2 PUSH2 0x11E4 PUSH2 0x1200 SWAP3 CALLDATASIZE SWAP1 PUSH1 0x4 ADD PUSH2 0x1758 JUMP JUMPDEST PUSH2 0x11EC PUSH2 0x1C0A JUMP JUMPDEST POP DUP2 PUSH1 0x40 MLOAD SWAP4 DUP3 DUP6 DUP1 SWAP5 MLOAD SWAP4 DUP5 SWAP3 ADD PUSH2 0x1776 JUMP JUMPDEST DUP2 ADD PUSH1 0x1 DUP2 MSTORE SUB ADD SWAP1 KECCAK256 SWAP2 PUSH2 0x128C PUSH1 0x7 PUSH1 0x40 MLOAD SWAP5 PUSH2 0x121D DUP7 PUSH2 0x16AE JUMP JUMPDEST PUSH2 0x1226 DUP2 PUSH2 0x17D3 JUMP JUMPDEST DUP7 MSTORE PUSH1 0x1 DUP2 ADD SLOAD PUSH1 0x1 PUSH1 0x1 PUSH1 0xA0 SHL SUB AND DUP6 DUP8 ADD MSTORE PUSH2 0x1246 PUSH1 0x2 DUP3 ADD PUSH2 0x17D3 JUMP JUMPDEST PUSH1 0x40 DUP8 ADD MSTORE PUSH1 0x3 DUP2 ADD SLOAD PUSH1 0x60 DUP8 ADD MSTORE PUSH1 0xFF PUSH1 0x4 DUP3 ADD SLOAD AND ISZERO ISZERO PUSH1 0x80 DUP8 ADD MSTORE PUSH2 0x1270 PUSH1 0x5 DUP3 ADD PUSH2 0x17D3 JUMP JUMPDEST PUSH1 0xA0 DUP8 ADD MSTORE PUSH2 0x1281 PUSH1 0x6 DUP3 ADD PUSH2 0x17D3 JUMP JUMPDEST PUSH1 0xC0 DUP8 ADD MSTORE ADD PUSH2 0x17D3 JUMP JUMPDEST SWAP1 DUP4 ADD MSTORE PUSH2 0x72D PUSH1 0x40 MLOAD SWAP3 DUP3 DUP5 SWAP4 DUP5 MSTORE DUP4 ADD SWAP1 PUSH2 0x189D JUMP JUMPDEST CALLVALUE PUSH2 0x131 JUMPI PUSH1 0x20 CALLDATASIZE PUSH1 0x3 NOT ADD SLT PUSH2 0x131 JUMPI PUSH1 0x4 CALLDATALOAD SWAP1 PUSH1 0x1 PUSH1 0x1 PUSH1 0x40 SHL SUB DUP3 GT PUSH2 0x131 JUMPI PUSH2 0x72D PUSH2 0x1366 SWAP2 PUSH2 0x12E2 PUSH1 0x20 PUSH2 0xA42 DUP2 SWAP7 CALLDATASIZE SWAP1 PUSH1 0x4 ADD PUSH2 0x1758 JUMP JUMPDEST DUP2 ADD PUSH1 0x1 DUP2 MSTORE SUB ADD SWAP1 KECCAK256 PUSH2 0x139E PUSH2 0x12F8 DUP3 PUSH2 0x17D3 JUMP JUMPDEST PUSH1 0x1 DUP4 ADD SLOAD PUSH1 0x1 PUSH1 0x1 PUSH1 0xA0 SHL SUB AND SWAP3 SWAP1 PUSH2 0x1390 SWAP1 PUSH2 0x1318 PUSH1 0x2 DUP5 ADD PUSH2 0x17D3 JUMP JUMPDEST PUSH1 0x3 DUP5 ADD SLOAD SWAP2 PUSH2 0x1376 PUSH1 0xFF PUSH1 0x4 DUP8 ADD SLOAD AND SWAP2 PUSH2 0x1336 PUSH1 0x5 DUP9 ADD PUSH2 0x17D3 JUMP JUMPDEST SWAP4 PUSH2 0x134F PUSH1 0x7 PUSH2 0x1348 PUSH1 0x6 DUP12 ADD PUSH2 0x17D3 JUMP JUMPDEST SWAP10 ADD PUSH2 0x17D3 JUMP JUMPDEST SWAP10 PUSH1 0x40 MLOAD SWAP15 DUP16 SWAP15 DUP16 SWAP5 PUSH2 0x100 DUP1 DUP8 MSTORE DUP7 ADD SWAP1 PUSH2 0x1878 JUMP JUMPDEST SWAP4 ADD MSTORE DUP13 DUP3 SUB PUSH1 0x40 DUP15 ADD MSTORE PUSH2 0x1878 JUMP JUMPDEST SWAP3 PUSH1 0x60 DUP12 ADD MSTORE ISZERO ISZERO PUSH1 0x80 DUP11 ADD MSTORE DUP9 DUP3 SUB PUSH1 0xA0 DUP11 ADD MSTORE PUSH2 0x1878 JUMP JUMPDEST SWAP1 DUP7 DUP3 SUB PUSH1 0xC0 DUP9 ADD MSTORE PUSH2 0x1878 JUMP JUMPDEST SWAP2 DUP5 DUP4 SUB SWAP1 DUP6 ADD MSTORE PUSH2 0x1878 JUMP JUMPDEST CALLVALUE PUSH2 0x131 JUMPI PUSH1 0x20 CALLDATASIZE PUSH1 0x3 NOT ADD SLT PUSH2 0x131 JUMPI PUSH1 0x4 CALLDATALOAD PUSH1 0x1 PUSH1 0x1 PUSH1 0x40 SHL SUB DUP2 GT PUSH2 0x131 JUMPI PUSH2 0x13DB SWAP1 CALLDATASIZE SWAP1 PUSH1 0x4 ADD PUSH2 0x1758 JUMP JUMPDEST PUSH2 0x13E3 PUSH2 0x1E11 JUMP JUMPDEST PUSH1 0x40 MLOAD PUSH1 0x20 DUP2 DUP4 MLOAD PUSH2 0x13F8 DUP2 DUP4 DUP6 DUP9 ADD PUSH2 0x1776 JUMP JUMPDEST DUP2 ADD PUSH1 0x1 DUP2 MSTORE SUB ADD SWAP1 KECCAK256 PUSH1 0x4 DUP2 ADD SWAP1 DUP2 SLOAD SWAP1 PUSH1 0xFF DUP3 AND ISZERO PUSH2 0xC92 JUMPI PUSH1 0x1 DUP2 ADD SLOAD PUSH1 0x1 PUSH1 0x1 PUSH1 0xA0 SHL SUB AND CALLER SUB PUSH2 0xC81 JUMPI PUSH2 0x1434 PUSH1 0x5 DUP3 ADD SLOAD PUSH2 0x1799 JUMP JUMPDEST ISZERO DUP1 ISZERO SWAP1 PUSH2 0x1699 JUMPI JUMPDEST PUSH2 0x1687 JUMPI PUSH1 0x3 ADD SLOAD PUSH1 0x2A DUP2 MUL SWAP1 DUP1 DUP3 DIV PUSH1 0x2A EQ DUP2 ISZERO OR ISZERO PUSH2 0x4DB JUMPI PUSH2 0x2710 PUSH2 0x1466 SWAP3 DIV SWAP1 PUSH2 0x19FC JUMP JUMPDEST SWAP2 PUSH1 0xFF NOT DUP1 SWAP3 AND SWAP1 SSTORE PUSH1 0x40 MLOAD PUSH1 0x20 DUP2 DUP6 MLOAD PUSH2 0x1484 DUP2 DUP4 DUP6 DUP11 ADD PUSH2 0x1776 JUMP JUMPDEST DUP2 ADD PUSH1 0x3 DUP2 MSTORE SUB ADD SWAP1 KECCAK256 SLOAD PUSH1 0x2 SLOAD SWAP2 DUP3 DUP3 LT PUSH2 0x1516 JUMPI JUMPDEST POP POP PUSH1 0x0 SLOAD PUSH2 0x14B7 SWAP2 POP DUP3 SWAP1 CALLER SWAP1 PUSH1 0x1 PUSH1 0x1 PUSH1 0xA0 SHL SUB AND PUSH2 0x1E41 JUMP JUMPDEST PUSH1 0x40 MLOAD SWAP1 DUP2 MSTORE CALLER SWAP1 PUSH1 0x0 DUP1 MLOAD PUSH1 0x20 PUSH2 0x2022 DUP4 CODECOPY DUP2 MLOAD SWAP2 MSTORE PUSH1 0x20 ADDRESS SWAP3 LOG3 PUSH2 0x14DD CALLER SWAP2 PUSH2 0x1BEA JUMP JUMPDEST PUSH32 0x2152209A408720BDBFF2F67ADDE5349261224AE0980040578ADD1AF5755542F9 PUSH1 0x0 DUP1 LOG3 PUSH1 0x1 PUSH1 0x0 DUP1 MLOAD PUSH1 0x20 PUSH2 0x2062 DUP4 CODECOPY DUP2 MLOAD SWAP2 MSTORE SSTORE STOP JUMPDEST PUSH1 0x0 NOT SWAP3 DUP1 DUP5 ADD SWAP1 DUP2 GT PUSH2 0x4DB JUMPI PUSH2 0x152D SWAP1 PUSH2 0x19AF JUMP JUMPDEST POP PUSH2 0x1537 DUP4 PUSH2 0x19AF JUMP JUMPDEST SWAP2 SWAP1 SWAP2 PUSH2 0x460 JUMPI PUSH2 0x1547 SWAP2 PUSH2 0x1A72 JUMP JUMPDEST PUSH2 0x1550 DUP3 PUSH2 0x19AF JUMP JUMPDEST POP SWAP1 PUSH1 0x40 MLOAD DUP1 SWAP3 PUSH1 0x0 SWAP1 DUP1 SLOAD PUSH2 0x1565 DUP2 PUSH2 0x1799 JUMP JUMPDEST SWAP5 PUSH1 0x1 DUP3 AND SWAP2 DUP3 ISZERO PUSH2 0x1670 JUMPI POP POP PUSH1 0x1 EQ PUSH2 0x1634 JUMPI JUMPDEST POP PUSH1 0x20 SWAP3 POP PUSH1 0x3 DUP2 MSTORE SUB ADD SWAP1 KECCAK256 SSTORE PUSH1 0x2 SLOAD DUP1 ISZERO PUSH2 0x161E JUMPI ADD PUSH2 0x159C DUP2 PUSH2 0x19AF JUMP JUMPDEST PUSH2 0x460 JUMPI PUSH2 0x15AA DUP2 SLOAD PUSH2 0x1799 JUMP JUMPDEST SWAP1 DUP2 PUSH2 0x15E0 JUMPI JUMPDEST POP POP PUSH1 0x2 SSTORE PUSH1 0x0 PUSH1 0x40 MLOAD PUSH1 0x20 DUP2 DUP6 MLOAD PUSH2 0x15CD DUP2 DUP4 DUP6 DUP11 ADD PUSH2 0x1776 JUMP JUMPDEST DUP2 ADD PUSH1 0x3 DUP2 MSTORE SUB ADD SWAP1 KECCAK256 SSTORE DUP3 DUP1 DUP1 PUSH2 0x149B JUMP JUMPDEST DUP2 PUSH1 0x1F PUSH1 0x0 SWAP4 GT PUSH1 0x1 EQ PUSH2 0x15F8 JUMPI POP SSTORE JUMPDEST DUP4 DUP1 PUSH2 0x15B1 JUMP JUMPDEST SWAP1 DUP1 DUP4 SWAP2 DUP3 MSTORE PUSH2 0x1617 PUSH1 0x1F PUSH1 0x20 DUP5 KECCAK256 SWAP5 ADD PUSH1 0x5 SHR DUP5 ADD PUSH1 0x1 DUP6 ADD PUSH2 0x1A16 JUMP JUMPDEST SSTORE SSTORE PUSH2 0x15F1 JUMP JUMPDEST PUSH4 0x4E487B71 PUSH1 0xE0 SHL PUSH1 0x0 MSTORE PUSH1 0x31 PUSH1 0x4 MSTORE PUSH1 0x24 PUSH1 0x0 REVERT JUMPDEST SWAP2 POP POP PUSH1 0x0 MSTORE DUP2 PUSH1 0x20 PUSH1 0x0 KECCAK256 PUSH1 0x0 SWAP1 JUMPDEST DUP4 DUP3 LT PUSH2 0x1658 JUMPI POP POP PUSH1 0x20 SWAP2 DUP2 ADD DUP9 PUSH2 0x157B JUMP JUMPDEST PUSH1 0x20 SWAP2 SWAP3 POP DUP1 PUSH1 0x1 SWAP2 SLOAD DUP5 DUP8 ADD MSTORE ADD SWAP2 ADD DUP4 SWAP2 PUSH2 0x1644 JUMP JUMPDEST AND DUP5 MSTORE POP PUSH1 0x20 SWAP4 DUP1 ISZERO ISZERO MUL DUP4 ADD SWAP2 POP DUP10 SWAP1 POP PUSH2 0x157B JUMP JUMPDEST PUSH1 0x40 MLOAD PUSH4 0x3C811AB PUSH1 0xE4 SHL DUP2 MSTORE PUSH1 0x4 SWAP1 REVERT JUMPDEST POP PUSH2 0x16A7 PUSH1 0x6 DUP3 ADD SLOAD PUSH2 0x1799 JUMP JUMPDEST ISZERO ISZERO PUSH2 0x143D JUMP JUMPDEST PUSH2 0x100 DUP2 ADD SWAP1 DUP2 LT PUSH1 0x1 PUSH1 0x1 PUSH1 0x40 SHL SUB DUP3 GT OR PUSH2 0x476 JUMPI PUSH1 0x40 MSTORE JUMP JUMPDEST PUSH1 0x20 DUP2 ADD SWAP1 DUP2 LT PUSH1 0x1 PUSH1 0x1 PUSH1 0x40 SHL SUB DUP3 GT OR PUSH2 0x476 JUMPI PUSH1 0x40 MSTORE JUMP JUMPDEST SWAP1 PUSH1 0x1F DUP1 NOT SWAP2 ADD AND DUP2 ADD SWAP1 DUP2 LT PUSH1 0x1 PUSH1 0x1 PUSH1 0x40 SHL SUB DUP3 GT OR PUSH2 0x476 JUMPI PUSH1 0x40 MSTORE JUMP JUMPDEST PUSH1 0x1 PUSH1 0x1 PUSH1 0x40 SHL SUB DUP2 GT PUSH2 0x476 JUMPI PUSH1 0x1F ADD PUSH1 0x1F NOT AND PUSH1 0x20 ADD SWAP1 JUMP JUMPDEST SWAP3 SWAP2 SWAP3 PUSH2 0x172D DUP3 PUSH2 0x1706 JUMP JUMPDEST SWAP2 PUSH2 0x173B PUSH1 0x40 MLOAD SWAP4 DUP5 PUSH2 0x16E5 JUMP JUMPDEST DUP3 SWAP5 DUP2 DUP5 MSTORE DUP2 DUP4 ADD GT PUSH2 0x131 JUMPI DUP3 DUP2 PUSH1 0x20 SWAP4 DUP5 PUSH1 0x0 SWAP7 ADD CALLDATACOPY ADD ADD MSTORE JUMP JUMPDEST SWAP1 DUP1 PUSH1 0x1F DUP4 ADD SLT ISZERO PUSH2 0x131 JUMPI DUP2 PUSH1 0x20 PUSH2 0x1773 SWAP4 CALLDATALOAD SWAP2 ADD PUSH2 0x1721 JUMP JUMPDEST SWAP1 JUMP JUMPDEST PUSH1 0x0 JUMPDEST DUP4 DUP2 LT PUSH2 0x1789 JUMPI POP POP PUSH1 0x0 SWAP2 ADD MSTORE JUMP JUMPDEST DUP2 DUP2 ADD MLOAD DUP4 DUP3 ADD MSTORE PUSH1 0x20 ADD PUSH2 0x1779 JUMP JUMPDEST SWAP1 PUSH1 0x1 DUP3 DUP2 SHR SWAP3 AND DUP1 ISZERO PUSH2 0x17C9 JUMPI JUMPDEST PUSH1 0x20 DUP4 LT EQ PUSH2 0x17B3 JUMPI JUMP JUMPDEST PUSH4 0x4E487B71 PUSH1 0xE0 SHL PUSH1 0x0 MSTORE PUSH1 0x22 PUSH1 0x4 MSTORE PUSH1 0x24 PUSH1 0x0 REVERT JUMPDEST SWAP2 PUSH1 0x7F AND SWAP2 PUSH2 0x17A8 JUMP JUMPDEST SWAP1 PUSH1 0x40 MLOAD SWAP2 DUP3 PUSH1 0x0 DUP3 SLOAD PUSH2 0x17E6 DUP2 PUSH2 0x1799 JUMP JUMPDEST SWAP1 DUP2 DUP5 MSTORE PUSH1 0x20 SWAP5 PUSH1 0x1 SWAP2 PUSH1 0x1 DUP2 AND SWAP1 DUP2 PUSH1 0x0 EQ PUSH2 0x1856 JUMPI POP PUSH1 0x1 EQ PUSH2 0x1817 JUMPI JUMPDEST POP POP POP PUSH2 0x1815 SWAP3 POP SUB DUP4 PUSH2 0x16E5 JUMP JUMPDEST JUMP JUMPDEST PUSH1 0x0 SWAP1 DUP2 MSTORE DUP6 DUP2 KECCAK256 SWAP6 SWAP4 POP SWAP2 SWAP1 JUMPDEST DUP2 DUP4 LT PUSH2 0x183E JUMPI POP POP PUSH2 0x1815 SWAP4 POP DUP3 ADD ADD CODESIZE DUP1 DUP1 PUSH2 0x1806 JUMP JUMPDEST DUP6 SLOAD DUP9 DUP5 ADD DUP6 ADD MSTORE SWAP5 DUP6 ADD SWAP5 DUP8 SWAP5 POP SWAP2 DUP4 ADD SWAP2 PUSH2 0x1825 JUMP JUMPDEST SWAP3 POP POP POP PUSH2 0x1815 SWAP5 SWAP3 POP PUSH1 0xFF NOT AND DUP3 DUP5 ADD MSTORE ISZERO ISZERO PUSH1 0x5 SHL DUP3 ADD ADD CODESIZE DUP1 DUP1 PUSH2 0x1806 JUMP JUMPDEST SWAP1 PUSH1 0x20 SWAP2 PUSH2 0x1891 DUP2 MLOAD DUP1 SWAP3 DUP2 DUP6 MSTORE DUP6 DUP1 DUP7 ADD SWAP2 ADD PUSH2 0x1776 JUMP JUMPDEST PUSH1 0x1F ADD PUSH1 0x1F NOT AND ADD ADD SWAP1 JUMP JUMPDEST PUSH2 0x1773 SWAP2 PUSH1 0xE0 PUSH2 0x191E PUSH2 0x190C PUSH2 0x18E4 PUSH2 0x18C0 PUSH2 0x100 DUP8 MLOAD SWAP1 DUP1 DUP9 MSTORE DUP8 ADD SWAP1 PUSH2 0x1878 JUMP JUMPDEST PUSH1 0x1 DUP1 PUSH1 0xA0 SHL SUB PUSH1 0x20 DUP9 ADD MLOAD AND PUSH1 0x20 DUP8 ADD MSTORE PUSH1 0x40 DUP8 ADD MLOAD DUP7 DUP3 SUB PUSH1 0x40 DUP9 ADD MSTORE PUSH2 0x1878 JUMP JUMPDEST PUSH1 0x60 DUP7 ADD MLOAD PUSH1 0x60 DUP7 ADD MSTORE PUSH1 0x80 DUP7 ADD MLOAD ISZERO ISZERO PUSH1 0x80 DUP7 ADD MSTORE PUSH1 0xA0 DUP7 ADD MLOAD DUP6 DUP3 SUB PUSH1 0xA0 DUP8 ADD MSTORE PUSH2 0x1878 JUMP JUMPDEST PUSH1 0xC0 DUP6 ADD MLOAD DUP5 DUP3 SUB PUSH1 0xC0 DUP7 ADD MSTORE PUSH2 0x1878 JUMP JUMPDEST SWAP3 ADD MLOAD SWAP1 PUSH1 0xE0 DUP2 DUP5 SUB SWAP2 ADD MSTORE PUSH2 0x1878 JUMP JUMPDEST PUSH1 0x4 CALLDATALOAD SWAP1 PUSH1 0x1 PUSH1 0x1 PUSH1 0xA0 SHL SUB DUP3 AND DUP3 SUB PUSH2 0x131 JUMPI JUMP JUMPDEST SWAP3 SWAP2 SWAP1 PUSH1 0x40 DUP5 ADD SWAP1 PUSH1 0x40 DUP6 MSTORE DUP1 MLOAD DUP1 SWAP3 MSTORE PUSH1 0x60 DUP6 ADD SWAP2 PUSH1 0x60 DUP2 PUSH1 0x5 SHL DUP8 ADD ADD SWAP2 PUSH1 0x20 DUP1 SWAP2 ADD SWAP4 PUSH1 0x0 SWAP1 JUMPDEST DUP4 DUP3 LT PUSH2 0x1983 JUMPI POP POP POP POP PUSH1 0x20 SWAP2 POP SWAP4 ADD MSTORE JUMP JUMPDEST SWAP1 SWAP2 SWAP3 SWAP4 DUP4 DUP1 PUSH2 0x199F PUSH1 0x1 SWAP4 PUSH1 0x5F NOT DUP14 DUP3 SUB ADD DUP7 MSTORE DUP10 MLOAD PUSH2 0x189D JUMP JUMPDEST SWAP8 ADD SWAP3 ADD SWAP3 ADD SWAP1 SWAP5 SWAP4 SWAP3 SWAP2 PUSH2 0x196F JUMP JUMPDEST PUSH1 0x2 SLOAD DUP2 LT ISZERO PUSH2 0x19E6 JUMPI PUSH1 0x2 PUSH1 0x0 MSTORE PUSH32 0x405787FA12A823E0F2B7631CC41B3BA8828B3321CA811111FA75CD3AA3BB5ACE ADD SWAP1 PUSH1 0x0 SWAP1 JUMP JUMPDEST PUSH4 0x4E487B71 PUSH1 0xE0 SHL PUSH1 0x0 MSTORE PUSH1 0x32 PUSH1 0x4 MSTORE PUSH1 0x24 PUSH1 0x0 REVERT JUMPDEST SWAP2 SWAP1 DUP3 ADD DUP1 SWAP3 GT PUSH2 0x4DB JUMPI JUMP JUMPDEST SWAP2 SWAP1 DUP3 SUB SWAP2 DUP3 GT PUSH2 0x4DB JUMPI JUMP JUMPDEST DUP2 DUP2 LT PUSH2 0x1A21 JUMPI POP POP JUMP JUMPDEST PUSH1 0x0 DUP2 SSTORE PUSH1 0x1 ADD PUSH2 0x1A16 JUMP JUMPDEST SWAP2 SWAP1 PUSH1 0x1F DUP2 GT PUSH2 0x1A3C JUMPI POP POP POP JUMP JUMPDEST PUSH2 0x1815 SWAP3 PUSH1 0x0 MSTORE PUSH1 0x20 PUSH1 0x0 KECCAK256 SWAP1 PUSH1 0x20 PUSH1 0x1F DUP5 ADD PUSH1 0x5 SHR DUP4 ADD SWAP4 LT PUSH2 0x1A68 JUMPI JUMPDEST PUSH1 0x1F ADD PUSH1 0x5 SHR ADD SWAP1 PUSH2 0x1A16 JUMP JUMPDEST SWAP1 SWAP2 POP DUP2 SWAP1 PUSH2 0x1A5B JUMP JUMPDEST SWAP1 DUP1 DUP3 EQ PUSH2 0x1B52 JUMPI PUSH2 0x1A84 DUP2 SLOAD PUSH2 0x1799 JUMP JUMPDEST SWAP1 PUSH1 0x1 PUSH1 0x1 PUSH1 0x40 SHL SUB DUP3 GT PUSH2 0x476 JUMPI PUSH2 0x1AA7 DUP3 PUSH2 0x1AA1 DUP6 SLOAD PUSH2 0x1799 JUMP JUMPDEST DUP6 PUSH2 0x1A2D JUMP JUMPDEST PUSH1 0x0 SWAP1 PUSH1 0x1F DUP4 GT PUSH1 0x1 EQ PUSH2 0x1AE7 JUMPI PUSH2 0x1AD8 SWAP3 SWAP2 PUSH1 0x0 SWAP2 DUP4 PUSH2 0x1ADC JUMPI JUMPDEST POP POP DUP2 PUSH1 0x1 SHL SWAP2 PUSH1 0x0 NOT SWAP1 PUSH1 0x3 SHL SHR NOT AND OR SWAP1 JUMP JUMPDEST SWAP1 SSTORE JUMP JUMPDEST ADD SLOAD SWAP1 POP CODESIZE DUP1 PUSH2 0x1AC3 JUMP JUMPDEST DUP2 MSTORE PUSH1 0x20 DUP1 DUP3 KECCAK256 DUP5 DUP4 MSTORE DUP2 DUP4 KECCAK256 SWAP3 SWAP2 PUSH1 0x1F NOT DUP6 AND SWAP1 DUP4 SWAP1 JUMPDEST DUP3 DUP3 LT PUSH2 0x1B39 JUMPI POP POP SWAP1 DUP5 PUSH1 0x1 SWAP6 SWAP5 SWAP4 SWAP3 LT PUSH2 0x1B20 JUMPI JUMPDEST POP POP POP DUP2 SHL ADD SWAP1 SSTORE JUMP JUMPDEST ADD SLOAD PUSH1 0x0 NOT PUSH1 0xF8 DUP5 PUSH1 0x3 SHL AND SHR NOT AND SWAP1 SSTORE CODESIZE DUP1 DUP1 PUSH2 0x1B16 JUMP JUMPDEST DUP5 SWAP6 DUP2 SWAP3 SWAP6 DUP6 ADD SLOAD DUP2 SSTORE PUSH1 0x1 DUP1 SWAP2 ADD SWAP7 ADD SWAP5 ADD SWAP1 PUSH2 0x1AFF JUMP JUMPDEST POP POP JUMP JUMPDEST PUSH1 0x40 MLOAD SWAP1 DUP2 PUSH1 0x0 DUP3 SLOAD PUSH2 0x1B68 DUP2 PUSH2 0x1799 JUMP JUMPDEST SWAP4 PUSH1 0x1 SWAP2 DUP1 DUP4 AND SWAP1 DUP2 ISZERO PUSH2 0x1BCE JUMPI POP PUSH1 0x1 EQ PUSH2 0x1B90 JUMPI JUMPDEST POP POP PUSH1 0x20 SWAP3 POP PUSH1 0x1 DUP2 MSTORE SUB ADD SWAP1 KECCAK256 SWAP1 JUMP JUMPDEST SWAP1 SWAP2 POP PUSH1 0x0 MSTORE PUSH1 0x20 SWAP1 PUSH1 0x20 PUSH1 0x0 KECCAK256 SWAP1 PUSH1 0x0 SWAP2 JUMPDEST DUP6 DUP4 LT PUSH2 0x1BBA JUMPI POP POP POP POP PUSH1 0x20 SWAP2 DUP2 ADD CODESIZE DUP1 PUSH2 0x1B7F JUMP JUMPDEST DUP1 SLOAD DUP8 DUP5 ADD MSTORE DUP7 SWAP5 POP SWAP2 DUP4 ADD SWAP2 DUP2 ADD PUSH2 0x1BA3 JUMP JUMPDEST SWAP3 POP POP POP PUSH1 0x20 SWAP4 SWAP2 POP PUSH1 0xFF NOT AND DUP3 MSTORE DUP1 ISZERO ISZERO MUL DUP2 ADD CODESIZE DUP1 PUSH2 0x1B7F JUMP JUMPDEST PUSH2 0x1C02 SWAP1 PUSH1 0x20 PUSH1 0x40 MLOAD SWAP3 DUP3 DUP5 DUP1 SWAP5 MLOAD SWAP4 DUP5 SWAP3 ADD PUSH2 0x1776 JUMP JUMPDEST DUP2 ADD SUB SWAP1 KECCAK256 SWAP1 JUMP JUMPDEST PUSH1 0x40 MLOAD SWAP1 PUSH2 0x1C17 DUP3 PUSH2 0x16AE JUMP JUMPDEST DUP2 PUSH1 0xE0 PUSH1 0x60 SWAP2 DUP3 DUP2 MSTORE PUSH1 0x0 PUSH1 0x20 DUP3 ADD MSTORE DUP3 PUSH1 0x40 DUP3 ADD MSTORE PUSH1 0x0 DUP4 DUP3 ADD MSTORE PUSH1 0x0 PUSH1 0x80 DUP3 ADD MSTORE DUP3 PUSH1 0xA0 DUP3 ADD MSTORE DUP3 PUSH1 0xC0 DUP3 ADD MSTORE ADD MSTORE JUMP JUMPDEST PUSH1 0x0 NOT DUP2 EQ PUSH2 0x4DB JUMPI PUSH1 0x1 ADD SWAP1 JUMP JUMPDEST PUSH1 0x1 PUSH1 0x1 PUSH1 0x40 SHL SUB DUP2 GT PUSH2 0x476 JUMPI PUSH1 0x5 SHL PUSH1 0x20 ADD SWAP1 JUMP JUMPDEST SWAP1 PUSH2 0x1C7A DUP3 PUSH2 0x1C59 JUMP JUMPDEST PUSH2 0x1C87 PUSH1 0x40 MLOAD SWAP2 DUP3 PUSH2 0x16E5 JUMP JUMPDEST DUP3 DUP2 MSTORE DUP1 SWAP3 PUSH2 0x1C98 PUSH1 0x1F NOT SWAP2 PUSH2 0x1C59 JUMP JUMPDEST ADD SWAP1 PUSH1 0x0 JUMPDEST DUP3 DUP2 LT PUSH2 0x1CA9 JUMPI POP POP POP JUMP JUMPDEST PUSH1 0x20 SWAP1 PUSH2 0x1CB4 PUSH2 0x1C0A JUMP JUMPDEST DUP3 DUP3 DUP6 ADD ADD MSTORE ADD PUSH2 0x1C9D JUMP JUMPDEST DUP1 MLOAD DUP3 LT ISZERO PUSH2 0x19E6 JUMPI PUSH1 0x20 SWAP2 PUSH1 0x5 SHL ADD ADD SWAP1 JUMP JUMPDEST SWAP2 SWAP1 SWAP2 DUP3 MLOAD PUSH1 0x1 PUSH1 0x1 PUSH1 0x40 SHL SUB DUP2 GT PUSH2 0x476 JUMPI PUSH2 0x1CFB DUP2 PUSH2 0x1CF5 DUP5 SLOAD PUSH2 0x1799 JUMP JUMPDEST DUP5 PUSH2 0x1A2D JUMP JUMPDEST PUSH1 0x20 DUP1 PUSH1 0x1F DUP4 GT PUSH1 0x1 EQ PUSH2 0x1D39 JUMPI POP DUP2 SWAP1 PUSH2 0x1AD8 SWAP4 SWAP5 SWAP6 PUSH1 0x0 SWAP3 PUSH2 0x1D2E JUMPI POP POP DUP2 PUSH1 0x1 SHL SWAP2 PUSH1 0x0 NOT SWAP1 PUSH1 0x3 SHL SHR NOT AND OR SWAP1 JUMP JUMPDEST ADD MLOAD SWAP1 POP CODESIZE DUP1 PUSH2 0x1AC3 JUMP JUMPDEST SWAP1 PUSH1 0x1F NOT DUP4 AND SWAP6 DUP5 PUSH1 0x0 MSTORE PUSH1 0x20 PUSH1 0x0 KECCAK256 SWAP3 PUSH1 0x0 SWAP1 JUMPDEST DUP9 DUP3 LT PUSH2 0x1D85 JUMPI POP POP DUP4 PUSH1 0x1 SWAP6 SWAP7 SWAP8 LT PUSH2 0x1D6C JUMPI POP POP POP DUP2 SHL ADD SWAP1 SSTORE JUMP JUMPDEST ADD MLOAD PUSH1 0x0 NOT PUSH1 0xF8 DUP5 PUSH1 0x3 SHL AND SHR NOT AND SWAP1 SSTORE CODESIZE DUP1 DUP1 PUSH2 0x1B16 JUMP JUMPDEST DUP1 PUSH1 0x1 DUP6 SWAP7 DUP3 SWAP5 SWAP7 DUP7 ADD MLOAD DUP2 SSTORE ADD SWAP6 ADD SWAP4 ADD SWAP1 PUSH2 0x1D4E JUMP JUMPDEST PUSH1 0x1 PUSH1 0x1 PUSH1 0xA0 SHL SUB SWAP1 DUP2 AND SWAP1 DUP2 ISZERO PUSH2 0x1DF8 JUMPI PUSH1 0x0 DUP1 MLOAD PUSH1 0x20 PUSH2 0x2042 DUP4 CODECOPY DUP2 MLOAD SWAP2 MSTORE DUP1 SLOAD PUSH1 0x1 PUSH1 0x1 PUSH1 0xA0 SHL SUB NOT DUP2 AND DUP5 OR SWAP1 SWAP2 SSTORE AND PUSH32 0x8BE0079C531659141344CD1FD0A4F28419497F9722A3DAAFE3B4186F6B6457E0 PUSH1 0x0 DUP1 LOG3 JUMP JUMPDEST PUSH1 0x40 MLOAD PUSH4 0x1E4FBDF7 PUSH1 0xE0 SHL DUP2 MSTORE PUSH1 0x0 PUSH1 0x4 DUP3 ADD MSTORE PUSH1 0x24 SWAP1 REVERT JUMPDEST PUSH1 0x0 DUP1 MLOAD PUSH1 0x20 PUSH2 0x2062 DUP4 CODECOPY DUP2 MLOAD SWAP2 MSTORE PUSH1 0x2 DUP2 SLOAD EQ PUSH2 0x1E2F JUMPI PUSH1 0x2 SWAP1 SSTORE JUMP JUMPDEST PUSH1 0x40 MLOAD PUSH4 0x3EE5AEB5 PUSH1 0xE0 SHL DUP2 MSTORE PUSH1 0x4 SWAP1 REVERT JUMPDEST PUSH1 0x40 MLOAD PUSH4 0xA9059CBB PUSH1 0xE0 SHL PUSH1 0x20 DUP3 ADD MSTORE PUSH1 0x1 PUSH1 0x1 PUSH1 0xA0 SHL SUB SWAP1 SWAP3 AND PUSH1 0x24 DUP4 ADD MSTORE PUSH1 0x44 DUP1 DUP4 ADD SWAP4 SWAP1 SWAP4 MSTORE SWAP2 DUP2 MSTORE PUSH1 0x80 DUP2 ADD SWAP2 PUSH1 0x1 PUSH1 0x1 PUSH1 0x40 SHL SUB DUP4 GT DUP3 DUP5 LT OR PUSH2 0x476 JUMPI PUSH2 0x1815 SWAP3 PUSH1 0x40 MSTORE PUSH2 0x1F21 JUMP JUMPDEST PUSH1 0x40 MLOAD PUSH4 0x23B872DD PUSH1 0xE0 SHL PUSH1 0x20 DUP3 ADD MSTORE PUSH1 0x1 PUSH1 0x1 PUSH1 0xA0 SHL SUB SWAP3 DUP4 AND PUSH1 0x24 DUP3 ADD MSTORE SWAP3 SWAP1 SWAP2 AND PUSH1 0x44 DUP4 ADD MSTORE PUSH1 0x64 DUP1 DUP4 ADD SWAP4 SWAP1 SWAP4 MSTORE SWAP2 DUP2 MSTORE PUSH1 0xA0 DUP2 ADD SWAP2 DUP2 DUP4 LT PUSH1 0x1 PUSH1 0x1 PUSH1 0x40 SHL SUB DUP5 GT OR PUSH2 0x476 JUMPI PUSH2 0x1815 SWAP3 PUSH1 0x40 MSTORE PUSH2 0x1F21 JUMP JUMPDEST PUSH1 0x0 DUP1 MLOAD PUSH1 0x20 PUSH2 0x2042 DUP4 CODECOPY DUP2 MLOAD SWAP2 MSTORE SLOAD PUSH1 0x1 PUSH1 0x1 PUSH1 0xA0 SHL SUB AND CALLER SUB PUSH2 0x1F09 JUMPI JUMP JUMPDEST PUSH1 0x40 MLOAD PUSH4 0x118CDAA7 PUSH1 0xE0 SHL DUP2 MSTORE CALLER PUSH1 0x4 DUP3 ADD MSTORE PUSH1 0x24 SWAP1 REVERT JUMPDEST SWAP1 PUSH1 0x0 PUSH1 0x20 SWAP2 DUP3 DUP2 MLOAD SWAP2 ADD DUP3 DUP6 GAS CALL ISZERO PUSH2 0x4CF JUMPI PUSH1 0x0 MLOAD RETURNDATASIZE PUSH2 0x1F74 JUMPI POP PUSH1 0x1 PUSH1 0x1 PUSH1 0xA0 SHL SUB DUP2 AND EXTCODESIZE ISZERO JUMPDEST PUSH2 0x1F52 JUMPI POP JUMP JUMPDEST PUSH1 0x40 MLOAD PUSH4 0x5274AFE7 PUSH1 0xE0 SHL DUP2 MSTORE PUSH1 0x1 PUSH1 0x1 PUSH1 0xA0 SHL SUB SWAP1 SWAP2 AND PUSH1 0x4 DUP3 ADD MSTORE PUSH1 0x24 SWAP1 REVERT JUMPDEST PUSH1 0x1 EQ ISZERO PUSH2 0x1F4B JUMP JUMPDEST PUSH1 0xFF PUSH32 0xF0C57E16840DF040F15088DC2F81FE391C3923BEC73E23A9662EFC9C229C6A00 SLOAD PUSH1 0x40 SHR AND ISZERO PUSH2 0x1FAC JUMPI JUMP JUMPDEST PUSH1 0x40 MLOAD PUSH4 0x1AFCD79F PUSH1 0xE3 SHL DUP2 MSTORE PUSH1 0x4 SWAP1 REVERT JUMPDEST SWAP1 PUSH2 0x1FE5 JUMPI POP DUP1 MLOAD ISZERO PUSH2 0x1FD3 JUMPI DUP1 MLOAD SWAP1 PUSH1 0x20 ADD REVERT JUMPDEST PUSH1 0x40 MLOAD PUSH4 0xD6BDA275 PUSH1 0xE0 SHL DUP2 MSTORE PUSH1 0x4 SWAP1 REVERT JUMPDEST DUP2 MLOAD ISZERO DUP1 PUSH2 0x2018 JUMPI JUMPDEST PUSH2 0x1FF6 JUMPI POP SWAP1 JUMP JUMPDEST PUSH1 0x40 MLOAD PUSH4 0x9996B315 PUSH1 0xE0 SHL DUP2 MSTORE PUSH1 0x1 PUSH1 0x1 PUSH1 0xA0 SHL SUB SWAP1 SWAP2 AND PUSH1 0x4 DUP3 ADD MSTORE PUSH1 0x24 SWAP1 REVERT JUMPDEST POP DUP1 EXTCODESIZE ISZERO PUSH2 0x1FEE JUMP INVALID SAR PUSH3 0x98F49F 0xC1 SLOAD 0x49 0xB7 DUP14 0xF9 0x1F 0xCC 0xA6 DUP2 0x21 CALLDATASIZE 0xED 0xC2 SWAP8 0x23 PUSH7 0xCB70AA0D9145A3 ADDMOD 0xCD BALANCE SWAP1 AND 0xD0 SWAP14 PUSH19 0xD40FDAE2FD8CEAC6B6234C7706214FD39C1CD1 0xE6 MULMOD LOG0 MSTORE DUP13 NOT SWAP4 STOP SWAP12 PUSH24 0x9B17422D0DF92223018B32B4D1FA46E071723D6817E2486D STOP EXTCODESIZE 0xEC 0xC5 PUSH0 STOP LOG2 PUSH5 0x6970667358 0x22 SLT KECCAK256 SHL 0xAB 0xB2 SWAP4 PREVRANDAO DUP2 0x1F 0xE8 0x2C 0xA6 RETURN PUSH6 0x241890425269 0xEB 0x25 BALANCE 0x25 MSIZE DUP1 PUSH31 0xED27BD9379CD1F64736F6C6343000816003300000000000000000000000000 "},"methodIdentifiers":{"FEE_BASIS_POINTS()":"a525ad3c","MAX_CONTACT_LENGTH()":"f2bc9a0e","MAX_PAGE_SIZE()":"48f4da20","UPGRADE_INTERFACE_VERSION()":"ad3cb1cc","delistLand(string)":"278dad40","getAllLandListingsPaginated(uint256,uint256)":"a75554cd","getLandListing(string)":"35fe1a76","getTotalActiveListings()":"a5298c4a","getUserListingsPaginated(address,uint256,uint256)":"57b06e8c","initialize(address)":"c4d66de8","landIdIndices(string)":"86a197f9","landIds(uint256)":"903a9451","landListings(string)":"32778954","listLand(string,string,uint256,string)":"efb85b72","owner()":"8da5cb5b","proxiableUUID()":"52d1902d","renounceOwnership()":"715018a6","transferOwnership(address)":"f2fde38b","updateLandCollateral(string,uint256)":"6cf3dcfc","upgradeToAndCall(address,bytes)":"4f1ef286","weedlToken()":"3b9c8cfe"}},"storageLayout":{"storage":[{"astId":4549,"contract":"contracts/GreenFiLand.sol:GreenFiLand","label":"weedlToken","offset":0,"slot":"0","type":"t_contract(IERC20)2353"},{"astId":4580,"contract":"contracts/GreenFiLand.sol:GreenFiLand","label":"landListings","offset":0,"slot":"1","type":"t_mapping(t_string_memory_ptr,t_struct(LandListing)4575_storage)"},{"astId":4583,"contract":"contracts/GreenFiLand.sol:GreenFiLand","label":"landIds","offset":0,"slot":"2","type":"t_array(t_string_storage)dyn_storage"},{"astId":4587,"contract":"contracts/GreenFiLand.sol:GreenFiLand","label":"landIdIndices","offset":0,"slot":"3","type":"t_mapping(t_string_memory_ptr,t_uint256)"}],"types":{"t_address":{"encoding":"inplace","label":"address","numberOfBytes":"20"},"t_array(t_string_storage)dyn_storage":{"base":"t_string_storage","encoding":"dynamic_array","label":"string[]","numberOfBytes":"32"},"t_bool":{"encoding":"inplace","label":"bool","numberOfBytes":"1"},"t_contract(IERC20)2353":{"encoding":"inplace","label":"contract IERC20","numberOfBytes":"20"},"t_mapping(t_string_memory_ptr,t_struct(LandListing)4575_storage)":{"encoding":"mapping","key":"t_string_memory_ptr","label":"mapping(string => struct GreenFiLand.LandListing)","numberOfBytes":"32","value":"t_struct(LandListing)4575_storage"},"t_mapping(t_string_memory_ptr,t_uint256)":{"encoding":"mapping","key":"t_string_memory_ptr","label":"mapping(string => uint256)","numberOfBytes":"32","value":"t_uint256"},"t_string_memory_ptr":{"encoding":"bytes","label":"string","numberOfBytes":"32"},"t_string_storage":{"encoding":"bytes","label":"string","numberOfBytes":"32"},"t_struct(LandListing)4575_storage":{"encoding":"inplace","label":"struct GreenFiLand.LandListing","members":[{"astId":4560,"contract":"contracts/GreenFiLand.sol:GreenFiLand","label":"id","offset":0,"slot":"0","type":"t_string_storage"},{"astId":4562,"contract":"contracts/GreenFiLand.sol:GreenFiLand","label":"owner","offset":0,"slot":"1","type":"t_address"},{"astId":4564,"contract":"contracts/GreenFiLand.sol:GreenFiLand","label":"metadataURI","offset":0,"slot":"2","type":"t_string_storage"},{"astId":4566,"contract":"contracts/GreenFiLand.sol:GreenFiLand","label":"collateralValue","offset":0,"slot":"3","type":"t_uint256"},{"astId":4568,"contract":"contracts/GreenFiLand.sol:GreenFiLand","label":"isActive","offset":0,"slot":"4","type":"t_bool"},{"astId":4570,"contract":"contracts/GreenFiLand.sol:GreenFiLand","label":"loanId","offset":0,"slot":"5","type":"t_string_storage"},{"astId":4572,"contract":"contracts/GreenFiLand.sol:GreenFiLand","label":"borrowId","offset":0,"slot":"6","type":"t_string_storage"},{"astId":4574,"contract":"contracts/GreenFiLand.sol:GreenFiLand","label":"contactInfo","offset":0,"slot":"7","type":"t_string_storage"}],"numberOfBytes":"256"},"t_uint256":{"encoding":"inplace","label":"uint256","numberOfBytes":"32"}}}}}}