{"contracts/GreenFiStaking.sol":{"GreenFiStaking":{"abi":[{"inputs":[{"internalType":"address","name":"target","type":"address"}],"name":"AddressEmptyCode","type":"error"},{"inputs":[{"internalType":"address","name":"implementation","type":"address"}],"name":"ERC1967InvalidImplementation","type":"error"},{"inputs":[],"name":"ERC1967NonPayable","type":"error"},{"inputs":[],"name":"FailedCall","type":"error"},{"inputs":[],"name":"InvalidInitialization","type":"error"},{"inputs":[],"name":"NotInitializing","type":"error"},{"inputs":[{"internalType":"address","name":"owner","type":"address"}],"name":"OwnableInvalidOwner","type":"error"},{"inputs":[{"internalType":"address","name":"account","type":"address"}],"name":"OwnableUnauthorizedAccount","type":"error"},{"inputs":[],"name":"ReentrancyGuardReentrantCall","type":"error"},{"inputs":[{"internalType":"address","name":"token","type":"address"}],"name":"SafeERC20FailedOperation","type":"error"},{"inputs":[],"name":"UUPSUnauthorizedCallContext","type":"error"},{"inputs":[{"internalType":"bytes32","name":"slot","type":"bytes32"}],"name":"UUPSUnsupportedProxiableUUID","type":"error"},{"anonymous":false,"inputs":[{"indexed":false,"internalType":"uint64","name":"version","type":"uint64"}],"name":"Initialized","type":"event"},{"anonymous":false,"inputs":[{"indexed":true,"internalType":"address","name":"previousOwner","type":"address"},{"indexed":true,"internalType":"address","name":"newOwner","type":"address"}],"name":"OwnershipTransferred","type":"event"},{"anonymous":false,"inputs":[{"indexed":true,"internalType":"address","name":"user","type":"address"},{"indexed":false,"internalType":"uint256","name":"reward","type":"uint256"}],"name":"RewardClaimed","type":"event"},{"anonymous":false,"inputs":[{"indexed":true,"internalType":"address","name":"user","type":"address"},{"indexed":false,"internalType":"uint256","name":"amount","type":"uint256"},{"indexed":false,"internalType":"uint256","name":"duration","type":"uint256"},{"indexed":false,"internalType":"uint256","name":"startTime","type":"uint256"}],"name":"Staked","type":"event"},{"anonymous":false,"inputs":[{"indexed":true,"internalType":"address","name":"user","type":"address"},{"indexed":false,"internalType":"uint256","name":"amount","type":"uint256"},{"indexed":false,"internalType":"uint256","name":"reward","type":"uint256"}],"name":"Unstaked","type":"event"},{"anonymous":false,"inputs":[{"indexed":true,"internalType":"address","name":"implementation","type":"address"}],"name":"Upgraded","type":"event"},{"inputs":[],"name":"FEE_BASIS_POINTS","outputs":[{"internalType":"uint256","name":"","type":"uint256"}],"stateMutability":"view","type":"function"},{"inputs":[],"name":"REWARD_RATE","outputs":[{"internalType":"uint256","name":"","type":"uint256"}],"stateMutability":"view","type":"function"},{"inputs":[],"name":"SECONDS_PER_YEAR","outputs":[{"internalType":"uint256","name":"","type":"uint256"}],"stateMutability":"view","type":"function"},{"inputs":[],"name":"UPGRADE_INTERFACE_VERSION","outputs":[{"internalType":"string","name":"","type":"string"}],"stateMutability":"view","type":"function"},{"inputs":[],"name":"claimReward","outputs":[],"stateMutability":"nonpayable","type":"function"},{"inputs":[],"name":"getTotalStaked","outputs":[{"internalType":"uint256","name":"","type":"uint256"}],"stateMutability":"view","type":"function"},{"inputs":[{"internalType":"address","name":"_user","type":"address"}],"name":"getUserStakes","outputs":[{"components":[{"internalType":"address","name":"user","type":"address"},{"internalType":"uint256","name":"amount","type":"uint256"},{"internalType":"uint256","name":"startTime","type":"uint256"},{"internalType":"uint256","name":"duration","type":"uint256"},{"internalType":"uint256","name":"rewardDebt","type":"uint256"},{"internalType":"bool","name":"isActive","type":"bool"}],"internalType":"struct GreenFiStaking.Stake[]","name":"","type":"tuple[]"}],"stateMutability":"view","type":"function"},{"inputs":[{"internalType":"address","name":"_weedlToken","type":"address"}],"name":"initialize","outputs":[],"stateMutability":"nonpayable","type":"function"},{"inputs":[],"name":"owner","outputs":[{"internalType":"address","name":"","type":"address"}],"stateMutability":"view","type":"function"},{"inputs":[],"name":"proxiableUUID","outputs":[{"internalType":"bytes32","name":"","type":"bytes32"}],"stateMutability":"view","type":"function"},{"inputs":[],"name":"renounceOwnership","outputs":[],"stateMutability":"nonpayable","type":"function"},{"inputs":[{"internalType":"uint256","name":"_amount","type":"uint256"},{"internalType":"uint256","name":"_duration","type":"uint256"}],"name":"stake","outputs":[],"stateMutability":"nonpayable","type":"function"},{"inputs":[{"internalType":"address","name":"_user","type":"address"}],"name":"stakes","outputs":[{"components":[{"internalType":"address","name":"user","type":"address"},{"internalType":"uint256","name":"amount","type":"uint256"},{"internalType":"uint256","name":"startTime","type":"uint256"},{"internalType":"uint256","name":"duration","type":"uint256"},{"internalType":"uint256","name":"rewardDebt","type":"uint256"},{"internalType":"bool","name":"isActive","type":"bool"}],"internalType":"struct GreenFiStaking.Stake","name":"","type":"tuple"}],"stateMutability":"view","type":"function"},{"inputs":[{"internalType":"address","name":"newOwner","type":"address"}],"name":"transferOwnership","outputs":[],"stateMutability":"nonpayable","type":"function"},{"inputs":[{"internalType":"uint256","name":"_amount","type":"uint256"}],"name":"unstake","outputs":[],"stateMutability":"nonpayable","type":"function"},{"inputs":[{"internalType":"address","name":"newImplementation","type":"address"},{"internalType":"bytes","name":"data","type":"bytes"}],"name":"upgradeToAndCall","outputs":[],"stateMutability":"payable","type":"function"},{"inputs":[],"name":"weedlToken","outputs":[{"internalType":"contract IERC20","name":"","type":"address"}],"stateMutability":"view","type":"function"}],"evm":{"bytecode":{"linkReferences":{},"object":"60a0806040523461002a573060805261154c908161003082396080518181816109a50152610a840152f35b600080fdfe60806040908082526004918236101561001757600080fd5b600092833560e01c9283630917e77614610fcc5750826316934fc414610f5d5782632e17de7814610c9b5782633b9c8cfe14610c735782634f1ef28614610a0957826352d1902d146109905782635997bb3714610973578263715018a6146109095782637b0472f0146106c7578263842e2981146105985782638da5cb5b14610562578263a525ad3c14610546578263ad3cb1cc146104a6578263b88a802f146102f2578263c4d66de81461013457508163e6a69ab814610111575063f2fde38b146100e257600080fd5b3461010e57602036600319011261010e5761010b6100fe610fe8565b610106611391565b61124e565b80f35b80fd5b905034610130578160031936011261013057602090516301e133808152f35b5080fd5b909150346102ee5760203660031901126102ee57610150610fe8565b7ff0c57e16840df040f15088dc2f81fe391c3923bec73e23a9662efc9c229c6a009182549160ff83861c16159267ffffffffffffffff8116801590816102e6575b60011490816102dc575b1590816102d3575b506102c35767ffffffffffffffff1981166001178555836102a4575b506001600160a01b031690811561026c57506101d9611432565b6101e1611432565b6101ea3361124e565b6101f2611432565b6101fa611432565b610202611432565b60016000805160206114f78339815191525584546001600160a01b03191617845561022b578280f35b805468ff00000000000000001916905551600181527fc7f505b2f371ae2175ee4913f4499e1f2633a7b5936321eed1cdaeb6115181d290602090a138808280f35b606490602086519162461bcd60e51b835282015260126024820152715a65726f20746f6b656e206164647265737360701b6044820152fd5b68ffffffffffffffffff191668010000000000000001178455386101bf565b855163f92ee8a960e01b81528390fd5b905015386101a3565b303b15915061019b565b859150610191565b8280fd5b909150346102ee57826003193601126102ee5761030d6112c2565b33835260019182602052808420918385938187905b6103be575b50505082156103865750835461034990839033906001600160a01b031661133f565b519081527f106f923f993c2149d49b4255ff723acafa1f2d94393f561d3eda32ae348f724160203392a26000805160206114f78339815191525580f35b6020606492519162461bcd60e51b835282015260136024820152724e6f207265776172647320746f20636c61696d60681b6044820152fd5b81548110156104a1578060ff60056103d7869486611073565b5001541615801561048c575b610487576103f18184611073565b50600280910154906104146104068487611073565b50926003809401549061121e565b421015610426575b50505b0182610322565b6104659161045e91856104398689611073565b500154916104478689611073565b500154906104558689611073565b500154916112f2565b809861121e565b9661047e866104748487611073565b500191825461121e565b9055388061041c565b61041f565b50816104988285611073565b500154156103e3565b610327565b909150346102ee57826003193601126102ee578151908282019082821067ffffffffffffffff8311176105335750825260058152602090640352e302e360dc1b6020820152825193849260208452825192836020860152825b84811061051d57505050828201840152601f01601f19168101030190f35b81810183015188820188015287955082016104ff565b634e487b7160e01b855260419052602484fd5b83823461013057816003193601126101305760209051602a8152f35b8382346101305781600319360112610130576000805160206114d78339815191525490516001600160a01b039091168152602090f35b90833461010e5760209283600319360112610130576001600160a01b036105bd610fe8565b168252600193600181528383209283549267ffffffffffffffff84116106b45750849286928451916105f4828260051b0184611035565b8083528183018097855282852085915b83831061068b57505050508451948186019282875251809352850195925b82811061062f5785870386f35b909192938260c08861067e849a895160a08091600180831b0381511684526020810151602085015260408101516040850152606081015160608501526080810151608085015201511515910152565b0197950193929101610622565b96600685829b9961069f859a98999a6110a5565b81520192019201919098969895949395610604565b634e487b7160e01b825260419052602490fd5b8382346101305780600319360112610130578235906024938435906106ea6112c2565b83156106f681156111d2565b82156108c757602a850290858204602a1417156108b55761271061071b91048561121e565b855484516323b872dd60e01b602082015233898201523060448201526064808201939093529182526001600160a01b03929190831660a0820167ffffffffffffffff8111838210176108a357865261077391906113ca565b83519061077f82611003565b33825260208201868152858301428152606084019086825260808501928a845260a086019660018852338c526001602052898c208054906801000000000000000082101561089157906107d791600182018155611073565b97909761088057600598999a9b9c9d5051166bffffffffffffffffffffffff60a01b8754161786555160018601555160028501555160038401555190820155019051151560ff801983541691161790556108338360025461121e565b6002558151928352602083015242908201527fb4caaf29adda3eefee3ad552a8e85058589bf834c7466cae4ee58787f70589ed60603392a260016000805160206114f78339815191525580f35b634e487b7160e01b8d528c87528d8dfd5b634e487b7160e01b8e52604188528e8efd5b634e487b7160e01b8952604184528989fd5b634e487b7160e01b8652601182528686fd5b835162461bcd60e51b8152602081840152601f818901527f4475726174696f6e206d7573742062652067726561746572207468616e2030006044820152606490fd5b833461010e578060031936011261010e57610922611391565b6000805160206114d783398151915280546001600160a01b0319811690915581906001600160a01b03167f8be0079c531659141344cd1fd0a4f28419497f9722a3daafe3b4186f6b6457e08280a380f35b838234610130578160031936011261013057602090516101a48152f35b90833461010e578060031936011261010e57507f00000000000000000000000000000000000000000000000000000000000000006001600160a01b031630036109fc57602090517f360894a13ba1a3210667c828492db98dca3e2076cc3735a920a3ca505d382bbc8152f35b5163703e46dd60e11b8152fd5b9150806003193601126102ee57610a1e610fe8565b90602493843567ffffffffffffffff811161013057366023820112156101305780850135610a4b81611057565b94610a5885519687611035565b81865260209182870193368a8383010111610c6f578186928b8693018737880101526001600160a01b037f00000000000000000000000000000000000000000000000000000000000000008116308114908115610c41575b50610c3157610abd611391565b81169585516352d1902d60e01b815283818a818b5afa869181610bfe575b50610af7575050505050505191634c9c8ce360e01b8352820152fd5b9088888894938c7f360894a13ba1a3210667c828492db98dca3e2076cc3735a920a3ca505d382bbc91828103610be95750853b15610bd5575080546001600160a01b031916821790558451889392917fbc7cd75a20ee27fd9adebab32041f755214dbc6bffa90cc0225b39da2e5c2d3b8580a2825115610bb7575050610ba99582915190845af4913d15610bad573d610b9b610b9282611057565b92519283611035565b81528581943d92013e611473565b5080f35b5060609250611473565b955095505050505034610bc957505080f35b63b398979f60e01b8152fd5b8651634c9c8ce360e01b8152808501849052fd5b8751632a87526960e21b815280860191909152fd5b9091508481813d8311610c2a575b610c168183611035565b81010312610c2657519038610adb565b8680fd5b503d610c0c565b855163703e46dd60e11b81528890fd5b9050817f360894a13ba1a3210667c828492db98dca3e2076cc3735a920a3ca505d382bbc5416141538610ab0565b8580fd5b838234610130578160031936011261013057905490516001600160a01b039091168152602090f35b9150346102ee576020906020600319360112610f5957823591610cbc6112c2565b610cc78315156111d2565b3385526001938460205282862091849086889489915b610d92575b505050610d4f575084547f7fc4727e062e336010f2c282598ef5f14facb3de68cf8195c2f23e1454b2b74e929190610d2f906001600160a01b0316610d27838761121e565b90339061133f565b815193845260208401523392a26000805160206114f78339815191525580f35b606490602084519162461bcd60e51b8352820152601b60248201527f496e73756666696369656e74207374616b65642062616c616e636500000000006044820152fd5b919490928254841080610f50575b15610f4757610daf8484611073565b5060ff60058092015416158015610f32575b610f2857610dcf8585611073565b509060028092015490610de56104068888611073565b4210610eed578b610df68888611073565b5001549084821115610e7f57505091610e4d91610e5394938c610e198989611073565b5001610e26848254611241565b9055610e33838354611241565b8255610e3f8888611073565b500154906104558888611073565b9061121e565b9388925b6000198114610e6c5790919088019088610cdd565b634e487b7160e01b8a526011855260248afd5b610ed89499959193610ed293610e4d92610e998b8b611073565b500160ff198154169055610eae868354611241565b8255610eba8a8a611073565b50015490610ec88a8a611073565b50015490856112f2565b96611241565b928989610ee58386611073565b500155610e57565b895162461bcd60e51b81528089018a9052601560248201527414dd185ad9481a5cc81cdd1a5b1b081b1bd8dad959605a1b6044820152606490fd5b5092949094610e57565b5089610f3e8686611073565b50015415610dc1565b92819550610ce2565b50801515610da0565b8380fd5b8382346101305760203660031901126101305760c090610fca610f86610f81610fe8565b6110f9565b9151809260a08091600180831b0381511684526020810151602085015260408101516040850152606081015160608501526080810151608085015201511515910152565bf35b8490346101305781600319360112610130576020906002548152f35b600435906001600160a01b0382168203610ffe57565b600080fd5b60c0810190811067ffffffffffffffff82111761101f57604052565b634e487b7160e01b600052604160045260246000fd5b90601f8019910116810190811067ffffffffffffffff82111761101f57604052565b67ffffffffffffffff811161101f57601f01601f191660200190565b805482101561108f576000526006602060002091020190600090565b634e487b7160e01b600052603260045260246000fd5b906040516110b281611003565b82546001600160a01b031681526001830154602082015260028301546040820152600383015460608201526004830154608082015260059092015460ff16151560a0830152565b60a09060405161110881611003565b6000928184809352826020820152826040820152826060820152826080820152015260018060a01b031681526001806020526040822082908054915b82811061117f57505050506040519061115c82611003565b80825280602083015280604083015280606083015280608083015260a082015290565b60ff600561118d8385611073565b50015416806111bc575b6111a2578301611144565b91506111b993506111b39250611073565b506110a5565b90565b50836111c88284611073565b5001541515611197565b156111d957565b60405162461bcd60e51b815260206004820152601d60248201527f416d6f756e74206d7573742062652067726561746572207468616e20300000006044820152606490fd5b9190820180921161122b57565b634e487b7160e01b600052601160045260246000fd5b9190820391821161122b57565b6001600160a01b039081169081156112a9576000805160206114d783398151915280546001600160a01b031981168417909155167f8be0079c531659141344cd1fd0a4f28419497f9722a3daafe3b4186f6b6457e0600080a3565b604051631e4fbdf760e01b815260006004820152602490fd5b6000805160206114f783398151915260028154146112e05760029055565b604051633ee5aeb560e01b8152600490fd5b90916112fe9042611241565b91808311611337575b506101a48082029180830482148115171561122b5783020291818304149015171561122b5764496cebb800900490565b915038611307565b60405163a9059cbb60e01b60208201526001600160a01b039092166024830152604480830193909352918152608081019167ffffffffffffffff83118284101761101f5761138f926040526113ca565b565b6000805160206114d7833981519152546001600160a01b031633036113b257565b60405163118cdaa760e01b8152336004820152602490fd5b906000602091828151910182855af115611426576000513d61141d57506001600160a01b0381163b155b6113fb5750565b604051635274afe760e01b81526001600160a01b039091166004820152602490fd5b600114156113f4565b6040513d6000823e3d90fd5b60ff7ff0c57e16840df040f15088dc2f81fe391c3923bec73e23a9662efc9c229c6a005460401c161561146157565b604051631afcd79f60e31b8152600490fd5b9061149a575080511561148857805190602001fd5b60405163d6bda27560e01b8152600490fd5b815115806114cd575b6114ab575090565b604051639996b31560e01b81526001600160a01b039091166004820152602490fd5b50803b156114a356fe9016d09d72d40fdae2fd8ceac6b6234c7706214fd39c1cd1e609a0528c1993009b779b17422d0df92223018b32b4d1fa46e071723d6817e2486d003becc55f00a2646970667358221220a08fdbd61be2720222caf663e2fa2467d188fff56c5e9947ac94b256f7bffe3264736f6c63430008160033","opcodes":"PUSH1 0xA0 DUP1 PUSH1 0x40 MSTORE CALLVALUE PUSH2 0x2A JUMPI ADDRESS PUSH1 0x80 MSTORE PUSH2 0x154C SWAP1 DUP2 PUSH2 0x30 DUP3 CODECOPY PUSH1 0x80 MLOAD DUP2 DUP2 DUP2 PUSH2 0x9A5 ADD MSTORE PUSH2 0xA84 ADD MSTORE RETURN JUMPDEST PUSH1 0x0 DUP1 REVERT INVALID PUSH1 0x80 PUSH1 0x40 SWAP1 DUP1 DUP3 MSTORE PUSH1 0x4 SWAP2 DUP3 CALLDATASIZE LT ISZERO PUSH2 0x17 JUMPI PUSH1 0x0 DUP1 REVERT JUMPDEST PUSH1 0x0 SWAP3 DUP4 CALLDATALOAD PUSH1 0xE0 SHR SWAP3 DUP4 PUSH4 0x917E776 EQ PUSH2 0xFCC JUMPI POP DUP3 PUSH4 0x16934FC4 EQ PUSH2 0xF5D JUMPI DUP3 PUSH4 0x2E17DE78 EQ PUSH2 0xC9B JUMPI DUP3 PUSH4 0x3B9C8CFE EQ PUSH2 0xC73 JUMPI DUP3 PUSH4 0x4F1EF286 EQ PUSH2 0xA09 JUMPI DUP3 PUSH4 0x52D1902D EQ PUSH2 0x990 JUMPI DUP3 PUSH4 0x5997BB37 EQ PUSH2 0x973 JUMPI DUP3 PUSH4 0x715018A6 EQ PUSH2 0x909 JUMPI DUP3 PUSH4 0x7B0472F0 EQ PUSH2 0x6C7 JUMPI DUP3 PUSH4 0x842E2981 EQ PUSH2 0x598 JUMPI DUP3 PUSH4 0x8DA5CB5B EQ PUSH2 0x562 JUMPI DUP3 PUSH4 0xA525AD3C EQ PUSH2 0x546 JUMPI DUP3 PUSH4 0xAD3CB1CC EQ PUSH2 0x4A6 JUMPI DUP3 PUSH4 0xB88A802F EQ PUSH2 0x2F2 JUMPI DUP3 PUSH4 0xC4D66DE8 EQ PUSH2 0x134 JUMPI POP DUP2 PUSH4 0xE6A69AB8 EQ PUSH2 0x111 JUMPI POP PUSH4 0xF2FDE38B EQ PUSH2 0xE2 JUMPI PUSH1 0x0 DUP1 REVERT JUMPDEST CALLVALUE PUSH2 0x10E JUMPI PUSH1 0x20 CALLDATASIZE PUSH1 0x3 NOT ADD SLT PUSH2 0x10E JUMPI PUSH2 0x10B PUSH2 0xFE PUSH2 0xFE8 JUMP JUMPDEST PUSH2 0x106 PUSH2 0x1391 JUMP JUMPDEST PUSH2 0x124E JUMP JUMPDEST DUP1 RETURN JUMPDEST DUP1 REVERT JUMPDEST SWAP1 POP CALLVALUE PUSH2 0x130 JUMPI DUP2 PUSH1 0x3 NOT CALLDATASIZE ADD SLT PUSH2 0x130 JUMPI PUSH1 0x20 SWAP1 MLOAD PUSH4 0x1E13380 DUP2 MSTORE RETURN JUMPDEST POP DUP1 REVERT JUMPDEST SWAP1 SWAP2 POP CALLVALUE PUSH2 0x2EE JUMPI PUSH1 0x20 CALLDATASIZE PUSH1 0x3 NOT ADD SLT PUSH2 0x2EE JUMPI PUSH2 0x150 PUSH2 0xFE8 JUMP JUMPDEST PUSH32 0xF0C57E16840DF040F15088DC2F81FE391C3923BEC73E23A9662EFC9C229C6A00 SWAP2 DUP3 SLOAD SWAP2 PUSH1 0xFF DUP4 DUP7 SHR AND ISZERO SWAP3 PUSH8 0xFFFFFFFFFFFFFFFF DUP2 AND DUP1 ISZERO SWAP1 DUP2 PUSH2 0x2E6 JUMPI JUMPDEST PUSH1 0x1 EQ SWAP1 DUP2 PUSH2 0x2DC JUMPI JUMPDEST ISZERO SWAP1 DUP2 PUSH2 0x2D3 JUMPI JUMPDEST POP PUSH2 0x2C3 JUMPI PUSH8 0xFFFFFFFFFFFFFFFF NOT DUP2 AND PUSH1 0x1 OR DUP6 SSTORE DUP4 PUSH2 0x2A4 JUMPI JUMPDEST POP PUSH1 0x1 PUSH1 0x1 PUSH1 0xA0 SHL SUB AND SWAP1 DUP2 ISZERO PUSH2 0x26C JUMPI POP PUSH2 0x1D9 PUSH2 0x1432 JUMP JUMPDEST PUSH2 0x1E1 PUSH2 0x1432 JUMP JUMPDEST PUSH2 0x1EA CALLER PUSH2 0x124E JUMP JUMPDEST PUSH2 0x1F2 PUSH2 0x1432 JUMP JUMPDEST PUSH2 0x1FA PUSH2 0x1432 JUMP JUMPDEST PUSH2 0x202 PUSH2 0x1432 JUMP JUMPDEST PUSH1 0x1 PUSH1 0x0 DUP1 MLOAD PUSH1 0x20 PUSH2 0x14F7 DUP4 CODECOPY DUP2 MLOAD SWAP2 MSTORE SSTORE DUP5 SLOAD PUSH1 0x1 PUSH1 0x1 PUSH1 0xA0 SHL SUB NOT AND OR DUP5 SSTORE PUSH2 0x22B JUMPI DUP3 DUP1 RETURN JUMPDEST DUP1 SLOAD PUSH9 0xFF0000000000000000 NOT AND SWAP1 SSTORE MLOAD PUSH1 0x1 DUP2 MSTORE PUSH32 0xC7F505B2F371AE2175EE4913F4499E1F2633A7B5936321EED1CDAEB6115181D2 SWAP1 PUSH1 0x20 SWAP1 LOG1 CODESIZE DUP1 DUP3 DUP1 RETURN JUMPDEST PUSH1 0x64 SWAP1 PUSH1 0x20 DUP7 MLOAD SWAP2 PUSH3 0x461BCD PUSH1 0xE5 SHL DUP4 MSTORE DUP3 ADD MSTORE PUSH1 0x12 PUSH1 0x24 DUP3 ADD MSTORE PUSH18 0x5A65726F20746F6B656E2061646472657373 PUSH1 0x70 SHL PUSH1 0x44 DUP3 ADD MSTORE REVERT JUMPDEST PUSH9 0xFFFFFFFFFFFFFFFFFF NOT AND PUSH9 0x10000000000000001 OR DUP5 SSTORE CODESIZE PUSH2 0x1BF JUMP JUMPDEST DUP6 MLOAD PUSH4 0xF92EE8A9 PUSH1 0xE0 SHL DUP2 MSTORE DUP4 SWAP1 REVERT JUMPDEST SWAP1 POP ISZERO CODESIZE PUSH2 0x1A3 JUMP JUMPDEST ADDRESS EXTCODESIZE ISZERO SWAP2 POP PUSH2 0x19B JUMP JUMPDEST DUP6 SWAP2 POP PUSH2 0x191 JUMP JUMPDEST DUP3 DUP1 REVERT JUMPDEST SWAP1 SWAP2 POP CALLVALUE PUSH2 0x2EE JUMPI DUP3 PUSH1 0x3 NOT CALLDATASIZE ADD SLT PUSH2 0x2EE JUMPI PUSH2 0x30D PUSH2 0x12C2 JUMP JUMPDEST CALLER DUP4 MSTORE PUSH1 0x1 SWAP2 DUP3 PUSH1 0x20 MSTORE DUP1 DUP5 KECCAK256 SWAP2 DUP4 DUP6 SWAP4 DUP2 DUP8 SWAP1 JUMPDEST PUSH2 0x3BE JUMPI JUMPDEST POP POP POP DUP3 ISZERO PUSH2 0x386 JUMPI POP DUP4 SLOAD PUSH2 0x349 SWAP1 DUP4 SWAP1 CALLER SWAP1 PUSH1 0x1 PUSH1 0x1 PUSH1 0xA0 SHL SUB AND PUSH2 0x133F JUMP JUMPDEST MLOAD SWAP1 DUP2 MSTORE PUSH32 0x106F923F993C2149D49B4255FF723ACAFA1F2D94393F561D3EDA32AE348F7241 PUSH1 0x20 CALLER SWAP3 LOG2 PUSH1 0x0 DUP1 MLOAD PUSH1 0x20 PUSH2 0x14F7 DUP4 CODECOPY DUP2 MLOAD SWAP2 MSTORE SSTORE DUP1 RETURN JUMPDEST PUSH1 0x20 PUSH1 0x64 SWAP3 MLOAD SWAP2 PUSH3 0x461BCD PUSH1 0xE5 SHL DUP4 MSTORE DUP3 ADD MSTORE PUSH1 0x13 PUSH1 0x24 DUP3 ADD MSTORE PUSH19 0x4E6F207265776172647320746F20636C61696D PUSH1 0x68 SHL PUSH1 0x44 DUP3 ADD MSTORE REVERT JUMPDEST DUP2 SLOAD DUP2 LT ISZERO PUSH2 0x4A1 JUMPI DUP1 PUSH1 0xFF PUSH1 0x5 PUSH2 0x3D7 DUP7 SWAP5 DUP7 PUSH2 0x1073 JUMP JUMPDEST POP ADD SLOAD AND ISZERO DUP1 ISZERO PUSH2 0x48C JUMPI JUMPDEST PUSH2 0x487 JUMPI PUSH2 0x3F1 DUP2 DUP5 PUSH2 0x1073 JUMP JUMPDEST POP PUSH1 0x2 DUP1 SWAP2 ADD SLOAD SWAP1 PUSH2 0x414 PUSH2 0x406 DUP5 DUP8 PUSH2 0x1073 JUMP JUMPDEST POP SWAP3 PUSH1 0x3 DUP1 SWAP5 ADD SLOAD SWAP1 PUSH2 0x121E JUMP JUMPDEST TIMESTAMP LT ISZERO PUSH2 0x426 JUMPI JUMPDEST POP POP JUMPDEST ADD DUP3 PUSH2 0x322 JUMP JUMPDEST PUSH2 0x465 SWAP2 PUSH2 0x45E SWAP2 DUP6 PUSH2 0x439 DUP7 DUP10 PUSH2 0x1073 JUMP JUMPDEST POP ADD SLOAD SWAP2 PUSH2 0x447 DUP7 DUP10 PUSH2 0x1073 JUMP JUMPDEST POP ADD SLOAD SWAP1 PUSH2 0x455 DUP7 DUP10 PUSH2 0x1073 JUMP JUMPDEST POP ADD SLOAD SWAP2 PUSH2 0x12F2 JUMP JUMPDEST DUP1 SWAP9 PUSH2 0x121E JUMP JUMPDEST SWAP7 PUSH2 0x47E DUP7 PUSH2 0x474 DUP5 DUP8 PUSH2 0x1073 JUMP JUMPDEST POP ADD SWAP2 DUP3 SLOAD PUSH2 0x121E JUMP JUMPDEST SWAP1 SSTORE CODESIZE DUP1 PUSH2 0x41C JUMP JUMPDEST PUSH2 0x41F JUMP JUMPDEST POP DUP2 PUSH2 0x498 DUP3 DUP6 PUSH2 0x1073 JUMP JUMPDEST POP ADD SLOAD ISZERO PUSH2 0x3E3 JUMP JUMPDEST PUSH2 0x327 JUMP JUMPDEST SWAP1 SWAP2 POP CALLVALUE PUSH2 0x2EE JUMPI DUP3 PUSH1 0x3 NOT CALLDATASIZE ADD SLT PUSH2 0x2EE JUMPI DUP2 MLOAD SWAP1 DUP3 DUP3 ADD SWAP1 DUP3 DUP3 LT PUSH8 0xFFFFFFFFFFFFFFFF DUP4 GT OR PUSH2 0x533 JUMPI POP DUP3 MSTORE PUSH1 0x5 DUP2 MSTORE PUSH1 0x20 SWAP1 PUSH5 0x352E302E3 PUSH1 0xDC SHL PUSH1 0x20 DUP3 ADD MSTORE DUP3 MLOAD SWAP4 DUP5 SWAP3 PUSH1 0x20 DUP5 MSTORE DUP3 MLOAD SWAP3 DUP4 PUSH1 0x20 DUP7 ADD MSTORE DUP3 JUMPDEST DUP5 DUP2 LT PUSH2 0x51D JUMPI POP POP POP DUP3 DUP3 ADD DUP5 ADD MSTORE PUSH1 0x1F ADD PUSH1 0x1F NOT AND DUP2 ADD SUB ADD SWAP1 RETURN JUMPDEST DUP2 DUP2 ADD DUP4 ADD MLOAD DUP9 DUP3 ADD DUP9 ADD MSTORE DUP8 SWAP6 POP DUP3 ADD PUSH2 0x4FF JUMP JUMPDEST PUSH4 0x4E487B71 PUSH1 0xE0 SHL DUP6 MSTORE PUSH1 0x41 SWAP1 MSTORE PUSH1 0x24 DUP5 REVERT JUMPDEST DUP4 DUP3 CALLVALUE PUSH2 0x130 JUMPI DUP2 PUSH1 0x3 NOT CALLDATASIZE ADD SLT PUSH2 0x130 JUMPI PUSH1 0x20 SWAP1 MLOAD PUSH1 0x2A DUP2 MSTORE RETURN JUMPDEST DUP4 DUP3 CALLVALUE PUSH2 0x130 JUMPI DUP2 PUSH1 0x3 NOT CALLDATASIZE ADD SLT PUSH2 0x130 JUMPI PUSH1 0x0 DUP1 MLOAD PUSH1 0x20 PUSH2 0x14D7 DUP4 CODECOPY DUP2 MLOAD SWAP2 MSTORE SLOAD SWAP1 MLOAD PUSH1 0x1 PUSH1 0x1 PUSH1 0xA0 SHL SUB SWAP1 SWAP2 AND DUP2 MSTORE PUSH1 0x20 SWAP1 RETURN JUMPDEST SWAP1 DUP4 CALLVALUE PUSH2 0x10E JUMPI PUSH1 0x20 SWAP3 DUP4 PUSH1 0x3 NOT CALLDATASIZE ADD SLT PUSH2 0x130 JUMPI PUSH1 0x1 PUSH1 0x1 PUSH1 0xA0 SHL SUB PUSH2 0x5BD PUSH2 0xFE8 JUMP JUMPDEST AND DUP3 MSTORE PUSH1 0x1 SWAP4 PUSH1 0x1 DUP2 MSTORE DUP4 DUP4 KECCAK256 SWAP3 DUP4 SLOAD SWAP3 PUSH8 0xFFFFFFFFFFFFFFFF DUP5 GT PUSH2 0x6B4 JUMPI POP DUP5 SWAP3 DUP7 SWAP3 DUP5 MLOAD SWAP2 PUSH2 0x5F4 DUP3 DUP3 PUSH1 0x5 SHL ADD DUP5 PUSH2 0x1035 JUMP JUMPDEST DUP1 DUP4 MSTORE DUP2 DUP4 ADD DUP1 SWAP8 DUP6 MSTORE DUP3 DUP6 KECCAK256 DUP6 SWAP2 JUMPDEST DUP4 DUP4 LT PUSH2 0x68B JUMPI POP POP POP POP DUP5 MLOAD SWAP5 DUP2 DUP7 ADD SWAP3 DUP3 DUP8 MSTORE MLOAD DUP1 SWAP4 MSTORE DUP6 ADD SWAP6 SWAP3 JUMPDEST DUP3 DUP2 LT PUSH2 0x62F JUMPI DUP6 DUP8 SUB DUP7 RETURN JUMPDEST SWAP1 SWAP2 SWAP3 SWAP4 DUP3 PUSH1 0xC0 DUP9 PUSH2 0x67E DUP5 SWAP11 DUP10 MLOAD PUSH1 0xA0 DUP1 SWAP2 PUSH1 0x1 DUP1 DUP4 SHL SUB DUP2 MLOAD AND DUP5 MSTORE PUSH1 0x20 DUP2 ADD MLOAD PUSH1 0x20 DUP6 ADD MSTORE PUSH1 0x40 DUP2 ADD MLOAD PUSH1 0x40 DUP6 ADD MSTORE PUSH1 0x60 DUP2 ADD MLOAD PUSH1 0x60 DUP6 ADD MSTORE PUSH1 0x80 DUP2 ADD MLOAD PUSH1 0x80 DUP6 ADD MSTORE ADD MLOAD ISZERO ISZERO SWAP2 ADD MSTORE JUMP JUMPDEST ADD SWAP8 SWAP6 ADD SWAP4 SWAP3 SWAP2 ADD PUSH2 0x622 JUMP JUMPDEST SWAP7 PUSH1 0x6 DUP6 DUP3 SWAP12 SWAP10 PUSH2 0x69F DUP6 SWAP11 SWAP9 SWAP10 SWAP11 PUSH2 0x10A5 JUMP JUMPDEST DUP2 MSTORE ADD SWAP3 ADD SWAP3 ADD SWAP2 SWAP1 SWAP9 SWAP7 SWAP9 SWAP6 SWAP5 SWAP4 SWAP6 PUSH2 0x604 JUMP JUMPDEST PUSH4 0x4E487B71 PUSH1 0xE0 SHL DUP3 MSTORE PUSH1 0x41 SWAP1 MSTORE PUSH1 0x24 SWAP1 REVERT JUMPDEST DUP4 DUP3 CALLVALUE PUSH2 0x130 JUMPI DUP1 PUSH1 0x3 NOT CALLDATASIZE ADD SLT PUSH2 0x130 JUMPI DUP3 CALLDATALOAD SWAP1 PUSH1 0x24 SWAP4 DUP5 CALLDATALOAD SWAP1 PUSH2 0x6EA PUSH2 0x12C2 JUMP JUMPDEST DUP4 ISZERO PUSH2 0x6F6 DUP2 ISZERO PUSH2 0x11D2 JUMP JUMPDEST DUP3 ISZERO PUSH2 0x8C7 JUMPI PUSH1 0x2A DUP6 MUL SWAP1 DUP6 DUP3 DIV PUSH1 0x2A EQ OR ISZERO PUSH2 0x8B5 JUMPI PUSH2 0x2710 PUSH2 0x71B SWAP2 DIV DUP6 PUSH2 0x121E JUMP JUMPDEST DUP6 SLOAD DUP5 MLOAD PUSH4 0x23B872DD PUSH1 0xE0 SHL PUSH1 0x20 DUP3 ADD MSTORE CALLER DUP10 DUP3 ADD MSTORE ADDRESS PUSH1 0x44 DUP3 ADD MSTORE PUSH1 0x64 DUP1 DUP3 ADD SWAP4 SWAP1 SWAP4 MSTORE SWAP2 DUP3 MSTORE PUSH1 0x1 PUSH1 0x1 PUSH1 0xA0 SHL SUB SWAP3 SWAP2 SWAP1 DUP4 AND PUSH1 0xA0 DUP3 ADD PUSH8 0xFFFFFFFFFFFFFFFF DUP2 GT DUP4 DUP3 LT OR PUSH2 0x8A3 JUMPI DUP7 MSTORE PUSH2 0x773 SWAP2 SWAP1 PUSH2 0x13CA JUMP JUMPDEST DUP4 MLOAD SWAP1 PUSH2 0x77F DUP3 PUSH2 0x1003 JUMP JUMPDEST CALLER DUP3 MSTORE PUSH1 0x20 DUP3 ADD DUP7 DUP2 MSTORE DUP6 DUP4 ADD TIMESTAMP DUP2 MSTORE PUSH1 0x60 DUP5 ADD SWAP1 DUP7 DUP3 MSTORE PUSH1 0x80 DUP6 ADD SWAP3 DUP11 DUP5 MSTORE PUSH1 0xA0 DUP7 ADD SWAP7 PUSH1 0x1 DUP9 MSTORE CALLER DUP13 MSTORE PUSH1 0x1 PUSH1 0x20 MSTORE DUP10 DUP13 KECCAK256 DUP1 SLOAD SWAP1 PUSH9 0x10000000000000000 DUP3 LT ISZERO PUSH2 0x891 JUMPI SWAP1 PUSH2 0x7D7 SWAP2 PUSH1 0x1 DUP3 ADD DUP2 SSTORE PUSH2 0x1073 JUMP JUMPDEST SWAP8 SWAP1 SWAP8 PUSH2 0x880 JUMPI PUSH1 0x5 SWAP9 SWAP10 SWAP11 SWAP12 SWAP13 SWAP14 POP MLOAD AND PUSH12 0xFFFFFFFFFFFFFFFFFFFFFFFF PUSH1 0xA0 SHL DUP8 SLOAD AND OR DUP7 SSTORE MLOAD PUSH1 0x1 DUP7 ADD SSTORE MLOAD PUSH1 0x2 DUP6 ADD SSTORE MLOAD PUSH1 0x3 DUP5 ADD SSTORE MLOAD SWAP1 DUP3 ADD SSTORE ADD SWAP1 MLOAD ISZERO ISZERO PUSH1 0xFF DUP1 NOT DUP4 SLOAD AND SWAP2 AND OR SWAP1 SSTORE PUSH2 0x833 DUP4 PUSH1 0x2 SLOAD PUSH2 0x121E JUMP JUMPDEST PUSH1 0x2 SSTORE DUP2 MLOAD SWAP3 DUP4 MSTORE PUSH1 0x20 DUP4 ADD MSTORE TIMESTAMP SWAP1 DUP3 ADD MSTORE PUSH32 0xB4CAAF29ADDA3EEFEE3AD552A8E85058589BF834C7466CAE4EE58787F70589ED PUSH1 0x60 CALLER SWAP3 LOG2 PUSH1 0x1 PUSH1 0x0 DUP1 MLOAD PUSH1 0x20 PUSH2 0x14F7 DUP4 CODECOPY DUP2 MLOAD SWAP2 MSTORE SSTORE DUP1 RETURN JUMPDEST PUSH4 0x4E487B71 PUSH1 0xE0 SHL DUP14 MSTORE DUP13 DUP8 MSTORE DUP14 DUP14 REVERT JUMPDEST PUSH4 0x4E487B71 PUSH1 0xE0 SHL DUP15 MSTORE PUSH1 0x41 DUP9 MSTORE DUP15 DUP15 REVERT JUMPDEST PUSH4 0x4E487B71 PUSH1 0xE0 SHL DUP10 MSTORE PUSH1 0x41 DUP5 MSTORE DUP10 DUP10 REVERT JUMPDEST PUSH4 0x4E487B71 PUSH1 0xE0 SHL DUP7 MSTORE PUSH1 0x11 DUP3 MSTORE DUP7 DUP7 REVERT JUMPDEST DUP4 MLOAD PUSH3 0x461BCD PUSH1 0xE5 SHL DUP2 MSTORE PUSH1 0x20 DUP2 DUP5 ADD MSTORE PUSH1 0x1F DUP2 DUP10 ADD MSTORE PUSH32 0x4475726174696F6E206D7573742062652067726561746572207468616E203000 PUSH1 0x44 DUP3 ADD MSTORE PUSH1 0x64 SWAP1 REVERT JUMPDEST DUP4 CALLVALUE PUSH2 0x10E JUMPI DUP1 PUSH1 0x3 NOT CALLDATASIZE ADD SLT PUSH2 0x10E JUMPI PUSH2 0x922 PUSH2 0x1391 JUMP JUMPDEST PUSH1 0x0 DUP1 MLOAD PUSH1 0x20 PUSH2 0x14D7 DUP4 CODECOPY DUP2 MLOAD SWAP2 MSTORE DUP1 SLOAD PUSH1 0x1 PUSH1 0x1 PUSH1 0xA0 SHL SUB NOT DUP2 AND SWAP1 SWAP2 SSTORE DUP2 SWAP1 PUSH1 0x1 PUSH1 0x1 PUSH1 0xA0 SHL SUB AND PUSH32 0x8BE0079C531659141344CD1FD0A4F28419497F9722A3DAAFE3B4186F6B6457E0 DUP3 DUP1 LOG3 DUP1 RETURN JUMPDEST DUP4 DUP3 CALLVALUE PUSH2 0x130 JUMPI DUP2 PUSH1 0x3 NOT CALLDATASIZE ADD SLT PUSH2 0x130 JUMPI PUSH1 0x20 SWAP1 MLOAD PUSH2 0x1A4 DUP2 MSTORE RETURN JUMPDEST SWAP1 DUP4 CALLVALUE PUSH2 0x10E JUMPI DUP1 PUSH1 0x3 NOT CALLDATASIZE ADD SLT PUSH2 0x10E JUMPI POP PUSH32 0x0 PUSH1 0x1 PUSH1 0x1 PUSH1 0xA0 SHL SUB AND ADDRESS SUB PUSH2 0x9FC JUMPI PUSH1 0x20 SWAP1 MLOAD PUSH32 0x360894A13BA1A3210667C828492DB98DCA3E2076CC3735A920A3CA505D382BBC DUP2 MSTORE RETURN JUMPDEST MLOAD PUSH4 0x703E46DD PUSH1 0xE1 SHL DUP2 MSTORE REVERT JUMPDEST SWAP2 POP DUP1 PUSH1 0x3 NOT CALLDATASIZE ADD SLT PUSH2 0x2EE JUMPI PUSH2 0xA1E PUSH2 0xFE8 JUMP JUMPDEST SWAP1 PUSH1 0x24 SWAP4 DUP5 CALLDATALOAD PUSH8 0xFFFFFFFFFFFFFFFF DUP2 GT PUSH2 0x130 JUMPI CALLDATASIZE PUSH1 0x23 DUP3 ADD SLT ISZERO PUSH2 0x130 JUMPI DUP1 DUP6 ADD CALLDATALOAD PUSH2 0xA4B DUP2 PUSH2 0x1057 JUMP JUMPDEST SWAP5 PUSH2 0xA58 DUP6 MLOAD SWAP7 DUP8 PUSH2 0x1035 JUMP JUMPDEST DUP2 DUP7 MSTORE PUSH1 0x20 SWAP2 DUP3 DUP8 ADD SWAP4 CALLDATASIZE DUP11 DUP4 DUP4 ADD ADD GT PUSH2 0xC6F JUMPI DUP2 DUP7 SWAP3 DUP12 DUP7 SWAP4 ADD DUP8 CALLDATACOPY DUP9 ADD ADD MSTORE PUSH1 0x1 PUSH1 0x1 PUSH1 0xA0 SHL SUB PUSH32 0x0 DUP2 AND ADDRESS DUP2 EQ SWAP1 DUP2 ISZERO PUSH2 0xC41 JUMPI JUMPDEST POP PUSH2 0xC31 JUMPI PUSH2 0xABD PUSH2 0x1391 JUMP JUMPDEST DUP2 AND SWAP6 DUP6 MLOAD PUSH4 0x52D1902D PUSH1 0xE0 SHL DUP2 MSTORE DUP4 DUP2 DUP11 DUP2 DUP12 GAS STATICCALL DUP7 SWAP2 DUP2 PUSH2 0xBFE JUMPI JUMPDEST POP PUSH2 0xAF7 JUMPI POP POP POP POP POP POP MLOAD SWAP2 PUSH4 0x4C9C8CE3 PUSH1 0xE0 SHL DUP4 MSTORE DUP3 ADD MSTORE REVERT JUMPDEST SWAP1 DUP9 DUP9 DUP9 SWAP5 SWAP4 DUP13 PUSH32 0x360894A13BA1A3210667C828492DB98DCA3E2076CC3735A920A3CA505D382BBC SWAP2 DUP3 DUP2 SUB PUSH2 0xBE9 JUMPI POP DUP6 EXTCODESIZE ISZERO PUSH2 0xBD5 JUMPI POP DUP1 SLOAD PUSH1 0x1 PUSH1 0x1 PUSH1 0xA0 SHL SUB NOT AND DUP3 OR SWAP1 SSTORE DUP5 MLOAD DUP9 SWAP4 SWAP3 SWAP2 PUSH32 0xBC7CD75A20EE27FD9ADEBAB32041F755214DBC6BFFA90CC0225B39DA2E5C2D3B DUP6 DUP1 LOG2 DUP3 MLOAD ISZERO PUSH2 0xBB7 JUMPI POP POP PUSH2 0xBA9 SWAP6 DUP3 SWAP2 MLOAD SWAP1 DUP5 GAS DELEGATECALL SWAP2 RETURNDATASIZE ISZERO PUSH2 0xBAD JUMPI RETURNDATASIZE PUSH2 0xB9B PUSH2 0xB92 DUP3 PUSH2 0x1057 JUMP JUMPDEST SWAP3 MLOAD SWAP3 DUP4 PUSH2 0x1035 JUMP JUMPDEST DUP2 MSTORE DUP6 DUP2 SWAP5 RETURNDATASIZE SWAP3 ADD RETURNDATACOPY PUSH2 0x1473 JUMP JUMPDEST POP DUP1 RETURN JUMPDEST POP PUSH1 0x60 SWAP3 POP PUSH2 0x1473 JUMP JUMPDEST SWAP6 POP SWAP6 POP POP POP POP POP CALLVALUE PUSH2 0xBC9 JUMPI POP POP DUP1 RETURN JUMPDEST PUSH4 0xB398979F PUSH1 0xE0 SHL DUP2 MSTORE REVERT JUMPDEST DUP7 MLOAD PUSH4 0x4C9C8CE3 PUSH1 0xE0 SHL DUP2 MSTORE DUP1 DUP6 ADD DUP5 SWAP1 MSTORE REVERT JUMPDEST DUP8 MLOAD PUSH4 0x2A875269 PUSH1 0xE2 SHL DUP2 MSTORE DUP1 DUP7 ADD SWAP2 SWAP1 SWAP2 MSTORE REVERT JUMPDEST SWAP1 SWAP2 POP DUP5 DUP2 DUP2 RETURNDATASIZE DUP4 GT PUSH2 0xC2A JUMPI JUMPDEST PUSH2 0xC16 DUP2 DUP4 PUSH2 0x1035 JUMP JUMPDEST DUP2 ADD SUB SLT PUSH2 0xC26 JUMPI MLOAD SWAP1 CODESIZE PUSH2 0xADB JUMP JUMPDEST DUP7 DUP1 REVERT JUMPDEST POP RETURNDATASIZE PUSH2 0xC0C JUMP JUMPDEST DUP6 MLOAD PUSH4 0x703E46DD PUSH1 0xE1 SHL DUP2 MSTORE DUP9 SWAP1 REVERT JUMPDEST SWAP1 POP DUP2 PUSH32 0x360894A13BA1A3210667C828492DB98DCA3E2076CC3735A920A3CA505D382BBC SLOAD AND EQ ISZERO CODESIZE PUSH2 0xAB0 JUMP JUMPDEST DUP6 DUP1 REVERT JUMPDEST DUP4 DUP3 CALLVALUE PUSH2 0x130 JUMPI DUP2 PUSH1 0x3 NOT CALLDATASIZE ADD SLT PUSH2 0x130 JUMPI SWAP1 SLOAD SWAP1 MLOAD PUSH1 0x1 PUSH1 0x1 PUSH1 0xA0 SHL SUB SWAP1 SWAP2 AND DUP2 MSTORE PUSH1 0x20 SWAP1 RETURN JUMPDEST SWAP2 POP CALLVALUE PUSH2 0x2EE JUMPI PUSH1 0x20 SWAP1 PUSH1 0x20 PUSH1 0x3 NOT CALLDATASIZE ADD SLT PUSH2 0xF59 JUMPI DUP3 CALLDATALOAD SWAP2 PUSH2 0xCBC PUSH2 0x12C2 JUMP JUMPDEST PUSH2 0xCC7 DUP4 ISZERO ISZERO PUSH2 0x11D2 JUMP JUMPDEST CALLER DUP6 MSTORE PUSH1 0x1 SWAP4 DUP5 PUSH1 0x20 MSTORE DUP3 DUP7 KECCAK256 SWAP2 DUP5 SWAP1 DUP7 DUP9 SWAP5 DUP10 SWAP2 JUMPDEST PUSH2 0xD92 JUMPI JUMPDEST POP POP POP PUSH2 0xD4F JUMPI POP DUP5 SLOAD PUSH32 0x7FC4727E062E336010F2C282598EF5F14FACB3DE68CF8195C2F23E1454B2B74E SWAP3 SWAP2 SWAP1 PUSH2 0xD2F SWAP1 PUSH1 0x1 PUSH1 0x1 PUSH1 0xA0 SHL SUB AND PUSH2 0xD27 DUP4 DUP8 PUSH2 0x121E JUMP JUMPDEST SWAP1 CALLER SWAP1 PUSH2 0x133F JUMP JUMPDEST DUP2 MLOAD SWAP4 DUP5 MSTORE PUSH1 0x20 DUP5 ADD MSTORE CALLER SWAP3 LOG2 PUSH1 0x0 DUP1 MLOAD PUSH1 0x20 PUSH2 0x14F7 DUP4 CODECOPY DUP2 MLOAD SWAP2 MSTORE SSTORE DUP1 RETURN JUMPDEST PUSH1 0x64 SWAP1 PUSH1 0x20 DUP5 MLOAD SWAP2 PUSH3 0x461BCD PUSH1 0xE5 SHL DUP4 MSTORE DUP3 ADD MSTORE PUSH1 0x1B PUSH1 0x24 DUP3 ADD MSTORE PUSH32 0x496E73756666696369656E74207374616B65642062616C616E63650000000000 PUSH1 0x44 DUP3 ADD MSTORE REVERT JUMPDEST SWAP2 SWAP5 SWAP1 SWAP3 DUP3 SLOAD DUP5 LT DUP1 PUSH2 0xF50 JUMPI JUMPDEST ISZERO PUSH2 0xF47 JUMPI PUSH2 0xDAF DUP5 DUP5 PUSH2 0x1073 JUMP JUMPDEST POP PUSH1 0xFF PUSH1 0x5 DUP1 SWAP3 ADD SLOAD AND ISZERO DUP1 ISZERO PUSH2 0xF32 JUMPI JUMPDEST PUSH2 0xF28 JUMPI PUSH2 0xDCF DUP6 DUP6 PUSH2 0x1073 JUMP JUMPDEST POP SWAP1 PUSH1 0x2 DUP1 SWAP3 ADD SLOAD SWAP1 PUSH2 0xDE5 PUSH2 0x406 DUP9 DUP9 PUSH2 0x1073 JUMP JUMPDEST TIMESTAMP LT PUSH2 0xEED JUMPI DUP12 PUSH2 0xDF6 DUP9 DUP9 PUSH2 0x1073 JUMP JUMPDEST POP ADD SLOAD SWAP1 DUP5 DUP3 GT ISZERO PUSH2 0xE7F JUMPI POP POP SWAP2 PUSH2 0xE4D SWAP2 PUSH2 0xE53 SWAP5 SWAP4 DUP13 PUSH2 0xE19 DUP10 DUP10 PUSH2 0x1073 JUMP JUMPDEST POP ADD PUSH2 0xE26 DUP5 DUP3 SLOAD PUSH2 0x1241 JUMP JUMPDEST SWAP1 SSTORE PUSH2 0xE33 DUP4 DUP4 SLOAD PUSH2 0x1241 JUMP JUMPDEST DUP3 SSTORE PUSH2 0xE3F DUP9 DUP9 PUSH2 0x1073 JUMP JUMPDEST POP ADD SLOAD SWAP1 PUSH2 0x455 DUP9 DUP9 PUSH2 0x1073 JUMP JUMPDEST SWAP1 PUSH2 0x121E JUMP JUMPDEST SWAP4 DUP9 SWAP3 JUMPDEST PUSH1 0x0 NOT DUP2 EQ PUSH2 0xE6C JUMPI SWAP1 SWAP2 SWAP1 DUP9 ADD SWAP1 DUP9 PUSH2 0xCDD JUMP JUMPDEST PUSH4 0x4E487B71 PUSH1 0xE0 SHL DUP11 MSTORE PUSH1 0x11 DUP6 MSTORE PUSH1 0x24 DUP11 REVERT JUMPDEST PUSH2 0xED8 SWAP5 SWAP10 SWAP6 SWAP2 SWAP4 PUSH2 0xED2 SWAP4 PUSH2 0xE4D SWAP3 PUSH2 0xE99 DUP12 DUP12 PUSH2 0x1073 JUMP JUMPDEST POP ADD PUSH1 0xFF NOT DUP2 SLOAD AND SWAP1 SSTORE PUSH2 0xEAE DUP7 DUP4 SLOAD PUSH2 0x1241 JUMP JUMPDEST DUP3 SSTORE PUSH2 0xEBA DUP11 DUP11 PUSH2 0x1073 JUMP JUMPDEST POP ADD SLOAD SWAP1 PUSH2 0xEC8 DUP11 DUP11 PUSH2 0x1073 JUMP JUMPDEST POP ADD SLOAD SWAP1 DUP6 PUSH2 0x12F2 JUMP JUMPDEST SWAP7 PUSH2 0x1241 JUMP JUMPDEST SWAP3 DUP10 DUP10 PUSH2 0xEE5 DUP4 DUP7 PUSH2 0x1073 JUMP JUMPDEST POP ADD SSTORE PUSH2 0xE57 JUMP JUMPDEST DUP10 MLOAD PUSH3 0x461BCD PUSH1 0xE5 SHL DUP2 MSTORE DUP1 DUP10 ADD DUP11 SWAP1 MSTORE PUSH1 0x15 PUSH1 0x24 DUP3 ADD MSTORE PUSH21 0x14DD185AD9481A5CC81CDD1A5B1B081B1BD8DAD959 PUSH1 0x5A SHL PUSH1 0x44 DUP3 ADD MSTORE PUSH1 0x64 SWAP1 REVERT JUMPDEST POP SWAP3 SWAP5 SWAP1 SWAP5 PUSH2 0xE57 JUMP JUMPDEST POP DUP10 PUSH2 0xF3E DUP7 DUP7 PUSH2 0x1073 JUMP JUMPDEST POP ADD SLOAD ISZERO PUSH2 0xDC1 JUMP JUMPDEST SWAP3 DUP2 SWAP6 POP PUSH2 0xCE2 JUMP JUMPDEST POP DUP1 ISZERO ISZERO PUSH2 0xDA0 JUMP JUMPDEST DUP4 DUP1 REVERT JUMPDEST DUP4 DUP3 CALLVALUE PUSH2 0x130 JUMPI PUSH1 0x20 CALLDATASIZE PUSH1 0x3 NOT ADD SLT PUSH2 0x130 JUMPI PUSH1 0xC0 SWAP1 PUSH2 0xFCA PUSH2 0xF86 PUSH2 0xF81 PUSH2 0xFE8 JUMP JUMPDEST PUSH2 0x10F9 JUMP JUMPDEST SWAP2 MLOAD DUP1 SWAP3 PUSH1 0xA0 DUP1 SWAP2 PUSH1 0x1 DUP1 DUP4 SHL SUB DUP2 MLOAD AND DUP5 MSTORE PUSH1 0x20 DUP2 ADD MLOAD PUSH1 0x20 DUP6 ADD MSTORE PUSH1 0x40 DUP2 ADD MLOAD PUSH1 0x40 DUP6 ADD MSTORE PUSH1 0x60 DUP2 ADD MLOAD PUSH1 0x60 DUP6 ADD MSTORE PUSH1 0x80 DUP2 ADD MLOAD PUSH1 0x80 DUP6 ADD MSTORE ADD MLOAD ISZERO ISZERO SWAP2 ADD MSTORE JUMP JUMPDEST RETURN JUMPDEST DUP5 SWAP1 CALLVALUE PUSH2 0x130 JUMPI DUP2 PUSH1 0x3 NOT CALLDATASIZE ADD SLT PUSH2 0x130 JUMPI PUSH1 0x20 SWAP1 PUSH1 0x2 SLOAD DUP2 MSTORE RETURN JUMPDEST PUSH1 0x4 CALLDATALOAD SWAP1 PUSH1 0x1 PUSH1 0x1 PUSH1 0xA0 SHL SUB DUP3 AND DUP3 SUB PUSH2 0xFFE JUMPI JUMP JUMPDEST PUSH1 0x0 DUP1 REVERT JUMPDEST PUSH1 0xC0 DUP2 ADD SWAP1 DUP2 LT PUSH8 0xFFFFFFFFFFFFFFFF DUP3 GT OR PUSH2 0x101F JUMPI PUSH1 0x40 MSTORE JUMP JUMPDEST PUSH4 0x4E487B71 PUSH1 0xE0 SHL PUSH1 0x0 MSTORE PUSH1 0x41 PUSH1 0x4 MSTORE PUSH1 0x24 PUSH1 0x0 REVERT JUMPDEST SWAP1 PUSH1 0x1F DUP1 NOT SWAP2 ADD AND DUP2 ADD SWAP1 DUP2 LT PUSH8 0xFFFFFFFFFFFFFFFF DUP3 GT OR PUSH2 0x101F JUMPI PUSH1 0x40 MSTORE JUMP JUMPDEST PUSH8 0xFFFFFFFFFFFFFFFF DUP2 GT PUSH2 0x101F JUMPI PUSH1 0x1F ADD PUSH1 0x1F NOT AND PUSH1 0x20 ADD SWAP1 JUMP JUMPDEST DUP1 SLOAD DUP3 LT ISZERO PUSH2 0x108F JUMPI PUSH1 0x0 MSTORE PUSH1 0x6 PUSH1 0x20 PUSH1 0x0 KECCAK256 SWAP2 MUL ADD SWAP1 PUSH1 0x0 SWAP1 JUMP JUMPDEST PUSH4 0x4E487B71 PUSH1 0xE0 SHL PUSH1 0x0 MSTORE PUSH1 0x32 PUSH1 0x4 MSTORE PUSH1 0x24 PUSH1 0x0 REVERT JUMPDEST SWAP1 PUSH1 0x40 MLOAD PUSH2 0x10B2 DUP2 PUSH2 0x1003 JUMP JUMPDEST DUP3 SLOAD PUSH1 0x1 PUSH1 0x1 PUSH1 0xA0 SHL SUB AND DUP2 MSTORE PUSH1 0x1 DUP4 ADD SLOAD PUSH1 0x20 DUP3 ADD MSTORE PUSH1 0x2 DUP4 ADD SLOAD PUSH1 0x40 DUP3 ADD MSTORE PUSH1 0x3 DUP4 ADD SLOAD PUSH1 0x60 DUP3 ADD MSTORE PUSH1 0x4 DUP4 ADD SLOAD PUSH1 0x80 DUP3 ADD MSTORE PUSH1 0x5 SWAP1 SWAP3 ADD SLOAD PUSH1 0xFF AND ISZERO ISZERO PUSH1 0xA0 DUP4 ADD MSTORE JUMP JUMPDEST PUSH1 0xA0 SWAP1 PUSH1 0x40 MLOAD PUSH2 0x1108 DUP2 PUSH2 0x1003 JUMP JUMPDEST PUSH1 0x0 SWAP3 DUP2 DUP5 DUP1 SWAP4 MSTORE DUP3 PUSH1 0x20 DUP3 ADD MSTORE DUP3 PUSH1 0x40 DUP3 ADD MSTORE DUP3 PUSH1 0x60 DUP3 ADD MSTORE DUP3 PUSH1 0x80 DUP3 ADD MSTORE ADD MSTORE PUSH1 0x1 DUP1 PUSH1 0xA0 SHL SUB AND DUP2 MSTORE PUSH1 0x1 DUP1 PUSH1 0x20 MSTORE PUSH1 0x40 DUP3 KECCAK256 DUP3 SWAP1 DUP1 SLOAD SWAP2 JUMPDEST DUP3 DUP2 LT PUSH2 0x117F JUMPI POP POP POP POP PUSH1 0x40 MLOAD SWAP1 PUSH2 0x115C DUP3 PUSH2 0x1003 JUMP JUMPDEST DUP1 DUP3 MSTORE DUP1 PUSH1 0x20 DUP4 ADD MSTORE DUP1 PUSH1 0x40 DUP4 ADD MSTORE DUP1 PUSH1 0x60 DUP4 ADD MSTORE DUP1 PUSH1 0x80 DUP4 ADD MSTORE PUSH1 0xA0 DUP3 ADD MSTORE SWAP1 JUMP JUMPDEST PUSH1 0xFF PUSH1 0x5 PUSH2 0x118D DUP4 DUP6 PUSH2 0x1073 JUMP JUMPDEST POP ADD SLOAD AND DUP1 PUSH2 0x11BC JUMPI JUMPDEST PUSH2 0x11A2 JUMPI DUP4 ADD PUSH2 0x1144 JUMP JUMPDEST SWAP2 POP PUSH2 0x11B9 SWAP4 POP PUSH2 0x11B3 SWAP3 POP PUSH2 0x1073 JUMP JUMPDEST POP PUSH2 0x10A5 JUMP JUMPDEST SWAP1 JUMP JUMPDEST POP DUP4 PUSH2 0x11C8 DUP3 DUP5 PUSH2 0x1073 JUMP JUMPDEST POP ADD SLOAD ISZERO ISZERO PUSH2 0x1197 JUMP JUMPDEST ISZERO PUSH2 0x11D9 JUMPI JUMP JUMPDEST PUSH1 0x40 MLOAD PUSH3 0x461BCD PUSH1 0xE5 SHL DUP2 MSTORE PUSH1 0x20 PUSH1 0x4 DUP3 ADD MSTORE PUSH1 0x1D PUSH1 0x24 DUP3 ADD MSTORE PUSH32 0x416D6F756E74206D7573742062652067726561746572207468616E2030000000 PUSH1 0x44 DUP3 ADD MSTORE PUSH1 0x64 SWAP1 REVERT JUMPDEST SWAP2 SWAP1 DUP3 ADD DUP1 SWAP3 GT PUSH2 0x122B JUMPI JUMP JUMPDEST PUSH4 0x4E487B71 PUSH1 0xE0 SHL PUSH1 0x0 MSTORE PUSH1 0x11 PUSH1 0x4 MSTORE PUSH1 0x24 PUSH1 0x0 REVERT JUMPDEST SWAP2 SWAP1 DUP3 SUB SWAP2 DUP3 GT PUSH2 0x122B JUMPI JUMP JUMPDEST PUSH1 0x1 PUSH1 0x1 PUSH1 0xA0 SHL SUB SWAP1 DUP2 AND SWAP1 DUP2 ISZERO PUSH2 0x12A9 JUMPI PUSH1 0x0 DUP1 MLOAD PUSH1 0x20 PUSH2 0x14D7 DUP4 CODECOPY DUP2 MLOAD SWAP2 MSTORE DUP1 SLOAD PUSH1 0x1 PUSH1 0x1 PUSH1 0xA0 SHL SUB NOT DUP2 AND DUP5 OR SWAP1 SWAP2 SSTORE AND PUSH32 0x8BE0079C531659141344CD1FD0A4F28419497F9722A3DAAFE3B4186F6B6457E0 PUSH1 0x0 DUP1 LOG3 JUMP JUMPDEST PUSH1 0x40 MLOAD PUSH4 0x1E4FBDF7 PUSH1 0xE0 SHL DUP2 MSTORE PUSH1 0x0 PUSH1 0x4 DUP3 ADD MSTORE PUSH1 0x24 SWAP1 REVERT JUMPDEST PUSH1 0x0 DUP1 MLOAD PUSH1 0x20 PUSH2 0x14F7 DUP4 CODECOPY DUP2 MLOAD SWAP2 MSTORE PUSH1 0x2 DUP2 SLOAD EQ PUSH2 0x12E0 JUMPI PUSH1 0x2 SWAP1 SSTORE JUMP JUMPDEST PUSH1 0x40 MLOAD PUSH4 0x3EE5AEB5 PUSH1 0xE0 SHL DUP2 MSTORE PUSH1 0x4 SWAP1 REVERT JUMPDEST SWAP1 SWAP2 PUSH2 0x12FE SWAP1 TIMESTAMP PUSH2 0x1241 JUMP JUMPDEST SWAP2 DUP1 DUP4 GT PUSH2 0x1337 JUMPI JUMPDEST POP PUSH2 0x1A4 DUP1 DUP3 MUL SWAP2 DUP1 DUP4 DIV DUP3 EQ DUP2 ISZERO OR ISZERO PUSH2 0x122B JUMPI DUP4 MUL MUL SWAP2 DUP2 DUP4 DIV EQ SWAP1 ISZERO OR ISZERO PUSH2 0x122B JUMPI PUSH5 0x496CEBB800 SWAP1 DIV SWAP1 JUMP JUMPDEST SWAP2 POP CODESIZE PUSH2 0x1307 JUMP JUMPDEST PUSH1 0x40 MLOAD PUSH4 0xA9059CBB PUSH1 0xE0 SHL PUSH1 0x20 DUP3 ADD MSTORE PUSH1 0x1 PUSH1 0x1 PUSH1 0xA0 SHL SUB SWAP1 SWAP3 AND PUSH1 0x24 DUP4 ADD MSTORE PUSH1 0x44 DUP1 DUP4 ADD SWAP4 SWAP1 SWAP4 MSTORE SWAP2 DUP2 MSTORE PUSH1 0x80 DUP2 ADD SWAP2 PUSH8 0xFFFFFFFFFFFFFFFF DUP4 GT DUP3 DUP5 LT OR PUSH2 0x101F JUMPI PUSH2 0x138F SWAP3 PUSH1 0x40 MSTORE PUSH2 0x13CA JUMP JUMPDEST JUMP JUMPDEST PUSH1 0x0 DUP1 MLOAD PUSH1 0x20 PUSH2 0x14D7 DUP4 CODECOPY DUP2 MLOAD SWAP2 MSTORE SLOAD PUSH1 0x1 PUSH1 0x1 PUSH1 0xA0 SHL SUB AND CALLER SUB PUSH2 0x13B2 JUMPI JUMP JUMPDEST PUSH1 0x40 MLOAD PUSH4 0x118CDAA7 PUSH1 0xE0 SHL DUP2 MSTORE CALLER PUSH1 0x4 DUP3 ADD MSTORE PUSH1 0x24 SWAP1 REVERT JUMPDEST SWAP1 PUSH1 0x0 PUSH1 0x20 SWAP2 DUP3 DUP2 MLOAD SWAP2 ADD DUP3 DUP6 GAS CALL ISZERO PUSH2 0x1426 JUMPI PUSH1 0x0 MLOAD RETURNDATASIZE PUSH2 0x141D JUMPI POP PUSH1 0x1 PUSH1 0x1 PUSH1 0xA0 SHL SUB DUP2 AND EXTCODESIZE ISZERO JUMPDEST PUSH2 0x13FB JUMPI POP JUMP JUMPDEST PUSH1 0x40 MLOAD PUSH4 0x5274AFE7 PUSH1 0xE0 SHL DUP2 MSTORE PUSH1 0x1 PUSH1 0x1 PUSH1 0xA0 SHL SUB SWAP1 SWAP2 AND PUSH1 0x4 DUP3 ADD MSTORE PUSH1 0x24 SWAP1 REVERT JUMPDEST PUSH1 0x1 EQ ISZERO PUSH2 0x13F4 JUMP JUMPDEST PUSH1 0x40 MLOAD RETURNDATASIZE PUSH1 0x0 DUP3 RETURNDATACOPY RETURNDATASIZE SWAP1 REVERT JUMPDEST PUSH1 0xFF PUSH32 0xF0C57E16840DF040F15088DC2F81FE391C3923BEC73E23A9662EFC9C229C6A00 SLOAD PUSH1 0x40 SHR AND ISZERO PUSH2 0x1461 JUMPI JUMP JUMPDEST PUSH1 0x40 MLOAD PUSH4 0x1AFCD79F PUSH1 0xE3 SHL DUP2 MSTORE PUSH1 0x4 SWAP1 REVERT JUMPDEST SWAP1 PUSH2 0x149A JUMPI POP DUP1 MLOAD ISZERO PUSH2 0x1488 JUMPI DUP1 MLOAD SWAP1 PUSH1 0x20 ADD REVERT JUMPDEST PUSH1 0x40 MLOAD PUSH4 0xD6BDA275 PUSH1 0xE0 SHL DUP2 MSTORE PUSH1 0x4 SWAP1 REVERT JUMPDEST DUP2 MLOAD ISZERO DUP1 PUSH2 0x14CD JUMPI JUMPDEST PUSH2 0x14AB JUMPI POP SWAP1 JUMP JUMPDEST PUSH1 0x40 MLOAD PUSH4 0x9996B315 PUSH1 0xE0 SHL DUP2 MSTORE PUSH1 0x1 PUSH1 0x1 PUSH1 0xA0 SHL SUB SWAP1 SWAP2 AND PUSH1 0x4 DUP3 ADD MSTORE PUSH1 0x24 SWAP1 REVERT JUMPDEST POP DUP1 EXTCODESIZE ISZERO PUSH2 0x14A3 JUMP INVALID SWAP1 AND 0xD0 SWAP14 PUSH19 0xD40FDAE2FD8CEAC6B6234C7706214FD39C1CD1 0xE6 MULMOD LOG0 MSTORE DUP13 NOT SWAP4 STOP SWAP12 PUSH24 0x9B17422D0DF92223018B32B4D1FA46E071723D6817E2486D STOP EXTCODESIZE 0xEC 0xC5 PUSH0 STOP LOG2 PUSH5 0x6970667358 0x22 SLT KECCAK256 LOG0 DUP16 0xDB 0xD6 SHL 0xE2 PUSH19 0x222CAF663E2FA2467D188FFF56C5E9947AC94 0xB2 JUMP 0xF7 0xBF INVALID ORIGIN PUSH5 0x736F6C6343 STOP ADDMOD AND STOP CALLER "},"methodIdentifiers":{"FEE_BASIS_POINTS()":"a525ad3c","REWARD_RATE()":"5997bb37","SECONDS_PER_YEAR()":"e6a69ab8","UPGRADE_INTERFACE_VERSION()":"ad3cb1cc","claimReward()":"b88a802f","getTotalStaked()":"0917e776","getUserStakes(address)":"842e2981","initialize(address)":"c4d66de8","owner()":"8da5cb5b","proxiableUUID()":"52d1902d","renounceOwnership()":"715018a6","stake(uint256,uint256)":"7b0472f0","stakes(address)":"16934fc4","transferOwnership(address)":"f2fde38b","unstake(uint256)":"2e17de78","upgradeToAndCall(address,bytes)":"4f1ef286","weedlToken()":"3b9c8cfe"}},"storageLayout":{"storage":[{"astId":7210,"contract":"contracts/GreenFiStaking.sol:GreenFiStaking","label":"weedlToken","offset":0,"slot":"0","type":"t_contract(IERC20)2353"},{"astId":7244,"contract":"contracts/GreenFiStaking.sol:GreenFiStaking","label":"userStakes","offset":0,"slot":"1","type":"t_mapping(t_address,t_array(t_struct(Stake)7238_storage)dyn_storage)"},{"astId":7246,"contract":"contracts/GreenFiStaking.sol:GreenFiStaking","label":"totalStaked","offset":0,"slot":"2","type":"t_uint256"}],"types":{"t_address":{"encoding":"inplace","label":"address","numberOfBytes":"20"},"t_array(t_struct(Stake)7238_storage)dyn_storage":{"base":"t_struct(Stake)7238_storage","encoding":"dynamic_array","label":"struct GreenFiStaking.Stake[]","numberOfBytes":"32"},"t_bool":{"encoding":"inplace","label":"bool","numberOfBytes":"1"},"t_contract(IERC20)2353":{"encoding":"inplace","label":"contract IERC20","numberOfBytes":"20"},"t_mapping(t_address,t_array(t_struct(Stake)7238_storage)dyn_storage)":{"encoding":"mapping","key":"t_address","label":"mapping(address => struct GreenFiStaking.Stake[])","numberOfBytes":"32","value":"t_array(t_struct(Stake)7238_storage)dyn_storage"},"t_struct(Stake)7238_storage":{"encoding":"inplace","label":"struct GreenFiStaking.Stake","members":[{"astId":7227,"contract":"contracts/GreenFiStaking.sol:GreenFiStaking","label":"user","offset":0,"slot":"0","type":"t_address"},{"astId":7229,"contract":"contracts/GreenFiStaking.sol:GreenFiStaking","label":"amount","offset":0,"slot":"1","type":"t_uint256"},{"astId":7231,"contract":"contracts/GreenFiStaking.sol:GreenFiStaking","label":"startTime","offset":0,"slot":"2","type":"t_uint256"},{"astId":7233,"contract":"contracts/GreenFiStaking.sol:GreenFiStaking","label":"duration","offset":0,"slot":"3","type":"t_uint256"},{"astId":7235,"contract":"contracts/GreenFiStaking.sol:GreenFiStaking","label":"rewardDebt","offset":0,"slot":"4","type":"t_uint256"},{"astId":7237,"contract":"contracts/GreenFiStaking.sol:GreenFiStaking","label":"isActive","offset":0,"slot":"5","type":"t_bool"}],"numberOfBytes":"192"},"t_uint256":{"encoding":"inplace","label":"uint256","numberOfBytes":"32"}}}}}}