{"contracts/GreenFiBorrow.sol":{"GreenFiBorrow":{"abi":[{"inputs":[{"internalType":"address","name":"target","type":"address"}],"name":"AddressEmptyCode","type":"error"},{"inputs":[{"internalType":"address","name":"implementation","type":"address"}],"name":"ERC1967InvalidImplementation","type":"error"},{"inputs":[],"name":"ERC1967NonPayable","type":"error"},{"inputs":[],"name":"FailedCall","type":"error"},{"inputs":[],"name":"InvalidInitialization","type":"error"},{"inputs":[],"name":"NotInitializing","type":"error"},{"inputs":[{"internalType":"address","name":"owner","type":"address"}],"name":"OwnableInvalidOwner","type":"error"},{"inputs":[{"internalType":"address","name":"account","type":"address"}],"name":"OwnableUnauthorizedAccount","type":"error"},{"inputs":[],"name":"ReentrancyGuardReentrantCall","type":"error"},{"inputs":[{"internalType":"address","name":"token","type":"address"}],"name":"SafeERC20FailedOperation","type":"error"},{"inputs":[],"name":"UUPSUnauthorizedCallContext","type":"error"},{"inputs":[{"internalType":"bytes32","name":"slot","type":"bytes32"}],"name":"UUPSUnsupportedProxiableUUID","type":"error"},{"anonymous":false,"inputs":[{"indexed":false,"internalType":"string","name":"id","type":"string"},{"indexed":true,"internalType":"address","name":"borrower","type":"address"},{"indexed":false,"internalType":"string","name":"landId","type":"string"},{"indexed":false,"internalType":"uint256","name":"amount","type":"uint256"},{"indexed":false,"internalType":"uint256","name":"fee","type":"uint256"},{"indexed":false,"internalType":"uint256","name":"duration","type":"uint256"},{"indexed":false,"internalType":"string","name":"contactInfo","type":"string"},{"indexed":false,"internalType":"string","name":"purpose","type":"string"},{"indexed":false,"internalType":"string","name":"collateralInfo","type":"string"},{"indexed":false,"internalType":"string","name":"latitude","type":"string"},{"indexed":false,"internalType":"string","name":"longitude","type":"string"}],"name":"BorrowingCreated","type":"event"},{"anonymous":false,"inputs":[{"indexed":false,"internalType":"string","name":"id","type":"string"},{"indexed":true,"internalType":"address","name":"borrower","type":"address"}],"name":"BorrowingEnded","type":"event"},{"anonymous":false,"inputs":[{"indexed":false,"internalType":"uint64","name":"version","type":"uint64"}],"name":"Initialized","type":"event"},{"anonymous":false,"inputs":[{"indexed":false,"internalType":"string","name":"id","type":"string"},{"indexed":true,"internalType":"address","name":"lender","type":"address"},{"indexed":false,"internalType":"uint256","name":"amount","type":"uint256"}],"name":"LentToBorrowing","type":"event"},{"anonymous":false,"inputs":[{"indexed":true,"internalType":"address","name":"previousOwner","type":"address"},{"indexed":true,"internalType":"address","name":"newOwner","type":"address"}],"name":"OwnershipTransferred","type":"event"},{"anonymous":false,"inputs":[{"indexed":false,"internalType":"string","name":"id","type":"string"},{"indexed":true,"internalType":"address","name":"borrower","type":"address"},{"indexed":false,"internalType":"uint256","name":"amount","type":"uint256"}],"name":"RepaidBorrowing","type":"event"},{"anonymous":false,"inputs":[{"indexed":true,"internalType":"address","name":"implementation","type":"address"}],"name":"Upgraded","type":"event"},{"inputs":[],"name":"FEE_BASIS_POINTS","outputs":[{"internalType":"uint256","name":"","type":"uint256"}],"stateMutability":"view","type":"function"},{"inputs":[],"name":"UPGRADE_INTERFACE_VERSION","outputs":[{"internalType":"string","name":"","type":"string"}],"stateMutability":"view","type":"function"},{"inputs":[{"internalType":"uint256","name":"","type":"uint256"}],"name":"borrowingIds","outputs":[{"internalType":"string","name":"","type":"string"}],"stateMutability":"view","type":"function"},{"inputs":[{"internalType":"string","name":"","type":"string"}],"name":"borrowings","outputs":[{"internalType":"string","name":"id","type":"string"},{"internalType":"address","name":"borrower","type":"address"},{"internalType":"string","name":"landId","type":"string"},{"internalType":"uint256","name":"amount","type":"uint256"},{"internalType":"uint256","name":"fee","type":"uint256"},{"internalType":"uint256","name":"duration","type":"uint256"},{"internalType":"uint256","name":"startTime","type":"uint256"},{"internalType":"bool","name":"isActive","type":"bool"},{"internalType":"string","name":"contactInfo","type":"string"},{"internalType":"string","name":"purpose","type":"string"},{"internalType":"string","name":"collateralInfo","type":"string"},{"internalType":"string","name":"latitude","type":"string"},{"internalType":"string","name":"longitude","type":"string"},{"internalType":"uint256","name":"totalLent","type":"uint256"},{"internalType":"uint256","name":"totalRepaid","type":"uint256"}],"stateMutability":"view","type":"function"},{"inputs":[{"internalType":"uint256","name":"_amount","type":"uint256"}],"name":"calculateFee","outputs":[{"internalType":"uint256","name":"","type":"uint256"}],"stateMutability":"pure","type":"function"},{"inputs":[{"internalType":"string","name":"_id","type":"string"},{"internalType":"string","name":"_landId","type":"string"},{"internalType":"uint256","name":"_amount","type":"uint256"},{"internalType":"uint256","name":"_duration","type":"uint256"},{"internalType":"string","name":"_contactInfo","type":"string"},{"internalType":"string","name":"_purpose","type":"string"},{"internalType":"string","name":"_collateralInfo","type":"string"},{"internalType":"string","name":"_latitude","type":"string"},{"internalType":"string","name":"_longitude","type":"string"}],"name":"createBorrowing","outputs":[],"stateMutability":"nonpayable","type":"function"},{"inputs":[{"internalType":"string","name":"_id","type":"string"}],"name":"endBorrowing","outputs":[],"stateMutability":"nonpayable","type":"function"},{"inputs":[],"name":"getAllBorrowings","outputs":[{"components":[{"internalType":"string","name":"id","type":"string"},{"internalType":"address","name":"borrower","type":"address"},{"internalType":"string","name":"landId","type":"string"},{"internalType":"uint256","name":"amount","type":"uint256"},{"internalType":"uint256","name":"fee","type":"uint256"},{"internalType":"uint256","name":"duration","type":"uint256"},{"internalType":"uint256","name":"startTime","type":"uint256"},{"internalType":"bool","name":"isActive","type":"bool"},{"internalType":"string","name":"contactInfo","type":"string"},{"internalType":"string","name":"purpose","type":"string"},{"internalType":"string","name":"collateralInfo","type":"string"},{"internalType":"string","name":"latitude","type":"string"},{"internalType":"string","name":"longitude","type":"string"},{"internalType":"uint256","name":"totalLent","type":"uint256"},{"internalType":"uint256","name":"totalRepaid","type":"uint256"}],"internalType":"struct GreenFiBorrow.BorrowingInfo[]","name":"","type":"tuple[]"}],"stateMutability":"view","type":"function"},{"inputs":[{"internalType":"string","name":"_id","type":"string"},{"internalType":"address","name":"_lender","type":"address"}],"name":"getLenderContribution","outputs":[{"internalType":"uint256","name":"","type":"uint256"}],"stateMutability":"view","type":"function"},{"inputs":[{"internalType":"string","name":"_id","type":"string"}],"name":"getLenders","outputs":[{"internalType":"address[]","name":"","type":"address[]"}],"stateMutability":"view","type":"function"},{"inputs":[{"internalType":"address","name":"_user","type":"address"}],"name":"getUserBorrowings","outputs":[{"components":[{"internalType":"string","name":"id","type":"string"},{"internalType":"address","name":"borrower","type":"address"},{"internalType":"string","name":"landId","type":"string"},{"internalType":"uint256","name":"amount","type":"uint256"},{"internalType":"uint256","name":"fee","type":"uint256"},{"internalType":"uint256","name":"duration","type":"uint256"},{"internalType":"uint256","name":"startTime","type":"uint256"},{"internalType":"bool","name":"isActive","type":"bool"},{"internalType":"string","name":"contactInfo","type":"string"},{"internalType":"string","name":"purpose","type":"string"},{"internalType":"string","name":"collateralInfo","type":"string"},{"internalType":"string","name":"latitude","type":"string"},{"internalType":"string","name":"longitude","type":"string"},{"internalType":"uint256","name":"totalLent","type":"uint256"},{"internalType":"uint256","name":"totalRepaid","type":"uint256"}],"internalType":"struct GreenFiBorrow.BorrowingInfo[]","name":"","type":"tuple[]"}],"stateMutability":"view","type":"function"},{"inputs":[{"internalType":"address","name":"_weedlToken","type":"address"}],"name":"initialize","outputs":[],"stateMutability":"nonpayable","type":"function"},{"inputs":[{"internalType":"string","name":"_id","type":"string"},{"internalType":"uint256","name":"_amount","type":"uint256"}],"name":"lendToBorrowing","outputs":[],"stateMutability":"nonpayable","type":"function"},{"inputs":[],"name":"owner","outputs":[{"internalType":"address","name":"","type":"address"}],"stateMutability":"view","type":"function"},{"inputs":[],"name":"proxiableUUID","outputs":[{"internalType":"bytes32","name":"","type":"bytes32"}],"stateMutability":"view","type":"function"},{"inputs":[],"name":"renounceOwnership","outputs":[],"stateMutability":"nonpayable","type":"function"},{"inputs":[{"internalType":"string","name":"_id","type":"string"},{"internalType":"uint256","name":"_amount","type":"uint256"}],"name":"repayBorrowing","outputs":[],"stateMutability":"nonpayable","type":"function"},{"inputs":[{"internalType":"address","name":"newOwner","type":"address"}],"name":"transferOwnership","outputs":[],"stateMutability":"nonpayable","type":"function"},{"inputs":[{"internalType":"address","name":"newImplementation","type":"address"},{"internalType":"bytes","name":"data","type":"bytes"}],"name":"upgradeToAndCall","outputs":[],"stateMutability":"payable","type":"function"},{"inputs":[{"internalType":"address","name":"","type":"address"},{"internalType":"uint256","name":"","type":"uint256"}],"name":"userBorrowings","outputs":[{"internalType":"string","name":"","type":"string"}],"stateMutability":"view","type":"function"},{"inputs":[],"name":"weedlToken","outputs":[{"internalType":"contract IERC20","name":"","type":"address"}],"stateMutability":"view","type":"function"}],"evm":{"bytecode":{"linkReferences":{},"object":"60a0806040523461002a57306080526123d890816100308239608051818181610efd0152610fb60152f35b600080fdfe6080604052600436101561001257600080fd5b60e060003560e01c9081630e7e5ffd1461198357816315a96fbb146114fb5781633b9c8cfe146114d25781633e63680d146112e5578163494d7687146111955781634f1ef28614610f6757816352d1902d14610eea5781635d269e5114610d2257508063715018a614610cb85780638da5cb5b14610c8257806399a5d74714610c5c578063a043d48d14610b74578063a525ad3c14610b58578063ad3cb1cc14610b00578063ae5c6fff14610a97578063b5bbbae41461075d578063c4d66de8146105e2578063db138b4514610442578063dd471337146103d7578063ecf83dc3146101375763f2fde38b1461010757600080fd5b3461013257602036600319011261013257610130610123611bf3565b61012b61221d565b611fc0565b005b600080fd5b346101325761014536611d5e565b61014d612034565b6040519182815160209481610166879383858801611b3e565b810160018152030190209161018160ff600785015416611eb8565b80156103875761019a6006840154600585015490611db5565b421161034257600d83016101af828254611db5565b6003850154106102ff576000546001600160a01b0391906101d7908490309033908616612064565b601085013360005280875260406000205415610280575b9461024d9284927fc8153f350d75779be66fa143a419a6b9e1d69626e49e410ffba47a6efb4dee3e97336000528952604060002061022d858254611db5565b905561023a848254611db5565b90556001816000541692015416906121ce565b61026260405192604084526040840190611b61565b938201528033930390a2600160008051602061238383398151915255005b94600f810192835492600160401b8410156102e9577fc8153f350d75779be66fa143a419a6b9e1d69626e49e410ffba47a6efb4dee3e976102cb8561024d9760018a980181556119f9565b81549060031b908533831b921b1916179055929750925092506101ee565b634e487b7160e01b600052604160045260246000fd5b6064856040519062461bcd60e51b825280600483015260248201527f4c656e64696e6720657863656564732072657175657374656420616d6f756e746044820152fd5b60405162461bcd60e51b815260048101859052601e60248201527f426f72726f77696e67206475726174696f6e20686173206578706972656400006044820152606490fd5b60405162461bcd60e51b815260048101859052602260248201527f4c656e6420616d6f756e74206d7573742062652067726561746572207468616e604482015261020360f41b6064820152608490fd5b34610132576040366003190112610132576103f0611bf3565b6001600160a01b031660009081526003602052604090208054602435908110156101325761042461042a9161043e936119f9565b90611b2d565b604051918291602083526020830190611b61565b0390f35b34610132576020366003190112610132576004356001600160401b03811161013257610472903690600401611bd8565b604051818180935160208193019161048992611b3e565b81016001815203602001902061049e81611a88565b600182015490916001600160a01b03909116906104bd60028201611a88565b92600382015490600483015490600584015490600685015490600786015460ff1690600887016104ec90611a88565b906104f960098901611a88565b92610506600a8a01611a88565b94610513600b8b01611a88565b96610520600c8c01611a88565b98600d8c01549b600e01549a6040519e8f9e8f976101e0808a52890161054591611b61565b906020890152878103604089015261055c91611b61565b956060015260808d015260a08c015260c08b0152151560e08a01528881036101008a015261058991611b61565b87810361012089015261059b91611b61565b8681036101408801526105ad91611b61565b8581036101608701526105bf91611b61565b8481036101808601526105d191611b61565b916101a08401526101c08301520390f35b34610132576020366003190112610132576105fb611bf3565b7ff0c57e16840df040f15088dc2f81fe391c3923bec73e23a9662efc9c229c6a009081549060ff8260401c1615916001600160401b03811680159081610755575b600114908161074b575b159081610742575b506107305767ffffffffffffffff198116600117845582610711575b506106736122be565b61067b6122be565b61068433611fc0565b61068c6122be565b6106946122be565b61069c6122be565b60016000805160206123838339815191525560018060a01b03166bffffffffffffffffffffffff60a01b60005416176000556106d457005b68ff00000000000000001981541690557fc7f505b2f371ae2175ee4913f4499e1f2633a7b5936321eed1cdaeb6115181d2602060405160018152a1005b68ffffffffffffffffff1916680100000000000000011783558361066a565b60405163f92ee8a960e01b8152600490fd5b9050158561064e565b303b159150610646565b84915061063c565b346101325761076b36611d5e565b90610774612034565b60405160208183516107898183858801611b3e565b8101600181520301902060018060a01b036001820154163303610a52576107b660ff600783015416611eb8565b8215610a01576107ca83600e830154611db5565b600d820154106109bc576000546107ef908490309033906001600160a01b0316612064565b6107fd83600e830154611db5565b600e82015560005b600f8201548110156109055761081e81600f84016119f9565b905460039190911b1c6001600160a01b031690811515806108ec575b610849575b6001915001610805565b81600052601083016020526040600020549182868102048614831517156108d657600d84015480156108c0578660019402049081610889575b505061083f565b61089d8282868060a01b03600054166121ce565b600052601084016020526108b76040600020918254611f04565b90558580610882565b634e487b7160e01b600052601260045260246000fd5b634e487b7160e01b600052601160045260246000fd5b508160005260108301602052604060002054151561083a565b50827f6052df171eec68d8662ffc10214cf42c318aa882862fc729de6746ffc6d2c5386040516040815261093c6040820186611b61565b9260208201528033930390a2600e810154600d820154111561096d575b600160008051602061238383398151915255005b600760ff1981830154169101557fdecc5f5a8dcdf1c8aa17e12213169c28b4d8de95678aa033c3063eb6530e6b4360405160208152806109b233946020830190611b61565b0390a28080610959565b60405162461bcd60e51b815260206004820152601d60248201527f52657061796d656e742065786365656473206c656e7420616d6f756e740000006044820152606490fd5b60405162461bcd60e51b815260206004820152602360248201527f526570617920616d6f756e74206d75737420626520677265617465722074686160448201526206e20360ec1b6064820152608490fd5b60405162461bcd60e51b815260206004820152601760248201527f4f6e6c7920626f72726f7765722063616e2072657061790000000000000000006044820152606490fd5b34610132576040366003190112610132576004356001600160401b03811161013257610ac7903690600401611bd8565b6024356001600160a01b038116919082900361013257610ae8601091611d8f565b01906000526020526020604060002054604051908152f35b346101325760003660031901126101325760405160408101908082106001600160401b038311176102e95761043e9160405260058152640352e302e360dc1b6020820152604051918291602083526020830190611b61565b34610132576000366003190112610132576020604051602a8152f35b3461013257602080600319360112610132576004356001600160401b03811161013257610ba5903690600401611bd8565b90600f81610bbc6040519485815193849201611b3e565b83019282816001956001815203019020019160405191828185549182815201908195600052826000209060005b818110610c405750505083610bff910384611a67565b60405192818401908285525180915260408401949160005b828110610c245785870386f35b83516001600160a01b0316875295810195928101928401610c17565b82546001600160a01b0316845292840192918501918501610be9565b34610132576020366003190112610132576020610c7a600435611fa5565b604051908152f35b3461013257600036600319011261013257600080516020612363833981519152546040516001600160a01b039091168152602090f35b3461013257600036600319011261013257610cd161221d565b60008051602061236383398151915280546001600160a01b031981169091556000906001600160a01b03167f8be0079c531659141344cd1fd0a4f28419497f9722a3daafe3b4186f6b6457e08280a3005b3461013257600036600319011261013257600290600254610d4281611dd9565b9260009260005b838110610d9e578585610d5b81611dd9565b9160005b828110610d74576040518061043e8682611c09565b80610d8160019284611e95565b51610d8c8287611e95565b52610d978186611e95565b5001610d5f565b610db9610daa826119ac565b5060ff80916007938491611f11565b015416610dcb575b5050600101610d49565b956020610ee29286610eb5600c879b610dee610de860019a6119ac565b50611f11565b90898060a01b038a830154169560038301549160048401546005850154916006860154938601541693610e48600d87015499600e8801549b6040519d8e610e3481611a4b565b610e3d8b611a88565b815201528701611a88565b60408c015260608b015260808a015260a089015260c088015215158a870152610e7360088201611a88565b610100870152610e8560098201611a88565b610120870152610e97600a8201611a88565b610140870152610ea9600b8201611a88565b61016087015201611a88565b6101808401526101a08301526101c0820152610ed1828a611e95565b52610edc8189611e95565b50611ea9565b949087610dc1565b34610132576000366003190112610132577f00000000000000000000000000000000000000000000000000000000000000006001600160a01b03163003610f555760206040517f360894a13ba1a3210667c828492db98dca3e2076cc3735a920a3ca505d382bbc8152f35b60405163703e46dd60e11b8152600490fd5b604036600319011261013257610f7b611bf3565b6024356001600160401b038111610132573660238201121561013257610fab903690602481600401359101611ba1565b906001600160a01b037f00000000000000000000000000000000000000000000000000000000000000008116308114908115611167575b50610f5557610fef61221d565b6040516352d1902d60e01b8152908216916020918281600481875afa60009181611138575b5061103257604051634c9c8ce360e01b815260048101859052602490fd5b9284937f360894a13ba1a3210667c828492db98dca3e2076cc3735a920a3ca505d382bbc908181036111205750823b156111075780546001600160a01b03191682179055604051907fbc7cd75a20ee27fd9adebab32041f755214dbc6bffa90cc0225b39da2e5c2d3b600080a28351156110ed5750600080848461013096519101845af4903d156110e4573d6110c781611b86565b906110d56040519283611a67565b8152600081943d92013e6122ff565b606092506122ff565b92505050346110f857005b63b398979f60e01b8152600490fd5b604051634c9c8ce360e01b815260048101839052602490fd5b60249060405190632a87526960e21b82526004820152fd5b9091508381813d8311611160575b6111508183611a67565b8101031261013257519086611014565b503d611146565b9050817f360894a13ba1a3210667c828492db98dca3e2076cc3735a920a3ca505d382bbc5416141584610fe2565b3461013257602080600319360112610132576004356001600160401b038111610132576111c6903690600401611bd8565b6111ce612034565b604051828183516111e28183858801611b3e565b8101600181520301902060018060a01b038060018301541633036112a05791817fdecc5f5a8dcdf1c8aa17e12213169c28b4d8de95678aa033c3063eb6530e6b439360076112689401805461123960ff8216611eb8565b60ff19169055600d60038301549201549182811161127f575b5050506040519182918583523395830190611b61565b0390a2600160008051602061238383398151915255005b6112989261128c91611f04565b903390600054166121ce565b848080611252565b60405162461bcd60e51b815260048101859052601f60248201527f4f6e6c7920626f72726f7765722063616e20656e6420626f72726f77696e67006044820152606490fd5b346101325760209081600319360112610132576001600160a01b0380611309611bf3565b166000526003808452604060002092835461132381611dc2565b946113316040519687611a67565b8186526000908152868120878088015b8484106114b45750505050506113578451611dd9565b9160009260005b8651811015611466578760ff600789828261138261137c8885611e95565b51611d8f565b015416611396575b5050505060010161135e565b9161145a9391611433600c6113b261137c8960019a9e98611e95565b8d8982015416948b820154946004830154916005840154906006850154928501541692600d85015497600e860154996040519b6113ee8d611a4b565b6113f788611a88565b8d528c015261140860028701611a88565b60408c015260608b015260808a015260a089015260c088015215158c870152610e7360088201611a88565b6101808401526101a08301526101c082015261144f8286611e95565b52610edc8185611e95565b9490508789808961138a565b508361147181611dd9565b9160005b82811061148a576040518061043e8682611c09565b8061149760019284611e95565b516114a28287611e95565b526114ad8186611e95565b5001611475565b60019182916114c285611a88565b8152019201920191908890611341565b34610132576000366003190112610132576000546040516001600160a01b039091168152602090f35b3461013257610120366003190112610132576001600160401b036004358181116101325761152d903690600401611bd8565b60243582811161013257611545903690600401611bd8565b6084358381116101325761155d903690600401611bd8565b9160a43584811161013257611576903690600401611bd8565b9160c4358581116101325761158f903690600401611bd8565b9360e435868111610132576115a8903690600401611bd8565b9561010435908111610132576115c2903690600401611bd8565b956115cb612034565b6044351561193e5760643515158061192e575b156118d957835115611894576040516001855191611600838260208a01611b3e565b8183820152602081838060a01b039481010301902001541661184f57611627604435611fa5565b600054909290611650906001600160a01b031661164685604435611db5565b9030903390612064565b6000600e6040516020818161166b8b83815193849201611b3e565b8101600181520301902061167f88826120bc565b6001810180546001600160a01b031916331790556116a087600283016120bc565b6044356003820155856004820155606435600582015542600682015560078101600160ff198254161790556116d884600883016120bc565b6116e589600983016120bc565b6116f28a600a83016120bc565b6116ff85600b83016120bc565b61170c8b600c83016120bc565b82600d8201550155600254600160401b8110156102e95780600161173392016002556119ac565b6118395785611741916120bc565b33600052600360205260406000208054600160401b8110156102e95761176c916001820181556119f9565b9790976118395761180c6117cd976117fe6118299661181a956117db6112689a6117b87f8a238393e944ded6e1f623b61c56e79aa2f9f7439bf7f4346f5245b6d259ac379f8e906120bc565b6040519d8e9d8e610140908181520190611b61565b8d810360208f015290611b61565b9160443560408d015260608c015260643560808c01528a820360a08c0152611b61565b9088820360c08a0152611b61565b9086820360e0880152611b61565b90848203610100860152611b61565b8281036101208401523395611b61565b634e487b7160e01b600052600060045260246000fd5b60405162461bcd60e51b815260206004820152601b60248201527f426f72726f77696e6720494420616c72656164792065786973747300000000006044820152606490fd5b60405162461bcd60e51b815260206004820152601c60248201527f426f72726f77696e672049442063616e6e6f7420626520656d707479000000006044820152606490fd5b60405162461bcd60e51b815260206004820152602760248201527f4475726174696f6e206d757374206265206265747765656e203120616e6420336044820152663635206461797360c81b6064820152608490fd5b506301e1338060643511156115de565b60405162461bcd60e51b815260206004820152601d60248201527f416d6f756e74206d7573742062652067726561746572207468616e20300000006044820152606490fd5b34610132576020366003190112610132576004356002548110156101325761042a61042461043e925b6002548110156119e35760026000527f405787fa12a823e0f2b7631cc41b3ba8828b3321ca811111fa75cd3aa3bb5ace0190600090565b634e487b7160e01b600052603260045260246000fd5b80548210156119e35760005260206000200190600090565b90600182811c92168015611a41575b6020831014611a2b57565b634e487b7160e01b600052602260045260246000fd5b91607f1691611a20565b6101e081019081106001600160401b038211176102e957604052565b90601f801991011681019081106001600160401b038211176102e957604052565b90604051918260008254611a9b81611a11565b90818452602094600191600181169081600014611b0b5750600114611acc575b505050611aca92500383611a67565b565b600090815285812095935091905b818310611af3575050611aca9350820101388080611abb565b85548884018501529485019487945091830191611ada565b92505050611aca94925060ff191682840152151560051b820101388080611abb565b9061183957611b3b90611a88565b90565b60005b838110611b515750506000910152565b8181015183820152602001611b41565b90602091611b7a81518092818552858086019101611b3e565b601f01601f1916010190565b6001600160401b0381116102e957601f01601f191660200190565b929192611bad82611b86565b91611bbb6040519384611a67565b829481845281830111610132578281602093846000960137010152565b9080601f8301121561013257816020611b3b93359101611ba1565b600435906001600160a01b038216820361013257565b6020808201908083528351809252604092604081018260408560051b8401019601946000925b858410611c40575050505050505090565b909192939495968580600192603f198582030187528a5190611d37611d23611d0f611cfb611ce7611c9f611c7e6101e0895190808a52890190611b61565b8b8060a01b038a8a0151168a8901528d808a015190898303908a0152611b61565b606080890151908801526080808901519088015260a0808901519088015260c0808901519088015260e080890151151590880152610100808901519088830390890152611b61565b610120808801519087830390880152611b61565b610140808701519086830390870152611b61565b610160808601519085830390860152611b61565b610180808501519084830390850152611b61565b916101a080820151908301526101c080910151910152990194019401929594939190611c2f565b604060031982011261013257600435906001600160401b03821161013257611d8891600401611bd8565b9060243590565b6020611da8918160405193828580945193849201611b3e565b8101600181520301902090565b919082018092116108d657565b6001600160401b0381116102e95760051b60200190565b90611de382611dc2565b604090611df36040519182611a67565b8381528093611e04601f1991611dc2565b019160005b838110611e165750505050565b6020908251611e2481611a4b565b60608082528390600082840152808684015260008184015260006080840152600060a0840152600060c0840152600060e08401528061010084015280610120840152806101408401528061016084015261018083015260006101a083015260006101c0830152828601015201611e09565b80518210156119e35760209160051b010190565b60001981146108d65760010190565b15611ebf57565b60405162461bcd60e51b815260206004820152601760248201527f426f72726f77696e67206973206e6f74206163746976650000000000000000006044820152606490fd5b919082039182116108d657565b604051908160008254611f2381611a11565b93600191808316908115611f895750600114611f4b575b505060209250600181520301902090565b9091506000526020906020600020906000915b858310611f75575050505060209181013880611f3a565b805487840152869450918301918101611f5e565b92505050602093915060ff191682528015150281013880611f3a565b602a810290808204602a14901517156108d657612710900490565b6001600160a01b0390811690811561201b5760008051602061236383398151915280546001600160a01b031981168417909155167f8be0079c531659141344cd1fd0a4f28419497f9722a3daafe3b4186f6b6457e0600080a3565b604051631e4fbdf760e01b815260006004820152602490fd5b60008051602061238383398151915260028154146120525760029055565b604051633ee5aeb560e01b8152600490fd5b6040516323b872dd60e01b60208201526001600160a01b03928316602482015292909116604483015260648083019390935291815260a08101918183106001600160401b038411176102e957611aca92604052612256565b91909182516001600160401b0381116102e9576120d98254611a11565b601f8111612184575b50602080601f831160011461211f575081929394600092612114575b50508160011b916000199060031b1c1916179055565b0151905038806120fe565b90601f19831695846000526020600020926000905b88821061216c57505083600195969710612153575b505050811b019055565b015160001960f88460031b161c19169055388080612149565b80600185968294968601518155019501930190612134565b6000836000526020600020601f840160051c810192602085106121c4575b601f0160051c01915b8281106121b95750506120e2565b8181556001016121ab565b90925082906121a2565b60405163a9059cbb60e01b60208201526001600160a01b03909216602483015260448083019390935291815260808101916001600160401b038311828410176102e957611aca92604052612256565b600080516020612363833981519152546001600160a01b0316330361223e57565b60405163118cdaa760e01b8152336004820152602490fd5b906000602091828151910182855af1156122b2576000513d6122a957506001600160a01b0381163b155b6122875750565b604051635274afe760e01b81526001600160a01b039091166004820152602490fd5b60011415612280565b6040513d6000823e3d90fd5b60ff7ff0c57e16840df040f15088dc2f81fe391c3923bec73e23a9662efc9c229c6a005460401c16156122ed57565b604051631afcd79f60e31b8152600490fd5b90612326575080511561231457805190602001fd5b60405163d6bda27560e01b8152600490fd5b81511580612359575b612337575090565b604051639996b31560e01b81526001600160a01b039091166004820152602490fd5b50803b1561232f56fe9016d09d72d40fdae2fd8ceac6b6234c7706214fd39c1cd1e609a0528c1993009b779b17422d0df92223018b32b4d1fa46e071723d6817e2486d003becc55f00a26469706673582212204173ed3526088bd503d7589ae959a60eb05b7af61b71ebaff5952c4379f286d264736f6c63430008160033","opcodes":"PUSH1 0xA0 DUP1 PUSH1 0x40 MSTORE CALLVALUE PUSH2 0x2A JUMPI ADDRESS PUSH1 0x80 MSTORE PUSH2 0x23D8 SWAP1 DUP2 PUSH2 0x30 DUP3 CODECOPY PUSH1 0x80 MLOAD DUP2 DUP2 DUP2 PUSH2 0xEFD ADD MSTORE PUSH2 0xFB6 ADD MSTORE RETURN JUMPDEST PUSH1 0x0 DUP1 REVERT INVALID PUSH1 0x80 PUSH1 0x40 MSTORE PUSH1 0x4 CALLDATASIZE LT ISZERO PUSH2 0x12 JUMPI PUSH1 0x0 DUP1 REVERT JUMPDEST PUSH1 0xE0 PUSH1 0x0 CALLDATALOAD PUSH1 0xE0 SHR SWAP1 DUP2 PUSH4 0xE7E5FFD EQ PUSH2 0x1983 JUMPI DUP2 PUSH4 0x15A96FBB EQ PUSH2 0x14FB JUMPI DUP2 PUSH4 0x3B9C8CFE EQ PUSH2 0x14D2 JUMPI DUP2 PUSH4 0x3E63680D EQ PUSH2 0x12E5 JUMPI DUP2 PUSH4 0x494D7687 EQ PUSH2 0x1195 JUMPI DUP2 PUSH4 0x4F1EF286 EQ PUSH2 0xF67 JUMPI DUP2 PUSH4 0x52D1902D EQ PUSH2 0xEEA JUMPI DUP2 PUSH4 0x5D269E51 EQ PUSH2 0xD22 JUMPI POP DUP1 PUSH4 0x715018A6 EQ PUSH2 0xCB8 JUMPI DUP1 PUSH4 0x8DA5CB5B EQ PUSH2 0xC82 JUMPI DUP1 PUSH4 0x99A5D747 EQ PUSH2 0xC5C JUMPI DUP1 PUSH4 0xA043D48D EQ PUSH2 0xB74 JUMPI DUP1 PUSH4 0xA525AD3C EQ PUSH2 0xB58 JUMPI DUP1 PUSH4 0xAD3CB1CC EQ PUSH2 0xB00 JUMPI DUP1 PUSH4 0xAE5C6FFF EQ PUSH2 0xA97 JUMPI DUP1 PUSH4 0xB5BBBAE4 EQ PUSH2 0x75D JUMPI DUP1 PUSH4 0xC4D66DE8 EQ PUSH2 0x5E2 JUMPI DUP1 PUSH4 0xDB138B45 EQ PUSH2 0x442 JUMPI DUP1 PUSH4 0xDD471337 EQ PUSH2 0x3D7 JUMPI DUP1 PUSH4 0xECF83DC3 EQ PUSH2 0x137 JUMPI PUSH4 0xF2FDE38B EQ PUSH2 0x107 JUMPI PUSH1 0x0 DUP1 REVERT JUMPDEST CALLVALUE PUSH2 0x132 JUMPI PUSH1 0x20 CALLDATASIZE PUSH1 0x3 NOT ADD SLT PUSH2 0x132 JUMPI PUSH2 0x130 PUSH2 0x123 PUSH2 0x1BF3 JUMP JUMPDEST PUSH2 0x12B PUSH2 0x221D JUMP JUMPDEST PUSH2 0x1FC0 JUMP JUMPDEST STOP JUMPDEST PUSH1 0x0 DUP1 REVERT JUMPDEST CALLVALUE PUSH2 0x132 JUMPI PUSH2 0x145 CALLDATASIZE PUSH2 0x1D5E JUMP JUMPDEST PUSH2 0x14D PUSH2 0x2034 JUMP JUMPDEST PUSH1 0x40 MLOAD SWAP2 DUP3 DUP2 MLOAD PUSH1 0x20 SWAP5 DUP2 PUSH2 0x166 DUP8 SWAP4 DUP4 DUP6 DUP9 ADD PUSH2 0x1B3E JUMP JUMPDEST DUP2 ADD PUSH1 0x1 DUP2 MSTORE SUB ADD SWAP1 KECCAK256 SWAP2 PUSH2 0x181 PUSH1 0xFF PUSH1 0x7 DUP6 ADD SLOAD AND PUSH2 0x1EB8 JUMP JUMPDEST DUP1 ISZERO PUSH2 0x387 JUMPI PUSH2 0x19A PUSH1 0x6 DUP5 ADD SLOAD PUSH1 0x5 DUP6 ADD SLOAD SWAP1 PUSH2 0x1DB5 JUMP JUMPDEST TIMESTAMP GT PUSH2 0x342 JUMPI PUSH1 0xD DUP4 ADD PUSH2 0x1AF DUP3 DUP3 SLOAD PUSH2 0x1DB5 JUMP JUMPDEST PUSH1 0x3 DUP6 ADD SLOAD LT PUSH2 0x2FF JUMPI PUSH1 0x0 SLOAD PUSH1 0x1 PUSH1 0x1 PUSH1 0xA0 SHL SUB SWAP2 SWAP1 PUSH2 0x1D7 SWAP1 DUP5 SWAP1 ADDRESS SWAP1 CALLER SWAP1 DUP7 AND PUSH2 0x2064 JUMP JUMPDEST PUSH1 0x10 DUP6 ADD CALLER PUSH1 0x0 MSTORE DUP1 DUP8 MSTORE PUSH1 0x40 PUSH1 0x0 KECCAK256 SLOAD ISZERO PUSH2 0x280 JUMPI JUMPDEST SWAP5 PUSH2 0x24D SWAP3 DUP5 SWAP3 PUSH32 0xC8153F350D75779BE66FA143A419A6B9E1D69626E49E410FFBA47A6EFB4DEE3E SWAP8 CALLER PUSH1 0x0 MSTORE DUP10 MSTORE PUSH1 0x40 PUSH1 0x0 KECCAK256 PUSH2 0x22D DUP6 DUP3 SLOAD PUSH2 0x1DB5 JUMP JUMPDEST SWAP1 SSTORE PUSH2 0x23A DUP5 DUP3 SLOAD PUSH2 0x1DB5 JUMP JUMPDEST SWAP1 SSTORE PUSH1 0x1 DUP2 PUSH1 0x0 SLOAD AND SWAP3 ADD SLOAD AND SWAP1 PUSH2 0x21CE JUMP JUMPDEST PUSH2 0x262 PUSH1 0x40 MLOAD SWAP3 PUSH1 0x40 DUP5 MSTORE PUSH1 0x40 DUP5 ADD SWAP1 PUSH2 0x1B61 JUMP JUMPDEST SWAP4 DUP3 ADD MSTORE DUP1 CALLER SWAP4 SUB SWAP1 LOG2 PUSH1 0x1 PUSH1 0x0 DUP1 MLOAD PUSH1 0x20 PUSH2 0x2383 DUP4 CODECOPY DUP2 MLOAD SWAP2 MSTORE SSTORE STOP JUMPDEST SWAP5 PUSH1 0xF DUP2 ADD SWAP3 DUP4 SLOAD SWAP3 PUSH1 0x1 PUSH1 0x40 SHL DUP5 LT ISZERO PUSH2 0x2E9 JUMPI PUSH32 0xC8153F350D75779BE66FA143A419A6B9E1D69626E49E410FFBA47A6EFB4DEE3E SWAP8 PUSH2 0x2CB DUP6 PUSH2 0x24D SWAP8 PUSH1 0x1 DUP11 SWAP9 ADD DUP2 SSTORE PUSH2 0x19F9 JUMP JUMPDEST DUP2 SLOAD SWAP1 PUSH1 0x3 SHL SWAP1 DUP6 CALLER DUP4 SHL SWAP3 SHL NOT AND OR SWAP1 SSTORE SWAP3 SWAP8 POP SWAP3 POP SWAP3 POP PUSH2 0x1EE JUMP JUMPDEST PUSH4 0x4E487B71 PUSH1 0xE0 SHL PUSH1 0x0 MSTORE PUSH1 0x41 PUSH1 0x4 MSTORE PUSH1 0x24 PUSH1 0x0 REVERT JUMPDEST PUSH1 0x64 DUP6 PUSH1 0x40 MLOAD SWAP1 PUSH3 0x461BCD PUSH1 0xE5 SHL DUP3 MSTORE DUP1 PUSH1 0x4 DUP4 ADD MSTORE PUSH1 0x24 DUP3 ADD MSTORE PUSH32 0x4C656E64696E6720657863656564732072657175657374656420616D6F756E74 PUSH1 0x44 DUP3 ADD MSTORE REVERT JUMPDEST PUSH1 0x40 MLOAD PUSH3 0x461BCD PUSH1 0xE5 SHL DUP2 MSTORE PUSH1 0x4 DUP2 ADD DUP6 SWAP1 MSTORE PUSH1 0x1E PUSH1 0x24 DUP3 ADD MSTORE PUSH32 0x426F72726F77696E67206475726174696F6E2068617320657870697265640000 PUSH1 0x44 DUP3 ADD MSTORE PUSH1 0x64 SWAP1 REVERT JUMPDEST PUSH1 0x40 MLOAD PUSH3 0x461BCD PUSH1 0xE5 SHL DUP2 MSTORE PUSH1 0x4 DUP2 ADD DUP6 SWAP1 MSTORE PUSH1 0x22 PUSH1 0x24 DUP3 ADD MSTORE PUSH32 0x4C656E6420616D6F756E74206D7573742062652067726561746572207468616E PUSH1 0x44 DUP3 ADD MSTORE PUSH2 0x203 PUSH1 0xF4 SHL PUSH1 0x64 DUP3 ADD MSTORE PUSH1 0x84 SWAP1 REVERT JUMPDEST CALLVALUE PUSH2 0x132 JUMPI PUSH1 0x40 CALLDATASIZE PUSH1 0x3 NOT ADD SLT PUSH2 0x132 JUMPI PUSH2 0x3F0 PUSH2 0x1BF3 JUMP JUMPDEST PUSH1 0x1 PUSH1 0x1 PUSH1 0xA0 SHL SUB AND PUSH1 0x0 SWAP1 DUP2 MSTORE PUSH1 0x3 PUSH1 0x20 MSTORE PUSH1 0x40 SWAP1 KECCAK256 DUP1 SLOAD PUSH1 0x24 CALLDATALOAD SWAP1 DUP2 LT ISZERO PUSH2 0x132 JUMPI PUSH2 0x424 PUSH2 0x42A SWAP2 PUSH2 0x43E SWAP4 PUSH2 0x19F9 JUMP JUMPDEST SWAP1 PUSH2 0x1B2D JUMP JUMPDEST PUSH1 0x40 MLOAD SWAP2 DUP3 SWAP2 PUSH1 0x20 DUP4 MSTORE PUSH1 0x20 DUP4 ADD SWAP1 PUSH2 0x1B61 JUMP JUMPDEST SUB SWAP1 RETURN JUMPDEST CALLVALUE PUSH2 0x132 JUMPI PUSH1 0x20 CALLDATASIZE PUSH1 0x3 NOT ADD SLT PUSH2 0x132 JUMPI PUSH1 0x4 CALLDATALOAD PUSH1 0x1 PUSH1 0x1 PUSH1 0x40 SHL SUB DUP2 GT PUSH2 0x132 JUMPI PUSH2 0x472 SWAP1 CALLDATASIZE SWAP1 PUSH1 0x4 ADD PUSH2 0x1BD8 JUMP JUMPDEST PUSH1 0x40 MLOAD DUP2 DUP2 DUP1 SWAP4 MLOAD PUSH1 0x20 DUP2 SWAP4 ADD SWAP2 PUSH2 0x489 SWAP3 PUSH2 0x1B3E JUMP JUMPDEST DUP2 ADD PUSH1 0x1 DUP2 MSTORE SUB PUSH1 0x20 ADD SWAP1 KECCAK256 PUSH2 0x49E DUP2 PUSH2 0x1A88 JUMP JUMPDEST PUSH1 0x1 DUP3 ADD SLOAD SWAP1 SWAP2 PUSH1 0x1 PUSH1 0x1 PUSH1 0xA0 SHL SUB SWAP1 SWAP2 AND SWAP1 PUSH2 0x4BD PUSH1 0x2 DUP3 ADD PUSH2 0x1A88 JUMP JUMPDEST SWAP3 PUSH1 0x3 DUP3 ADD SLOAD SWAP1 PUSH1 0x4 DUP4 ADD SLOAD SWAP1 PUSH1 0x5 DUP5 ADD SLOAD SWAP1 PUSH1 0x6 DUP6 ADD SLOAD SWAP1 PUSH1 0x7 DUP7 ADD SLOAD PUSH1 0xFF AND SWAP1 PUSH1 0x8 DUP8 ADD PUSH2 0x4EC SWAP1 PUSH2 0x1A88 JUMP JUMPDEST SWAP1 PUSH2 0x4F9 PUSH1 0x9 DUP10 ADD PUSH2 0x1A88 JUMP JUMPDEST SWAP3 PUSH2 0x506 PUSH1 0xA DUP11 ADD PUSH2 0x1A88 JUMP JUMPDEST SWAP5 PUSH2 0x513 PUSH1 0xB DUP12 ADD PUSH2 0x1A88 JUMP JUMPDEST SWAP7 PUSH2 0x520 PUSH1 0xC DUP13 ADD PUSH2 0x1A88 JUMP JUMPDEST SWAP9 PUSH1 0xD DUP13 ADD SLOAD SWAP12 PUSH1 0xE ADD SLOAD SWAP11 PUSH1 0x40 MLOAD SWAP15 DUP16 SWAP15 DUP16 SWAP8 PUSH2 0x1E0 DUP1 DUP11 MSTORE DUP10 ADD PUSH2 0x545 SWAP2 PUSH2 0x1B61 JUMP JUMPDEST SWAP1 PUSH1 0x20 DUP10 ADD MSTORE DUP8 DUP2 SUB PUSH1 0x40 DUP10 ADD MSTORE PUSH2 0x55C SWAP2 PUSH2 0x1B61 JUMP JUMPDEST SWAP6 PUSH1 0x60 ADD MSTORE PUSH1 0x80 DUP14 ADD MSTORE PUSH1 0xA0 DUP13 ADD MSTORE PUSH1 0xC0 DUP12 ADD MSTORE ISZERO ISZERO PUSH1 0xE0 DUP11 ADD MSTORE DUP9 DUP2 SUB PUSH2 0x100 DUP11 ADD MSTORE PUSH2 0x589 SWAP2 PUSH2 0x1B61 JUMP JUMPDEST DUP8 DUP2 SUB PUSH2 0x120 DUP10 ADD MSTORE PUSH2 0x59B SWAP2 PUSH2 0x1B61 JUMP JUMPDEST DUP7 DUP2 SUB PUSH2 0x140 DUP9 ADD MSTORE PUSH2 0x5AD SWAP2 PUSH2 0x1B61 JUMP JUMPDEST DUP6 DUP2 SUB PUSH2 0x160 DUP8 ADD MSTORE PUSH2 0x5BF SWAP2 PUSH2 0x1B61 JUMP JUMPDEST DUP5 DUP2 SUB PUSH2 0x180 DUP7 ADD MSTORE PUSH2 0x5D1 SWAP2 PUSH2 0x1B61 JUMP JUMPDEST SWAP2 PUSH2 0x1A0 DUP5 ADD MSTORE PUSH2 0x1C0 DUP4 ADD MSTORE SUB SWAP1 RETURN JUMPDEST CALLVALUE PUSH2 0x132 JUMPI PUSH1 0x20 CALLDATASIZE PUSH1 0x3 NOT ADD SLT PUSH2 0x132 JUMPI PUSH2 0x5FB PUSH2 0x1BF3 JUMP JUMPDEST PUSH32 0xF0C57E16840DF040F15088DC2F81FE391C3923BEC73E23A9662EFC9C229C6A00 SWAP1 DUP2 SLOAD SWAP1 PUSH1 0xFF DUP3 PUSH1 0x40 SHR AND ISZERO SWAP2 PUSH1 0x1 PUSH1 0x1 PUSH1 0x40 SHL SUB DUP2 AND DUP1 ISZERO SWAP1 DUP2 PUSH2 0x755 JUMPI JUMPDEST PUSH1 0x1 EQ SWAP1 DUP2 PUSH2 0x74B JUMPI JUMPDEST ISZERO SWAP1 DUP2 PUSH2 0x742 JUMPI JUMPDEST POP PUSH2 0x730 JUMPI PUSH8 0xFFFFFFFFFFFFFFFF NOT DUP2 AND PUSH1 0x1 OR DUP5 SSTORE DUP3 PUSH2 0x711 JUMPI JUMPDEST POP PUSH2 0x673 PUSH2 0x22BE JUMP JUMPDEST PUSH2 0x67B PUSH2 0x22BE JUMP JUMPDEST PUSH2 0x684 CALLER PUSH2 0x1FC0 JUMP JUMPDEST PUSH2 0x68C PUSH2 0x22BE JUMP JUMPDEST PUSH2 0x694 PUSH2 0x22BE JUMP JUMPDEST PUSH2 0x69C PUSH2 0x22BE JUMP JUMPDEST PUSH1 0x1 PUSH1 0x0 DUP1 MLOAD PUSH1 0x20 PUSH2 0x2383 DUP4 CODECOPY DUP2 MLOAD SWAP2 MSTORE SSTORE PUSH1 0x1 DUP1 PUSH1 0xA0 SHL SUB AND PUSH12 0xFFFFFFFFFFFFFFFFFFFFFFFF PUSH1 0xA0 SHL PUSH1 0x0 SLOAD AND OR PUSH1 0x0 SSTORE PUSH2 0x6D4 JUMPI STOP JUMPDEST PUSH9 0xFF0000000000000000 NOT DUP2 SLOAD AND SWAP1 SSTORE PUSH32 0xC7F505B2F371AE2175EE4913F4499E1F2633A7B5936321EED1CDAEB6115181D2 PUSH1 0x20 PUSH1 0x40 MLOAD PUSH1 0x1 DUP2 MSTORE LOG1 STOP JUMPDEST PUSH9 0xFFFFFFFFFFFFFFFFFF NOT AND PUSH9 0x10000000000000001 OR DUP4 SSTORE DUP4 PUSH2 0x66A JUMP JUMPDEST PUSH1 0x40 MLOAD PUSH4 0xF92EE8A9 PUSH1 0xE0 SHL DUP2 MSTORE PUSH1 0x4 SWAP1 REVERT JUMPDEST SWAP1 POP ISZERO DUP6 PUSH2 0x64E JUMP JUMPDEST ADDRESS EXTCODESIZE ISZERO SWAP2 POP PUSH2 0x646 JUMP JUMPDEST DUP5 SWAP2 POP PUSH2 0x63C JUMP JUMPDEST CALLVALUE PUSH2 0x132 JUMPI PUSH2 0x76B CALLDATASIZE PUSH2 0x1D5E JUMP JUMPDEST SWAP1 PUSH2 0x774 PUSH2 0x2034 JUMP JUMPDEST PUSH1 0x40 MLOAD PUSH1 0x20 DUP2 DUP4 MLOAD PUSH2 0x789 DUP2 DUP4 DUP6 DUP9 ADD PUSH2 0x1B3E JUMP JUMPDEST DUP2 ADD PUSH1 0x1 DUP2 MSTORE SUB ADD SWAP1 KECCAK256 PUSH1 0x1 DUP1 PUSH1 0xA0 SHL SUB PUSH1 0x1 DUP3 ADD SLOAD AND CALLER SUB PUSH2 0xA52 JUMPI PUSH2 0x7B6 PUSH1 0xFF PUSH1 0x7 DUP4 ADD SLOAD AND PUSH2 0x1EB8 JUMP JUMPDEST DUP3 ISZERO PUSH2 0xA01 JUMPI PUSH2 0x7CA DUP4 PUSH1 0xE DUP4 ADD SLOAD PUSH2 0x1DB5 JUMP JUMPDEST PUSH1 0xD DUP3 ADD SLOAD LT PUSH2 0x9BC JUMPI PUSH1 0x0 SLOAD PUSH2 0x7EF SWAP1 DUP5 SWAP1 ADDRESS SWAP1 CALLER SWAP1 PUSH1 0x1 PUSH1 0x1 PUSH1 0xA0 SHL SUB AND PUSH2 0x2064 JUMP JUMPDEST PUSH2 0x7FD DUP4 PUSH1 0xE DUP4 ADD SLOAD PUSH2 0x1DB5 JUMP JUMPDEST PUSH1 0xE DUP3 ADD SSTORE PUSH1 0x0 JUMPDEST PUSH1 0xF DUP3 ADD SLOAD DUP2 LT ISZERO PUSH2 0x905 JUMPI PUSH2 0x81E DUP2 PUSH1 0xF DUP5 ADD PUSH2 0x19F9 JUMP JUMPDEST SWAP1 SLOAD PUSH1 0x3 SWAP2 SWAP1 SWAP2 SHL SHR PUSH1 0x1 PUSH1 0x1 PUSH1 0xA0 SHL SUB AND SWAP1 DUP2 ISZERO ISZERO DUP1 PUSH2 0x8EC JUMPI JUMPDEST PUSH2 0x849 JUMPI JUMPDEST PUSH1 0x1 SWAP2 POP ADD PUSH2 0x805 JUMP JUMPDEST DUP2 PUSH1 0x0 MSTORE PUSH1 0x10 DUP4 ADD PUSH1 0x20 MSTORE PUSH1 0x40 PUSH1 0x0 KECCAK256 SLOAD SWAP2 DUP3 DUP7 DUP2 MUL DIV DUP7 EQ DUP4 ISZERO OR ISZERO PUSH2 0x8D6 JUMPI PUSH1 0xD DUP5 ADD SLOAD DUP1 ISZERO PUSH2 0x8C0 JUMPI DUP7 PUSH1 0x1 SWAP5 MUL DIV SWAP1 DUP2 PUSH2 0x889 JUMPI JUMPDEST POP POP PUSH2 0x83F JUMP JUMPDEST PUSH2 0x89D DUP3 DUP3 DUP7 DUP1 PUSH1 0xA0 SHL SUB PUSH1 0x0 SLOAD AND PUSH2 0x21CE JUMP JUMPDEST PUSH1 0x0 MSTORE PUSH1 0x10 DUP5 ADD PUSH1 0x20 MSTORE PUSH2 0x8B7 PUSH1 0x40 PUSH1 0x0 KECCAK256 SWAP2 DUP3 SLOAD PUSH2 0x1F04 JUMP JUMPDEST SWAP1 SSTORE DUP6 DUP1 PUSH2 0x882 JUMP JUMPDEST PUSH4 0x4E487B71 PUSH1 0xE0 SHL PUSH1 0x0 MSTORE PUSH1 0x12 PUSH1 0x4 MSTORE PUSH1 0x24 PUSH1 0x0 REVERT JUMPDEST PUSH4 0x4E487B71 PUSH1 0xE0 SHL PUSH1 0x0 MSTORE PUSH1 0x11 PUSH1 0x4 MSTORE PUSH1 0x24 PUSH1 0x0 REVERT JUMPDEST POP DUP2 PUSH1 0x0 MSTORE PUSH1 0x10 DUP4 ADD PUSH1 0x20 MSTORE PUSH1 0x40 PUSH1 0x0 KECCAK256 SLOAD ISZERO ISZERO PUSH2 0x83A JUMP JUMPDEST POP DUP3 PUSH32 0x6052DF171EEC68D8662FFC10214CF42C318AA882862FC729DE6746FFC6D2C538 PUSH1 0x40 MLOAD PUSH1 0x40 DUP2 MSTORE PUSH2 0x93C PUSH1 0x40 DUP3 ADD DUP7 PUSH2 0x1B61 JUMP JUMPDEST SWAP3 PUSH1 0x20 DUP3 ADD MSTORE DUP1 CALLER SWAP4 SUB SWAP1 LOG2 PUSH1 0xE DUP2 ADD SLOAD PUSH1 0xD DUP3 ADD SLOAD GT ISZERO PUSH2 0x96D JUMPI JUMPDEST PUSH1 0x1 PUSH1 0x0 DUP1 MLOAD PUSH1 0x20 PUSH2 0x2383 DUP4 CODECOPY DUP2 MLOAD SWAP2 MSTORE SSTORE STOP JUMPDEST PUSH1 0x7 PUSH1 0xFF NOT DUP2 DUP4 ADD SLOAD AND SWAP2 ADD SSTORE PUSH32 0xDECC5F5A8DCDF1C8AA17E12213169C28B4D8DE95678AA033C3063EB6530E6B43 PUSH1 0x40 MLOAD PUSH1 0x20 DUP2 MSTORE DUP1 PUSH2 0x9B2 CALLER SWAP5 PUSH1 0x20 DUP4 ADD SWAP1 PUSH2 0x1B61 JUMP JUMPDEST SUB SWAP1 LOG2 DUP1 DUP1 PUSH2 0x959 JUMP JUMPDEST PUSH1 0x40 MLOAD PUSH3 0x461BCD PUSH1 0xE5 SHL DUP2 MSTORE PUSH1 0x20 PUSH1 0x4 DUP3 ADD MSTORE PUSH1 0x1D PUSH1 0x24 DUP3 ADD MSTORE PUSH32 0x52657061796D656E742065786365656473206C656E7420616D6F756E74000000 PUSH1 0x44 DUP3 ADD MSTORE PUSH1 0x64 SWAP1 REVERT JUMPDEST PUSH1 0x40 MLOAD PUSH3 0x461BCD PUSH1 0xE5 SHL DUP2 MSTORE PUSH1 0x20 PUSH1 0x4 DUP3 ADD MSTORE PUSH1 0x23 PUSH1 0x24 DUP3 ADD MSTORE PUSH32 0x526570617920616D6F756E74206D757374206265206772656174657220746861 PUSH1 0x44 DUP3 ADD MSTORE PUSH3 0x6E203 PUSH1 0xEC SHL PUSH1 0x64 DUP3 ADD MSTORE PUSH1 0x84 SWAP1 REVERT JUMPDEST PUSH1 0x40 MLOAD PUSH3 0x461BCD PUSH1 0xE5 SHL DUP2 MSTORE PUSH1 0x20 PUSH1 0x4 DUP3 ADD MSTORE PUSH1 0x17 PUSH1 0x24 DUP3 ADD MSTORE PUSH32 0x4F6E6C7920626F72726F7765722063616E207265706179000000000000000000 PUSH1 0x44 DUP3 ADD MSTORE PUSH1 0x64 SWAP1 REVERT JUMPDEST CALLVALUE PUSH2 0x132 JUMPI PUSH1 0x40 CALLDATASIZE PUSH1 0x3 NOT ADD SLT PUSH2 0x132 JUMPI PUSH1 0x4 CALLDATALOAD PUSH1 0x1 PUSH1 0x1 PUSH1 0x40 SHL SUB DUP2 GT PUSH2 0x132 JUMPI PUSH2 0xAC7 SWAP1 CALLDATASIZE SWAP1 PUSH1 0x4 ADD PUSH2 0x1BD8 JUMP JUMPDEST PUSH1 0x24 CALLDATALOAD PUSH1 0x1 PUSH1 0x1 PUSH1 0xA0 SHL SUB DUP2 AND SWAP2 SWAP1 DUP3 SWAP1 SUB PUSH2 0x132 JUMPI PUSH2 0xAE8 PUSH1 0x10 SWAP2 PUSH2 0x1D8F JUMP JUMPDEST ADD SWAP1 PUSH1 0x0 MSTORE PUSH1 0x20 MSTORE PUSH1 0x20 PUSH1 0x40 PUSH1 0x0 KECCAK256 SLOAD PUSH1 0x40 MLOAD SWAP1 DUP2 MSTORE RETURN JUMPDEST CALLVALUE PUSH2 0x132 JUMPI PUSH1 0x0 CALLDATASIZE PUSH1 0x3 NOT ADD SLT PUSH2 0x132 JUMPI PUSH1 0x40 MLOAD PUSH1 0x40 DUP2 ADD SWAP1 DUP1 DUP3 LT PUSH1 0x1 PUSH1 0x1 PUSH1 0x40 SHL SUB DUP4 GT OR PUSH2 0x2E9 JUMPI PUSH2 0x43E SWAP2 PUSH1 0x40 MSTORE PUSH1 0x5 DUP2 MSTORE PUSH5 0x352E302E3 PUSH1 0xDC SHL PUSH1 0x20 DUP3 ADD MSTORE PUSH1 0x40 MLOAD SWAP2 DUP3 SWAP2 PUSH1 0x20 DUP4 MSTORE PUSH1 0x20 DUP4 ADD SWAP1 PUSH2 0x1B61 JUMP JUMPDEST CALLVALUE PUSH2 0x132 JUMPI PUSH1 0x0 CALLDATASIZE PUSH1 0x3 NOT ADD SLT PUSH2 0x132 JUMPI PUSH1 0x20 PUSH1 0x40 MLOAD PUSH1 0x2A DUP2 MSTORE RETURN JUMPDEST CALLVALUE PUSH2 0x132 JUMPI PUSH1 0x20 DUP1 PUSH1 0x3 NOT CALLDATASIZE ADD SLT PUSH2 0x132 JUMPI PUSH1 0x4 CALLDATALOAD PUSH1 0x1 PUSH1 0x1 PUSH1 0x40 SHL SUB DUP2 GT PUSH2 0x132 JUMPI PUSH2 0xBA5 SWAP1 CALLDATASIZE SWAP1 PUSH1 0x4 ADD PUSH2 0x1BD8 JUMP JUMPDEST SWAP1 PUSH1 0xF DUP2 PUSH2 0xBBC PUSH1 0x40 MLOAD SWAP5 DUP6 DUP2 MLOAD SWAP4 DUP5 SWAP3 ADD PUSH2 0x1B3E JUMP JUMPDEST DUP4 ADD SWAP3 DUP3 DUP2 PUSH1 0x1 SWAP6 PUSH1 0x1 DUP2 MSTORE SUB ADD SWAP1 KECCAK256 ADD SWAP2 PUSH1 0x40 MLOAD SWAP2 DUP3 DUP2 DUP6 SLOAD SWAP2 DUP3 DUP2 MSTORE ADD SWAP1 DUP2 SWAP6 PUSH1 0x0 MSTORE DUP3 PUSH1 0x0 KECCAK256 SWAP1 PUSH1 0x0 JUMPDEST DUP2 DUP2 LT PUSH2 0xC40 JUMPI POP POP POP DUP4 PUSH2 0xBFF SWAP2 SUB DUP5 PUSH2 0x1A67 JUMP JUMPDEST PUSH1 0x40 MLOAD SWAP3 DUP2 DUP5 ADD SWAP1 DUP3 DUP6 MSTORE MLOAD DUP1 SWAP2 MSTORE PUSH1 0x40 DUP5 ADD SWAP5 SWAP2 PUSH1 0x0 JUMPDEST DUP3 DUP2 LT PUSH2 0xC24 JUMPI DUP6 DUP8 SUB DUP7 RETURN JUMPDEST DUP4 MLOAD PUSH1 0x1 PUSH1 0x1 PUSH1 0xA0 SHL SUB AND DUP8 MSTORE SWAP6 DUP2 ADD SWAP6 SWAP3 DUP2 ADD SWAP3 DUP5 ADD PUSH2 0xC17 JUMP JUMPDEST DUP3 SLOAD PUSH1 0x1 PUSH1 0x1 PUSH1 0xA0 SHL SUB AND DUP5 MSTORE SWAP3 DUP5 ADD SWAP3 SWAP2 DUP6 ADD SWAP2 DUP6 ADD PUSH2 0xBE9 JUMP JUMPDEST CALLVALUE PUSH2 0x132 JUMPI PUSH1 0x20 CALLDATASIZE PUSH1 0x3 NOT ADD SLT PUSH2 0x132 JUMPI PUSH1 0x20 PUSH2 0xC7A PUSH1 0x4 CALLDATALOAD PUSH2 0x1FA5 JUMP JUMPDEST PUSH1 0x40 MLOAD SWAP1 DUP2 MSTORE RETURN JUMPDEST CALLVALUE PUSH2 0x132 JUMPI PUSH1 0x0 CALLDATASIZE PUSH1 0x3 NOT ADD SLT PUSH2 0x132 JUMPI PUSH1 0x0 DUP1 MLOAD PUSH1 0x20 PUSH2 0x2363 DUP4 CODECOPY DUP2 MLOAD SWAP2 MSTORE SLOAD PUSH1 0x40 MLOAD PUSH1 0x1 PUSH1 0x1 PUSH1 0xA0 SHL SUB SWAP1 SWAP2 AND DUP2 MSTORE PUSH1 0x20 SWAP1 RETURN JUMPDEST CALLVALUE PUSH2 0x132 JUMPI PUSH1 0x0 CALLDATASIZE PUSH1 0x3 NOT ADD SLT PUSH2 0x132 JUMPI PUSH2 0xCD1 PUSH2 0x221D JUMP JUMPDEST PUSH1 0x0 DUP1 MLOAD PUSH1 0x20 PUSH2 0x2363 DUP4 CODECOPY DUP2 MLOAD SWAP2 MSTORE DUP1 SLOAD PUSH1 0x1 PUSH1 0x1 PUSH1 0xA0 SHL SUB NOT DUP2 AND SWAP1 SWAP2 SSTORE PUSH1 0x0 SWAP1 PUSH1 0x1 PUSH1 0x1 PUSH1 0xA0 SHL SUB AND PUSH32 0x8BE0079C531659141344CD1FD0A4F28419497F9722A3DAAFE3B4186F6B6457E0 DUP3 DUP1 LOG3 STOP JUMPDEST CALLVALUE PUSH2 0x132 JUMPI PUSH1 0x0 CALLDATASIZE PUSH1 0x3 NOT ADD SLT PUSH2 0x132 JUMPI PUSH1 0x2 SWAP1 PUSH1 0x2 SLOAD PUSH2 0xD42 DUP2 PUSH2 0x1DD9 JUMP JUMPDEST SWAP3 PUSH1 0x0 SWAP3 PUSH1 0x0 JUMPDEST DUP4 DUP2 LT PUSH2 0xD9E JUMPI DUP6 DUP6 PUSH2 0xD5B DUP2 PUSH2 0x1DD9 JUMP JUMPDEST SWAP2 PUSH1 0x0 JUMPDEST DUP3 DUP2 LT PUSH2 0xD74 JUMPI PUSH1 0x40 MLOAD DUP1 PUSH2 0x43E DUP7 DUP3 PUSH2 0x1C09 JUMP JUMPDEST DUP1 PUSH2 0xD81 PUSH1 0x1 SWAP3 DUP5 PUSH2 0x1E95 JUMP JUMPDEST MLOAD PUSH2 0xD8C DUP3 DUP8 PUSH2 0x1E95 JUMP JUMPDEST MSTORE PUSH2 0xD97 DUP2 DUP7 PUSH2 0x1E95 JUMP JUMPDEST POP ADD PUSH2 0xD5F JUMP JUMPDEST PUSH2 0xDB9 PUSH2 0xDAA DUP3 PUSH2 0x19AC JUMP JUMPDEST POP PUSH1 0xFF DUP1 SWAP2 PUSH1 0x7 SWAP4 DUP5 SWAP2 PUSH2 0x1F11 JUMP JUMPDEST ADD SLOAD AND PUSH2 0xDCB JUMPI JUMPDEST POP POP PUSH1 0x1 ADD PUSH2 0xD49 JUMP JUMPDEST SWAP6 PUSH1 0x20 PUSH2 0xEE2 SWAP3 DUP7 PUSH2 0xEB5 PUSH1 0xC DUP8 SWAP12 PUSH2 0xDEE PUSH2 0xDE8 PUSH1 0x1 SWAP11 PUSH2 0x19AC JUMP JUMPDEST POP PUSH2 0x1F11 JUMP JUMPDEST SWAP1 DUP10 DUP1 PUSH1 0xA0 SHL SUB DUP11 DUP4 ADD SLOAD AND SWAP6 PUSH1 0x3 DUP4 ADD SLOAD SWAP2 PUSH1 0x4 DUP5 ADD SLOAD PUSH1 0x5 DUP6 ADD SLOAD SWAP2 PUSH1 0x6 DUP7 ADD SLOAD SWAP4 DUP7 ADD SLOAD AND SWAP4 PUSH2 0xE48 PUSH1 0xD DUP8 ADD SLOAD SWAP10 PUSH1 0xE DUP9 ADD SLOAD SWAP12 PUSH1 0x40 MLOAD SWAP14 DUP15 PUSH2 0xE34 DUP2 PUSH2 0x1A4B JUMP JUMPDEST PUSH2 0xE3D DUP12 PUSH2 0x1A88 JUMP JUMPDEST DUP2 MSTORE ADD MSTORE DUP8 ADD PUSH2 0x1A88 JUMP JUMPDEST PUSH1 0x40 DUP13 ADD MSTORE PUSH1 0x60 DUP12 ADD MSTORE PUSH1 0x80 DUP11 ADD MSTORE PUSH1 0xA0 DUP10 ADD MSTORE PUSH1 0xC0 DUP9 ADD MSTORE ISZERO ISZERO DUP11 DUP8 ADD MSTORE PUSH2 0xE73 PUSH1 0x8 DUP3 ADD PUSH2 0x1A88 JUMP JUMPDEST PUSH2 0x100 DUP8 ADD MSTORE PUSH2 0xE85 PUSH1 0x9 DUP3 ADD PUSH2 0x1A88 JUMP JUMPDEST PUSH2 0x120 DUP8 ADD MSTORE PUSH2 0xE97 PUSH1 0xA DUP3 ADD PUSH2 0x1A88 JUMP JUMPDEST PUSH2 0x140 DUP8 ADD MSTORE PUSH2 0xEA9 PUSH1 0xB DUP3 ADD PUSH2 0x1A88 JUMP JUMPDEST PUSH2 0x160 DUP8 ADD MSTORE ADD PUSH2 0x1A88 JUMP JUMPDEST PUSH2 0x180 DUP5 ADD MSTORE PUSH2 0x1A0 DUP4 ADD MSTORE PUSH2 0x1C0 DUP3 ADD MSTORE PUSH2 0xED1 DUP3 DUP11 PUSH2 0x1E95 JUMP JUMPDEST MSTORE PUSH2 0xEDC DUP2 DUP10 PUSH2 0x1E95 JUMP JUMPDEST POP PUSH2 0x1EA9 JUMP JUMPDEST SWAP5 SWAP1 DUP8 PUSH2 0xDC1 JUMP JUMPDEST CALLVALUE PUSH2 0x132 JUMPI PUSH1 0x0 CALLDATASIZE PUSH1 0x3 NOT ADD SLT PUSH2 0x132 JUMPI PUSH32 0x0 PUSH1 0x1 PUSH1 0x1 PUSH1 0xA0 SHL SUB AND ADDRESS SUB PUSH2 0xF55 JUMPI PUSH1 0x20 PUSH1 0x40 MLOAD PUSH32 0x360894A13BA1A3210667C828492DB98DCA3E2076CC3735A920A3CA505D382BBC DUP2 MSTORE RETURN JUMPDEST PUSH1 0x40 MLOAD PUSH4 0x703E46DD PUSH1 0xE1 SHL DUP2 MSTORE PUSH1 0x4 SWAP1 REVERT JUMPDEST PUSH1 0x40 CALLDATASIZE PUSH1 0x3 NOT ADD SLT PUSH2 0x132 JUMPI PUSH2 0xF7B PUSH2 0x1BF3 JUMP JUMPDEST PUSH1 0x24 CALLDATALOAD PUSH1 0x1 PUSH1 0x1 PUSH1 0x40 SHL SUB DUP2 GT PUSH2 0x132 JUMPI CALLDATASIZE PUSH1 0x23 DUP3 ADD SLT ISZERO PUSH2 0x132 JUMPI PUSH2 0xFAB SWAP1 CALLDATASIZE SWAP1 PUSH1 0x24 DUP2 PUSH1 0x4 ADD CALLDATALOAD SWAP2 ADD PUSH2 0x1BA1 JUMP JUMPDEST SWAP1 PUSH1 0x1 PUSH1 0x1 PUSH1 0xA0 SHL SUB PUSH32 0x0 DUP2 AND ADDRESS DUP2 EQ SWAP1 DUP2 ISZERO PUSH2 0x1167 JUMPI JUMPDEST POP PUSH2 0xF55 JUMPI PUSH2 0xFEF PUSH2 0x221D JUMP JUMPDEST PUSH1 0x40 MLOAD PUSH4 0x52D1902D PUSH1 0xE0 SHL DUP2 MSTORE SWAP1 DUP3 AND SWAP2 PUSH1 0x20 SWAP2 DUP3 DUP2 PUSH1 0x4 DUP2 DUP8 GAS STATICCALL PUSH1 0x0 SWAP2 DUP2 PUSH2 0x1138 JUMPI JUMPDEST POP PUSH2 0x1032 JUMPI PUSH1 0x40 MLOAD PUSH4 0x4C9C8CE3 PUSH1 0xE0 SHL DUP2 MSTORE PUSH1 0x4 DUP2 ADD DUP6 SWAP1 MSTORE PUSH1 0x24 SWAP1 REVERT JUMPDEST SWAP3 DUP5 SWAP4 PUSH32 0x360894A13BA1A3210667C828492DB98DCA3E2076CC3735A920A3CA505D382BBC SWAP1 DUP2 DUP2 SUB PUSH2 0x1120 JUMPI POP DUP3 EXTCODESIZE ISZERO PUSH2 0x1107 JUMPI DUP1 SLOAD PUSH1 0x1 PUSH1 0x1 PUSH1 0xA0 SHL SUB NOT AND DUP3 OR SWAP1 SSTORE PUSH1 0x40 MLOAD SWAP1 PUSH32 0xBC7CD75A20EE27FD9ADEBAB32041F755214DBC6BFFA90CC0225B39DA2E5C2D3B PUSH1 0x0 DUP1 LOG2 DUP4 MLOAD ISZERO PUSH2 0x10ED JUMPI POP PUSH1 0x0 DUP1 DUP5 DUP5 PUSH2 0x130 SWAP7 MLOAD SWAP2 ADD DUP5 GAS DELEGATECALL SWAP1 RETURNDATASIZE ISZERO PUSH2 0x10E4 JUMPI RETURNDATASIZE PUSH2 0x10C7 DUP2 PUSH2 0x1B86 JUMP JUMPDEST SWAP1 PUSH2 0x10D5 PUSH1 0x40 MLOAD SWAP3 DUP4 PUSH2 0x1A67 JUMP JUMPDEST DUP2 MSTORE PUSH1 0x0 DUP2 SWAP5 RETURNDATASIZE SWAP3 ADD RETURNDATACOPY PUSH2 0x22FF JUMP JUMPDEST PUSH1 0x60 SWAP3 POP PUSH2 0x22FF JUMP JUMPDEST SWAP3 POP POP POP CALLVALUE PUSH2 0x10F8 JUMPI STOP JUMPDEST PUSH4 0xB398979F PUSH1 0xE0 SHL DUP2 MSTORE PUSH1 0x4 SWAP1 REVERT JUMPDEST PUSH1 0x40 MLOAD PUSH4 0x4C9C8CE3 PUSH1 0xE0 SHL DUP2 MSTORE PUSH1 0x4 DUP2 ADD DUP4 SWAP1 MSTORE PUSH1 0x24 SWAP1 REVERT JUMPDEST PUSH1 0x24 SWAP1 PUSH1 0x40 MLOAD SWAP1 PUSH4 0x2A875269 PUSH1 0xE2 SHL DUP3 MSTORE PUSH1 0x4 DUP3 ADD MSTORE REVERT JUMPDEST SWAP1 SWAP2 POP DUP4 DUP2 DUP2 RETURNDATASIZE DUP4 GT PUSH2 0x1160 JUMPI JUMPDEST PUSH2 0x1150 DUP2 DUP4 PUSH2 0x1A67 JUMP JUMPDEST DUP2 ADD SUB SLT PUSH2 0x132 JUMPI MLOAD SWAP1 DUP7 PUSH2 0x1014 JUMP JUMPDEST POP RETURNDATASIZE PUSH2 0x1146 JUMP JUMPDEST SWAP1 POP DUP2 PUSH32 0x360894A13BA1A3210667C828492DB98DCA3E2076CC3735A920A3CA505D382BBC SLOAD AND EQ ISZERO DUP5 PUSH2 0xFE2 JUMP JUMPDEST CALLVALUE PUSH2 0x132 JUMPI PUSH1 0x20 DUP1 PUSH1 0x3 NOT CALLDATASIZE ADD SLT PUSH2 0x132 JUMPI PUSH1 0x4 CALLDATALOAD PUSH1 0x1 PUSH1 0x1 PUSH1 0x40 SHL SUB DUP2 GT PUSH2 0x132 JUMPI PUSH2 0x11C6 SWAP1 CALLDATASIZE SWAP1 PUSH1 0x4 ADD PUSH2 0x1BD8 JUMP JUMPDEST PUSH2 0x11CE PUSH2 0x2034 JUMP JUMPDEST PUSH1 0x40 MLOAD DUP3 DUP2 DUP4 MLOAD PUSH2 0x11E2 DUP2 DUP4 DUP6 DUP9 ADD PUSH2 0x1B3E JUMP JUMPDEST DUP2 ADD PUSH1 0x1 DUP2 MSTORE SUB ADD SWAP1 KECCAK256 PUSH1 0x1 DUP1 PUSH1 0xA0 SHL SUB DUP1 PUSH1 0x1 DUP4 ADD SLOAD AND CALLER SUB PUSH2 0x12A0 JUMPI SWAP2 DUP2 PUSH32 0xDECC5F5A8DCDF1C8AA17E12213169C28B4D8DE95678AA033C3063EB6530E6B43 SWAP4 PUSH1 0x7 PUSH2 0x1268 SWAP5 ADD DUP1 SLOAD PUSH2 0x1239 PUSH1 0xFF DUP3 AND PUSH2 0x1EB8 JUMP JUMPDEST PUSH1 0xFF NOT AND SWAP1 SSTORE PUSH1 0xD PUSH1 0x3 DUP4 ADD SLOAD SWAP3 ADD SLOAD SWAP2 DUP3 DUP2 GT PUSH2 0x127F JUMPI JUMPDEST POP POP POP PUSH1 0x40 MLOAD SWAP2 DUP3 SWAP2 DUP6 DUP4 MSTORE CALLER SWAP6 DUP4 ADD SWAP1 PUSH2 0x1B61 JUMP JUMPDEST SUB SWAP1 LOG2 PUSH1 0x1 PUSH1 0x0 DUP1 MLOAD PUSH1 0x20 PUSH2 0x2383 DUP4 CODECOPY DUP2 MLOAD SWAP2 MSTORE SSTORE STOP JUMPDEST PUSH2 0x1298 SWAP3 PUSH2 0x128C SWAP2 PUSH2 0x1F04 JUMP JUMPDEST SWAP1 CALLER SWAP1 PUSH1 0x0 SLOAD AND PUSH2 0x21CE JUMP JUMPDEST DUP5 DUP1 DUP1 PUSH2 0x1252 JUMP JUMPDEST PUSH1 0x40 MLOAD PUSH3 0x461BCD PUSH1 0xE5 SHL DUP2 MSTORE PUSH1 0x4 DUP2 ADD DUP6 SWAP1 MSTORE PUSH1 0x1F PUSH1 0x24 DUP3 ADD MSTORE PUSH32 0x4F6E6C7920626F72726F7765722063616E20656E6420626F72726F77696E6700 PUSH1 0x44 DUP3 ADD MSTORE PUSH1 0x64 SWAP1 REVERT JUMPDEST CALLVALUE PUSH2 0x132 JUMPI PUSH1 0x20 SWAP1 DUP2 PUSH1 0x3 NOT CALLDATASIZE ADD SLT PUSH2 0x132 JUMPI PUSH1 0x1 PUSH1 0x1 PUSH1 0xA0 SHL SUB DUP1 PUSH2 0x1309 PUSH2 0x1BF3 JUMP JUMPDEST AND PUSH1 0x0 MSTORE PUSH1 0x3 DUP1 DUP5 MSTORE PUSH1 0x40 PUSH1 0x0 KECCAK256 SWAP3 DUP4 SLOAD PUSH2 0x1323 DUP2 PUSH2 0x1DC2 JUMP JUMPDEST SWAP5 PUSH2 0x1331 PUSH1 0x40 MLOAD SWAP7 DUP8 PUSH2 0x1A67 JUMP JUMPDEST DUP2 DUP7 MSTORE PUSH1 0x0 SWAP1 DUP2 MSTORE DUP7 DUP2 KECCAK256 DUP8 DUP1 DUP9 ADD JUMPDEST DUP5 DUP5 LT PUSH2 0x14B4 JUMPI POP POP POP POP POP PUSH2 0x1357 DUP5 MLOAD PUSH2 0x1DD9 JUMP JUMPDEST SWAP2 PUSH1 0x0 SWAP3 PUSH1 0x0 JUMPDEST DUP7 MLOAD DUP2 LT ISZERO PUSH2 0x1466 JUMPI DUP8 PUSH1 0xFF PUSH1 0x7 DUP10 DUP3 DUP3 PUSH2 0x1382 PUSH2 0x137C DUP9 DUP6 PUSH2 0x1E95 JUMP JUMPDEST MLOAD PUSH2 0x1D8F JUMP JUMPDEST ADD SLOAD AND PUSH2 0x1396 JUMPI JUMPDEST POP POP POP POP PUSH1 0x1 ADD PUSH2 0x135E JUMP JUMPDEST SWAP2 PUSH2 0x145A SWAP4 SWAP2 PUSH2 0x1433 PUSH1 0xC PUSH2 0x13B2 PUSH2 0x137C DUP10 PUSH1 0x1 SWAP11 SWAP15 SWAP9 PUSH2 0x1E95 JUMP JUMPDEST DUP14 DUP10 DUP3 ADD SLOAD AND SWAP5 DUP12 DUP3 ADD SLOAD SWAP5 PUSH1 0x4 DUP4 ADD SLOAD SWAP2 PUSH1 0x5 DUP5 ADD SLOAD SWAP1 PUSH1 0x6 DUP6 ADD SLOAD SWAP3 DUP6 ADD SLOAD AND SWAP3 PUSH1 0xD DUP6 ADD SLOAD SWAP8 PUSH1 0xE DUP7 ADD SLOAD SWAP10 PUSH1 0x40 MLOAD SWAP12 PUSH2 0x13EE DUP14 PUSH2 0x1A4B JUMP JUMPDEST PUSH2 0x13F7 DUP9 PUSH2 0x1A88 JUMP JUMPDEST DUP14 MSTORE DUP13 ADD MSTORE PUSH2 0x1408 PUSH1 0x2 DUP8 ADD PUSH2 0x1A88 JUMP JUMPDEST PUSH1 0x40 DUP13 ADD MSTORE PUSH1 0x60 DUP12 ADD MSTORE PUSH1 0x80 DUP11 ADD MSTORE PUSH1 0xA0 DUP10 ADD MSTORE PUSH1 0xC0 DUP9 ADD MSTORE ISZERO ISZERO DUP13 DUP8 ADD MSTORE PUSH2 0xE73 PUSH1 0x8 DUP3 ADD PUSH2 0x1A88 JUMP JUMPDEST PUSH2 0x180 DUP5 ADD MSTORE PUSH2 0x1A0 DUP4 ADD MSTORE PUSH2 0x1C0 DUP3 ADD MSTORE PUSH2 0x144F DUP3 DUP7 PUSH2 0x1E95 JUMP JUMPDEST MSTORE PUSH2 0xEDC DUP2 DUP6 PUSH2 0x1E95 JUMP JUMPDEST SWAP5 SWAP1 POP DUP8 DUP10 DUP1 DUP10 PUSH2 0x138A JUMP JUMPDEST POP DUP4 PUSH2 0x1471 DUP2 PUSH2 0x1DD9 JUMP JUMPDEST SWAP2 PUSH1 0x0 JUMPDEST DUP3 DUP2 LT PUSH2 0x148A JUMPI PUSH1 0x40 MLOAD DUP1 PUSH2 0x43E DUP7 DUP3 PUSH2 0x1C09 JUMP JUMPDEST DUP1 PUSH2 0x1497 PUSH1 0x1 SWAP3 DUP5 PUSH2 0x1E95 JUMP JUMPDEST MLOAD PUSH2 0x14A2 DUP3 DUP8 PUSH2 0x1E95 JUMP JUMPDEST MSTORE PUSH2 0x14AD DUP2 DUP7 PUSH2 0x1E95 JUMP JUMPDEST POP ADD PUSH2 0x1475 JUMP JUMPDEST PUSH1 0x1 SWAP2 DUP3 SWAP2 PUSH2 0x14C2 DUP6 PUSH2 0x1A88 JUMP JUMPDEST DUP2 MSTORE ADD SWAP3 ADD SWAP3 ADD SWAP2 SWAP1 DUP9 SWAP1 PUSH2 0x1341 JUMP JUMPDEST CALLVALUE PUSH2 0x132 JUMPI PUSH1 0x0 CALLDATASIZE PUSH1 0x3 NOT ADD SLT PUSH2 0x132 JUMPI PUSH1 0x0 SLOAD PUSH1 0x40 MLOAD PUSH1 0x1 PUSH1 0x1 PUSH1 0xA0 SHL SUB SWAP1 SWAP2 AND DUP2 MSTORE PUSH1 0x20 SWAP1 RETURN JUMPDEST CALLVALUE PUSH2 0x132 JUMPI PUSH2 0x120 CALLDATASIZE PUSH1 0x3 NOT ADD SLT PUSH2 0x132 JUMPI PUSH1 0x1 PUSH1 0x1 PUSH1 0x40 SHL SUB PUSH1 0x4 CALLDATALOAD DUP2 DUP2 GT PUSH2 0x132 JUMPI PUSH2 0x152D SWAP1 CALLDATASIZE SWAP1 PUSH1 0x4 ADD PUSH2 0x1BD8 JUMP JUMPDEST PUSH1 0x24 CALLDATALOAD DUP3 DUP2 GT PUSH2 0x132 JUMPI PUSH2 0x1545 SWAP1 CALLDATASIZE SWAP1 PUSH1 0x4 ADD PUSH2 0x1BD8 JUMP JUMPDEST PUSH1 0x84 CALLDATALOAD DUP4 DUP2 GT PUSH2 0x132 JUMPI PUSH2 0x155D SWAP1 CALLDATASIZE SWAP1 PUSH1 0x4 ADD PUSH2 0x1BD8 JUMP JUMPDEST SWAP2 PUSH1 0xA4 CALLDATALOAD DUP5 DUP2 GT PUSH2 0x132 JUMPI PUSH2 0x1576 SWAP1 CALLDATASIZE SWAP1 PUSH1 0x4 ADD PUSH2 0x1BD8 JUMP JUMPDEST SWAP2 PUSH1 0xC4 CALLDATALOAD DUP6 DUP2 GT PUSH2 0x132 JUMPI PUSH2 0x158F SWAP1 CALLDATASIZE SWAP1 PUSH1 0x4 ADD PUSH2 0x1BD8 JUMP JUMPDEST SWAP4 PUSH1 0xE4 CALLDATALOAD DUP7 DUP2 GT PUSH2 0x132 JUMPI PUSH2 0x15A8 SWAP1 CALLDATASIZE SWAP1 PUSH1 0x4 ADD PUSH2 0x1BD8 JUMP JUMPDEST SWAP6 PUSH2 0x104 CALLDATALOAD SWAP1 DUP2 GT PUSH2 0x132 JUMPI PUSH2 0x15C2 SWAP1 CALLDATASIZE SWAP1 PUSH1 0x4 ADD PUSH2 0x1BD8 JUMP JUMPDEST SWAP6 PUSH2 0x15CB PUSH2 0x2034 JUMP JUMPDEST PUSH1 0x44 CALLDATALOAD ISZERO PUSH2 0x193E JUMPI PUSH1 0x64 CALLDATALOAD ISZERO ISZERO DUP1 PUSH2 0x192E JUMPI JUMPDEST ISZERO PUSH2 0x18D9 JUMPI DUP4 MLOAD ISZERO PUSH2 0x1894 JUMPI PUSH1 0x40 MLOAD PUSH1 0x1 DUP6 MLOAD SWAP2 PUSH2 0x1600 DUP4 DUP3 PUSH1 0x20 DUP11 ADD PUSH2 0x1B3E JUMP JUMPDEST DUP2 DUP4 DUP3 ADD MSTORE PUSH1 0x20 DUP2 DUP4 DUP1 PUSH1 0xA0 SHL SUB SWAP5 DUP2 ADD SUB ADD SWAP1 KECCAK256 ADD SLOAD AND PUSH2 0x184F JUMPI PUSH2 0x1627 PUSH1 0x44 CALLDATALOAD PUSH2 0x1FA5 JUMP JUMPDEST PUSH1 0x0 SLOAD SWAP1 SWAP3 SWAP1 PUSH2 0x1650 SWAP1 PUSH1 0x1 PUSH1 0x1 PUSH1 0xA0 SHL SUB AND PUSH2 0x1646 DUP6 PUSH1 0x44 CALLDATALOAD PUSH2 0x1DB5 JUMP JUMPDEST SWAP1 ADDRESS SWAP1 CALLER SWAP1 PUSH2 0x2064 JUMP JUMPDEST PUSH1 0x0 PUSH1 0xE PUSH1 0x40 MLOAD PUSH1 0x20 DUP2 DUP2 PUSH2 0x166B DUP12 DUP4 DUP2 MLOAD SWAP4 DUP5 SWAP3 ADD PUSH2 0x1B3E JUMP JUMPDEST DUP2 ADD PUSH1 0x1 DUP2 MSTORE SUB ADD SWAP1 KECCAK256 PUSH2 0x167F DUP9 DUP3 PUSH2 0x20BC JUMP JUMPDEST PUSH1 0x1 DUP2 ADD DUP1 SLOAD PUSH1 0x1 PUSH1 0x1 PUSH1 0xA0 SHL SUB NOT AND CALLER OR SWAP1 SSTORE PUSH2 0x16A0 DUP8 PUSH1 0x2 DUP4 ADD PUSH2 0x20BC JUMP JUMPDEST PUSH1 0x44 CALLDATALOAD PUSH1 0x3 DUP3 ADD SSTORE DUP6 PUSH1 0x4 DUP3 ADD SSTORE PUSH1 0x64 CALLDATALOAD PUSH1 0x5 DUP3 ADD SSTORE TIMESTAMP PUSH1 0x6 DUP3 ADD SSTORE PUSH1 0x7 DUP2 ADD PUSH1 0x1 PUSH1 0xFF NOT DUP3 SLOAD AND OR SWAP1 SSTORE PUSH2 0x16D8 DUP5 PUSH1 0x8 DUP4 ADD PUSH2 0x20BC JUMP JUMPDEST PUSH2 0x16E5 DUP10 PUSH1 0x9 DUP4 ADD PUSH2 0x20BC JUMP JUMPDEST PUSH2 0x16F2 DUP11 PUSH1 0xA DUP4 ADD PUSH2 0x20BC JUMP JUMPDEST PUSH2 0x16FF DUP6 PUSH1 0xB DUP4 ADD PUSH2 0x20BC JUMP JUMPDEST PUSH2 0x170C DUP12 PUSH1 0xC DUP4 ADD PUSH2 0x20BC JUMP JUMPDEST DUP3 PUSH1 0xD DUP3 ADD SSTORE ADD SSTORE PUSH1 0x2 SLOAD PUSH1 0x1 PUSH1 0x40 SHL DUP2 LT ISZERO PUSH2 0x2E9 JUMPI DUP1 PUSH1 0x1 PUSH2 0x1733 SWAP3 ADD PUSH1 0x2 SSTORE PUSH2 0x19AC JUMP JUMPDEST PUSH2 0x1839 JUMPI DUP6 PUSH2 0x1741 SWAP2 PUSH2 0x20BC JUMP JUMPDEST CALLER PUSH1 0x0 MSTORE PUSH1 0x3 PUSH1 0x20 MSTORE PUSH1 0x40 PUSH1 0x0 KECCAK256 DUP1 SLOAD PUSH1 0x1 PUSH1 0x40 SHL DUP2 LT ISZERO PUSH2 0x2E9 JUMPI PUSH2 0x176C SWAP2 PUSH1 0x1 DUP3 ADD DUP2 SSTORE PUSH2 0x19F9 JUMP JUMPDEST SWAP8 SWAP1 SWAP8 PUSH2 0x1839 JUMPI PUSH2 0x180C PUSH2 0x17CD SWAP8 PUSH2 0x17FE PUSH2 0x1829 SWAP7 PUSH2 0x181A SWAP6 PUSH2 0x17DB PUSH2 0x1268 SWAP11 PUSH2 0x17B8 PUSH32 0x8A238393E944DED6E1F623B61C56E79AA2F9F7439BF7F4346F5245B6D259AC37 SWAP16 DUP15 SWAP1 PUSH2 0x20BC JUMP JUMPDEST PUSH1 0x40 MLOAD SWAP14 DUP15 SWAP14 DUP15 PUSH2 0x140 SWAP1 DUP2 DUP2 MSTORE ADD SWAP1 PUSH2 0x1B61 JUMP JUMPDEST DUP14 DUP2 SUB PUSH1 0x20 DUP16 ADD MSTORE SWAP1 PUSH2 0x1B61 JUMP JUMPDEST SWAP2 PUSH1 0x44 CALLDATALOAD PUSH1 0x40 DUP14 ADD MSTORE PUSH1 0x60 DUP13 ADD MSTORE PUSH1 0x64 CALLDATALOAD PUSH1 0x80 DUP13 ADD MSTORE DUP11 DUP3 SUB PUSH1 0xA0 DUP13 ADD MSTORE PUSH2 0x1B61 JUMP JUMPDEST SWAP1 DUP9 DUP3 SUB PUSH1 0xC0 DUP11 ADD MSTORE PUSH2 0x1B61 JUMP JUMPDEST SWAP1 DUP7 DUP3 SUB PUSH1 0xE0 DUP9 ADD MSTORE PUSH2 0x1B61 JUMP JUMPDEST SWAP1 DUP5 DUP3 SUB PUSH2 0x100 DUP7 ADD MSTORE PUSH2 0x1B61 JUMP JUMPDEST DUP3 DUP2 SUB PUSH2 0x120 DUP5 ADD MSTORE CALLER SWAP6 PUSH2 0x1B61 JUMP JUMPDEST PUSH4 0x4E487B71 PUSH1 0xE0 SHL PUSH1 0x0 MSTORE PUSH1 0x0 PUSH1 0x4 MSTORE PUSH1 0x24 PUSH1 0x0 REVERT JUMPDEST PUSH1 0x40 MLOAD PUSH3 0x461BCD PUSH1 0xE5 SHL DUP2 MSTORE PUSH1 0x20 PUSH1 0x4 DUP3 ADD MSTORE PUSH1 0x1B PUSH1 0x24 DUP3 ADD MSTORE PUSH32 0x426F72726F77696E6720494420616C7265616479206578697374730000000000 PUSH1 0x44 DUP3 ADD MSTORE PUSH1 0x64 SWAP1 REVERT JUMPDEST PUSH1 0x40 MLOAD PUSH3 0x461BCD PUSH1 0xE5 SHL DUP2 MSTORE PUSH1 0x20 PUSH1 0x4 DUP3 ADD MSTORE PUSH1 0x1C PUSH1 0x24 DUP3 ADD MSTORE PUSH32 0x426F72726F77696E672049442063616E6E6F7420626520656D70747900000000 PUSH1 0x44 DUP3 ADD MSTORE PUSH1 0x64 SWAP1 REVERT JUMPDEST PUSH1 0x40 MLOAD PUSH3 0x461BCD PUSH1 0xE5 SHL DUP2 MSTORE PUSH1 0x20 PUSH1 0x4 DUP3 ADD MSTORE PUSH1 0x27 PUSH1 0x24 DUP3 ADD MSTORE PUSH32 0x4475726174696F6E206D757374206265206265747765656E203120616E642033 PUSH1 0x44 DUP3 ADD MSTORE PUSH7 0x36352064617973 PUSH1 0xC8 SHL PUSH1 0x64 DUP3 ADD MSTORE PUSH1 0x84 SWAP1 REVERT JUMPDEST POP PUSH4 0x1E13380 PUSH1 0x64 CALLDATALOAD GT ISZERO PUSH2 0x15DE JUMP JUMPDEST PUSH1 0x40 MLOAD PUSH3 0x461BCD PUSH1 0xE5 SHL DUP2 MSTORE PUSH1 0x20 PUSH1 0x4 DUP3 ADD MSTORE PUSH1 0x1D PUSH1 0x24 DUP3 ADD MSTORE PUSH32 0x416D6F756E74206D7573742062652067726561746572207468616E2030000000 PUSH1 0x44 DUP3 ADD MSTORE PUSH1 0x64 SWAP1 REVERT JUMPDEST CALLVALUE PUSH2 0x132 JUMPI PUSH1 0x20 CALLDATASIZE PUSH1 0x3 NOT ADD SLT PUSH2 0x132 JUMPI PUSH1 0x4 CALLDATALOAD PUSH1 0x2 SLOAD DUP2 LT ISZERO PUSH2 0x132 JUMPI PUSH2 0x42A PUSH2 0x424 PUSH2 0x43E SWAP3 JUMPDEST PUSH1 0x2 SLOAD DUP2 LT ISZERO PUSH2 0x19E3 JUMPI PUSH1 0x2 PUSH1 0x0 MSTORE PUSH32 0x405787FA12A823E0F2B7631CC41B3BA8828B3321CA811111FA75CD3AA3BB5ACE ADD SWAP1 PUSH1 0x0 SWAP1 JUMP JUMPDEST PUSH4 0x4E487B71 PUSH1 0xE0 SHL PUSH1 0x0 MSTORE PUSH1 0x32 PUSH1 0x4 MSTORE PUSH1 0x24 PUSH1 0x0 REVERT JUMPDEST DUP1 SLOAD DUP3 LT ISZERO PUSH2 0x19E3 JUMPI PUSH1 0x0 MSTORE PUSH1 0x20 PUSH1 0x0 KECCAK256 ADD SWAP1 PUSH1 0x0 SWAP1 JUMP JUMPDEST SWAP1 PUSH1 0x1 DUP3 DUP2 SHR SWAP3 AND DUP1 ISZERO PUSH2 0x1A41 JUMPI JUMPDEST PUSH1 0x20 DUP4 LT EQ PUSH2 0x1A2B JUMPI JUMP JUMPDEST PUSH4 0x4E487B71 PUSH1 0xE0 SHL PUSH1 0x0 MSTORE PUSH1 0x22 PUSH1 0x4 MSTORE PUSH1 0x24 PUSH1 0x0 REVERT JUMPDEST SWAP2 PUSH1 0x7F AND SWAP2 PUSH2 0x1A20 JUMP JUMPDEST PUSH2 0x1E0 DUP2 ADD SWAP1 DUP2 LT PUSH1 0x1 PUSH1 0x1 PUSH1 0x40 SHL SUB DUP3 GT OR PUSH2 0x2E9 JUMPI PUSH1 0x40 MSTORE JUMP JUMPDEST SWAP1 PUSH1 0x1F DUP1 NOT SWAP2 ADD AND DUP2 ADD SWAP1 DUP2 LT PUSH1 0x1 PUSH1 0x1 PUSH1 0x40 SHL SUB DUP3 GT OR PUSH2 0x2E9 JUMPI PUSH1 0x40 MSTORE JUMP JUMPDEST SWAP1 PUSH1 0x40 MLOAD SWAP2 DUP3 PUSH1 0x0 DUP3 SLOAD PUSH2 0x1A9B DUP2 PUSH2 0x1A11 JUMP JUMPDEST SWAP1 DUP2 DUP5 MSTORE PUSH1 0x20 SWAP5 PUSH1 0x1 SWAP2 PUSH1 0x1 DUP2 AND SWAP1 DUP2 PUSH1 0x0 EQ PUSH2 0x1B0B JUMPI POP PUSH1 0x1 EQ PUSH2 0x1ACC JUMPI JUMPDEST POP POP POP PUSH2 0x1ACA SWAP3 POP SUB DUP4 PUSH2 0x1A67 JUMP JUMPDEST JUMP JUMPDEST PUSH1 0x0 SWAP1 DUP2 MSTORE DUP6 DUP2 KECCAK256 SWAP6 SWAP4 POP SWAP2 SWAP1 JUMPDEST DUP2 DUP4 LT PUSH2 0x1AF3 JUMPI POP POP PUSH2 0x1ACA SWAP4 POP DUP3 ADD ADD CODESIZE DUP1 DUP1 PUSH2 0x1ABB JUMP JUMPDEST DUP6 SLOAD DUP9 DUP5 ADD DUP6 ADD MSTORE SWAP5 DUP6 ADD SWAP5 DUP8 SWAP5 POP SWAP2 DUP4 ADD SWAP2 PUSH2 0x1ADA JUMP JUMPDEST SWAP3 POP POP POP PUSH2 0x1ACA SWAP5 SWAP3 POP PUSH1 0xFF NOT AND DUP3 DUP5 ADD MSTORE ISZERO ISZERO PUSH1 0x5 SHL DUP3 ADD ADD CODESIZE DUP1 DUP1 PUSH2 0x1ABB JUMP JUMPDEST SWAP1 PUSH2 0x1839 JUMPI PUSH2 0x1B3B SWAP1 PUSH2 0x1A88 JUMP JUMPDEST SWAP1 JUMP JUMPDEST PUSH1 0x0 JUMPDEST DUP4 DUP2 LT PUSH2 0x1B51 JUMPI POP POP PUSH1 0x0 SWAP2 ADD MSTORE JUMP JUMPDEST DUP2 DUP2 ADD MLOAD DUP4 DUP3 ADD MSTORE PUSH1 0x20 ADD PUSH2 0x1B41 JUMP JUMPDEST SWAP1 PUSH1 0x20 SWAP2 PUSH2 0x1B7A DUP2 MLOAD DUP1 SWAP3 DUP2 DUP6 MSTORE DUP6 DUP1 DUP7 ADD SWAP2 ADD PUSH2 0x1B3E JUMP JUMPDEST PUSH1 0x1F ADD PUSH1 0x1F NOT AND ADD ADD SWAP1 JUMP JUMPDEST PUSH1 0x1 PUSH1 0x1 PUSH1 0x40 SHL SUB DUP2 GT PUSH2 0x2E9 JUMPI PUSH1 0x1F ADD PUSH1 0x1F NOT AND PUSH1 0x20 ADD SWAP1 JUMP JUMPDEST SWAP3 SWAP2 SWAP3 PUSH2 0x1BAD DUP3 PUSH2 0x1B86 JUMP JUMPDEST SWAP2 PUSH2 0x1BBB PUSH1 0x40 MLOAD SWAP4 DUP5 PUSH2 0x1A67 JUMP JUMPDEST DUP3 SWAP5 DUP2 DUP5 MSTORE DUP2 DUP4 ADD GT PUSH2 0x132 JUMPI DUP3 DUP2 PUSH1 0x20 SWAP4 DUP5 PUSH1 0x0 SWAP7 ADD CALLDATACOPY ADD ADD MSTORE JUMP JUMPDEST SWAP1 DUP1 PUSH1 0x1F DUP4 ADD SLT ISZERO PUSH2 0x132 JUMPI DUP2 PUSH1 0x20 PUSH2 0x1B3B SWAP4 CALLDATALOAD SWAP2 ADD PUSH2 0x1BA1 JUMP JUMPDEST PUSH1 0x4 CALLDATALOAD SWAP1 PUSH1 0x1 PUSH1 0x1 PUSH1 0xA0 SHL SUB DUP3 AND DUP3 SUB PUSH2 0x132 JUMPI JUMP JUMPDEST PUSH1 0x20 DUP1 DUP3 ADD SWAP1 DUP1 DUP4 MSTORE DUP4 MLOAD DUP1 SWAP3 MSTORE PUSH1 0x40 SWAP3 PUSH1 0x40 DUP2 ADD DUP3 PUSH1 0x40 DUP6 PUSH1 0x5 SHL DUP5 ADD ADD SWAP7 ADD SWAP5 PUSH1 0x0 SWAP3 JUMPDEST DUP6 DUP5 LT PUSH2 0x1C40 JUMPI POP POP POP POP POP POP POP SWAP1 JUMP JUMPDEST SWAP1 SWAP2 SWAP3 SWAP4 SWAP5 SWAP6 SWAP7 DUP6 DUP1 PUSH1 0x1 SWAP3 PUSH1 0x3F NOT DUP6 DUP3 SUB ADD DUP8 MSTORE DUP11 MLOAD SWAP1 PUSH2 0x1D37 PUSH2 0x1D23 PUSH2 0x1D0F PUSH2 0x1CFB PUSH2 0x1CE7 PUSH2 0x1C9F PUSH2 0x1C7E PUSH2 0x1E0 DUP10 MLOAD SWAP1 DUP1 DUP11 MSTORE DUP10 ADD SWAP1 PUSH2 0x1B61 JUMP JUMPDEST DUP12 DUP1 PUSH1 0xA0 SHL SUB DUP11 DUP11 ADD MLOAD AND DUP11 DUP10 ADD MSTORE DUP14 DUP1 DUP11 ADD MLOAD SWAP1 DUP10 DUP4 SUB SWAP1 DUP11 ADD MSTORE PUSH2 0x1B61 JUMP JUMPDEST PUSH1 0x60 DUP1 DUP10 ADD MLOAD SWAP1 DUP9 ADD MSTORE PUSH1 0x80 DUP1 DUP10 ADD MLOAD SWAP1 DUP9 ADD MSTORE PUSH1 0xA0 DUP1 DUP10 ADD MLOAD SWAP1 DUP9 ADD MSTORE PUSH1 0xC0 DUP1 DUP10 ADD MLOAD SWAP1 DUP9 ADD MSTORE PUSH1 0xE0 DUP1 DUP10 ADD MLOAD ISZERO ISZERO SWAP1 DUP9 ADD MSTORE PUSH2 0x100 DUP1 DUP10 ADD MLOAD SWAP1 DUP9 DUP4 SUB SWAP1 DUP10 ADD MSTORE PUSH2 0x1B61 JUMP JUMPDEST PUSH2 0x120 DUP1 DUP9 ADD MLOAD SWAP1 DUP8 DUP4 SUB SWAP1 DUP9 ADD MSTORE PUSH2 0x1B61 JUMP JUMPDEST PUSH2 0x140 DUP1 DUP8 ADD MLOAD SWAP1 DUP7 DUP4 SUB SWAP1 DUP8 ADD MSTORE PUSH2 0x1B61 JUMP JUMPDEST PUSH2 0x160 DUP1 DUP7 ADD MLOAD SWAP1 DUP6 DUP4 SUB SWAP1 DUP7 ADD MSTORE PUSH2 0x1B61 JUMP JUMPDEST PUSH2 0x180 DUP1 DUP6 ADD MLOAD SWAP1 DUP5 DUP4 SUB SWAP1 DUP6 ADD MSTORE PUSH2 0x1B61 JUMP JUMPDEST SWAP2 PUSH2 0x1A0 DUP1 DUP3 ADD MLOAD SWAP1 DUP4 ADD MSTORE PUSH2 0x1C0 DUP1 SWAP2 ADD MLOAD SWAP2 ADD MSTORE SWAP10 ADD SWAP5 ADD SWAP5 ADD SWAP3 SWAP6 SWAP5 SWAP4 SWAP2 SWAP1 PUSH2 0x1C2F JUMP JUMPDEST PUSH1 0x40 PUSH1 0x3 NOT DUP3 ADD SLT PUSH2 0x132 JUMPI PUSH1 0x4 CALLDATALOAD SWAP1 PUSH1 0x1 PUSH1 0x1 PUSH1 0x40 SHL SUB DUP3 GT PUSH2 0x132 JUMPI PUSH2 0x1D88 SWAP2 PUSH1 0x4 ADD PUSH2 0x1BD8 JUMP JUMPDEST SWAP1 PUSH1 0x24 CALLDATALOAD SWAP1 JUMP JUMPDEST PUSH1 0x20 PUSH2 0x1DA8 SWAP2 DUP2 PUSH1 0x40 MLOAD SWAP4 DUP3 DUP6 DUP1 SWAP5 MLOAD SWAP4 DUP5 SWAP3 ADD PUSH2 0x1B3E JUMP JUMPDEST DUP2 ADD PUSH1 0x1 DUP2 MSTORE SUB ADD SWAP1 KECCAK256 SWAP1 JUMP JUMPDEST SWAP2 SWAP1 DUP3 ADD DUP1 SWAP3 GT PUSH2 0x8D6 JUMPI JUMP JUMPDEST PUSH1 0x1 PUSH1 0x1 PUSH1 0x40 SHL SUB DUP2 GT PUSH2 0x2E9 JUMPI PUSH1 0x5 SHL PUSH1 0x20 ADD SWAP1 JUMP JUMPDEST SWAP1 PUSH2 0x1DE3 DUP3 PUSH2 0x1DC2 JUMP JUMPDEST PUSH1 0x40 SWAP1 PUSH2 0x1DF3 PUSH1 0x40 MLOAD SWAP2 DUP3 PUSH2 0x1A67 JUMP JUMPDEST DUP4 DUP2 MSTORE DUP1 SWAP4 PUSH2 0x1E04 PUSH1 0x1F NOT SWAP2 PUSH2 0x1DC2 JUMP JUMPDEST ADD SWAP2 PUSH1 0x0 JUMPDEST DUP4 DUP2 LT PUSH2 0x1E16 JUMPI POP POP POP POP JUMP JUMPDEST PUSH1 0x20 SWAP1 DUP3 MLOAD PUSH2 0x1E24 DUP2 PUSH2 0x1A4B JUMP JUMPDEST PUSH1 0x60 DUP1 DUP3 MSTORE DUP4 SWAP1 PUSH1 0x0 DUP3 DUP5 ADD MSTORE DUP1 DUP7 DUP5 ADD MSTORE PUSH1 0x0 DUP2 DUP5 ADD MSTORE PUSH1 0x0 PUSH1 0x80 DUP5 ADD MSTORE PUSH1 0x0 PUSH1 0xA0 DUP5 ADD MSTORE PUSH1 0x0 PUSH1 0xC0 DUP5 ADD MSTORE PUSH1 0x0 PUSH1 0xE0 DUP5 ADD MSTORE DUP1 PUSH2 0x100 DUP5 ADD MSTORE DUP1 PUSH2 0x120 DUP5 ADD MSTORE DUP1 PUSH2 0x140 DUP5 ADD MSTORE DUP1 PUSH2 0x160 DUP5 ADD MSTORE PUSH2 0x180 DUP4 ADD MSTORE PUSH1 0x0 PUSH2 0x1A0 DUP4 ADD MSTORE PUSH1 0x0 PUSH2 0x1C0 DUP4 ADD MSTORE DUP3 DUP7 ADD ADD MSTORE ADD PUSH2 0x1E09 JUMP JUMPDEST DUP1 MLOAD DUP3 LT ISZERO PUSH2 0x19E3 JUMPI PUSH1 0x20 SWAP2 PUSH1 0x5 SHL ADD ADD SWAP1 JUMP JUMPDEST PUSH1 0x0 NOT DUP2 EQ PUSH2 0x8D6 JUMPI PUSH1 0x1 ADD SWAP1 JUMP JUMPDEST ISZERO PUSH2 0x1EBF JUMPI JUMP JUMPDEST PUSH1 0x40 MLOAD PUSH3 0x461BCD PUSH1 0xE5 SHL DUP2 MSTORE PUSH1 0x20 PUSH1 0x4 DUP3 ADD MSTORE PUSH1 0x17 PUSH1 0x24 DUP3 ADD MSTORE PUSH32 0x426F72726F77696E67206973206E6F7420616374697665000000000000000000 PUSH1 0x44 DUP3 ADD MSTORE PUSH1 0x64 SWAP1 REVERT JUMPDEST SWAP2 SWAP1 DUP3 SUB SWAP2 DUP3 GT PUSH2 0x8D6 JUMPI JUMP JUMPDEST PUSH1 0x40 MLOAD SWAP1 DUP2 PUSH1 0x0 DUP3 SLOAD PUSH2 0x1F23 DUP2 PUSH2 0x1A11 JUMP JUMPDEST SWAP4 PUSH1 0x1 SWAP2 DUP1 DUP4 AND SWAP1 DUP2 ISZERO PUSH2 0x1F89 JUMPI POP PUSH1 0x1 EQ PUSH2 0x1F4B JUMPI JUMPDEST POP POP PUSH1 0x20 SWAP3 POP PUSH1 0x1 DUP2 MSTORE SUB ADD SWAP1 KECCAK256 SWAP1 JUMP JUMPDEST SWAP1 SWAP2 POP PUSH1 0x0 MSTORE PUSH1 0x20 SWAP1 PUSH1 0x20 PUSH1 0x0 KECCAK256 SWAP1 PUSH1 0x0 SWAP2 JUMPDEST DUP6 DUP4 LT PUSH2 0x1F75 JUMPI POP POP POP POP PUSH1 0x20 SWAP2 DUP2 ADD CODESIZE DUP1 PUSH2 0x1F3A JUMP JUMPDEST DUP1 SLOAD DUP8 DUP5 ADD MSTORE DUP7 SWAP5 POP SWAP2 DUP4 ADD SWAP2 DUP2 ADD PUSH2 0x1F5E JUMP JUMPDEST SWAP3 POP POP POP PUSH1 0x20 SWAP4 SWAP2 POP PUSH1 0xFF NOT AND DUP3 MSTORE DUP1 ISZERO ISZERO MUL DUP2 ADD CODESIZE DUP1 PUSH2 0x1F3A JUMP JUMPDEST PUSH1 0x2A DUP2 MUL SWAP1 DUP1 DUP3 DIV PUSH1 0x2A EQ SWAP1 ISZERO OR ISZERO PUSH2 0x8D6 JUMPI PUSH2 0x2710 SWAP1 DIV SWAP1 JUMP JUMPDEST PUSH1 0x1 PUSH1 0x1 PUSH1 0xA0 SHL SUB SWAP1 DUP2 AND SWAP1 DUP2 ISZERO PUSH2 0x201B JUMPI PUSH1 0x0 DUP1 MLOAD PUSH1 0x20 PUSH2 0x2363 DUP4 CODECOPY DUP2 MLOAD SWAP2 MSTORE DUP1 SLOAD PUSH1 0x1 PUSH1 0x1 PUSH1 0xA0 SHL SUB NOT DUP2 AND DUP5 OR SWAP1 SWAP2 SSTORE AND PUSH32 0x8BE0079C531659141344CD1FD0A4F28419497F9722A3DAAFE3B4186F6B6457E0 PUSH1 0x0 DUP1 LOG3 JUMP JUMPDEST PUSH1 0x40 MLOAD PUSH4 0x1E4FBDF7 PUSH1 0xE0 SHL DUP2 MSTORE PUSH1 0x0 PUSH1 0x4 DUP3 ADD MSTORE PUSH1 0x24 SWAP1 REVERT JUMPDEST PUSH1 0x0 DUP1 MLOAD PUSH1 0x20 PUSH2 0x2383 DUP4 CODECOPY DUP2 MLOAD SWAP2 MSTORE PUSH1 0x2 DUP2 SLOAD EQ PUSH2 0x2052 JUMPI PUSH1 0x2 SWAP1 SSTORE JUMP JUMPDEST PUSH1 0x40 MLOAD PUSH4 0x3EE5AEB5 PUSH1 0xE0 SHL DUP2 MSTORE PUSH1 0x4 SWAP1 REVERT JUMPDEST PUSH1 0x40 MLOAD PUSH4 0x23B872DD PUSH1 0xE0 SHL PUSH1 0x20 DUP3 ADD MSTORE PUSH1 0x1 PUSH1 0x1 PUSH1 0xA0 SHL SUB SWAP3 DUP4 AND PUSH1 0x24 DUP3 ADD MSTORE SWAP3 SWAP1 SWAP2 AND PUSH1 0x44 DUP4 ADD MSTORE PUSH1 0x64 DUP1 DUP4 ADD SWAP4 SWAP1 SWAP4 MSTORE SWAP2 DUP2 MSTORE PUSH1 0xA0 DUP2 ADD SWAP2 DUP2 DUP4 LT PUSH1 0x1 PUSH1 0x1 PUSH1 0x40 SHL SUB DUP5 GT OR PUSH2 0x2E9 JUMPI PUSH2 0x1ACA SWAP3 PUSH1 0x40 MSTORE PUSH2 0x2256 JUMP JUMPDEST SWAP2 SWAP1 SWAP2 DUP3 MLOAD PUSH1 0x1 PUSH1 0x1 PUSH1 0x40 SHL SUB DUP2 GT PUSH2 0x2E9 JUMPI PUSH2 0x20D9 DUP3 SLOAD PUSH2 0x1A11 JUMP JUMPDEST PUSH1 0x1F DUP2 GT PUSH2 0x2184 JUMPI JUMPDEST POP PUSH1 0x20 DUP1 PUSH1 0x1F DUP4 GT PUSH1 0x1 EQ PUSH2 0x211F JUMPI POP DUP2 SWAP3 SWAP4 SWAP5 PUSH1 0x0 SWAP3 PUSH2 0x2114 JUMPI JUMPDEST POP POP DUP2 PUSH1 0x1 SHL SWAP2 PUSH1 0x0 NOT SWAP1 PUSH1 0x3 SHL SHR NOT AND OR SWAP1 SSTORE JUMP JUMPDEST ADD MLOAD SWAP1 POP CODESIZE DUP1 PUSH2 0x20FE JUMP JUMPDEST SWAP1 PUSH1 0x1F NOT DUP4 AND SWAP6 DUP5 PUSH1 0x0 MSTORE PUSH1 0x20 PUSH1 0x0 KECCAK256 SWAP3 PUSH1 0x0 SWAP1 JUMPDEST DUP9 DUP3 LT PUSH2 0x216C JUMPI POP POP DUP4 PUSH1 0x1 SWAP6 SWAP7 SWAP8 LT PUSH2 0x2153 JUMPI JUMPDEST POP POP POP DUP2 SHL ADD SWAP1 SSTORE JUMP JUMPDEST ADD MLOAD PUSH1 0x0 NOT PUSH1 0xF8 DUP5 PUSH1 0x3 SHL AND SHR NOT AND SWAP1 SSTORE CODESIZE DUP1 DUP1 PUSH2 0x2149 JUMP JUMPDEST DUP1 PUSH1 0x1 DUP6 SWAP7 DUP3 SWAP5 SWAP7 DUP7 ADD MLOAD DUP2 SSTORE ADD SWAP6 ADD SWAP4 ADD SWAP1 PUSH2 0x2134 JUMP JUMPDEST PUSH1 0x0 DUP4 PUSH1 0x0 MSTORE PUSH1 0x20 PUSH1 0x0 KECCAK256 PUSH1 0x1F DUP5 ADD PUSH1 0x5 SHR DUP2 ADD SWAP3 PUSH1 0x20 DUP6 LT PUSH2 0x21C4 JUMPI JUMPDEST PUSH1 0x1F ADD PUSH1 0x5 SHR ADD SWAP2 JUMPDEST DUP3 DUP2 LT PUSH2 0x21B9 JUMPI POP POP PUSH2 0x20E2 JUMP JUMPDEST DUP2 DUP2 SSTORE PUSH1 0x1 ADD PUSH2 0x21AB JUMP JUMPDEST SWAP1 SWAP3 POP DUP3 SWAP1 PUSH2 0x21A2 JUMP JUMPDEST PUSH1 0x40 MLOAD PUSH4 0xA9059CBB PUSH1 0xE0 SHL PUSH1 0x20 DUP3 ADD MSTORE PUSH1 0x1 PUSH1 0x1 PUSH1 0xA0 SHL SUB SWAP1 SWAP3 AND PUSH1 0x24 DUP4 ADD MSTORE PUSH1 0x44 DUP1 DUP4 ADD SWAP4 SWAP1 SWAP4 MSTORE SWAP2 DUP2 MSTORE PUSH1 0x80 DUP2 ADD SWAP2 PUSH1 0x1 PUSH1 0x1 PUSH1 0x40 SHL SUB DUP4 GT DUP3 DUP5 LT OR PUSH2 0x2E9 JUMPI PUSH2 0x1ACA SWAP3 PUSH1 0x40 MSTORE PUSH2 0x2256 JUMP JUMPDEST PUSH1 0x0 DUP1 MLOAD PUSH1 0x20 PUSH2 0x2363 DUP4 CODECOPY DUP2 MLOAD SWAP2 MSTORE SLOAD PUSH1 0x1 PUSH1 0x1 PUSH1 0xA0 SHL SUB AND CALLER SUB PUSH2 0x223E JUMPI JUMP JUMPDEST PUSH1 0x40 MLOAD PUSH4 0x118CDAA7 PUSH1 0xE0 SHL DUP2 MSTORE CALLER PUSH1 0x4 DUP3 ADD MSTORE PUSH1 0x24 SWAP1 REVERT JUMPDEST SWAP1 PUSH1 0x0 PUSH1 0x20 SWAP2 DUP3 DUP2 MLOAD SWAP2 ADD DUP3 DUP6 GAS CALL ISZERO PUSH2 0x22B2 JUMPI PUSH1 0x0 MLOAD RETURNDATASIZE PUSH2 0x22A9 JUMPI POP PUSH1 0x1 PUSH1 0x1 PUSH1 0xA0 SHL SUB DUP2 AND EXTCODESIZE ISZERO JUMPDEST PUSH2 0x2287 JUMPI POP JUMP JUMPDEST PUSH1 0x40 MLOAD PUSH4 0x5274AFE7 PUSH1 0xE0 SHL DUP2 MSTORE PUSH1 0x1 PUSH1 0x1 PUSH1 0xA0 SHL SUB SWAP1 SWAP2 AND PUSH1 0x4 DUP3 ADD MSTORE PUSH1 0x24 SWAP1 REVERT JUMPDEST PUSH1 0x1 EQ ISZERO PUSH2 0x2280 JUMP JUMPDEST PUSH1 0x40 MLOAD RETURNDATASIZE PUSH1 0x0 DUP3 RETURNDATACOPY RETURNDATASIZE SWAP1 REVERT JUMPDEST PUSH1 0xFF PUSH32 0xF0C57E16840DF040F15088DC2F81FE391C3923BEC73E23A9662EFC9C229C6A00 SLOAD PUSH1 0x40 SHR AND ISZERO PUSH2 0x22ED JUMPI JUMP JUMPDEST PUSH1 0x40 MLOAD PUSH4 0x1AFCD79F PUSH1 0xE3 SHL DUP2 MSTORE PUSH1 0x4 SWAP1 REVERT JUMPDEST SWAP1 PUSH2 0x2326 JUMPI POP DUP1 MLOAD ISZERO PUSH2 0x2314 JUMPI DUP1 MLOAD SWAP1 PUSH1 0x20 ADD REVERT JUMPDEST PUSH1 0x40 MLOAD PUSH4 0xD6BDA275 PUSH1 0xE0 SHL DUP2 MSTORE PUSH1 0x4 SWAP1 REVERT JUMPDEST DUP2 MLOAD ISZERO DUP1 PUSH2 0x2359 JUMPI JUMPDEST PUSH2 0x2337 JUMPI POP SWAP1 JUMP JUMPDEST PUSH1 0x40 MLOAD PUSH4 0x9996B315 PUSH1 0xE0 SHL DUP2 MSTORE PUSH1 0x1 PUSH1 0x1 PUSH1 0xA0 SHL SUB SWAP1 SWAP2 AND PUSH1 0x4 DUP3 ADD MSTORE PUSH1 0x24 SWAP1 REVERT JUMPDEST POP DUP1 EXTCODESIZE ISZERO PUSH2 0x232F JUMP INVALID SWAP1 AND 0xD0 SWAP14 PUSH19 0xD40FDAE2FD8CEAC6B6234C7706214FD39C1CD1 0xE6 MULMOD LOG0 MSTORE DUP13 NOT SWAP4 STOP SWAP12 PUSH24 0x9B17422D0DF92223018B32B4D1FA46E071723D6817E2486D STOP EXTCODESIZE 0xEC 0xC5 PUSH0 STOP LOG2 PUSH5 0x6970667358 0x22 SLT KECCAK256 COINBASE PUSH20 0xED3526088BD503D7589AE959A60EB05B7AF61B71 0xEB 0xAF CREATE2 SWAP6 0x2C NUMBER PUSH26 0xF286D264736F6C63430008160033000000000000000000000000 "},"methodIdentifiers":{"FEE_BASIS_POINTS()":"a525ad3c","UPGRADE_INTERFACE_VERSION()":"ad3cb1cc","borrowingIds(uint256)":"0e7e5ffd","borrowings(string)":"db138b45","calculateFee(uint256)":"99a5d747","createBorrowing(string,string,uint256,uint256,string,string,string,string,string)":"15a96fbb","endBorrowing(string)":"494d7687","getAllBorrowings()":"5d269e51","getLenderContribution(string,address)":"ae5c6fff","getLenders(string)":"a043d48d","getUserBorrowings(address)":"3e63680d","initialize(address)":"c4d66de8","lendToBorrowing(string,uint256)":"ecf83dc3","owner()":"8da5cb5b","proxiableUUID()":"52d1902d","renounceOwnership()":"715018a6","repayBorrowing(string,uint256)":"b5bbbae4","transferOwnership(address)":"f2fde38b","upgradeToAndCall(address,bytes)":"4f1ef286","userBorrowings(address,uint256)":"dd471337","weedlToken()":"3b9c8cfe"}},"storageLayout":{"storage":[{"astId":3453,"contract":"contracts/GreenFiBorrow.sol:GreenFiBorrow","label":"weedlToken","offset":0,"slot":"0","type":"t_contract(IERC20)2353"},{"astId":3499,"contract":"contracts/GreenFiBorrow.sol:GreenFiBorrow","label":"borrowings","offset":0,"slot":"1","type":"t_mapping(t_string_memory_ptr,t_struct(Borrowing)3494_storage)"},{"astId":3502,"contract":"contracts/GreenFiBorrow.sol:GreenFiBorrow","label":"borrowingIds","offset":0,"slot":"2","type":"t_array(t_string_storage)dyn_storage"},{"astId":3507,"contract":"contracts/GreenFiBorrow.sol:GreenFiBorrow","label":"userBorrowings","offset":0,"slot":"3","type":"t_mapping(t_address,t_array(t_string_storage)dyn_storage)"}],"types":{"t_address":{"encoding":"inplace","label":"address","numberOfBytes":"20"},"t_array(t_address)dyn_storage":{"base":"t_address","encoding":"dynamic_array","label":"address[]","numberOfBytes":"32"},"t_array(t_string_storage)dyn_storage":{"base":"t_string_storage","encoding":"dynamic_array","label":"string[]","numberOfBytes":"32"},"t_bool":{"encoding":"inplace","label":"bool","numberOfBytes":"1"},"t_contract(IERC20)2353":{"encoding":"inplace","label":"contract IERC20","numberOfBytes":"20"},"t_mapping(t_address,t_array(t_string_storage)dyn_storage)":{"encoding":"mapping","key":"t_address","label":"mapping(address => string[])","numberOfBytes":"32","value":"t_array(t_string_storage)dyn_storage"},"t_mapping(t_address,t_uint256)":{"encoding":"mapping","key":"t_address","label":"mapping(address => uint256)","numberOfBytes":"32","value":"t_uint256"},"t_mapping(t_string_memory_ptr,t_struct(Borrowing)3494_storage)":{"encoding":"mapping","key":"t_string_memory_ptr","label":"mapping(string => struct GreenFiBorrow.Borrowing)","numberOfBytes":"32","value":"t_struct(Borrowing)3494_storage"},"t_string_memory_ptr":{"encoding":"bytes","label":"string","numberOfBytes":"32"},"t_string_storage":{"encoding":"bytes","label":"string","numberOfBytes":"32"},"t_struct(Borrowing)3494_storage":{"encoding":"inplace","label":"struct GreenFiBorrow.Borrowing","members":[{"astId":3458,"contract":"contracts/GreenFiBorrow.sol:GreenFiBorrow","label":"id","offset":0,"slot":"0","type":"t_string_storage"},{"astId":3460,"contract":"contracts/GreenFiBorrow.sol:GreenFiBorrow","label":"borrower","offset":0,"slot":"1","type":"t_address"},{"astId":3462,"contract":"contracts/GreenFiBorrow.sol:GreenFiBorrow","label":"landId","offset":0,"slot":"2","type":"t_string_storage"},{"astId":3464,"contract":"contracts/GreenFiBorrow.sol:GreenFiBorrow","label":"amount","offset":0,"slot":"3","type":"t_uint256"},{"astId":3466,"contract":"contracts/GreenFiBorrow.sol:GreenFiBorrow","label":"fee","offset":0,"slot":"4","type":"t_uint256"},{"astId":3468,"contract":"contracts/GreenFiBorrow.sol:GreenFiBorrow","label":"duration","offset":0,"slot":"5","type":"t_uint256"},{"astId":3470,"contract":"contracts/GreenFiBorrow.sol:GreenFiBorrow","label":"startTime","offset":0,"slot":"6","type":"t_uint256"},{"astId":3472,"contract":"contracts/GreenFiBorrow.sol:GreenFiBorrow","label":"isActive","offset":0,"slot":"7","type":"t_bool"},{"astId":3474,"contract":"contracts/GreenFiBorrow.sol:GreenFiBorrow","label":"contactInfo","offset":0,"slot":"8","type":"t_string_storage"},{"astId":3476,"contract":"contracts/GreenFiBorrow.sol:GreenFiBorrow","label":"purpose","offset":0,"slot":"9","type":"t_string_storage"},{"astId":3478,"contract":"contracts/GreenFiBorrow.sol:GreenFiBorrow","label":"collateralInfo","offset":0,"slot":"10","type":"t_string_storage"},{"astId":3480,"contract":"contracts/GreenFiBorrow.sol:GreenFiBorrow","label":"latitude","offset":0,"slot":"11","type":"t_string_storage"},{"astId":3482,"contract":"contracts/GreenFiBorrow.sol:GreenFiBorrow","label":"longitude","offset":0,"slot":"12","type":"t_string_storage"},{"astId":3484,"contract":"contracts/GreenFiBorrow.sol:GreenFiBorrow","label":"totalLent","offset":0,"slot":"13","type":"t_uint256"},{"astId":3486,"contract":"contracts/GreenFiBorrow.sol:GreenFiBorrow","label":"totalRepaid","offset":0,"slot":"14","type":"t_uint256"},{"astId":3489,"contract":"contracts/GreenFiBorrow.sol:GreenFiBorrow","label":"lenders","offset":0,"slot":"15","type":"t_array(t_address)dyn_storage"},{"astId":3493,"contract":"contracts/GreenFiBorrow.sol:GreenFiBorrow","label":"lenderContributions","offset":0,"slot":"16","type":"t_mapping(t_address,t_uint256)"}],"numberOfBytes":"544"},"t_uint256":{"encoding":"inplace","label":"uint256","numberOfBytes":"32"}}}}}}