{"contracts/GreenFiProducts.sol":{"GreenFiProducts":{"abi":[{"inputs":[],"stateMutability":"nonpayable","type":"constructor"},{"inputs":[{"internalType":"address","name":"target","type":"address"}],"name":"AddressEmptyCode","type":"error"},{"inputs":[{"internalType":"address","name":"implementation","type":"address"}],"name":"ERC1967InvalidImplementation","type":"error"},{"inputs":[],"name":"ERC1967NonPayable","type":"error"},{"inputs":[],"name":"EnforcedPause","type":"error"},{"inputs":[],"name":"ExpectedPause","type":"error"},{"inputs":[],"name":"FailedCall","type":"error"},{"inputs":[],"name":"InvalidInitialization","type":"error"},{"inputs":[],"name":"NotInitializing","type":"error"},{"inputs":[{"internalType":"address","name":"owner","type":"address"}],"name":"OwnableInvalidOwner","type":"error"},{"inputs":[{"internalType":"address","name":"account","type":"address"}],"name":"OwnableUnauthorizedAccount","type":"error"},{"inputs":[],"name":"ReentrancyGuardReentrantCall","type":"error"},{"inputs":[{"internalType":"address","name":"token","type":"address"}],"name":"SafeERC20FailedOperation","type":"error"},{"inputs":[],"name":"UUPSUnauthorizedCallContext","type":"error"},{"inputs":[{"internalType":"bytes32","name":"slot","type":"bytes32"}],"name":"UUPSUnsupportedProxiableUUID","type":"error"},{"anonymous":false,"inputs":[{"indexed":true,"internalType":"address","name":"payer","type":"address"},{"indexed":false,"internalType":"uint256","name":"feeAmount","type":"uint256"}],"name":"FeeCollected","type":"event"},{"anonymous":false,"inputs":[{"indexed":false,"internalType":"uint64","name":"version","type":"uint64"}],"name":"Initialized","type":"event"},{"anonymous":false,"inputs":[{"indexed":true,"internalType":"address","name":"previousOwner","type":"address"},{"indexed":true,"internalType":"address","name":"newOwner","type":"address"}],"name":"OwnershipTransferred","type":"event"},{"anonymous":false,"inputs":[{"indexed":false,"internalType":"address","name":"account","type":"address"}],"name":"Paused","type":"event"},{"anonymous":false,"inputs":[{"indexed":true,"internalType":"string","name":"productId","type":"string"},{"indexed":true,"internalType":"address","name":"seller","type":"address"}],"name":"ProductDelisted","type":"event"},{"anonymous":false,"inputs":[{"indexed":true,"internalType":"string","name":"productId","type":"string"},{"indexed":true,"internalType":"address","name":"seller","type":"address"},{"indexed":false,"internalType":"string","name":"metadataURI","type":"string"},{"indexed":false,"internalType":"string","name":"category","type":"string"},{"indexed":false,"internalType":"uint256","name":"price","type":"uint256"},{"indexed":false,"internalType":"string","name":"contactInfo","type":"string"},{"indexed":false,"internalType":"uint256","name":"unitQuantity","type":"uint256"},{"indexed":false,"internalType":"uint256","name":"quantityAvailable","type":"uint256"},{"indexed":false,"internalType":"uint256","name":"discount","type":"uint256"},{"indexed":false,"internalType":"uint256","name":"fee","type":"uint256"}],"name":"ProductListed","type":"event"},{"anonymous":false,"inputs":[{"indexed":true,"internalType":"string","name":"productId","type":"string"},{"indexed":true,"internalType":"address","name":"buyer","type":"address"},{"indexed":false,"internalType":"uint256","name":"quantityPurchased","type":"uint256"},{"indexed":false,"internalType":"uint256","name":"totalPrice","type":"uint256"}],"name":"ProductPurchased","type":"event"},{"anonymous":false,"inputs":[{"indexed":false,"internalType":"address","name":"account","type":"address"}],"name":"Unpaused","type":"event"},{"anonymous":false,"inputs":[{"indexed":true,"internalType":"address","name":"implementation","type":"address"}],"name":"Upgraded","type":"event"},{"inputs":[],"name":"FEE_BASIS_POINTS","outputs":[{"internalType":"uint256","name":"","type":"uint256"}],"stateMutability":"view","type":"function"},{"inputs":[],"name":"MAX_CONTACT_LENGTH","outputs":[{"internalType":"uint256","name":"","type":"uint256"}],"stateMutability":"view","type":"function"},{"inputs":[],"name":"MAX_DISCOUNT","outputs":[{"internalType":"uint256","name":"","type":"uint256"}],"stateMutability":"view","type":"function"},{"inputs":[],"name":"MAX_PRODUCT_ID_LENGTH","outputs":[{"internalType":"uint256","name":"","type":"uint256"}],"stateMutability":"view","type":"function"},{"inputs":[],"name":"MAX_QUANTITY","outputs":[{"internalType":"uint256","name":"","type":"uint256"}],"stateMutability":"view","type":"function"},{"inputs":[],"name":"MIN_PRICE","outputs":[{"internalType":"uint256","name":"","type":"uint256"}],"stateMutability":"view","type":"function"},{"inputs":[],"name":"UPGRADE_INTERFACE_VERSION","outputs":[{"internalType":"string","name":"","type":"string"}],"stateMutability":"view","type":"function"},{"inputs":[{"internalType":"string","name":"_productId","type":"string"}],"name":"delistProduct","outputs":[],"stateMutability":"nonpayable","type":"function"},{"inputs":[],"name":"getAllProducts","outputs":[{"components":[{"internalType":"string","name":"id","type":"string"},{"internalType":"address","name":"seller","type":"address"},{"internalType":"string","name":"metadataURI","type":"string"},{"internalType":"string","name":"category","type":"string"},{"internalType":"uint256","name":"price","type":"uint256"},{"internalType":"string","name":"contactInfo","type":"string"},{"internalType":"uint256","name":"unitQuantity","type":"uint256"},{"internalType":"uint256","name":"quantityAvailable","type":"uint256"},{"internalType":"uint256","name":"discount","type":"uint256"},{"internalType":"bool","name":"isActive","type":"bool"}],"internalType":"struct GreenFiProducts.Product[]","name":"","type":"tuple[]"}],"stateMutability":"view","type":"function"},{"inputs":[{"internalType":"address","name":"_seller","type":"address"}],"name":"getSellerProducts","outputs":[{"components":[{"internalType":"string","name":"id","type":"string"},{"internalType":"address","name":"seller","type":"address"},{"internalType":"string","name":"metadataURI","type":"string"},{"internalType":"string","name":"category","type":"string"},{"internalType":"uint256","name":"price","type":"uint256"},{"internalType":"string","name":"contactInfo","type":"string"},{"internalType":"uint256","name":"unitQuantity","type":"uint256"},{"internalType":"uint256","name":"quantityAvailable","type":"uint256"},{"internalType":"uint256","name":"discount","type":"uint256"},{"internalType":"bool","name":"isActive","type":"bool"}],"internalType":"struct GreenFiProducts.Product[]","name":"","type":"tuple[]"}],"stateMutability":"view","type":"function"},{"inputs":[],"name":"getValidUnitQuantities","outputs":[{"internalType":"uint256[]","name":"","type":"uint256[]"}],"stateMutability":"view","type":"function"},{"inputs":[{"internalType":"address","name":"_weedlToken","type":"address"}],"name":"initialize","outputs":[],"stateMutability":"nonpayable","type":"function"},{"inputs":[{"internalType":"string","name":"_productId","type":"string"}],"name":"isProductIdAvailable","outputs":[{"internalType":"bool","name":"","type":"bool"}],"stateMutability":"view","type":"function"},{"inputs":[{"internalType":"string","name":"_productId","type":"string"},{"internalType":"string","name":"_metadataURI","type":"string"},{"internalType":"uint256","name":"_price","type":"uint256"},{"internalType":"string","name":"_contactInfo","type":"string"},{"internalType":"string","name":"_category","type":"string"},{"internalType":"uint256","name":"_unitQuantity","type":"uint256"},{"internalType":"uint256","name":"_quantityAvailable","type":"uint256"},{"internalType":"uint256","name":"_discount","type":"uint256"}],"name":"listProduct","outputs":[],"stateMutability":"nonpayable","type":"function"},{"inputs":[],"name":"owner","outputs":[{"internalType":"address","name":"","type":"address"}],"stateMutability":"view","type":"function"},{"inputs":[],"name":"pause","outputs":[],"stateMutability":"nonpayable","type":"function"},{"inputs":[],"name":"paused","outputs":[{"internalType":"bool","name":"","type":"bool"}],"stateMutability":"view","type":"function"},{"inputs":[{"internalType":"uint256","name":"","type":"uint256"}],"name":"productIds","outputs":[{"internalType":"string","name":"","type":"string"}],"stateMutability":"view","type":"function"},{"inputs":[{"internalType":"string","name":"","type":"string"}],"name":"products","outputs":[{"internalType":"string","name":"id","type":"string"},{"internalType":"address","name":"seller","type":"address"},{"internalType":"string","name":"metadataURI","type":"string"},{"internalType":"string","name":"category","type":"string"},{"internalType":"uint256","name":"price","type":"uint256"},{"internalType":"string","name":"contactInfo","type":"string"},{"internalType":"uint256","name":"unitQuantity","type":"uint256"},{"internalType":"uint256","name":"quantityAvailable","type":"uint256"},{"internalType":"uint256","name":"discount","type":"uint256"},{"internalType":"bool","name":"isActive","type":"bool"}],"stateMutability":"view","type":"function"},{"inputs":[],"name":"proxiableUUID","outputs":[{"internalType":"bytes32","name":"","type":"bytes32"}],"stateMutability":"view","type":"function"},{"inputs":[{"internalType":"string","name":"_productId","type":"string"},{"internalType":"uint256","name":"_quantityPurchased","type":"uint256"}],"name":"purchaseProduct","outputs":[],"stateMutability":"nonpayable","type":"function"},{"inputs":[],"name":"renounceOwnership","outputs":[],"stateMutability":"nonpayable","type":"function"},{"inputs":[{"internalType":"address","name":"","type":"address"},{"internalType":"uint256","name":"","type":"uint256"}],"name":"sellerProducts","outputs":[{"internalType":"string","name":"","type":"string"}],"stateMutability":"view","type":"function"},{"inputs":[{"internalType":"address","name":"newOwner","type":"address"}],"name":"transferOwnership","outputs":[],"stateMutability":"nonpayable","type":"function"},{"inputs":[],"name":"unpause","outputs":[],"stateMutability":"nonpayable","type":"function"},{"inputs":[{"internalType":"address","name":"newImplementation","type":"address"},{"internalType":"bytes","name":"data","type":"bytes"}],"name":"upgradeToAndCall","outputs":[],"stateMutability":"payable","type":"function"},{"inputs":[{"internalType":"uint256","name":"","type":"uint256"}],"name":"validUnitQuantities","outputs":[{"internalType":"uint256","name":"","type":"uint256"}],"stateMutability":"view","type":"function"},{"inputs":[],"name":"weedlToken","outputs":[{"internalType":"contract IERC20","name":"","type":"address"}],"stateMutability":"view","type":"function"},{"inputs":[],"name":"withdrawFees","outputs":[],"stateMutability":"nonpayable","type":"function"}],"evm":{"bytecode":{"linkReferences":{},"object":"60a080604052346100cc57306080527ff0c57e16840df040f15088dc2f81fe391c3923bec73e23a9662efc9c229c6a009081549060ff8260401c166100bd57506001600160401b036002600160401b031982821601610078575b60405161271d90816100d28239608051818181611562015261161b0152f35b6001600160401b031990911681179091556040519081527fc7f505b2f371ae2175ee4913f4499e1f2633a7b5936321eed1cdaeb6115181d290602090a1388080610059565b63f92ee8a960e01b8152600490fd5b600080fdfe6080604052600436101561001257600080fd5b60003560e01c80630186a42314611ba957806302ee3a5214611a375780633b9c8cfe14611a0e5780633f4ba83a14611997578063476343ee146118625780634ecf6894146117fa5780634f1ef286146115cc57806352d1902d1461154f578063553ab55c146115185780635c975abb146114e8578063715018a61461147e5780637217cba414610d32578063843068c914610c955780638456cb5914610c2e5780638da5cb5b14610bf8578063a20d9ebe14610bdd578063a525ad3c14610bc1578063ad3cb1cc14610b69578063ad9f20a614610b48578063baf0999c14610a3f578063c1302b34146109f2578063c4d66de81461074d578063cb51bba914610706578063e3495569146106ea578063e41ee46a146106cd578063e6a93e161461054a578063eca50ce7146101a7578063f2bc9a0e1461018b5763f2fde38b1461015b57600080fd5b3461018657602036600319011261018657610184610177611f95565b61017f612440565b6123cc565b005b600080fd5b3461018657600036600319011261018657602060405160648152f35b34610186576040366003190112610186576004356001600160401b038111610186576101d7903690600401611d58565b60249081356101e4612479565b6101ec6124a9565b6040519081835160209381610205869383858a01611d76565b8101600281520301902093600985019361022260ff86541661237e565b82156105065760078601838154106104c25760018701546001600160a01b039081169790939033891461048557856008600483015492015480610460575b5061026a916121a8565b93602a8502858104602a148615171561044b5761271090049861028d8a876123bf565b600054604051636eb1769f60e11b8152336004820152306024820152919291908416908a81604481855afa801561040e57899060009061041a575b6102d4925010156121bb565b8960405180966370a0823160e01b825233600483015281845afa801561040e578c956000916103c7575b50610351937f06c5efeff5c320943d265dc4e5f1af95ad523555ce0c1957e367dda5514572df9c969361036b9998969361033d8c610344951015612200565b3390612513565b3090339060005416612513565b61035c8682546123bf565b809155156103b9575b5061235e565b90604051928352838301527f46cb9a445bdbf7226e270f694cc6028862dd31e7cc36ac973160deb5d5b4f94060403393a36040519283523392a260016000805160206126c883398151915255005b805460ff1916905587610365565b809c96508b809250989795929394983d8311610407575b6103e88183611ce5565b810103126101865799519399949592948b9490939291906103516102fe565b503d6103de565b6040513d6000823e3d90fd5b50508a81813d8311610444575b6104318183611ce5565b8101031261018657886102d491516102c8565b503d610427565b82634e487b7160e01b60005260116004526000fd5b9050606403906064821161044b57606461047e61026a9389936121a8565b0491610260565b60405162461bcd60e51b8152600481018890526016818401527510d85b9b9bdd08189d5e481bdddb881c1c9bd91d58dd60521b6044820152606490fd5b60405162461bcd60e51b815260048101869052601f818501527f496e73756666696369656e74207175616e7469747920617661696c61626c65006044820152606490fd5b60405162461bcd60e51b815260048101859052601a818401527f496e76616c6964207175616e74697479207075726368617365640000000000006044820152606490fd5b3461018657602080600319360112610186576001600160a01b038061056d611f95565b16600052600482526040600020908154610586816120e6565b926105946040519485611ce5565b8184526000908152848120858086015b8484106106af575085856105b882516120fd565b9260005b835181101561069d57806105d260019286612194565b5160ff6009856105eb6040519485815193849201611d76565b8301928681600295868152030190206106266040519461060a86611cc9565b61061383611dd3565b8652898884015416898701528201611dd3565b604085015261063760038201611dd3565b60608501526004810154608085015261065260058201611dd3565b60a0850152600681015460c0850152600781015460e08501526008810154610100850152015416151561012082015261068b8288612194565b526106968187612194565b50016105bc565b604051806106ab8782611e9d565b0390f35b60019182916106bd85611dd3565b81520192019201919086906105a4565b346101865760003660031901126101865760206040516103e88152f35b3461018657600036600319011261018657602060405160328152f35b3461018657602036600319011261018657600435600354811015610186576107396107336106ab92611fab565b90612035565b604051918291602083526020830190611e78565b346101865760208060031936011261018657610767611f95565b7ff0c57e16840df040f15088dc2f81fe391c3923bec73e23a9662efc9c229c6a009081549260ff9060ff8560401c1615926001600160401b0390818716968715806109eb575b600180991490816109e1575b1590816109d8575b506109c65767ffffffffffffffff19811688178755856109a7575b506107e56125c3565b6107ed6125c3565b6107f6336123cc565b6107fe6125c3565b6108066125c3565b61080e6125c3565b866000805160206126c8833981519152556108276125c3565b6001600160a01b0316801561096a576bffffffffffffffffffffffff60a01b60005416176000556040519060808201908282109082111761095457604052858152600a6020820152603260408201526064606082015285546004875580600410610907575b5090856000528560005b600481106108e5575085856108a757005b805468ff0000000000000000191690556040519081527fc7f505b2f371ae2175ee4913f4499e1f2633a7b5936321eed1cdaeb6115181d290602090a1005b8285855116940193816000805160206126888339815191520155018690610896565b60008051602061268883398151915201867fb10e2d527612073b26eecdfd717e6a320cf44b4afac2b0732d9fcbe2b7fa0cfa5b82811061094857505061088c565b6000815501879061093a565b634e487b7160e01b600052604160045260246000fd5b60405162461bcd60e51b8152602060048201526015602482015274496e76616c696420746f6b656e206164647265737360581b6044820152606490fd5b68ffffffffffffffffff191668010000000000000001178655876107dc565b60405163f92ee8a960e01b8152600490fd5b905015896107c1565b303b1591506107b9565b50856107ad565b3461018657604036600319011261018657610a0b611f95565b6001600160a01b0316600090815260046020526040902080546024359081101561018657610733610739916106ab9361201d565b34610186576020366003190112610186576004356001600160401b03811161018657610a6f903690600401611d58565b610a77612479565b610a7f6124a9565b6040516020818351610a948183858801611d76565b60029082019081520301902060018101546001600160a01b03163303610b0e576009018054610ac560ff821661237e565b60ff19169055610ad5339161235e565b7fc11956163bdf05219c3bb514f430ab8158702a20dca9dd2e769a1fa0550210e9600080a360016000805160206126c883398151915255005b60405162461bcd60e51b81526020600482015260126024820152712737ba10383937b23ab1ba1039b2b63632b960711b6044820152606490fd5b34610186576000366003190112610186576020604051655af3107a40008152f35b346101865760003660031901126101865760405160408101908082106001600160401b03831117610954576106ab9160405260058152640352e302e360dc1b6020820152604051918291602083526020830190611e78565b34610186576000366003190112610186576020604051602a8152f35b34610186576000366003190112610186576020604051818152f35b3461018657600036600319011261018657600080516020612668833981519152546040516001600160a01b039091168152602090f35b3461018657600036600319011261018657610c47612440565b610c4f6124a9565b6000805160206126a8833981519152600160ff198254161790557f62e78cea01bee320cd4e420270b5ea74000d11b0c9f74754ebdbfc544b05a2586020604051338152a1005b34610186576000366003190112610186576040518060018054928381526020809101809460016000526000805160206126888339815191529060005b818110610d1f5750505083610ce7910384611ce5565b60405192818401908285525180915260408401949160005b828110610d0c5785870386f35b8351875295810195928101928401610cff565b8254845292840192918501918501610cd1565b3461018657610100366003190112610186576001600160401b0360043581811161018657610d64903690600401611d58565b60243582811161018657610d7c903690600401611d58565b9060643583811161018657610d95903690600401611d58565b9260843590811161018657610dae903690600401611d58565b90610db7612479565b610dbf6124a9565b80518015159081611472575b501561142d576040516001825191610de7838260208701611d76565b600283820152602081838060a01b03948101030190200154166113f757655af3107a4000604435106113c35760c4351515806113b5575b1561137057610e2e60a4356124d4565b1561133557603260e435116112f05760648451116112b35781511561127b5782511561123f57602a60443502936044358504602a14604435151715611229576127108504156111ec57600054604051636eb1769f60e11b81523360048201523060248201526001600160a01b0390911690602081604481855afa801561040e576000906111b8575b610ec79150612710880411156121bb565b6040516370a0823160e01b815233600482015290602082602481845afa91821561040e57600092611182575b50610f07610f169261271089041115612200565b61271087049030903390612513565b604051610f2281611cc9565b82815233602082015284604082015283606082015260443560808201528160a082015260a43560c082015260c43560e082015260e435610100820152600161012082015261012060096040516020818751610f808183858c01611d76565b81016002815203019020610f9584518261224c565b6001810160018060a01b036020860151166bffffffffffffffffffffffff60a01b825416179055610fcd60408501516002830161224c565b610fde60608501516003830161224c565b60808401516004820155610ff960a08501516005830161224c565b60c0840151600682015560e08401516007820155610100840151600882015501910151151560ff80198354169116179055600354600160401b811015610954578060016110499201600355611fab565b61116c57826110579161224c565b33600052600460205260406000208054600160401b811015610954576110829160018201815561201d565b91909161116c576110e96110c3846110be7f8fba32aff3c78c2f0d144b7b6cb4ea0d8d5cb6fd3409e3e83b23c29fbc3f1a77966110ff9661224c565b61235e565b946110db604051976101008952610100890190611e78565b908782036020890152611e78565b9060443560408701528582036060870152611e78565b9260a435608082015260c43560a082015260e43560c0820152612710850460e08201528033940390a3612710604051910481527f06c5efeff5c320943d265dc4e5f1af95ad523555ce0c1957e367dda5514572df60203392a260016000805160206126c883398151915255005b634e487b7160e01b600052600060045260246000fd5b91506020823d6020116111b0575b8161119d60209383611ce5565b8101031261018657905190610f07610ef3565b3d9150611190565b506020813d6020116111e4575b816111d260209383611ce5565b8101031261018657610ec79051610eb6565b3d91506111c5565b60405162461bcd60e51b81526020600482015260156024820152742332b29031b0b631bab630ba34b7b71032b93937b960591b6044820152606490fd5b634e487b7160e01b600052601160045260246000fd5b60405162461bcd60e51b8152602060048201526014602482015273496e76616c6964206d657461646174612055524960601b6044820152606490fd5b60405162461bcd60e51b815260206004820152601060248201526f496e76616c69642063617465676f727960801b6044820152606490fd5b60405162461bcd60e51b8152602060048201526015602482015274436f6e7461637420696e666f20746f6f206c6f6e6760581b6044820152606490fd5b60405162461bcd60e51b815260206004820152601860248201527f446973636f756e742065786365656473206d6178696d756d00000000000000006044820152606490fd5b60405162461bcd60e51b8152602060048201526013602482015272496e76616c6964556e69745175616e7469747960681b6044820152606490fd5b60405162461bcd60e51b815260206004820152601a60248201527f496e76616c6964207175616e7469747920617661696c61626c650000000000006044820152606490fd5b506103e860c4351115610e1e565b60405162461bcd60e51b815260206004820152600c60248201526b496e76616c6964507269636560a01b6044820152606490fd5b60405162461bcd60e51b815260206004820152600e60248201526d50726f647563744964496e55736560901b6044820152606490fd5b60405162461bcd60e51b815260206004820152601960248201527f496e76616c69642070726f64756374204944206c656e677468000000000000006044820152606490fd5b60209150111585610dcb565b3461018657600036600319011261018657611497612440565b60008051602061266883398151915280546001600160a01b031981169091556000906001600160a01b03167f8be0079c531659141344cd1fd0a4f28419497f9722a3daafe3b4186f6b6457e08280a3005b3461018657600036600319011261018657602060ff6000805160206126a883398151915254166040519015158152f35b346101865760203660031901126101865760043560015481101561018657611541602091611ff8565b90546040519160031b1c8152f35b34610186576000366003190112610186577f00000000000000000000000000000000000000000000000000000000000000006001600160a01b031630036115ba5760206040517f360894a13ba1a3210667c828492db98dca3e2076cc3735a920a3ca505d382bbc8152f35b60405163703e46dd60e11b8152600490fd5b6040366003190112610186576115e0611f95565b6024356001600160401b038111610186573660238201121561018657611610903690602481600401359101611d21565b906001600160a01b037f000000000000000000000000000000000000000000000000000000000000000081163081149081156117cc575b506115ba57611654612440565b6040516352d1902d60e01b8152908216916020918281600481875afa6000918161179d575b5061169757604051634c9c8ce360e01b815260048101859052602490fd5b9284937f360894a13ba1a3210667c828492db98dca3e2076cc3735a920a3ca505d382bbc908181036117855750823b1561176c5780546001600160a01b03191682179055604051907fbc7cd75a20ee27fd9adebab32041f755214dbc6bffa90cc0225b39da2e5c2d3b600080a28351156117525750600080848461018496519101845af4903d15611749573d61172c81611d06565b9061173a6040519283611ce5565b8152600081943d92013e612604565b60609250612604565b925050503461175d57005b63b398979f60e01b8152600490fd5b604051634c9c8ce360e01b815260048101839052602490fd5b60249060405190632a87526960e21b82526004820152fd5b9091508381813d83116117c5575b6117b58183611ce5565b8101031261018657519086611679565b503d6117ab565b9050817f360894a13ba1a3210667c828492db98dca3e2076cc3735a920a3ca505d382bbc5416141584611647565b34610186576020366003190112610186576004356001600160401b0381116101865761182c6020913690600401611d58565b6001826118426040519384815193849201611d76565b820191600283528381838060a01b03940301902001541615604051908152f35b346101865760003660031901126101865761187b612440565b611883612479565b6000546040516370a0823160e01b81523060048201526001600160a01b0391821691602091908282602481875afa91821561040e57600092611968575b50811561192d5760008051602061266883398151915254166040519263a9059cbb60e01b90840152602483015260448201526044815260808101918183106001600160401b038411176109545761191992604052612567565b60016000805160206126c883398151915255005b60405162461bcd60e51b81526004810184905260136024820152724e6f206665657320746f20776974686472617760681b6044820152606490fd5b9091508281813d8311611990575b6119808183611ce5565b81010312610186575190846118c0565b503d611976565b34610186576000366003190112610186576119b0612440565b6000805160206126a8833981519152805460ff8116156119fc5760ff191690557f5db9ee0a495bf2e6ff9c91a7834c1ba4fdd244a5e8aa4e537bd38aeae4b073aa6020604051338152a1005b604051638dfc202b60e01b8152600490fd5b34610186576000366003190112610186576000546040516001600160a01b039091168152602090f35b3461018657600036600319011261018657600380546000805b828110611b755750611a61906120fd565b916000805b838110611a7b57604051806106ab8782611e9d565b611a96611a8782611fab565b5060ff80916009938491612043565b015416611aa8575b5050600101611a66565b92611b6d918394611ac3611abd600196611fab565b50612043565b9160405192611ad184611cc9565b611ada81611dd3565b8452868060a01b0387820154166020850152611af860028201611dd3565b6040850152611b08898201611dd3565b606085015260048101546080850152611b2360058201611dd3565b60a0850152600681015460c0850152600781015460e085015260088101546101008501520154161515610120820152611b5c8289612194565b52611b678188612194565b506120d7565b919086611a9e565b60ff6009611b85611abd84611fab565b015416611b95575b600101611a50565b90611ba16001916120d7565b919050611b8d565b34610186576020366003190112610186576004356001600160401b03811161018657611c7b611bf56020611be281943690600401611d58565b8160405193828580945193849201611d76565b81016002815203019020611c0881611dd3565b9060018060a01b0360018201541690611c2360028201611dd3565b611cac611c3260038401611dd3565b600484015490611c99611c4760058701611dd3565b91611c8b60068801549960078901549760ff600960088c01549b0154169a6040519e8f9e8f94610140808752860190611e78565b9301528c820360408e0152611e78565b908a820360608c0152611e78565b91608089015287820360a0890152611e78565b9360c086015260e085015261010084015215156101208301520390f35b61014081019081106001600160401b0382111761095457604052565b90601f801991011681019081106001600160401b0382111761095457604052565b6001600160401b03811161095457601f01601f191660200190565b929192611d2d82611d06565b91611d3b6040519384611ce5565b829481845281830111610186578281602093846000960137010152565b9080601f8301121561018657816020611d7393359101611d21565b90565b60005b838110611d895750506000910152565b8181015183820152602001611d79565b90600182811c92168015611dc9575b6020831014611db357565b634e487b7160e01b600052602260045260246000fd5b91607f1691611da8565b90604051918260008254611de681611d99565b90818452602094600191600181169081600014611e565750600114611e17575b505050611e1592500383611ce5565b565b600090815285812095935091905b818310611e3e575050611e159350820101388080611e06565b85548884018501529485019487945091830191611e25565b92505050611e1594925060ff191682840152151560051b820101388080611e06565b90602091611e9181518092818552858086019101611d76565b601f01601f1916010190565b6020808201908083528351809252604092604081018260408560051b8401019601946000925b858410611ed4575050505050505090565b909192939495968580600192603f198582030187528a5190611f58611f3b611f28611f09610140865190808752860190611e78565b888060a01b038787015116878601528a8601518582038c870152611e78565b6060808601519085830390860152611e78565b6080808501519084015260a0808501519084830390850152611e78565b9160c0808201519083015260e080820151908301526101008082015190830152610120809101511515910152990194019401929594939190611ec3565b600435906001600160a01b038216820361018657565b600354811015611fe25760036000527fc2575a0e9e593c00f959f8c92f12db2869c3395a3b0502d05e2516446f71f85b0190600090565b634e487b7160e01b600052603260045260246000fd5b600154811015611fe25760016000526000805160206126888339815191520190600090565b8054821015611fe25760005260206000200190600090565b9061116c57611d7390611dd3565b60405190816000825461205581611d99565b936001918083169081156120bb575060011461207d575b505060209250600281520301902090565b9091506000526020906020600020906000915b8583106120a757505050506020918101388061206c565b805487840152869450918301918101612090565b92505050602093915060ff19168252801515028101388061206c565b60001981146112295760010190565b6001600160401b0381116109545760051b60200190565b90612107826120e6565b6040906121176040519182611ce5565b8381528093612128601f19916120e6565b019160005b83811061213a5750505050565b602090825161214881611cc9565b60608082528390600082840152808684015280808401526000608084015260a0830152600060c0830152600060e08301526000610100830152600061012083015282860101520161212d565b8051821015611fe25760209160051b010190565b8181029291811591840414171561122957565b156121c257565b60405162461bcd60e51b8152602060048201526016602482015275496e73756666696369656e7420616c6c6f77616e636560501b6044820152606490fd5b1561220757565b60405162461bcd60e51b815260206004820152601a60248201527f496e73756666696369656e7420574545444c2062616c616e63650000000000006044820152606490fd5b91909182516001600160401b038111610954576122698254611d99565b601f8111612314575b50602080601f83116001146122af5750819293946000926122a4575b50508160011b916000199060031b1c1916179055565b01519050388061228e565b90601f19831695846000526020600020926000905b8882106122fc575050836001959697106122e3575b505050811b019055565b015160001960f88460031b161c191690553880806122d9565b806001859682949686015181550195019301906122c4565b6000836000526020600020601f840160051c81019260208510612354575b601f0160051c01915b828110612349575050612272565b81815560010161233b565b9092508290612332565b61237690602060405192828480945193849201611d76565b810103902090565b1561238557565b60405162461bcd60e51b815260206004820152601260248201527150726f64756374206e6f742061637469766560701b6044820152606490fd5b9190820391821161122957565b6001600160a01b039081169081156124275760008051602061266883398151915280546001600160a01b031981168417909155167f8be0079c531659141344cd1fd0a4f28419497f9722a3daafe3b4186f6b6457e0600080a3565b604051631e4fbdf760e01b815260006004820152602490fd5b600080516020612668833981519152546001600160a01b0316330361246157565b60405163118cdaa760e01b8152336004820152602490fd5b6000805160206126c883398151915260028154146124975760029055565b604051633ee5aeb560e01b8152600490fd5b60ff6000805160206126a883398151915254166124c257565b60405163d93c066560e01b8152600490fd5b6000600191600154915b8281106124ee5750505050600090565b806124f98592611ff8565b90549060031b1c831461250c57016124de565b5050505090565b6040516323b872dd60e01b60208201526001600160a01b03928316602482015292909116604483015260648083019390935291815260a08101918183106001600160401b0384111761095457611e15926040525b906000602091828151910182855af11561040e576000513d6125ba57506001600160a01b0381163b155b6125985750565b604051635274afe760e01b81526001600160a01b039091166004820152602490fd5b60011415612591565b60ff7ff0c57e16840df040f15088dc2f81fe391c3923bec73e23a9662efc9c229c6a005460401c16156125f257565b604051631afcd79f60e31b8152600490fd5b9061262b575080511561261957602081519101fd5b60405163d6bda27560e01b8152600490fd5b8151158061265e575b61263c575090565b604051639996b31560e01b81526001600160a01b039091166004820152602490fd5b50803b1561263456fe9016d09d72d40fdae2fd8ceac6b6234c7706214fd39c1cd1e609a0528c199300b10e2d527612073b26eecdfd717e6a320cf44b4afac2b0732d9fcbe2b7fa0cf6cd5ed15c6e187e77e9aee88184c21f4f2182ab5827cb3b7e07fbedcd63f033009b779b17422d0df92223018b32b4d1fa46e071723d6817e2486d003becc55f00a2646970667358221220d911ac58bbd1d0e85102df4d8d673ac8f4828472744dd33e4511826d13acaf1d64736f6c63430008160033","opcodes":"PUSH1 0xA0 DUP1 PUSH1 0x40 MSTORE CALLVALUE PUSH2 0xCC JUMPI ADDRESS PUSH1 0x80 MSTORE PUSH32 0xF0C57E16840DF040F15088DC2F81FE391C3923BEC73E23A9662EFC9C229C6A00 SWAP1 DUP2 SLOAD SWAP1 PUSH1 0xFF DUP3 PUSH1 0x40 SHR AND PUSH2 0xBD JUMPI POP PUSH1 0x1 PUSH1 0x1 PUSH1 0x40 SHL SUB PUSH1 0x2 PUSH1 0x1 PUSH1 0x40 SHL SUB NOT DUP3 DUP3 AND ADD PUSH2 0x78 JUMPI JUMPDEST PUSH1 0x40 MLOAD PUSH2 0x271D SWAP1 DUP2 PUSH2 0xD2 DUP3 CODECOPY PUSH1 0x80 MLOAD DUP2 DUP2 DUP2 PUSH2 0x1562 ADD MSTORE PUSH2 0x161B ADD MSTORE RETURN JUMPDEST PUSH1 0x1 PUSH1 0x1 PUSH1 0x40 SHL SUB NOT SWAP1 SWAP2 AND DUP2 OR SWAP1 SWAP2 SSTORE PUSH1 0x40 MLOAD SWAP1 DUP2 MSTORE PUSH32 0xC7F505B2F371AE2175EE4913F4499E1F2633A7B5936321EED1CDAEB6115181D2 SWAP1 PUSH1 0x20 SWAP1 LOG1 CODESIZE DUP1 DUP1 PUSH2 0x59 JUMP JUMPDEST PUSH4 0xF92EE8A9 PUSH1 0xE0 SHL DUP2 MSTORE PUSH1 0x4 SWAP1 REVERT JUMPDEST PUSH1 0x0 DUP1 REVERT INVALID PUSH1 0x80 PUSH1 0x40 MSTORE PUSH1 0x4 CALLDATASIZE LT ISZERO PUSH2 0x12 JUMPI PUSH1 0x0 DUP1 REVERT JUMPDEST PUSH1 0x0 CALLDATALOAD PUSH1 0xE0 SHR DUP1 PUSH4 0x186A423 EQ PUSH2 0x1BA9 JUMPI DUP1 PUSH4 0x2EE3A52 EQ PUSH2 0x1A37 JUMPI DUP1 PUSH4 0x3B9C8CFE EQ PUSH2 0x1A0E JUMPI DUP1 PUSH4 0x3F4BA83A EQ PUSH2 0x1997 JUMPI DUP1 PUSH4 0x476343EE EQ PUSH2 0x1862 JUMPI DUP1 PUSH4 0x4ECF6894 EQ PUSH2 0x17FA JUMPI DUP1 PUSH4 0x4F1EF286 EQ PUSH2 0x15CC JUMPI DUP1 PUSH4 0x52D1902D EQ PUSH2 0x154F JUMPI DUP1 PUSH4 0x553AB55C EQ PUSH2 0x1518 JUMPI DUP1 PUSH4 0x5C975ABB EQ PUSH2 0x14E8 JUMPI DUP1 PUSH4 0x715018A6 EQ PUSH2 0x147E JUMPI DUP1 PUSH4 0x7217CBA4 EQ PUSH2 0xD32 JUMPI DUP1 PUSH4 0x843068C9 EQ PUSH2 0xC95 JUMPI DUP1 PUSH4 0x8456CB59 EQ PUSH2 0xC2E JUMPI DUP1 PUSH4 0x8DA5CB5B EQ PUSH2 0xBF8 JUMPI DUP1 PUSH4 0xA20D9EBE EQ PUSH2 0xBDD JUMPI DUP1 PUSH4 0xA525AD3C EQ PUSH2 0xBC1 JUMPI DUP1 PUSH4 0xAD3CB1CC EQ PUSH2 0xB69 JUMPI DUP1 PUSH4 0xAD9F20A6 EQ PUSH2 0xB48 JUMPI DUP1 PUSH4 0xBAF0999C EQ PUSH2 0xA3F JUMPI DUP1 PUSH4 0xC1302B34 EQ PUSH2 0x9F2 JUMPI DUP1 PUSH4 0xC4D66DE8 EQ PUSH2 0x74D JUMPI DUP1 PUSH4 0xCB51BBA9 EQ PUSH2 0x706 JUMPI DUP1 PUSH4 0xE3495569 EQ PUSH2 0x6EA JUMPI DUP1 PUSH4 0xE41EE46A EQ PUSH2 0x6CD JUMPI DUP1 PUSH4 0xE6A93E16 EQ PUSH2 0x54A JUMPI DUP1 PUSH4 0xECA50CE7 EQ PUSH2 0x1A7 JUMPI DUP1 PUSH4 0xF2BC9A0E EQ PUSH2 0x18B JUMPI PUSH4 0xF2FDE38B EQ PUSH2 0x15B JUMPI PUSH1 0x0 DUP1 REVERT JUMPDEST CALLVALUE PUSH2 0x186 JUMPI PUSH1 0x20 CALLDATASIZE PUSH1 0x3 NOT ADD SLT PUSH2 0x186 JUMPI PUSH2 0x184 PUSH2 0x177 PUSH2 0x1F95 JUMP JUMPDEST PUSH2 0x17F PUSH2 0x2440 JUMP JUMPDEST PUSH2 0x23CC JUMP JUMPDEST STOP JUMPDEST PUSH1 0x0 DUP1 REVERT JUMPDEST CALLVALUE PUSH2 0x186 JUMPI PUSH1 0x0 CALLDATASIZE PUSH1 0x3 NOT ADD SLT PUSH2 0x186 JUMPI PUSH1 0x20 PUSH1 0x40 MLOAD PUSH1 0x64 DUP2 MSTORE RETURN JUMPDEST CALLVALUE PUSH2 0x186 JUMPI PUSH1 0x40 CALLDATASIZE PUSH1 0x3 NOT ADD SLT PUSH2 0x186 JUMPI PUSH1 0x4 CALLDATALOAD PUSH1 0x1 PUSH1 0x1 PUSH1 0x40 SHL SUB DUP2 GT PUSH2 0x186 JUMPI PUSH2 0x1D7 SWAP1 CALLDATASIZE SWAP1 PUSH1 0x4 ADD PUSH2 0x1D58 JUMP JUMPDEST PUSH1 0x24 SWAP1 DUP2 CALLDATALOAD PUSH2 0x1E4 PUSH2 0x2479 JUMP JUMPDEST PUSH2 0x1EC PUSH2 0x24A9 JUMP JUMPDEST PUSH1 0x40 MLOAD SWAP1 DUP2 DUP4 MLOAD PUSH1 0x20 SWAP4 DUP2 PUSH2 0x205 DUP7 SWAP4 DUP4 DUP6 DUP11 ADD PUSH2 0x1D76 JUMP JUMPDEST DUP2 ADD PUSH1 0x2 DUP2 MSTORE SUB ADD SWAP1 KECCAK256 SWAP4 PUSH1 0x9 DUP6 ADD SWAP4 PUSH2 0x222 PUSH1 0xFF DUP7 SLOAD AND PUSH2 0x237E JUMP JUMPDEST DUP3 ISZERO PUSH2 0x506 JUMPI PUSH1 0x7 DUP7 ADD DUP4 DUP2 SLOAD LT PUSH2 0x4C2 JUMPI PUSH1 0x1 DUP8 ADD SLOAD PUSH1 0x1 PUSH1 0x1 PUSH1 0xA0 SHL SUB SWAP1 DUP2 AND SWAP8 SWAP1 SWAP4 SWAP1 CALLER DUP10 EQ PUSH2 0x485 JUMPI DUP6 PUSH1 0x8 PUSH1 0x4 DUP4 ADD SLOAD SWAP3 ADD SLOAD DUP1 PUSH2 0x460 JUMPI JUMPDEST POP PUSH2 0x26A SWAP2 PUSH2 0x21A8 JUMP JUMPDEST SWAP4 PUSH1 0x2A DUP6 MUL DUP6 DUP2 DIV PUSH1 0x2A EQ DUP7 ISZERO OR ISZERO PUSH2 0x44B JUMPI PUSH2 0x2710 SWAP1 DIV SWAP9 PUSH2 0x28D DUP11 DUP8 PUSH2 0x23BF JUMP JUMPDEST PUSH1 0x0 SLOAD PUSH1 0x40 MLOAD PUSH4 0x6EB1769F PUSH1 0xE1 SHL DUP2 MSTORE CALLER PUSH1 0x4 DUP3 ADD MSTORE ADDRESS PUSH1 0x24 DUP3 ADD MSTORE SWAP2 SWAP3 SWAP2 SWAP1 DUP5 AND SWAP1 DUP11 DUP2 PUSH1 0x44 DUP2 DUP6 GAS STATICCALL DUP1 ISZERO PUSH2 0x40E JUMPI DUP10 SWAP1 PUSH1 0x0 SWAP1 PUSH2 0x41A JUMPI JUMPDEST PUSH2 0x2D4 SWAP3 POP LT ISZERO PUSH2 0x21BB JUMP JUMPDEST DUP10 PUSH1 0x40 MLOAD DUP1 SWAP7 PUSH4 0x70A08231 PUSH1 0xE0 SHL DUP3 MSTORE CALLER PUSH1 0x4 DUP4 ADD MSTORE DUP2 DUP5 GAS STATICCALL DUP1 ISZERO PUSH2 0x40E JUMPI DUP13 SWAP6 PUSH1 0x0 SWAP2 PUSH2 0x3C7 JUMPI JUMPDEST POP PUSH2 0x351 SWAP4 PUSH32 0x6C5EFEFF5C320943D265DC4E5F1AF95AD523555CE0C1957E367DDA5514572DF SWAP13 SWAP7 SWAP4 PUSH2 0x36B SWAP10 SWAP9 SWAP7 SWAP4 PUSH2 0x33D DUP13 PUSH2 0x344 SWAP6 LT ISZERO PUSH2 0x2200 JUMP JUMPDEST CALLER SWAP1 PUSH2 0x2513 JUMP JUMPDEST ADDRESS SWAP1 CALLER SWAP1 PUSH1 0x0 SLOAD AND PUSH2 0x2513 JUMP JUMPDEST PUSH2 0x35C DUP7 DUP3 SLOAD PUSH2 0x23BF JUMP JUMPDEST DUP1 SWAP2 SSTORE ISZERO PUSH2 0x3B9 JUMPI JUMPDEST POP PUSH2 0x235E JUMP JUMPDEST SWAP1 PUSH1 0x40 MLOAD SWAP3 DUP4 MSTORE DUP4 DUP4 ADD MSTORE PUSH32 0x46CB9A445BDBF7226E270F694CC6028862DD31E7CC36AC973160DEB5D5B4F940 PUSH1 0x40 CALLER SWAP4 LOG3 PUSH1 0x40 MLOAD SWAP3 DUP4 MSTORE CALLER SWAP3 LOG2 PUSH1 0x1 PUSH1 0x0 DUP1 MLOAD PUSH1 0x20 PUSH2 0x26C8 DUP4 CODECOPY DUP2 MLOAD SWAP2 MSTORE SSTORE STOP JUMPDEST DUP1 SLOAD PUSH1 0xFF NOT AND SWAP1 SSTORE DUP8 PUSH2 0x365 JUMP JUMPDEST DUP1 SWAP13 SWAP7 POP DUP12 DUP1 SWAP3 POP SWAP9 SWAP8 SWAP6 SWAP3 SWAP4 SWAP5 SWAP9 RETURNDATASIZE DUP4 GT PUSH2 0x407 JUMPI JUMPDEST PUSH2 0x3E8 DUP2 DUP4 PUSH2 0x1CE5 JUMP JUMPDEST DUP2 ADD SUB SLT PUSH2 0x186 JUMPI SWAP10 MLOAD SWAP4 SWAP10 SWAP5 SWAP6 SWAP3 SWAP5 DUP12 SWAP5 SWAP1 SWAP4 SWAP3 SWAP2 SWAP1 PUSH2 0x351 PUSH2 0x2FE JUMP JUMPDEST POP RETURNDATASIZE PUSH2 0x3DE JUMP JUMPDEST PUSH1 0x40 MLOAD RETURNDATASIZE PUSH1 0x0 DUP3 RETURNDATACOPY RETURNDATASIZE SWAP1 REVERT JUMPDEST POP POP DUP11 DUP2 DUP2 RETURNDATASIZE DUP4 GT PUSH2 0x444 JUMPI JUMPDEST PUSH2 0x431 DUP2 DUP4 PUSH2 0x1CE5 JUMP JUMPDEST DUP2 ADD SUB SLT PUSH2 0x186 JUMPI DUP9 PUSH2 0x2D4 SWAP2 MLOAD PUSH2 0x2C8 JUMP JUMPDEST POP RETURNDATASIZE PUSH2 0x427 JUMP JUMPDEST DUP3 PUSH4 0x4E487B71 PUSH1 0xE0 SHL PUSH1 0x0 MSTORE PUSH1 0x11 PUSH1 0x4 MSTORE PUSH1 0x0 REVERT JUMPDEST SWAP1 POP PUSH1 0x64 SUB SWAP1 PUSH1 0x64 DUP3 GT PUSH2 0x44B JUMPI PUSH1 0x64 PUSH2 0x47E PUSH2 0x26A SWAP4 DUP10 SWAP4 PUSH2 0x21A8 JUMP JUMPDEST DIV SWAP2 PUSH2 0x260 JUMP JUMPDEST PUSH1 0x40 MLOAD PUSH3 0x461BCD PUSH1 0xE5 SHL DUP2 MSTORE PUSH1 0x4 DUP2 ADD DUP9 SWAP1 MSTORE PUSH1 0x16 DUP2 DUP5 ADD MSTORE PUSH22 0x10D85B9B9BDD08189D5E481BDDDB881C1C9BD91D58DD PUSH1 0x52 SHL PUSH1 0x44 DUP3 ADD MSTORE PUSH1 0x64 SWAP1 REVERT JUMPDEST PUSH1 0x40 MLOAD PUSH3 0x461BCD PUSH1 0xE5 SHL DUP2 MSTORE PUSH1 0x4 DUP2 ADD DUP7 SWAP1 MSTORE PUSH1 0x1F DUP2 DUP6 ADD MSTORE PUSH32 0x496E73756666696369656E74207175616E7469747920617661696C61626C6500 PUSH1 0x44 DUP3 ADD MSTORE PUSH1 0x64 SWAP1 REVERT JUMPDEST PUSH1 0x40 MLOAD PUSH3 0x461BCD PUSH1 0xE5 SHL DUP2 MSTORE PUSH1 0x4 DUP2 ADD DUP6 SWAP1 MSTORE PUSH1 0x1A DUP2 DUP5 ADD MSTORE PUSH32 0x496E76616C6964207175616E7469747920707572636861736564000000000000 PUSH1 0x44 DUP3 ADD MSTORE PUSH1 0x64 SWAP1 REVERT JUMPDEST CALLVALUE PUSH2 0x186 JUMPI PUSH1 0x20 DUP1 PUSH1 0x3 NOT CALLDATASIZE ADD SLT PUSH2 0x186 JUMPI PUSH1 0x1 PUSH1 0x1 PUSH1 0xA0 SHL SUB DUP1 PUSH2 0x56D PUSH2 0x1F95 JUMP JUMPDEST AND PUSH1 0x0 MSTORE PUSH1 0x4 DUP3 MSTORE PUSH1 0x40 PUSH1 0x0 KECCAK256 SWAP1 DUP2 SLOAD PUSH2 0x586 DUP2 PUSH2 0x20E6 JUMP JUMPDEST SWAP3 PUSH2 0x594 PUSH1 0x40 MLOAD SWAP5 DUP6 PUSH2 0x1CE5 JUMP JUMPDEST DUP2 DUP5 MSTORE PUSH1 0x0 SWAP1 DUP2 MSTORE DUP5 DUP2 KECCAK256 DUP6 DUP1 DUP7 ADD JUMPDEST DUP5 DUP5 LT PUSH2 0x6AF JUMPI POP DUP6 DUP6 PUSH2 0x5B8 DUP3 MLOAD PUSH2 0x20FD JUMP JUMPDEST SWAP3 PUSH1 0x0 JUMPDEST DUP4 MLOAD DUP2 LT ISZERO PUSH2 0x69D JUMPI DUP1 PUSH2 0x5D2 PUSH1 0x1 SWAP3 DUP7 PUSH2 0x2194 JUMP JUMPDEST MLOAD PUSH1 0xFF PUSH1 0x9 DUP6 PUSH2 0x5EB PUSH1 0x40 MLOAD SWAP5 DUP6 DUP2 MLOAD SWAP4 DUP5 SWAP3 ADD PUSH2 0x1D76 JUMP JUMPDEST DUP4 ADD SWAP3 DUP7 DUP2 PUSH1 0x2 SWAP6 DUP7 DUP2 MSTORE SUB ADD SWAP1 KECCAK256 PUSH2 0x626 PUSH1 0x40 MLOAD SWAP5 PUSH2 0x60A DUP7 PUSH2 0x1CC9 JUMP JUMPDEST PUSH2 0x613 DUP4 PUSH2 0x1DD3 JUMP JUMPDEST DUP7 MSTORE DUP10 DUP9 DUP5 ADD SLOAD AND DUP10 DUP8 ADD MSTORE DUP3 ADD PUSH2 0x1DD3 JUMP JUMPDEST PUSH1 0x40 DUP6 ADD MSTORE PUSH2 0x637 PUSH1 0x3 DUP3 ADD PUSH2 0x1DD3 JUMP JUMPDEST PUSH1 0x60 DUP6 ADD MSTORE PUSH1 0x4 DUP2 ADD SLOAD PUSH1 0x80 DUP6 ADD MSTORE PUSH2 0x652 PUSH1 0x5 DUP3 ADD PUSH2 0x1DD3 JUMP JUMPDEST PUSH1 0xA0 DUP6 ADD MSTORE PUSH1 0x6 DUP2 ADD SLOAD PUSH1 0xC0 DUP6 ADD MSTORE PUSH1 0x7 DUP2 ADD SLOAD PUSH1 0xE0 DUP6 ADD MSTORE PUSH1 0x8 DUP2 ADD SLOAD PUSH2 0x100 DUP6 ADD MSTORE ADD SLOAD AND ISZERO ISZERO PUSH2 0x120 DUP3 ADD MSTORE PUSH2 0x68B DUP3 DUP9 PUSH2 0x2194 JUMP JUMPDEST MSTORE PUSH2 0x696 DUP2 DUP8 PUSH2 0x2194 JUMP JUMPDEST POP ADD PUSH2 0x5BC JUMP JUMPDEST PUSH1 0x40 MLOAD DUP1 PUSH2 0x6AB DUP8 DUP3 PUSH2 0x1E9D JUMP JUMPDEST SUB SWAP1 RETURN JUMPDEST PUSH1 0x1 SWAP2 DUP3 SWAP2 PUSH2 0x6BD DUP6 PUSH2 0x1DD3 JUMP JUMPDEST DUP2 MSTORE ADD SWAP3 ADD SWAP3 ADD SWAP2 SWAP1 DUP7 SWAP1 PUSH2 0x5A4 JUMP JUMPDEST CALLVALUE PUSH2 0x186 JUMPI PUSH1 0x0 CALLDATASIZE PUSH1 0x3 NOT ADD SLT PUSH2 0x186 JUMPI PUSH1 0x20 PUSH1 0x40 MLOAD PUSH2 0x3E8 DUP2 MSTORE RETURN JUMPDEST CALLVALUE PUSH2 0x186 JUMPI PUSH1 0x0 CALLDATASIZE PUSH1 0x3 NOT ADD SLT PUSH2 0x186 JUMPI PUSH1 0x20 PUSH1 0x40 MLOAD PUSH1 0x32 DUP2 MSTORE RETURN JUMPDEST CALLVALUE PUSH2 0x186 JUMPI PUSH1 0x20 CALLDATASIZE PUSH1 0x3 NOT ADD SLT PUSH2 0x186 JUMPI PUSH1 0x4 CALLDATALOAD PUSH1 0x3 SLOAD DUP2 LT ISZERO PUSH2 0x186 JUMPI PUSH2 0x739 PUSH2 0x733 PUSH2 0x6AB SWAP3 PUSH2 0x1FAB JUMP JUMPDEST SWAP1 PUSH2 0x2035 JUMP JUMPDEST PUSH1 0x40 MLOAD SWAP2 DUP3 SWAP2 PUSH1 0x20 DUP4 MSTORE PUSH1 0x20 DUP4 ADD SWAP1 PUSH2 0x1E78 JUMP JUMPDEST CALLVALUE PUSH2 0x186 JUMPI PUSH1 0x20 DUP1 PUSH1 0x3 NOT CALLDATASIZE ADD SLT PUSH2 0x186 JUMPI PUSH2 0x767 PUSH2 0x1F95 JUMP JUMPDEST PUSH32 0xF0C57E16840DF040F15088DC2F81FE391C3923BEC73E23A9662EFC9C229C6A00 SWAP1 DUP2 SLOAD SWAP3 PUSH1 0xFF SWAP1 PUSH1 0xFF DUP6 PUSH1 0x40 SHR AND ISZERO SWAP3 PUSH1 0x1 PUSH1 0x1 PUSH1 0x40 SHL SUB SWAP1 DUP2 DUP8 AND SWAP7 DUP8 ISZERO DUP1 PUSH2 0x9EB JUMPI JUMPDEST PUSH1 0x1 DUP1 SWAP10 EQ SWAP1 DUP2 PUSH2 0x9E1 JUMPI JUMPDEST ISZERO SWAP1 DUP2 PUSH2 0x9D8 JUMPI JUMPDEST POP PUSH2 0x9C6 JUMPI PUSH8 0xFFFFFFFFFFFFFFFF NOT DUP2 AND DUP9 OR DUP8 SSTORE DUP6 PUSH2 0x9A7 JUMPI JUMPDEST POP PUSH2 0x7E5 PUSH2 0x25C3 JUMP JUMPDEST PUSH2 0x7ED PUSH2 0x25C3 JUMP JUMPDEST PUSH2 0x7F6 CALLER PUSH2 0x23CC JUMP JUMPDEST PUSH2 0x7FE PUSH2 0x25C3 JUMP JUMPDEST PUSH2 0x806 PUSH2 0x25C3 JUMP JUMPDEST PUSH2 0x80E PUSH2 0x25C3 JUMP JUMPDEST DUP7 PUSH1 0x0 DUP1 MLOAD PUSH1 0x20 PUSH2 0x26C8 DUP4 CODECOPY DUP2 MLOAD SWAP2 MSTORE SSTORE PUSH2 0x827 PUSH2 0x25C3 JUMP JUMPDEST PUSH1 0x1 PUSH1 0x1 PUSH1 0xA0 SHL SUB AND DUP1 ISZERO PUSH2 0x96A JUMPI PUSH12 0xFFFFFFFFFFFFFFFFFFFFFFFF PUSH1 0xA0 SHL PUSH1 0x0 SLOAD AND OR PUSH1 0x0 SSTORE PUSH1 0x40 MLOAD SWAP1 PUSH1 0x80 DUP3 ADD SWAP1 DUP3 DUP3 LT SWAP1 DUP3 GT OR PUSH2 0x954 JUMPI PUSH1 0x40 MSTORE DUP6 DUP2 MSTORE PUSH1 0xA PUSH1 0x20 DUP3 ADD MSTORE PUSH1 0x32 PUSH1 0x40 DUP3 ADD MSTORE PUSH1 0x64 PUSH1 0x60 DUP3 ADD MSTORE DUP6 SLOAD PUSH1 0x4 DUP8 SSTORE DUP1 PUSH1 0x4 LT PUSH2 0x907 JUMPI JUMPDEST POP SWAP1 DUP6 PUSH1 0x0 MSTORE DUP6 PUSH1 0x0 JUMPDEST PUSH1 0x4 DUP2 LT PUSH2 0x8E5 JUMPI POP DUP6 DUP6 PUSH2 0x8A7 JUMPI STOP JUMPDEST DUP1 SLOAD PUSH9 0xFF0000000000000000 NOT AND SWAP1 SSTORE PUSH1 0x40 MLOAD SWAP1 DUP2 MSTORE PUSH32 0xC7F505B2F371AE2175EE4913F4499E1F2633A7B5936321EED1CDAEB6115181D2 SWAP1 PUSH1 0x20 SWAP1 LOG1 STOP JUMPDEST DUP3 DUP6 DUP6 MLOAD AND SWAP5 ADD SWAP4 DUP2 PUSH1 0x0 DUP1 MLOAD PUSH1 0x20 PUSH2 0x2688 DUP4 CODECOPY DUP2 MLOAD SWAP2 MSTORE ADD SSTORE ADD DUP7 SWAP1 PUSH2 0x896 JUMP JUMPDEST PUSH1 0x0 DUP1 MLOAD PUSH1 0x20 PUSH2 0x2688 DUP4 CODECOPY DUP2 MLOAD SWAP2 MSTORE ADD DUP7 PUSH32 0xB10E2D527612073B26EECDFD717E6A320CF44B4AFAC2B0732D9FCBE2B7FA0CFA JUMPDEST DUP3 DUP2 LT PUSH2 0x948 JUMPI POP POP PUSH2 0x88C JUMP JUMPDEST PUSH1 0x0 DUP2 SSTORE ADD DUP8 SWAP1 PUSH2 0x93A JUMP JUMPDEST PUSH4 0x4E487B71 PUSH1 0xE0 SHL PUSH1 0x0 MSTORE PUSH1 0x41 PUSH1 0x4 MSTORE PUSH1 0x24 PUSH1 0x0 REVERT JUMPDEST PUSH1 0x40 MLOAD PUSH3 0x461BCD PUSH1 0xE5 SHL DUP2 MSTORE PUSH1 0x20 PUSH1 0x4 DUP3 ADD MSTORE PUSH1 0x15 PUSH1 0x24 DUP3 ADD MSTORE PUSH21 0x496E76616C696420746F6B656E2061646472657373 PUSH1 0x58 SHL PUSH1 0x44 DUP3 ADD MSTORE PUSH1 0x64 SWAP1 REVERT JUMPDEST PUSH9 0xFFFFFFFFFFFFFFFFFF NOT AND PUSH9 0x10000000000000001 OR DUP7 SSTORE DUP8 PUSH2 0x7DC JUMP JUMPDEST PUSH1 0x40 MLOAD PUSH4 0xF92EE8A9 PUSH1 0xE0 SHL DUP2 MSTORE PUSH1 0x4 SWAP1 REVERT JUMPDEST SWAP1 POP ISZERO DUP10 PUSH2 0x7C1 JUMP JUMPDEST ADDRESS EXTCODESIZE ISZERO SWAP2 POP PUSH2 0x7B9 JUMP JUMPDEST POP DUP6 PUSH2 0x7AD JUMP JUMPDEST CALLVALUE PUSH2 0x186 JUMPI PUSH1 0x40 CALLDATASIZE PUSH1 0x3 NOT ADD SLT PUSH2 0x186 JUMPI PUSH2 0xA0B PUSH2 0x1F95 JUMP JUMPDEST PUSH1 0x1 PUSH1 0x1 PUSH1 0xA0 SHL SUB AND PUSH1 0x0 SWAP1 DUP2 MSTORE PUSH1 0x4 PUSH1 0x20 MSTORE PUSH1 0x40 SWAP1 KECCAK256 DUP1 SLOAD PUSH1 0x24 CALLDATALOAD SWAP1 DUP2 LT ISZERO PUSH2 0x186 JUMPI PUSH2 0x733 PUSH2 0x739 SWAP2 PUSH2 0x6AB SWAP4 PUSH2 0x201D JUMP JUMPDEST CALLVALUE PUSH2 0x186 JUMPI PUSH1 0x20 CALLDATASIZE PUSH1 0x3 NOT ADD SLT PUSH2 0x186 JUMPI PUSH1 0x4 CALLDATALOAD PUSH1 0x1 PUSH1 0x1 PUSH1 0x40 SHL SUB DUP2 GT PUSH2 0x186 JUMPI PUSH2 0xA6F SWAP1 CALLDATASIZE SWAP1 PUSH1 0x4 ADD PUSH2 0x1D58 JUMP JUMPDEST PUSH2 0xA77 PUSH2 0x2479 JUMP JUMPDEST PUSH2 0xA7F PUSH2 0x24A9 JUMP JUMPDEST PUSH1 0x40 MLOAD PUSH1 0x20 DUP2 DUP4 MLOAD PUSH2 0xA94 DUP2 DUP4 DUP6 DUP9 ADD PUSH2 0x1D76 JUMP JUMPDEST PUSH1 0x2 SWAP1 DUP3 ADD SWAP1 DUP2 MSTORE SUB ADD SWAP1 KECCAK256 PUSH1 0x1 DUP2 ADD SLOAD PUSH1 0x1 PUSH1 0x1 PUSH1 0xA0 SHL SUB AND CALLER SUB PUSH2 0xB0E JUMPI PUSH1 0x9 ADD DUP1 SLOAD PUSH2 0xAC5 PUSH1 0xFF DUP3 AND PUSH2 0x237E JUMP JUMPDEST PUSH1 0xFF NOT AND SWAP1 SSTORE PUSH2 0xAD5 CALLER SWAP2 PUSH2 0x235E JUMP JUMPDEST PUSH32 0xC11956163BDF05219C3BB514F430AB8158702A20DCA9DD2E769A1FA0550210E9 PUSH1 0x0 DUP1 LOG3 PUSH1 0x1 PUSH1 0x0 DUP1 MLOAD PUSH1 0x20 PUSH2 0x26C8 DUP4 CODECOPY DUP2 MLOAD SWAP2 MSTORE SSTORE STOP JUMPDEST PUSH1 0x40 MLOAD PUSH3 0x461BCD PUSH1 0xE5 SHL DUP2 MSTORE PUSH1 0x20 PUSH1 0x4 DUP3 ADD MSTORE PUSH1 0x12 PUSH1 0x24 DUP3 ADD MSTORE PUSH18 0x2737BA10383937B23AB1BA1039B2B63632B9 PUSH1 0x71 SHL PUSH1 0x44 DUP3 ADD MSTORE PUSH1 0x64 SWAP1 REVERT JUMPDEST CALLVALUE PUSH2 0x186 JUMPI PUSH1 0x0 CALLDATASIZE PUSH1 0x3 NOT ADD SLT PUSH2 0x186 JUMPI PUSH1 0x20 PUSH1 0x40 MLOAD PUSH6 0x5AF3107A4000 DUP2 MSTORE RETURN JUMPDEST CALLVALUE PUSH2 0x186 JUMPI PUSH1 0x0 CALLDATASIZE PUSH1 0x3 NOT ADD SLT PUSH2 0x186 JUMPI PUSH1 0x40 MLOAD PUSH1 0x40 DUP2 ADD SWAP1 DUP1 DUP3 LT PUSH1 0x1 PUSH1 0x1 PUSH1 0x40 SHL SUB DUP4 GT OR PUSH2 0x954 JUMPI PUSH2 0x6AB SWAP2 PUSH1 0x40 MSTORE PUSH1 0x5 DUP2 MSTORE PUSH5 0x352E302E3 PUSH1 0xDC SHL PUSH1 0x20 DUP3 ADD MSTORE PUSH1 0x40 MLOAD SWAP2 DUP3 SWAP2 PUSH1 0x20 DUP4 MSTORE PUSH1 0x20 DUP4 ADD SWAP1 PUSH2 0x1E78 JUMP JUMPDEST CALLVALUE PUSH2 0x186 JUMPI PUSH1 0x0 CALLDATASIZE PUSH1 0x3 NOT ADD SLT PUSH2 0x186 JUMPI PUSH1 0x20 PUSH1 0x40 MLOAD PUSH1 0x2A DUP2 MSTORE RETURN JUMPDEST CALLVALUE PUSH2 0x186 JUMPI PUSH1 0x0 CALLDATASIZE PUSH1 0x3 NOT ADD SLT PUSH2 0x186 JUMPI PUSH1 0x20 PUSH1 0x40 MLOAD DUP2 DUP2 MSTORE RETURN JUMPDEST CALLVALUE PUSH2 0x186 JUMPI PUSH1 0x0 CALLDATASIZE PUSH1 0x3 NOT ADD SLT PUSH2 0x186 JUMPI PUSH1 0x0 DUP1 MLOAD PUSH1 0x20 PUSH2 0x2668 DUP4 CODECOPY DUP2 MLOAD SWAP2 MSTORE SLOAD PUSH1 0x40 MLOAD PUSH1 0x1 PUSH1 0x1 PUSH1 0xA0 SHL SUB SWAP1 SWAP2 AND DUP2 MSTORE PUSH1 0x20 SWAP1 RETURN JUMPDEST CALLVALUE PUSH2 0x186 JUMPI PUSH1 0x0 CALLDATASIZE PUSH1 0x3 NOT ADD SLT PUSH2 0x186 JUMPI PUSH2 0xC47 PUSH2 0x2440 JUMP JUMPDEST PUSH2 0xC4F PUSH2 0x24A9 JUMP JUMPDEST PUSH1 0x0 DUP1 MLOAD PUSH1 0x20 PUSH2 0x26A8 DUP4 CODECOPY DUP2 MLOAD SWAP2 MSTORE PUSH1 0x1 PUSH1 0xFF NOT DUP3 SLOAD AND OR SWAP1 SSTORE PUSH32 0x62E78CEA01BEE320CD4E420270B5EA74000D11B0C9F74754EBDBFC544B05A258 PUSH1 0x20 PUSH1 0x40 MLOAD CALLER DUP2 MSTORE LOG1 STOP JUMPDEST CALLVALUE PUSH2 0x186 JUMPI PUSH1 0x0 CALLDATASIZE PUSH1 0x3 NOT ADD SLT PUSH2 0x186 JUMPI PUSH1 0x40 MLOAD DUP1 PUSH1 0x1 DUP1 SLOAD SWAP3 DUP4 DUP2 MSTORE PUSH1 0x20 DUP1 SWAP2 ADD DUP1 SWAP5 PUSH1 0x1 PUSH1 0x0 MSTORE PUSH1 0x0 DUP1 MLOAD PUSH1 0x20 PUSH2 0x2688 DUP4 CODECOPY DUP2 MLOAD SWAP2 MSTORE SWAP1 PUSH1 0x0 JUMPDEST DUP2 DUP2 LT PUSH2 0xD1F JUMPI POP POP POP DUP4 PUSH2 0xCE7 SWAP2 SUB DUP5 PUSH2 0x1CE5 JUMP JUMPDEST PUSH1 0x40 MLOAD SWAP3 DUP2 DUP5 ADD SWAP1 DUP3 DUP6 MSTORE MLOAD DUP1 SWAP2 MSTORE PUSH1 0x40 DUP5 ADD SWAP5 SWAP2 PUSH1 0x0 JUMPDEST DUP3 DUP2 LT PUSH2 0xD0C JUMPI DUP6 DUP8 SUB DUP7 RETURN JUMPDEST DUP4 MLOAD DUP8 MSTORE SWAP6 DUP2 ADD SWAP6 SWAP3 DUP2 ADD SWAP3 DUP5 ADD PUSH2 0xCFF JUMP JUMPDEST DUP3 SLOAD DUP5 MSTORE SWAP3 DUP5 ADD SWAP3 SWAP2 DUP6 ADD SWAP2 DUP6 ADD PUSH2 0xCD1 JUMP JUMPDEST CALLVALUE PUSH2 0x186 JUMPI PUSH2 0x100 CALLDATASIZE PUSH1 0x3 NOT ADD SLT PUSH2 0x186 JUMPI PUSH1 0x1 PUSH1 0x1 PUSH1 0x40 SHL SUB PUSH1 0x4 CALLDATALOAD DUP2 DUP2 GT PUSH2 0x186 JUMPI PUSH2 0xD64 SWAP1 CALLDATASIZE SWAP1 PUSH1 0x4 ADD PUSH2 0x1D58 JUMP JUMPDEST PUSH1 0x24 CALLDATALOAD DUP3 DUP2 GT PUSH2 0x186 JUMPI PUSH2 0xD7C SWAP1 CALLDATASIZE SWAP1 PUSH1 0x4 ADD PUSH2 0x1D58 JUMP JUMPDEST SWAP1 PUSH1 0x64 CALLDATALOAD DUP4 DUP2 GT PUSH2 0x186 JUMPI PUSH2 0xD95 SWAP1 CALLDATASIZE SWAP1 PUSH1 0x4 ADD PUSH2 0x1D58 JUMP JUMPDEST SWAP3 PUSH1 0x84 CALLDATALOAD SWAP1 DUP2 GT PUSH2 0x186 JUMPI PUSH2 0xDAE SWAP1 CALLDATASIZE SWAP1 PUSH1 0x4 ADD PUSH2 0x1D58 JUMP JUMPDEST SWAP1 PUSH2 0xDB7 PUSH2 0x2479 JUMP JUMPDEST PUSH2 0xDBF PUSH2 0x24A9 JUMP JUMPDEST DUP1 MLOAD DUP1 ISZERO ISZERO SWAP1 DUP2 PUSH2 0x1472 JUMPI JUMPDEST POP ISZERO PUSH2 0x142D JUMPI PUSH1 0x40 MLOAD PUSH1 0x1 DUP3 MLOAD SWAP2 PUSH2 0xDE7 DUP4 DUP3 PUSH1 0x20 DUP8 ADD PUSH2 0x1D76 JUMP JUMPDEST PUSH1 0x2 DUP4 DUP3 ADD MSTORE PUSH1 0x20 DUP2 DUP4 DUP1 PUSH1 0xA0 SHL SUB SWAP5 DUP2 ADD SUB ADD SWAP1 KECCAK256 ADD SLOAD AND PUSH2 0x13F7 JUMPI PUSH6 0x5AF3107A4000 PUSH1 0x44 CALLDATALOAD LT PUSH2 0x13C3 JUMPI PUSH1 0xC4 CALLDATALOAD ISZERO ISZERO DUP1 PUSH2 0x13B5 JUMPI JUMPDEST ISZERO PUSH2 0x1370 JUMPI PUSH2 0xE2E PUSH1 0xA4 CALLDATALOAD PUSH2 0x24D4 JUMP JUMPDEST ISZERO PUSH2 0x1335 JUMPI PUSH1 0x32 PUSH1 0xE4 CALLDATALOAD GT PUSH2 0x12F0 JUMPI PUSH1 0x64 DUP5 MLOAD GT PUSH2 0x12B3 JUMPI DUP2 MLOAD ISZERO PUSH2 0x127B JUMPI DUP3 MLOAD ISZERO PUSH2 0x123F JUMPI PUSH1 0x2A PUSH1 0x44 CALLDATALOAD MUL SWAP4 PUSH1 0x44 CALLDATALOAD DUP6 DIV PUSH1 0x2A EQ PUSH1 0x44 CALLDATALOAD ISZERO OR ISZERO PUSH2 0x1229 JUMPI PUSH2 0x2710 DUP6 DIV ISZERO PUSH2 0x11EC JUMPI PUSH1 0x0 SLOAD PUSH1 0x40 MLOAD PUSH4 0x6EB1769F PUSH1 0xE1 SHL DUP2 MSTORE CALLER PUSH1 0x4 DUP3 ADD MSTORE ADDRESS PUSH1 0x24 DUP3 ADD MSTORE PUSH1 0x1 PUSH1 0x1 PUSH1 0xA0 SHL SUB SWAP1 SWAP2 AND SWAP1 PUSH1 0x20 DUP2 PUSH1 0x44 DUP2 DUP6 GAS STATICCALL DUP1 ISZERO PUSH2 0x40E JUMPI PUSH1 0x0 SWAP1 PUSH2 0x11B8 JUMPI JUMPDEST PUSH2 0xEC7 SWAP2 POP PUSH2 0x2710 DUP9 DIV GT ISZERO PUSH2 0x21BB JUMP JUMPDEST PUSH1 0x40 MLOAD PUSH4 0x70A08231 PUSH1 0xE0 SHL DUP2 MSTORE CALLER PUSH1 0x4 DUP3 ADD MSTORE SWAP1 PUSH1 0x20 DUP3 PUSH1 0x24 DUP2 DUP5 GAS STATICCALL SWAP2 DUP3 ISZERO PUSH2 0x40E JUMPI PUSH1 0x0 SWAP3 PUSH2 0x1182 JUMPI JUMPDEST POP PUSH2 0xF07 PUSH2 0xF16 SWAP3 PUSH2 0x2710 DUP10 DIV GT ISZERO PUSH2 0x2200 JUMP JUMPDEST PUSH2 0x2710 DUP8 DIV SWAP1 ADDRESS SWAP1 CALLER SWAP1 PUSH2 0x2513 JUMP JUMPDEST PUSH1 0x40 MLOAD PUSH2 0xF22 DUP2 PUSH2 0x1CC9 JUMP JUMPDEST DUP3 DUP2 MSTORE CALLER PUSH1 0x20 DUP3 ADD MSTORE DUP5 PUSH1 0x40 DUP3 ADD MSTORE DUP4 PUSH1 0x60 DUP3 ADD MSTORE PUSH1 0x44 CALLDATALOAD PUSH1 0x80 DUP3 ADD MSTORE DUP2 PUSH1 0xA0 DUP3 ADD MSTORE PUSH1 0xA4 CALLDATALOAD PUSH1 0xC0 DUP3 ADD MSTORE PUSH1 0xC4 CALLDATALOAD PUSH1 0xE0 DUP3 ADD MSTORE PUSH1 0xE4 CALLDATALOAD PUSH2 0x100 DUP3 ADD MSTORE PUSH1 0x1 PUSH2 0x120 DUP3 ADD MSTORE PUSH2 0x120 PUSH1 0x9 PUSH1 0x40 MLOAD PUSH1 0x20 DUP2 DUP8 MLOAD PUSH2 0xF80 DUP2 DUP4 DUP6 DUP13 ADD PUSH2 0x1D76 JUMP JUMPDEST DUP2 ADD PUSH1 0x2 DUP2 MSTORE SUB ADD SWAP1 KECCAK256 PUSH2 0xF95 DUP5 MLOAD DUP3 PUSH2 0x224C JUMP JUMPDEST PUSH1 0x1 DUP2 ADD PUSH1 0x1 DUP1 PUSH1 0xA0 SHL SUB PUSH1 0x20 DUP7 ADD MLOAD AND PUSH12 0xFFFFFFFFFFFFFFFFFFFFFFFF PUSH1 0xA0 SHL DUP3 SLOAD AND OR SWAP1 SSTORE PUSH2 0xFCD PUSH1 0x40 DUP6 ADD MLOAD PUSH1 0x2 DUP4 ADD PUSH2 0x224C JUMP JUMPDEST PUSH2 0xFDE PUSH1 0x60 DUP6 ADD MLOAD PUSH1 0x3 DUP4 ADD PUSH2 0x224C JUMP JUMPDEST PUSH1 0x80 DUP5 ADD MLOAD PUSH1 0x4 DUP3 ADD SSTORE PUSH2 0xFF9 PUSH1 0xA0 DUP6 ADD MLOAD PUSH1 0x5 DUP4 ADD PUSH2 0x224C JUMP JUMPDEST PUSH1 0xC0 DUP5 ADD MLOAD PUSH1 0x6 DUP3 ADD SSTORE PUSH1 0xE0 DUP5 ADD MLOAD PUSH1 0x7 DUP3 ADD SSTORE PUSH2 0x100 DUP5 ADD MLOAD PUSH1 0x8 DUP3 ADD SSTORE ADD SWAP2 ADD MLOAD ISZERO ISZERO PUSH1 0xFF DUP1 NOT DUP4 SLOAD AND SWAP2 AND OR SWAP1 SSTORE PUSH1 0x3 SLOAD PUSH1 0x1 PUSH1 0x40 SHL DUP2 LT ISZERO PUSH2 0x954 JUMPI DUP1 PUSH1 0x1 PUSH2 0x1049 SWAP3 ADD PUSH1 0x3 SSTORE PUSH2 0x1FAB JUMP JUMPDEST PUSH2 0x116C JUMPI DUP3 PUSH2 0x1057 SWAP2 PUSH2 0x224C JUMP JUMPDEST CALLER PUSH1 0x0 MSTORE PUSH1 0x4 PUSH1 0x20 MSTORE PUSH1 0x40 PUSH1 0x0 KECCAK256 DUP1 SLOAD PUSH1 0x1 PUSH1 0x40 SHL DUP2 LT ISZERO PUSH2 0x954 JUMPI PUSH2 0x1082 SWAP2 PUSH1 0x1 DUP3 ADD DUP2 SSTORE PUSH2 0x201D JUMP JUMPDEST SWAP2 SWAP1 SWAP2 PUSH2 0x116C JUMPI PUSH2 0x10E9 PUSH2 0x10C3 DUP5 PUSH2 0x10BE PUSH32 0x8FBA32AFF3C78C2F0D144B7B6CB4EA0D8D5CB6FD3409E3E83B23C29FBC3F1A77 SWAP7 PUSH2 0x10FF SWAP7 PUSH2 0x224C JUMP JUMPDEST PUSH2 0x235E JUMP JUMPDEST SWAP5 PUSH2 0x10DB PUSH1 0x40 MLOAD SWAP8 PUSH2 0x100 DUP10 MSTORE PUSH2 0x100 DUP10 ADD SWAP1 PUSH2 0x1E78 JUMP JUMPDEST SWAP1 DUP8 DUP3 SUB PUSH1 0x20 DUP10 ADD MSTORE PUSH2 0x1E78 JUMP JUMPDEST SWAP1 PUSH1 0x44 CALLDATALOAD PUSH1 0x40 DUP8 ADD MSTORE DUP6 DUP3 SUB PUSH1 0x60 DUP8 ADD MSTORE PUSH2 0x1E78 JUMP JUMPDEST SWAP3 PUSH1 0xA4 CALLDATALOAD PUSH1 0x80 DUP3 ADD MSTORE PUSH1 0xC4 CALLDATALOAD PUSH1 0xA0 DUP3 ADD MSTORE PUSH1 0xE4 CALLDATALOAD PUSH1 0xC0 DUP3 ADD MSTORE PUSH2 0x2710 DUP6 DIV PUSH1 0xE0 DUP3 ADD MSTORE DUP1 CALLER SWAP5 SUB SWAP1 LOG3 PUSH2 0x2710 PUSH1 0x40 MLOAD SWAP2 DIV DUP2 MSTORE PUSH32 0x6C5EFEFF5C320943D265DC4E5F1AF95AD523555CE0C1957E367DDA5514572DF PUSH1 0x20 CALLER SWAP3 LOG2 PUSH1 0x1 PUSH1 0x0 DUP1 MLOAD PUSH1 0x20 PUSH2 0x26C8 DUP4 CODECOPY DUP2 MLOAD SWAP2 MSTORE SSTORE STOP JUMPDEST PUSH4 0x4E487B71 PUSH1 0xE0 SHL PUSH1 0x0 MSTORE PUSH1 0x0 PUSH1 0x4 MSTORE PUSH1 0x24 PUSH1 0x0 REVERT JUMPDEST SWAP2 POP PUSH1 0x20 DUP3 RETURNDATASIZE PUSH1 0x20 GT PUSH2 0x11B0 JUMPI JUMPDEST DUP2 PUSH2 0x119D PUSH1 0x20 SWAP4 DUP4 PUSH2 0x1CE5 JUMP JUMPDEST DUP2 ADD SUB SLT PUSH2 0x186 JUMPI SWAP1 MLOAD SWAP1 PUSH2 0xF07 PUSH2 0xEF3 JUMP JUMPDEST RETURNDATASIZE SWAP2 POP PUSH2 0x1190 JUMP JUMPDEST POP PUSH1 0x20 DUP2 RETURNDATASIZE PUSH1 0x20 GT PUSH2 0x11E4 JUMPI JUMPDEST DUP2 PUSH2 0x11D2 PUSH1 0x20 SWAP4 DUP4 PUSH2 0x1CE5 JUMP JUMPDEST DUP2 ADD SUB SLT PUSH2 0x186 JUMPI PUSH2 0xEC7 SWAP1 MLOAD PUSH2 0xEB6 JUMP JUMPDEST RETURNDATASIZE SWAP2 POP PUSH2 0x11C5 JUMP JUMPDEST PUSH1 0x40 MLOAD PUSH3 0x461BCD PUSH1 0xE5 SHL DUP2 MSTORE PUSH1 0x20 PUSH1 0x4 DUP3 ADD MSTORE PUSH1 0x15 PUSH1 0x24 DUP3 ADD MSTORE PUSH21 0x2332B29031B0B631BAB630BA34B7B71032B93937B9 PUSH1 0x59 SHL PUSH1 0x44 DUP3 ADD MSTORE PUSH1 0x64 SWAP1 REVERT JUMPDEST PUSH4 0x4E487B71 PUSH1 0xE0 SHL PUSH1 0x0 MSTORE PUSH1 0x11 PUSH1 0x4 MSTORE PUSH1 0x24 PUSH1 0x0 REVERT JUMPDEST PUSH1 0x40 MLOAD PUSH3 0x461BCD PUSH1 0xE5 SHL DUP2 MSTORE PUSH1 0x20 PUSH1 0x4 DUP3 ADD MSTORE PUSH1 0x14 PUSH1 0x24 DUP3 ADD MSTORE PUSH20 0x496E76616C6964206D6574616461746120555249 PUSH1 0x60 SHL PUSH1 0x44 DUP3 ADD MSTORE PUSH1 0x64 SWAP1 REVERT JUMPDEST PUSH1 0x40 MLOAD PUSH3 0x461BCD PUSH1 0xE5 SHL DUP2 MSTORE PUSH1 0x20 PUSH1 0x4 DUP3 ADD MSTORE PUSH1 0x10 PUSH1 0x24 DUP3 ADD MSTORE PUSH16 0x496E76616C69642063617465676F7279 PUSH1 0x80 SHL PUSH1 0x44 DUP3 ADD MSTORE PUSH1 0x64 SWAP1 REVERT JUMPDEST PUSH1 0x40 MLOAD PUSH3 0x461BCD PUSH1 0xE5 SHL DUP2 MSTORE PUSH1 0x20 PUSH1 0x4 DUP3 ADD MSTORE PUSH1 0x15 PUSH1 0x24 DUP3 ADD MSTORE PUSH21 0x436F6E7461637420696E666F20746F6F206C6F6E67 PUSH1 0x58 SHL PUSH1 0x44 DUP3 ADD MSTORE PUSH1 0x64 SWAP1 REVERT JUMPDEST PUSH1 0x40 MLOAD PUSH3 0x461BCD PUSH1 0xE5 SHL DUP2 MSTORE PUSH1 0x20 PUSH1 0x4 DUP3 ADD MSTORE PUSH1 0x18 PUSH1 0x24 DUP3 ADD MSTORE PUSH32 0x446973636F756E742065786365656473206D6178696D756D0000000000000000 PUSH1 0x44 DUP3 ADD MSTORE PUSH1 0x64 SWAP1 REVERT JUMPDEST PUSH1 0x40 MLOAD PUSH3 0x461BCD PUSH1 0xE5 SHL DUP2 MSTORE PUSH1 0x20 PUSH1 0x4 DUP3 ADD MSTORE PUSH1 0x13 PUSH1 0x24 DUP3 ADD MSTORE PUSH19 0x496E76616C6964556E69745175616E74697479 PUSH1 0x68 SHL PUSH1 0x44 DUP3 ADD MSTORE PUSH1 0x64 SWAP1 REVERT JUMPDEST PUSH1 0x40 MLOAD PUSH3 0x461BCD PUSH1 0xE5 SHL DUP2 MSTORE PUSH1 0x20 PUSH1 0x4 DUP3 ADD MSTORE PUSH1 0x1A PUSH1 0x24 DUP3 ADD MSTORE PUSH32 0x496E76616C6964207175616E7469747920617661696C61626C65000000000000 PUSH1 0x44 DUP3 ADD MSTORE PUSH1 0x64 SWAP1 REVERT JUMPDEST POP PUSH2 0x3E8 PUSH1 0xC4 CALLDATALOAD GT ISZERO PUSH2 0xE1E JUMP JUMPDEST PUSH1 0x40 MLOAD PUSH3 0x461BCD PUSH1 0xE5 SHL DUP2 MSTORE PUSH1 0x20 PUSH1 0x4 DUP3 ADD MSTORE PUSH1 0xC PUSH1 0x24 DUP3 ADD MSTORE PUSH12 0x496E76616C69645072696365 PUSH1 0xA0 SHL PUSH1 0x44 DUP3 ADD MSTORE PUSH1 0x64 SWAP1 REVERT JUMPDEST PUSH1 0x40 MLOAD PUSH3 0x461BCD PUSH1 0xE5 SHL DUP2 MSTORE PUSH1 0x20 PUSH1 0x4 DUP3 ADD MSTORE PUSH1 0xE PUSH1 0x24 DUP3 ADD MSTORE PUSH14 0x50726F647563744964496E557365 PUSH1 0x90 SHL PUSH1 0x44 DUP3 ADD MSTORE PUSH1 0x64 SWAP1 REVERT JUMPDEST PUSH1 0x40 MLOAD PUSH3 0x461BCD PUSH1 0xE5 SHL DUP2 MSTORE PUSH1 0x20 PUSH1 0x4 DUP3 ADD MSTORE PUSH1 0x19 PUSH1 0x24 DUP3 ADD MSTORE PUSH32 0x496E76616C69642070726F64756374204944206C656E67746800000000000000 PUSH1 0x44 DUP3 ADD MSTORE PUSH1 0x64 SWAP1 REVERT JUMPDEST PUSH1 0x20 SWAP2 POP GT ISZERO DUP6 PUSH2 0xDCB JUMP JUMPDEST CALLVALUE PUSH2 0x186 JUMPI PUSH1 0x0 CALLDATASIZE PUSH1 0x3 NOT ADD SLT PUSH2 0x186 JUMPI PUSH2 0x1497 PUSH2 0x2440 JUMP JUMPDEST PUSH1 0x0 DUP1 MLOAD PUSH1 0x20 PUSH2 0x2668 DUP4 CODECOPY DUP2 MLOAD SWAP2 MSTORE DUP1 SLOAD PUSH1 0x1 PUSH1 0x1 PUSH1 0xA0 SHL SUB NOT DUP2 AND SWAP1 SWAP2 SSTORE PUSH1 0x0 SWAP1 PUSH1 0x1 PUSH1 0x1 PUSH1 0xA0 SHL SUB AND PUSH32 0x8BE0079C531659141344CD1FD0A4F28419497F9722A3DAAFE3B4186F6B6457E0 DUP3 DUP1 LOG3 STOP JUMPDEST CALLVALUE PUSH2 0x186 JUMPI PUSH1 0x0 CALLDATASIZE PUSH1 0x3 NOT ADD SLT PUSH2 0x186 JUMPI PUSH1 0x20 PUSH1 0xFF PUSH1 0x0 DUP1 MLOAD PUSH1 0x20 PUSH2 0x26A8 DUP4 CODECOPY DUP2 MLOAD SWAP2 MSTORE SLOAD AND PUSH1 0x40 MLOAD SWAP1 ISZERO ISZERO DUP2 MSTORE RETURN JUMPDEST CALLVALUE PUSH2 0x186 JUMPI PUSH1 0x20 CALLDATASIZE PUSH1 0x3 NOT ADD SLT PUSH2 0x186 JUMPI PUSH1 0x4 CALLDATALOAD PUSH1 0x1 SLOAD DUP2 LT ISZERO PUSH2 0x186 JUMPI PUSH2 0x1541 PUSH1 0x20 SWAP2 PUSH2 0x1FF8 JUMP JUMPDEST SWAP1 SLOAD PUSH1 0x40 MLOAD SWAP2 PUSH1 0x3 SHL SHR DUP2 MSTORE RETURN JUMPDEST CALLVALUE PUSH2 0x186 JUMPI PUSH1 0x0 CALLDATASIZE PUSH1 0x3 NOT ADD SLT PUSH2 0x186 JUMPI PUSH32 0x0 PUSH1 0x1 PUSH1 0x1 PUSH1 0xA0 SHL SUB AND ADDRESS SUB PUSH2 0x15BA JUMPI PUSH1 0x20 PUSH1 0x40 MLOAD PUSH32 0x360894A13BA1A3210667C828492DB98DCA3E2076CC3735A920A3CA505D382BBC DUP2 MSTORE RETURN JUMPDEST PUSH1 0x40 MLOAD PUSH4 0x703E46DD PUSH1 0xE1 SHL DUP2 MSTORE PUSH1 0x4 SWAP1 REVERT JUMPDEST PUSH1 0x40 CALLDATASIZE PUSH1 0x3 NOT ADD SLT PUSH2 0x186 JUMPI PUSH2 0x15E0 PUSH2 0x1F95 JUMP JUMPDEST PUSH1 0x24 CALLDATALOAD PUSH1 0x1 PUSH1 0x1 PUSH1 0x40 SHL SUB DUP2 GT PUSH2 0x186 JUMPI CALLDATASIZE PUSH1 0x23 DUP3 ADD SLT ISZERO PUSH2 0x186 JUMPI PUSH2 0x1610 SWAP1 CALLDATASIZE SWAP1 PUSH1 0x24 DUP2 PUSH1 0x4 ADD CALLDATALOAD SWAP2 ADD PUSH2 0x1D21 JUMP JUMPDEST SWAP1 PUSH1 0x1 PUSH1 0x1 PUSH1 0xA0 SHL SUB PUSH32 0x0 DUP2 AND ADDRESS DUP2 EQ SWAP1 DUP2 ISZERO PUSH2 0x17CC JUMPI JUMPDEST POP PUSH2 0x15BA JUMPI PUSH2 0x1654 PUSH2 0x2440 JUMP JUMPDEST PUSH1 0x40 MLOAD PUSH4 0x52D1902D PUSH1 0xE0 SHL DUP2 MSTORE SWAP1 DUP3 AND SWAP2 PUSH1 0x20 SWAP2 DUP3 DUP2 PUSH1 0x4 DUP2 DUP8 GAS STATICCALL PUSH1 0x0 SWAP2 DUP2 PUSH2 0x179D JUMPI JUMPDEST POP PUSH2 0x1697 JUMPI PUSH1 0x40 MLOAD PUSH4 0x4C9C8CE3 PUSH1 0xE0 SHL DUP2 MSTORE PUSH1 0x4 DUP2 ADD DUP6 SWAP1 MSTORE PUSH1 0x24 SWAP1 REVERT JUMPDEST SWAP3 DUP5 SWAP4 PUSH32 0x360894A13BA1A3210667C828492DB98DCA3E2076CC3735A920A3CA505D382BBC SWAP1 DUP2 DUP2 SUB PUSH2 0x1785 JUMPI POP DUP3 EXTCODESIZE ISZERO PUSH2 0x176C JUMPI DUP1 SLOAD PUSH1 0x1 PUSH1 0x1 PUSH1 0xA0 SHL SUB NOT AND DUP3 OR SWAP1 SSTORE PUSH1 0x40 MLOAD SWAP1 PUSH32 0xBC7CD75A20EE27FD9ADEBAB32041F755214DBC6BFFA90CC0225B39DA2E5C2D3B PUSH1 0x0 DUP1 LOG2 DUP4 MLOAD ISZERO PUSH2 0x1752 JUMPI POP PUSH1 0x0 DUP1 DUP5 DUP5 PUSH2 0x184 SWAP7 MLOAD SWAP2 ADD DUP5 GAS DELEGATECALL SWAP1 RETURNDATASIZE ISZERO PUSH2 0x1749 JUMPI RETURNDATASIZE PUSH2 0x172C DUP2 PUSH2 0x1D06 JUMP JUMPDEST SWAP1 PUSH2 0x173A PUSH1 0x40 MLOAD SWAP3 DUP4 PUSH2 0x1CE5 JUMP JUMPDEST DUP2 MSTORE PUSH1 0x0 DUP2 SWAP5 RETURNDATASIZE SWAP3 ADD RETURNDATACOPY PUSH2 0x2604 JUMP JUMPDEST PUSH1 0x60 SWAP3 POP PUSH2 0x2604 JUMP JUMPDEST SWAP3 POP POP POP CALLVALUE PUSH2 0x175D JUMPI STOP JUMPDEST PUSH4 0xB398979F PUSH1 0xE0 SHL DUP2 MSTORE PUSH1 0x4 SWAP1 REVERT JUMPDEST PUSH1 0x40 MLOAD PUSH4 0x4C9C8CE3 PUSH1 0xE0 SHL DUP2 MSTORE PUSH1 0x4 DUP2 ADD DUP4 SWAP1 MSTORE PUSH1 0x24 SWAP1 REVERT JUMPDEST PUSH1 0x24 SWAP1 PUSH1 0x40 MLOAD SWAP1 PUSH4 0x2A875269 PUSH1 0xE2 SHL DUP3 MSTORE PUSH1 0x4 DUP3 ADD MSTORE REVERT JUMPDEST SWAP1 SWAP2 POP DUP4 DUP2 DUP2 RETURNDATASIZE DUP4 GT PUSH2 0x17C5 JUMPI JUMPDEST PUSH2 0x17B5 DUP2 DUP4 PUSH2 0x1CE5 JUMP JUMPDEST DUP2 ADD SUB SLT PUSH2 0x186 JUMPI MLOAD SWAP1 DUP7 PUSH2 0x1679 JUMP JUMPDEST POP RETURNDATASIZE PUSH2 0x17AB JUMP JUMPDEST SWAP1 POP DUP2 PUSH32 0x360894A13BA1A3210667C828492DB98DCA3E2076CC3735A920A3CA505D382BBC SLOAD AND EQ ISZERO DUP5 PUSH2 0x1647 JUMP JUMPDEST CALLVALUE PUSH2 0x186 JUMPI PUSH1 0x20 CALLDATASIZE PUSH1 0x3 NOT ADD SLT PUSH2 0x186 JUMPI PUSH1 0x4 CALLDATALOAD PUSH1 0x1 PUSH1 0x1 PUSH1 0x40 SHL SUB DUP2 GT PUSH2 0x186 JUMPI PUSH2 0x182C PUSH1 0x20 SWAP2 CALLDATASIZE SWAP1 PUSH1 0x4 ADD PUSH2 0x1D58 JUMP JUMPDEST PUSH1 0x1 DUP3 PUSH2 0x1842 PUSH1 0x40 MLOAD SWAP4 DUP5 DUP2 MLOAD SWAP4 DUP5 SWAP3 ADD PUSH2 0x1D76 JUMP JUMPDEST DUP3 ADD SWAP2 PUSH1 0x2 DUP4 MSTORE DUP4 DUP2 DUP4 DUP1 PUSH1 0xA0 SHL SUB SWAP5 SUB ADD SWAP1 KECCAK256 ADD SLOAD AND ISZERO PUSH1 0x40 MLOAD SWAP1 DUP2 MSTORE RETURN JUMPDEST CALLVALUE PUSH2 0x186 JUMPI PUSH1 0x0 CALLDATASIZE PUSH1 0x3 NOT ADD SLT PUSH2 0x186 JUMPI PUSH2 0x187B PUSH2 0x2440 JUMP JUMPDEST PUSH2 0x1883 PUSH2 0x2479 JUMP JUMPDEST PUSH1 0x0 SLOAD PUSH1 0x40 MLOAD PUSH4 0x70A08231 PUSH1 0xE0 SHL DUP2 MSTORE ADDRESS PUSH1 0x4 DUP3 ADD MSTORE PUSH1 0x1 PUSH1 0x1 PUSH1 0xA0 SHL SUB SWAP2 DUP3 AND SWAP2 PUSH1 0x20 SWAP2 SWAP1 DUP3 DUP3 PUSH1 0x24 DUP2 DUP8 GAS STATICCALL SWAP2 DUP3 ISZERO PUSH2 0x40E JUMPI PUSH1 0x0 SWAP3 PUSH2 0x1968 JUMPI JUMPDEST POP DUP2 ISZERO PUSH2 0x192D JUMPI PUSH1 0x0 DUP1 MLOAD PUSH1 0x20 PUSH2 0x2668 DUP4 CODECOPY DUP2 MLOAD SWAP2 MSTORE SLOAD AND PUSH1 0x40 MLOAD SWAP3 PUSH4 0xA9059CBB PUSH1 0xE0 SHL SWAP1 DUP5 ADD MSTORE PUSH1 0x24 DUP4 ADD MSTORE PUSH1 0x44 DUP3 ADD MSTORE PUSH1 0x44 DUP2 MSTORE PUSH1 0x80 DUP2 ADD SWAP2 DUP2 DUP4 LT PUSH1 0x1 PUSH1 0x1 PUSH1 0x40 SHL SUB DUP5 GT OR PUSH2 0x954 JUMPI PUSH2 0x1919 SWAP3 PUSH1 0x40 MSTORE PUSH2 0x2567 JUMP JUMPDEST PUSH1 0x1 PUSH1 0x0 DUP1 MLOAD PUSH1 0x20 PUSH2 0x26C8 DUP4 CODECOPY DUP2 MLOAD SWAP2 MSTORE SSTORE STOP JUMPDEST PUSH1 0x40 MLOAD PUSH3 0x461BCD PUSH1 0xE5 SHL DUP2 MSTORE PUSH1 0x4 DUP2 ADD DUP5 SWAP1 MSTORE PUSH1 0x13 PUSH1 0x24 DUP3 ADD MSTORE PUSH19 0x4E6F206665657320746F207769746864726177 PUSH1 0x68 SHL PUSH1 0x44 DUP3 ADD MSTORE PUSH1 0x64 SWAP1 REVERT JUMPDEST SWAP1 SWAP2 POP DUP3 DUP2 DUP2 RETURNDATASIZE DUP4 GT PUSH2 0x1990 JUMPI JUMPDEST PUSH2 0x1980 DUP2 DUP4 PUSH2 0x1CE5 JUMP JUMPDEST DUP2 ADD SUB SLT PUSH2 0x186 JUMPI MLOAD SWAP1 DUP5 PUSH2 0x18C0 JUMP JUMPDEST POP RETURNDATASIZE PUSH2 0x1976 JUMP JUMPDEST CALLVALUE PUSH2 0x186 JUMPI PUSH1 0x0 CALLDATASIZE PUSH1 0x3 NOT ADD SLT PUSH2 0x186 JUMPI PUSH2 0x19B0 PUSH2 0x2440 JUMP JUMPDEST PUSH1 0x0 DUP1 MLOAD PUSH1 0x20 PUSH2 0x26A8 DUP4 CODECOPY DUP2 MLOAD SWAP2 MSTORE DUP1 SLOAD PUSH1 0xFF DUP2 AND ISZERO PUSH2 0x19FC JUMPI PUSH1 0xFF NOT AND SWAP1 SSTORE PUSH32 0x5DB9EE0A495BF2E6FF9C91A7834C1BA4FDD244A5E8AA4E537BD38AEAE4B073AA PUSH1 0x20 PUSH1 0x40 MLOAD CALLER DUP2 MSTORE LOG1 STOP JUMPDEST PUSH1 0x40 MLOAD PUSH4 0x8DFC202B PUSH1 0xE0 SHL DUP2 MSTORE PUSH1 0x4 SWAP1 REVERT JUMPDEST CALLVALUE PUSH2 0x186 JUMPI PUSH1 0x0 CALLDATASIZE PUSH1 0x3 NOT ADD SLT PUSH2 0x186 JUMPI PUSH1 0x0 SLOAD PUSH1 0x40 MLOAD PUSH1 0x1 PUSH1 0x1 PUSH1 0xA0 SHL SUB SWAP1 SWAP2 AND DUP2 MSTORE PUSH1 0x20 SWAP1 RETURN JUMPDEST CALLVALUE PUSH2 0x186 JUMPI PUSH1 0x0 CALLDATASIZE PUSH1 0x3 NOT ADD SLT PUSH2 0x186 JUMPI PUSH1 0x3 DUP1 SLOAD PUSH1 0x0 DUP1 JUMPDEST DUP3 DUP2 LT PUSH2 0x1B75 JUMPI POP PUSH2 0x1A61 SWAP1 PUSH2 0x20FD JUMP JUMPDEST SWAP2 PUSH1 0x0 DUP1 JUMPDEST DUP4 DUP2 LT PUSH2 0x1A7B JUMPI PUSH1 0x40 MLOAD DUP1 PUSH2 0x6AB DUP8 DUP3 PUSH2 0x1E9D JUMP JUMPDEST PUSH2 0x1A96 PUSH2 0x1A87 DUP3 PUSH2 0x1FAB JUMP JUMPDEST POP PUSH1 0xFF DUP1 SWAP2 PUSH1 0x9 SWAP4 DUP5 SWAP2 PUSH2 0x2043 JUMP JUMPDEST ADD SLOAD AND PUSH2 0x1AA8 JUMPI JUMPDEST POP POP PUSH1 0x1 ADD PUSH2 0x1A66 JUMP JUMPDEST SWAP3 PUSH2 0x1B6D SWAP2 DUP4 SWAP5 PUSH2 0x1AC3 PUSH2 0x1ABD PUSH1 0x1 SWAP7 PUSH2 0x1FAB JUMP JUMPDEST POP PUSH2 0x2043 JUMP JUMPDEST SWAP2 PUSH1 0x40 MLOAD SWAP3 PUSH2 0x1AD1 DUP5 PUSH2 0x1CC9 JUMP JUMPDEST PUSH2 0x1ADA DUP2 PUSH2 0x1DD3 JUMP JUMPDEST DUP5 MSTORE DUP7 DUP1 PUSH1 0xA0 SHL SUB DUP8 DUP3 ADD SLOAD AND PUSH1 0x20 DUP6 ADD MSTORE PUSH2 0x1AF8 PUSH1 0x2 DUP3 ADD PUSH2 0x1DD3 JUMP JUMPDEST PUSH1 0x40 DUP6 ADD MSTORE PUSH2 0x1B08 DUP10 DUP3 ADD PUSH2 0x1DD3 JUMP JUMPDEST PUSH1 0x60 DUP6 ADD MSTORE PUSH1 0x4 DUP2 ADD SLOAD PUSH1 0x80 DUP6 ADD MSTORE PUSH2 0x1B23 PUSH1 0x5 DUP3 ADD PUSH2 0x1DD3 JUMP JUMPDEST PUSH1 0xA0 DUP6 ADD MSTORE PUSH1 0x6 DUP2 ADD SLOAD PUSH1 0xC0 DUP6 ADD MSTORE PUSH1 0x7 DUP2 ADD SLOAD PUSH1 0xE0 DUP6 ADD MSTORE PUSH1 0x8 DUP2 ADD SLOAD PUSH2 0x100 DUP6 ADD MSTORE ADD SLOAD AND ISZERO ISZERO PUSH2 0x120 DUP3 ADD MSTORE PUSH2 0x1B5C DUP3 DUP10 PUSH2 0x2194 JUMP JUMPDEST MSTORE PUSH2 0x1B67 DUP2 DUP9 PUSH2 0x2194 JUMP JUMPDEST POP PUSH2 0x20D7 JUMP JUMPDEST SWAP2 SWAP1 DUP7 PUSH2 0x1A9E JUMP JUMPDEST PUSH1 0xFF PUSH1 0x9 PUSH2 0x1B85 PUSH2 0x1ABD DUP5 PUSH2 0x1FAB JUMP JUMPDEST ADD SLOAD AND PUSH2 0x1B95 JUMPI JUMPDEST PUSH1 0x1 ADD PUSH2 0x1A50 JUMP JUMPDEST SWAP1 PUSH2 0x1BA1 PUSH1 0x1 SWAP2 PUSH2 0x20D7 JUMP JUMPDEST SWAP2 SWAP1 POP PUSH2 0x1B8D JUMP JUMPDEST CALLVALUE PUSH2 0x186 JUMPI PUSH1 0x20 CALLDATASIZE PUSH1 0x3 NOT ADD SLT PUSH2 0x186 JUMPI PUSH1 0x4 CALLDATALOAD PUSH1 0x1 PUSH1 0x1 PUSH1 0x40 SHL SUB DUP2 GT PUSH2 0x186 JUMPI PUSH2 0x1C7B PUSH2 0x1BF5 PUSH1 0x20 PUSH2 0x1BE2 DUP2 SWAP5 CALLDATASIZE SWAP1 PUSH1 0x4 ADD PUSH2 0x1D58 JUMP JUMPDEST DUP2 PUSH1 0x40 MLOAD SWAP4 DUP3 DUP6 DUP1 SWAP5 MLOAD SWAP4 DUP5 SWAP3 ADD PUSH2 0x1D76 JUMP JUMPDEST DUP2 ADD PUSH1 0x2 DUP2 MSTORE SUB ADD SWAP1 KECCAK256 PUSH2 0x1C08 DUP2 PUSH2 0x1DD3 JUMP JUMPDEST SWAP1 PUSH1 0x1 DUP1 PUSH1 0xA0 SHL SUB PUSH1 0x1 DUP3 ADD SLOAD AND SWAP1 PUSH2 0x1C23 PUSH1 0x2 DUP3 ADD PUSH2 0x1DD3 JUMP JUMPDEST PUSH2 0x1CAC PUSH2 0x1C32 PUSH1 0x3 DUP5 ADD PUSH2 0x1DD3 JUMP JUMPDEST PUSH1 0x4 DUP5 ADD SLOAD SWAP1 PUSH2 0x1C99 PUSH2 0x1C47 PUSH1 0x5 DUP8 ADD PUSH2 0x1DD3 JUMP JUMPDEST SWAP2 PUSH2 0x1C8B PUSH1 0x6 DUP9 ADD SLOAD SWAP10 PUSH1 0x7 DUP10 ADD SLOAD SWAP8 PUSH1 0xFF PUSH1 0x9 PUSH1 0x8 DUP13 ADD SLOAD SWAP12 ADD SLOAD AND SWAP11 PUSH1 0x40 MLOAD SWAP15 DUP16 SWAP15 DUP16 SWAP5 PUSH2 0x140 DUP1 DUP8 MSTORE DUP7 ADD SWAP1 PUSH2 0x1E78 JUMP JUMPDEST SWAP4 ADD MSTORE DUP13 DUP3 SUB PUSH1 0x40 DUP15 ADD MSTORE PUSH2 0x1E78 JUMP JUMPDEST SWAP1 DUP11 DUP3 SUB PUSH1 0x60 DUP13 ADD MSTORE PUSH2 0x1E78 JUMP JUMPDEST SWAP2 PUSH1 0x80 DUP10 ADD MSTORE DUP8 DUP3 SUB PUSH1 0xA0 DUP10 ADD MSTORE PUSH2 0x1E78 JUMP JUMPDEST SWAP4 PUSH1 0xC0 DUP7 ADD MSTORE PUSH1 0xE0 DUP6 ADD MSTORE PUSH2 0x100 DUP5 ADD MSTORE ISZERO ISZERO PUSH2 0x120 DUP4 ADD MSTORE SUB SWAP1 RETURN JUMPDEST PUSH2 0x140 DUP2 ADD SWAP1 DUP2 LT PUSH1 0x1 PUSH1 0x1 PUSH1 0x40 SHL SUB DUP3 GT OR PUSH2 0x954 JUMPI PUSH1 0x40 MSTORE JUMP JUMPDEST SWAP1 PUSH1 0x1F DUP1 NOT SWAP2 ADD AND DUP2 ADD SWAP1 DUP2 LT PUSH1 0x1 PUSH1 0x1 PUSH1 0x40 SHL SUB DUP3 GT OR PUSH2 0x954 JUMPI PUSH1 0x40 MSTORE JUMP JUMPDEST PUSH1 0x1 PUSH1 0x1 PUSH1 0x40 SHL SUB DUP2 GT PUSH2 0x954 JUMPI PUSH1 0x1F ADD PUSH1 0x1F NOT AND PUSH1 0x20 ADD SWAP1 JUMP JUMPDEST SWAP3 SWAP2 SWAP3 PUSH2 0x1D2D DUP3 PUSH2 0x1D06 JUMP JUMPDEST SWAP2 PUSH2 0x1D3B PUSH1 0x40 MLOAD SWAP4 DUP5 PUSH2 0x1CE5 JUMP JUMPDEST DUP3 SWAP5 DUP2 DUP5 MSTORE DUP2 DUP4 ADD GT PUSH2 0x186 JUMPI DUP3 DUP2 PUSH1 0x20 SWAP4 DUP5 PUSH1 0x0 SWAP7 ADD CALLDATACOPY ADD ADD MSTORE JUMP JUMPDEST SWAP1 DUP1 PUSH1 0x1F DUP4 ADD SLT ISZERO PUSH2 0x186 JUMPI DUP2 PUSH1 0x20 PUSH2 0x1D73 SWAP4 CALLDATALOAD SWAP2 ADD PUSH2 0x1D21 JUMP JUMPDEST SWAP1 JUMP JUMPDEST PUSH1 0x0 JUMPDEST DUP4 DUP2 LT PUSH2 0x1D89 JUMPI POP POP PUSH1 0x0 SWAP2 ADD MSTORE JUMP JUMPDEST DUP2 DUP2 ADD MLOAD DUP4 DUP3 ADD MSTORE PUSH1 0x20 ADD PUSH2 0x1D79 JUMP JUMPDEST SWAP1 PUSH1 0x1 DUP3 DUP2 SHR SWAP3 AND DUP1 ISZERO PUSH2 0x1DC9 JUMPI JUMPDEST PUSH1 0x20 DUP4 LT EQ PUSH2 0x1DB3 JUMPI JUMP JUMPDEST PUSH4 0x4E487B71 PUSH1 0xE0 SHL PUSH1 0x0 MSTORE PUSH1 0x22 PUSH1 0x4 MSTORE PUSH1 0x24 PUSH1 0x0 REVERT JUMPDEST SWAP2 PUSH1 0x7F AND SWAP2 PUSH2 0x1DA8 JUMP JUMPDEST SWAP1 PUSH1 0x40 MLOAD SWAP2 DUP3 PUSH1 0x0 DUP3 SLOAD PUSH2 0x1DE6 DUP2 PUSH2 0x1D99 JUMP JUMPDEST SWAP1 DUP2 DUP5 MSTORE PUSH1 0x20 SWAP5 PUSH1 0x1 SWAP2 PUSH1 0x1 DUP2 AND SWAP1 DUP2 PUSH1 0x0 EQ PUSH2 0x1E56 JUMPI POP PUSH1 0x1 EQ PUSH2 0x1E17 JUMPI JUMPDEST POP POP POP PUSH2 0x1E15 SWAP3 POP SUB DUP4 PUSH2 0x1CE5 JUMP JUMPDEST JUMP JUMPDEST PUSH1 0x0 SWAP1 DUP2 MSTORE DUP6 DUP2 KECCAK256 SWAP6 SWAP4 POP SWAP2 SWAP1 JUMPDEST DUP2 DUP4 LT PUSH2 0x1E3E JUMPI POP POP PUSH2 0x1E15 SWAP4 POP DUP3 ADD ADD CODESIZE DUP1 DUP1 PUSH2 0x1E06 JUMP JUMPDEST DUP6 SLOAD DUP9 DUP5 ADD DUP6 ADD MSTORE SWAP5 DUP6 ADD SWAP5 DUP8 SWAP5 POP SWAP2 DUP4 ADD SWAP2 PUSH2 0x1E25 JUMP JUMPDEST SWAP3 POP POP POP PUSH2 0x1E15 SWAP5 SWAP3 POP PUSH1 0xFF NOT AND DUP3 DUP5 ADD MSTORE ISZERO ISZERO PUSH1 0x5 SHL DUP3 ADD ADD CODESIZE DUP1 DUP1 PUSH2 0x1E06 JUMP JUMPDEST SWAP1 PUSH1 0x20 SWAP2 PUSH2 0x1E91 DUP2 MLOAD DUP1 SWAP3 DUP2 DUP6 MSTORE DUP6 DUP1 DUP7 ADD SWAP2 ADD PUSH2 0x1D76 JUMP JUMPDEST PUSH1 0x1F ADD PUSH1 0x1F NOT AND ADD ADD SWAP1 JUMP JUMPDEST PUSH1 0x20 DUP1 DUP3 ADD SWAP1 DUP1 DUP4 MSTORE DUP4 MLOAD DUP1 SWAP3 MSTORE PUSH1 0x40 SWAP3 PUSH1 0x40 DUP2 ADD DUP3 PUSH1 0x40 DUP6 PUSH1 0x5 SHL DUP5 ADD ADD SWAP7 ADD SWAP5 PUSH1 0x0 SWAP3 JUMPDEST DUP6 DUP5 LT PUSH2 0x1ED4 JUMPI POP POP POP POP POP POP POP SWAP1 JUMP JUMPDEST SWAP1 SWAP2 SWAP3 SWAP4 SWAP5 SWAP6 SWAP7 DUP6 DUP1 PUSH1 0x1 SWAP3 PUSH1 0x3F NOT DUP6 DUP3 SUB ADD DUP8 MSTORE DUP11 MLOAD SWAP1 PUSH2 0x1F58 PUSH2 0x1F3B PUSH2 0x1F28 PUSH2 0x1F09 PUSH2 0x140 DUP7 MLOAD SWAP1 DUP1 DUP8 MSTORE DUP7 ADD SWAP1 PUSH2 0x1E78 JUMP JUMPDEST DUP9 DUP1 PUSH1 0xA0 SHL SUB DUP8 DUP8 ADD MLOAD AND DUP8 DUP7 ADD MSTORE DUP11 DUP7 ADD MLOAD DUP6 DUP3 SUB DUP13 DUP8 ADD MSTORE PUSH2 0x1E78 JUMP JUMPDEST PUSH1 0x60 DUP1 DUP7 ADD MLOAD SWAP1 DUP6 DUP4 SUB SWAP1 DUP7 ADD MSTORE PUSH2 0x1E78 JUMP JUMPDEST PUSH1 0x80 DUP1 DUP6 ADD MLOAD SWAP1 DUP5 ADD MSTORE PUSH1 0xA0 DUP1 DUP6 ADD MLOAD SWAP1 DUP5 DUP4 SUB SWAP1 DUP6 ADD MSTORE PUSH2 0x1E78 JUMP JUMPDEST SWAP2 PUSH1 0xC0 DUP1 DUP3 ADD MLOAD SWAP1 DUP4 ADD MSTORE PUSH1 0xE0 DUP1 DUP3 ADD MLOAD SWAP1 DUP4 ADD MSTORE PUSH2 0x100 DUP1 DUP3 ADD MLOAD SWAP1 DUP4 ADD MSTORE PUSH2 0x120 DUP1 SWAP2 ADD MLOAD ISZERO ISZERO SWAP2 ADD MSTORE SWAP10 ADD SWAP5 ADD SWAP5 ADD SWAP3 SWAP6 SWAP5 SWAP4 SWAP2 SWAP1 PUSH2 0x1EC3 JUMP JUMPDEST PUSH1 0x4 CALLDATALOAD SWAP1 PUSH1 0x1 PUSH1 0x1 PUSH1 0xA0 SHL SUB DUP3 AND DUP3 SUB PUSH2 0x186 JUMPI JUMP JUMPDEST PUSH1 0x3 SLOAD DUP2 LT ISZERO PUSH2 0x1FE2 JUMPI PUSH1 0x3 PUSH1 0x0 MSTORE PUSH32 0xC2575A0E9E593C00F959F8C92F12DB2869C3395A3B0502D05E2516446F71F85B ADD SWAP1 PUSH1 0x0 SWAP1 JUMP JUMPDEST PUSH4 0x4E487B71 PUSH1 0xE0 SHL PUSH1 0x0 MSTORE PUSH1 0x32 PUSH1 0x4 MSTORE PUSH1 0x24 PUSH1 0x0 REVERT JUMPDEST PUSH1 0x1 SLOAD DUP2 LT ISZERO PUSH2 0x1FE2 JUMPI PUSH1 0x1 PUSH1 0x0 MSTORE PUSH1 0x0 DUP1 MLOAD PUSH1 0x20 PUSH2 0x2688 DUP4 CODECOPY DUP2 MLOAD SWAP2 MSTORE ADD SWAP1 PUSH1 0x0 SWAP1 JUMP JUMPDEST DUP1 SLOAD DUP3 LT ISZERO PUSH2 0x1FE2 JUMPI PUSH1 0x0 MSTORE PUSH1 0x20 PUSH1 0x0 KECCAK256 ADD SWAP1 PUSH1 0x0 SWAP1 JUMP JUMPDEST SWAP1 PUSH2 0x116C JUMPI PUSH2 0x1D73 SWAP1 PUSH2 0x1DD3 JUMP JUMPDEST PUSH1 0x40 MLOAD SWAP1 DUP2 PUSH1 0x0 DUP3 SLOAD PUSH2 0x2055 DUP2 PUSH2 0x1D99 JUMP JUMPDEST SWAP4 PUSH1 0x1 SWAP2 DUP1 DUP4 AND SWAP1 DUP2 ISZERO PUSH2 0x20BB JUMPI POP PUSH1 0x1 EQ PUSH2 0x207D JUMPI JUMPDEST POP POP PUSH1 0x20 SWAP3 POP PUSH1 0x2 DUP2 MSTORE SUB ADD SWAP1 KECCAK256 SWAP1 JUMP JUMPDEST SWAP1 SWAP2 POP PUSH1 0x0 MSTORE PUSH1 0x20 SWAP1 PUSH1 0x20 PUSH1 0x0 KECCAK256 SWAP1 PUSH1 0x0 SWAP2 JUMPDEST DUP6 DUP4 LT PUSH2 0x20A7 JUMPI POP POP POP POP PUSH1 0x20 SWAP2 DUP2 ADD CODESIZE DUP1 PUSH2 0x206C JUMP JUMPDEST DUP1 SLOAD DUP8 DUP5 ADD MSTORE DUP7 SWAP5 POP SWAP2 DUP4 ADD SWAP2 DUP2 ADD PUSH2 0x2090 JUMP JUMPDEST SWAP3 POP POP POP PUSH1 0x20 SWAP4 SWAP2 POP PUSH1 0xFF NOT AND DUP3 MSTORE DUP1 ISZERO ISZERO MUL DUP2 ADD CODESIZE DUP1 PUSH2 0x206C JUMP JUMPDEST PUSH1 0x0 NOT DUP2 EQ PUSH2 0x1229 JUMPI PUSH1 0x1 ADD SWAP1 JUMP JUMPDEST PUSH1 0x1 PUSH1 0x1 PUSH1 0x40 SHL SUB DUP2 GT PUSH2 0x954 JUMPI PUSH1 0x5 SHL PUSH1 0x20 ADD SWAP1 JUMP JUMPDEST SWAP1 PUSH2 0x2107 DUP3 PUSH2 0x20E6 JUMP JUMPDEST PUSH1 0x40 SWAP1 PUSH2 0x2117 PUSH1 0x40 MLOAD SWAP2 DUP3 PUSH2 0x1CE5 JUMP JUMPDEST DUP4 DUP2 MSTORE DUP1 SWAP4 PUSH2 0x2128 PUSH1 0x1F NOT SWAP2 PUSH2 0x20E6 JUMP JUMPDEST ADD SWAP2 PUSH1 0x0 JUMPDEST DUP4 DUP2 LT PUSH2 0x213A JUMPI POP POP POP POP JUMP JUMPDEST PUSH1 0x20 SWAP1 DUP3 MLOAD PUSH2 0x2148 DUP2 PUSH2 0x1CC9 JUMP JUMPDEST PUSH1 0x60 DUP1 DUP3 MSTORE DUP4 SWAP1 PUSH1 0x0 DUP3 DUP5 ADD MSTORE DUP1 DUP7 DUP5 ADD MSTORE DUP1 DUP1 DUP5 ADD MSTORE PUSH1 0x0 PUSH1 0x80 DUP5 ADD MSTORE PUSH1 0xA0 DUP4 ADD MSTORE PUSH1 0x0 PUSH1 0xC0 DUP4 ADD MSTORE PUSH1 0x0 PUSH1 0xE0 DUP4 ADD MSTORE PUSH1 0x0 PUSH2 0x100 DUP4 ADD MSTORE PUSH1 0x0 PUSH2 0x120 DUP4 ADD MSTORE DUP3 DUP7 ADD ADD MSTORE ADD PUSH2 0x212D JUMP JUMPDEST DUP1 MLOAD DUP3 LT ISZERO PUSH2 0x1FE2 JUMPI PUSH1 0x20 SWAP2 PUSH1 0x5 SHL ADD ADD SWAP1 JUMP JUMPDEST DUP2 DUP2 MUL SWAP3 SWAP2 DUP2 ISZERO SWAP2 DUP5 DIV EQ OR ISZERO PUSH2 0x1229 JUMPI JUMP JUMPDEST ISZERO PUSH2 0x21C2 JUMPI JUMP JUMPDEST PUSH1 0x40 MLOAD PUSH3 0x461BCD PUSH1 0xE5 SHL DUP2 MSTORE PUSH1 0x20 PUSH1 0x4 DUP3 ADD MSTORE PUSH1 0x16 PUSH1 0x24 DUP3 ADD MSTORE PUSH22 0x496E73756666696369656E7420616C6C6F77616E6365 PUSH1 0x50 SHL PUSH1 0x44 DUP3 ADD MSTORE PUSH1 0x64 SWAP1 REVERT JUMPDEST ISZERO PUSH2 0x2207 JUMPI JUMP JUMPDEST PUSH1 0x40 MLOAD PUSH3 0x461BCD PUSH1 0xE5 SHL DUP2 MSTORE PUSH1 0x20 PUSH1 0x4 DUP3 ADD MSTORE PUSH1 0x1A PUSH1 0x24 DUP3 ADD MSTORE PUSH32 0x496E73756666696369656E7420574545444C2062616C616E6365000000000000 PUSH1 0x44 DUP3 ADD MSTORE PUSH1 0x64 SWAP1 REVERT JUMPDEST SWAP2 SWAP1 SWAP2 DUP3 MLOAD PUSH1 0x1 PUSH1 0x1 PUSH1 0x40 SHL SUB DUP2 GT PUSH2 0x954 JUMPI PUSH2 0x2269 DUP3 SLOAD PUSH2 0x1D99 JUMP JUMPDEST PUSH1 0x1F DUP2 GT PUSH2 0x2314 JUMPI JUMPDEST POP PUSH1 0x20 DUP1 PUSH1 0x1F DUP4 GT PUSH1 0x1 EQ PUSH2 0x22AF JUMPI POP DUP2 SWAP3 SWAP4 SWAP5 PUSH1 0x0 SWAP3 PUSH2 0x22A4 JUMPI JUMPDEST POP POP DUP2 PUSH1 0x1 SHL SWAP2 PUSH1 0x0 NOT SWAP1 PUSH1 0x3 SHL SHR NOT AND OR SWAP1 SSTORE JUMP JUMPDEST ADD MLOAD SWAP1 POP CODESIZE DUP1 PUSH2 0x228E JUMP JUMPDEST SWAP1 PUSH1 0x1F NOT DUP4 AND SWAP6 DUP5 PUSH1 0x0 MSTORE PUSH1 0x20 PUSH1 0x0 KECCAK256 SWAP3 PUSH1 0x0 SWAP1 JUMPDEST DUP9 DUP3 LT PUSH2 0x22FC JUMPI POP POP DUP4 PUSH1 0x1 SWAP6 SWAP7 SWAP8 LT PUSH2 0x22E3 JUMPI JUMPDEST POP POP POP DUP2 SHL ADD SWAP1 SSTORE JUMP JUMPDEST ADD MLOAD PUSH1 0x0 NOT PUSH1 0xF8 DUP5 PUSH1 0x3 SHL AND SHR NOT AND SWAP1 SSTORE CODESIZE DUP1 DUP1 PUSH2 0x22D9 JUMP JUMPDEST DUP1 PUSH1 0x1 DUP6 SWAP7 DUP3 SWAP5 SWAP7 DUP7 ADD MLOAD DUP2 SSTORE ADD SWAP6 ADD SWAP4 ADD SWAP1 PUSH2 0x22C4 JUMP JUMPDEST PUSH1 0x0 DUP4 PUSH1 0x0 MSTORE PUSH1 0x20 PUSH1 0x0 KECCAK256 PUSH1 0x1F DUP5 ADD PUSH1 0x5 SHR DUP2 ADD SWAP3 PUSH1 0x20 DUP6 LT PUSH2 0x2354 JUMPI JUMPDEST PUSH1 0x1F ADD PUSH1 0x5 SHR ADD SWAP2 JUMPDEST DUP3 DUP2 LT PUSH2 0x2349 JUMPI POP POP PUSH2 0x2272 JUMP JUMPDEST DUP2 DUP2 SSTORE PUSH1 0x1 ADD PUSH2 0x233B JUMP JUMPDEST SWAP1 SWAP3 POP DUP3 SWAP1 PUSH2 0x2332 JUMP JUMPDEST PUSH2 0x2376 SWAP1 PUSH1 0x20 PUSH1 0x40 MLOAD SWAP3 DUP3 DUP5 DUP1 SWAP5 MLOAD SWAP4 DUP5 SWAP3 ADD PUSH2 0x1D76 JUMP JUMPDEST DUP2 ADD SUB SWAP1 KECCAK256 SWAP1 JUMP JUMPDEST ISZERO PUSH2 0x2385 JUMPI JUMP JUMPDEST PUSH1 0x40 MLOAD PUSH3 0x461BCD PUSH1 0xE5 SHL DUP2 MSTORE PUSH1 0x20 PUSH1 0x4 DUP3 ADD MSTORE PUSH1 0x12 PUSH1 0x24 DUP3 ADD MSTORE PUSH18 0x50726F64756374206E6F7420616374697665 PUSH1 0x70 SHL PUSH1 0x44 DUP3 ADD MSTORE PUSH1 0x64 SWAP1 REVERT JUMPDEST SWAP2 SWAP1 DUP3 SUB SWAP2 DUP3 GT PUSH2 0x1229 JUMPI JUMP JUMPDEST PUSH1 0x1 PUSH1 0x1 PUSH1 0xA0 SHL SUB SWAP1 DUP2 AND SWAP1 DUP2 ISZERO PUSH2 0x2427 JUMPI PUSH1 0x0 DUP1 MLOAD PUSH1 0x20 PUSH2 0x2668 DUP4 CODECOPY DUP2 MLOAD SWAP2 MSTORE DUP1 SLOAD PUSH1 0x1 PUSH1 0x1 PUSH1 0xA0 SHL SUB NOT DUP2 AND DUP5 OR SWAP1 SWAP2 SSTORE AND PUSH32 0x8BE0079C531659141344CD1FD0A4F28419497F9722A3DAAFE3B4186F6B6457E0 PUSH1 0x0 DUP1 LOG3 JUMP JUMPDEST PUSH1 0x40 MLOAD PUSH4 0x1E4FBDF7 PUSH1 0xE0 SHL DUP2 MSTORE PUSH1 0x0 PUSH1 0x4 DUP3 ADD MSTORE PUSH1 0x24 SWAP1 REVERT JUMPDEST PUSH1 0x0 DUP1 MLOAD PUSH1 0x20 PUSH2 0x2668 DUP4 CODECOPY DUP2 MLOAD SWAP2 MSTORE SLOAD PUSH1 0x1 PUSH1 0x1 PUSH1 0xA0 SHL SUB AND CALLER SUB PUSH2 0x2461 JUMPI JUMP JUMPDEST PUSH1 0x40 MLOAD PUSH4 0x118CDAA7 PUSH1 0xE0 SHL DUP2 MSTORE CALLER PUSH1 0x4 DUP3 ADD MSTORE PUSH1 0x24 SWAP1 REVERT JUMPDEST PUSH1 0x0 DUP1 MLOAD PUSH1 0x20 PUSH2 0x26C8 DUP4 CODECOPY DUP2 MLOAD SWAP2 MSTORE PUSH1 0x2 DUP2 SLOAD EQ PUSH2 0x2497 JUMPI PUSH1 0x2 SWAP1 SSTORE JUMP JUMPDEST PUSH1 0x40 MLOAD PUSH4 0x3EE5AEB5 PUSH1 0xE0 SHL DUP2 MSTORE PUSH1 0x4 SWAP1 REVERT JUMPDEST PUSH1 0xFF PUSH1 0x0 DUP1 MLOAD PUSH1 0x20 PUSH2 0x26A8 DUP4 CODECOPY DUP2 MLOAD SWAP2 MSTORE SLOAD AND PUSH2 0x24C2 JUMPI JUMP JUMPDEST PUSH1 0x40 MLOAD PUSH4 0xD93C0665 PUSH1 0xE0 SHL DUP2 MSTORE PUSH1 0x4 SWAP1 REVERT JUMPDEST PUSH1 0x0 PUSH1 0x1 SWAP2 PUSH1 0x1 SLOAD SWAP2 JUMPDEST DUP3 DUP2 LT PUSH2 0x24EE JUMPI POP POP POP POP PUSH1 0x0 SWAP1 JUMP JUMPDEST DUP1 PUSH2 0x24F9 DUP6 SWAP3 PUSH2 0x1FF8 JUMP JUMPDEST SWAP1 SLOAD SWAP1 PUSH1 0x3 SHL SHR DUP4 EQ PUSH2 0x250C JUMPI ADD PUSH2 0x24DE JUMP JUMPDEST POP POP POP POP SWAP1 JUMP JUMPDEST PUSH1 0x40 MLOAD PUSH4 0x23B872DD PUSH1 0xE0 SHL PUSH1 0x20 DUP3 ADD MSTORE PUSH1 0x1 PUSH1 0x1 PUSH1 0xA0 SHL SUB SWAP3 DUP4 AND PUSH1 0x24 DUP3 ADD MSTORE SWAP3 SWAP1 SWAP2 AND PUSH1 0x44 DUP4 ADD MSTORE PUSH1 0x64 DUP1 DUP4 ADD SWAP4 SWAP1 SWAP4 MSTORE SWAP2 DUP2 MSTORE PUSH1 0xA0 DUP2 ADD SWAP2 DUP2 DUP4 LT PUSH1 0x1 PUSH1 0x1 PUSH1 0x40 SHL SUB DUP5 GT OR PUSH2 0x954 JUMPI PUSH2 0x1E15 SWAP3 PUSH1 0x40 MSTORE JUMPDEST SWAP1 PUSH1 0x0 PUSH1 0x20 SWAP2 DUP3 DUP2 MLOAD SWAP2 ADD DUP3 DUP6 GAS CALL ISZERO PUSH2 0x40E JUMPI PUSH1 0x0 MLOAD RETURNDATASIZE PUSH2 0x25BA JUMPI POP PUSH1 0x1 PUSH1 0x1 PUSH1 0xA0 SHL SUB DUP2 AND EXTCODESIZE ISZERO JUMPDEST PUSH2 0x2598 JUMPI POP JUMP JUMPDEST PUSH1 0x40 MLOAD PUSH4 0x5274AFE7 PUSH1 0xE0 SHL DUP2 MSTORE PUSH1 0x1 PUSH1 0x1 PUSH1 0xA0 SHL SUB SWAP1 SWAP2 AND PUSH1 0x4 DUP3 ADD MSTORE PUSH1 0x24 SWAP1 REVERT JUMPDEST PUSH1 0x1 EQ ISZERO PUSH2 0x2591 JUMP JUMPDEST PUSH1 0xFF PUSH32 0xF0C57E16840DF040F15088DC2F81FE391C3923BEC73E23A9662EFC9C229C6A00 SLOAD PUSH1 0x40 SHR AND ISZERO PUSH2 0x25F2 JUMPI JUMP JUMPDEST PUSH1 0x40 MLOAD PUSH4 0x1AFCD79F PUSH1 0xE3 SHL DUP2 MSTORE PUSH1 0x4 SWAP1 REVERT JUMPDEST SWAP1 PUSH2 0x262B JUMPI POP DUP1 MLOAD ISZERO PUSH2 0x2619 JUMPI PUSH1 0x20 DUP2 MLOAD SWAP2 ADD REVERT JUMPDEST PUSH1 0x40 MLOAD PUSH4 0xD6BDA275 PUSH1 0xE0 SHL DUP2 MSTORE PUSH1 0x4 SWAP1 REVERT JUMPDEST DUP2 MLOAD ISZERO DUP1 PUSH2 0x265E JUMPI JUMPDEST PUSH2 0x263C JUMPI POP SWAP1 JUMP JUMPDEST PUSH1 0x40 MLOAD PUSH4 0x9996B315 PUSH1 0xE0 SHL DUP2 MSTORE PUSH1 0x1 PUSH1 0x1 PUSH1 0xA0 SHL SUB SWAP1 SWAP2 AND PUSH1 0x4 DUP3 ADD MSTORE PUSH1 0x24 SWAP1 REVERT JUMPDEST POP DUP1 EXTCODESIZE ISZERO PUSH2 0x2634 JUMP INVALID SWAP1 AND 0xD0 SWAP14 PUSH19 0xD40FDAE2FD8CEAC6B6234C7706214FD39C1CD1 0xE6 MULMOD LOG0 MSTORE DUP13 NOT SWAP4 STOP 0xB1 0xE 0x2D MSTORE PUSH23 0x12073B26EECDFD717E6A320CF44B4AFAC2B0732D9FCBE2 0xB7 STATICCALL 0xC 0xF6 0xCD 0x5E 0xD1 0x5C PUSH15 0x187E77E9AEE88184C21F4F2182AB58 0x27 0xCB EXTCODESIZE PUSH31 0x7FBEDCD63F033009B779B17422D0DF92223018B32B4D1FA46E071723D6817 0xE2 BASEFEE PUSH14 0x3BECC55F00A264697066735822 SLT KECCAK256 0xD9 GT 0xAC PC 0xBB 0xD1 0xD0 0xE8 MLOAD MUL 0xDF 0x4D DUP14 PUSH8 0x3AC8F4828472744D 0xD3 RETURNDATACOPY GASLIMIT GT DUP3 PUSH14 0x13ACAF1D64736F6C634300081600 CALLER "},"methodIdentifiers":{"FEE_BASIS_POINTS()":"a525ad3c","MAX_CONTACT_LENGTH()":"f2bc9a0e","MAX_DISCOUNT()":"e3495569","MAX_PRODUCT_ID_LENGTH()":"a20d9ebe","MAX_QUANTITY()":"e41ee46a","MIN_PRICE()":"ad9f20a6","UPGRADE_INTERFACE_VERSION()":"ad3cb1cc","delistProduct(string)":"baf0999c","getAllProducts()":"02ee3a52","getSellerProducts(address)":"e6a93e16","getValidUnitQuantities()":"843068c9","initialize(address)":"c4d66de8","isProductIdAvailable(string)":"4ecf6894","listProduct(string,string,uint256,string,string,uint256,uint256,uint256)":"7217cba4","owner()":"8da5cb5b","pause()":"8456cb59","paused()":"5c975abb","productIds(uint256)":"cb51bba9","products(string)":"0186a423","proxiableUUID()":"52d1902d","purchaseProduct(string,uint256)":"eca50ce7","renounceOwnership()":"715018a6","sellerProducts(address,uint256)":"c1302b34","transferOwnership(address)":"f2fde38b","unpause()":"3f4ba83a","upgradeToAndCall(address,bytes)":"4f1ef286","validUnitQuantities(uint256)":"553ab55c","weedlToken()":"3b9c8cfe","withdrawFees()":"476343ee"}},"storageLayout":{"storage":[{"astId":2390,"contract":"contracts/GreenFiProducts.sol:GreenFiProducts","label":"weedlToken","offset":0,"slot":"0","type":"t_contract(IERC20)1482"},{"astId":2411,"contract":"contracts/GreenFiProducts.sol:GreenFiProducts","label":"validUnitQuantities","offset":0,"slot":"1","type":"t_array(t_uint256)dyn_storage"},{"astId":2437,"contract":"contracts/GreenFiProducts.sol:GreenFiProducts","label":"products","offset":0,"slot":"2","type":"t_mapping(t_string_memory_ptr,t_struct(Product)2432_storage)"},{"astId":2440,"contract":"contracts/GreenFiProducts.sol:GreenFiProducts","label":"productIds","offset":0,"slot":"3","type":"t_array(t_string_storage)dyn_storage"},{"astId":2445,"contract":"contracts/GreenFiProducts.sol:GreenFiProducts","label":"sellerProducts","offset":0,"slot":"4","type":"t_mapping(t_address,t_array(t_string_storage)dyn_storage)"}],"types":{"t_address":{"encoding":"inplace","label":"address","numberOfBytes":"20"},"t_array(t_string_storage)dyn_storage":{"base":"t_string_storage","encoding":"dynamic_array","label":"string[]","numberOfBytes":"32"},"t_array(t_uint256)dyn_storage":{"base":"t_uint256","encoding":"dynamic_array","label":"uint256[]","numberOfBytes":"32"},"t_bool":{"encoding":"inplace","label":"bool","numberOfBytes":"1"},"t_contract(IERC20)1482":{"encoding":"inplace","label":"contract IERC20","numberOfBytes":"20"},"t_mapping(t_address,t_array(t_string_storage)dyn_storage)":{"encoding":"mapping","key":"t_address","label":"mapping(address => string[])","numberOfBytes":"32","value":"t_array(t_string_storage)dyn_storage"},"t_mapping(t_string_memory_ptr,t_struct(Product)2432_storage)":{"encoding":"mapping","key":"t_string_memory_ptr","label":"mapping(string => struct GreenFiProducts.Product)","numberOfBytes":"32","value":"t_struct(Product)2432_storage"},"t_string_memory_ptr":{"encoding":"bytes","label":"string","numberOfBytes":"32"},"t_string_storage":{"encoding":"bytes","label":"string","numberOfBytes":"32"},"t_struct(Product)2432_storage":{"encoding":"inplace","label":"struct GreenFiProducts.Product","members":[{"astId":2413,"contract":"contracts/GreenFiProducts.sol:GreenFiProducts","label":"id","offset":0,"slot":"0","type":"t_string_storage"},{"astId":2415,"contract":"contracts/GreenFiProducts.sol:GreenFiProducts","label":"seller","offset":0,"slot":"1","type":"t_address"},{"astId":2417,"contract":"contracts/GreenFiProducts.sol:GreenFiProducts","label":"metadataURI","offset":0,"slot":"2","type":"t_string_storage"},{"astId":2419,"contract":"contracts/GreenFiProducts.sol:GreenFiProducts","label":"category","offset":0,"slot":"3","type":"t_string_storage"},{"astId":2421,"contract":"contracts/GreenFiProducts.sol:GreenFiProducts","label":"price","offset":0,"slot":"4","type":"t_uint256"},{"astId":2423,"contract":"contracts/GreenFiProducts.sol:GreenFiProducts","label":"contactInfo","offset":0,"slot":"5","type":"t_string_storage"},{"astId":2425,"contract":"contracts/GreenFiProducts.sol:GreenFiProducts","label":"unitQuantity","offset":0,"slot":"6","type":"t_uint256"},{"astId":2427,"contract":"contracts/GreenFiProducts.sol:GreenFiProducts","label":"quantityAvailable","offset":0,"slot":"7","type":"t_uint256"},{"astId":2429,"contract":"contracts/GreenFiProducts.sol:GreenFiProducts","label":"discount","offset":0,"slot":"8","type":"t_uint256"},{"astId":2431,"contract":"contracts/GreenFiProducts.sol:GreenFiProducts","label":"isActive","offset":0,"slot":"9","type":"t_bool"}],"numberOfBytes":"320"},"t_uint256":{"encoding":"inplace","label":"uint256","numberOfBytes":"32"}}}}}}