{"contracts/GreenFiLoan.sol":{"GreenFiLoan":{"abi":[{"inputs":[],"stateMutability":"nonpayable","type":"constructor"},{"inputs":[{"internalType":"address","name":"target","type":"address"}],"name":"AddressEmptyCode","type":"error"},{"inputs":[{"internalType":"address","name":"implementation","type":"address"}],"name":"ERC1967InvalidImplementation","type":"error"},{"inputs":[],"name":"ERC1967NonPayable","type":"error"},{"inputs":[],"name":"EnforcedPause","type":"error"},{"inputs":[],"name":"ExpectedPause","type":"error"},{"inputs":[],"name":"FailedCall","type":"error"},{"inputs":[],"name":"InvalidInitialization","type":"error"},{"inputs":[],"name":"NotInitializing","type":"error"},{"inputs":[{"internalType":"address","name":"owner","type":"address"}],"name":"OwnableInvalidOwner","type":"error"},{"inputs":[{"internalType":"address","name":"account","type":"address"}],"name":"OwnableUnauthorizedAccount","type":"error"},{"inputs":[],"name":"ReentrancyGuardReentrantCall","type":"error"},{"inputs":[{"internalType":"address","name":"token","type":"address"}],"name":"SafeERC20FailedOperation","type":"error"},{"inputs":[],"name":"UUPSUnauthorizedCallContext","type":"error"},{"inputs":[{"internalType":"bytes32","name":"slot","type":"bytes32"}],"name":"UUPSUnsupportedProxiableUUID","type":"error"},{"anonymous":false,"inputs":[{"indexed":true,"internalType":"string","name":"id","type":"string"},{"indexed":true,"internalType":"address","name":"lender","type":"address"}],"name":"CollateralClaimed","type":"event"},{"anonymous":false,"inputs":[{"indexed":false,"internalType":"uint64","name":"version","type":"uint64"}],"name":"Initialized","type":"event"},{"anonymous":false,"inputs":[{"indexed":true,"internalType":"string","name":"id","type":"string"},{"indexed":true,"internalType":"address","name":"grower","type":"address"}],"name":"LoanCanceled","type":"event"},{"anonymous":false,"inputs":[{"indexed":true,"internalType":"string","name":"id","type":"string"},{"indexed":true,"internalType":"address","name":"grower","type":"address"},{"indexed":false,"internalType":"uint256","name":"amount","type":"uint256"},{"indexed":false,"internalType":"uint256","name":"duration","type":"uint256"},{"indexed":false,"internalType":"string","name":"contactInfo","type":"string"},{"indexed":false,"internalType":"uint256","name":"fee","type":"uint256"},{"indexed":false,"internalType":"string","name":"growPurpose","type":"string"},{"indexed":false,"internalType":"uint256","name":"collateralAmount","type":"uint256"},{"indexed":true,"internalType":"uint256","name":"interestRate","type":"uint256"}],"name":"LoanCreated","type":"event"},{"anonymous":false,"inputs":[{"indexed":true,"internalType":"string","name":"id","type":"string"},{"indexed":true,"internalType":"address","name":"lender","type":"address"},{"indexed":true,"internalType":"address","name":"grower","type":"address"}],"name":"LoanFunded","type":"event"},{"anonymous":false,"inputs":[{"indexed":true,"internalType":"string","name":"id","type":"string"},{"indexed":true,"internalType":"address","name":"grower","type":"address"},{"indexed":false,"internalType":"uint256","name":"amount","type":"uint256"},{"indexed":false,"internalType":"uint256","name":"interest","type":"uint256"}],"name":"LoanRepaid","type":"event"},{"anonymous":false,"inputs":[{"indexed":true,"internalType":"string","name":"id","type":"string"},{"indexed":false,"internalType":"string","name":"status","type":"string"}],"name":"LoanStatusChanged","type":"event"},{"anonymous":false,"inputs":[{"indexed":true,"internalType":"address","name":"previousOwner","type":"address"},{"indexed":true,"internalType":"address","name":"newOwner","type":"address"}],"name":"OwnershipTransferred","type":"event"},{"anonymous":false,"inputs":[{"indexed":false,"internalType":"address","name":"account","type":"address"}],"name":"Paused","type":"event"},{"anonymous":false,"inputs":[{"indexed":false,"internalType":"address","name":"account","type":"address"}],"name":"Unpaused","type":"event"},{"anonymous":false,"inputs":[{"indexed":true,"internalType":"address","name":"implementation","type":"address"}],"name":"Upgraded","type":"event"},{"inputs":[],"name":"FEE_BASIS_POINTS","outputs":[{"internalType":"uint256","name":"","type":"uint256"}],"stateMutability":"view","type":"function"},{"inputs":[],"name":"MAX_INTEREST_RATE","outputs":[{"internalType":"uint256","name":"","type":"uint256"}],"stateMutability":"view","type":"function"},{"inputs":[],"name":"MAX_LOAN_DURATION","outputs":[{"internalType":"uint256","name":"","type":"uint256"}],"stateMutability":"view","type":"function"},{"inputs":[],"name":"MIN_COLLATERAL_RATIO","outputs":[{"internalType":"uint256","name":"","type":"uint256"}],"stateMutability":"view","type":"function"},{"inputs":[],"name":"UPGRADE_INTERFACE_VERSION","outputs":[{"internalType":"string","name":"","type":"string"}],"stateMutability":"view","type":"function"},{"inputs":[{"internalType":"string","name":"_id","type":"string"}],"name":"cancelLoan","outputs":[],"stateMutability":"nonpayable","type":"function"},{"inputs":[{"internalType":"string","name":"_id","type":"string"}],"name":"claimCollateral","outputs":[],"stateMutability":"nonpayable","type":"function"},{"inputs":[{"internalType":"string","name":"_id","type":"string"},{"internalType":"uint256","name":"_amount","type":"uint256"},{"internalType":"uint256","name":"_duration","type":"uint256"},{"internalType":"string","name":"_contactInfo","type":"string"},{"internalType":"uint256","name":"_fee","type":"uint256"},{"internalType":"string","name":"_growPurpose","type":"string"},{"internalType":"uint256","name":"_collateralAmount","type":"uint256"},{"internalType":"uint256","name":"_interestRate","type":"uint256"}],"name":"createLoan","outputs":[],"stateMutability":"nonpayable","type":"function"},{"inputs":[{"internalType":"string","name":"_id","type":"string"}],"name":"fundLoan","outputs":[],"stateMutability":"nonpayable","type":"function"},{"inputs":[],"name":"getAllLoanIds","outputs":[{"internalType":"string[]","name":"","type":"string[]"}],"stateMutability":"view","type":"function"},{"inputs":[],"name":"getAllLoans","outputs":[{"components":[{"internalType":"string","name":"id","type":"string"},{"internalType":"address","name":"grower","type":"address"},{"internalType":"uint256","name":"amount","type":"uint256"},{"internalType":"uint256","name":"duration","type":"uint256"},{"internalType":"bool","name":"isActive","type":"bool"},{"internalType":"string","name":"contactInfo","type":"string"},{"internalType":"uint256","name":"fee","type":"uint256"},{"internalType":"uint256","name":"createdAt","type":"uint256"},{"internalType":"string","name":"growPurpose","type":"string"},{"internalType":"string","name":"status","type":"string"},{"internalType":"uint256","name":"collateralAmount","type":"uint256"},{"internalType":"address","name":"lender","type":"address"},{"internalType":"uint256","name":"repaidAmount","type":"uint256"},{"internalType":"uint256","name":"interestRate","type":"uint256"}],"internalType":"struct GreenFiLoan.CannabisLoan[]","name":"","type":"tuple[]"}],"stateMutability":"view","type":"function"},{"inputs":[{"internalType":"string","name":"_id","type":"string"}],"name":"getLoan","outputs":[{"components":[{"internalType":"string","name":"id","type":"string"},{"internalType":"address","name":"grower","type":"address"},{"internalType":"uint256","name":"amount","type":"uint256"},{"internalType":"uint256","name":"duration","type":"uint256"},{"internalType":"bool","name":"isActive","type":"bool"},{"internalType":"string","name":"contactInfo","type":"string"},{"internalType":"uint256","name":"fee","type":"uint256"},{"internalType":"uint256","name":"createdAt","type":"uint256"},{"internalType":"string","name":"growPurpose","type":"string"},{"internalType":"string","name":"status","type":"string"},{"internalType":"uint256","name":"collateralAmount","type":"uint256"},{"internalType":"address","name":"lender","type":"address"},{"internalType":"uint256","name":"repaidAmount","type":"uint256"},{"internalType":"uint256","name":"interestRate","type":"uint256"}],"internalType":"struct GreenFiLoan.CannabisLoan","name":"","type":"tuple"}],"stateMutability":"view","type":"function"},{"inputs":[{"internalType":"address","name":"_weedlToken","type":"address"}],"name":"initialize","outputs":[],"stateMutability":"nonpayable","type":"function"},{"inputs":[{"internalType":"uint256","name":"","type":"uint256"}],"name":"loanIds","outputs":[{"internalType":"string","name":"","type":"string"}],"stateMutability":"view","type":"function"},{"inputs":[{"internalType":"string","name":"","type":"string"}],"name":"loans","outputs":[{"internalType":"string","name":"id","type":"string"},{"internalType":"address","name":"grower","type":"address"},{"internalType":"uint256","name":"amount","type":"uint256"},{"internalType":"uint256","name":"duration","type":"uint256"},{"internalType":"bool","name":"isActive","type":"bool"},{"internalType":"string","name":"contactInfo","type":"string"},{"internalType":"uint256","name":"fee","type":"uint256"},{"internalType":"uint256","name":"createdAt","type":"uint256"},{"internalType":"string","name":"growPurpose","type":"string"},{"internalType":"string","name":"status","type":"string"},{"internalType":"uint256","name":"collateralAmount","type":"uint256"},{"internalType":"address","name":"lender","type":"address"},{"internalType":"uint256","name":"repaidAmount","type":"uint256"},{"internalType":"uint256","name":"interestRate","type":"uint256"}],"stateMutability":"view","type":"function"},{"inputs":[],"name":"owner","outputs":[{"internalType":"address","name":"","type":"address"}],"stateMutability":"view","type":"function"},{"inputs":[],"name":"pause","outputs":[],"stateMutability":"nonpayable","type":"function"},{"inputs":[],"name":"paused","outputs":[{"internalType":"bool","name":"","type":"bool"}],"stateMutability":"view","type":"function"},{"inputs":[],"name":"proxiableUUID","outputs":[{"internalType":"bytes32","name":"","type":"bytes32"}],"stateMutability":"view","type":"function"},{"inputs":[],"name":"renounceOwnership","outputs":[],"stateMutability":"nonpayable","type":"function"},{"inputs":[{"internalType":"string","name":"_id","type":"string"},{"internalType":"uint256","name":"_paymentAmount","type":"uint256"}],"name":"repayLoan","outputs":[],"stateMutability":"nonpayable","type":"function"},{"inputs":[{"internalType":"address","name":"newOwner","type":"address"}],"name":"transferOwnership","outputs":[],"stateMutability":"nonpayable","type":"function"},{"inputs":[],"name":"unpause","outputs":[],"stateMutability":"nonpayable","type":"function"},{"inputs":[{"internalType":"address","name":"newImplementation","type":"address"},{"internalType":"bytes","name":"data","type":"bytes"}],"name":"upgradeToAndCall","outputs":[],"stateMutability":"payable","type":"function"},{"inputs":[{"internalType":"string","name":"","type":"string"}],"name":"usedLoanIds","outputs":[{"internalType":"bool","name":"","type":"bool"}],"stateMutability":"view","type":"function"},{"inputs":[],"name":"weedlToken","outputs":[{"internalType":"contract IERC20","name":"","type":"address"}],"stateMutability":"view","type":"function"}],"evm":{"bytecode":{"linkReferences":{},"object":"60a080604052346100cd57306080527ff0c57e16840df040f15088dc2f81fe391c3923bec73e23a9662efc9c229c6a009081549060ff8260401c166100be57506001600160401b036002600160401b031982821601610079575b604051612c4f9081620000d38239608051818181611dc00152611e790152f35b6001600160401b031990911681179091556040519081527fc7f505b2f371ae2175ee4913f4499e1f2633a7b5936321eed1cdaeb6115181d290602090a1388080610059565b63f92ee8a960e01b8152600490fd5b600080fdfe608080604052600436101561001357600080fd5b60e060003560e01c9182630d0b2ca6146121155750816334855d14146120f85781633b9c8cfe146120cf5781633f4ba83a146120585781634f1ef28614611e2a57816352d1902d14611dad5781635c1bf86514611cc45781635c975abb14611c94578163715018a614611c2a5781637a9fffb714611c0e5781638456cb5914611ba75781638da5cb5b14611b71578163a525ad3c14611b55578163a5bfd16a1461198957508063ad3cb1cc14611943578063c47d25861461180f578063c4d66de814611645578063c6141f63146114f0578063c70f2e2b14611180578063de68dbd414610e57578063e287183a14610c2c578063eb4dc6fa14610465578063f2fde38b1461043a578063f8715a42146103d5578063f897eeba146101a65763fe6f8b761461014057600080fd5b346101a15760203660031901126101a1576004356001600160401b0381116101a15760ff61018b60206101788194369060040161230d565b81604051938285809451938492016121f2565b8101600281520301902054166040519015158152f35b600080fd5b346101a1576020806003193601126101a1576004356001600160401b0381116101a1576101d790369060040161230d565b906101e0612997565b6101e86129c2565b604051818184516101fc81838589016121f2565b810160018152030190209061021760ff600484015416612572565b600982019261026c6040518381019061024281610234848a6124da565b03601f19810183528261217f565b519020604051848101906327b832b760e11b82526004815261026381612164565b519020146125b3565b6000546040516370a0823160e01b81523360048201526001600160a01b0394909184908390602490829089165afa9182156103c957600092610386575b5091600080516020612b9a8339815191529461035f92610329856102d76002606099980193845411156127d5565b6102ea6102e48b5461232b565b8b612606565b65119d5b99195960d21b99600c8b019055600b8101336001600160601b0360a01b82541617905560018460005416910192848454169054913390612a41565b54163361033583612777565b7f74b5814fe355ba520ea013b8cd67e3a8da7f4db3d413c0bb58f4ad047713a8b9600080a4612777565b936006604051928084528301526040820152a26001600080516020612bfa83398151915255005b915092918282813d83116103c2575b61039f818361217f565b810103126101a15790519192909190600080516020612b9a8339815191526102a9565b503d610395565b6040513d6000823e3d90fd5b346101a15760203660031901126101a1576004356003548110156101a1576103fc9061240a565b6104245761040c61042091612365565b604051918291602083526020830190612215565b0390f35b634e487b7160e01b600052600060045260246000fd5b346101a15760203660031901126101a157610463610456612132565b61045e61295e565b6128ea565b005b346101a1576101003660031901126101a1576001600160401b036004358181116101a15761049790369060040161230d565b60649182358181116101a1576104b190369060040161230d565b9060a4359081116101a1576104ca90369060040161230d565b926104d3612997565b6104db6129c2565b60243515610bea57604435151580610bda575b15610b985782518015159081610b8c575b5015610b51578151818115159182610b46575b505015610b045783518015159081610af7575b5015610ab55760c43515610a5d5760e435151580610a4f575b15610a005760ff604051602081865161055a8183858b016121f2565b8101600281520301902054166109c757602a602435026024358104602a0361098157612710900460843503610997578060243502602435810482036109815781900460c4351061092557506000546040516370a0823160e01b8152336004820152906001600160a01b0316602082602481845afa9182156103c9576000926108ef575b50610605610623926105fe60c4356105f9608435602435612673565b612673565b11156127d5565b61061960c4356105f9608435602435612673565b9030903390612a41565b60405161062f81612148565b82815233602082015260243560408201526044356060820152600160808201528160a082015260843560c08201524260e08201528361010082015260405161067681612164565b600481526327b832b760e11b602082015261012082015260c4356101408201526000610160820152600061018082015260e4356101a0820152600d6101a060405160208187516106c98183858c016121f2565b81016001815203019020926106df815185612821565b6001840160018060a01b036020830151166001600160601b0360a01b82541617905560408101516002850155606081015160038501556080810151151560ff8019600487015416911617600485015561073f60a082015160058601612821565b60c0810151600685015560e0810151600785015561076561010082015160088601612821565b61077761012082015160098601612821565b610140810151600a850155600b840160018060a01b03610160830151166001600160601b0360a01b825416179055610180810151600c850155015191015560405160208184516107ca81838589016121f2565b81016002815203019020600160ff19825416179055600354680100000000000000008110156108d957806001610803920160035561240a565b939093610424576108178361089895612821565b61085f61082384612777565b91610849604051946024358652604435602087015260c0604087015260c0860190612215565b9060843560608601528482036080860152612215565b9060c43560a08401527f6a1780c00aed9fcdc5825db976efd498f34f26d67d2815f81f84c0db1a43e81e60e435938033940390a4612777565b600080516020612b9a833981519152606060405160208152600460208201526327b832b760e11b6040820152a26001600080516020612bfa83398151915255005b634e487b7160e01b600052604160045260246000fd5b91506020823d60201161091d575b8161090a6020938361217f565b810103126101a1579051906106056105dd565b3d91506108fd565b6084906e081bd9881b1bd85b88185b5bdd5b9d608a1b6040519162461bcd60e51b835260206004840152602f60248401527f436f6c6c61746572616c206d757374206265206174206c6561737420313030256044840152820152fd5b634e487b7160e01b600052601160045260246000fd5b60405162461bcd60e51b815260206004820152600b60248201526a496e76616c69642066656560a81b6044820152fd5b60405162461bcd60e51b8152602060048201526014602482015273131bd85b88125108185b1c9958591e481d5cd95960621b6044820152fd5b60849061282960f11b6040519162461bcd60e51b835260206004840152602260248401527f496e7465726573742072617465206d757374206265203020746f2035302520416044840152820152fd5b5061138860e435111561053e565b6084906a72207468616e207a65726f60a81b6040519162461bcd60e51b835260206004840152602b60248401527f436f6c6c61746572616c20616d6f756e74206d757374206265206772656174656044840152820152fd5b60405162461bcd60e51b815260206004820152601b60248201527f496e76616c69642067726f7720707572706f7365206c656e67746800000000006044820152fd5b6101009150111585610525565b60405162461bcd60e51b815260206004820152601b60248201527f496e76616c696420636f6e7461637420696e666f206c656e67746800000000006044820152fd5b111590508186610512565b60405162461bcd60e51b8152602060048201526016602482015275092dcecc2d8d2c840d8dec2dc40928840d8cadccee8d60531b6044820152fd5b602091501115856104ff565b60405162461bcd60e51b815260206004820152601e60248201527f4475726174696f6e206d757374206265203120746f20333635206461797300006044820152fd5b506301e1338060443511156104ee565b60405162461bcd60e51b815260206004820181905260248201527f416d6f756e74206d7573742062652067726561746572207468616e207a65726f6044820152fd5b346101a1576020806003193601126101a1576004356001600160401b0381116101a157610c5d90369060040161230d565b90610c66612997565b610c6e6129c2565b60405181818451610c8281838589016121f2565b81016001815203019020916004830192610c9f60ff855416612572565b600b8101546001600160a01b039081163303610e14576009820194610cfe60405186810190610cd281610234848c6124da565b5190206040518781019065119d5b99195960d21b825260068152610cf581612164565b51902014612797565b610d116007840154600385015490612673565b421115610dcf5792610d74600080516020612b9a8339815191529593600a610da894606097610d49610d438c5461232b565b8c612606565b68111959985d5b1d195960ba1b9a60128c01905560ff198154169055600054169101549033906129f2565b33610d7e82612777565b7f9d99ebbd63ad66bd41d937add2c439545d27de0cfce044c210a62e86d9ab200f600080a3612777565b936009604051928084528301526040820152a26001600080516020612bfa83398151915255005b60405162461bcd60e51b815260048101869052601960248201527f4c6f616e206475726174696f6e206e6f742065787069726564000000000000006044820152606490fd5b6064846040519062461bcd60e51b825280600483015260248201527f4f6e6c79206c656e6465722063616e20636c61696d20636f6c6c61746572616c6044820152fd5b346101a15760403660031901126101a1576004356001600160401b0381116101a157610e8790369060040161230d565b60243590610e93612997565b610e9b6129c2565b6040519081815160209381610eb48693838588016121f2565b810160018152030190209260048401610ed060ff825416612572565b6001850180546001600160a01b03969087163303611143576009810192610f2860405188810190610f0581610234848a6124da565b5190206040518981019065119d5b99195960d21b825260068152610cf581612164565b84156110ed576002820193845495610f6364496cebb800610f5b610f50600d8801548b612764565b600388015490612764565b048098612673565b81106110a85789600054166040516370a0823160e01b81523360048201528a81602481855afa9081156103c95760009161105f575b50600c9b61035f989561101e9585610fdf600080516020612b9a8339815191529f9d9a969760609f9c98610fd082600a9910156127d5565b86600b8a015416903390612a41565b8f860155610ff6610ff0825461232b565b82612606565b6514995c185a5960d21b9e8f01905560ff1981541690558060005416935416910154916129f2565b549061102983612777565b90604051928352858301527f3b62cc4e086a894a6c745362b81db744e8dd91af3eddccb44143e1f47ec952d060403393a3612777565b90508a81819a9793959b989499969c3d83116110a1575b611080818361217f565b810103126101a157519799959894979396919590949093909290600c610f98565b503d611076565b60405162461bcd60e51b8152600481018a9052601b60248201527f496e73756666696369656e74207061796d656e7420616d6f756e7400000000006044820152606490fd5b60405162461bcd60e51b815260048101889052602860248201527f5061796d656e7420616d6f756e74206d7573742062652067726561746572207460448201526768616e207a65726f60c01b6064820152608490fd5b60405162461bcd60e51b81526004810187905260156024820152744f6e6c792067726f7765722063616e20726570617960581b6044820152606490fd5b346101a1576020806003193601126101a1576004356001600160401b0381116101a1576111b190369060040161230d565b6111b9612997565b6111c16129c2565b60405191815191818101926111d78186866121f2565b84019382816001968781520301902092600484016111f860ff825416612572565b848601546001600160a01b039190821633036114b257908692916112bd60098801976112b5604051946112688b876112338d820180936124da565b0397611247601f19998a810183528261217f565b5190206040518c8101906327b832b760e11b82526004815261026381612164565b611275610d438c5461232b565b6710d85b98d95b195960c21b9a60108c01905560ff19948581541690556000541691600a6112ac6002830154600684015490612673565b91015490612673565b9033906129f2565b604051868187516112cf8183896121f2565b81016002815203019020908154169055826000905b61135a575b8387600080516020612b9a8339815191526060896113358a3361130b82612777565b7f64167c9f5767a6fa8b7008f5263e7f45d013dd7dd2213f2d254bec2da2bae1a7600080a3612777565b936008604051928084528301526040820152a2600080516020612bfa83398151915255005b60038054808310156114ab5761136f8361240a565b50604051611390816113848c820180956124da565b0387810183528261217f565b519020856040516113bc8b828c6113af838301968792519283916121f2565b810103808452018261217f565b519020146113ce5750508301836112e4565b935094959350905060001991828101908111610981576113f06113f79161240a565b509161240a565b9190916104245761140791612680565b8254801561149557019261141a8461240a565b91909161042457600080516020612b9a8339815191529460609483611442611335955461232b565b9081611455575b505055928692946112e9565b6000918b601f80831160011461147157505050555b8980611449565b839161148e9186949585528b8520950160051c85019085016125ef565b555561146a565b634e487b7160e01b600052603160045260246000fd5b50506112e9565b60405162461bcd60e51b815260048101869052601660248201527513db9b1e4819dc9bddd95c8818d85b8818d85b98d95b60521b6044820152606490fd5b346101a15760203660031901126101a1576004356001600160401b0381116101a15761152090369060040161230d565b6040518181809351602081930191611537926121f2565b81016001815203602001902061154c81612365565b600160a01b6001900380600184015416600284015493600381015491600482015460ff16906005830161157e90612365565b6006840154600785015461159460088701612365565b926115a160098801612365565b94600a88015499600b8901541696600c89015498600d0154996040519d8e809e6101c080835282016115d291612215565b9460208201526040015260608d0152151560808c01528a810360a08c01526115f991612215565b9160c08a015260e089015287810361010089015261161691612215565b86810361012088015261162891612215565b936101408601526101608501526101808401526101a08301520390f35b346101a15760203660031901126101a15761165e612132565b7ff0c57e16840df040f15088dc2f81fe391c3923bec73e23a9662efc9c229c6a009081549060ff8260401c1615916001600160401b03811680159081611807575b60011490816117fd575b1590816117f4575b506117e25767ffffffffffffffff1981166001178455826117c3575b506116d6612a99565b6116de612a99565b6116e7336128ea565b6116ef612a99565b6116f7612a99565b6116ff612a99565b611707612a99565b6001600080516020612bfa833981519152556001600160a01b0316801561177e576001600160601b0360a01b600054161760005561174157005b68ff00000000000000001981541690557fc7f505b2f371ae2175ee4913f4499e1f2633a7b5936321eed1cdaeb6115181d2602060405160018152a1005b60405162461bcd60e51b815260206004820152601b60248201527f496e76616c696420574545444c20746f6b656e206164647265737300000000006044820152606490fd5b68ffffffffffffffffff191668010000000000000001178355836116cd565b60405163f92ee8a960e01b8152600490fd5b905015856116b1565b303b1591506116a9565b84915061169f565b346101a1576020806003193601126101a1576004356001600160401b0381116101a1578161184461186092369060040161230d565b61184c61246e565b5081604051938285809451938492016121f2565b8101600181520301902090600d6040519261187a84612148565b61188381612365565b845260018101546001600160a01b03908116848601526002820154604086015260038201546060860152600482015460ff16151560808601526118c860058301612365565b60a0860152600682015460c0860152600782015460e08601526118ed60088301612365565b6101008601526118ff60098301612365565b610120860152600a820154610140860152600b82015416610160850152600c81015461018085015201546101a083015261042060405192828493845283019061223a565b346101a15760003660031901126101a15761042060405161196381612164565b60058152640352e302e360dc1b6020820152604051918291602083526020830190612215565b346101a15760003660031901126101a157600380546119a781612457565b916119b5604051938461217f565b8183526119c182612457565b60209490601f19018560005b828110611b3f5750505060005b838110611a3f57604080518781528651818901819052600092600582901b8301810191898b01918b9085015b828710611a135785850386f35b909192938280611a2f600193603f198a8203018652885161223a565b9601920196019592919092611a06565b80611a4b60019261240a565b50600d611a5b60405180936124da565b91898186948581520301902060405192611a7484612148565b611a7d82612365565b8452858060a01b038091830154168b8501526002820154604085015287820154606085015260ff60048301541615156080850152611abd60058301612365565b60a0850152600682015460c0850152600782015487850152611ae160088301612365565b610100850152611af360098301612365565b610120850152600a820154610140850152600b82015416610160840152600c81015461018084015201546101a0820152611b2d828861255e565b52611b38818761255e565b50016119da565b611b4761246e565b8282890101520186906119cd565b346101a15760003660031901126101a1576020604051602a8152f35b346101a15760003660031901126101a157600080516020612bba833981519152546040516001600160a01b039091168152602090f35b346101a15760003660031901126101a157611bc061295e565b611bc8612997565b600080516020612bda833981519152600160ff198254161790557f62e78cea01bee320cd4e420270b5ea74000d11b0c9f74754ebdbfc544b05a2586020604051338152a1005b346101a15760003660031901126101a157602060405160648152f35b346101a15760003660031901126101a157611c4361295e565b600080516020612bba83398151915280546001600160a01b031981169091556000906001600160a01b03167f8be0079c531659141344cd1fd0a4f28419497f9722a3daafe3b4186f6b6457e08280a3005b346101a15760003660031901126101a157602060ff600080516020612bda83398151915254166040519015158152f35b346101a15760003660031901126101a157600354611ce181612457565b90611cef604051928361217f565b808252602090818301908160036000527fc2575a0e9e593c00f959f8c92f12db2869c3395a3b0502d05e2516446f71f85b6000915b838310611d8b5750505050604051918083019381845251809452604083019360408160051b85010192916000955b828710611d5f5785850386f35b909192938280611d7b600193603f198a82030186528851612215565b9601920196019592919092611d52565b6001868192611d9c859a999a612365565b815201920192019190959495611d24565b346101a15760003660031901126101a1577f00000000000000000000000000000000000000000000000000000000000000006001600160a01b03163003611e185760206040517f360894a13ba1a3210667c828492db98dca3e2076cc3735a920a3ca505d382bbc8152f35b60405163703e46dd60e11b8152600490fd5b60403660031901126101a157611e3e612132565b6024356001600160401b0381116101a157366023820112156101a157611e6e9036906024816004013591016121bb565b906001600160a01b037f0000000000000000000000000000000000000000000000000000000000000000811630811490811561202a575b50611e1857611eb261295e565b6040516352d1902d60e01b8152908216916020918281600481875afa60009181611ffb575b50611ef557604051634c9c8ce360e01b815260048101859052602490fd5b9284937f360894a13ba1a3210667c828492db98dca3e2076cc3735a920a3ca505d382bbc90818103611fe35750823b15611fca5780546001600160a01b03191682179055604051907fbc7cd75a20ee27fd9adebab32041f755214dbc6bffa90cc0225b39da2e5c2d3b600080a2835115611fb05750600080848461046396519101845af4903d15611fa7573d611f8a816121a0565b90611f98604051928361217f565b8152600081943d92013e612b36565b60609250612b36565b9250505034611fbb57005b63b398979f60e01b8152600490fd5b604051634c9c8ce360e01b815260048101839052602490fd5b60249060405190632a87526960e21b82526004820152fd5b9091508381813d8311612023575b612013818361217f565b810103126101a157519086611ed7565b503d612009565b9050817f360894a13ba1a3210667c828492db98dca3e2076cc3735a920a3ca505d382bbc5416141584611ea5565b346101a15760003660031901126101a15761207161295e565b600080516020612bda833981519152805460ff8116156120bd5760ff191690557f5db9ee0a495bf2e6ff9c91a7834c1ba4fdd244a5e8aa4e537bd38aeae4b073aa6020604051338152a1005b604051638dfc202b60e01b8152600490fd5b346101a15760003660031901126101a1576000546040516001600160a01b039091168152602090f35b346101a15760003660031901126101a15760206040516113888152f35b346101a15760003660031901126101a157806301e1338060209252f35b600435906001600160a01b03821682036101a157565b6101c081019081106001600160401b038211176108d957604052565b604081019081106001600160401b038211176108d957604052565b90601f801991011681019081106001600160401b038211176108d957604052565b6001600160401b0381116108d957601f01601f191660200190565b9291926121c7826121a0565b916121d5604051938461217f565b8294818452818301116101a1578281602093846000960137010152565b60005b8381106122055750506000910152565b81810151838201526020016121f5565b9060209161222e815180928185528580860191016121f2565b601f01601f1916010190565b9061224f6101c0835190808452830190612215565b916122dc6122c86122a060208401519560018060a01b038097166020870152604085015160408701526060850151606087015260808501511515608087015260a085015186820360a0880152612215565b60c084015160c086015260e084015160e0860152610100808501519086830390870152612215565b610120808401519085830390860152612215565b9261014080830151908401526101609081830151169083015261018080820151908301526101a08091015191015290565b9080601f830112156101a157816020612328933591016121bb565b90565b90600182811c9216801561235b575b602083101461234557565b634e487b7160e01b600052602260045260246000fd5b91607f169161233a565b906040519182600082546123788161232b565b908184526020946001916001811690816000146123e857506001146123a9575b5050506123a79250038361217f565b565b600090815285812095935091905b8183106123d05750506123a79350820101388080612398565b855488840185015294850194879450918301916123b7565b925050506123a794925060ff191682840152151560051b820101388080612398565b6003548110156124415760036000527fc2575a0e9e593c00f959f8c92f12db2869c3395a3b0502d05e2516446f71f85b0190600090565b634e487b7160e01b600052603260045260246000fd5b6001600160401b0381116108d95760051b60200190565b6040519061247b82612148565b81606081526101a0600091826020820152826040820152826060820152826080820152606060a08201528260c08201528260e0820152606061010082015260606101208201528261014082015282610160820152826101808201520152565b6000929181546124e98161232b565b926001918083169081156125435750600114612506575b50505050565b9091929394506000526020906020600020906000915b8583106125325750505050019038808080612500565b80548584015291830191810161251c565b60ff1916845250505081151590910201915038808080612500565b80518210156124415760209160051b010190565b1561257957565b60405162461bcd60e51b81526020600482015260126024820152714c6f616e206973206e6f742061637469766560701b6044820152606490fd5b156125ba57565b60405162461bcd60e51b815260206004820152600d60248201526c2637b0b7103737ba1037b832b760991b6044820152606490fd5b8181106125fa575050565b600081556001016125ef565b90601f8111612613575050565b6123a791600052601f6020600020910160051c8101906125ef565b9190601f811161263d57505050565b6123a7926000526020600020906020601f840160051c83019310612669575b601f0160051c01906125ef565b909150819061265c565b9190820180921161098157565b9080821461276057612692815461232b565b906001600160401b0382116108d9576126b5826126af855461232b565b8561262e565b600090601f83116001146126f5576126e69291600091836126ea575b50508160011b916000199060031b1c19161790565b9055565b0154905038806126d1565b815260208082208483528183209291601f1985169083905b82821061274757505090846001959493921061272e575b505050811b019055565b015460001960f88460031b161c19169055388080612724565b849581929585015481556001809101960194019061270d565b5050565b8181029291811591840414171561098157565b61278f906020604051928284809451938492016121f2565b810103902090565b1561279e57565b60405162461bcd60e51b815260206004820152600f60248201526e131bd85b881b9bdd08199d5b991959608a1b6044820152606490fd5b156127dc57565b60405162461bcd60e51b815260206004820152601a60248201527f496e73756666696369656e7420574545444c2062616c616e63650000000000006044820152606490fd5b91909182516001600160401b0381116108d95761284881612842845461232b565b8461262e565b602080601f8311600114612886575081906126e693949560009261287b5750508160011b916000199060031b1c19161790565b0151905038806126d1565b90601f19831695846000526020600020926000905b8882106128d2575050836001959697106128b957505050811b019055565b015160001960f88460031b161c19169055388080612724565b8060018596829496860151815501950193019061289b565b6001600160a01b0390811690811561294557600080516020612bba83398151915280546001600160a01b031981168417909155167f8be0079c531659141344cd1fd0a4f28419497f9722a3daafe3b4186f6b6457e0600080a3565b604051631e4fbdf760e01b815260006004820152602490fd5b600080516020612bba833981519152546001600160a01b0316330361297f57565b60405163118cdaa760e01b8152336004820152602490fd5b60ff600080516020612bda83398151915254166129b057565b60405163d93c066560e01b8152600490fd5b600080516020612bfa83398151915260028154146129e05760029055565b604051633ee5aeb560e01b8152600490fd5b60405163a9059cbb60e01b60208201526001600160a01b03909216602483015260448083019390935291815260808101916001600160401b038311828410176108d9576123a792604052612ada565b6040516323b872dd60e01b60208201526001600160a01b03928316602482015292909116604483015260648083019390935291815260a08101918183106001600160401b038411176108d9576123a792604052612ada565b60ff7ff0c57e16840df040f15088dc2f81fe391c3923bec73e23a9662efc9c229c6a005460401c1615612ac857565b604051631afcd79f60e31b8152600490fd5b906000602091828151910182855af1156103c9576000513d612b2d57506001600160a01b0381163b155b612b0b5750565b604051635274afe760e01b81526001600160a01b039091166004820152602490fd5b60011415612b04565b90612b5d5750805115612b4b57805190602001fd5b60405163d6bda27560e01b8152600490fd5b81511580612b90575b612b6e575090565b604051639996b31560e01b81526001600160a01b039091166004820152602490fd5b50803b15612b6656fe8a7be6b6d998757cde134d68c5bc04568dbfd09aeda7c427b92e336502173fa49016d09d72d40fdae2fd8ceac6b6234c7706214fd39c1cd1e609a0528c199300cd5ed15c6e187e77e9aee88184c21f4f2182ab5827cb3b7e07fbedcd63f033009b779b17422d0df92223018b32b4d1fa46e071723d6817e2486d003becc55f00a2646970667358221220b76566590c935be2601d928dd4310a0717fff479b2b6563e8a5e6610449717cf64736f6c63430008160033","opcodes":"PUSH1 0xA0 DUP1 PUSH1 0x40 MSTORE CALLVALUE PUSH2 0xCD JUMPI ADDRESS PUSH1 0x80 MSTORE PUSH32 0xF0C57E16840DF040F15088DC2F81FE391C3923BEC73E23A9662EFC9C229C6A00 SWAP1 DUP2 SLOAD SWAP1 PUSH1 0xFF DUP3 PUSH1 0x40 SHR AND PUSH2 0xBE JUMPI POP PUSH1 0x1 PUSH1 0x1 PUSH1 0x40 SHL SUB PUSH1 0x2 PUSH1 0x1 PUSH1 0x40 SHL SUB NOT DUP3 DUP3 AND ADD PUSH2 0x79 JUMPI JUMPDEST PUSH1 0x40 MLOAD PUSH2 0x2C4F SWAP1 DUP2 PUSH3 0xD3 DUP3 CODECOPY PUSH1 0x80 MLOAD DUP2 DUP2 DUP2 PUSH2 0x1DC0 ADD MSTORE PUSH2 0x1E79 ADD MSTORE RETURN JUMPDEST PUSH1 0x1 PUSH1 0x1 PUSH1 0x40 SHL SUB NOT SWAP1 SWAP2 AND DUP2 OR SWAP1 SWAP2 SSTORE PUSH1 0x40 MLOAD SWAP1 DUP2 MSTORE PUSH32 0xC7F505B2F371AE2175EE4913F4499E1F2633A7B5936321EED1CDAEB6115181D2 SWAP1 PUSH1 0x20 SWAP1 LOG1 CODESIZE DUP1 DUP1 PUSH2 0x59 JUMP JUMPDEST PUSH4 0xF92EE8A9 PUSH1 0xE0 SHL DUP2 MSTORE PUSH1 0x4 SWAP1 REVERT JUMPDEST PUSH1 0x0 DUP1 REVERT INVALID PUSH1 0x80 DUP1 PUSH1 0x40 MSTORE PUSH1 0x4 CALLDATASIZE LT ISZERO PUSH2 0x13 JUMPI PUSH1 0x0 DUP1 REVERT JUMPDEST PUSH1 0xE0 PUSH1 0x0 CALLDATALOAD PUSH1 0xE0 SHR SWAP2 DUP3 PUSH4 0xD0B2CA6 EQ PUSH2 0x2115 JUMPI POP DUP2 PUSH4 0x34855D14 EQ PUSH2 0x20F8 JUMPI DUP2 PUSH4 0x3B9C8CFE EQ PUSH2 0x20CF JUMPI DUP2 PUSH4 0x3F4BA83A EQ PUSH2 0x2058 JUMPI DUP2 PUSH4 0x4F1EF286 EQ PUSH2 0x1E2A JUMPI DUP2 PUSH4 0x52D1902D EQ PUSH2 0x1DAD JUMPI DUP2 PUSH4 0x5C1BF865 EQ PUSH2 0x1CC4 JUMPI DUP2 PUSH4 0x5C975ABB EQ PUSH2 0x1C94 JUMPI DUP2 PUSH4 0x715018A6 EQ PUSH2 0x1C2A JUMPI DUP2 PUSH4 0x7A9FFFB7 EQ PUSH2 0x1C0E JUMPI DUP2 PUSH4 0x8456CB59 EQ PUSH2 0x1BA7 JUMPI DUP2 PUSH4 0x8DA5CB5B EQ PUSH2 0x1B71 JUMPI DUP2 PUSH4 0xA525AD3C EQ PUSH2 0x1B55 JUMPI DUP2 PUSH4 0xA5BFD16A EQ PUSH2 0x1989 JUMPI POP DUP1 PUSH4 0xAD3CB1CC EQ PUSH2 0x1943 JUMPI DUP1 PUSH4 0xC47D2586 EQ PUSH2 0x180F JUMPI DUP1 PUSH4 0xC4D66DE8 EQ PUSH2 0x1645 JUMPI DUP1 PUSH4 0xC6141F63 EQ PUSH2 0x14F0 JUMPI DUP1 PUSH4 0xC70F2E2B EQ PUSH2 0x1180 JUMPI DUP1 PUSH4 0xDE68DBD4 EQ PUSH2 0xE57 JUMPI DUP1 PUSH4 0xE287183A EQ PUSH2 0xC2C JUMPI DUP1 PUSH4 0xEB4DC6FA EQ PUSH2 0x465 JUMPI DUP1 PUSH4 0xF2FDE38B EQ PUSH2 0x43A JUMPI DUP1 PUSH4 0xF8715A42 EQ PUSH2 0x3D5 JUMPI DUP1 PUSH4 0xF897EEBA EQ PUSH2 0x1A6 JUMPI PUSH4 0xFE6F8B76 EQ PUSH2 0x140 JUMPI PUSH1 0x0 DUP1 REVERT JUMPDEST CALLVALUE PUSH2 0x1A1 JUMPI PUSH1 0x20 CALLDATASIZE PUSH1 0x3 NOT ADD SLT PUSH2 0x1A1 JUMPI PUSH1 0x4 CALLDATALOAD PUSH1 0x1 PUSH1 0x1 PUSH1 0x40 SHL SUB DUP2 GT PUSH2 0x1A1 JUMPI PUSH1 0xFF PUSH2 0x18B PUSH1 0x20 PUSH2 0x178 DUP2 SWAP5 CALLDATASIZE SWAP1 PUSH1 0x4 ADD PUSH2 0x230D JUMP JUMPDEST DUP2 PUSH1 0x40 MLOAD SWAP4 DUP3 DUP6 DUP1 SWAP5 MLOAD SWAP4 DUP5 SWAP3 ADD PUSH2 0x21F2 JUMP JUMPDEST DUP2 ADD PUSH1 0x2 DUP2 MSTORE SUB ADD SWAP1 KECCAK256 SLOAD AND PUSH1 0x40 MLOAD SWAP1 ISZERO ISZERO DUP2 MSTORE RETURN JUMPDEST PUSH1 0x0 DUP1 REVERT JUMPDEST CALLVALUE PUSH2 0x1A1 JUMPI PUSH1 0x20 DUP1 PUSH1 0x3 NOT CALLDATASIZE ADD SLT PUSH2 0x1A1 JUMPI PUSH1 0x4 CALLDATALOAD PUSH1 0x1 PUSH1 0x1 PUSH1 0x40 SHL SUB DUP2 GT PUSH2 0x1A1 JUMPI PUSH2 0x1D7 SWAP1 CALLDATASIZE SWAP1 PUSH1 0x4 ADD PUSH2 0x230D JUMP JUMPDEST SWAP1 PUSH2 0x1E0 PUSH2 0x2997 JUMP JUMPDEST PUSH2 0x1E8 PUSH2 0x29C2 JUMP JUMPDEST PUSH1 0x40 MLOAD DUP2 DUP2 DUP5 MLOAD PUSH2 0x1FC DUP2 DUP4 DUP6 DUP10 ADD PUSH2 0x21F2 JUMP JUMPDEST DUP2 ADD PUSH1 0x1 DUP2 MSTORE SUB ADD SWAP1 KECCAK256 SWAP1 PUSH2 0x217 PUSH1 0xFF PUSH1 0x4 DUP5 ADD SLOAD AND PUSH2 0x2572 JUMP JUMPDEST PUSH1 0x9 DUP3 ADD SWAP3 PUSH2 0x26C PUSH1 0x40 MLOAD DUP4 DUP2 ADD SWAP1 PUSH2 0x242 DUP2 PUSH2 0x234 DUP5 DUP11 PUSH2 0x24DA JUMP JUMPDEST SUB PUSH1 0x1F NOT DUP2 ADD DUP4 MSTORE DUP3 PUSH2 0x217F JUMP JUMPDEST MLOAD SWAP1 KECCAK256 PUSH1 0x40 MLOAD DUP5 DUP2 ADD SWAP1 PUSH4 0x27B832B7 PUSH1 0xE1 SHL DUP3 MSTORE PUSH1 0x4 DUP2 MSTORE PUSH2 0x263 DUP2 PUSH2 0x2164 JUMP JUMPDEST MLOAD SWAP1 KECCAK256 EQ PUSH2 0x25B3 JUMP JUMPDEST PUSH1 0x0 SLOAD PUSH1 0x40 MLOAD PUSH4 0x70A08231 PUSH1 0xE0 SHL DUP2 MSTORE CALLER PUSH1 0x4 DUP3 ADD MSTORE PUSH1 0x1 PUSH1 0x1 PUSH1 0xA0 SHL SUB SWAP5 SWAP1 SWAP2 DUP5 SWAP1 DUP4 SWAP1 PUSH1 0x24 SWAP1 DUP3 SWAP1 DUP10 AND GAS STATICCALL SWAP2 DUP3 ISZERO PUSH2 0x3C9 JUMPI PUSH1 0x0 SWAP3 PUSH2 0x386 JUMPI JUMPDEST POP SWAP2 PUSH1 0x0 DUP1 MLOAD PUSH1 0x20 PUSH2 0x2B9A DUP4 CODECOPY DUP2 MLOAD SWAP2 MSTORE SWAP5 PUSH2 0x35F SWAP3 PUSH2 0x329 DUP6 PUSH2 0x2D7 PUSH1 0x2 PUSH1 0x60 SWAP10 SWAP9 ADD SWAP4 DUP5 SLOAD GT ISZERO PUSH2 0x27D5 JUMP JUMPDEST PUSH2 0x2EA PUSH2 0x2E4 DUP12 SLOAD PUSH2 0x232B JUMP JUMPDEST DUP12 PUSH2 0x2606 JUMP JUMPDEST PUSH6 0x119D5B991959 PUSH1 0xD2 SHL SWAP10 PUSH1 0xC DUP12 ADD SWAP1 SSTORE PUSH1 0xB DUP2 ADD CALLER PUSH1 0x1 PUSH1 0x1 PUSH1 0x60 SHL SUB PUSH1 0xA0 SHL DUP3 SLOAD AND OR SWAP1 SSTORE PUSH1 0x1 DUP5 PUSH1 0x0 SLOAD AND SWAP2 ADD SWAP3 DUP5 DUP5 SLOAD AND SWAP1 SLOAD SWAP2 CALLER SWAP1 PUSH2 0x2A41 JUMP JUMPDEST SLOAD AND CALLER PUSH2 0x335 DUP4 PUSH2 0x2777 JUMP JUMPDEST PUSH32 0x74B5814FE355BA520EA013B8CD67E3A8DA7F4DB3D413C0BB58F4AD047713A8B9 PUSH1 0x0 DUP1 LOG4 PUSH2 0x2777 JUMP JUMPDEST SWAP4 PUSH1 0x6 PUSH1 0x40 MLOAD SWAP3 DUP1 DUP5 MSTORE DUP4 ADD MSTORE PUSH1 0x40 DUP3 ADD MSTORE LOG2 PUSH1 0x1 PUSH1 0x0 DUP1 MLOAD PUSH1 0x20 PUSH2 0x2BFA DUP4 CODECOPY DUP2 MLOAD SWAP2 MSTORE SSTORE STOP JUMPDEST SWAP2 POP SWAP3 SWAP2 DUP3 DUP3 DUP2 RETURNDATASIZE DUP4 GT PUSH2 0x3C2 JUMPI JUMPDEST PUSH2 0x39F DUP2 DUP4 PUSH2 0x217F JUMP JUMPDEST DUP2 ADD SUB SLT PUSH2 0x1A1 JUMPI SWAP1 MLOAD SWAP2 SWAP3 SWAP1 SWAP2 SWAP1 PUSH1 0x0 DUP1 MLOAD PUSH1 0x20 PUSH2 0x2B9A DUP4 CODECOPY DUP2 MLOAD SWAP2 MSTORE PUSH2 0x2A9 JUMP JUMPDEST POP RETURNDATASIZE PUSH2 0x395 JUMP JUMPDEST PUSH1 0x40 MLOAD RETURNDATASIZE PUSH1 0x0 DUP3 RETURNDATACOPY RETURNDATASIZE SWAP1 REVERT JUMPDEST CALLVALUE PUSH2 0x1A1 JUMPI PUSH1 0x20 CALLDATASIZE PUSH1 0x3 NOT ADD SLT PUSH2 0x1A1 JUMPI PUSH1 0x4 CALLDATALOAD PUSH1 0x3 SLOAD DUP2 LT ISZERO PUSH2 0x1A1 JUMPI PUSH2 0x3FC SWAP1 PUSH2 0x240A JUMP JUMPDEST PUSH2 0x424 JUMPI PUSH2 0x40C PUSH2 0x420 SWAP2 PUSH2 0x2365 JUMP JUMPDEST PUSH1 0x40 MLOAD SWAP2 DUP3 SWAP2 PUSH1 0x20 DUP4 MSTORE PUSH1 0x20 DUP4 ADD SWAP1 PUSH2 0x2215 JUMP JUMPDEST SUB SWAP1 RETURN JUMPDEST PUSH4 0x4E487B71 PUSH1 0xE0 SHL PUSH1 0x0 MSTORE PUSH1 0x0 PUSH1 0x4 MSTORE PUSH1 0x24 PUSH1 0x0 REVERT JUMPDEST CALLVALUE PUSH2 0x1A1 JUMPI PUSH1 0x20 CALLDATASIZE PUSH1 0x3 NOT ADD SLT PUSH2 0x1A1 JUMPI PUSH2 0x463 PUSH2 0x456 PUSH2 0x2132 JUMP JUMPDEST PUSH2 0x45E PUSH2 0x295E JUMP JUMPDEST PUSH2 0x28EA JUMP JUMPDEST STOP JUMPDEST CALLVALUE PUSH2 0x1A1 JUMPI PUSH2 0x100 CALLDATASIZE PUSH1 0x3 NOT ADD SLT PUSH2 0x1A1 JUMPI PUSH1 0x1 PUSH1 0x1 PUSH1 0x40 SHL SUB PUSH1 0x4 CALLDATALOAD DUP2 DUP2 GT PUSH2 0x1A1 JUMPI PUSH2 0x497 SWAP1 CALLDATASIZE SWAP1 PUSH1 0x4 ADD PUSH2 0x230D JUMP JUMPDEST PUSH1 0x64 SWAP2 DUP3 CALLDATALOAD DUP2 DUP2 GT PUSH2 0x1A1 JUMPI PUSH2 0x4B1 SWAP1 CALLDATASIZE SWAP1 PUSH1 0x4 ADD PUSH2 0x230D JUMP JUMPDEST SWAP1 PUSH1 0xA4 CALLDATALOAD SWAP1 DUP2 GT PUSH2 0x1A1 JUMPI PUSH2 0x4CA SWAP1 CALLDATASIZE SWAP1 PUSH1 0x4 ADD PUSH2 0x230D JUMP JUMPDEST SWAP3 PUSH2 0x4D3 PUSH2 0x2997 JUMP JUMPDEST PUSH2 0x4DB PUSH2 0x29C2 JUMP JUMPDEST PUSH1 0x24 CALLDATALOAD ISZERO PUSH2 0xBEA JUMPI PUSH1 0x44 CALLDATALOAD ISZERO ISZERO DUP1 PUSH2 0xBDA JUMPI JUMPDEST ISZERO PUSH2 0xB98 JUMPI DUP3 MLOAD DUP1 ISZERO ISZERO SWAP1 DUP2 PUSH2 0xB8C JUMPI JUMPDEST POP ISZERO PUSH2 0xB51 JUMPI DUP2 MLOAD DUP2 DUP2 ISZERO ISZERO SWAP2 DUP3 PUSH2 0xB46 JUMPI JUMPDEST POP POP ISZERO PUSH2 0xB04 JUMPI DUP4 MLOAD DUP1 ISZERO ISZERO SWAP1 DUP2 PUSH2 0xAF7 JUMPI JUMPDEST POP ISZERO PUSH2 0xAB5 JUMPI PUSH1 0xC4 CALLDATALOAD ISZERO PUSH2 0xA5D JUMPI PUSH1 0xE4 CALLDATALOAD ISZERO ISZERO DUP1 PUSH2 0xA4F JUMPI JUMPDEST ISZERO PUSH2 0xA00 JUMPI PUSH1 0xFF PUSH1 0x40 MLOAD PUSH1 0x20 DUP2 DUP7 MLOAD PUSH2 0x55A DUP2 DUP4 DUP6 DUP12 ADD PUSH2 0x21F2 JUMP JUMPDEST DUP2 ADD PUSH1 0x2 DUP2 MSTORE SUB ADD SWAP1 KECCAK256 SLOAD AND PUSH2 0x9C7 JUMPI PUSH1 0x2A PUSH1 0x24 CALLDATALOAD MUL PUSH1 0x24 CALLDATALOAD DUP2 DIV PUSH1 0x2A SUB PUSH2 0x981 JUMPI PUSH2 0x2710 SWAP1 DIV PUSH1 0x84 CALLDATALOAD SUB PUSH2 0x997 JUMPI DUP1 PUSH1 0x24 CALLDATALOAD MUL PUSH1 0x24 CALLDATALOAD DUP2 DIV DUP3 SUB PUSH2 0x981 JUMPI DUP2 SWAP1 DIV PUSH1 0xC4 CALLDATALOAD LT PUSH2 0x925 JUMPI POP PUSH1 0x0 SLOAD PUSH1 0x40 MLOAD PUSH4 0x70A08231 PUSH1 0xE0 SHL DUP2 MSTORE CALLER PUSH1 0x4 DUP3 ADD MSTORE SWAP1 PUSH1 0x1 PUSH1 0x1 PUSH1 0xA0 SHL SUB AND PUSH1 0x20 DUP3 PUSH1 0x24 DUP2 DUP5 GAS STATICCALL SWAP2 DUP3 ISZERO PUSH2 0x3C9 JUMPI PUSH1 0x0 SWAP3 PUSH2 0x8EF JUMPI JUMPDEST POP PUSH2 0x605 PUSH2 0x623 SWAP3 PUSH2 0x5FE PUSH1 0xC4 CALLDATALOAD PUSH2 0x5F9 PUSH1 0x84 CALLDATALOAD PUSH1 0x24 CALLDATALOAD PUSH2 0x2673 JUMP JUMPDEST PUSH2 0x2673 JUMP JUMPDEST GT ISZERO PUSH2 0x27D5 JUMP JUMPDEST PUSH2 0x619 PUSH1 0xC4 CALLDATALOAD PUSH2 0x5F9 PUSH1 0x84 CALLDATALOAD PUSH1 0x24 CALLDATALOAD PUSH2 0x2673 JUMP JUMPDEST SWAP1 ADDRESS SWAP1 CALLER SWAP1 PUSH2 0x2A41 JUMP JUMPDEST PUSH1 0x40 MLOAD PUSH2 0x62F DUP2 PUSH2 0x2148 JUMP JUMPDEST DUP3 DUP2 MSTORE CALLER PUSH1 0x20 DUP3 ADD MSTORE PUSH1 0x24 CALLDATALOAD PUSH1 0x40 DUP3 ADD MSTORE PUSH1 0x44 CALLDATALOAD PUSH1 0x60 DUP3 ADD MSTORE PUSH1 0x1 PUSH1 0x80 DUP3 ADD MSTORE DUP2 PUSH1 0xA0 DUP3 ADD MSTORE PUSH1 0x84 CALLDATALOAD PUSH1 0xC0 DUP3 ADD MSTORE TIMESTAMP PUSH1 0xE0 DUP3 ADD MSTORE DUP4 PUSH2 0x100 DUP3 ADD MSTORE PUSH1 0x40 MLOAD PUSH2 0x676 DUP2 PUSH2 0x2164 JUMP JUMPDEST PUSH1 0x4 DUP2 MSTORE PUSH4 0x27B832B7 PUSH1 0xE1 SHL PUSH1 0x20 DUP3 ADD MSTORE PUSH2 0x120 DUP3 ADD MSTORE PUSH1 0xC4 CALLDATALOAD PUSH2 0x140 DUP3 ADD MSTORE PUSH1 0x0 PUSH2 0x160 DUP3 ADD MSTORE PUSH1 0x0 PUSH2 0x180 DUP3 ADD MSTORE PUSH1 0xE4 CALLDATALOAD PUSH2 0x1A0 DUP3 ADD MSTORE PUSH1 0xD PUSH2 0x1A0 PUSH1 0x40 MLOAD PUSH1 0x20 DUP2 DUP8 MLOAD PUSH2 0x6C9 DUP2 DUP4 DUP6 DUP13 ADD PUSH2 0x21F2 JUMP JUMPDEST DUP2 ADD PUSH1 0x1 DUP2 MSTORE SUB ADD SWAP1 KECCAK256 SWAP3 PUSH2 0x6DF DUP2 MLOAD DUP6 PUSH2 0x2821 JUMP JUMPDEST PUSH1 0x1 DUP5 ADD PUSH1 0x1 DUP1 PUSH1 0xA0 SHL SUB PUSH1 0x20 DUP4 ADD MLOAD AND PUSH1 0x1 PUSH1 0x1 PUSH1 0x60 SHL SUB PUSH1 0xA0 SHL DUP3 SLOAD AND OR SWAP1 SSTORE PUSH1 0x40 DUP2 ADD MLOAD PUSH1 0x2 DUP6 ADD SSTORE PUSH1 0x60 DUP2 ADD MLOAD PUSH1 0x3 DUP6 ADD SSTORE PUSH1 0x80 DUP2 ADD MLOAD ISZERO ISZERO PUSH1 0xFF DUP1 NOT PUSH1 0x4 DUP8 ADD SLOAD AND SWAP2 AND OR PUSH1 0x4 DUP6 ADD SSTORE PUSH2 0x73F PUSH1 0xA0 DUP3 ADD MLOAD PUSH1 0x5 DUP7 ADD PUSH2 0x2821 JUMP JUMPDEST PUSH1 0xC0 DUP2 ADD MLOAD PUSH1 0x6 DUP6 ADD SSTORE PUSH1 0xE0 DUP2 ADD MLOAD PUSH1 0x7 DUP6 ADD SSTORE PUSH2 0x765 PUSH2 0x100 DUP3 ADD MLOAD PUSH1 0x8 DUP7 ADD PUSH2 0x2821 JUMP JUMPDEST PUSH2 0x777 PUSH2 0x120 DUP3 ADD MLOAD PUSH1 0x9 DUP7 ADD PUSH2 0x2821 JUMP JUMPDEST PUSH2 0x140 DUP2 ADD MLOAD PUSH1 0xA DUP6 ADD SSTORE PUSH1 0xB DUP5 ADD PUSH1 0x1 DUP1 PUSH1 0xA0 SHL SUB PUSH2 0x160 DUP4 ADD MLOAD AND PUSH1 0x1 PUSH1 0x1 PUSH1 0x60 SHL SUB PUSH1 0xA0 SHL DUP3 SLOAD AND OR SWAP1 SSTORE PUSH2 0x180 DUP2 ADD MLOAD PUSH1 0xC DUP6 ADD SSTORE ADD MLOAD SWAP2 ADD SSTORE PUSH1 0x40 MLOAD PUSH1 0x20 DUP2 DUP5 MLOAD PUSH2 0x7CA DUP2 DUP4 DUP6 DUP10 ADD PUSH2 0x21F2 JUMP JUMPDEST DUP2 ADD PUSH1 0x2 DUP2 MSTORE SUB ADD SWAP1 KECCAK256 PUSH1 0x1 PUSH1 0xFF NOT DUP3 SLOAD AND OR SWAP1 SSTORE PUSH1 0x3 SLOAD PUSH9 0x10000000000000000 DUP2 LT ISZERO PUSH2 0x8D9 JUMPI DUP1 PUSH1 0x1 PUSH2 0x803 SWAP3 ADD PUSH1 0x3 SSTORE PUSH2 0x240A JUMP JUMPDEST SWAP4 SWAP1 SWAP4 PUSH2 0x424 JUMPI PUSH2 0x817 DUP4 PUSH2 0x898 SWAP6 PUSH2 0x2821 JUMP JUMPDEST PUSH2 0x85F PUSH2 0x823 DUP5 PUSH2 0x2777 JUMP JUMPDEST SWAP2 PUSH2 0x849 PUSH1 0x40 MLOAD SWAP5 PUSH1 0x24 CALLDATALOAD DUP7 MSTORE PUSH1 0x44 CALLDATALOAD PUSH1 0x20 DUP8 ADD MSTORE PUSH1 0xC0 PUSH1 0x40 DUP8 ADD MSTORE PUSH1 0xC0 DUP7 ADD SWAP1 PUSH2 0x2215 JUMP JUMPDEST SWAP1 PUSH1 0x84 CALLDATALOAD PUSH1 0x60 DUP7 ADD MSTORE DUP5 DUP3 SUB PUSH1 0x80 DUP7 ADD MSTORE PUSH2 0x2215 JUMP JUMPDEST SWAP1 PUSH1 0xC4 CALLDATALOAD PUSH1 0xA0 DUP5 ADD MSTORE PUSH32 0x6A1780C00AED9FCDC5825DB976EFD498F34F26D67D2815F81F84C0DB1A43E81E PUSH1 0xE4 CALLDATALOAD SWAP4 DUP1 CALLER SWAP5 SUB SWAP1 LOG4 PUSH2 0x2777 JUMP JUMPDEST PUSH1 0x0 DUP1 MLOAD PUSH1 0x20 PUSH2 0x2B9A DUP4 CODECOPY DUP2 MLOAD SWAP2 MSTORE PUSH1 0x60 PUSH1 0x40 MLOAD PUSH1 0x20 DUP2 MSTORE PUSH1 0x4 PUSH1 0x20 DUP3 ADD MSTORE PUSH4 0x27B832B7 PUSH1 0xE1 SHL PUSH1 0x40 DUP3 ADD MSTORE LOG2 PUSH1 0x1 PUSH1 0x0 DUP1 MLOAD PUSH1 0x20 PUSH2 0x2BFA DUP4 CODECOPY DUP2 MLOAD SWAP2 MSTORE SSTORE STOP JUMPDEST PUSH4 0x4E487B71 PUSH1 0xE0 SHL PUSH1 0x0 MSTORE PUSH1 0x41 PUSH1 0x4 MSTORE PUSH1 0x24 PUSH1 0x0 REVERT JUMPDEST SWAP2 POP PUSH1 0x20 DUP3 RETURNDATASIZE PUSH1 0x20 GT PUSH2 0x91D JUMPI JUMPDEST DUP2 PUSH2 0x90A PUSH1 0x20 SWAP4 DUP4 PUSH2 0x217F JUMP JUMPDEST DUP2 ADD SUB SLT PUSH2 0x1A1 JUMPI SWAP1 MLOAD SWAP1 PUSH2 0x605 PUSH2 0x5DD JUMP JUMPDEST RETURNDATASIZE SWAP2 POP PUSH2 0x8FD JUMP JUMPDEST PUSH1 0x84 SWAP1 PUSH15 0x81BD9881B1BD85B88185B5BDD5B9D PUSH1 0x8A SHL PUSH1 0x40 MLOAD SWAP2 PUSH3 0x461BCD PUSH1 0xE5 SHL DUP4 MSTORE PUSH1 0x20 PUSH1 0x4 DUP5 ADD MSTORE PUSH1 0x2F PUSH1 0x24 DUP5 ADD MSTORE PUSH32 0x436F6C6C61746572616C206D757374206265206174206C656173742031303025 PUSH1 0x44 DUP5 ADD MSTORE DUP3 ADD MSTORE REVERT JUMPDEST PUSH4 0x4E487B71 PUSH1 0xE0 SHL PUSH1 0x0 MSTORE PUSH1 0x11 PUSH1 0x4 MSTORE PUSH1 0x24 PUSH1 0x0 REVERT JUMPDEST PUSH1 0x40 MLOAD PUSH3 0x461BCD PUSH1 0xE5 SHL DUP2 MSTORE PUSH1 0x20 PUSH1 0x4 DUP3 ADD MSTORE PUSH1 0xB PUSH1 0x24 DUP3 ADD MSTORE PUSH11 0x496E76616C696420666565 PUSH1 0xA8 SHL PUSH1 0x44 DUP3 ADD MSTORE REVERT JUMPDEST PUSH1 0x40 MLOAD PUSH3 0x461BCD PUSH1 0xE5 SHL DUP2 MSTORE PUSH1 0x20 PUSH1 0x4 DUP3 ADD MSTORE PUSH1 0x14 PUSH1 0x24 DUP3 ADD MSTORE PUSH20 0x131BD85B88125108185B1C9958591E481D5CD959 PUSH1 0x62 SHL PUSH1 0x44 DUP3 ADD MSTORE REVERT JUMPDEST PUSH1 0x84 SWAP1 PUSH2 0x2829 PUSH1 0xF1 SHL PUSH1 0x40 MLOAD SWAP2 PUSH3 0x461BCD PUSH1 0xE5 SHL DUP4 MSTORE PUSH1 0x20 PUSH1 0x4 DUP5 ADD MSTORE PUSH1 0x22 PUSH1 0x24 DUP5 ADD MSTORE PUSH32 0x496E7465726573742072617465206D757374206265203020746F203530252041 PUSH1 0x44 DUP5 ADD MSTORE DUP3 ADD MSTORE REVERT JUMPDEST POP PUSH2 0x1388 PUSH1 0xE4 CALLDATALOAD GT ISZERO PUSH2 0x53E JUMP JUMPDEST PUSH1 0x84 SWAP1 PUSH11 0x72207468616E207A65726F PUSH1 0xA8 SHL PUSH1 0x40 MLOAD SWAP2 PUSH3 0x461BCD PUSH1 0xE5 SHL DUP4 MSTORE PUSH1 0x20 PUSH1 0x4 DUP5 ADD MSTORE PUSH1 0x2B PUSH1 0x24 DUP5 ADD MSTORE PUSH32 0x436F6C6C61746572616C20616D6F756E74206D75737420626520677265617465 PUSH1 0x44 DUP5 ADD MSTORE DUP3 ADD MSTORE REVERT JUMPDEST PUSH1 0x40 MLOAD PUSH3 0x461BCD PUSH1 0xE5 SHL DUP2 MSTORE PUSH1 0x20 PUSH1 0x4 DUP3 ADD MSTORE PUSH1 0x1B PUSH1 0x24 DUP3 ADD MSTORE PUSH32 0x496E76616C69642067726F7720707572706F7365206C656E6774680000000000 PUSH1 0x44 DUP3 ADD MSTORE REVERT JUMPDEST PUSH2 0x100 SWAP2 POP GT ISZERO DUP6 PUSH2 0x525 JUMP JUMPDEST PUSH1 0x40 MLOAD PUSH3 0x461BCD PUSH1 0xE5 SHL DUP2 MSTORE PUSH1 0x20 PUSH1 0x4 DUP3 ADD MSTORE PUSH1 0x1B PUSH1 0x24 DUP3 ADD MSTORE PUSH32 0x496E76616C696420636F6E7461637420696E666F206C656E6774680000000000 PUSH1 0x44 DUP3 ADD MSTORE REVERT JUMPDEST GT ISZERO SWAP1 POP DUP2 DUP7 PUSH2 0x512 JUMP JUMPDEST PUSH1 0x40 MLOAD PUSH3 0x461BCD PUSH1 0xE5 SHL DUP2 MSTORE PUSH1 0x20 PUSH1 0x4 DUP3 ADD MSTORE PUSH1 0x16 PUSH1 0x24 DUP3 ADD MSTORE PUSH22 0x92DCECC2D8D2C840D8DEC2DC40928840D8CADCCEE8D PUSH1 0x53 SHL PUSH1 0x44 DUP3 ADD MSTORE REVERT JUMPDEST PUSH1 0x20 SWAP2 POP GT ISZERO DUP6 PUSH2 0x4FF JUMP JUMPDEST PUSH1 0x40 MLOAD PUSH3 0x461BCD PUSH1 0xE5 SHL DUP2 MSTORE PUSH1 0x20 PUSH1 0x4 DUP3 ADD MSTORE PUSH1 0x1E PUSH1 0x24 DUP3 ADD MSTORE PUSH32 0x4475726174696F6E206D757374206265203120746F2033363520646179730000 PUSH1 0x44 DUP3 ADD MSTORE REVERT JUMPDEST POP PUSH4 0x1E13380 PUSH1 0x44 CALLDATALOAD GT ISZERO PUSH2 0x4EE JUMP JUMPDEST PUSH1 0x40 MLOAD PUSH3 0x461BCD PUSH1 0xE5 SHL DUP2 MSTORE PUSH1 0x20 PUSH1 0x4 DUP3 ADD DUP2 SWAP1 MSTORE PUSH1 0x24 DUP3 ADD MSTORE PUSH32 0x416D6F756E74206D7573742062652067726561746572207468616E207A65726F PUSH1 0x44 DUP3 ADD MSTORE REVERT JUMPDEST CALLVALUE PUSH2 0x1A1 JUMPI PUSH1 0x20 DUP1 PUSH1 0x3 NOT CALLDATASIZE ADD SLT PUSH2 0x1A1 JUMPI PUSH1 0x4 CALLDATALOAD PUSH1 0x1 PUSH1 0x1 PUSH1 0x40 SHL SUB DUP2 GT PUSH2 0x1A1 JUMPI PUSH2 0xC5D SWAP1 CALLDATASIZE SWAP1 PUSH1 0x4 ADD PUSH2 0x230D JUMP JUMPDEST SWAP1 PUSH2 0xC66 PUSH2 0x2997 JUMP JUMPDEST PUSH2 0xC6E PUSH2 0x29C2 JUMP JUMPDEST PUSH1 0x40 MLOAD DUP2 DUP2 DUP5 MLOAD PUSH2 0xC82 DUP2 DUP4 DUP6 DUP10 ADD PUSH2 0x21F2 JUMP JUMPDEST DUP2 ADD PUSH1 0x1 DUP2 MSTORE SUB ADD SWAP1 KECCAK256 SWAP2 PUSH1 0x4 DUP4 ADD SWAP3 PUSH2 0xC9F PUSH1 0xFF DUP6 SLOAD AND PUSH2 0x2572 JUMP JUMPDEST PUSH1 0xB DUP2 ADD SLOAD PUSH1 0x1 PUSH1 0x1 PUSH1 0xA0 SHL SUB SWAP1 DUP2 AND CALLER SUB PUSH2 0xE14 JUMPI PUSH1 0x9 DUP3 ADD SWAP5 PUSH2 0xCFE PUSH1 0x40 MLOAD DUP7 DUP2 ADD SWAP1 PUSH2 0xCD2 DUP2 PUSH2 0x234 DUP5 DUP13 PUSH2 0x24DA JUMP JUMPDEST MLOAD SWAP1 KECCAK256 PUSH1 0x40 MLOAD DUP8 DUP2 ADD SWAP1 PUSH6 0x119D5B991959 PUSH1 0xD2 SHL DUP3 MSTORE PUSH1 0x6 DUP2 MSTORE PUSH2 0xCF5 DUP2 PUSH2 0x2164 JUMP JUMPDEST MLOAD SWAP1 KECCAK256 EQ PUSH2 0x2797 JUMP JUMPDEST PUSH2 0xD11 PUSH1 0x7 DUP5 ADD SLOAD PUSH1 0x3 DUP6 ADD SLOAD SWAP1 PUSH2 0x2673 JUMP JUMPDEST TIMESTAMP GT ISZERO PUSH2 0xDCF JUMPI SWAP3 PUSH2 0xD74 PUSH1 0x0 DUP1 MLOAD PUSH1 0x20 PUSH2 0x2B9A DUP4 CODECOPY DUP2 MLOAD SWAP2 MSTORE SWAP6 SWAP4 PUSH1 0xA PUSH2 0xDA8 SWAP5 PUSH1 0x60 SWAP8 PUSH2 0xD49 PUSH2 0xD43 DUP13 SLOAD PUSH2 0x232B JUMP JUMPDEST DUP13 PUSH2 0x2606 JUMP JUMPDEST PUSH9 0x111959985D5B1D1959 PUSH1 0xBA SHL SWAP11 PUSH1 0x12 DUP13 ADD SWAP1 SSTORE PUSH1 0xFF NOT DUP2 SLOAD AND SWAP1 SSTORE PUSH1 0x0 SLOAD AND SWAP2 ADD SLOAD SWAP1 CALLER SWAP1 PUSH2 0x29F2 JUMP JUMPDEST CALLER PUSH2 0xD7E DUP3 PUSH2 0x2777 JUMP JUMPDEST PUSH32 0x9D99EBBD63AD66BD41D937ADD2C439545D27DE0CFCE044C210A62E86D9AB200F PUSH1 0x0 DUP1 LOG3 PUSH2 0x2777 JUMP JUMPDEST SWAP4 PUSH1 0x9 PUSH1 0x40 MLOAD SWAP3 DUP1 DUP5 MSTORE DUP4 ADD MSTORE PUSH1 0x40 DUP3 ADD MSTORE LOG2 PUSH1 0x1 PUSH1 0x0 DUP1 MLOAD PUSH1 0x20 PUSH2 0x2BFA DUP4 CODECOPY DUP2 MLOAD SWAP2 MSTORE SSTORE STOP JUMPDEST PUSH1 0x40 MLOAD PUSH3 0x461BCD PUSH1 0xE5 SHL DUP2 MSTORE PUSH1 0x4 DUP2 ADD DUP7 SWAP1 MSTORE PUSH1 0x19 PUSH1 0x24 DUP3 ADD MSTORE PUSH32 0x4C6F616E206475726174696F6E206E6F74206578706972656400000000000000 PUSH1 0x44 DUP3 ADD MSTORE PUSH1 0x64 SWAP1 REVERT JUMPDEST PUSH1 0x64 DUP5 PUSH1 0x40 MLOAD SWAP1 PUSH3 0x461BCD PUSH1 0xE5 SHL DUP3 MSTORE DUP1 PUSH1 0x4 DUP4 ADD MSTORE PUSH1 0x24 DUP3 ADD MSTORE PUSH32 0x4F6E6C79206C656E6465722063616E20636C61696D20636F6C6C61746572616C PUSH1 0x44 DUP3 ADD MSTORE REVERT JUMPDEST CALLVALUE PUSH2 0x1A1 JUMPI PUSH1 0x40 CALLDATASIZE PUSH1 0x3 NOT ADD SLT PUSH2 0x1A1 JUMPI PUSH1 0x4 CALLDATALOAD PUSH1 0x1 PUSH1 0x1 PUSH1 0x40 SHL SUB DUP2 GT PUSH2 0x1A1 JUMPI PUSH2 0xE87 SWAP1 CALLDATASIZE SWAP1 PUSH1 0x4 ADD PUSH2 0x230D JUMP JUMPDEST PUSH1 0x24 CALLDATALOAD SWAP1 PUSH2 0xE93 PUSH2 0x2997 JUMP JUMPDEST PUSH2 0xE9B PUSH2 0x29C2 JUMP JUMPDEST PUSH1 0x40 MLOAD SWAP1 DUP2 DUP2 MLOAD PUSH1 0x20 SWAP4 DUP2 PUSH2 0xEB4 DUP7 SWAP4 DUP4 DUP6 DUP9 ADD PUSH2 0x21F2 JUMP JUMPDEST DUP2 ADD PUSH1 0x1 DUP2 MSTORE SUB ADD SWAP1 KECCAK256 SWAP3 PUSH1 0x4 DUP5 ADD PUSH2 0xED0 PUSH1 0xFF DUP3 SLOAD AND PUSH2 0x2572 JUMP JUMPDEST PUSH1 0x1 DUP6 ADD DUP1 SLOAD PUSH1 0x1 PUSH1 0x1 PUSH1 0xA0 SHL SUB SWAP7 SWAP1 DUP8 AND CALLER SUB PUSH2 0x1143 JUMPI PUSH1 0x9 DUP2 ADD SWAP3 PUSH2 0xF28 PUSH1 0x40 MLOAD DUP9 DUP2 ADD SWAP1 PUSH2 0xF05 DUP2 PUSH2 0x234 DUP5 DUP11 PUSH2 0x24DA JUMP JUMPDEST MLOAD SWAP1 KECCAK256 PUSH1 0x40 MLOAD DUP10 DUP2 ADD SWAP1 PUSH6 0x119D5B991959 PUSH1 0xD2 SHL DUP3 MSTORE PUSH1 0x6 DUP2 MSTORE PUSH2 0xCF5 DUP2 PUSH2 0x2164 JUMP JUMPDEST DUP5 ISZERO PUSH2 0x10ED JUMPI PUSH1 0x2 DUP3 ADD SWAP4 DUP5 SLOAD SWAP6 PUSH2 0xF63 PUSH5 0x496CEBB800 PUSH2 0xF5B PUSH2 0xF50 PUSH1 0xD DUP9 ADD SLOAD DUP12 PUSH2 0x2764 JUMP JUMPDEST PUSH1 0x3 DUP9 ADD SLOAD SWAP1 PUSH2 0x2764 JUMP JUMPDEST DIV DUP1 SWAP9 PUSH2 0x2673 JUMP JUMPDEST DUP2 LT PUSH2 0x10A8 JUMPI DUP10 PUSH1 0x0 SLOAD AND PUSH1 0x40 MLOAD PUSH4 0x70A08231 PUSH1 0xE0 SHL DUP2 MSTORE CALLER PUSH1 0x4 DUP3 ADD MSTORE DUP11 DUP2 PUSH1 0x24 DUP2 DUP6 GAS STATICCALL SWAP1 DUP2 ISZERO PUSH2 0x3C9 JUMPI PUSH1 0x0 SWAP2 PUSH2 0x105F JUMPI JUMPDEST POP PUSH1 0xC SWAP12 PUSH2 0x35F SWAP9 SWAP6 PUSH2 0x101E SWAP6 DUP6 PUSH2 0xFDF PUSH1 0x0 DUP1 MLOAD PUSH1 0x20 PUSH2 0x2B9A DUP4 CODECOPY DUP2 MLOAD SWAP2 MSTORE SWAP16 SWAP14 SWAP11 SWAP7 SWAP8 PUSH1 0x60 SWAP16 SWAP13 SWAP9 PUSH2 0xFD0 DUP3 PUSH1 0xA SWAP10 LT ISZERO PUSH2 0x27D5 JUMP JUMPDEST DUP7 PUSH1 0xB DUP11 ADD SLOAD AND SWAP1 CALLER SWAP1 PUSH2 0x2A41 JUMP JUMPDEST DUP16 DUP7 ADD SSTORE PUSH2 0xFF6 PUSH2 0xFF0 DUP3 SLOAD PUSH2 0x232B JUMP JUMPDEST DUP3 PUSH2 0x2606 JUMP JUMPDEST PUSH6 0x14995C185A59 PUSH1 0xD2 SHL SWAP15 DUP16 ADD SWAP1 SSTORE PUSH1 0xFF NOT DUP2 SLOAD AND SWAP1 SSTORE DUP1 PUSH1 0x0 SLOAD AND SWAP4 SLOAD AND SWAP2 ADD SLOAD SWAP2 PUSH2 0x29F2 JUMP JUMPDEST SLOAD SWAP1 PUSH2 0x1029 DUP4 PUSH2 0x2777 JUMP JUMPDEST SWAP1 PUSH1 0x40 MLOAD SWAP3 DUP4 MSTORE DUP6 DUP4 ADD MSTORE PUSH32 0x3B62CC4E086A894A6C745362B81DB744E8DD91AF3EDDCCB44143E1F47EC952D0 PUSH1 0x40 CALLER SWAP4 LOG3 PUSH2 0x2777 JUMP JUMPDEST SWAP1 POP DUP11 DUP2 DUP2 SWAP11 SWAP8 SWAP4 SWAP6 SWAP12 SWAP9 SWAP5 SWAP10 SWAP7 SWAP13 RETURNDATASIZE DUP4 GT PUSH2 0x10A1 JUMPI JUMPDEST PUSH2 0x1080 DUP2 DUP4 PUSH2 0x217F JUMP JUMPDEST DUP2 ADD SUB SLT PUSH2 0x1A1 JUMPI MLOAD SWAP8 SWAP10 SWAP6 SWAP9 SWAP5 SWAP8 SWAP4 SWAP7 SWAP2 SWAP6 SWAP1 SWAP5 SWAP1 SWAP4 SWAP1 SWAP3 SWAP1 PUSH1 0xC PUSH2 0xF98 JUMP JUMPDEST POP RETURNDATASIZE PUSH2 0x1076 JUMP JUMPDEST PUSH1 0x40 MLOAD PUSH3 0x461BCD PUSH1 0xE5 SHL DUP2 MSTORE PUSH1 0x4 DUP2 ADD DUP11 SWAP1 MSTORE PUSH1 0x1B PUSH1 0x24 DUP3 ADD MSTORE PUSH32 0x496E73756666696369656E74207061796D656E7420616D6F756E740000000000 PUSH1 0x44 DUP3 ADD MSTORE PUSH1 0x64 SWAP1 REVERT JUMPDEST PUSH1 0x40 MLOAD PUSH3 0x461BCD PUSH1 0xE5 SHL DUP2 MSTORE PUSH1 0x4 DUP2 ADD DUP9 SWAP1 MSTORE PUSH1 0x28 PUSH1 0x24 DUP3 ADD MSTORE PUSH32 0x5061796D656E7420616D6F756E74206D75737420626520677265617465722074 PUSH1 0x44 DUP3 ADD MSTORE PUSH8 0x68616E207A65726F PUSH1 0xC0 SHL PUSH1 0x64 DUP3 ADD MSTORE PUSH1 0x84 SWAP1 REVERT JUMPDEST PUSH1 0x40 MLOAD PUSH3 0x461BCD PUSH1 0xE5 SHL DUP2 MSTORE PUSH1 0x4 DUP2 ADD DUP8 SWAP1 MSTORE PUSH1 0x15 PUSH1 0x24 DUP3 ADD MSTORE PUSH21 0x4F6E6C792067726F7765722063616E207265706179 PUSH1 0x58 SHL PUSH1 0x44 DUP3 ADD MSTORE PUSH1 0x64 SWAP1 REVERT JUMPDEST CALLVALUE PUSH2 0x1A1 JUMPI PUSH1 0x20 DUP1 PUSH1 0x3 NOT CALLDATASIZE ADD SLT PUSH2 0x1A1 JUMPI PUSH1 0x4 CALLDATALOAD PUSH1 0x1 PUSH1 0x1 PUSH1 0x40 SHL SUB DUP2 GT PUSH2 0x1A1 JUMPI PUSH2 0x11B1 SWAP1 CALLDATASIZE SWAP1 PUSH1 0x4 ADD PUSH2 0x230D JUMP JUMPDEST PUSH2 0x11B9 PUSH2 0x2997 JUMP JUMPDEST PUSH2 0x11C1 PUSH2 0x29C2 JUMP JUMPDEST PUSH1 0x40 MLOAD SWAP2 DUP2 MLOAD SWAP2 DUP2 DUP2 ADD SWAP3 PUSH2 0x11D7 DUP2 DUP7 DUP7 PUSH2 0x21F2 JUMP JUMPDEST DUP5 ADD SWAP4 DUP3 DUP2 PUSH1 0x1 SWAP7 DUP8 DUP2 MSTORE SUB ADD SWAP1 KECCAK256 SWAP3 PUSH1 0x4 DUP5 ADD PUSH2 0x11F8 PUSH1 0xFF DUP3 SLOAD AND PUSH2 0x2572 JUMP JUMPDEST DUP5 DUP7 ADD SLOAD PUSH1 0x1 PUSH1 0x1 PUSH1 0xA0 SHL SUB SWAP2 SWAP1 DUP3 AND CALLER SUB PUSH2 0x14B2 JUMPI SWAP1 DUP7 SWAP3 SWAP2 PUSH2 0x12BD PUSH1 0x9 DUP9 ADD SWAP8 PUSH2 0x12B5 PUSH1 0x40 MLOAD SWAP5 PUSH2 0x1268 DUP12 DUP8 PUSH2 0x1233 DUP14 DUP3 ADD DUP1 SWAP4 PUSH2 0x24DA JUMP JUMPDEST SUB SWAP8 PUSH2 0x1247 PUSH1 0x1F NOT SWAP10 DUP11 DUP2 ADD DUP4 MSTORE DUP3 PUSH2 0x217F JUMP JUMPDEST MLOAD SWAP1 KECCAK256 PUSH1 0x40 MLOAD DUP13 DUP2 ADD SWAP1 PUSH4 0x27B832B7 PUSH1 0xE1 SHL DUP3 MSTORE PUSH1 0x4 DUP2 MSTORE PUSH2 0x263 DUP2 PUSH2 0x2164 JUMP JUMPDEST PUSH2 0x1275 PUSH2 0xD43 DUP13 SLOAD PUSH2 0x232B JUMP JUMPDEST PUSH8 0x10D85B98D95B1959 PUSH1 0xC2 SHL SWAP11 PUSH1 0x10 DUP13 ADD SWAP1 SSTORE PUSH1 0xFF NOT SWAP5 DUP6 DUP2 SLOAD AND SWAP1 SSTORE PUSH1 0x0 SLOAD AND SWAP2 PUSH1 0xA PUSH2 0x12AC PUSH1 0x2 DUP4 ADD SLOAD PUSH1 0x6 DUP5 ADD SLOAD SWAP1 PUSH2 0x2673 JUMP JUMPDEST SWAP2 ADD SLOAD SWAP1 PUSH2 0x2673 JUMP JUMPDEST SWAP1 CALLER SWAP1 PUSH2 0x29F2 JUMP JUMPDEST PUSH1 0x40 MLOAD DUP7 DUP2 DUP8 MLOAD PUSH2 0x12CF DUP2 DUP4 DUP10 PUSH2 0x21F2 JUMP JUMPDEST DUP2 ADD PUSH1 0x2 DUP2 MSTORE SUB ADD SWAP1 KECCAK256 SWAP1 DUP2 SLOAD AND SWAP1 SSTORE DUP3 PUSH1 0x0 SWAP1 JUMPDEST PUSH2 0x135A JUMPI JUMPDEST DUP4 DUP8 PUSH1 0x0 DUP1 MLOAD PUSH1 0x20 PUSH2 0x2B9A DUP4 CODECOPY DUP2 MLOAD SWAP2 MSTORE PUSH1 0x60 DUP10 PUSH2 0x1335 DUP11 CALLER PUSH2 0x130B DUP3 PUSH2 0x2777 JUMP JUMPDEST PUSH32 0x64167C9F5767A6FA8B7008F5263E7F45D013DD7DD2213F2D254BEC2DA2BAE1A7 PUSH1 0x0 DUP1 LOG3 PUSH2 0x2777 JUMP JUMPDEST SWAP4 PUSH1 0x8 PUSH1 0x40 MLOAD SWAP3 DUP1 DUP5 MSTORE DUP4 ADD MSTORE PUSH1 0x40 DUP3 ADD MSTORE LOG2 PUSH1 0x0 DUP1 MLOAD PUSH1 0x20 PUSH2 0x2BFA DUP4 CODECOPY DUP2 MLOAD SWAP2 MSTORE SSTORE STOP JUMPDEST PUSH1 0x3 DUP1 SLOAD DUP1 DUP4 LT ISZERO PUSH2 0x14AB JUMPI PUSH2 0x136F DUP4 PUSH2 0x240A JUMP JUMPDEST POP PUSH1 0x40 MLOAD PUSH2 0x1390 DUP2 PUSH2 0x1384 DUP13 DUP3 ADD DUP1 SWAP6 PUSH2 0x24DA JUMP JUMPDEST SUB DUP8 DUP2 ADD DUP4 MSTORE DUP3 PUSH2 0x217F JUMP JUMPDEST MLOAD SWAP1 KECCAK256 DUP6 PUSH1 0x40 MLOAD PUSH2 0x13BC DUP12 DUP3 DUP13 PUSH2 0x13AF DUP4 DUP4 ADD SWAP7 DUP8 SWAP3 MLOAD SWAP3 DUP4 SWAP2 PUSH2 0x21F2 JUMP JUMPDEST DUP2 ADD SUB DUP1 DUP5 MSTORE ADD DUP3 PUSH2 0x217F JUMP JUMPDEST MLOAD SWAP1 KECCAK256 EQ PUSH2 0x13CE JUMPI POP POP DUP4 ADD DUP4 PUSH2 0x12E4 JUMP JUMPDEST SWAP4 POP SWAP5 SWAP6 SWAP4 POP SWAP1 POP PUSH1 0x0 NOT SWAP2 DUP3 DUP2 ADD SWAP1 DUP2 GT PUSH2 0x981 JUMPI PUSH2 0x13F0 PUSH2 0x13F7 SWAP2 PUSH2 0x240A JUMP JUMPDEST POP SWAP2 PUSH2 0x240A JUMP JUMPDEST SWAP2 SWAP1 SWAP2 PUSH2 0x424 JUMPI PUSH2 0x1407 SWAP2 PUSH2 0x2680 JUMP JUMPDEST DUP3 SLOAD DUP1 ISZERO PUSH2 0x1495 JUMPI ADD SWAP3 PUSH2 0x141A DUP5 PUSH2 0x240A JUMP JUMPDEST SWAP2 SWAP1 SWAP2 PUSH2 0x424 JUMPI PUSH1 0x0 DUP1 MLOAD PUSH1 0x20 PUSH2 0x2B9A DUP4 CODECOPY DUP2 MLOAD SWAP2 MSTORE SWAP5 PUSH1 0x60 SWAP5 DUP4 PUSH2 0x1442 PUSH2 0x1335 SWAP6 SLOAD PUSH2 0x232B JUMP JUMPDEST SWAP1 DUP2 PUSH2 0x1455 JUMPI JUMPDEST POP POP SSTORE SWAP3 DUP7 SWAP3 SWAP5 PUSH2 0x12E9 JUMP JUMPDEST PUSH1 0x0 SWAP2 DUP12 PUSH1 0x1F DUP1 DUP4 GT PUSH1 0x1 EQ PUSH2 0x1471 JUMPI POP POP POP SSTORE JUMPDEST DUP10 DUP1 PUSH2 0x1449 JUMP JUMPDEST DUP4 SWAP2 PUSH2 0x148E SWAP2 DUP7 SWAP5 SWAP6 DUP6 MSTORE DUP12 DUP6 KECCAK256 SWAP6 ADD PUSH1 0x5 SHR DUP6 ADD SWAP1 DUP6 ADD PUSH2 0x25EF JUMP JUMPDEST SSTORE SSTORE PUSH2 0x146A JUMP JUMPDEST PUSH4 0x4E487B71 PUSH1 0xE0 SHL PUSH1 0x0 MSTORE PUSH1 0x31 PUSH1 0x4 MSTORE PUSH1 0x24 PUSH1 0x0 REVERT JUMPDEST POP POP PUSH2 0x12E9 JUMP JUMPDEST PUSH1 0x40 MLOAD PUSH3 0x461BCD PUSH1 0xE5 SHL DUP2 MSTORE PUSH1 0x4 DUP2 ADD DUP7 SWAP1 MSTORE PUSH1 0x16 PUSH1 0x24 DUP3 ADD MSTORE PUSH22 0x13DB9B1E4819DC9BDDD95C8818D85B8818D85B98D95B PUSH1 0x52 SHL PUSH1 0x44 DUP3 ADD MSTORE PUSH1 0x64 SWAP1 REVERT JUMPDEST CALLVALUE PUSH2 0x1A1 JUMPI PUSH1 0x20 CALLDATASIZE PUSH1 0x3 NOT ADD SLT PUSH2 0x1A1 JUMPI PUSH1 0x4 CALLDATALOAD PUSH1 0x1 PUSH1 0x1 PUSH1 0x40 SHL SUB DUP2 GT PUSH2 0x1A1 JUMPI PUSH2 0x1520 SWAP1 CALLDATASIZE SWAP1 PUSH1 0x4 ADD PUSH2 0x230D JUMP JUMPDEST PUSH1 0x40 MLOAD DUP2 DUP2 DUP1 SWAP4 MLOAD PUSH1 0x20 DUP2 SWAP4 ADD SWAP2 PUSH2 0x1537 SWAP3 PUSH2 0x21F2 JUMP JUMPDEST DUP2 ADD PUSH1 0x1 DUP2 MSTORE SUB PUSH1 0x20 ADD SWAP1 KECCAK256 PUSH2 0x154C DUP2 PUSH2 0x2365 JUMP JUMPDEST PUSH1 0x1 PUSH1 0xA0 SHL PUSH1 0x1 SWAP1 SUB DUP1 PUSH1 0x1 DUP5 ADD SLOAD AND PUSH1 0x2 DUP5 ADD SLOAD SWAP4 PUSH1 0x3 DUP2 ADD SLOAD SWAP2 PUSH1 0x4 DUP3 ADD SLOAD PUSH1 0xFF AND SWAP1 PUSH1 0x5 DUP4 ADD PUSH2 0x157E SWAP1 PUSH2 0x2365 JUMP JUMPDEST PUSH1 0x6 DUP5 ADD SLOAD PUSH1 0x7 DUP6 ADD SLOAD PUSH2 0x1594 PUSH1 0x8 DUP8 ADD PUSH2 0x2365 JUMP JUMPDEST SWAP3 PUSH2 0x15A1 PUSH1 0x9 DUP9 ADD PUSH2 0x2365 JUMP JUMPDEST SWAP5 PUSH1 0xA DUP9 ADD SLOAD SWAP10 PUSH1 0xB DUP10 ADD SLOAD AND SWAP7 PUSH1 0xC DUP10 ADD SLOAD SWAP9 PUSH1 0xD ADD SLOAD SWAP10 PUSH1 0x40 MLOAD SWAP14 DUP15 DUP1 SWAP15 PUSH2 0x1C0 DUP1 DUP4 MSTORE DUP3 ADD PUSH2 0x15D2 SWAP2 PUSH2 0x2215 JUMP JUMPDEST SWAP5 PUSH1 0x20 DUP3 ADD MSTORE PUSH1 0x40 ADD MSTORE PUSH1 0x60 DUP14 ADD MSTORE ISZERO ISZERO PUSH1 0x80 DUP13 ADD MSTORE DUP11 DUP2 SUB PUSH1 0xA0 DUP13 ADD MSTORE PUSH2 0x15F9 SWAP2 PUSH2 0x2215 JUMP JUMPDEST SWAP2 PUSH1 0xC0 DUP11 ADD MSTORE PUSH1 0xE0 DUP10 ADD MSTORE DUP8 DUP2 SUB PUSH2 0x100 DUP10 ADD MSTORE PUSH2 0x1616 SWAP2 PUSH2 0x2215 JUMP JUMPDEST DUP7 DUP2 SUB PUSH2 0x120 DUP9 ADD MSTORE PUSH2 0x1628 SWAP2 PUSH2 0x2215 JUMP JUMPDEST SWAP4 PUSH2 0x140 DUP7 ADD MSTORE PUSH2 0x160 DUP6 ADD MSTORE PUSH2 0x180 DUP5 ADD MSTORE PUSH2 0x1A0 DUP4 ADD MSTORE SUB SWAP1 RETURN JUMPDEST CALLVALUE PUSH2 0x1A1 JUMPI PUSH1 0x20 CALLDATASIZE PUSH1 0x3 NOT ADD SLT PUSH2 0x1A1 JUMPI PUSH2 0x165E PUSH2 0x2132 JUMP JUMPDEST PUSH32 0xF0C57E16840DF040F15088DC2F81FE391C3923BEC73E23A9662EFC9C229C6A00 SWAP1 DUP2 SLOAD SWAP1 PUSH1 0xFF DUP3 PUSH1 0x40 SHR AND ISZERO SWAP2 PUSH1 0x1 PUSH1 0x1 PUSH1 0x40 SHL SUB DUP2 AND DUP1 ISZERO SWAP1 DUP2 PUSH2 0x1807 JUMPI JUMPDEST PUSH1 0x1 EQ SWAP1 DUP2 PUSH2 0x17FD JUMPI JUMPDEST ISZERO SWAP1 DUP2 PUSH2 0x17F4 JUMPI JUMPDEST POP PUSH2 0x17E2 JUMPI PUSH8 0xFFFFFFFFFFFFFFFF NOT DUP2 AND PUSH1 0x1 OR DUP5 SSTORE DUP3 PUSH2 0x17C3 JUMPI JUMPDEST POP PUSH2 0x16D6 PUSH2 0x2A99 JUMP JUMPDEST PUSH2 0x16DE PUSH2 0x2A99 JUMP JUMPDEST PUSH2 0x16E7 CALLER PUSH2 0x28EA JUMP JUMPDEST PUSH2 0x16EF PUSH2 0x2A99 JUMP JUMPDEST PUSH2 0x16F7 PUSH2 0x2A99 JUMP JUMPDEST PUSH2 0x16FF PUSH2 0x2A99 JUMP JUMPDEST PUSH2 0x1707 PUSH2 0x2A99 JUMP JUMPDEST PUSH1 0x1 PUSH1 0x0 DUP1 MLOAD PUSH1 0x20 PUSH2 0x2BFA DUP4 CODECOPY DUP2 MLOAD SWAP2 MSTORE SSTORE PUSH1 0x1 PUSH1 0x1 PUSH1 0xA0 SHL SUB AND DUP1 ISZERO PUSH2 0x177E JUMPI PUSH1 0x1 PUSH1 0x1 PUSH1 0x60 SHL SUB PUSH1 0xA0 SHL PUSH1 0x0 SLOAD AND OR PUSH1 0x0 SSTORE PUSH2 0x1741 JUMPI STOP JUMPDEST PUSH9 0xFF0000000000000000 NOT DUP2 SLOAD AND SWAP1 SSTORE PUSH32 0xC7F505B2F371AE2175EE4913F4499E1F2633A7B5936321EED1CDAEB6115181D2 PUSH1 0x20 PUSH1 0x40 MLOAD PUSH1 0x1 DUP2 MSTORE LOG1 STOP JUMPDEST PUSH1 0x40 MLOAD PUSH3 0x461BCD PUSH1 0xE5 SHL DUP2 MSTORE PUSH1 0x20 PUSH1 0x4 DUP3 ADD MSTORE PUSH1 0x1B PUSH1 0x24 DUP3 ADD MSTORE PUSH32 0x496E76616C696420574545444C20746F6B656E20616464726573730000000000 PUSH1 0x44 DUP3 ADD MSTORE PUSH1 0x64 SWAP1 REVERT JUMPDEST PUSH9 0xFFFFFFFFFFFFFFFFFF NOT AND PUSH9 0x10000000000000001 OR DUP4 SSTORE DUP4 PUSH2 0x16CD JUMP JUMPDEST PUSH1 0x40 MLOAD PUSH4 0xF92EE8A9 PUSH1 0xE0 SHL DUP2 MSTORE PUSH1 0x4 SWAP1 REVERT JUMPDEST SWAP1 POP ISZERO DUP6 PUSH2 0x16B1 JUMP JUMPDEST ADDRESS EXTCODESIZE ISZERO SWAP2 POP PUSH2 0x16A9 JUMP JUMPDEST DUP5 SWAP2 POP PUSH2 0x169F JUMP JUMPDEST CALLVALUE PUSH2 0x1A1 JUMPI PUSH1 0x20 DUP1 PUSH1 0x3 NOT CALLDATASIZE ADD SLT PUSH2 0x1A1 JUMPI PUSH1 0x4 CALLDATALOAD PUSH1 0x1 PUSH1 0x1 PUSH1 0x40 SHL SUB DUP2 GT PUSH2 0x1A1 JUMPI DUP2 PUSH2 0x1844 PUSH2 0x1860 SWAP3 CALLDATASIZE SWAP1 PUSH1 0x4 ADD PUSH2 0x230D JUMP JUMPDEST PUSH2 0x184C PUSH2 0x246E JUMP JUMPDEST POP DUP2 PUSH1 0x40 MLOAD SWAP4 DUP3 DUP6 DUP1 SWAP5 MLOAD SWAP4 DUP5 SWAP3 ADD PUSH2 0x21F2 JUMP JUMPDEST DUP2 ADD PUSH1 0x1 DUP2 MSTORE SUB ADD SWAP1 KECCAK256 SWAP1 PUSH1 0xD PUSH1 0x40 MLOAD SWAP3 PUSH2 0x187A DUP5 PUSH2 0x2148 JUMP JUMPDEST PUSH2 0x1883 DUP2 PUSH2 0x2365 JUMP JUMPDEST DUP5 MSTORE PUSH1 0x1 DUP2 ADD SLOAD PUSH1 0x1 PUSH1 0x1 PUSH1 0xA0 SHL SUB SWAP1 DUP2 AND DUP5 DUP7 ADD MSTORE PUSH1 0x2 DUP3 ADD SLOAD PUSH1 0x40 DUP7 ADD MSTORE PUSH1 0x3 DUP3 ADD SLOAD PUSH1 0x60 DUP7 ADD MSTORE PUSH1 0x4 DUP3 ADD SLOAD PUSH1 0xFF AND ISZERO ISZERO PUSH1 0x80 DUP7 ADD MSTORE PUSH2 0x18C8 PUSH1 0x5 DUP4 ADD PUSH2 0x2365 JUMP JUMPDEST PUSH1 0xA0 DUP7 ADD MSTORE PUSH1 0x6 DUP3 ADD SLOAD PUSH1 0xC0 DUP7 ADD MSTORE PUSH1 0x7 DUP3 ADD SLOAD PUSH1 0xE0 DUP7 ADD MSTORE PUSH2 0x18ED PUSH1 0x8 DUP4 ADD PUSH2 0x2365 JUMP JUMPDEST PUSH2 0x100 DUP7 ADD MSTORE PUSH2 0x18FF PUSH1 0x9 DUP4 ADD PUSH2 0x2365 JUMP JUMPDEST PUSH2 0x120 DUP7 ADD MSTORE PUSH1 0xA DUP3 ADD SLOAD PUSH2 0x140 DUP7 ADD MSTORE PUSH1 0xB DUP3 ADD SLOAD AND PUSH2 0x160 DUP6 ADD MSTORE PUSH1 0xC DUP2 ADD SLOAD PUSH2 0x180 DUP6 ADD MSTORE ADD SLOAD PUSH2 0x1A0 DUP4 ADD MSTORE PUSH2 0x420 PUSH1 0x40 MLOAD SWAP3 DUP3 DUP5 SWAP4 DUP5 MSTORE DUP4 ADD SWAP1 PUSH2 0x223A JUMP JUMPDEST CALLVALUE PUSH2 0x1A1 JUMPI PUSH1 0x0 CALLDATASIZE PUSH1 0x3 NOT ADD SLT PUSH2 0x1A1 JUMPI PUSH2 0x420 PUSH1 0x40 MLOAD PUSH2 0x1963 DUP2 PUSH2 0x2164 JUMP JUMPDEST PUSH1 0x5 DUP2 MSTORE PUSH5 0x352E302E3 PUSH1 0xDC SHL PUSH1 0x20 DUP3 ADD MSTORE PUSH1 0x40 MLOAD SWAP2 DUP3 SWAP2 PUSH1 0x20 DUP4 MSTORE PUSH1 0x20 DUP4 ADD SWAP1 PUSH2 0x2215 JUMP JUMPDEST CALLVALUE PUSH2 0x1A1 JUMPI PUSH1 0x0 CALLDATASIZE PUSH1 0x3 NOT ADD SLT PUSH2 0x1A1 JUMPI PUSH1 0x3 DUP1 SLOAD PUSH2 0x19A7 DUP2 PUSH2 0x2457 JUMP JUMPDEST SWAP2 PUSH2 0x19B5 PUSH1 0x40 MLOAD SWAP4 DUP5 PUSH2 0x217F JUMP JUMPDEST DUP2 DUP4 MSTORE PUSH2 0x19C1 DUP3 PUSH2 0x2457 JUMP JUMPDEST PUSH1 0x20 SWAP5 SWAP1 PUSH1 0x1F NOT ADD DUP6 PUSH1 0x0 JUMPDEST DUP3 DUP2 LT PUSH2 0x1B3F JUMPI POP POP POP PUSH1 0x0 JUMPDEST DUP4 DUP2 LT PUSH2 0x1A3F JUMPI PUSH1 0x40 DUP1 MLOAD DUP8 DUP2 MSTORE DUP7 MLOAD DUP2 DUP10 ADD DUP2 SWAP1 MSTORE PUSH1 0x0 SWAP3 PUSH1 0x5 DUP3 SWAP1 SHL DUP4 ADD DUP2 ADD SWAP2 DUP10 DUP12 ADD SWAP2 DUP12 SWAP1 DUP6 ADD JUMPDEST DUP3 DUP8 LT PUSH2 0x1A13 JUMPI DUP6 DUP6 SUB DUP7 RETURN JUMPDEST SWAP1 SWAP2 SWAP3 SWAP4 DUP3 DUP1 PUSH2 0x1A2F PUSH1 0x1 SWAP4 PUSH1 0x3F NOT DUP11 DUP3 SUB ADD DUP7 MSTORE DUP9 MLOAD PUSH2 0x223A JUMP JUMPDEST SWAP7 ADD SWAP3 ADD SWAP7 ADD SWAP6 SWAP3 SWAP2 SWAP1 SWAP3 PUSH2 0x1A06 JUMP JUMPDEST DUP1 PUSH2 0x1A4B PUSH1 0x1 SWAP3 PUSH2 0x240A JUMP JUMPDEST POP PUSH1 0xD PUSH2 0x1A5B PUSH1 0x40 MLOAD DUP1 SWAP4 PUSH2 0x24DA JUMP JUMPDEST SWAP2 DUP10 DUP2 DUP7 SWAP5 DUP6 DUP2 MSTORE SUB ADD SWAP1 KECCAK256 PUSH1 0x40 MLOAD SWAP3 PUSH2 0x1A74 DUP5 PUSH2 0x2148 JUMP JUMPDEST PUSH2 0x1A7D DUP3 PUSH2 0x2365 JUMP JUMPDEST DUP5 MSTORE DUP6 DUP1 PUSH1 0xA0 SHL SUB DUP1 SWAP2 DUP4 ADD SLOAD AND DUP12 DUP6 ADD MSTORE PUSH1 0x2 DUP3 ADD SLOAD PUSH1 0x40 DUP6 ADD MSTORE DUP8 DUP3 ADD SLOAD PUSH1 0x60 DUP6 ADD MSTORE PUSH1 0xFF PUSH1 0x4 DUP4 ADD SLOAD AND ISZERO ISZERO PUSH1 0x80 DUP6 ADD MSTORE PUSH2 0x1ABD PUSH1 0x5 DUP4 ADD PUSH2 0x2365 JUMP JUMPDEST PUSH1 0xA0 DUP6 ADD MSTORE PUSH1 0x6 DUP3 ADD SLOAD PUSH1 0xC0 DUP6 ADD MSTORE PUSH1 0x7 DUP3 ADD SLOAD DUP8 DUP6 ADD MSTORE PUSH2 0x1AE1 PUSH1 0x8 DUP4 ADD PUSH2 0x2365 JUMP JUMPDEST PUSH2 0x100 DUP6 ADD MSTORE PUSH2 0x1AF3 PUSH1 0x9 DUP4 ADD PUSH2 0x2365 JUMP JUMPDEST PUSH2 0x120 DUP6 ADD MSTORE PUSH1 0xA DUP3 ADD SLOAD PUSH2 0x140 DUP6 ADD MSTORE PUSH1 0xB DUP3 ADD SLOAD AND PUSH2 0x160 DUP5 ADD MSTORE PUSH1 0xC DUP2 ADD SLOAD PUSH2 0x180 DUP5 ADD MSTORE ADD SLOAD PUSH2 0x1A0 DUP3 ADD MSTORE PUSH2 0x1B2D DUP3 DUP9 PUSH2 0x255E JUMP JUMPDEST MSTORE PUSH2 0x1B38 DUP2 DUP8 PUSH2 0x255E JUMP JUMPDEST POP ADD PUSH2 0x19DA JUMP JUMPDEST PUSH2 0x1B47 PUSH2 0x246E JUMP JUMPDEST DUP3 DUP3 DUP10 ADD ADD MSTORE ADD DUP7 SWAP1 PUSH2 0x19CD JUMP JUMPDEST CALLVALUE PUSH2 0x1A1 JUMPI PUSH1 0x0 CALLDATASIZE PUSH1 0x3 NOT ADD SLT PUSH2 0x1A1 JUMPI PUSH1 0x20 PUSH1 0x40 MLOAD PUSH1 0x2A DUP2 MSTORE RETURN JUMPDEST CALLVALUE PUSH2 0x1A1 JUMPI PUSH1 0x0 CALLDATASIZE PUSH1 0x3 NOT ADD SLT PUSH2 0x1A1 JUMPI PUSH1 0x0 DUP1 MLOAD PUSH1 0x20 PUSH2 0x2BBA DUP4 CODECOPY DUP2 MLOAD SWAP2 MSTORE SLOAD PUSH1 0x40 MLOAD PUSH1 0x1 PUSH1 0x1 PUSH1 0xA0 SHL SUB SWAP1 SWAP2 AND DUP2 MSTORE PUSH1 0x20 SWAP1 RETURN JUMPDEST CALLVALUE PUSH2 0x1A1 JUMPI PUSH1 0x0 CALLDATASIZE PUSH1 0x3 NOT ADD SLT PUSH2 0x1A1 JUMPI PUSH2 0x1BC0 PUSH2 0x295E JUMP JUMPDEST PUSH2 0x1BC8 PUSH2 0x2997 JUMP JUMPDEST PUSH1 0x0 DUP1 MLOAD PUSH1 0x20 PUSH2 0x2BDA DUP4 CODECOPY DUP2 MLOAD SWAP2 MSTORE PUSH1 0x1 PUSH1 0xFF NOT DUP3 SLOAD AND OR SWAP1 SSTORE PUSH32 0x62E78CEA01BEE320CD4E420270B5EA74000D11B0C9F74754EBDBFC544B05A258 PUSH1 0x20 PUSH1 0x40 MLOAD CALLER DUP2 MSTORE LOG1 STOP JUMPDEST CALLVALUE PUSH2 0x1A1 JUMPI PUSH1 0x0 CALLDATASIZE PUSH1 0x3 NOT ADD SLT PUSH2 0x1A1 JUMPI PUSH1 0x20 PUSH1 0x40 MLOAD PUSH1 0x64 DUP2 MSTORE RETURN JUMPDEST CALLVALUE PUSH2 0x1A1 JUMPI PUSH1 0x0 CALLDATASIZE PUSH1 0x3 NOT ADD SLT PUSH2 0x1A1 JUMPI PUSH2 0x1C43 PUSH2 0x295E JUMP JUMPDEST PUSH1 0x0 DUP1 MLOAD PUSH1 0x20 PUSH2 0x2BBA DUP4 CODECOPY DUP2 MLOAD SWAP2 MSTORE DUP1 SLOAD PUSH1 0x1 PUSH1 0x1 PUSH1 0xA0 SHL SUB NOT DUP2 AND SWAP1 SWAP2 SSTORE PUSH1 0x0 SWAP1 PUSH1 0x1 PUSH1 0x1 PUSH1 0xA0 SHL SUB AND PUSH32 0x8BE0079C531659141344CD1FD0A4F28419497F9722A3DAAFE3B4186F6B6457E0 DUP3 DUP1 LOG3 STOP JUMPDEST CALLVALUE PUSH2 0x1A1 JUMPI PUSH1 0x0 CALLDATASIZE PUSH1 0x3 NOT ADD SLT PUSH2 0x1A1 JUMPI PUSH1 0x20 PUSH1 0xFF PUSH1 0x0 DUP1 MLOAD PUSH1 0x20 PUSH2 0x2BDA DUP4 CODECOPY DUP2 MLOAD SWAP2 MSTORE SLOAD AND PUSH1 0x40 MLOAD SWAP1 ISZERO ISZERO DUP2 MSTORE RETURN JUMPDEST CALLVALUE PUSH2 0x1A1 JUMPI PUSH1 0x0 CALLDATASIZE PUSH1 0x3 NOT ADD SLT PUSH2 0x1A1 JUMPI PUSH1 0x3 SLOAD PUSH2 0x1CE1 DUP2 PUSH2 0x2457 JUMP JUMPDEST SWAP1 PUSH2 0x1CEF PUSH1 0x40 MLOAD SWAP3 DUP4 PUSH2 0x217F JUMP JUMPDEST DUP1 DUP3 MSTORE PUSH1 0x20 SWAP1 DUP2 DUP4 ADD SWAP1 DUP2 PUSH1 0x3 PUSH1 0x0 MSTORE PUSH32 0xC2575A0E9E593C00F959F8C92F12DB2869C3395A3B0502D05E2516446F71F85B PUSH1 0x0 SWAP2 JUMPDEST DUP4 DUP4 LT PUSH2 0x1D8B JUMPI POP POP POP POP PUSH1 0x40 MLOAD SWAP2 DUP1 DUP4 ADD SWAP4 DUP2 DUP5 MSTORE MLOAD DUP1 SWAP5 MSTORE PUSH1 0x40 DUP4 ADD SWAP4 PUSH1 0x40 DUP2 PUSH1 0x5 SHL DUP6 ADD ADD SWAP3 SWAP2 PUSH1 0x0 SWAP6 JUMPDEST DUP3 DUP8 LT PUSH2 0x1D5F JUMPI DUP6 DUP6 SUB DUP7 RETURN JUMPDEST SWAP1 SWAP2 SWAP3 SWAP4 DUP3 DUP1 PUSH2 0x1D7B PUSH1 0x1 SWAP4 PUSH1 0x3F NOT DUP11 DUP3 SUB ADD DUP7 MSTORE DUP9 MLOAD PUSH2 0x2215 JUMP JUMPDEST SWAP7 ADD SWAP3 ADD SWAP7 ADD SWAP6 SWAP3 SWAP2 SWAP1 SWAP3 PUSH2 0x1D52 JUMP JUMPDEST PUSH1 0x1 DUP7 DUP2 SWAP3 PUSH2 0x1D9C DUP6 SWAP11 SWAP10 SWAP11 PUSH2 0x2365 JUMP JUMPDEST DUP2 MSTORE ADD SWAP3 ADD SWAP3 ADD SWAP2 SWAP1 SWAP6 SWAP5 SWAP6 PUSH2 0x1D24 JUMP JUMPDEST CALLVALUE PUSH2 0x1A1 JUMPI PUSH1 0x0 CALLDATASIZE PUSH1 0x3 NOT ADD SLT PUSH2 0x1A1 JUMPI PUSH32 0x0 PUSH1 0x1 PUSH1 0x1 PUSH1 0xA0 SHL SUB AND ADDRESS SUB PUSH2 0x1E18 JUMPI PUSH1 0x20 PUSH1 0x40 MLOAD PUSH32 0x360894A13BA1A3210667C828492DB98DCA3E2076CC3735A920A3CA505D382BBC DUP2 MSTORE RETURN JUMPDEST PUSH1 0x40 MLOAD PUSH4 0x703E46DD PUSH1 0xE1 SHL DUP2 MSTORE PUSH1 0x4 SWAP1 REVERT JUMPDEST PUSH1 0x40 CALLDATASIZE PUSH1 0x3 NOT ADD SLT PUSH2 0x1A1 JUMPI PUSH2 0x1E3E PUSH2 0x2132 JUMP JUMPDEST PUSH1 0x24 CALLDATALOAD PUSH1 0x1 PUSH1 0x1 PUSH1 0x40 SHL SUB DUP2 GT PUSH2 0x1A1 JUMPI CALLDATASIZE PUSH1 0x23 DUP3 ADD SLT ISZERO PUSH2 0x1A1 JUMPI PUSH2 0x1E6E SWAP1 CALLDATASIZE SWAP1 PUSH1 0x24 DUP2 PUSH1 0x4 ADD CALLDATALOAD SWAP2 ADD PUSH2 0x21BB JUMP JUMPDEST SWAP1 PUSH1 0x1 PUSH1 0x1 PUSH1 0xA0 SHL SUB PUSH32 0x0 DUP2 AND ADDRESS DUP2 EQ SWAP1 DUP2 ISZERO PUSH2 0x202A JUMPI JUMPDEST POP PUSH2 0x1E18 JUMPI PUSH2 0x1EB2 PUSH2 0x295E JUMP JUMPDEST PUSH1 0x40 MLOAD PUSH4 0x52D1902D PUSH1 0xE0 SHL DUP2 MSTORE SWAP1 DUP3 AND SWAP2 PUSH1 0x20 SWAP2 DUP3 DUP2 PUSH1 0x4 DUP2 DUP8 GAS STATICCALL PUSH1 0x0 SWAP2 DUP2 PUSH2 0x1FFB JUMPI JUMPDEST POP PUSH2 0x1EF5 JUMPI PUSH1 0x40 MLOAD PUSH4 0x4C9C8CE3 PUSH1 0xE0 SHL DUP2 MSTORE PUSH1 0x4 DUP2 ADD DUP6 SWAP1 MSTORE PUSH1 0x24 SWAP1 REVERT JUMPDEST SWAP3 DUP5 SWAP4 PUSH32 0x360894A13BA1A3210667C828492DB98DCA3E2076CC3735A920A3CA505D382BBC SWAP1 DUP2 DUP2 SUB PUSH2 0x1FE3 JUMPI POP DUP3 EXTCODESIZE ISZERO PUSH2 0x1FCA JUMPI DUP1 SLOAD PUSH1 0x1 PUSH1 0x1 PUSH1 0xA0 SHL SUB NOT AND DUP3 OR SWAP1 SSTORE PUSH1 0x40 MLOAD SWAP1 PUSH32 0xBC7CD75A20EE27FD9ADEBAB32041F755214DBC6BFFA90CC0225B39DA2E5C2D3B PUSH1 0x0 DUP1 LOG2 DUP4 MLOAD ISZERO PUSH2 0x1FB0 JUMPI POP PUSH1 0x0 DUP1 DUP5 DUP5 PUSH2 0x463 SWAP7 MLOAD SWAP2 ADD DUP5 GAS DELEGATECALL SWAP1 RETURNDATASIZE ISZERO PUSH2 0x1FA7 JUMPI RETURNDATASIZE PUSH2 0x1F8A DUP2 PUSH2 0x21A0 JUMP JUMPDEST SWAP1 PUSH2 0x1F98 PUSH1 0x40 MLOAD SWAP3 DUP4 PUSH2 0x217F JUMP JUMPDEST DUP2 MSTORE PUSH1 0x0 DUP2 SWAP5 RETURNDATASIZE SWAP3 ADD RETURNDATACOPY PUSH2 0x2B36 JUMP JUMPDEST PUSH1 0x60 SWAP3 POP PUSH2 0x2B36 JUMP JUMPDEST SWAP3 POP POP POP CALLVALUE PUSH2 0x1FBB JUMPI STOP JUMPDEST PUSH4 0xB398979F PUSH1 0xE0 SHL DUP2 MSTORE PUSH1 0x4 SWAP1 REVERT JUMPDEST PUSH1 0x40 MLOAD PUSH4 0x4C9C8CE3 PUSH1 0xE0 SHL DUP2 MSTORE PUSH1 0x4 DUP2 ADD DUP4 SWAP1 MSTORE PUSH1 0x24 SWAP1 REVERT JUMPDEST PUSH1 0x24 SWAP1 PUSH1 0x40 MLOAD SWAP1 PUSH4 0x2A875269 PUSH1 0xE2 SHL DUP3 MSTORE PUSH1 0x4 DUP3 ADD MSTORE REVERT JUMPDEST SWAP1 SWAP2 POP DUP4 DUP2 DUP2 RETURNDATASIZE DUP4 GT PUSH2 0x2023 JUMPI JUMPDEST PUSH2 0x2013 DUP2 DUP4 PUSH2 0x217F JUMP JUMPDEST DUP2 ADD SUB SLT PUSH2 0x1A1 JUMPI MLOAD SWAP1 DUP7 PUSH2 0x1ED7 JUMP JUMPDEST POP RETURNDATASIZE PUSH2 0x2009 JUMP JUMPDEST SWAP1 POP DUP2 PUSH32 0x360894A13BA1A3210667C828492DB98DCA3E2076CC3735A920A3CA505D382BBC SLOAD AND EQ ISZERO DUP5 PUSH2 0x1EA5 JUMP JUMPDEST CALLVALUE PUSH2 0x1A1 JUMPI PUSH1 0x0 CALLDATASIZE PUSH1 0x3 NOT ADD SLT PUSH2 0x1A1 JUMPI PUSH2 0x2071 PUSH2 0x295E JUMP JUMPDEST PUSH1 0x0 DUP1 MLOAD PUSH1 0x20 PUSH2 0x2BDA DUP4 CODECOPY DUP2 MLOAD SWAP2 MSTORE DUP1 SLOAD PUSH1 0xFF DUP2 AND ISZERO PUSH2 0x20BD JUMPI PUSH1 0xFF NOT AND SWAP1 SSTORE PUSH32 0x5DB9EE0A495BF2E6FF9C91A7834C1BA4FDD244A5E8AA4E537BD38AEAE4B073AA PUSH1 0x20 PUSH1 0x40 MLOAD CALLER DUP2 MSTORE LOG1 STOP JUMPDEST PUSH1 0x40 MLOAD PUSH4 0x8DFC202B PUSH1 0xE0 SHL DUP2 MSTORE PUSH1 0x4 SWAP1 REVERT JUMPDEST CALLVALUE PUSH2 0x1A1 JUMPI PUSH1 0x0 CALLDATASIZE PUSH1 0x3 NOT ADD SLT PUSH2 0x1A1 JUMPI PUSH1 0x0 SLOAD PUSH1 0x40 MLOAD PUSH1 0x1 PUSH1 0x1 PUSH1 0xA0 SHL SUB SWAP1 SWAP2 AND DUP2 MSTORE PUSH1 0x20 SWAP1 RETURN JUMPDEST CALLVALUE PUSH2 0x1A1 JUMPI PUSH1 0x0 CALLDATASIZE PUSH1 0x3 NOT ADD SLT PUSH2 0x1A1 JUMPI PUSH1 0x20 PUSH1 0x40 MLOAD PUSH2 0x1388 DUP2 MSTORE RETURN JUMPDEST CALLVALUE PUSH2 0x1A1 JUMPI PUSH1 0x0 CALLDATASIZE PUSH1 0x3 NOT ADD SLT PUSH2 0x1A1 JUMPI DUP1 PUSH4 0x1E13380 PUSH1 0x20 SWAP3 MSTORE RETURN JUMPDEST PUSH1 0x4 CALLDATALOAD SWAP1 PUSH1 0x1 PUSH1 0x1 PUSH1 0xA0 SHL SUB DUP3 AND DUP3 SUB PUSH2 0x1A1 JUMPI JUMP JUMPDEST PUSH2 0x1C0 DUP2 ADD SWAP1 DUP2 LT PUSH1 0x1 PUSH1 0x1 PUSH1 0x40 SHL SUB DUP3 GT OR PUSH2 0x8D9 JUMPI PUSH1 0x40 MSTORE JUMP JUMPDEST PUSH1 0x40 DUP2 ADD SWAP1 DUP2 LT PUSH1 0x1 PUSH1 0x1 PUSH1 0x40 SHL SUB DUP3 GT OR PUSH2 0x8D9 JUMPI PUSH1 0x40 MSTORE JUMP JUMPDEST SWAP1 PUSH1 0x1F DUP1 NOT SWAP2 ADD AND DUP2 ADD SWAP1 DUP2 LT PUSH1 0x1 PUSH1 0x1 PUSH1 0x40 SHL SUB DUP3 GT OR PUSH2 0x8D9 JUMPI PUSH1 0x40 MSTORE JUMP JUMPDEST PUSH1 0x1 PUSH1 0x1 PUSH1 0x40 SHL SUB DUP2 GT PUSH2 0x8D9 JUMPI PUSH1 0x1F ADD PUSH1 0x1F NOT AND PUSH1 0x20 ADD SWAP1 JUMP JUMPDEST SWAP3 SWAP2 SWAP3 PUSH2 0x21C7 DUP3 PUSH2 0x21A0 JUMP JUMPDEST SWAP2 PUSH2 0x21D5 PUSH1 0x40 MLOAD SWAP4 DUP5 PUSH2 0x217F JUMP JUMPDEST DUP3 SWAP5 DUP2 DUP5 MSTORE DUP2 DUP4 ADD GT PUSH2 0x1A1 JUMPI DUP3 DUP2 PUSH1 0x20 SWAP4 DUP5 PUSH1 0x0 SWAP7 ADD CALLDATACOPY ADD ADD MSTORE JUMP JUMPDEST PUSH1 0x0 JUMPDEST DUP4 DUP2 LT PUSH2 0x2205 JUMPI POP POP PUSH1 0x0 SWAP2 ADD MSTORE JUMP JUMPDEST DUP2 DUP2 ADD MLOAD DUP4 DUP3 ADD MSTORE PUSH1 0x20 ADD PUSH2 0x21F5 JUMP JUMPDEST SWAP1 PUSH1 0x20 SWAP2 PUSH2 0x222E DUP2 MLOAD DUP1 SWAP3 DUP2 DUP6 MSTORE DUP6 DUP1 DUP7 ADD SWAP2 ADD PUSH2 0x21F2 JUMP JUMPDEST PUSH1 0x1F ADD PUSH1 0x1F NOT AND ADD ADD SWAP1 JUMP JUMPDEST SWAP1 PUSH2 0x224F PUSH2 0x1C0 DUP4 MLOAD SWAP1 DUP1 DUP5 MSTORE DUP4 ADD SWAP1 PUSH2 0x2215 JUMP JUMPDEST SWAP2 PUSH2 0x22DC PUSH2 0x22C8 PUSH2 0x22A0 PUSH1 0x20 DUP5 ADD MLOAD SWAP6 PUSH1 0x1 DUP1 PUSH1 0xA0 SHL SUB DUP1 SWAP8 AND PUSH1 0x20 DUP8 ADD MSTORE PUSH1 0x40 DUP6 ADD MLOAD PUSH1 0x40 DUP8 ADD MSTORE PUSH1 0x60 DUP6 ADD MLOAD PUSH1 0x60 DUP8 ADD MSTORE PUSH1 0x80 DUP6 ADD MLOAD ISZERO ISZERO PUSH1 0x80 DUP8 ADD MSTORE PUSH1 0xA0 DUP6 ADD MLOAD DUP7 DUP3 SUB PUSH1 0xA0 DUP9 ADD MSTORE PUSH2 0x2215 JUMP JUMPDEST PUSH1 0xC0 DUP5 ADD MLOAD PUSH1 0xC0 DUP7 ADD MSTORE PUSH1 0xE0 DUP5 ADD MLOAD PUSH1 0xE0 DUP7 ADD MSTORE PUSH2 0x100 DUP1 DUP6 ADD MLOAD SWAP1 DUP7 DUP4 SUB SWAP1 DUP8 ADD MSTORE PUSH2 0x2215 JUMP JUMPDEST PUSH2 0x120 DUP1 DUP5 ADD MLOAD SWAP1 DUP6 DUP4 SUB SWAP1 DUP7 ADD MSTORE PUSH2 0x2215 JUMP JUMPDEST SWAP3 PUSH2 0x140 DUP1 DUP4 ADD MLOAD SWAP1 DUP5 ADD MSTORE PUSH2 0x160 SWAP1 DUP2 DUP4 ADD MLOAD AND SWAP1 DUP4 ADD MSTORE PUSH2 0x180 DUP1 DUP3 ADD MLOAD SWAP1 DUP4 ADD MSTORE PUSH2 0x1A0 DUP1 SWAP2 ADD MLOAD SWAP2 ADD MSTORE SWAP1 JUMP JUMPDEST SWAP1 DUP1 PUSH1 0x1F DUP4 ADD SLT ISZERO PUSH2 0x1A1 JUMPI DUP2 PUSH1 0x20 PUSH2 0x2328 SWAP4 CALLDATALOAD SWAP2 ADD PUSH2 0x21BB JUMP JUMPDEST SWAP1 JUMP JUMPDEST SWAP1 PUSH1 0x1 DUP3 DUP2 SHR SWAP3 AND DUP1 ISZERO PUSH2 0x235B JUMPI JUMPDEST PUSH1 0x20 DUP4 LT EQ PUSH2 0x2345 JUMPI JUMP JUMPDEST PUSH4 0x4E487B71 PUSH1 0xE0 SHL PUSH1 0x0 MSTORE PUSH1 0x22 PUSH1 0x4 MSTORE PUSH1 0x24 PUSH1 0x0 REVERT JUMPDEST SWAP2 PUSH1 0x7F AND SWAP2 PUSH2 0x233A JUMP JUMPDEST SWAP1 PUSH1 0x40 MLOAD SWAP2 DUP3 PUSH1 0x0 DUP3 SLOAD PUSH2 0x2378 DUP2 PUSH2 0x232B JUMP JUMPDEST SWAP1 DUP2 DUP5 MSTORE PUSH1 0x20 SWAP5 PUSH1 0x1 SWAP2 PUSH1 0x1 DUP2 AND SWAP1 DUP2 PUSH1 0x0 EQ PUSH2 0x23E8 JUMPI POP PUSH1 0x1 EQ PUSH2 0x23A9 JUMPI JUMPDEST POP POP POP PUSH2 0x23A7 SWAP3 POP SUB DUP4 PUSH2 0x217F JUMP JUMPDEST JUMP JUMPDEST PUSH1 0x0 SWAP1 DUP2 MSTORE DUP6 DUP2 KECCAK256 SWAP6 SWAP4 POP SWAP2 SWAP1 JUMPDEST DUP2 DUP4 LT PUSH2 0x23D0 JUMPI POP POP PUSH2 0x23A7 SWAP4 POP DUP3 ADD ADD CODESIZE DUP1 DUP1 PUSH2 0x2398 JUMP JUMPDEST DUP6 SLOAD DUP9 DUP5 ADD DUP6 ADD MSTORE SWAP5 DUP6 ADD SWAP5 DUP8 SWAP5 POP SWAP2 DUP4 ADD SWAP2 PUSH2 0x23B7 JUMP JUMPDEST SWAP3 POP POP POP PUSH2 0x23A7 SWAP5 SWAP3 POP PUSH1 0xFF NOT AND DUP3 DUP5 ADD MSTORE ISZERO ISZERO PUSH1 0x5 SHL DUP3 ADD ADD CODESIZE DUP1 DUP1 PUSH2 0x2398 JUMP JUMPDEST PUSH1 0x3 SLOAD DUP2 LT ISZERO PUSH2 0x2441 JUMPI PUSH1 0x3 PUSH1 0x0 MSTORE PUSH32 0xC2575A0E9E593C00F959F8C92F12DB2869C3395A3B0502D05E2516446F71F85B ADD SWAP1 PUSH1 0x0 SWAP1 JUMP JUMPDEST PUSH4 0x4E487B71 PUSH1 0xE0 SHL PUSH1 0x0 MSTORE PUSH1 0x32 PUSH1 0x4 MSTORE PUSH1 0x24 PUSH1 0x0 REVERT JUMPDEST PUSH1 0x1 PUSH1 0x1 PUSH1 0x40 SHL SUB DUP2 GT PUSH2 0x8D9 JUMPI PUSH1 0x5 SHL PUSH1 0x20 ADD SWAP1 JUMP JUMPDEST PUSH1 0x40 MLOAD SWAP1 PUSH2 0x247B DUP3 PUSH2 0x2148 JUMP JUMPDEST DUP2 PUSH1 0x60 DUP2 MSTORE PUSH2 0x1A0 PUSH1 0x0 SWAP2 DUP3 PUSH1 0x20 DUP3 ADD MSTORE DUP3 PUSH1 0x40 DUP3 ADD MSTORE DUP3 PUSH1 0x60 DUP3 ADD MSTORE DUP3 PUSH1 0x80 DUP3 ADD MSTORE PUSH1 0x60 PUSH1 0xA0 DUP3 ADD MSTORE DUP3 PUSH1 0xC0 DUP3 ADD MSTORE DUP3 PUSH1 0xE0 DUP3 ADD MSTORE PUSH1 0x60 PUSH2 0x100 DUP3 ADD MSTORE PUSH1 0x60 PUSH2 0x120 DUP3 ADD MSTORE DUP3 PUSH2 0x140 DUP3 ADD MSTORE DUP3 PUSH2 0x160 DUP3 ADD MSTORE DUP3 PUSH2 0x180 DUP3 ADD MSTORE ADD MSTORE JUMP JUMPDEST PUSH1 0x0 SWAP3 SWAP2 DUP2 SLOAD PUSH2 0x24E9 DUP2 PUSH2 0x232B JUMP JUMPDEST SWAP3 PUSH1 0x1 SWAP2 DUP1 DUP4 AND SWAP1 DUP2 ISZERO PUSH2 0x2543 JUMPI POP PUSH1 0x1 EQ PUSH2 0x2506 JUMPI JUMPDEST POP POP POP POP JUMP JUMPDEST SWAP1 SWAP2 SWAP3 SWAP4 SWAP5 POP PUSH1 0x0 MSTORE PUSH1 0x20 SWAP1 PUSH1 0x20 PUSH1 0x0 KECCAK256 SWAP1 PUSH1 0x0 SWAP2 JUMPDEST DUP6 DUP4 LT PUSH2 0x2532 JUMPI POP POP POP POP ADD SWAP1 CODESIZE DUP1 DUP1 DUP1 PUSH2 0x2500 JUMP JUMPDEST DUP1 SLOAD DUP6 DUP5 ADD MSTORE SWAP2 DUP4 ADD SWAP2 DUP2 ADD PUSH2 0x251C JUMP JUMPDEST PUSH1 0xFF NOT AND DUP5 MSTORE POP POP POP DUP2 ISZERO ISZERO SWAP1 SWAP2 MUL ADD SWAP2 POP CODESIZE DUP1 DUP1 DUP1 PUSH2 0x2500 JUMP JUMPDEST DUP1 MLOAD DUP3 LT ISZERO PUSH2 0x2441 JUMPI PUSH1 0x20 SWAP2 PUSH1 0x5 SHL ADD ADD SWAP1 JUMP JUMPDEST ISZERO PUSH2 0x2579 JUMPI JUMP JUMPDEST PUSH1 0x40 MLOAD PUSH3 0x461BCD PUSH1 0xE5 SHL DUP2 MSTORE PUSH1 0x20 PUSH1 0x4 DUP3 ADD MSTORE PUSH1 0x12 PUSH1 0x24 DUP3 ADD MSTORE PUSH18 0x4C6F616E206973206E6F7420616374697665 PUSH1 0x70 SHL PUSH1 0x44 DUP3 ADD MSTORE PUSH1 0x64 SWAP1 REVERT JUMPDEST ISZERO PUSH2 0x25BA JUMPI JUMP JUMPDEST PUSH1 0x40 MLOAD PUSH3 0x461BCD PUSH1 0xE5 SHL DUP2 MSTORE PUSH1 0x20 PUSH1 0x4 DUP3 ADD MSTORE PUSH1 0xD PUSH1 0x24 DUP3 ADD MSTORE PUSH13 0x2637B0B7103737BA1037B832B7 PUSH1 0x99 SHL PUSH1 0x44 DUP3 ADD MSTORE PUSH1 0x64 SWAP1 REVERT JUMPDEST DUP2 DUP2 LT PUSH2 0x25FA JUMPI POP POP JUMP JUMPDEST PUSH1 0x0 DUP2 SSTORE PUSH1 0x1 ADD PUSH2 0x25EF JUMP JUMPDEST SWAP1 PUSH1 0x1F DUP2 GT PUSH2 0x2613 JUMPI POP POP JUMP JUMPDEST PUSH2 0x23A7 SWAP2 PUSH1 0x0 MSTORE PUSH1 0x1F PUSH1 0x20 PUSH1 0x0 KECCAK256 SWAP2 ADD PUSH1 0x5 SHR DUP2 ADD SWAP1 PUSH2 0x25EF JUMP JUMPDEST SWAP2 SWAP1 PUSH1 0x1F DUP2 GT PUSH2 0x263D JUMPI POP POP POP JUMP JUMPDEST PUSH2 0x23A7 SWAP3 PUSH1 0x0 MSTORE PUSH1 0x20 PUSH1 0x0 KECCAK256 SWAP1 PUSH1 0x20 PUSH1 0x1F DUP5 ADD PUSH1 0x5 SHR DUP4 ADD SWAP4 LT PUSH2 0x2669 JUMPI JUMPDEST PUSH1 0x1F ADD PUSH1 0x5 SHR ADD SWAP1 PUSH2 0x25EF JUMP JUMPDEST SWAP1 SWAP2 POP DUP2 SWAP1 PUSH2 0x265C JUMP JUMPDEST SWAP2 SWAP1 DUP3 ADD DUP1 SWAP3 GT PUSH2 0x981 JUMPI JUMP JUMPDEST SWAP1 DUP1 DUP3 EQ PUSH2 0x2760 JUMPI PUSH2 0x2692 DUP2 SLOAD PUSH2 0x232B JUMP JUMPDEST SWAP1 PUSH1 0x1 PUSH1 0x1 PUSH1 0x40 SHL SUB DUP3 GT PUSH2 0x8D9 JUMPI PUSH2 0x26B5 DUP3 PUSH2 0x26AF DUP6 SLOAD PUSH2 0x232B JUMP JUMPDEST DUP6 PUSH2 0x262E JUMP JUMPDEST PUSH1 0x0 SWAP1 PUSH1 0x1F DUP4 GT PUSH1 0x1 EQ PUSH2 0x26F5 JUMPI PUSH2 0x26E6 SWAP3 SWAP2 PUSH1 0x0 SWAP2 DUP4 PUSH2 0x26EA JUMPI JUMPDEST POP POP DUP2 PUSH1 0x1 SHL SWAP2 PUSH1 0x0 NOT SWAP1 PUSH1 0x3 SHL SHR NOT AND OR SWAP1 JUMP JUMPDEST SWAP1 SSTORE JUMP JUMPDEST ADD SLOAD SWAP1 POP CODESIZE DUP1 PUSH2 0x26D1 JUMP JUMPDEST DUP2 MSTORE PUSH1 0x20 DUP1 DUP3 KECCAK256 DUP5 DUP4 MSTORE DUP2 DUP4 KECCAK256 SWAP3 SWAP2 PUSH1 0x1F NOT DUP6 AND SWAP1 DUP4 SWAP1 JUMPDEST DUP3 DUP3 LT PUSH2 0x2747 JUMPI POP POP SWAP1 DUP5 PUSH1 0x1 SWAP6 SWAP5 SWAP4 SWAP3 LT PUSH2 0x272E JUMPI JUMPDEST POP POP POP DUP2 SHL ADD SWAP1 SSTORE JUMP JUMPDEST ADD SLOAD PUSH1 0x0 NOT PUSH1 0xF8 DUP5 PUSH1 0x3 SHL AND SHR NOT AND SWAP1 SSTORE CODESIZE DUP1 DUP1 PUSH2 0x2724 JUMP JUMPDEST DUP5 SWAP6 DUP2 SWAP3 SWAP6 DUP6 ADD SLOAD DUP2 SSTORE PUSH1 0x1 DUP1 SWAP2 ADD SWAP7 ADD SWAP5 ADD SWAP1 PUSH2 0x270D JUMP JUMPDEST POP POP JUMP JUMPDEST DUP2 DUP2 MUL SWAP3 SWAP2 DUP2 ISZERO SWAP2 DUP5 DIV EQ OR ISZERO PUSH2 0x981 JUMPI JUMP JUMPDEST PUSH2 0x278F SWAP1 PUSH1 0x20 PUSH1 0x40 MLOAD SWAP3 DUP3 DUP5 DUP1 SWAP5 MLOAD SWAP4 DUP5 SWAP3 ADD PUSH2 0x21F2 JUMP JUMPDEST DUP2 ADD SUB SWAP1 KECCAK256 SWAP1 JUMP JUMPDEST ISZERO PUSH2 0x279E JUMPI JUMP JUMPDEST PUSH1 0x40 MLOAD PUSH3 0x461BCD PUSH1 0xE5 SHL DUP2 MSTORE PUSH1 0x20 PUSH1 0x4 DUP3 ADD MSTORE PUSH1 0xF PUSH1 0x24 DUP3 ADD MSTORE PUSH15 0x131BD85B881B9BDD08199D5B991959 PUSH1 0x8A SHL PUSH1 0x44 DUP3 ADD MSTORE PUSH1 0x64 SWAP1 REVERT JUMPDEST ISZERO PUSH2 0x27DC JUMPI JUMP JUMPDEST PUSH1 0x40 MLOAD PUSH3 0x461BCD PUSH1 0xE5 SHL DUP2 MSTORE PUSH1 0x20 PUSH1 0x4 DUP3 ADD MSTORE PUSH1 0x1A PUSH1 0x24 DUP3 ADD MSTORE PUSH32 0x496E73756666696369656E7420574545444C2062616C616E6365000000000000 PUSH1 0x44 DUP3 ADD MSTORE PUSH1 0x64 SWAP1 REVERT JUMPDEST SWAP2 SWAP1 SWAP2 DUP3 MLOAD PUSH1 0x1 PUSH1 0x1 PUSH1 0x40 SHL SUB DUP2 GT PUSH2 0x8D9 JUMPI PUSH2 0x2848 DUP2 PUSH2 0x2842 DUP5 SLOAD PUSH2 0x232B JUMP JUMPDEST DUP5 PUSH2 0x262E JUMP JUMPDEST PUSH1 0x20 DUP1 PUSH1 0x1F DUP4 GT PUSH1 0x1 EQ PUSH2 0x2886 JUMPI POP DUP2 SWAP1 PUSH2 0x26E6 SWAP4 SWAP5 SWAP6 PUSH1 0x0 SWAP3 PUSH2 0x287B JUMPI POP POP DUP2 PUSH1 0x1 SHL SWAP2 PUSH1 0x0 NOT SWAP1 PUSH1 0x3 SHL SHR NOT AND OR SWAP1 JUMP JUMPDEST ADD MLOAD SWAP1 POP CODESIZE DUP1 PUSH2 0x26D1 JUMP JUMPDEST SWAP1 PUSH1 0x1F NOT DUP4 AND SWAP6 DUP5 PUSH1 0x0 MSTORE PUSH1 0x20 PUSH1 0x0 KECCAK256 SWAP3 PUSH1 0x0 SWAP1 JUMPDEST DUP9 DUP3 LT PUSH2 0x28D2 JUMPI POP POP DUP4 PUSH1 0x1 SWAP6 SWAP7 SWAP8 LT PUSH2 0x28B9 JUMPI POP POP POP DUP2 SHL ADD SWAP1 SSTORE JUMP JUMPDEST ADD MLOAD PUSH1 0x0 NOT PUSH1 0xF8 DUP5 PUSH1 0x3 SHL AND SHR NOT AND SWAP1 SSTORE CODESIZE DUP1 DUP1 PUSH2 0x2724 JUMP JUMPDEST DUP1 PUSH1 0x1 DUP6 SWAP7 DUP3 SWAP5 SWAP7 DUP7 ADD MLOAD DUP2 SSTORE ADD SWAP6 ADD SWAP4 ADD SWAP1 PUSH2 0x289B JUMP JUMPDEST PUSH1 0x1 PUSH1 0x1 PUSH1 0xA0 SHL SUB SWAP1 DUP2 AND SWAP1 DUP2 ISZERO PUSH2 0x2945 JUMPI PUSH1 0x0 DUP1 MLOAD PUSH1 0x20 PUSH2 0x2BBA DUP4 CODECOPY DUP2 MLOAD SWAP2 MSTORE DUP1 SLOAD PUSH1 0x1 PUSH1 0x1 PUSH1 0xA0 SHL SUB NOT DUP2 AND DUP5 OR SWAP1 SWAP2 SSTORE AND PUSH32 0x8BE0079C531659141344CD1FD0A4F28419497F9722A3DAAFE3B4186F6B6457E0 PUSH1 0x0 DUP1 LOG3 JUMP JUMPDEST PUSH1 0x40 MLOAD PUSH4 0x1E4FBDF7 PUSH1 0xE0 SHL DUP2 MSTORE PUSH1 0x0 PUSH1 0x4 DUP3 ADD MSTORE PUSH1 0x24 SWAP1 REVERT JUMPDEST PUSH1 0x0 DUP1 MLOAD PUSH1 0x20 PUSH2 0x2BBA DUP4 CODECOPY DUP2 MLOAD SWAP2 MSTORE SLOAD PUSH1 0x1 PUSH1 0x1 PUSH1 0xA0 SHL SUB AND CALLER SUB PUSH2 0x297F JUMPI JUMP JUMPDEST PUSH1 0x40 MLOAD PUSH4 0x118CDAA7 PUSH1 0xE0 SHL DUP2 MSTORE CALLER PUSH1 0x4 DUP3 ADD MSTORE PUSH1 0x24 SWAP1 REVERT JUMPDEST PUSH1 0xFF PUSH1 0x0 DUP1 MLOAD PUSH1 0x20 PUSH2 0x2BDA DUP4 CODECOPY DUP2 MLOAD SWAP2 MSTORE SLOAD AND PUSH2 0x29B0 JUMPI JUMP JUMPDEST PUSH1 0x40 MLOAD PUSH4 0xD93C0665 PUSH1 0xE0 SHL DUP2 MSTORE PUSH1 0x4 SWAP1 REVERT JUMPDEST PUSH1 0x0 DUP1 MLOAD PUSH1 0x20 PUSH2 0x2BFA DUP4 CODECOPY DUP2 MLOAD SWAP2 MSTORE PUSH1 0x2 DUP2 SLOAD EQ PUSH2 0x29E0 JUMPI PUSH1 0x2 SWAP1 SSTORE JUMP JUMPDEST PUSH1 0x40 MLOAD PUSH4 0x3EE5AEB5 PUSH1 0xE0 SHL DUP2 MSTORE PUSH1 0x4 SWAP1 REVERT JUMPDEST PUSH1 0x40 MLOAD PUSH4 0xA9059CBB PUSH1 0xE0 SHL PUSH1 0x20 DUP3 ADD MSTORE PUSH1 0x1 PUSH1 0x1 PUSH1 0xA0 SHL SUB SWAP1 SWAP3 AND PUSH1 0x24 DUP4 ADD MSTORE PUSH1 0x44 DUP1 DUP4 ADD SWAP4 SWAP1 SWAP4 MSTORE SWAP2 DUP2 MSTORE PUSH1 0x80 DUP2 ADD SWAP2 PUSH1 0x1 PUSH1 0x1 PUSH1 0x40 SHL SUB DUP4 GT DUP3 DUP5 LT OR PUSH2 0x8D9 JUMPI PUSH2 0x23A7 SWAP3 PUSH1 0x40 MSTORE PUSH2 0x2ADA JUMP JUMPDEST PUSH1 0x40 MLOAD PUSH4 0x23B872DD PUSH1 0xE0 SHL PUSH1 0x20 DUP3 ADD MSTORE PUSH1 0x1 PUSH1 0x1 PUSH1 0xA0 SHL SUB SWAP3 DUP4 AND PUSH1 0x24 DUP3 ADD MSTORE SWAP3 SWAP1 SWAP2 AND PUSH1 0x44 DUP4 ADD MSTORE PUSH1 0x64 DUP1 DUP4 ADD SWAP4 SWAP1 SWAP4 MSTORE SWAP2 DUP2 MSTORE PUSH1 0xA0 DUP2 ADD SWAP2 DUP2 DUP4 LT PUSH1 0x1 PUSH1 0x1 PUSH1 0x40 SHL SUB DUP5 GT OR PUSH2 0x8D9 JUMPI PUSH2 0x23A7 SWAP3 PUSH1 0x40 MSTORE PUSH2 0x2ADA JUMP JUMPDEST PUSH1 0xFF PUSH32 0xF0C57E16840DF040F15088DC2F81FE391C3923BEC73E23A9662EFC9C229C6A00 SLOAD PUSH1 0x40 SHR AND ISZERO PUSH2 0x2AC8 JUMPI JUMP JUMPDEST PUSH1 0x40 MLOAD PUSH4 0x1AFCD79F PUSH1 0xE3 SHL DUP2 MSTORE PUSH1 0x4 SWAP1 REVERT JUMPDEST SWAP1 PUSH1 0x0 PUSH1 0x20 SWAP2 DUP3 DUP2 MLOAD SWAP2 ADD DUP3 DUP6 GAS CALL ISZERO PUSH2 0x3C9 JUMPI PUSH1 0x0 MLOAD RETURNDATASIZE PUSH2 0x2B2D JUMPI POP PUSH1 0x1 PUSH1 0x1 PUSH1 0xA0 SHL SUB DUP2 AND EXTCODESIZE ISZERO JUMPDEST PUSH2 0x2B0B JUMPI POP JUMP JUMPDEST PUSH1 0x40 MLOAD PUSH4 0x5274AFE7 PUSH1 0xE0 SHL DUP2 MSTORE PUSH1 0x1 PUSH1 0x1 PUSH1 0xA0 SHL SUB SWAP1 SWAP2 AND PUSH1 0x4 DUP3 ADD MSTORE PUSH1 0x24 SWAP1 REVERT JUMPDEST PUSH1 0x1 EQ ISZERO PUSH2 0x2B04 JUMP JUMPDEST SWAP1 PUSH2 0x2B5D JUMPI POP DUP1 MLOAD ISZERO PUSH2 0x2B4B JUMPI DUP1 MLOAD SWAP1 PUSH1 0x20 ADD REVERT JUMPDEST PUSH1 0x40 MLOAD PUSH4 0xD6BDA275 PUSH1 0xE0 SHL DUP2 MSTORE PUSH1 0x4 SWAP1 REVERT JUMPDEST DUP2 MLOAD ISZERO DUP1 PUSH2 0x2B90 JUMPI JUMPDEST PUSH2 0x2B6E JUMPI POP SWAP1 JUMP JUMPDEST PUSH1 0x40 MLOAD PUSH4 0x9996B315 PUSH1 0xE0 SHL DUP2 MSTORE PUSH1 0x1 PUSH1 0x1 PUSH1 0xA0 SHL SUB SWAP1 SWAP2 AND PUSH1 0x4 DUP3 ADD MSTORE PUSH1 0x24 SWAP1 REVERT JUMPDEST POP DUP1 EXTCODESIZE ISZERO PUSH2 0x2B66 JUMP INVALID DUP11 PUSH28 0xE6B6D998757CDE134D68C5BC04568DBFD09AEDA7C427B92E33650217 EXTCODEHASH LOG4 SWAP1 AND 0xD0 SWAP14 PUSH19 0xD40FDAE2FD8CEAC6B6234C7706214FD39C1CD1 0xE6 MULMOD LOG0 MSTORE DUP13 NOT SWAP4 STOP 0xCD 0x5E 0xD1 0x5C PUSH15 0x187E77E9AEE88184C21F4F2182AB58 0x27 0xCB EXTCODESIZE PUSH31 0x7FBEDCD63F033009B779B17422D0DF92223018B32B4D1FA46E071723D6817 0xE2 BASEFEE PUSH14 0x3BECC55F00A264697066735822 SLT KECCAK256 0xB7 PUSH6 0x66590C935BE2 PUSH1 0x1D SWAP3 DUP14 0xD4 BALANCE EXP SMOD OR SELFDESTRUCT DELEGATECALL PUSH26 0xB2B6563E8A5E6610449717CF64736F6C63430008160033000000 "},"methodIdentifiers":{"FEE_BASIS_POINTS()":"a525ad3c","MAX_INTEREST_RATE()":"34855d14","MAX_LOAN_DURATION()":"0d0b2ca6","MIN_COLLATERAL_RATIO()":"7a9fffb7","UPGRADE_INTERFACE_VERSION()":"ad3cb1cc","cancelLoan(string)":"c70f2e2b","claimCollateral(string)":"e287183a","createLoan(string,uint256,uint256,string,uint256,string,uint256,uint256)":"eb4dc6fa","fundLoan(string)":"f897eeba","getAllLoanIds()":"5c1bf865","getAllLoans()":"a5bfd16a","getLoan(string)":"c47d2586","initialize(address)":"c4d66de8","loanIds(uint256)":"f8715a42","loans(string)":"c6141f63","owner()":"8da5cb5b","pause()":"8456cb59","paused()":"5c975abb","proxiableUUID()":"52d1902d","renounceOwnership()":"715018a6","repayLoan(string,uint256)":"de68dbd4","transferOwnership(address)":"f2fde38b","unpause()":"3f4ba83a","upgradeToAndCall(address,bytes)":"4f1ef286","usedLoanIds(string)":"fe6f8b76","weedlToken()":"3b9c8cfe"}},"storageLayout":{"storage":[{"astId":2390,"contract":"contracts/GreenFiLoan.sol:GreenFiLoan","label":"weedlToken","offset":0,"slot":"0","type":"t_contract(IERC20)1482"},{"astId":2436,"contract":"contracts/GreenFiLoan.sol:GreenFiLoan","label":"loans","offset":0,"slot":"1","type":"t_mapping(t_string_memory_ptr,t_struct(CannabisLoan)2431_storage)"},{"astId":2440,"contract":"contracts/GreenFiLoan.sol:GreenFiLoan","label":"usedLoanIds","offset":0,"slot":"2","type":"t_mapping(t_string_memory_ptr,t_bool)"},{"astId":2443,"contract":"contracts/GreenFiLoan.sol:GreenFiLoan","label":"loanIds","offset":0,"slot":"3","type":"t_array(t_string_storage)dyn_storage"}],"types":{"t_address":{"encoding":"inplace","label":"address","numberOfBytes":"20"},"t_array(t_string_storage)dyn_storage":{"base":"t_string_storage","encoding":"dynamic_array","label":"string[]","numberOfBytes":"32"},"t_bool":{"encoding":"inplace","label":"bool","numberOfBytes":"1"},"t_contract(IERC20)1482":{"encoding":"inplace","label":"contract IERC20","numberOfBytes":"20"},"t_mapping(t_string_memory_ptr,t_bool)":{"encoding":"mapping","key":"t_string_memory_ptr","label":"mapping(string => bool)","numberOfBytes":"32","value":"t_bool"},"t_mapping(t_string_memory_ptr,t_struct(CannabisLoan)2431_storage)":{"encoding":"mapping","key":"t_string_memory_ptr","label":"mapping(string => struct GreenFiLoan.CannabisLoan)","numberOfBytes":"32","value":"t_struct(CannabisLoan)2431_storage"},"t_string_memory_ptr":{"encoding":"bytes","label":"string","numberOfBytes":"32"},"t_string_storage":{"encoding":"bytes","label":"string","numberOfBytes":"32"},"t_struct(CannabisLoan)2431_storage":{"encoding":"inplace","label":"struct GreenFiLoan.CannabisLoan","members":[{"astId":2404,"contract":"contracts/GreenFiLoan.sol:GreenFiLoan","label":"id","offset":0,"slot":"0","type":"t_string_storage"},{"astId":2406,"contract":"contracts/GreenFiLoan.sol:GreenFiLoan","label":"grower","offset":0,"slot":"1","type":"t_address"},{"astId":2408,"contract":"contracts/GreenFiLoan.sol:GreenFiLoan","label":"amount","offset":0,"slot":"2","type":"t_uint256"},{"astId":2410,"contract":"contracts/GreenFiLoan.sol:GreenFiLoan","label":"duration","offset":0,"slot":"3","type":"t_uint256"},{"astId":2412,"contract":"contracts/GreenFiLoan.sol:GreenFiLoan","label":"isActive","offset":0,"slot":"4","type":"t_bool"},{"astId":2414,"contract":"contracts/GreenFiLoan.sol:GreenFiLoan","label":"contactInfo","offset":0,"slot":"5","type":"t_string_storage"},{"astId":2416,"contract":"contracts/GreenFiLoan.sol:GreenFiLoan","label":"fee","offset":0,"slot":"6","type":"t_uint256"},{"astId":2418,"contract":"contracts/GreenFiLoan.sol:GreenFiLoan","label":"createdAt","offset":0,"slot":"7","type":"t_uint256"},{"astId":2420,"contract":"contracts/GreenFiLoan.sol:GreenFiLoan","label":"growPurpose","offset":0,"slot":"8","type":"t_string_storage"},{"astId":2422,"contract":"contracts/GreenFiLoan.sol:GreenFiLoan","label":"status","offset":0,"slot":"9","type":"t_string_storage"},{"astId":2424,"contract":"contracts/GreenFiLoan.sol:GreenFiLoan","label":"collateralAmount","offset":0,"slot":"10","type":"t_uint256"},{"astId":2426,"contract":"contracts/GreenFiLoan.sol:GreenFiLoan","label":"lender","offset":0,"slot":"11","type":"t_address"},{"astId":2428,"contract":"contracts/GreenFiLoan.sol:GreenFiLoan","label":"repaidAmount","offset":0,"slot":"12","type":"t_uint256"},{"astId":2430,"contract":"contracts/GreenFiLoan.sol:GreenFiLoan","label":"interestRate","offset":0,"slot":"13","type":"t_uint256"}],"numberOfBytes":"448"},"t_uint256":{"encoding":"inplace","label":"uint256","numberOfBytes":"32"}}}}}}