{"contracts/GreenFiLoan.sol":{"GreenFiLoan":{"abi":[{"inputs":[],"stateMutability":"nonpayable","type":"constructor"},{"inputs":[{"internalType":"address","name":"target","type":"address"}],"name":"AddressEmptyCode","type":"error"},{"inputs":[{"internalType":"address","name":"implementation","type":"address"}],"name":"ERC1967InvalidImplementation","type":"error"},{"inputs":[],"name":"ERC1967NonPayable","type":"error"},{"inputs":[],"name":"EnforcedPause","type":"error"},{"inputs":[],"name":"ExpectedPause","type":"error"},{"inputs":[],"name":"FailedCall","type":"error"},{"inputs":[],"name":"InvalidInitialization","type":"error"},{"inputs":[],"name":"NotInitializing","type":"error"},{"inputs":[{"internalType":"address","name":"owner","type":"address"}],"name":"OwnableInvalidOwner","type":"error"},{"inputs":[{"internalType":"address","name":"account","type":"address"}],"name":"OwnableUnauthorizedAccount","type":"error"},{"inputs":[],"name":"ReentrancyGuardReentrantCall","type":"error"},{"inputs":[{"internalType":"address","name":"token","type":"address"}],"name":"SafeERC20FailedOperation","type":"error"},{"inputs":[],"name":"UUPSUnauthorizedCallContext","type":"error"},{"inputs":[{"internalType":"bytes32","name":"slot","type":"bytes32"}],"name":"UUPSUnsupportedProxiableUUID","type":"error"},{"anonymous":false,"inputs":[{"indexed":true,"internalType":"string","name":"id","type":"string"},{"indexed":true,"internalType":"address","name":"grower","type":"address"},{"indexed":false,"internalType":"string","name":"reason","type":"string"}],"name":"CollateralApprovalFailed","type":"event"},{"anonymous":false,"inputs":[{"indexed":true,"internalType":"string","name":"id","type":"string"},{"indexed":true,"internalType":"address","name":"grower","type":"address"}],"name":"CollateralApproved","type":"event"},{"anonymous":false,"inputs":[{"indexed":true,"internalType":"string","name":"id","type":"string"},{"indexed":true,"internalType":"address","name":"lender","type":"address"}],"name":"CollateralClaimed","type":"event"},{"anonymous":false,"inputs":[{"indexed":false,"internalType":"uint64","name":"version","type":"uint64"}],"name":"Initialized","type":"event"},{"anonymous":false,"inputs":[{"indexed":true,"internalType":"string","name":"id","type":"string"},{"indexed":true,"internalType":"address","name":"grower","type":"address"}],"name":"LoanCanceled","type":"event"},{"anonymous":false,"inputs":[{"indexed":true,"internalType":"string","name":"id","type":"string"},{"indexed":true,"internalType":"address","name":"grower","type":"address"},{"indexed":false,"internalType":"uint256","name":"amount","type":"uint256"},{"indexed":false,"internalType":"uint256","name":"duration","type":"uint256"},{"indexed":false,"internalType":"string","name":"contactInfo","type":"string"},{"indexed":false,"internalType":"uint256","name":"fee","type":"uint256"},{"indexed":false,"internalType":"string","name":"growPurpose","type":"string"},{"indexed":false,"internalType":"uint256","name":"collateralAmount","type":"uint256"},{"indexed":true,"internalType":"uint256","name":"interestRate","type":"uint256"},{"indexed":false,"internalType":"string","name":"repaymentSchedule","type":"string"}],"name":"LoanCreated","type":"event"},{"anonymous":false,"inputs":[{"indexed":true,"internalType":"string","name":"id","type":"string"},{"indexed":true,"internalType":"address","name":"lender","type":"address"},{"indexed":true,"internalType":"address","name":"grower","type":"address"}],"name":"LoanFunded","type":"event"},{"anonymous":false,"inputs":[{"indexed":true,"internalType":"string","name":"id","type":"string"},{"indexed":true,"internalType":"address","name":"grower","type":"address"},{"indexed":false,"internalType":"uint256","name":"amount","type":"uint256"},{"indexed":false,"internalType":"uint256","name":"interest","type":"uint256"}],"name":"LoanRepaid","type":"event"},{"anonymous":false,"inputs":[{"indexed":true,"internalType":"string","name":"id","type":"string"},{"indexed":false,"internalType":"string","name":"status","type":"string"}],"name":"LoanStatusChanged","type":"event"},{"anonymous":false,"inputs":[{"indexed":true,"internalType":"address","name":"previousOwner","type":"address"},{"indexed":true,"internalType":"address","name":"newOwner","type":"address"}],"name":"OwnershipTransferred","type":"event"},{"anonymous":false,"inputs":[{"indexed":false,"internalType":"address","name":"account","type":"address"}],"name":"Paused","type":"event"},{"anonymous":false,"inputs":[{"indexed":true,"internalType":"string","name":"id","type":"string"},{"indexed":true,"internalType":"address","name":"grower","type":"address"},{"indexed":false,"internalType":"uint256","name":"amount","type":"uint256"},{"indexed":false,"internalType":"uint256","name":"paymentNumber","type":"uint256"}],"name":"PaymentMade","type":"event"},{"anonymous":false,"inputs":[{"indexed":false,"internalType":"address","name":"account","type":"address"}],"name":"Unpaused","type":"event"},{"anonymous":false,"inputs":[{"indexed":true,"internalType":"address","name":"implementation","type":"address"}],"name":"Upgraded","type":"event"},{"inputs":[],"name":"FEE_BASIS_POINTS","outputs":[{"internalType":"uint256","name":"","type":"uint256"}],"stateMutability":"view","type":"function"},{"inputs":[],"name":"GRACE_PERIOD","outputs":[{"internalType":"uint256","name":"","type":"uint256"}],"stateMutability":"view","type":"function"},{"inputs":[],"name":"MAX_INTEREST_RATE","outputs":[{"internalType":"uint256","name":"","type":"uint256"}],"stateMutability":"view","type":"function"},{"inputs":[],"name":"MAX_LOAN_DURATION","outputs":[{"internalType":"uint256","name":"","type":"uint256"}],"stateMutability":"view","type":"function"},{"inputs":[],"name":"MIN_COLLATERAL_RATIO","outputs":[{"internalType":"uint256","name":"","type":"uint256"}],"stateMutability":"view","type":"function"},{"inputs":[],"name":"MONTHLY_PERIOD","outputs":[{"internalType":"uint256","name":"","type":"uint256"}],"stateMutability":"view","type":"function"},{"inputs":[],"name":"QUARTERLY_PERIOD","outputs":[{"internalType":"uint256","name":"","type":"uint256"}],"stateMutability":"view","type":"function"},{"inputs":[],"name":"UPGRADE_INTERFACE_VERSION","outputs":[{"internalType":"string","name":"","type":"string"}],"stateMutability":"view","type":"function"},{"inputs":[],"name":"VERSION","outputs":[{"internalType":"uint256","name":"","type":"uint256"}],"stateMutability":"view","type":"function"},{"inputs":[],"name":"WEEDL_DECIMALS","outputs":[{"internalType":"uint256","name":"","type":"uint256"}],"stateMutability":"view","type":"function"},{"inputs":[{"internalType":"string","name":"_id","type":"string"}],"name":"approveCollateral","outputs":[],"stateMutability":"nonpayable","type":"function"},{"inputs":[{"internalType":"string","name":"_id","type":"string"}],"name":"cancelLoan","outputs":[],"stateMutability":"nonpayable","type":"function"},{"inputs":[{"internalType":"string","name":"_id","type":"string"}],"name":"claimCollateral","outputs":[],"stateMutability":"nonpayable","type":"function"},{"inputs":[{"internalType":"string","name":"_id","type":"string"},{"internalType":"uint256","name":"_amount","type":"uint256"},{"internalType":"uint256","name":"_duration","type":"uint256"},{"internalType":"string","name":"_contactInfo","type":"string"},{"internalType":"uint256","name":"_fee","type":"uint256"},{"internalType":"string","name":"_growPurpose","type":"string"},{"internalType":"uint256","name":"_collateralAmount","type":"uint256"},{"internalType":"uint256","name":"_interestRate","type":"uint256"},{"internalType":"string","name":"_repaymentSchedule","type":"string"}],"name":"createLoan","outputs":[],"stateMutability":"nonpayable","type":"function"},{"inputs":[{"internalType":"string","name":"_id","type":"string"}],"name":"fundLoan","outputs":[],"stateMutability":"nonpayable","type":"function"},{"inputs":[{"internalType":"uint256","name":"_offset","type":"uint256"},{"internalType":"uint256","name":"_limit","type":"uint256"}],"name":"getAllLoans","outputs":[{"components":[{"internalType":"string","name":"id","type":"string"},{"internalType":"address","name":"grower","type":"address"},{"internalType":"uint256","name":"amount","type":"uint256"},{"internalType":"uint256","name":"duration","type":"uint256"},{"internalType":"bool","name":"isActive","type":"bool"},{"internalType":"string","name":"contactInfo","type":"string"},{"internalType":"uint256","name":"fee","type":"uint256"},{"internalType":"uint256","name":"createdAt","type":"uint256"},{"internalType":"string","name":"growPurpose","type":"string"},{"internalType":"string","name":"status","type":"string"},{"internalType":"uint256","name":"collateralAmount","type":"uint256"},{"internalType":"address","name":"lender","type":"address"},{"internalType":"uint256","name":"repaidAmount","type":"uint256"},{"internalType":"uint256","name":"interestRate","type":"uint256"},{"internalType":"string","name":"repaymentSchedule","type":"string"},{"internalType":"bool","name":"collateralApproved","type":"bool"},{"internalType":"uint256","name":"nextPaymentDue","type":"uint256"},{"internalType":"uint256","name":"paymentsMade","type":"uint256"},{"internalType":"uint256","name":"totalPayments","type":"uint256"}],"internalType":"struct GreenFiLoan.CannabisLoan[]","name":"","type":"tuple[]"},{"internalType":"uint256","name":"","type":"uint256"}],"stateMutability":"view","type":"function"},{"inputs":[{"internalType":"address","name":"_grower","type":"address"}],"name":"getGrowerHistory","outputs":[{"internalType":"uint256","name":"","type":"uint256"},{"internalType":"uint256","name":"","type":"uint256"}],"stateMutability":"view","type":"function"},{"inputs":[{"internalType":"address","name":"_grower","type":"address"},{"internalType":"uint256","name":"_offset","type":"uint256"},{"internalType":"uint256","name":"_limit","type":"uint256"}],"name":"getGrowerLoans","outputs":[{"components":[{"internalType":"string","name":"id","type":"string"},{"internalType":"address","name":"grower","type":"address"},{"internalType":"uint256","name":"amount","type":"uint256"},{"internalType":"uint256","name":"duration","type":"uint256"},{"internalType":"bool","name":"isActive","type":"bool"},{"internalType":"string","name":"contactInfo","type":"string"},{"internalType":"uint256","name":"fee","type":"uint256"},{"internalType":"uint256","name":"createdAt","type":"uint256"},{"internalType":"string","name":"growPurpose","type":"string"},{"internalType":"string","name":"status","type":"string"},{"internalType":"uint256","name":"collateralAmount","type":"uint256"},{"internalType":"address","name":"lender","type":"address"},{"internalType":"uint256","name":"repaidAmount","type":"uint256"},{"internalType":"uint256","name":"interestRate","type":"uint256"},{"internalType":"string","name":"repaymentSchedule","type":"string"},{"internalType":"bool","name":"collateralApproved","type":"bool"},{"internalType":"uint256","name":"nextPaymentDue","type":"uint256"},{"internalType":"uint256","name":"paymentsMade","type":"uint256"},{"internalType":"uint256","name":"totalPayments","type":"uint256"}],"internalType":"struct GreenFiLoan.CannabisLoan[]","name":"","type":"tuple[]"},{"internalType":"uint256","name":"","type":"uint256"}],"stateMutability":"view","type":"function"},{"inputs":[{"internalType":"string","name":"_id","type":"string"}],"name":"getRepaymentStatus","outputs":[{"internalType":"uint256","name":"","type":"uint256"}],"stateMutability":"view","type":"function"},{"inputs":[{"internalType":"address","name":"","type":"address"}],"name":"growerLoanCount","outputs":[{"internalType":"uint256","name":"","type":"uint256"}],"stateMutability":"view","type":"function"},{"inputs":[{"internalType":"address","name":"","type":"address"},{"internalType":"uint256","name":"","type":"uint256"}],"name":"growerLoans","outputs":[{"internalType":"string","name":"","type":"string"}],"stateMutability":"view","type":"function"},{"inputs":[{"internalType":"address","name":"","type":"address"}],"name":"growerRepaidCount","outputs":[{"internalType":"uint256","name":"","type":"uint256"}],"stateMutability":"view","type":"function"},{"inputs":[{"internalType":"address","name":"_weedlToken","type":"address"}],"name":"initialize","outputs":[],"stateMutability":"nonpayable","type":"function"},{"inputs":[{"internalType":"string","name":"","type":"string"}],"name":"loans","outputs":[{"internalType":"string","name":"id","type":"string"},{"internalType":"address","name":"grower","type":"address"},{"internalType":"uint256","name":"amount","type":"uint256"},{"internalType":"uint256","name":"duration","type":"uint256"},{"internalType":"bool","name":"isActive","type":"bool"},{"internalType":"string","name":"contactInfo","type":"string"},{"internalType":"uint256","name":"fee","type":"uint256"},{"internalType":"uint256","name":"createdAt","type":"uint256"},{"internalType":"string","name":"growPurpose","type":"string"},{"internalType":"string","name":"status","type":"string"},{"internalType":"uint256","name":"collateralAmount","type":"uint256"},{"internalType":"address","name":"lender","type":"address"},{"internalType":"uint256","name":"repaidAmount","type":"uint256"},{"internalType":"uint256","name":"interestRate","type":"uint256"},{"internalType":"string","name":"repaymentSchedule","type":"string"},{"internalType":"bool","name":"collateralApproved","type":"bool"},{"internalType":"uint256","name":"nextPaymentDue","type":"uint256"},{"internalType":"uint256","name":"paymentsMade","type":"uint256"},{"internalType":"uint256","name":"totalPayments","type":"uint256"}],"stateMutability":"view","type":"function"},{"inputs":[],"name":"owner","outputs":[{"internalType":"address","name":"","type":"address"}],"stateMutability":"view","type":"function"},{"inputs":[],"name":"pause","outputs":[],"stateMutability":"nonpayable","type":"function"},{"inputs":[],"name":"paused","outputs":[{"internalType":"bool","name":"","type":"bool"}],"stateMutability":"view","type":"function"},{"inputs":[],"name":"proxiableUUID","outputs":[{"internalType":"bytes32","name":"","type":"bytes32"}],"stateMutability":"view","type":"function"},{"inputs":[],"name":"renounceOwnership","outputs":[],"stateMutability":"nonpayable","type":"function"},{"inputs":[{"internalType":"string","name":"_id","type":"string"},{"internalType":"uint256","name":"_paymentAmount","type":"uint256"}],"name":"repayLoan","outputs":[],"stateMutability":"nonpayable","type":"function"},{"inputs":[{"internalType":"string","name":"","type":"string"}],"name":"repaymentStatus","outputs":[{"internalType":"uint256","name":"","type":"uint256"}],"stateMutability":"view","type":"function"},{"inputs":[],"name":"totalLoanIds","outputs":[{"internalType":"uint256","name":"","type":"uint256"}],"stateMutability":"view","type":"function"},{"inputs":[{"internalType":"address","name":"newOwner","type":"address"}],"name":"transferOwnership","outputs":[],"stateMutability":"nonpayable","type":"function"},{"inputs":[],"name":"unpause","outputs":[],"stateMutability":"nonpayable","type":"function"},{"inputs":[{"internalType":"address","name":"newImplementation","type":"address"},{"internalType":"bytes","name":"data","type":"bytes"}],"name":"upgradeToAndCall","outputs":[],"stateMutability":"payable","type":"function"},{"inputs":[{"internalType":"string","name":"","type":"string"}],"name":"usedLoanIds","outputs":[{"internalType":"bool","name":"","type":"bool"}],"stateMutability":"view","type":"function"},{"inputs":[],"name":"weedlToken","outputs":[{"internalType":"contract IERC20","name":"","type":"address"}],"stateMutability":"view","type":"function"}],"evm":{"bytecode":{"linkReferences":{},"object":"60a08060405234620000d157306080527ff0c57e16840df040f15088dc2f81fe391c3923bec73e23a9662efc9c229c6a009081549060ff8260401c16620000c257506001600160401b036002600160401b0319828216016200007c575b6040516135ed9081620000d782396080518181816123a5015261245e0152f35b6001600160401b031990911681179091556040519081527fc7f505b2f371ae2175ee4913f4499e1f2633a7b5936321eed1cdaeb6115181d290602090a13880806200005c565b63f92ee8a960e01b8152600490fd5b600080fdfe610140604052600436101561001357600080fd5b60003560e01c80630d03811e146127b65780630d0b2ca61461279757806323fe30fb1461222c578063296882b6146127505780632bd45ac41461271657806334855d14146126f95780633b9c8cfe146126d05780633f4ba83a14612659578063441f949a1461263d5780634f1ef2861461240f57806352d1902d146123925780635c975abb14612362578063715018a6146122f85780637a9fffb7146122dc5780638456cb59146122755780638a48eb821461222c5780638da5cb5b146121f65780638e20f050146121d857806392a00c4f1461208e578063a525ad3c14612072578063ad3cb1cc1461202c578063ae0a151514612010578063b30c5fc314611ff2578063c14cfe7f14611fb8578063c1a287e214611f9a578063c44582d714611f5d578063c4d66de814611d93578063c6141f6314611b93578063c70f2e2b146118f2578063c8b0adaf14610ddd578063de68dbd414610827578063e287183a14610500578063f0433fb3146104e2578063f2fde38b146104b7578063f897eeba14610236578063fe6f8b76146101d55763ffa1ad74146101b457600080fd5b346101d05760003660031901126101d057602060405160018152f35b600080fd5b346101d05760203660031901126101d0576004356001600160401b0381116101d05760ff610220602061020d81943690600401612a35565b816040519382858094519384920161299b565b8101600281520301902054166040519015158152f35b346101d0576020806003193601126101d0576004356001600160401b0381116101d057610267903690600401612a35565b906102706131f3565b61027861321e565b6040518181845161028c818385890161299b565b81016001815203019020906102a760ff600484015416612bc9565b60098201926102fc604051838101906102d2816102c4848a612c0a565b03601f1981018352826128d5565b519020604051848101906327b832b760e11b8252600481526102f3816128ba565b51902014612c8e565b60ff600f8401541615610472576000546040516370a0823160e01b81523360048201526001600160a01b0394909184908390602490829089165afa91821561046657600092610423575b5091600080516020613538833981519152946103fc926103c6856103746002606099980193845411156130ad565b6103876103818b54612864565b8b613072565b65119d5b99195960d21b99600c8b019055600b8101336001600160601b0360a01b825416179055600184600054169101928484541690549133906132da565b5416336103d283612cca565b7f74b5814fe355ba520ea013b8cd67e3a8da7f4db3d413c0bb58f4ad047713a8b9600080a4612cca565b936006604051928084528301526040820152a2600160008051602061359883398151915255005b915092918282813d831161045f575b61043c81836128d5565b810103126101d05790519192909190600080516020613538833981519152610346565b503d610432565b6040513d6000823e3d90fd5b60405162461bcd60e51b815260048101839052601760248201527f436f6c6c61746572616c206e6f7420617070726f7665640000000000000000006044820152606490fd5b346101d05760203660031901126101d0576104e06104d3612820565b6104db6131ba565b613146565b005b346101d05760003660031901126101d05760206040516276a7008152f35b346101d0576020806003193601126101d0576004356001600160401b0381116101d057610531903690600401612a35565b6105396131f3565b61054161321e565b60405182818351610555818385880161299b565b810160018152030190206004810161057060ff825416612bc9565b600b8201546001600160a01b0390811633036107e45760098301926040516105df8782018261059f8289612c0a565b03926105b3601f19948581018352826128d5565b5190206040518981019065119d5b99195960d21b8252600681526105d6816128ba565b51902014613108565b6105f26007830154600384015490612d44565b4211908115610758575b501561070757600a01918254156106c95794610665600080516020613538833981519152936060936106b59861063b6106358954612864565b89613072565b68111959985d5b1d195960ba1b9760128901905560ff19815416905560005416905490339061324e565b3361066f86612cca565b7f9d99ebbd63ad66bd41d937add2c439545d27de0cfce044c210a62e86d9ab200f600080a361069d85612cca565b936009604051928084528301526040820152a261329d565b600160008051602061359883398151915255005b60405162461bcd60e51b81526004810187905260166024820152754e6f20636f6c6c61746572616c20746f20636c61696d60501b6044820152606490fd5b60405162461bcd60e51b8152600481018790526024808201527f4c6f616e206475726174696f6e206f72207061796d656e74206e6f74206578706044820152631a5c995960e21b6064820152608490fd5b905060405161077e888201928261077285600e8801612c0a565b039081018352826128d5565b51902060405187810190676f6e652d74696d6560c01b8252600881526107a3816128ba565b5190201415806107b4575b876105fc565b50601081015462093a8081018091116107ce5742116107ae565b634e487b7160e01b600052601160045260246000fd5b6064856040519062461bcd60e51b825280600483015260248201527f4f6e6c79206c656e6465722063616e20636c61696d20636f6c6c61746572616c6044820152fd5b346101d05760403660031901126101d0576004356001600160401b0381116101d057610857903690600401612a35565b61085f6131f3565b61086761321e565b604051602081835161087c818385880161299b565b810160018152030190209061089760ff600484015416612bc9565b60018201546001600160a01b03163303610da0576108eb60405160208101906108c7816102c48460098901612c0a565b519020604051602081019065119d5b99195960d21b8252600681526105d6816128ba565b60243515610d4a5760028201549161092664496cebb80061091e610913600d8501548761309a565b60038501549061309a565b048094612d44565b604051602081019061093f816102c484600e8801612c0a565b5190206040516020810190676f6e652d74696d6560c01b825260088152610965816128ba565b51902003610cbd57805b60243510610c78576000546040516370a0823160e01b8152336004820152906001600160a01b0316602082602481845afa91821561046657600092610c42575b506109c16109dd9260243511156130ad565b600b840154602435916001600160a01b039091169033906132da565b600c8201906109ef6024358354612d44565b809255816040516020818751610a088183858c0161299b565b81016007815203019020556011830191610a2283546130f9565b8093556040516020810190610a3e816102c484600e8a01612c0a565b5190206040516020810190676f6e652d74696d6560c01b825260088152610a64816128ba565b51902003610bd8575b610a7685612cca565b6040519060243582528460208301527f90f7f30f044f8a733026d1bb8dab5d8660408de5a6213c3f9b17b7265127de3b60403393a31090811591610bc9575b50610ace57600160008051602061359883398151915255005b610bc192610aeb610ae26009840154612864565b60098401613072565b60026514995c185a5960d21b92600c8401600982015560ff1960048201541660048201553360005260066020526040600020610b2781546130f9565b90556000546001820154600a830154610b4e9290916001600160a01b03908116911661324e565b015490610b5a84612cca565b9060405192835260208301527f3b62cc4e086a894a6c745362b81db744e8dd91af3eddccb44143e1f47ec952d060403393a36000805160206135388339815191526060610ba684612cca565b926040519060208252600660208301526040820152a261329d565b8080806106b5565b90506012820154111584610ab5565b6040516020810190610bf1816102c484600e8a01612c0a565b5190206040516020810190666d6f6e74686c7960c81b825260078152610c16816128ba565b51902003610c3657610c2c62278d005b42612d44565b6010850155610a6d565b610c2c6276a700610c26565b91506020823d602011610c70575b81610c5d602093836128d5565b810103126101d0579051906109c16109af565b3d9150610c50565b60405162461bcd60e51b815260206004820152601b60248201527f496e73756666696369656e74207061796d656e7420616d6f756e7400000000006044820152606490fd5b60128201548015610d34578104601083015462093a8081018091116107ce5742111561096f5760405162461bcd60e51b815260206004820152602360248201527f5061796d656e74206f766572647565206265796f6e64206772616365207065726044820152621a5bd960ea1b6064820152608490fd5b634e487b7160e01b600052601260045260246000fd5b60405162461bcd60e51b815260206004820152602860248201527f5061796d656e7420616d6f756e74206d7573742062652067726561746572207460448201526768616e207a65726f60c01b6064820152608490fd5b60405162461bcd60e51b81526020600482015260156024820152744f6e6c792067726f7765722063616e20726570617960581b6044820152606490fd5b346101d0576101203660031901126101d0576001600160401b036004358181116101d057610e0f903690600401612a35565b6064358281116101d057610e27903690600401612a35565b60a4358381116101d057610e3f903690600401612a35565b92610104359081116101d057610e59903690600401612a35565b610e616131f3565b610e6961321e565b602435156118ae5760443515158061189e575b15611859578251801515908161184d575b501561180f5781518015159081611803575b50156117be57835180151590816117b1575b501561176c5760c435156117135760e435151580611705575b156116b5576040516020810190610ef96020828551610eec8187858a0161299b565b81010380845201826128d5565b5190206040516020810190666d6f6e74686c7960c81b825260078152610f1e816128ba565b519020148015611667575b801561161a575b156115d55760ff6040516020818651610f4c8183858b0161299b565b81016002815203019020541661159957602a602435026024358104602a036107ce5761271090046084350361156657606460c4350260c43581046064036107ce576078602435029060243582046078036107ce5710611509576000546040516370a0823160e01b8152336004820152906001600160a01b0316602082602481845afa918215610466576000926114d3575b5061100561102392610ffe60c435610ff9608435602435612d44565b612d44565b11156130ad565b61101960c435610ff9608435602435612d44565b90309033906132da565b60405160208101906110406020828551610eec8187858a0161299b565b5190206040516020810190666d6f6e74686c7960c81b825260078152611065816128ba565b519020036114435762278d006044350180604435116107ce5762278cff60443501116107ce5762278d0062278cff60443501046110a562278d0042612d44565b90604051916110b38361289e565b85835233602084015260243560408401526044356060840152600160808401528460a084015260843560c08401524260e0840152866101008401526040516110fa816128ba565b600481526327b832b760e11b602082015261012084015260c4356101408401526000610160840152600061018084015260e4356101a0840152836101c084015260006101e08401526102008301526000610220830152610240820152601261024060405160208188516111708183858d0161299b565b8101600181520301902092611186815185613332565b6001840160018060a01b03602083015116906001600160601b0360a01b918282541617905560408201516002860155606082015160038601556111de60808301511515600487019060ff801983541691151516179055565b6111ef60a083015160058701613332565b60c0820151600686015560e0820151600786015561121561010083015160088701613332565b61122761012083015160098701613332565b610140820151600a860155600b85019060018060a01b036101608401511690825416179055610180810151600c8501556101a0810151600d8501556112746101c0820151600e8601613332565b6112946101e08201511515600f86019060ff801983541691151516179055565b610200810151601085015561022081015160118501550151910155336000526004602052604060002080546801000000000000000081101561142d576112df91600182018155612836565b949094611417576112f3846113d696613332565b60405160208186516113088183858b0161299b565b81016002815203019020600160ff198254161790556113286003546130f9565b600355336000526005602052604060002061134381546130f9565b90557ff97bbfc70340049b77f8f840e9e20604b487403f7e62ea696b741ee1267768886113ae61137286612cca565b92611398604051966024358852604435602089015260e0604089015260e08801906129be565b90608435606088015286820360808801526129be565b9360c43560a082015280850360c0820152806113ce60e4359633966129be565b0390a4612cca565b600080516020613538833981519152606060405160208152600460208201526327b832b760e11b6040820152a2600160008051602061359883398151915255005b634e487b7160e01b600052600060045260246000fd5b634e487b7160e01b600052604160045260246000fd5b60405160208101906114606020828551610eec8187858a0161299b565b519020604051602081019068717561727465726c7960b81b825260098152611487816128ba565b519020036114c6576276a7006044350180604435116107ce576276a6ff60443501116107ce576276a7006276a6ff60443501046110a56276a700610c26565b60016110a5604435610c26565b91506020823d602011611501575b816114ee602093836128d5565b810103126101d057905190611005610fdd565b3d91506114e1565b60405162461bcd60e51b815260206004820152602f60248201527f436f6c6c61746572616c206d757374206265206174206c65617374203132302560448201526e081bd9881b1bd85b88185b5bdd5b9d608a1b6064820152608490fd5b60405162461bcd60e51b815260206004820152600b60248201526a496e76616c69642066656560a81b6044820152606490fd5b60405162461bcd60e51b8152602060048201526014602482015273131bd85b88125108185b1c9958591e481d5cd95960621b6044820152606490fd5b60405162461bcd60e51b815260206004820152601a60248201527f496e76616c69642072657061796d656e74207363686564756c650000000000006044820152606490fd5b5060405160208101906116386020828551610eec8187858a0161299b565b5190206040516020810190676f6e652d74696d6560c01b82526008815261165e816128ba565b51902014610f30565b5060405160208101906116856020828551610eec8187858a0161299b565b519020604051602081019068717561727465726c7960b81b8252600981526116ac816128ba565b51902014610f29565b60405162461bcd60e51b815260206004820152602260248201527f496e7465726573742072617465206d757374206265203020746f203530252041604482015261282960f11b6064820152608490fd5b5061138860e4351115610eca565b60405162461bcd60e51b815260206004820152602b60248201527f436f6c6c61746572616c20616d6f756e74206d7573742062652067726561746560448201526a72207468616e207a65726f60a81b6064820152608490fd5b60405162461bcd60e51b815260206004820152601b60248201527f496e76616c69642067726f7720707572706f7365206c656e67746800000000006044820152606490fd5b6101009150111585610eb1565b60405162461bcd60e51b815260206004820152601b60248201527f496e76616c696420636f6e7461637420696e666f206c656e67746800000000006044820152606490fd5b60649150111585610e9f565b60405162461bcd60e51b8152602060048201526016602482015275092dcecc2d8d2c840d8dec2dc40928840d8cadccee8d60531b6044820152606490fd5b60209150111585610e8d565b60405162461bcd60e51b815260206004820152601e60248201527f4475726174696f6e206d757374206265203120746f20333635206461797300006044820152606490fd5b506301e133806044351115610e7c565b606460405162461bcd60e51b815260206004820152602060248201527f416d6f756e74206d7573742062652067726561746572207468616e207a65726f6044820152fd5b346101d0576020806003193601126101d0576004356001600160401b0381116101d057611923903690600401612a35565b61192b6131f3565b61193361321e565b60405182818351611947818385880161299b565b81016001815203019020600481019061196360ff835416612bc9565b60018101546001600160a01b03919082163303611b5557602460098201936119ba60405188810190611999816102c4848b612c0a565b519020604051898101906327b832b760e11b8252600481526102f3816128ba565b868460005416604051938480926370a0823160e01b82523060048301525afa91821561046657600092611b26575b506002830190815492611a11600a611a066006880196875490612d44565b960195865490612d44565b11611ae15793611a85606094611a7d6106b59a95611a919560008051602061353883398151915299611a4c611a468d54612864565b8d613072565b60106710d85b98d95b195960c21b01909b558a5460ff1916909a55985498546710d85b98d95b195960c21b99612d44565b905490612d44565b9033906000541661324e565b33611a9b86612cca565b7f64167c9f5767a6fa8b7008f5263e7f45d013dd7dd2213f2d254bec2da2bae1a7600080a3611ac985612cca565b936008604051928084528301526040820152a261329d565b60405162461bcd60e51b815260048101899052601d60248201527f496e73756666696369656e7420636f6e74726163742062616c616e63650000006044820152606490fd5b9091508681813d8311611b4e575b611b3e81836128d5565b810103126101d0575190876119e8565b503d611b34565b60405162461bcd60e51b815260048101869052601660248201527513db9b1e4819dc9bddd95c8818d85b8818d85b98d95b60521b6044820152606490fd5b346101d05760203660031901126101d0576004356001600160401b0381116101d057611bc3903690600401612a35565b6040518181809351602081930191611bda9261299b565b810160018152036020019020611bef816128f6565b600182015460028301546101005260038301546101205260048301546001600160a01b039160ff909116908216611c28600586016128f6565b6006860154600787015490611c3f600889016128f6565b90611c4c60098a016128f6565b92600a8a015497600b8b01541694600c8b015496600d8c015498600e8d01611c73906128f6565b9b8d600f81015460ff1660e052601001549d60118101546080526012015460a05260405160c0526102608060c0515260c05101611caf916129be565b9160c051602001526101005160c051604001526101205160c05160600152151560c0516080015260c051810360c05160a00152611ceb916129be565b9160c05160c0015260c05160e0015260c051810360c0516101000152611d10916129be565b60c051810360c0516101200152611d26916129be565b9360c051610140015260c051610160015260c051610180015260c0516101a0015260c051810360c0516101c00152611d5d916129be565b9060e051151560c0516101e0015260c051610200015260805160c051610220015260a05160c051610240015260c051900360c051f35b346101d05760203660031901126101d057611dac612820565b7ff0c57e16840df040f15088dc2f81fe391c3923bec73e23a9662efc9c229c6a009081549060ff8260401c1615916001600160401b03811680159081611f55575b6001149081611f4b575b159081611f42575b50611f305767ffffffffffffffff198116600117845582611f11575b50611e24613437565b611e2c613437565b611e3533613146565b611e3d613437565b611e45613437565b611e4d613437565b611e55613437565b6001600080516020613598833981519152556001600160a01b03168015611ecc576001600160601b0360a01b6000541617600055611e8f57005b68ff00000000000000001981541690557fc7f505b2f371ae2175ee4913f4499e1f2633a7b5936321eed1cdaeb6115181d2602060405160018152a1005b60405162461bcd60e51b815260206004820152601b60248201527f496e76616c696420574545444c20746f6b656e206164647265737300000000006044820152606490fd5b68ffffffffffffffffff19166801000000000000000117835583611e1b565b60405163f92ee8a960e01b8152600490fd5b90501585611dff565b303b159150611df7565b849150611ded565b346101d05760603660031901126101d057611f86611f79612820565b6044359060243590612d65565b90611f9660405192839283612a53565b0390f35b346101d05760003660031901126101d057602060405162093a808152f35b346101d05760203660031901126101d0576001600160a01b03611fd9612820565b1660005260066020526020604060002054604051908152f35b346101d05760003660031901126101d057602060405162278d008152f35b346101d05760403660031901126101d057611f86600435612d24565b346101d05760003660031901126101d057611f9660405161204c816128ba565b60058152640352e302e360dc1b60208201526040519182916020835260208301906129be565b346101d05760003660031901126101d0576020604051602a8152f35b346101d0576020806003193601126101d0576004356001600160401b0381116101d0576120bf903690600401612a35565b6120c76131ba565b6120cf6131f3565b604051828183516120e3818385880161299b565b810160018152030190206120fd60ff600483015416612bc9565b61213960405184810190612118816102c48460098801612c0a565b519020604051858101906327b832b760e11b8252600481526102f3816128ba565b600f810180549360ff85166121945750600160ff199490941684179055909101546001600160a01b03169061216d90612cca565b7f2ea97aaacb9a854bbfdd40ec3db02329f9924e26e3fada4fc5990da94d4435e1600080a3005b6064906040519062461bcd60e51b82526004820152601b60248201527f436f6c6c61746572616c20616c726561647920617070726f76656400000000006044820152fd5b346101d05760003660031901126101d0576020600354604051908152f35b346101d05760003660031901126101d057600080516020613558833981519152546040516001600160a01b039091168152602090f35b346101d05760203660031901126101d0576004356001600160401b0381116101d057612262602061020d81933690600401612a35565b8101600781520301902054604051908152f35b346101d05760003660031901126101d05761228e6131ba565b6122966131f3565b600080516020613578833981519152600160ff198254161790557f62e78cea01bee320cd4e420270b5ea74000d11b0c9f74754ebdbfc544b05a2586020604051338152a1005b346101d05760003660031901126101d057602060405160788152f35b346101d05760003660031901126101d0576123116131ba565b60008051602061355883398151915280546001600160a01b031981169091556000906001600160a01b03167f8be0079c531659141344cd1fd0a4f28419497f9722a3daafe3b4186f6b6457e08280a3005b346101d05760003660031901126101d057602060ff60008051602061357883398151915254166040519015158152f35b346101d05760003660031901126101d0577f00000000000000000000000000000000000000000000000000000000000000006001600160a01b031630036123fd5760206040517f360894a13ba1a3210667c828492db98dca3e2076cc3735a920a3ca505d382bbc8152f35b60405163703e46dd60e11b8152600490fd5b60403660031901126101d057612423612820565b6024356001600160401b0381116101d057366023820112156101d0576124539036906024816004013591016129fe565b906001600160a01b037f0000000000000000000000000000000000000000000000000000000000000000811630811490811561260f575b506123fd576124976131ba565b6040516352d1902d60e01b8152908216916020918281600481875afa600091816125e0575b506124da57604051634c9c8ce360e01b815260048101859052602490fd5b9284937f360894a13ba1a3210667c828492db98dca3e2076cc3735a920a3ca505d382bbc908181036125c85750823b156125af5780546001600160a01b03191682179055604051907fbc7cd75a20ee27fd9adebab32041f755214dbc6bffa90cc0225b39da2e5c2d3b600080a2835115612595575060008084846104e096519101845af4903d1561258c573d61256f816129e3565b9061257d60405192836128d5565b8152600081943d92013e6134d4565b606092506134d4565b92505050346125a057005b63b398979f60e01b8152600490fd5b604051634c9c8ce360e01b815260048101839052602490fd5b60249060405190632a87526960e21b82526004820152fd5b9091508381813d8311612608575b6125f881836128d5565b810103126101d0575190866124bc565b503d6125ee565b9050817f360894a13ba1a3210667c828492db98dca3e2076cc3735a920a3ca505d382bbc541614158461248a565b346101d05760003660031901126101d057602060405160128152f35b346101d05760003660031901126101d0576126726131ba565b600080516020613578833981519152805460ff8116156126be5760ff191690557f5db9ee0a495bf2e6ff9c91a7834c1ba4fdd244a5e8aa4e537bd38aeae4b073aa6020604051338152a1005b604051638dfc202b60e01b8152600490fd5b346101d05760003660031901126101d0576000546040516001600160a01b039091168152602090f35b346101d05760003660031901126101d05760206040516113888152f35b346101d05760203660031901126101d0576001600160a01b03612737612820565b1660005260056020526020604060002054604051908152f35b346101d05760203660031901126101d0576001600160a01b03612771612820565b166000526005602052604080600020546006602052816000205482519182526020820152f35b346101d05760003660031901126101d05760206040516301e133808152f35b346101d05760403660031901126101d0576127cf612820565b6001600160a01b031660009081526004602052604090208054602435908110156101d0576127fc91612836565b6114175761280c611f96916128f6565b6040519182916020835260208301906129be565b600435906001600160a01b03821682036101d057565b805482101561284e5760005260206000200190600090565b634e487b7160e01b600052603260045260246000fd5b90600182811c92168015612894575b602083101461287e57565b634e487b7160e01b600052602260045260246000fd5b91607f1691612873565b61026081019081106001600160401b0382111761142d57604052565b604081019081106001600160401b0382111761142d57604052565b90601f801991011681019081106001600160401b0382111761142d57604052565b9060405191826000825461290981612864565b90818452602094600191600181169081600014612979575060011461293a575b505050612938925003836128d5565b565b600090815285812095935091905b8183106129615750506129389350820101388080612929565b85548884018501529485019487945091830191612948565b9250505061293894925060ff191682840152151560051b820101388080612929565b60005b8381106129ae5750506000910152565b818101518382015260200161299e565b906020916129d78151809281855285808601910161299b565b601f01601f1916010190565b6001600160401b03811161142d57601f01601f191660200190565b929192612a0a826129e3565b91612a1860405193846128d5565b8294818452818301116101d0578281602093846000960137010152565b9080601f830112156101d057816020612a50933591016129fe565b90565b9291906040808501604086528251809152606090606087019260608260051b890101936020809601936000925b87858510612a945750505050505050930152565b806001929394959697988d605f19908203018752895190612b8b612ac26102608451908085528401906129be565b612b48612b34612b0c87870151938a8060a01b03809516898801528b8801518c8801528c8801518d88015260808089015115159088015260a08089015190888303908901526129be565b60c0808801519087015260e080880151908701526101008088015190878303908801526129be565b6101208087015190868303908701526129be565b9061014080860151908501526101609081860151169084015261018080850151908401526101a080850151908401526101c08085015190848303908501526129be565b916101e08082015115159083015261020080820151908301526102208082015190830152610240809101519101529801940194019294939190612a80565b15612bd057565b60405162461bcd60e51b81526020600482015260126024820152714c6f616e206973206e6f742061637469766560701b6044820152606490fd5b600092918154612c1981612864565b92600191808316908115612c735750600114612c36575b50505050565b9091929394506000526020906020600020906000915b858310612c625750505050019038808080612c30565b805485840152918301918101612c4c565b60ff1916845250505081151590910201915038808080612c30565b15612c9557565b60405162461bcd60e51b815260206004820152600d60248201526c2637b0b7103737ba1037b832b760991b6044820152606490fd5b612ce29060206040519282848094519384920161299b565b810103902090565b6001600160401b03811161142d5760051b60200190565b604051602081018181106001600160401b0382111761142d576040526000815290565b9060035480921015612d3c57612d38612d01565b9190565b612d38612d01565b919082018092116107ce57565b805182101561284e5760209160051b010190565b9092919260018060a01b03806000931683526004602090600482526040928386208054612d9181612cea565b91612d9e875193846128d5565b81835288528488208890868085015b84841061303d5750505050508051988987101561302d5789612dcf8289612d44565b111561301d575088955b80870396871161300957612dec87612cea565b97612df98751998a6128d5565b878952601f19612e0889612cea565b0186825b828110612f77575050505b878110612e2a5750505050505050509190565b80612e40612e3a60019385612d44565b85612d51565b51601288612e568b51938481519384920161299b565b8201918981869485815203019020878b5193612e718561289e565b612e7a836128f6565b8552820154168a84015260028101548b8401526003810154606084015260ff808a8301541615156080850152612eb2600583016128f6565b60a0850152600682015460c0850152600782015460e0850152612ed7600883016128f6565b610100850152612ee9600983016128f6565b610120850152600a82015461014085015288600b83015416610160850152600c820154610180850152600d8201546101a0850152612f29600e83016128f6565b6101c0850152600f8201541615156101e0840152601081015461020084015260118101546102208401520154610240820152612f65828c612d51565b52612f70818b612d51565b5001612e17565b895182828e612f858461289e565b8d88606091828752818688015286015288818601528860808601528060a08601528860c08601528860e08601528061010086015280610120860152886101408601528861016086015288610180860152886101a08601526101c0850152876101e0850152876102008501528761022085015287610240850152010152018790612e0c565b634e487b7160e01b88526011600452602488fd5b6130279087612d44565b95612dd9565b5050505050505050612d38612d01565b600191829161304b856128f6565b8152019201920191908790612dad565b818110613066575050565b6000815560010161305b565b90601f811161307f575050565b61293891600052601f6020600020910160051c81019061305b565b818102929181159184041417156107ce57565b156130b457565b60405162461bcd60e51b815260206004820152601a60248201527f496e73756666696369656e7420574545444c2062616c616e63650000000000006044820152606490fd5b60001981146107ce5760010190565b1561310f57565b60405162461bcd60e51b815260206004820152600f60248201526e131bd85b881b9bdd08199d5b991959608a1b6044820152606490fd5b6001600160a01b039081169081156131a15760008051602061355883398151915280546001600160a01b031981168417909155167f8be0079c531659141344cd1fd0a4f28419497f9722a3daafe3b4186f6b6457e0600080a3565b604051631e4fbdf760e01b815260006004820152602490fd5b600080516020613558833981519152546001600160a01b031633036131db57565b60405163118cdaa760e01b8152336004820152602490fd5b60ff600080516020613578833981519152541661320c57565b60405163d93c066560e01b8152600490fd5b600080516020613598833981519152600281541461323c5760029055565b604051633ee5aeb560e01b8152600490fd5b60405163a9059cbb60e01b60208201526001600160a01b03909216602483015260448083019390935291815260808101916001600160401b0383118284101761142d5761293892604052613478565b60206132b691816040519382858094519384920161299b565b8101600281520301902060ff19815416905560035480156107ce5760001901600355565b6040516323b872dd60e01b60208201526001600160a01b03928316602482015292909116604483015260648083019390935291815260a08101918183106001600160401b0384111761142d5761293892604052613478565b91909182516001600160401b03811161142d5761334f8254612864565b601f81116133fa575b50602080601f831160011461339557508192939460009261338a575b50508160011b916000199060031b1c1916179055565b015190503880613374565b90601f19831695846000526020600020926000905b8882106133e2575050836001959697106133c9575b505050811b019055565b015160001960f88460031b161c191690553880806133bf565b806001859682949686015181550195019301906133aa565b61342790836000526020600020601f840160051c8101916020851061342d575b601f0160051c019061305b565b38613358565b909150819061341a565b60ff7ff0c57e16840df040f15088dc2f81fe391c3923bec73e23a9662efc9c229c6a005460401c161561346657565b604051631afcd79f60e31b8152600490fd5b906000602091828151910182855af115610466576000513d6134cb57506001600160a01b0381163b155b6134a95750565b604051635274afe760e01b81526001600160a01b039091166004820152602490fd5b600114156134a2565b906134fb57508051156134e957805190602001fd5b60405163d6bda27560e01b8152600490fd5b8151158061352e575b61350c575090565b604051639996b31560e01b81526001600160a01b039091166004820152602490fd5b50803b1561350456fe8a7be6b6d998757cde134d68c5bc04568dbfd09aeda7c427b92e336502173fa49016d09d72d40fdae2fd8ceac6b6234c7706214fd39c1cd1e609a0528c199300cd5ed15c6e187e77e9aee88184c21f4f2182ab5827cb3b7e07fbedcd63f033009b779b17422d0df92223018b32b4d1fa46e071723d6817e2486d003becc55f00a2646970667358221220f03e0c975e6424702273da8b3e51f6308bacfe8ff2ae30f8277059a0ae94649264736f6c63430008160033","opcodes":"PUSH1 0xA0 DUP1 PUSH1 0x40 MSTORE CALLVALUE PUSH3 0xD1 JUMPI ADDRESS PUSH1 0x80 MSTORE PUSH32 0xF0C57E16840DF040F15088DC2F81FE391C3923BEC73E23A9662EFC9C229C6A00 SWAP1 DUP2 SLOAD SWAP1 PUSH1 0xFF DUP3 PUSH1 0x40 SHR AND PUSH3 0xC2 JUMPI POP PUSH1 0x1 PUSH1 0x1 PUSH1 0x40 SHL SUB PUSH1 0x2 PUSH1 0x1 PUSH1 0x40 SHL SUB NOT DUP3 DUP3 AND ADD PUSH3 0x7C JUMPI JUMPDEST PUSH1 0x40 MLOAD PUSH2 0x35ED SWAP1 DUP2 PUSH3 0xD7 DUP3 CODECOPY PUSH1 0x80 MLOAD DUP2 DUP2 DUP2 PUSH2 0x23A5 ADD MSTORE PUSH2 0x245E ADD MSTORE RETURN JUMPDEST PUSH1 0x1 PUSH1 0x1 PUSH1 0x40 SHL SUB NOT SWAP1 SWAP2 AND DUP2 OR SWAP1 SWAP2 SSTORE PUSH1 0x40 MLOAD SWAP1 DUP2 MSTORE PUSH32 0xC7F505B2F371AE2175EE4913F4499E1F2633A7B5936321EED1CDAEB6115181D2 SWAP1 PUSH1 0x20 SWAP1 LOG1 CODESIZE DUP1 DUP1 PUSH3 0x5C JUMP JUMPDEST PUSH4 0xF92EE8A9 PUSH1 0xE0 SHL DUP2 MSTORE PUSH1 0x4 SWAP1 REVERT JUMPDEST PUSH1 0x0 DUP1 REVERT INVALID PUSH2 0x140 PUSH1 0x40 MSTORE PUSH1 0x4 CALLDATASIZE LT ISZERO PUSH2 0x13 JUMPI PUSH1 0x0 DUP1 REVERT JUMPDEST PUSH1 0x0 CALLDATALOAD PUSH1 0xE0 SHR DUP1 PUSH4 0xD03811E EQ PUSH2 0x27B6 JUMPI DUP1 PUSH4 0xD0B2CA6 EQ PUSH2 0x2797 JUMPI DUP1 PUSH4 0x23FE30FB EQ PUSH2 0x222C JUMPI DUP1 PUSH4 0x296882B6 EQ PUSH2 0x2750 JUMPI DUP1 PUSH4 0x2BD45AC4 EQ PUSH2 0x2716 JUMPI DUP1 PUSH4 0x34855D14 EQ PUSH2 0x26F9 JUMPI DUP1 PUSH4 0x3B9C8CFE EQ PUSH2 0x26D0 JUMPI DUP1 PUSH4 0x3F4BA83A EQ PUSH2 0x2659 JUMPI DUP1 PUSH4 0x441F949A EQ PUSH2 0x263D JUMPI DUP1 PUSH4 0x4F1EF286 EQ PUSH2 0x240F JUMPI DUP1 PUSH4 0x52D1902D EQ PUSH2 0x2392 JUMPI DUP1 PUSH4 0x5C975ABB EQ PUSH2 0x2362 JUMPI DUP1 PUSH4 0x715018A6 EQ PUSH2 0x22F8 JUMPI DUP1 PUSH4 0x7A9FFFB7 EQ PUSH2 0x22DC JUMPI DUP1 PUSH4 0x8456CB59 EQ PUSH2 0x2275 JUMPI DUP1 PUSH4 0x8A48EB82 EQ PUSH2 0x222C JUMPI DUP1 PUSH4 0x8DA5CB5B EQ PUSH2 0x21F6 JUMPI DUP1 PUSH4 0x8E20F050 EQ PUSH2 0x21D8 JUMPI DUP1 PUSH4 0x92A00C4F EQ PUSH2 0x208E JUMPI DUP1 PUSH4 0xA525AD3C EQ PUSH2 0x2072 JUMPI DUP1 PUSH4 0xAD3CB1CC EQ PUSH2 0x202C JUMPI DUP1 PUSH4 0xAE0A1515 EQ PUSH2 0x2010 JUMPI DUP1 PUSH4 0xB30C5FC3 EQ PUSH2 0x1FF2 JUMPI DUP1 PUSH4 0xC14CFE7F EQ PUSH2 0x1FB8 JUMPI DUP1 PUSH4 0xC1A287E2 EQ PUSH2 0x1F9A JUMPI DUP1 PUSH4 0xC44582D7 EQ PUSH2 0x1F5D JUMPI DUP1 PUSH4 0xC4D66DE8 EQ PUSH2 0x1D93 JUMPI DUP1 PUSH4 0xC6141F63 EQ PUSH2 0x1B93 JUMPI DUP1 PUSH4 0xC70F2E2B EQ PUSH2 0x18F2 JUMPI DUP1 PUSH4 0xC8B0ADAF EQ PUSH2 0xDDD JUMPI DUP1 PUSH4 0xDE68DBD4 EQ PUSH2 0x827 JUMPI DUP1 PUSH4 0xE287183A EQ PUSH2 0x500 JUMPI DUP1 PUSH4 0xF0433FB3 EQ PUSH2 0x4E2 JUMPI DUP1 PUSH4 0xF2FDE38B EQ PUSH2 0x4B7 JUMPI DUP1 PUSH4 0xF897EEBA EQ PUSH2 0x236 JUMPI DUP1 PUSH4 0xFE6F8B76 EQ PUSH2 0x1D5 JUMPI PUSH4 0xFFA1AD74 EQ PUSH2 0x1B4 JUMPI PUSH1 0x0 DUP1 REVERT JUMPDEST CALLVALUE PUSH2 0x1D0 JUMPI PUSH1 0x0 CALLDATASIZE PUSH1 0x3 NOT ADD SLT PUSH2 0x1D0 JUMPI PUSH1 0x20 PUSH1 0x40 MLOAD PUSH1 0x1 DUP2 MSTORE RETURN JUMPDEST PUSH1 0x0 DUP1 REVERT JUMPDEST CALLVALUE PUSH2 0x1D0 JUMPI PUSH1 0x20 CALLDATASIZE PUSH1 0x3 NOT ADD SLT PUSH2 0x1D0 JUMPI PUSH1 0x4 CALLDATALOAD PUSH1 0x1 PUSH1 0x1 PUSH1 0x40 SHL SUB DUP2 GT PUSH2 0x1D0 JUMPI PUSH1 0xFF PUSH2 0x220 PUSH1 0x20 PUSH2 0x20D DUP2 SWAP5 CALLDATASIZE SWAP1 PUSH1 0x4 ADD PUSH2 0x2A35 JUMP JUMPDEST DUP2 PUSH1 0x40 MLOAD SWAP4 DUP3 DUP6 DUP1 SWAP5 MLOAD SWAP4 DUP5 SWAP3 ADD PUSH2 0x299B JUMP JUMPDEST DUP2 ADD PUSH1 0x2 DUP2 MSTORE SUB ADD SWAP1 KECCAK256 SLOAD AND PUSH1 0x40 MLOAD SWAP1 ISZERO ISZERO DUP2 MSTORE RETURN JUMPDEST CALLVALUE PUSH2 0x1D0 JUMPI PUSH1 0x20 DUP1 PUSH1 0x3 NOT CALLDATASIZE ADD SLT PUSH2 0x1D0 JUMPI PUSH1 0x4 CALLDATALOAD PUSH1 0x1 PUSH1 0x1 PUSH1 0x40 SHL SUB DUP2 GT PUSH2 0x1D0 JUMPI PUSH2 0x267 SWAP1 CALLDATASIZE SWAP1 PUSH1 0x4 ADD PUSH2 0x2A35 JUMP JUMPDEST SWAP1 PUSH2 0x270 PUSH2 0x31F3 JUMP JUMPDEST PUSH2 0x278 PUSH2 0x321E JUMP JUMPDEST PUSH1 0x40 MLOAD DUP2 DUP2 DUP5 MLOAD PUSH2 0x28C DUP2 DUP4 DUP6 DUP10 ADD PUSH2 0x299B JUMP JUMPDEST DUP2 ADD PUSH1 0x1 DUP2 MSTORE SUB ADD SWAP1 KECCAK256 SWAP1 PUSH2 0x2A7 PUSH1 0xFF PUSH1 0x4 DUP5 ADD SLOAD AND PUSH2 0x2BC9 JUMP JUMPDEST PUSH1 0x9 DUP3 ADD SWAP3 PUSH2 0x2FC PUSH1 0x40 MLOAD DUP4 DUP2 ADD SWAP1 PUSH2 0x2D2 DUP2 PUSH2 0x2C4 DUP5 DUP11 PUSH2 0x2C0A JUMP JUMPDEST SUB PUSH1 0x1F NOT DUP2 ADD DUP4 MSTORE DUP3 PUSH2 0x28D5 JUMP JUMPDEST MLOAD SWAP1 KECCAK256 PUSH1 0x40 MLOAD DUP5 DUP2 ADD SWAP1 PUSH4 0x27B832B7 PUSH1 0xE1 SHL DUP3 MSTORE PUSH1 0x4 DUP2 MSTORE PUSH2 0x2F3 DUP2 PUSH2 0x28BA JUMP JUMPDEST MLOAD SWAP1 KECCAK256 EQ PUSH2 0x2C8E JUMP JUMPDEST PUSH1 0xFF PUSH1 0xF DUP5 ADD SLOAD AND ISZERO PUSH2 0x472 JUMPI PUSH1 0x0 SLOAD PUSH1 0x40 MLOAD PUSH4 0x70A08231 PUSH1 0xE0 SHL DUP2 MSTORE CALLER PUSH1 0x4 DUP3 ADD MSTORE PUSH1 0x1 PUSH1 0x1 PUSH1 0xA0 SHL SUB SWAP5 SWAP1 SWAP2 DUP5 SWAP1 DUP4 SWAP1 PUSH1 0x24 SWAP1 DUP3 SWAP1 DUP10 AND GAS STATICCALL SWAP2 DUP3 ISZERO PUSH2 0x466 JUMPI PUSH1 0x0 SWAP3 PUSH2 0x423 JUMPI JUMPDEST POP SWAP2 PUSH1 0x0 DUP1 MLOAD PUSH1 0x20 PUSH2 0x3538 DUP4 CODECOPY DUP2 MLOAD SWAP2 MSTORE SWAP5 PUSH2 0x3FC SWAP3 PUSH2 0x3C6 DUP6 PUSH2 0x374 PUSH1 0x2 PUSH1 0x60 SWAP10 SWAP9 ADD SWAP4 DUP5 SLOAD GT ISZERO PUSH2 0x30AD JUMP JUMPDEST PUSH2 0x387 PUSH2 0x381 DUP12 SLOAD PUSH2 0x2864 JUMP JUMPDEST DUP12 PUSH2 0x3072 JUMP JUMPDEST PUSH6 0x119D5B991959 PUSH1 0xD2 SHL SWAP10 PUSH1 0xC DUP12 ADD SWAP1 SSTORE PUSH1 0xB DUP2 ADD CALLER PUSH1 0x1 PUSH1 0x1 PUSH1 0x60 SHL SUB PUSH1 0xA0 SHL DUP3 SLOAD AND OR SWAP1 SSTORE PUSH1 0x1 DUP5 PUSH1 0x0 SLOAD AND SWAP2 ADD SWAP3 DUP5 DUP5 SLOAD AND SWAP1 SLOAD SWAP2 CALLER SWAP1 PUSH2 0x32DA JUMP JUMPDEST SLOAD AND CALLER PUSH2 0x3D2 DUP4 PUSH2 0x2CCA JUMP JUMPDEST PUSH32 0x74B5814FE355BA520EA013B8CD67E3A8DA7F4DB3D413C0BB58F4AD047713A8B9 PUSH1 0x0 DUP1 LOG4 PUSH2 0x2CCA JUMP JUMPDEST SWAP4 PUSH1 0x6 PUSH1 0x40 MLOAD SWAP3 DUP1 DUP5 MSTORE DUP4 ADD MSTORE PUSH1 0x40 DUP3 ADD MSTORE LOG2 PUSH1 0x1 PUSH1 0x0 DUP1 MLOAD PUSH1 0x20 PUSH2 0x3598 DUP4 CODECOPY DUP2 MLOAD SWAP2 MSTORE SSTORE STOP JUMPDEST SWAP2 POP SWAP3 SWAP2 DUP3 DUP3 DUP2 RETURNDATASIZE DUP4 GT PUSH2 0x45F JUMPI JUMPDEST PUSH2 0x43C DUP2 DUP4 PUSH2 0x28D5 JUMP JUMPDEST DUP2 ADD SUB SLT PUSH2 0x1D0 JUMPI SWAP1 MLOAD SWAP2 SWAP3 SWAP1 SWAP2 SWAP1 PUSH1 0x0 DUP1 MLOAD PUSH1 0x20 PUSH2 0x3538 DUP4 CODECOPY DUP2 MLOAD SWAP2 MSTORE PUSH2 0x346 JUMP JUMPDEST POP RETURNDATASIZE PUSH2 0x432 JUMP JUMPDEST PUSH1 0x40 MLOAD RETURNDATASIZE PUSH1 0x0 DUP3 RETURNDATACOPY RETURNDATASIZE SWAP1 REVERT JUMPDEST PUSH1 0x40 MLOAD PUSH3 0x461BCD PUSH1 0xE5 SHL DUP2 MSTORE PUSH1 0x4 DUP2 ADD DUP4 SWAP1 MSTORE PUSH1 0x17 PUSH1 0x24 DUP3 ADD MSTORE PUSH32 0x436F6C6C61746572616C206E6F7420617070726F766564000000000000000000 PUSH1 0x44 DUP3 ADD MSTORE PUSH1 0x64 SWAP1 REVERT JUMPDEST CALLVALUE PUSH2 0x1D0 JUMPI PUSH1 0x20 CALLDATASIZE PUSH1 0x3 NOT ADD SLT PUSH2 0x1D0 JUMPI PUSH2 0x4E0 PUSH2 0x4D3 PUSH2 0x2820 JUMP JUMPDEST PUSH2 0x4DB PUSH2 0x31BA JUMP JUMPDEST PUSH2 0x3146 JUMP JUMPDEST STOP JUMPDEST CALLVALUE PUSH2 0x1D0 JUMPI PUSH1 0x0 CALLDATASIZE PUSH1 0x3 NOT ADD SLT PUSH2 0x1D0 JUMPI PUSH1 0x20 PUSH1 0x40 MLOAD PUSH3 0x76A700 DUP2 MSTORE RETURN JUMPDEST CALLVALUE PUSH2 0x1D0 JUMPI PUSH1 0x20 DUP1 PUSH1 0x3 NOT CALLDATASIZE ADD SLT PUSH2 0x1D0 JUMPI PUSH1 0x4 CALLDATALOAD PUSH1 0x1 PUSH1 0x1 PUSH1 0x40 SHL SUB DUP2 GT PUSH2 0x1D0 JUMPI PUSH2 0x531 SWAP1 CALLDATASIZE SWAP1 PUSH1 0x4 ADD PUSH2 0x2A35 JUMP JUMPDEST PUSH2 0x539 PUSH2 0x31F3 JUMP JUMPDEST PUSH2 0x541 PUSH2 0x321E JUMP JUMPDEST PUSH1 0x40 MLOAD DUP3 DUP2 DUP4 MLOAD PUSH2 0x555 DUP2 DUP4 DUP6 DUP9 ADD PUSH2 0x299B JUMP JUMPDEST DUP2 ADD PUSH1 0x1 DUP2 MSTORE SUB ADD SWAP1 KECCAK256 PUSH1 0x4 DUP2 ADD PUSH2 0x570 PUSH1 0xFF DUP3 SLOAD AND PUSH2 0x2BC9 JUMP JUMPDEST PUSH1 0xB DUP3 ADD SLOAD PUSH1 0x1 PUSH1 0x1 PUSH1 0xA0 SHL SUB SWAP1 DUP2 AND CALLER SUB PUSH2 0x7E4 JUMPI PUSH1 0x9 DUP4 ADD SWAP3 PUSH1 0x40 MLOAD PUSH2 0x5DF DUP8 DUP3 ADD DUP3 PUSH2 0x59F DUP3 DUP10 PUSH2 0x2C0A JUMP JUMPDEST SUB SWAP3 PUSH2 0x5B3 PUSH1 0x1F NOT SWAP5 DUP6 DUP2 ADD DUP4 MSTORE DUP3 PUSH2 0x28D5 JUMP JUMPDEST MLOAD SWAP1 KECCAK256 PUSH1 0x40 MLOAD DUP10 DUP2 ADD SWAP1 PUSH6 0x119D5B991959 PUSH1 0xD2 SHL DUP3 MSTORE PUSH1 0x6 DUP2 MSTORE PUSH2 0x5D6 DUP2 PUSH2 0x28BA JUMP JUMPDEST MLOAD SWAP1 KECCAK256 EQ PUSH2 0x3108 JUMP JUMPDEST PUSH2 0x5F2 PUSH1 0x7 DUP4 ADD SLOAD PUSH1 0x3 DUP5 ADD SLOAD SWAP1 PUSH2 0x2D44 JUMP JUMPDEST TIMESTAMP GT SWAP1 DUP2 ISZERO PUSH2 0x758 JUMPI JUMPDEST POP ISZERO PUSH2 0x707 JUMPI PUSH1 0xA ADD SWAP2 DUP3 SLOAD ISZERO PUSH2 0x6C9 JUMPI SWAP5 PUSH2 0x665 PUSH1 0x0 DUP1 MLOAD PUSH1 0x20 PUSH2 0x3538 DUP4 CODECOPY DUP2 MLOAD SWAP2 MSTORE SWAP4 PUSH1 0x60 SWAP4 PUSH2 0x6B5 SWAP9 PUSH2 0x63B PUSH2 0x635 DUP10 SLOAD PUSH2 0x2864 JUMP JUMPDEST DUP10 PUSH2 0x3072 JUMP JUMPDEST PUSH9 0x111959985D5B1D1959 PUSH1 0xBA SHL SWAP8 PUSH1 0x12 DUP10 ADD SWAP1 SSTORE PUSH1 0xFF NOT DUP2 SLOAD AND SWAP1 SSTORE PUSH1 0x0 SLOAD AND SWAP1 SLOAD SWAP1 CALLER SWAP1 PUSH2 0x324E JUMP JUMPDEST CALLER PUSH2 0x66F DUP7 PUSH2 0x2CCA JUMP JUMPDEST PUSH32 0x9D99EBBD63AD66BD41D937ADD2C439545D27DE0CFCE044C210A62E86D9AB200F PUSH1 0x0 DUP1 LOG3 PUSH2 0x69D DUP6 PUSH2 0x2CCA JUMP JUMPDEST SWAP4 PUSH1 0x9 PUSH1 0x40 MLOAD SWAP3 DUP1 DUP5 MSTORE DUP4 ADD MSTORE PUSH1 0x40 DUP3 ADD MSTORE LOG2 PUSH2 0x329D JUMP JUMPDEST PUSH1 0x1 PUSH1 0x0 DUP1 MLOAD PUSH1 0x20 PUSH2 0x3598 DUP4 CODECOPY DUP2 MLOAD SWAP2 MSTORE SSTORE STOP JUMPDEST PUSH1 0x40 MLOAD PUSH3 0x461BCD PUSH1 0xE5 SHL DUP2 MSTORE PUSH1 0x4 DUP2 ADD DUP8 SWAP1 MSTORE PUSH1 0x16 PUSH1 0x24 DUP3 ADD MSTORE PUSH22 0x4E6F20636F6C6C61746572616C20746F20636C61696D PUSH1 0x50 SHL PUSH1 0x44 DUP3 ADD MSTORE PUSH1 0x64 SWAP1 REVERT JUMPDEST PUSH1 0x40 MLOAD PUSH3 0x461BCD PUSH1 0xE5 SHL DUP2 MSTORE PUSH1 0x4 DUP2 ADD DUP8 SWAP1 MSTORE PUSH1 0x24 DUP1 DUP3 ADD MSTORE PUSH32 0x4C6F616E206475726174696F6E206F72207061796D656E74206E6F7420657870 PUSH1 0x44 DUP3 ADD MSTORE PUSH4 0x1A5C9959 PUSH1 0xE2 SHL PUSH1 0x64 DUP3 ADD MSTORE PUSH1 0x84 SWAP1 REVERT JUMPDEST SWAP1 POP PUSH1 0x40 MLOAD PUSH2 0x77E DUP9 DUP3 ADD SWAP3 DUP3 PUSH2 0x772 DUP6 PUSH1 0xE DUP9 ADD PUSH2 0x2C0A JUMP JUMPDEST SUB SWAP1 DUP2 ADD DUP4 MSTORE DUP3 PUSH2 0x28D5 JUMP JUMPDEST MLOAD SWAP1 KECCAK256 PUSH1 0x40 MLOAD DUP8 DUP2 ADD SWAP1 PUSH8 0x6F6E652D74696D65 PUSH1 0xC0 SHL DUP3 MSTORE PUSH1 0x8 DUP2 MSTORE PUSH2 0x7A3 DUP2 PUSH2 0x28BA JUMP JUMPDEST MLOAD SWAP1 KECCAK256 EQ ISZERO DUP1 PUSH2 0x7B4 JUMPI JUMPDEST DUP8 PUSH2 0x5FC JUMP JUMPDEST POP PUSH1 0x10 DUP2 ADD SLOAD PUSH3 0x93A80 DUP2 ADD DUP1 SWAP2 GT PUSH2 0x7CE JUMPI TIMESTAMP GT PUSH2 0x7AE JUMP JUMPDEST PUSH4 0x4E487B71 PUSH1 0xE0 SHL PUSH1 0x0 MSTORE PUSH1 0x11 PUSH1 0x4 MSTORE PUSH1 0x24 PUSH1 0x0 REVERT JUMPDEST PUSH1 0x64 DUP6 PUSH1 0x40 MLOAD SWAP1 PUSH3 0x461BCD PUSH1 0xE5 SHL DUP3 MSTORE DUP1 PUSH1 0x4 DUP4 ADD MSTORE PUSH1 0x24 DUP3 ADD MSTORE PUSH32 0x4F6E6C79206C656E6465722063616E20636C61696D20636F6C6C61746572616C PUSH1 0x44 DUP3 ADD MSTORE REVERT JUMPDEST CALLVALUE PUSH2 0x1D0 JUMPI PUSH1 0x40 CALLDATASIZE PUSH1 0x3 NOT ADD SLT PUSH2 0x1D0 JUMPI PUSH1 0x4 CALLDATALOAD PUSH1 0x1 PUSH1 0x1 PUSH1 0x40 SHL SUB DUP2 GT PUSH2 0x1D0 JUMPI PUSH2 0x857 SWAP1 CALLDATASIZE SWAP1 PUSH1 0x4 ADD PUSH2 0x2A35 JUMP JUMPDEST PUSH2 0x85F PUSH2 0x31F3 JUMP JUMPDEST PUSH2 0x867 PUSH2 0x321E JUMP JUMPDEST PUSH1 0x40 MLOAD PUSH1 0x20 DUP2 DUP4 MLOAD PUSH2 0x87C DUP2 DUP4 DUP6 DUP9 ADD PUSH2 0x299B JUMP JUMPDEST DUP2 ADD PUSH1 0x1 DUP2 MSTORE SUB ADD SWAP1 KECCAK256 SWAP1 PUSH2 0x897 PUSH1 0xFF PUSH1 0x4 DUP5 ADD SLOAD AND PUSH2 0x2BC9 JUMP JUMPDEST PUSH1 0x1 DUP3 ADD SLOAD PUSH1 0x1 PUSH1 0x1 PUSH1 0xA0 SHL SUB AND CALLER SUB PUSH2 0xDA0 JUMPI PUSH2 0x8EB PUSH1 0x40 MLOAD PUSH1 0x20 DUP2 ADD SWAP1 PUSH2 0x8C7 DUP2 PUSH2 0x2C4 DUP5 PUSH1 0x9 DUP10 ADD PUSH2 0x2C0A JUMP JUMPDEST MLOAD SWAP1 KECCAK256 PUSH1 0x40 MLOAD PUSH1 0x20 DUP2 ADD SWAP1 PUSH6 0x119D5B991959 PUSH1 0xD2 SHL DUP3 MSTORE PUSH1 0x6 DUP2 MSTORE PUSH2 0x5D6 DUP2 PUSH2 0x28BA JUMP JUMPDEST PUSH1 0x24 CALLDATALOAD ISZERO PUSH2 0xD4A JUMPI PUSH1 0x2 DUP3 ADD SLOAD SWAP2 PUSH2 0x926 PUSH5 0x496CEBB800 PUSH2 0x91E PUSH2 0x913 PUSH1 0xD DUP6 ADD SLOAD DUP8 PUSH2 0x309A JUMP JUMPDEST PUSH1 0x3 DUP6 ADD SLOAD SWAP1 PUSH2 0x309A JUMP JUMPDEST DIV DUP1 SWAP5 PUSH2 0x2D44 JUMP JUMPDEST PUSH1 0x40 MLOAD PUSH1 0x20 DUP2 ADD SWAP1 PUSH2 0x93F DUP2 PUSH2 0x2C4 DUP5 PUSH1 0xE DUP9 ADD PUSH2 0x2C0A JUMP JUMPDEST MLOAD SWAP1 KECCAK256 PUSH1 0x40 MLOAD PUSH1 0x20 DUP2 ADD SWAP1 PUSH8 0x6F6E652D74696D65 PUSH1 0xC0 SHL DUP3 MSTORE PUSH1 0x8 DUP2 MSTORE PUSH2 0x965 DUP2 PUSH2 0x28BA JUMP JUMPDEST MLOAD SWAP1 KECCAK256 SUB PUSH2 0xCBD JUMPI DUP1 JUMPDEST PUSH1 0x24 CALLDATALOAD LT PUSH2 0xC78 JUMPI PUSH1 0x0 SLOAD PUSH1 0x40 MLOAD PUSH4 0x70A08231 PUSH1 0xE0 SHL DUP2 MSTORE CALLER PUSH1 0x4 DUP3 ADD MSTORE SWAP1 PUSH1 0x1 PUSH1 0x1 PUSH1 0xA0 SHL SUB AND PUSH1 0x20 DUP3 PUSH1 0x24 DUP2 DUP5 GAS STATICCALL SWAP2 DUP3 ISZERO PUSH2 0x466 JUMPI PUSH1 0x0 SWAP3 PUSH2 0xC42 JUMPI JUMPDEST POP PUSH2 0x9C1 PUSH2 0x9DD SWAP3 PUSH1 0x24 CALLDATALOAD GT ISZERO PUSH2 0x30AD JUMP JUMPDEST PUSH1 0xB DUP5 ADD SLOAD PUSH1 0x24 CALLDATALOAD SWAP2 PUSH1 0x1 PUSH1 0x1 PUSH1 0xA0 SHL SUB SWAP1 SWAP2 AND SWAP1 CALLER SWAP1 PUSH2 0x32DA JUMP JUMPDEST PUSH1 0xC DUP3 ADD SWAP1 PUSH2 0x9EF PUSH1 0x24 CALLDATALOAD DUP4 SLOAD PUSH2 0x2D44 JUMP JUMPDEST DUP1 SWAP3 SSTORE DUP2 PUSH1 0x40 MLOAD PUSH1 0x20 DUP2 DUP8 MLOAD PUSH2 0xA08 DUP2 DUP4 DUP6 DUP13 ADD PUSH2 0x299B JUMP JUMPDEST DUP2 ADD PUSH1 0x7 DUP2 MSTORE SUB ADD SWAP1 KECCAK256 SSTORE PUSH1 0x11 DUP4 ADD SWAP2 PUSH2 0xA22 DUP4 SLOAD PUSH2 0x30F9 JUMP JUMPDEST DUP1 SWAP4 SSTORE PUSH1 0x40 MLOAD PUSH1 0x20 DUP2 ADD SWAP1 PUSH2 0xA3E DUP2 PUSH2 0x2C4 DUP5 PUSH1 0xE DUP11 ADD PUSH2 0x2C0A JUMP JUMPDEST MLOAD SWAP1 KECCAK256 PUSH1 0x40 MLOAD PUSH1 0x20 DUP2 ADD SWAP1 PUSH8 0x6F6E652D74696D65 PUSH1 0xC0 SHL DUP3 MSTORE PUSH1 0x8 DUP2 MSTORE PUSH2 0xA64 DUP2 PUSH2 0x28BA JUMP JUMPDEST MLOAD SWAP1 KECCAK256 SUB PUSH2 0xBD8 JUMPI JUMPDEST PUSH2 0xA76 DUP6 PUSH2 0x2CCA JUMP JUMPDEST PUSH1 0x40 MLOAD SWAP1 PUSH1 0x24 CALLDATALOAD DUP3 MSTORE DUP5 PUSH1 0x20 DUP4 ADD MSTORE PUSH32 0x90F7F30F044F8A733026D1BB8DAB5D8660408DE5A6213C3F9B17B7265127DE3B PUSH1 0x40 CALLER SWAP4 LOG3 LT SWAP1 DUP2 ISZERO SWAP2 PUSH2 0xBC9 JUMPI JUMPDEST POP PUSH2 0xACE JUMPI PUSH1 0x1 PUSH1 0x0 DUP1 MLOAD PUSH1 0x20 PUSH2 0x3598 DUP4 CODECOPY DUP2 MLOAD SWAP2 MSTORE SSTORE STOP JUMPDEST PUSH2 0xBC1 SWAP3 PUSH2 0xAEB PUSH2 0xAE2 PUSH1 0x9 DUP5 ADD SLOAD PUSH2 0x2864 JUMP JUMPDEST PUSH1 0x9 DUP5 ADD PUSH2 0x3072 JUMP JUMPDEST PUSH1 0x2 PUSH6 0x14995C185A59 PUSH1 0xD2 SHL SWAP3 PUSH1 0xC DUP5 ADD PUSH1 0x9 DUP3 ADD SSTORE PUSH1 0xFF NOT PUSH1 0x4 DUP3 ADD SLOAD AND PUSH1 0x4 DUP3 ADD SSTORE CALLER PUSH1 0x0 MSTORE PUSH1 0x6 PUSH1 0x20 MSTORE PUSH1 0x40 PUSH1 0x0 KECCAK256 PUSH2 0xB27 DUP2 SLOAD PUSH2 0x30F9 JUMP JUMPDEST SWAP1 SSTORE PUSH1 0x0 SLOAD PUSH1 0x1 DUP3 ADD SLOAD PUSH1 0xA DUP4 ADD SLOAD PUSH2 0xB4E SWAP3 SWAP1 SWAP2 PUSH1 0x1 PUSH1 0x1 PUSH1 0xA0 SHL SUB SWAP1 DUP2 AND SWAP2 AND PUSH2 0x324E JUMP JUMPDEST ADD SLOAD SWAP1 PUSH2 0xB5A DUP5 PUSH2 0x2CCA JUMP JUMPDEST SWAP1 PUSH1 0x40 MLOAD SWAP3 DUP4 MSTORE PUSH1 0x20 DUP4 ADD MSTORE PUSH32 0x3B62CC4E086A894A6C745362B81DB744E8DD91AF3EDDCCB44143E1F47EC952D0 PUSH1 0x40 CALLER SWAP4 LOG3 PUSH1 0x0 DUP1 MLOAD PUSH1 0x20 PUSH2 0x3538 DUP4 CODECOPY DUP2 MLOAD SWAP2 MSTORE PUSH1 0x60 PUSH2 0xBA6 DUP5 PUSH2 0x2CCA JUMP JUMPDEST SWAP3 PUSH1 0x40 MLOAD SWAP1 PUSH1 0x20 DUP3 MSTORE PUSH1 0x6 PUSH1 0x20 DUP4 ADD MSTORE PUSH1 0x40 DUP3 ADD MSTORE LOG2 PUSH2 0x329D JUMP JUMPDEST DUP1 DUP1 DUP1 PUSH2 0x6B5 JUMP JUMPDEST SWAP1 POP PUSH1 0x12 DUP3 ADD SLOAD GT ISZERO DUP5 PUSH2 0xAB5 JUMP JUMPDEST PUSH1 0x40 MLOAD PUSH1 0x20 DUP2 ADD SWAP1 PUSH2 0xBF1 DUP2 PUSH2 0x2C4 DUP5 PUSH1 0xE DUP11 ADD PUSH2 0x2C0A JUMP JUMPDEST MLOAD SWAP1 KECCAK256 PUSH1 0x40 MLOAD PUSH1 0x20 DUP2 ADD SWAP1 PUSH7 0x6D6F6E74686C79 PUSH1 0xC8 SHL DUP3 MSTORE PUSH1 0x7 DUP2 MSTORE PUSH2 0xC16 DUP2 PUSH2 0x28BA JUMP JUMPDEST MLOAD SWAP1 KECCAK256 SUB PUSH2 0xC36 JUMPI PUSH2 0xC2C PUSH3 0x278D00 JUMPDEST TIMESTAMP PUSH2 0x2D44 JUMP JUMPDEST PUSH1 0x10 DUP6 ADD SSTORE PUSH2 0xA6D JUMP JUMPDEST PUSH2 0xC2C PUSH3 0x76A700 PUSH2 0xC26 JUMP JUMPDEST SWAP2 POP PUSH1 0x20 DUP3 RETURNDATASIZE PUSH1 0x20 GT PUSH2 0xC70 JUMPI JUMPDEST DUP2 PUSH2 0xC5D PUSH1 0x20 SWAP4 DUP4 PUSH2 0x28D5 JUMP JUMPDEST DUP2 ADD SUB SLT PUSH2 0x1D0 JUMPI SWAP1 MLOAD SWAP1 PUSH2 0x9C1 PUSH2 0x9AF JUMP JUMPDEST RETURNDATASIZE SWAP2 POP PUSH2 0xC50 JUMP JUMPDEST PUSH1 0x40 MLOAD PUSH3 0x461BCD PUSH1 0xE5 SHL DUP2 MSTORE PUSH1 0x20 PUSH1 0x4 DUP3 ADD MSTORE PUSH1 0x1B PUSH1 0x24 DUP3 ADD MSTORE PUSH32 0x496E73756666696369656E74207061796D656E7420616D6F756E740000000000 PUSH1 0x44 DUP3 ADD MSTORE PUSH1 0x64 SWAP1 REVERT JUMPDEST PUSH1 0x12 DUP3 ADD SLOAD DUP1 ISZERO PUSH2 0xD34 JUMPI DUP2 DIV PUSH1 0x10 DUP4 ADD SLOAD PUSH3 0x93A80 DUP2 ADD DUP1 SWAP2 GT PUSH2 0x7CE JUMPI TIMESTAMP GT ISZERO PUSH2 0x96F JUMPI PUSH1 0x40 MLOAD PUSH3 0x461BCD PUSH1 0xE5 SHL DUP2 MSTORE PUSH1 0x20 PUSH1 0x4 DUP3 ADD MSTORE PUSH1 0x23 PUSH1 0x24 DUP3 ADD MSTORE PUSH32 0x5061796D656E74206F766572647565206265796F6E6420677261636520706572 PUSH1 0x44 DUP3 ADD MSTORE PUSH3 0x1A5BD9 PUSH1 0xEA SHL PUSH1 0x64 DUP3 ADD MSTORE PUSH1 0x84 SWAP1 REVERT JUMPDEST PUSH4 0x4E487B71 PUSH1 0xE0 SHL PUSH1 0x0 MSTORE PUSH1 0x12 PUSH1 0x4 MSTORE PUSH1 0x24 PUSH1 0x0 REVERT JUMPDEST PUSH1 0x40 MLOAD PUSH3 0x461BCD PUSH1 0xE5 SHL DUP2 MSTORE PUSH1 0x20 PUSH1 0x4 DUP3 ADD MSTORE PUSH1 0x28 PUSH1 0x24 DUP3 ADD MSTORE PUSH32 0x5061796D656E7420616D6F756E74206D75737420626520677265617465722074 PUSH1 0x44 DUP3 ADD MSTORE PUSH8 0x68616E207A65726F PUSH1 0xC0 SHL PUSH1 0x64 DUP3 ADD MSTORE PUSH1 0x84 SWAP1 REVERT JUMPDEST PUSH1 0x40 MLOAD PUSH3 0x461BCD PUSH1 0xE5 SHL DUP2 MSTORE PUSH1 0x20 PUSH1 0x4 DUP3 ADD MSTORE PUSH1 0x15 PUSH1 0x24 DUP3 ADD MSTORE PUSH21 0x4F6E6C792067726F7765722063616E207265706179 PUSH1 0x58 SHL PUSH1 0x44 DUP3 ADD MSTORE PUSH1 0x64 SWAP1 REVERT JUMPDEST CALLVALUE PUSH2 0x1D0 JUMPI PUSH2 0x120 CALLDATASIZE PUSH1 0x3 NOT ADD SLT PUSH2 0x1D0 JUMPI PUSH1 0x1 PUSH1 0x1 PUSH1 0x40 SHL SUB PUSH1 0x4 CALLDATALOAD DUP2 DUP2 GT PUSH2 0x1D0 JUMPI PUSH2 0xE0F SWAP1 CALLDATASIZE SWAP1 PUSH1 0x4 ADD PUSH2 0x2A35 JUMP JUMPDEST PUSH1 0x64 CALLDATALOAD DUP3 DUP2 GT PUSH2 0x1D0 JUMPI PUSH2 0xE27 SWAP1 CALLDATASIZE SWAP1 PUSH1 0x4 ADD PUSH2 0x2A35 JUMP JUMPDEST PUSH1 0xA4 CALLDATALOAD DUP4 DUP2 GT PUSH2 0x1D0 JUMPI PUSH2 0xE3F SWAP1 CALLDATASIZE SWAP1 PUSH1 0x4 ADD PUSH2 0x2A35 JUMP JUMPDEST SWAP3 PUSH2 0x104 CALLDATALOAD SWAP1 DUP2 GT PUSH2 0x1D0 JUMPI PUSH2 0xE59 SWAP1 CALLDATASIZE SWAP1 PUSH1 0x4 ADD PUSH2 0x2A35 JUMP JUMPDEST PUSH2 0xE61 PUSH2 0x31F3 JUMP JUMPDEST PUSH2 0xE69 PUSH2 0x321E JUMP JUMPDEST PUSH1 0x24 CALLDATALOAD ISZERO PUSH2 0x18AE JUMPI PUSH1 0x44 CALLDATALOAD ISZERO ISZERO DUP1 PUSH2 0x189E JUMPI JUMPDEST ISZERO PUSH2 0x1859 JUMPI DUP3 MLOAD DUP1 ISZERO ISZERO SWAP1 DUP2 PUSH2 0x184D JUMPI JUMPDEST POP ISZERO PUSH2 0x180F JUMPI DUP2 MLOAD DUP1 ISZERO ISZERO SWAP1 DUP2 PUSH2 0x1803 JUMPI JUMPDEST POP ISZERO PUSH2 0x17BE JUMPI DUP4 MLOAD DUP1 ISZERO ISZERO SWAP1 DUP2 PUSH2 0x17B1 JUMPI JUMPDEST POP ISZERO PUSH2 0x176C JUMPI PUSH1 0xC4 CALLDATALOAD ISZERO PUSH2 0x1713 JUMPI PUSH1 0xE4 CALLDATALOAD ISZERO ISZERO DUP1 PUSH2 0x1705 JUMPI JUMPDEST ISZERO PUSH2 0x16B5 JUMPI PUSH1 0x40 MLOAD PUSH1 0x20 DUP2 ADD SWAP1 PUSH2 0xEF9 PUSH1 0x20 DUP3 DUP6 MLOAD PUSH2 0xEEC DUP2 DUP8 DUP6 DUP11 ADD PUSH2 0x299B JUMP JUMPDEST DUP2 ADD SUB DUP1 DUP5 MSTORE ADD DUP3 PUSH2 0x28D5 JUMP JUMPDEST MLOAD SWAP1 KECCAK256 PUSH1 0x40 MLOAD PUSH1 0x20 DUP2 ADD SWAP1 PUSH7 0x6D6F6E74686C79 PUSH1 0xC8 SHL DUP3 MSTORE PUSH1 0x7 DUP2 MSTORE PUSH2 0xF1E DUP2 PUSH2 0x28BA JUMP JUMPDEST MLOAD SWAP1 KECCAK256 EQ DUP1 ISZERO PUSH2 0x1667 JUMPI JUMPDEST DUP1 ISZERO PUSH2 0x161A JUMPI JUMPDEST ISZERO PUSH2 0x15D5 JUMPI PUSH1 0xFF PUSH1 0x40 MLOAD PUSH1 0x20 DUP2 DUP7 MLOAD PUSH2 0xF4C DUP2 DUP4 DUP6 DUP12 ADD PUSH2 0x299B JUMP JUMPDEST DUP2 ADD PUSH1 0x2 DUP2 MSTORE SUB ADD SWAP1 KECCAK256 SLOAD AND PUSH2 0x1599 JUMPI PUSH1 0x2A PUSH1 0x24 CALLDATALOAD MUL PUSH1 0x24 CALLDATALOAD DUP2 DIV PUSH1 0x2A SUB PUSH2 0x7CE JUMPI PUSH2 0x2710 SWAP1 DIV PUSH1 0x84 CALLDATALOAD SUB PUSH2 0x1566 JUMPI PUSH1 0x64 PUSH1 0xC4 CALLDATALOAD MUL PUSH1 0xC4 CALLDATALOAD DUP2 DIV PUSH1 0x64 SUB PUSH2 0x7CE JUMPI PUSH1 0x78 PUSH1 0x24 CALLDATALOAD MUL SWAP1 PUSH1 0x24 CALLDATALOAD DUP3 DIV PUSH1 0x78 SUB PUSH2 0x7CE JUMPI LT PUSH2 0x1509 JUMPI PUSH1 0x0 SLOAD PUSH1 0x40 MLOAD PUSH4 0x70A08231 PUSH1 0xE0 SHL DUP2 MSTORE CALLER PUSH1 0x4 DUP3 ADD MSTORE SWAP1 PUSH1 0x1 PUSH1 0x1 PUSH1 0xA0 SHL SUB AND PUSH1 0x20 DUP3 PUSH1 0x24 DUP2 DUP5 GAS STATICCALL SWAP2 DUP3 ISZERO PUSH2 0x466 JUMPI PUSH1 0x0 SWAP3 PUSH2 0x14D3 JUMPI JUMPDEST POP PUSH2 0x1005 PUSH2 0x1023 SWAP3 PUSH2 0xFFE PUSH1 0xC4 CALLDATALOAD PUSH2 0xFF9 PUSH1 0x84 CALLDATALOAD PUSH1 0x24 CALLDATALOAD PUSH2 0x2D44 JUMP JUMPDEST PUSH2 0x2D44 JUMP JUMPDEST GT ISZERO PUSH2 0x30AD JUMP JUMPDEST PUSH2 0x1019 PUSH1 0xC4 CALLDATALOAD PUSH2 0xFF9 PUSH1 0x84 CALLDATALOAD PUSH1 0x24 CALLDATALOAD PUSH2 0x2D44 JUMP JUMPDEST SWAP1 ADDRESS SWAP1 CALLER SWAP1 PUSH2 0x32DA JUMP JUMPDEST PUSH1 0x40 MLOAD PUSH1 0x20 DUP2 ADD SWAP1 PUSH2 0x1040 PUSH1 0x20 DUP3 DUP6 MLOAD PUSH2 0xEEC DUP2 DUP8 DUP6 DUP11 ADD PUSH2 0x299B JUMP JUMPDEST MLOAD SWAP1 KECCAK256 PUSH1 0x40 MLOAD PUSH1 0x20 DUP2 ADD SWAP1 PUSH7 0x6D6F6E74686C79 PUSH1 0xC8 SHL DUP3 MSTORE PUSH1 0x7 DUP2 MSTORE PUSH2 0x1065 DUP2 PUSH2 0x28BA JUMP JUMPDEST MLOAD SWAP1 KECCAK256 SUB PUSH2 0x1443 JUMPI PUSH3 0x278D00 PUSH1 0x44 CALLDATALOAD ADD DUP1 PUSH1 0x44 CALLDATALOAD GT PUSH2 0x7CE JUMPI PUSH3 0x278CFF PUSH1 0x44 CALLDATALOAD ADD GT PUSH2 0x7CE JUMPI PUSH3 0x278D00 PUSH3 0x278CFF PUSH1 0x44 CALLDATALOAD ADD DIV PUSH2 0x10A5 PUSH3 0x278D00 TIMESTAMP PUSH2 0x2D44 JUMP JUMPDEST SWAP1 PUSH1 0x40 MLOAD SWAP2 PUSH2 0x10B3 DUP4 PUSH2 0x289E JUMP JUMPDEST DUP6 DUP4 MSTORE CALLER PUSH1 0x20 DUP5 ADD MSTORE PUSH1 0x24 CALLDATALOAD PUSH1 0x40 DUP5 ADD MSTORE PUSH1 0x44 CALLDATALOAD PUSH1 0x60 DUP5 ADD MSTORE PUSH1 0x1 PUSH1 0x80 DUP5 ADD MSTORE DUP5 PUSH1 0xA0 DUP5 ADD MSTORE PUSH1 0x84 CALLDATALOAD PUSH1 0xC0 DUP5 ADD MSTORE TIMESTAMP PUSH1 0xE0 DUP5 ADD MSTORE DUP7 PUSH2 0x100 DUP5 ADD MSTORE PUSH1 0x40 MLOAD PUSH2 0x10FA DUP2 PUSH2 0x28BA JUMP JUMPDEST PUSH1 0x4 DUP2 MSTORE PUSH4 0x27B832B7 PUSH1 0xE1 SHL PUSH1 0x20 DUP3 ADD MSTORE PUSH2 0x120 DUP5 ADD MSTORE PUSH1 0xC4 CALLDATALOAD PUSH2 0x140 DUP5 ADD MSTORE PUSH1 0x0 PUSH2 0x160 DUP5 ADD MSTORE PUSH1 0x0 PUSH2 0x180 DUP5 ADD MSTORE PUSH1 0xE4 CALLDATALOAD PUSH2 0x1A0 DUP5 ADD MSTORE DUP4 PUSH2 0x1C0 DUP5 ADD MSTORE PUSH1 0x0 PUSH2 0x1E0 DUP5 ADD MSTORE PUSH2 0x200 DUP4 ADD MSTORE PUSH1 0x0 PUSH2 0x220 DUP4 ADD MSTORE PUSH2 0x240 DUP3 ADD MSTORE PUSH1 0x12 PUSH2 0x240 PUSH1 0x40 MLOAD PUSH1 0x20 DUP2 DUP9 MLOAD PUSH2 0x1170 DUP2 DUP4 DUP6 DUP14 ADD PUSH2 0x299B JUMP JUMPDEST DUP2 ADD PUSH1 0x1 DUP2 MSTORE SUB ADD SWAP1 KECCAK256 SWAP3 PUSH2 0x1186 DUP2 MLOAD DUP6 PUSH2 0x3332 JUMP JUMPDEST PUSH1 0x1 DUP5 ADD PUSH1 0x1 DUP1 PUSH1 0xA0 SHL SUB PUSH1 0x20 DUP4 ADD MLOAD AND SWAP1 PUSH1 0x1 PUSH1 0x1 PUSH1 0x60 SHL SUB PUSH1 0xA0 SHL SWAP2 DUP3 DUP3 SLOAD AND OR SWAP1 SSTORE PUSH1 0x40 DUP3 ADD MLOAD PUSH1 0x2 DUP7 ADD SSTORE PUSH1 0x60 DUP3 ADD MLOAD PUSH1 0x3 DUP7 ADD SSTORE PUSH2 0x11DE PUSH1 0x80 DUP4 ADD MLOAD ISZERO ISZERO PUSH1 0x4 DUP8 ADD SWAP1 PUSH1 0xFF DUP1 NOT DUP4 SLOAD AND SWAP2 ISZERO ISZERO AND OR SWAP1 SSTORE JUMP JUMPDEST PUSH2 0x11EF PUSH1 0xA0 DUP4 ADD MLOAD PUSH1 0x5 DUP8 ADD PUSH2 0x3332 JUMP JUMPDEST PUSH1 0xC0 DUP3 ADD MLOAD PUSH1 0x6 DUP7 ADD SSTORE PUSH1 0xE0 DUP3 ADD MLOAD PUSH1 0x7 DUP7 ADD SSTORE PUSH2 0x1215 PUSH2 0x100 DUP4 ADD MLOAD PUSH1 0x8 DUP8 ADD PUSH2 0x3332 JUMP JUMPDEST PUSH2 0x1227 PUSH2 0x120 DUP4 ADD MLOAD PUSH1 0x9 DUP8 ADD PUSH2 0x3332 JUMP JUMPDEST PUSH2 0x140 DUP3 ADD MLOAD PUSH1 0xA DUP7 ADD SSTORE PUSH1 0xB DUP6 ADD SWAP1 PUSH1 0x1 DUP1 PUSH1 0xA0 SHL SUB PUSH2 0x160 DUP5 ADD MLOAD AND SWAP1 DUP3 SLOAD AND OR SWAP1 SSTORE PUSH2 0x180 DUP2 ADD MLOAD PUSH1 0xC DUP6 ADD SSTORE PUSH2 0x1A0 DUP2 ADD MLOAD PUSH1 0xD DUP6 ADD SSTORE PUSH2 0x1274 PUSH2 0x1C0 DUP3 ADD MLOAD PUSH1 0xE DUP7 ADD PUSH2 0x3332 JUMP JUMPDEST PUSH2 0x1294 PUSH2 0x1E0 DUP3 ADD MLOAD ISZERO ISZERO PUSH1 0xF DUP7 ADD SWAP1 PUSH1 0xFF DUP1 NOT DUP4 SLOAD AND SWAP2 ISZERO ISZERO AND OR SWAP1 SSTORE JUMP JUMPDEST PUSH2 0x200 DUP2 ADD MLOAD PUSH1 0x10 DUP6 ADD SSTORE PUSH2 0x220 DUP2 ADD MLOAD PUSH1 0x11 DUP6 ADD SSTORE ADD MLOAD SWAP2 ADD SSTORE CALLER PUSH1 0x0 MSTORE PUSH1 0x4 PUSH1 0x20 MSTORE PUSH1 0x40 PUSH1 0x0 KECCAK256 DUP1 SLOAD PUSH9 0x10000000000000000 DUP2 LT ISZERO PUSH2 0x142D JUMPI PUSH2 0x12DF SWAP2 PUSH1 0x1 DUP3 ADD DUP2 SSTORE PUSH2 0x2836 JUMP JUMPDEST SWAP5 SWAP1 SWAP5 PUSH2 0x1417 JUMPI PUSH2 0x12F3 DUP5 PUSH2 0x13D6 SWAP7 PUSH2 0x3332 JUMP JUMPDEST PUSH1 0x40 MLOAD PUSH1 0x20 DUP2 DUP7 MLOAD PUSH2 0x1308 DUP2 DUP4 DUP6 DUP12 ADD PUSH2 0x299B JUMP JUMPDEST DUP2 ADD PUSH1 0x2 DUP2 MSTORE SUB ADD SWAP1 KECCAK256 PUSH1 0x1 PUSH1 0xFF NOT DUP3 SLOAD AND OR SWAP1 SSTORE PUSH2 0x1328 PUSH1 0x3 SLOAD PUSH2 0x30F9 JUMP JUMPDEST PUSH1 0x3 SSTORE CALLER PUSH1 0x0 MSTORE PUSH1 0x5 PUSH1 0x20 MSTORE PUSH1 0x40 PUSH1 0x0 KECCAK256 PUSH2 0x1343 DUP2 SLOAD PUSH2 0x30F9 JUMP JUMPDEST SWAP1 SSTORE PUSH32 0xF97BBFC70340049B77F8F840E9E20604B487403F7E62EA696B741EE126776888 PUSH2 0x13AE PUSH2 0x1372 DUP7 PUSH2 0x2CCA JUMP JUMPDEST SWAP3 PUSH2 0x1398 PUSH1 0x40 MLOAD SWAP7 PUSH1 0x24 CALLDATALOAD DUP9 MSTORE PUSH1 0x44 CALLDATALOAD PUSH1 0x20 DUP10 ADD MSTORE PUSH1 0xE0 PUSH1 0x40 DUP10 ADD MSTORE PUSH1 0xE0 DUP9 ADD SWAP1 PUSH2 0x29BE JUMP JUMPDEST SWAP1 PUSH1 0x84 CALLDATALOAD PUSH1 0x60 DUP9 ADD MSTORE DUP7 DUP3 SUB PUSH1 0x80 DUP9 ADD MSTORE PUSH2 0x29BE JUMP JUMPDEST SWAP4 PUSH1 0xC4 CALLDATALOAD PUSH1 0xA0 DUP3 ADD MSTORE DUP1 DUP6 SUB PUSH1 0xC0 DUP3 ADD MSTORE DUP1 PUSH2 0x13CE PUSH1 0xE4 CALLDATALOAD SWAP7 CALLER SWAP7 PUSH2 0x29BE JUMP JUMPDEST SUB SWAP1 LOG4 PUSH2 0x2CCA JUMP JUMPDEST PUSH1 0x0 DUP1 MLOAD PUSH1 0x20 PUSH2 0x3538 DUP4 CODECOPY DUP2 MLOAD SWAP2 MSTORE PUSH1 0x60 PUSH1 0x40 MLOAD PUSH1 0x20 DUP2 MSTORE PUSH1 0x4 PUSH1 0x20 DUP3 ADD MSTORE PUSH4 0x27B832B7 PUSH1 0xE1 SHL PUSH1 0x40 DUP3 ADD MSTORE LOG2 PUSH1 0x1 PUSH1 0x0 DUP1 MLOAD PUSH1 0x20 PUSH2 0x3598 DUP4 CODECOPY DUP2 MLOAD SWAP2 MSTORE SSTORE STOP JUMPDEST PUSH4 0x4E487B71 PUSH1 0xE0 SHL PUSH1 0x0 MSTORE PUSH1 0x0 PUSH1 0x4 MSTORE PUSH1 0x24 PUSH1 0x0 REVERT JUMPDEST PUSH4 0x4E487B71 PUSH1 0xE0 SHL PUSH1 0x0 MSTORE PUSH1 0x41 PUSH1 0x4 MSTORE PUSH1 0x24 PUSH1 0x0 REVERT JUMPDEST PUSH1 0x40 MLOAD PUSH1 0x20 DUP2 ADD SWAP1 PUSH2 0x1460 PUSH1 0x20 DUP3 DUP6 MLOAD PUSH2 0xEEC DUP2 DUP8 DUP6 DUP11 ADD PUSH2 0x299B JUMP JUMPDEST MLOAD SWAP1 KECCAK256 PUSH1 0x40 MLOAD PUSH1 0x20 DUP2 ADD SWAP1 PUSH9 0x717561727465726C79 PUSH1 0xB8 SHL DUP3 MSTORE PUSH1 0x9 DUP2 MSTORE PUSH2 0x1487 DUP2 PUSH2 0x28BA JUMP JUMPDEST MLOAD SWAP1 KECCAK256 SUB PUSH2 0x14C6 JUMPI PUSH3 0x76A700 PUSH1 0x44 CALLDATALOAD ADD DUP1 PUSH1 0x44 CALLDATALOAD GT PUSH2 0x7CE JUMPI PUSH3 0x76A6FF PUSH1 0x44 CALLDATALOAD ADD GT PUSH2 0x7CE JUMPI PUSH3 0x76A700 PUSH3 0x76A6FF PUSH1 0x44 CALLDATALOAD ADD DIV PUSH2 0x10A5 PUSH3 0x76A700 PUSH2 0xC26 JUMP JUMPDEST PUSH1 0x1 PUSH2 0x10A5 PUSH1 0x44 CALLDATALOAD PUSH2 0xC26 JUMP JUMPDEST SWAP2 POP PUSH1 0x20 DUP3 RETURNDATASIZE PUSH1 0x20 GT PUSH2 0x1501 JUMPI JUMPDEST DUP2 PUSH2 0x14EE PUSH1 0x20 SWAP4 DUP4 PUSH2 0x28D5 JUMP JUMPDEST DUP2 ADD SUB SLT PUSH2 0x1D0 JUMPI SWAP1 MLOAD SWAP1 PUSH2 0x1005 PUSH2 0xFDD JUMP JUMPDEST RETURNDATASIZE SWAP2 POP PUSH2 0x14E1 JUMP JUMPDEST PUSH1 0x40 MLOAD PUSH3 0x461BCD PUSH1 0xE5 SHL DUP2 MSTORE PUSH1 0x20 PUSH1 0x4 DUP3 ADD MSTORE PUSH1 0x2F PUSH1 0x24 DUP3 ADD MSTORE PUSH32 0x436F6C6C61746572616C206D757374206265206174206C656173742031323025 PUSH1 0x44 DUP3 ADD MSTORE PUSH15 0x81BD9881B1BD85B88185B5BDD5B9D PUSH1 0x8A SHL PUSH1 0x64 DUP3 ADD MSTORE PUSH1 0x84 SWAP1 REVERT JUMPDEST PUSH1 0x40 MLOAD PUSH3 0x461BCD PUSH1 0xE5 SHL DUP2 MSTORE PUSH1 0x20 PUSH1 0x4 DUP3 ADD MSTORE PUSH1 0xB PUSH1 0x24 DUP3 ADD MSTORE PUSH11 0x496E76616C696420666565 PUSH1 0xA8 SHL PUSH1 0x44 DUP3 ADD MSTORE PUSH1 0x64 SWAP1 REVERT JUMPDEST PUSH1 0x40 MLOAD PUSH3 0x461BCD PUSH1 0xE5 SHL DUP2 MSTORE PUSH1 0x20 PUSH1 0x4 DUP3 ADD MSTORE PUSH1 0x14 PUSH1 0x24 DUP3 ADD MSTORE PUSH20 0x131BD85B88125108185B1C9958591E481D5CD959 PUSH1 0x62 SHL PUSH1 0x44 DUP3 ADD MSTORE PUSH1 0x64 SWAP1 REVERT JUMPDEST PUSH1 0x40 MLOAD PUSH3 0x461BCD PUSH1 0xE5 SHL DUP2 MSTORE PUSH1 0x20 PUSH1 0x4 DUP3 ADD MSTORE PUSH1 0x1A PUSH1 0x24 DUP3 ADD MSTORE PUSH32 0x496E76616C69642072657061796D656E74207363686564756C65000000000000 PUSH1 0x44 DUP3 ADD MSTORE PUSH1 0x64 SWAP1 REVERT JUMPDEST POP PUSH1 0x40 MLOAD PUSH1 0x20 DUP2 ADD SWAP1 PUSH2 0x1638 PUSH1 0x20 DUP3 DUP6 MLOAD PUSH2 0xEEC DUP2 DUP8 DUP6 DUP11 ADD PUSH2 0x299B JUMP JUMPDEST MLOAD SWAP1 KECCAK256 PUSH1 0x40 MLOAD PUSH1 0x20 DUP2 ADD SWAP1 PUSH8 0x6F6E652D74696D65 PUSH1 0xC0 SHL DUP3 MSTORE PUSH1 0x8 DUP2 MSTORE PUSH2 0x165E DUP2 PUSH2 0x28BA JUMP JUMPDEST MLOAD SWAP1 KECCAK256 EQ PUSH2 0xF30 JUMP JUMPDEST POP PUSH1 0x40 MLOAD PUSH1 0x20 DUP2 ADD SWAP1 PUSH2 0x1685 PUSH1 0x20 DUP3 DUP6 MLOAD PUSH2 0xEEC DUP2 DUP8 DUP6 DUP11 ADD PUSH2 0x299B JUMP JUMPDEST MLOAD SWAP1 KECCAK256 PUSH1 0x40 MLOAD PUSH1 0x20 DUP2 ADD SWAP1 PUSH9 0x717561727465726C79 PUSH1 0xB8 SHL DUP3 MSTORE PUSH1 0x9 DUP2 MSTORE PUSH2 0x16AC DUP2 PUSH2 0x28BA JUMP JUMPDEST MLOAD SWAP1 KECCAK256 EQ PUSH2 0xF29 JUMP JUMPDEST PUSH1 0x40 MLOAD PUSH3 0x461BCD PUSH1 0xE5 SHL DUP2 MSTORE PUSH1 0x20 PUSH1 0x4 DUP3 ADD MSTORE PUSH1 0x22 PUSH1 0x24 DUP3 ADD MSTORE PUSH32 0x496E7465726573742072617465206D757374206265203020746F203530252041 PUSH1 0x44 DUP3 ADD MSTORE PUSH2 0x2829 PUSH1 0xF1 SHL PUSH1 0x64 DUP3 ADD MSTORE PUSH1 0x84 SWAP1 REVERT JUMPDEST POP PUSH2 0x1388 PUSH1 0xE4 CALLDATALOAD GT ISZERO PUSH2 0xECA JUMP JUMPDEST PUSH1 0x40 MLOAD PUSH3 0x461BCD PUSH1 0xE5 SHL DUP2 MSTORE PUSH1 0x20 PUSH1 0x4 DUP3 ADD MSTORE PUSH1 0x2B PUSH1 0x24 DUP3 ADD MSTORE PUSH32 0x436F6C6C61746572616C20616D6F756E74206D75737420626520677265617465 PUSH1 0x44 DUP3 ADD MSTORE PUSH11 0x72207468616E207A65726F PUSH1 0xA8 SHL PUSH1 0x64 DUP3 ADD MSTORE PUSH1 0x84 SWAP1 REVERT JUMPDEST PUSH1 0x40 MLOAD PUSH3 0x461BCD PUSH1 0xE5 SHL DUP2 MSTORE PUSH1 0x20 PUSH1 0x4 DUP3 ADD MSTORE PUSH1 0x1B PUSH1 0x24 DUP3 ADD MSTORE PUSH32 0x496E76616C69642067726F7720707572706F7365206C656E6774680000000000 PUSH1 0x44 DUP3 ADD MSTORE PUSH1 0x64 SWAP1 REVERT JUMPDEST PUSH2 0x100 SWAP2 POP GT ISZERO DUP6 PUSH2 0xEB1 JUMP JUMPDEST PUSH1 0x40 MLOAD PUSH3 0x461BCD PUSH1 0xE5 SHL DUP2 MSTORE PUSH1 0x20 PUSH1 0x4 DUP3 ADD MSTORE PUSH1 0x1B PUSH1 0x24 DUP3 ADD MSTORE PUSH32 0x496E76616C696420636F6E7461637420696E666F206C656E6774680000000000 PUSH1 0x44 DUP3 ADD MSTORE PUSH1 0x64 SWAP1 REVERT JUMPDEST PUSH1 0x64 SWAP2 POP GT ISZERO DUP6 PUSH2 0xE9F JUMP JUMPDEST PUSH1 0x40 MLOAD PUSH3 0x461BCD PUSH1 0xE5 SHL DUP2 MSTORE PUSH1 0x20 PUSH1 0x4 DUP3 ADD MSTORE PUSH1 0x16 PUSH1 0x24 DUP3 ADD MSTORE PUSH22 0x92DCECC2D8D2C840D8DEC2DC40928840D8CADCCEE8D PUSH1 0x53 SHL PUSH1 0x44 DUP3 ADD MSTORE PUSH1 0x64 SWAP1 REVERT JUMPDEST PUSH1 0x20 SWAP2 POP GT ISZERO DUP6 PUSH2 0xE8D JUMP JUMPDEST PUSH1 0x40 MLOAD PUSH3 0x461BCD PUSH1 0xE5 SHL DUP2 MSTORE PUSH1 0x20 PUSH1 0x4 DUP3 ADD MSTORE PUSH1 0x1E PUSH1 0x24 DUP3 ADD MSTORE PUSH32 0x4475726174696F6E206D757374206265203120746F2033363520646179730000 PUSH1 0x44 DUP3 ADD MSTORE PUSH1 0x64 SWAP1 REVERT JUMPDEST POP PUSH4 0x1E13380 PUSH1 0x44 CALLDATALOAD GT ISZERO PUSH2 0xE7C JUMP JUMPDEST PUSH1 0x64 PUSH1 0x40 MLOAD PUSH3 0x461BCD PUSH1 0xE5 SHL DUP2 MSTORE PUSH1 0x20 PUSH1 0x4 DUP3 ADD MSTORE PUSH1 0x20 PUSH1 0x24 DUP3 ADD MSTORE PUSH32 0x416D6F756E74206D7573742062652067726561746572207468616E207A65726F PUSH1 0x44 DUP3 ADD MSTORE REVERT JUMPDEST CALLVALUE PUSH2 0x1D0 JUMPI PUSH1 0x20 DUP1 PUSH1 0x3 NOT CALLDATASIZE ADD SLT PUSH2 0x1D0 JUMPI PUSH1 0x4 CALLDATALOAD PUSH1 0x1 PUSH1 0x1 PUSH1 0x40 SHL SUB DUP2 GT PUSH2 0x1D0 JUMPI PUSH2 0x1923 SWAP1 CALLDATASIZE SWAP1 PUSH1 0x4 ADD PUSH2 0x2A35 JUMP JUMPDEST PUSH2 0x192B PUSH2 0x31F3 JUMP JUMPDEST PUSH2 0x1933 PUSH2 0x321E JUMP JUMPDEST PUSH1 0x40 MLOAD DUP3 DUP2 DUP4 MLOAD PUSH2 0x1947 DUP2 DUP4 DUP6 DUP9 ADD PUSH2 0x299B JUMP JUMPDEST DUP2 ADD PUSH1 0x1 DUP2 MSTORE SUB ADD SWAP1 KECCAK256 PUSH1 0x4 DUP2 ADD SWAP1 PUSH2 0x1963 PUSH1 0xFF DUP4 SLOAD AND PUSH2 0x2BC9 JUMP JUMPDEST PUSH1 0x1 DUP2 ADD SLOAD PUSH1 0x1 PUSH1 0x1 PUSH1 0xA0 SHL SUB SWAP2 SWAP1 DUP3 AND CALLER SUB PUSH2 0x1B55 JUMPI PUSH1 0x24 PUSH1 0x9 DUP3 ADD SWAP4 PUSH2 0x19BA PUSH1 0x40 MLOAD DUP9 DUP2 ADD SWAP1 PUSH2 0x1999 DUP2 PUSH2 0x2C4 DUP5 DUP12 PUSH2 0x2C0A JUMP JUMPDEST MLOAD SWAP1 KECCAK256 PUSH1 0x40 MLOAD DUP10 DUP2 ADD SWAP1 PUSH4 0x27B832B7 PUSH1 0xE1 SHL DUP3 MSTORE PUSH1 0x4 DUP2 MSTORE PUSH2 0x2F3 DUP2 PUSH2 0x28BA JUMP JUMPDEST DUP7 DUP5 PUSH1 0x0 SLOAD AND PUSH1 0x40 MLOAD SWAP4 DUP5 DUP1 SWAP3 PUSH4 0x70A08231 PUSH1 0xE0 SHL DUP3 MSTORE ADDRESS PUSH1 0x4 DUP4 ADD MSTORE GAS STATICCALL SWAP2 DUP3 ISZERO PUSH2 0x466 JUMPI PUSH1 0x0 SWAP3 PUSH2 0x1B26 JUMPI JUMPDEST POP PUSH1 0x2 DUP4 ADD SWAP1 DUP2 SLOAD SWAP3 PUSH2 0x1A11 PUSH1 0xA PUSH2 0x1A06 PUSH1 0x6 DUP9 ADD SWAP7 DUP8 SLOAD SWAP1 PUSH2 0x2D44 JUMP JUMPDEST SWAP7 ADD SWAP6 DUP7 SLOAD SWAP1 PUSH2 0x2D44 JUMP JUMPDEST GT PUSH2 0x1AE1 JUMPI SWAP4 PUSH2 0x1A85 PUSH1 0x60 SWAP5 PUSH2 0x1A7D PUSH2 0x6B5 SWAP11 SWAP6 PUSH2 0x1A91 SWAP6 PUSH1 0x0 DUP1 MLOAD PUSH1 0x20 PUSH2 0x3538 DUP4 CODECOPY DUP2 MLOAD SWAP2 MSTORE SWAP10 PUSH2 0x1A4C PUSH2 0x1A46 DUP14 SLOAD PUSH2 0x2864 JUMP JUMPDEST DUP14 PUSH2 0x3072 JUMP JUMPDEST PUSH1 0x10 PUSH8 0x10D85B98D95B1959 PUSH1 0xC2 SHL ADD SWAP1 SWAP12 SSTORE DUP11 SLOAD PUSH1 0xFF NOT AND SWAP1 SWAP11 SSTORE SWAP9 SLOAD SWAP9 SLOAD PUSH8 0x10D85B98D95B1959 PUSH1 0xC2 SHL SWAP10 PUSH2 0x2D44 JUMP JUMPDEST SWAP1 SLOAD SWAP1 PUSH2 0x2D44 JUMP JUMPDEST SWAP1 CALLER SWAP1 PUSH1 0x0 SLOAD AND PUSH2 0x324E JUMP JUMPDEST CALLER PUSH2 0x1A9B DUP7 PUSH2 0x2CCA JUMP JUMPDEST PUSH32 0x64167C9F5767A6FA8B7008F5263E7F45D013DD7DD2213F2D254BEC2DA2BAE1A7 PUSH1 0x0 DUP1 LOG3 PUSH2 0x1AC9 DUP6 PUSH2 0x2CCA JUMP JUMPDEST SWAP4 PUSH1 0x8 PUSH1 0x40 MLOAD SWAP3 DUP1 DUP5 MSTORE DUP4 ADD MSTORE PUSH1 0x40 DUP3 ADD MSTORE LOG2 PUSH2 0x329D JUMP JUMPDEST PUSH1 0x40 MLOAD PUSH3 0x461BCD PUSH1 0xE5 SHL DUP2 MSTORE PUSH1 0x4 DUP2 ADD DUP10 SWAP1 MSTORE PUSH1 0x1D PUSH1 0x24 DUP3 ADD MSTORE PUSH32 0x496E73756666696369656E7420636F6E74726163742062616C616E6365000000 PUSH1 0x44 DUP3 ADD MSTORE PUSH1 0x64 SWAP1 REVERT JUMPDEST SWAP1 SWAP2 POP DUP7 DUP2 DUP2 RETURNDATASIZE DUP4 GT PUSH2 0x1B4E JUMPI JUMPDEST PUSH2 0x1B3E DUP2 DUP4 PUSH2 0x28D5 JUMP JUMPDEST DUP2 ADD SUB SLT PUSH2 0x1D0 JUMPI MLOAD SWAP1 DUP8 PUSH2 0x19E8 JUMP JUMPDEST POP RETURNDATASIZE PUSH2 0x1B34 JUMP JUMPDEST PUSH1 0x40 MLOAD PUSH3 0x461BCD PUSH1 0xE5 SHL DUP2 MSTORE PUSH1 0x4 DUP2 ADD DUP7 SWAP1 MSTORE PUSH1 0x16 PUSH1 0x24 DUP3 ADD MSTORE PUSH22 0x13DB9B1E4819DC9BDDD95C8818D85B8818D85B98D95B PUSH1 0x52 SHL PUSH1 0x44 DUP3 ADD MSTORE PUSH1 0x64 SWAP1 REVERT JUMPDEST CALLVALUE PUSH2 0x1D0 JUMPI PUSH1 0x20 CALLDATASIZE PUSH1 0x3 NOT ADD SLT PUSH2 0x1D0 JUMPI PUSH1 0x4 CALLDATALOAD PUSH1 0x1 PUSH1 0x1 PUSH1 0x40 SHL SUB DUP2 GT PUSH2 0x1D0 JUMPI PUSH2 0x1BC3 SWAP1 CALLDATASIZE SWAP1 PUSH1 0x4 ADD PUSH2 0x2A35 JUMP JUMPDEST PUSH1 0x40 MLOAD DUP2 DUP2 DUP1 SWAP4 MLOAD PUSH1 0x20 DUP2 SWAP4 ADD SWAP2 PUSH2 0x1BDA SWAP3 PUSH2 0x299B JUMP JUMPDEST DUP2 ADD PUSH1 0x1 DUP2 MSTORE SUB PUSH1 0x20 ADD SWAP1 KECCAK256 PUSH2 0x1BEF DUP2 PUSH2 0x28F6 JUMP JUMPDEST PUSH1 0x1 DUP3 ADD SLOAD PUSH1 0x2 DUP4 ADD SLOAD PUSH2 0x100 MSTORE PUSH1 0x3 DUP4 ADD SLOAD PUSH2 0x120 MSTORE PUSH1 0x4 DUP4 ADD SLOAD PUSH1 0x1 PUSH1 0x1 PUSH1 0xA0 SHL SUB SWAP2 PUSH1 0xFF SWAP1 SWAP2 AND SWAP1 DUP3 AND PUSH2 0x1C28 PUSH1 0x5 DUP7 ADD PUSH2 0x28F6 JUMP JUMPDEST PUSH1 0x6 DUP7 ADD SLOAD PUSH1 0x7 DUP8 ADD SLOAD SWAP1 PUSH2 0x1C3F PUSH1 0x8 DUP10 ADD PUSH2 0x28F6 JUMP JUMPDEST SWAP1 PUSH2 0x1C4C PUSH1 0x9 DUP11 ADD PUSH2 0x28F6 JUMP JUMPDEST SWAP3 PUSH1 0xA DUP11 ADD SLOAD SWAP8 PUSH1 0xB DUP12 ADD SLOAD AND SWAP5 PUSH1 0xC DUP12 ADD SLOAD SWAP7 PUSH1 0xD DUP13 ADD SLOAD SWAP9 PUSH1 0xE DUP14 ADD PUSH2 0x1C73 SWAP1 PUSH2 0x28F6 JUMP JUMPDEST SWAP12 DUP14 PUSH1 0xF DUP2 ADD SLOAD PUSH1 0xFF AND PUSH1 0xE0 MSTORE PUSH1 0x10 ADD SLOAD SWAP14 PUSH1 0x11 DUP2 ADD SLOAD PUSH1 0x80 MSTORE PUSH1 0x12 ADD SLOAD PUSH1 0xA0 MSTORE PUSH1 0x40 MLOAD PUSH1 0xC0 MSTORE PUSH2 0x260 DUP1 PUSH1 0xC0 MLOAD MSTORE PUSH1 0xC0 MLOAD ADD PUSH2 0x1CAF SWAP2 PUSH2 0x29BE JUMP JUMPDEST SWAP2 PUSH1 0xC0 MLOAD PUSH1 0x20 ADD MSTORE PUSH2 0x100 MLOAD PUSH1 0xC0 MLOAD PUSH1 0x40 ADD MSTORE PUSH2 0x120 MLOAD PUSH1 0xC0 MLOAD PUSH1 0x60 ADD MSTORE ISZERO ISZERO PUSH1 0xC0 MLOAD PUSH1 0x80 ADD MSTORE PUSH1 0xC0 MLOAD DUP2 SUB PUSH1 0xC0 MLOAD PUSH1 0xA0 ADD MSTORE PUSH2 0x1CEB SWAP2 PUSH2 0x29BE JUMP JUMPDEST SWAP2 PUSH1 0xC0 MLOAD PUSH1 0xC0 ADD MSTORE PUSH1 0xC0 MLOAD PUSH1 0xE0 ADD MSTORE PUSH1 0xC0 MLOAD DUP2 SUB PUSH1 0xC0 MLOAD PUSH2 0x100 ADD MSTORE PUSH2 0x1D10 SWAP2 PUSH2 0x29BE JUMP JUMPDEST PUSH1 0xC0 MLOAD DUP2 SUB PUSH1 0xC0 MLOAD PUSH2 0x120 ADD MSTORE PUSH2 0x1D26 SWAP2 PUSH2 0x29BE JUMP JUMPDEST SWAP4 PUSH1 0xC0 MLOAD PUSH2 0x140 ADD MSTORE PUSH1 0xC0 MLOAD PUSH2 0x160 ADD MSTORE PUSH1 0xC0 MLOAD PUSH2 0x180 ADD MSTORE PUSH1 0xC0 MLOAD PUSH2 0x1A0 ADD MSTORE PUSH1 0xC0 MLOAD DUP2 SUB PUSH1 0xC0 MLOAD PUSH2 0x1C0 ADD MSTORE PUSH2 0x1D5D SWAP2 PUSH2 0x29BE JUMP JUMPDEST SWAP1 PUSH1 0xE0 MLOAD ISZERO ISZERO PUSH1 0xC0 MLOAD PUSH2 0x1E0 ADD MSTORE PUSH1 0xC0 MLOAD PUSH2 0x200 ADD MSTORE PUSH1 0x80 MLOAD PUSH1 0xC0 MLOAD PUSH2 0x220 ADD MSTORE PUSH1 0xA0 MLOAD PUSH1 0xC0 MLOAD PUSH2 0x240 ADD MSTORE PUSH1 0xC0 MLOAD SWAP1 SUB PUSH1 0xC0 MLOAD RETURN JUMPDEST CALLVALUE PUSH2 0x1D0 JUMPI PUSH1 0x20 CALLDATASIZE PUSH1 0x3 NOT ADD SLT PUSH2 0x1D0 JUMPI PUSH2 0x1DAC PUSH2 0x2820 JUMP JUMPDEST PUSH32 0xF0C57E16840DF040F15088DC2F81FE391C3923BEC73E23A9662EFC9C229C6A00 SWAP1 DUP2 SLOAD SWAP1 PUSH1 0xFF DUP3 PUSH1 0x40 SHR AND ISZERO SWAP2 PUSH1 0x1 PUSH1 0x1 PUSH1 0x40 SHL SUB DUP2 AND DUP1 ISZERO SWAP1 DUP2 PUSH2 0x1F55 JUMPI JUMPDEST PUSH1 0x1 EQ SWAP1 DUP2 PUSH2 0x1F4B JUMPI JUMPDEST ISZERO SWAP1 DUP2 PUSH2 0x1F42 JUMPI JUMPDEST POP PUSH2 0x1F30 JUMPI PUSH8 0xFFFFFFFFFFFFFFFF NOT DUP2 AND PUSH1 0x1 OR DUP5 SSTORE DUP3 PUSH2 0x1F11 JUMPI JUMPDEST POP PUSH2 0x1E24 PUSH2 0x3437 JUMP JUMPDEST PUSH2 0x1E2C PUSH2 0x3437 JUMP JUMPDEST PUSH2 0x1E35 CALLER PUSH2 0x3146 JUMP JUMPDEST PUSH2 0x1E3D PUSH2 0x3437 JUMP JUMPDEST PUSH2 0x1E45 PUSH2 0x3437 JUMP JUMPDEST PUSH2 0x1E4D PUSH2 0x3437 JUMP JUMPDEST PUSH2 0x1E55 PUSH2 0x3437 JUMP JUMPDEST PUSH1 0x1 PUSH1 0x0 DUP1 MLOAD PUSH1 0x20 PUSH2 0x3598 DUP4 CODECOPY DUP2 MLOAD SWAP2 MSTORE SSTORE PUSH1 0x1 PUSH1 0x1 PUSH1 0xA0 SHL SUB AND DUP1 ISZERO PUSH2 0x1ECC JUMPI PUSH1 0x1 PUSH1 0x1 PUSH1 0x60 SHL SUB PUSH1 0xA0 SHL PUSH1 0x0 SLOAD AND OR PUSH1 0x0 SSTORE PUSH2 0x1E8F JUMPI STOP JUMPDEST PUSH9 0xFF0000000000000000 NOT DUP2 SLOAD AND SWAP1 SSTORE PUSH32 0xC7F505B2F371AE2175EE4913F4499E1F2633A7B5936321EED1CDAEB6115181D2 PUSH1 0x20 PUSH1 0x40 MLOAD PUSH1 0x1 DUP2 MSTORE LOG1 STOP JUMPDEST PUSH1 0x40 MLOAD PUSH3 0x461BCD PUSH1 0xE5 SHL DUP2 MSTORE PUSH1 0x20 PUSH1 0x4 DUP3 ADD MSTORE PUSH1 0x1B PUSH1 0x24 DUP3 ADD MSTORE PUSH32 0x496E76616C696420574545444C20746F6B656E20616464726573730000000000 PUSH1 0x44 DUP3 ADD MSTORE PUSH1 0x64 SWAP1 REVERT JUMPDEST PUSH9 0xFFFFFFFFFFFFFFFFFF NOT AND PUSH9 0x10000000000000001 OR DUP4 SSTORE DUP4 PUSH2 0x1E1B JUMP JUMPDEST PUSH1 0x40 MLOAD PUSH4 0xF92EE8A9 PUSH1 0xE0 SHL DUP2 MSTORE PUSH1 0x4 SWAP1 REVERT JUMPDEST SWAP1 POP ISZERO DUP6 PUSH2 0x1DFF JUMP JUMPDEST ADDRESS EXTCODESIZE ISZERO SWAP2 POP PUSH2 0x1DF7 JUMP JUMPDEST DUP5 SWAP2 POP PUSH2 0x1DED JUMP JUMPDEST CALLVALUE PUSH2 0x1D0 JUMPI PUSH1 0x60 CALLDATASIZE PUSH1 0x3 NOT ADD SLT PUSH2 0x1D0 JUMPI PUSH2 0x1F86 PUSH2 0x1F79 PUSH2 0x2820 JUMP JUMPDEST PUSH1 0x44 CALLDATALOAD SWAP1 PUSH1 0x24 CALLDATALOAD SWAP1 PUSH2 0x2D65 JUMP JUMPDEST SWAP1 PUSH2 0x1F96 PUSH1 0x40 MLOAD SWAP3 DUP4 SWAP3 DUP4 PUSH2 0x2A53 JUMP JUMPDEST SUB SWAP1 RETURN JUMPDEST CALLVALUE PUSH2 0x1D0 JUMPI PUSH1 0x0 CALLDATASIZE PUSH1 0x3 NOT ADD SLT PUSH2 0x1D0 JUMPI PUSH1 0x20 PUSH1 0x40 MLOAD PUSH3 0x93A80 DUP2 MSTORE RETURN JUMPDEST CALLVALUE PUSH2 0x1D0 JUMPI PUSH1 0x20 CALLDATASIZE PUSH1 0x3 NOT ADD SLT PUSH2 0x1D0 JUMPI PUSH1 0x1 PUSH1 0x1 PUSH1 0xA0 SHL SUB PUSH2 0x1FD9 PUSH2 0x2820 JUMP JUMPDEST AND PUSH1 0x0 MSTORE PUSH1 0x6 PUSH1 0x20 MSTORE PUSH1 0x20 PUSH1 0x40 PUSH1 0x0 KECCAK256 SLOAD PUSH1 0x40 MLOAD SWAP1 DUP2 MSTORE RETURN JUMPDEST CALLVALUE PUSH2 0x1D0 JUMPI PUSH1 0x0 CALLDATASIZE PUSH1 0x3 NOT ADD SLT PUSH2 0x1D0 JUMPI PUSH1 0x20 PUSH1 0x40 MLOAD PUSH3 0x278D00 DUP2 MSTORE RETURN JUMPDEST CALLVALUE PUSH2 0x1D0 JUMPI PUSH1 0x40 CALLDATASIZE PUSH1 0x3 NOT ADD SLT PUSH2 0x1D0 JUMPI PUSH2 0x1F86 PUSH1 0x4 CALLDATALOAD PUSH2 0x2D24 JUMP JUMPDEST CALLVALUE PUSH2 0x1D0 JUMPI PUSH1 0x0 CALLDATASIZE PUSH1 0x3 NOT ADD SLT PUSH2 0x1D0 JUMPI PUSH2 0x1F96 PUSH1 0x40 MLOAD PUSH2 0x204C DUP2 PUSH2 0x28BA JUMP JUMPDEST PUSH1 0x5 DUP2 MSTORE PUSH5 0x352E302E3 PUSH1 0xDC SHL PUSH1 0x20 DUP3 ADD MSTORE PUSH1 0x40 MLOAD SWAP2 DUP3 SWAP2 PUSH1 0x20 DUP4 MSTORE PUSH1 0x20 DUP4 ADD SWAP1 PUSH2 0x29BE JUMP JUMPDEST CALLVALUE PUSH2 0x1D0 JUMPI PUSH1 0x0 CALLDATASIZE PUSH1 0x3 NOT ADD SLT PUSH2 0x1D0 JUMPI PUSH1 0x20 PUSH1 0x40 MLOAD PUSH1 0x2A DUP2 MSTORE RETURN JUMPDEST CALLVALUE PUSH2 0x1D0 JUMPI PUSH1 0x20 DUP1 PUSH1 0x3 NOT CALLDATASIZE ADD SLT PUSH2 0x1D0 JUMPI PUSH1 0x4 CALLDATALOAD PUSH1 0x1 PUSH1 0x1 PUSH1 0x40 SHL SUB DUP2 GT PUSH2 0x1D0 JUMPI PUSH2 0x20BF SWAP1 CALLDATASIZE SWAP1 PUSH1 0x4 ADD PUSH2 0x2A35 JUMP JUMPDEST PUSH2 0x20C7 PUSH2 0x31BA JUMP JUMPDEST PUSH2 0x20CF PUSH2 0x31F3 JUMP JUMPDEST PUSH1 0x40 MLOAD DUP3 DUP2 DUP4 MLOAD PUSH2 0x20E3 DUP2 DUP4 DUP6 DUP9 ADD PUSH2 0x299B JUMP JUMPDEST DUP2 ADD PUSH1 0x1 DUP2 MSTORE SUB ADD SWAP1 KECCAK256 PUSH2 0x20FD PUSH1 0xFF PUSH1 0x4 DUP4 ADD SLOAD AND PUSH2 0x2BC9 JUMP JUMPDEST PUSH2 0x2139 PUSH1 0x40 MLOAD DUP5 DUP2 ADD SWAP1 PUSH2 0x2118 DUP2 PUSH2 0x2C4 DUP5 PUSH1 0x9 DUP9 ADD PUSH2 0x2C0A JUMP JUMPDEST MLOAD SWAP1 KECCAK256 PUSH1 0x40 MLOAD DUP6 DUP2 ADD SWAP1 PUSH4 0x27B832B7 PUSH1 0xE1 SHL DUP3 MSTORE PUSH1 0x4 DUP2 MSTORE PUSH2 0x2F3 DUP2 PUSH2 0x28BA JUMP JUMPDEST PUSH1 0xF DUP2 ADD DUP1 SLOAD SWAP4 PUSH1 0xFF DUP6 AND PUSH2 0x2194 JUMPI POP PUSH1 0x1 PUSH1 0xFF NOT SWAP5 SWAP1 SWAP5 AND DUP5 OR SWAP1 SSTORE SWAP1 SWAP2 ADD SLOAD PUSH1 0x1 PUSH1 0x1 PUSH1 0xA0 SHL SUB AND SWAP1 PUSH2 0x216D SWAP1 PUSH2 0x2CCA JUMP JUMPDEST PUSH32 0x2EA97AAACB9A854BBFDD40EC3DB02329F9924E26E3FADA4FC5990DA94D4435E1 PUSH1 0x0 DUP1 LOG3 STOP JUMPDEST PUSH1 0x64 SWAP1 PUSH1 0x40 MLOAD SWAP1 PUSH3 0x461BCD PUSH1 0xE5 SHL DUP3 MSTORE PUSH1 0x4 DUP3 ADD MSTORE PUSH1 0x1B PUSH1 0x24 DUP3 ADD MSTORE PUSH32 0x436F6C6C61746572616C20616C726561647920617070726F7665640000000000 PUSH1 0x44 DUP3 ADD MSTORE REVERT JUMPDEST CALLVALUE PUSH2 0x1D0 JUMPI PUSH1 0x0 CALLDATASIZE PUSH1 0x3 NOT ADD SLT PUSH2 0x1D0 JUMPI PUSH1 0x20 PUSH1 0x3 SLOAD PUSH1 0x40 MLOAD SWAP1 DUP2 MSTORE RETURN JUMPDEST CALLVALUE PUSH2 0x1D0 JUMPI PUSH1 0x0 CALLDATASIZE PUSH1 0x3 NOT ADD SLT PUSH2 0x1D0 JUMPI PUSH1 0x0 DUP1 MLOAD PUSH1 0x20 PUSH2 0x3558 DUP4 CODECOPY DUP2 MLOAD SWAP2 MSTORE SLOAD PUSH1 0x40 MLOAD PUSH1 0x1 PUSH1 0x1 PUSH1 0xA0 SHL SUB SWAP1 SWAP2 AND DUP2 MSTORE PUSH1 0x20 SWAP1 RETURN JUMPDEST CALLVALUE PUSH2 0x1D0 JUMPI PUSH1 0x20 CALLDATASIZE PUSH1 0x3 NOT ADD SLT PUSH2 0x1D0 JUMPI PUSH1 0x4 CALLDATALOAD PUSH1 0x1 PUSH1 0x1 PUSH1 0x40 SHL SUB DUP2 GT PUSH2 0x1D0 JUMPI PUSH2 0x2262 PUSH1 0x20 PUSH2 0x20D DUP2 SWAP4 CALLDATASIZE SWAP1 PUSH1 0x4 ADD PUSH2 0x2A35 JUMP JUMPDEST DUP2 ADD PUSH1 0x7 DUP2 MSTORE SUB ADD SWAP1 KECCAK256 SLOAD PUSH1 0x40 MLOAD SWAP1 DUP2 MSTORE RETURN JUMPDEST CALLVALUE PUSH2 0x1D0 JUMPI PUSH1 0x0 CALLDATASIZE PUSH1 0x3 NOT ADD SLT PUSH2 0x1D0 JUMPI PUSH2 0x228E PUSH2 0x31BA JUMP JUMPDEST PUSH2 0x2296 PUSH2 0x31F3 JUMP JUMPDEST PUSH1 0x0 DUP1 MLOAD PUSH1 0x20 PUSH2 0x3578 DUP4 CODECOPY DUP2 MLOAD SWAP2 MSTORE PUSH1 0x1 PUSH1 0xFF NOT DUP3 SLOAD AND OR SWAP1 SSTORE PUSH32 0x62E78CEA01BEE320CD4E420270B5EA74000D11B0C9F74754EBDBFC544B05A258 PUSH1 0x20 PUSH1 0x40 MLOAD CALLER DUP2 MSTORE LOG1 STOP JUMPDEST CALLVALUE PUSH2 0x1D0 JUMPI PUSH1 0x0 CALLDATASIZE PUSH1 0x3 NOT ADD SLT PUSH2 0x1D0 JUMPI PUSH1 0x20 PUSH1 0x40 MLOAD PUSH1 0x78 DUP2 MSTORE RETURN JUMPDEST CALLVALUE PUSH2 0x1D0 JUMPI PUSH1 0x0 CALLDATASIZE PUSH1 0x3 NOT ADD SLT PUSH2 0x1D0 JUMPI PUSH2 0x2311 PUSH2 0x31BA JUMP JUMPDEST PUSH1 0x0 DUP1 MLOAD PUSH1 0x20 PUSH2 0x3558 DUP4 CODECOPY DUP2 MLOAD SWAP2 MSTORE DUP1 SLOAD PUSH1 0x1 PUSH1 0x1 PUSH1 0xA0 SHL SUB NOT DUP2 AND SWAP1 SWAP2 SSTORE PUSH1 0x0 SWAP1 PUSH1 0x1 PUSH1 0x1 PUSH1 0xA0 SHL SUB AND PUSH32 0x8BE0079C531659141344CD1FD0A4F28419497F9722A3DAAFE3B4186F6B6457E0 DUP3 DUP1 LOG3 STOP JUMPDEST CALLVALUE PUSH2 0x1D0 JUMPI PUSH1 0x0 CALLDATASIZE PUSH1 0x3 NOT ADD SLT PUSH2 0x1D0 JUMPI PUSH1 0x20 PUSH1 0xFF PUSH1 0x0 DUP1 MLOAD PUSH1 0x20 PUSH2 0x3578 DUP4 CODECOPY DUP2 MLOAD SWAP2 MSTORE SLOAD AND PUSH1 0x40 MLOAD SWAP1 ISZERO ISZERO DUP2 MSTORE RETURN JUMPDEST CALLVALUE PUSH2 0x1D0 JUMPI PUSH1 0x0 CALLDATASIZE PUSH1 0x3 NOT ADD SLT PUSH2 0x1D0 JUMPI PUSH32 0x0 PUSH1 0x1 PUSH1 0x1 PUSH1 0xA0 SHL SUB AND ADDRESS SUB PUSH2 0x23FD JUMPI PUSH1 0x20 PUSH1 0x40 MLOAD PUSH32 0x360894A13BA1A3210667C828492DB98DCA3E2076CC3735A920A3CA505D382BBC DUP2 MSTORE RETURN JUMPDEST PUSH1 0x40 MLOAD PUSH4 0x703E46DD PUSH1 0xE1 SHL DUP2 MSTORE PUSH1 0x4 SWAP1 REVERT JUMPDEST PUSH1 0x40 CALLDATASIZE PUSH1 0x3 NOT ADD SLT PUSH2 0x1D0 JUMPI PUSH2 0x2423 PUSH2 0x2820 JUMP JUMPDEST PUSH1 0x24 CALLDATALOAD PUSH1 0x1 PUSH1 0x1 PUSH1 0x40 SHL SUB DUP2 GT PUSH2 0x1D0 JUMPI CALLDATASIZE PUSH1 0x23 DUP3 ADD SLT ISZERO PUSH2 0x1D0 JUMPI PUSH2 0x2453 SWAP1 CALLDATASIZE SWAP1 PUSH1 0x24 DUP2 PUSH1 0x4 ADD CALLDATALOAD SWAP2 ADD PUSH2 0x29FE JUMP JUMPDEST SWAP1 PUSH1 0x1 PUSH1 0x1 PUSH1 0xA0 SHL SUB PUSH32 0x0 DUP2 AND ADDRESS DUP2 EQ SWAP1 DUP2 ISZERO PUSH2 0x260F JUMPI JUMPDEST POP PUSH2 0x23FD JUMPI PUSH2 0x2497 PUSH2 0x31BA JUMP JUMPDEST PUSH1 0x40 MLOAD PUSH4 0x52D1902D PUSH1 0xE0 SHL DUP2 MSTORE SWAP1 DUP3 AND SWAP2 PUSH1 0x20 SWAP2 DUP3 DUP2 PUSH1 0x4 DUP2 DUP8 GAS STATICCALL PUSH1 0x0 SWAP2 DUP2 PUSH2 0x25E0 JUMPI JUMPDEST POP PUSH2 0x24DA JUMPI PUSH1 0x40 MLOAD PUSH4 0x4C9C8CE3 PUSH1 0xE0 SHL DUP2 MSTORE PUSH1 0x4 DUP2 ADD DUP6 SWAP1 MSTORE PUSH1 0x24 SWAP1 REVERT JUMPDEST SWAP3 DUP5 SWAP4 PUSH32 0x360894A13BA1A3210667C828492DB98DCA3E2076CC3735A920A3CA505D382BBC SWAP1 DUP2 DUP2 SUB PUSH2 0x25C8 JUMPI POP DUP3 EXTCODESIZE ISZERO PUSH2 0x25AF JUMPI DUP1 SLOAD PUSH1 0x1 PUSH1 0x1 PUSH1 0xA0 SHL SUB NOT AND DUP3 OR SWAP1 SSTORE PUSH1 0x40 MLOAD SWAP1 PUSH32 0xBC7CD75A20EE27FD9ADEBAB32041F755214DBC6BFFA90CC0225B39DA2E5C2D3B PUSH1 0x0 DUP1 LOG2 DUP4 MLOAD ISZERO PUSH2 0x2595 JUMPI POP PUSH1 0x0 DUP1 DUP5 DUP5 PUSH2 0x4E0 SWAP7 MLOAD SWAP2 ADD DUP5 GAS DELEGATECALL SWAP1 RETURNDATASIZE ISZERO PUSH2 0x258C JUMPI RETURNDATASIZE PUSH2 0x256F DUP2 PUSH2 0x29E3 JUMP JUMPDEST SWAP1 PUSH2 0x257D PUSH1 0x40 MLOAD SWAP3 DUP4 PUSH2 0x28D5 JUMP JUMPDEST DUP2 MSTORE PUSH1 0x0 DUP2 SWAP5 RETURNDATASIZE SWAP3 ADD RETURNDATACOPY PUSH2 0x34D4 JUMP JUMPDEST PUSH1 0x60 SWAP3 POP PUSH2 0x34D4 JUMP JUMPDEST SWAP3 POP POP POP CALLVALUE PUSH2 0x25A0 JUMPI STOP JUMPDEST PUSH4 0xB398979F PUSH1 0xE0 SHL DUP2 MSTORE PUSH1 0x4 SWAP1 REVERT JUMPDEST PUSH1 0x40 MLOAD PUSH4 0x4C9C8CE3 PUSH1 0xE0 SHL DUP2 MSTORE PUSH1 0x4 DUP2 ADD DUP4 SWAP1 MSTORE PUSH1 0x24 SWAP1 REVERT JUMPDEST PUSH1 0x24 SWAP1 PUSH1 0x40 MLOAD SWAP1 PUSH4 0x2A875269 PUSH1 0xE2 SHL DUP3 MSTORE PUSH1 0x4 DUP3 ADD MSTORE REVERT JUMPDEST SWAP1 SWAP2 POP DUP4 DUP2 DUP2 RETURNDATASIZE DUP4 GT PUSH2 0x2608 JUMPI JUMPDEST PUSH2 0x25F8 DUP2 DUP4 PUSH2 0x28D5 JUMP JUMPDEST DUP2 ADD SUB SLT PUSH2 0x1D0 JUMPI MLOAD SWAP1 DUP7 PUSH2 0x24BC JUMP JUMPDEST POP RETURNDATASIZE PUSH2 0x25EE JUMP JUMPDEST SWAP1 POP DUP2 PUSH32 0x360894A13BA1A3210667C828492DB98DCA3E2076CC3735A920A3CA505D382BBC SLOAD AND EQ ISZERO DUP5 PUSH2 0x248A JUMP JUMPDEST CALLVALUE PUSH2 0x1D0 JUMPI PUSH1 0x0 CALLDATASIZE PUSH1 0x3 NOT ADD SLT PUSH2 0x1D0 JUMPI PUSH1 0x20 PUSH1 0x40 MLOAD PUSH1 0x12 DUP2 MSTORE RETURN JUMPDEST CALLVALUE PUSH2 0x1D0 JUMPI PUSH1 0x0 CALLDATASIZE PUSH1 0x3 NOT ADD SLT PUSH2 0x1D0 JUMPI PUSH2 0x2672 PUSH2 0x31BA JUMP JUMPDEST PUSH1 0x0 DUP1 MLOAD PUSH1 0x20 PUSH2 0x3578 DUP4 CODECOPY DUP2 MLOAD SWAP2 MSTORE DUP1 SLOAD PUSH1 0xFF DUP2 AND ISZERO PUSH2 0x26BE JUMPI PUSH1 0xFF NOT AND SWAP1 SSTORE PUSH32 0x5DB9EE0A495BF2E6FF9C91A7834C1BA4FDD244A5E8AA4E537BD38AEAE4B073AA PUSH1 0x20 PUSH1 0x40 MLOAD CALLER DUP2 MSTORE LOG1 STOP JUMPDEST PUSH1 0x40 MLOAD PUSH4 0x8DFC202B PUSH1 0xE0 SHL DUP2 MSTORE PUSH1 0x4 SWAP1 REVERT JUMPDEST CALLVALUE PUSH2 0x1D0 JUMPI PUSH1 0x0 CALLDATASIZE PUSH1 0x3 NOT ADD SLT PUSH2 0x1D0 JUMPI PUSH1 0x0 SLOAD PUSH1 0x40 MLOAD PUSH1 0x1 PUSH1 0x1 PUSH1 0xA0 SHL SUB SWAP1 SWAP2 AND DUP2 MSTORE PUSH1 0x20 SWAP1 RETURN JUMPDEST CALLVALUE PUSH2 0x1D0 JUMPI PUSH1 0x0 CALLDATASIZE PUSH1 0x3 NOT ADD SLT PUSH2 0x1D0 JUMPI PUSH1 0x20 PUSH1 0x40 MLOAD PUSH2 0x1388 DUP2 MSTORE RETURN JUMPDEST CALLVALUE PUSH2 0x1D0 JUMPI PUSH1 0x20 CALLDATASIZE PUSH1 0x3 NOT ADD SLT PUSH2 0x1D0 JUMPI PUSH1 0x1 PUSH1 0x1 PUSH1 0xA0 SHL SUB PUSH2 0x2737 PUSH2 0x2820 JUMP JUMPDEST AND PUSH1 0x0 MSTORE PUSH1 0x5 PUSH1 0x20 MSTORE PUSH1 0x20 PUSH1 0x40 PUSH1 0x0 KECCAK256 SLOAD PUSH1 0x40 MLOAD SWAP1 DUP2 MSTORE RETURN JUMPDEST CALLVALUE PUSH2 0x1D0 JUMPI PUSH1 0x20 CALLDATASIZE PUSH1 0x3 NOT ADD SLT PUSH2 0x1D0 JUMPI PUSH1 0x1 PUSH1 0x1 PUSH1 0xA0 SHL SUB PUSH2 0x2771 PUSH2 0x2820 JUMP JUMPDEST AND PUSH1 0x0 MSTORE PUSH1 0x5 PUSH1 0x20 MSTORE PUSH1 0x40 DUP1 PUSH1 0x0 KECCAK256 SLOAD PUSH1 0x6 PUSH1 0x20 MSTORE DUP2 PUSH1 0x0 KECCAK256 SLOAD DUP3 MLOAD SWAP2 DUP3 MSTORE PUSH1 0x20 DUP3 ADD MSTORE RETURN JUMPDEST CALLVALUE PUSH2 0x1D0 JUMPI PUSH1 0x0 CALLDATASIZE PUSH1 0x3 NOT ADD SLT PUSH2 0x1D0 JUMPI PUSH1 0x20 PUSH1 0x40 MLOAD PUSH4 0x1E13380 DUP2 MSTORE RETURN JUMPDEST CALLVALUE PUSH2 0x1D0 JUMPI PUSH1 0x40 CALLDATASIZE PUSH1 0x3 NOT ADD SLT PUSH2 0x1D0 JUMPI PUSH2 0x27CF PUSH2 0x2820 JUMP JUMPDEST PUSH1 0x1 PUSH1 0x1 PUSH1 0xA0 SHL SUB AND PUSH1 0x0 SWAP1 DUP2 MSTORE PUSH1 0x4 PUSH1 0x20 MSTORE PUSH1 0x40 SWAP1 KECCAK256 DUP1 SLOAD PUSH1 0x24 CALLDATALOAD SWAP1 DUP2 LT ISZERO PUSH2 0x1D0 JUMPI PUSH2 0x27FC SWAP2 PUSH2 0x2836 JUMP JUMPDEST PUSH2 0x1417 JUMPI PUSH2 0x280C PUSH2 0x1F96 SWAP2 PUSH2 0x28F6 JUMP JUMPDEST PUSH1 0x40 MLOAD SWAP2 DUP3 SWAP2 PUSH1 0x20 DUP4 MSTORE PUSH1 0x20 DUP4 ADD SWAP1 PUSH2 0x29BE JUMP JUMPDEST PUSH1 0x4 CALLDATALOAD SWAP1 PUSH1 0x1 PUSH1 0x1 PUSH1 0xA0 SHL SUB DUP3 AND DUP3 SUB PUSH2 0x1D0 JUMPI JUMP JUMPDEST DUP1 SLOAD DUP3 LT ISZERO PUSH2 0x284E JUMPI PUSH1 0x0 MSTORE PUSH1 0x20 PUSH1 0x0 KECCAK256 ADD SWAP1 PUSH1 0x0 SWAP1 JUMP JUMPDEST PUSH4 0x4E487B71 PUSH1 0xE0 SHL PUSH1 0x0 MSTORE PUSH1 0x32 PUSH1 0x4 MSTORE PUSH1 0x24 PUSH1 0x0 REVERT JUMPDEST SWAP1 PUSH1 0x1 DUP3 DUP2 SHR SWAP3 AND DUP1 ISZERO PUSH2 0x2894 JUMPI JUMPDEST PUSH1 0x20 DUP4 LT EQ PUSH2 0x287E JUMPI JUMP JUMPDEST PUSH4 0x4E487B71 PUSH1 0xE0 SHL PUSH1 0x0 MSTORE PUSH1 0x22 PUSH1 0x4 MSTORE PUSH1 0x24 PUSH1 0x0 REVERT JUMPDEST SWAP2 PUSH1 0x7F AND SWAP2 PUSH2 0x2873 JUMP JUMPDEST PUSH2 0x260 DUP2 ADD SWAP1 DUP2 LT PUSH1 0x1 PUSH1 0x1 PUSH1 0x40 SHL SUB DUP3 GT OR PUSH2 0x142D JUMPI PUSH1 0x40 MSTORE JUMP JUMPDEST PUSH1 0x40 DUP2 ADD SWAP1 DUP2 LT PUSH1 0x1 PUSH1 0x1 PUSH1 0x40 SHL SUB DUP3 GT OR PUSH2 0x142D JUMPI PUSH1 0x40 MSTORE JUMP JUMPDEST SWAP1 PUSH1 0x1F DUP1 NOT SWAP2 ADD AND DUP2 ADD SWAP1 DUP2 LT PUSH1 0x1 PUSH1 0x1 PUSH1 0x40 SHL SUB DUP3 GT OR PUSH2 0x142D JUMPI PUSH1 0x40 MSTORE JUMP JUMPDEST SWAP1 PUSH1 0x40 MLOAD SWAP2 DUP3 PUSH1 0x0 DUP3 SLOAD PUSH2 0x2909 DUP2 PUSH2 0x2864 JUMP JUMPDEST SWAP1 DUP2 DUP5 MSTORE PUSH1 0x20 SWAP5 PUSH1 0x1 SWAP2 PUSH1 0x1 DUP2 AND SWAP1 DUP2 PUSH1 0x0 EQ PUSH2 0x2979 JUMPI POP PUSH1 0x1 EQ PUSH2 0x293A JUMPI JUMPDEST POP POP POP PUSH2 0x2938 SWAP3 POP SUB DUP4 PUSH2 0x28D5 JUMP JUMPDEST JUMP JUMPDEST PUSH1 0x0 SWAP1 DUP2 MSTORE DUP6 DUP2 KECCAK256 SWAP6 SWAP4 POP SWAP2 SWAP1 JUMPDEST DUP2 DUP4 LT PUSH2 0x2961 JUMPI POP POP PUSH2 0x2938 SWAP4 POP DUP3 ADD ADD CODESIZE DUP1 DUP1 PUSH2 0x2929 JUMP JUMPDEST DUP6 SLOAD DUP9 DUP5 ADD DUP6 ADD MSTORE SWAP5 DUP6 ADD SWAP5 DUP8 SWAP5 POP SWAP2 DUP4 ADD SWAP2 PUSH2 0x2948 JUMP JUMPDEST SWAP3 POP POP POP PUSH2 0x2938 SWAP5 SWAP3 POP PUSH1 0xFF NOT AND DUP3 DUP5 ADD MSTORE ISZERO ISZERO PUSH1 0x5 SHL DUP3 ADD ADD CODESIZE DUP1 DUP1 PUSH2 0x2929 JUMP JUMPDEST PUSH1 0x0 JUMPDEST DUP4 DUP2 LT PUSH2 0x29AE JUMPI POP POP PUSH1 0x0 SWAP2 ADD MSTORE JUMP JUMPDEST DUP2 DUP2 ADD MLOAD DUP4 DUP3 ADD MSTORE PUSH1 0x20 ADD PUSH2 0x299E JUMP JUMPDEST SWAP1 PUSH1 0x20 SWAP2 PUSH2 0x29D7 DUP2 MLOAD DUP1 SWAP3 DUP2 DUP6 MSTORE DUP6 DUP1 DUP7 ADD SWAP2 ADD PUSH2 0x299B JUMP JUMPDEST PUSH1 0x1F ADD PUSH1 0x1F NOT AND ADD ADD SWAP1 JUMP JUMPDEST PUSH1 0x1 PUSH1 0x1 PUSH1 0x40 SHL SUB DUP2 GT PUSH2 0x142D JUMPI PUSH1 0x1F ADD PUSH1 0x1F NOT AND PUSH1 0x20 ADD SWAP1 JUMP JUMPDEST SWAP3 SWAP2 SWAP3 PUSH2 0x2A0A DUP3 PUSH2 0x29E3 JUMP JUMPDEST SWAP2 PUSH2 0x2A18 PUSH1 0x40 MLOAD SWAP4 DUP5 PUSH2 0x28D5 JUMP JUMPDEST DUP3 SWAP5 DUP2 DUP5 MSTORE DUP2 DUP4 ADD GT PUSH2 0x1D0 JUMPI DUP3 DUP2 PUSH1 0x20 SWAP4 DUP5 PUSH1 0x0 SWAP7 ADD CALLDATACOPY ADD ADD MSTORE JUMP JUMPDEST SWAP1 DUP1 PUSH1 0x1F DUP4 ADD SLT ISZERO PUSH2 0x1D0 JUMPI DUP2 PUSH1 0x20 PUSH2 0x2A50 SWAP4 CALLDATALOAD SWAP2 ADD PUSH2 0x29FE JUMP JUMPDEST SWAP1 JUMP JUMPDEST SWAP3 SWAP2 SWAP1 PUSH1 0x40 DUP1 DUP6 ADD PUSH1 0x40 DUP7 MSTORE DUP3 MLOAD DUP1 SWAP2 MSTORE PUSH1 0x60 SWAP1 PUSH1 0x60 DUP8 ADD SWAP3 PUSH1 0x60 DUP3 PUSH1 0x5 SHL DUP10 ADD ADD SWAP4 PUSH1 0x20 DUP1 SWAP7 ADD SWAP4 PUSH1 0x0 SWAP3 JUMPDEST DUP8 DUP6 DUP6 LT PUSH2 0x2A94 JUMPI POP POP POP POP POP POP POP SWAP4 ADD MSTORE JUMP JUMPDEST DUP1 PUSH1 0x1 SWAP3 SWAP4 SWAP5 SWAP6 SWAP7 SWAP8 SWAP9 DUP14 PUSH1 0x5F NOT SWAP1 DUP3 SUB ADD DUP8 MSTORE DUP10 MLOAD SWAP1 PUSH2 0x2B8B PUSH2 0x2AC2 PUSH2 0x260 DUP5 MLOAD SWAP1 DUP1 DUP6 MSTORE DUP5 ADD SWAP1 PUSH2 0x29BE JUMP JUMPDEST PUSH2 0x2B48 PUSH2 0x2B34 PUSH2 0x2B0C DUP8 DUP8 ADD MLOAD SWAP4 DUP11 DUP1 PUSH1 0xA0 SHL SUB DUP1 SWAP6 AND DUP10 DUP9 ADD MSTORE DUP12 DUP9 ADD MLOAD DUP13 DUP9 ADD MSTORE DUP13 DUP9 ADD MLOAD DUP14 DUP9 ADD MSTORE PUSH1 0x80 DUP1 DUP10 ADD MLOAD ISZERO ISZERO SWAP1 DUP9 ADD MSTORE PUSH1 0xA0 DUP1 DUP10 ADD MLOAD SWAP1 DUP9 DUP4 SUB SWAP1 DUP10 ADD MSTORE PUSH2 0x29BE JUMP JUMPDEST PUSH1 0xC0 DUP1 DUP9 ADD MLOAD SWAP1 DUP8 ADD MSTORE PUSH1 0xE0 DUP1 DUP9 ADD MLOAD SWAP1 DUP8 ADD MSTORE PUSH2 0x100 DUP1 DUP9 ADD MLOAD SWAP1 DUP8 DUP4 SUB SWAP1 DUP9 ADD MSTORE PUSH2 0x29BE JUMP JUMPDEST PUSH2 0x120 DUP1 DUP8 ADD MLOAD SWAP1 DUP7 DUP4 SUB SWAP1 DUP8 ADD MSTORE PUSH2 0x29BE JUMP JUMPDEST SWAP1 PUSH2 0x140 DUP1 DUP7 ADD MLOAD SWAP1 DUP6 ADD MSTORE PUSH2 0x160 SWAP1 DUP2 DUP7 ADD MLOAD AND SWAP1 DUP5 ADD MSTORE PUSH2 0x180 DUP1 DUP6 ADD MLOAD SWAP1 DUP5 ADD MSTORE PUSH2 0x1A0 DUP1 DUP6 ADD MLOAD SWAP1 DUP5 ADD MSTORE PUSH2 0x1C0 DUP1 DUP6 ADD MLOAD SWAP1 DUP5 DUP4 SUB SWAP1 DUP6 ADD MSTORE PUSH2 0x29BE JUMP JUMPDEST SWAP2 PUSH2 0x1E0 DUP1 DUP3 ADD MLOAD ISZERO ISZERO SWAP1 DUP4 ADD MSTORE PUSH2 0x200 DUP1 DUP3 ADD MLOAD SWAP1 DUP4 ADD MSTORE PUSH2 0x220 DUP1 DUP3 ADD MLOAD SWAP1 DUP4 ADD MSTORE PUSH2 0x240 DUP1 SWAP2 ADD MLOAD SWAP2 ADD MSTORE SWAP9 ADD SWAP5 ADD SWAP5 ADD SWAP3 SWAP5 SWAP4 SWAP2 SWAP1 PUSH2 0x2A80 JUMP JUMPDEST ISZERO PUSH2 0x2BD0 JUMPI JUMP JUMPDEST PUSH1 0x40 MLOAD PUSH3 0x461BCD PUSH1 0xE5 SHL DUP2 MSTORE PUSH1 0x20 PUSH1 0x4 DUP3 ADD MSTORE PUSH1 0x12 PUSH1 0x24 DUP3 ADD MSTORE PUSH18 0x4C6F616E206973206E6F7420616374697665 PUSH1 0x70 SHL PUSH1 0x44 DUP3 ADD MSTORE PUSH1 0x64 SWAP1 REVERT JUMPDEST PUSH1 0x0 SWAP3 SWAP2 DUP2 SLOAD PUSH2 0x2C19 DUP2 PUSH2 0x2864 JUMP JUMPDEST SWAP3 PUSH1 0x1 SWAP2 DUP1 DUP4 AND SWAP1 DUP2 ISZERO PUSH2 0x2C73 JUMPI POP PUSH1 0x1 EQ PUSH2 0x2C36 JUMPI JUMPDEST POP POP POP POP JUMP JUMPDEST SWAP1 SWAP2 SWAP3 SWAP4 SWAP5 POP PUSH1 0x0 MSTORE PUSH1 0x20 SWAP1 PUSH1 0x20 PUSH1 0x0 KECCAK256 SWAP1 PUSH1 0x0 SWAP2 JUMPDEST DUP6 DUP4 LT PUSH2 0x2C62 JUMPI POP POP POP POP ADD SWAP1 CODESIZE DUP1 DUP1 DUP1 PUSH2 0x2C30 JUMP JUMPDEST DUP1 SLOAD DUP6 DUP5 ADD MSTORE SWAP2 DUP4 ADD SWAP2 DUP2 ADD PUSH2 0x2C4C JUMP JUMPDEST PUSH1 0xFF NOT AND DUP5 MSTORE POP POP POP DUP2 ISZERO ISZERO SWAP1 SWAP2 MUL ADD SWAP2 POP CODESIZE DUP1 DUP1 DUP1 PUSH2 0x2C30 JUMP JUMPDEST ISZERO PUSH2 0x2C95 JUMPI JUMP JUMPDEST PUSH1 0x40 MLOAD PUSH3 0x461BCD PUSH1 0xE5 SHL DUP2 MSTORE PUSH1 0x20 PUSH1 0x4 DUP3 ADD MSTORE PUSH1 0xD PUSH1 0x24 DUP3 ADD MSTORE PUSH13 0x2637B0B7103737BA1037B832B7 PUSH1 0x99 SHL PUSH1 0x44 DUP3 ADD MSTORE PUSH1 0x64 SWAP1 REVERT JUMPDEST PUSH2 0x2CE2 SWAP1 PUSH1 0x20 PUSH1 0x40 MLOAD SWAP3 DUP3 DUP5 DUP1 SWAP5 MLOAD SWAP4 DUP5 SWAP3 ADD PUSH2 0x299B JUMP JUMPDEST DUP2 ADD SUB SWAP1 KECCAK256 SWAP1 JUMP JUMPDEST PUSH1 0x1 PUSH1 0x1 PUSH1 0x40 SHL SUB DUP2 GT PUSH2 0x142D JUMPI PUSH1 0x5 SHL PUSH1 0x20 ADD SWAP1 JUMP JUMPDEST PUSH1 0x40 MLOAD PUSH1 0x20 DUP2 ADD DUP2 DUP2 LT PUSH1 0x1 PUSH1 0x1 PUSH1 0x40 SHL SUB DUP3 GT OR PUSH2 0x142D JUMPI PUSH1 0x40 MSTORE PUSH1 0x0 DUP2 MSTORE SWAP1 JUMP JUMPDEST SWAP1 PUSH1 0x3 SLOAD DUP1 SWAP3 LT ISZERO PUSH2 0x2D3C JUMPI PUSH2 0x2D38 PUSH2 0x2D01 JUMP JUMPDEST SWAP2 SWAP1 JUMP JUMPDEST PUSH2 0x2D38 PUSH2 0x2D01 JUMP JUMPDEST SWAP2 SWAP1 DUP3 ADD DUP1 SWAP3 GT PUSH2 0x7CE JUMPI JUMP JUMPDEST DUP1 MLOAD DUP3 LT ISZERO PUSH2 0x284E JUMPI PUSH1 0x20 SWAP2 PUSH1 0x5 SHL ADD ADD SWAP1 JUMP JUMPDEST SWAP1 SWAP3 SWAP2 SWAP3 PUSH1 0x1 DUP1 PUSH1 0xA0 SHL SUB DUP1 PUSH1 0x0 SWAP4 AND DUP4 MSTORE PUSH1 0x4 PUSH1 0x20 SWAP1 PUSH1 0x4 DUP3 MSTORE PUSH1 0x40 SWAP3 DUP4 DUP7 KECCAK256 DUP1 SLOAD PUSH2 0x2D91 DUP2 PUSH2 0x2CEA JUMP JUMPDEST SWAP2 PUSH2 0x2D9E DUP8 MLOAD SWAP4 DUP5 PUSH2 0x28D5 JUMP JUMPDEST DUP2 DUP4 MSTORE DUP9 MSTORE DUP5 DUP9 KECCAK256 DUP9 SWAP1 DUP7 DUP1 DUP6 ADD JUMPDEST DUP5 DUP5 LT PUSH2 0x303D JUMPI POP POP POP POP POP DUP1 MLOAD SWAP9 DUP10 DUP8 LT ISZERO PUSH2 0x302D JUMPI DUP10 PUSH2 0x2DCF DUP3 DUP10 PUSH2 0x2D44 JUMP JUMPDEST GT ISZERO PUSH2 0x301D JUMPI POP DUP9 SWAP6 JUMPDEST DUP1 DUP8 SUB SWAP7 DUP8 GT PUSH2 0x3009 JUMPI PUSH2 0x2DEC DUP8 PUSH2 0x2CEA JUMP JUMPDEST SWAP8 PUSH2 0x2DF9 DUP8 MLOAD SWAP10 DUP11 PUSH2 0x28D5 JUMP JUMPDEST DUP8 DUP10 MSTORE PUSH1 0x1F NOT PUSH2 0x2E08 DUP10 PUSH2 0x2CEA JUMP JUMPDEST ADD DUP7 DUP3 JUMPDEST DUP3 DUP2 LT PUSH2 0x2F77 JUMPI POP POP POP JUMPDEST DUP8 DUP2 LT PUSH2 0x2E2A JUMPI POP POP POP POP POP POP POP POP SWAP2 SWAP1 JUMP JUMPDEST DUP1 PUSH2 0x2E40 PUSH2 0x2E3A PUSH1 0x1 SWAP4 DUP6 PUSH2 0x2D44 JUMP JUMPDEST DUP6 PUSH2 0x2D51 JUMP JUMPDEST MLOAD PUSH1 0x12 DUP9 PUSH2 0x2E56 DUP12 MLOAD SWAP4 DUP5 DUP2 MLOAD SWAP4 DUP5 SWAP3 ADD PUSH2 0x299B JUMP JUMPDEST DUP3 ADD SWAP2 DUP10 DUP2 DUP7 SWAP5 DUP6 DUP2 MSTORE SUB ADD SWAP1 KECCAK256 DUP8 DUP12 MLOAD SWAP4 PUSH2 0x2E71 DUP6 PUSH2 0x289E JUMP JUMPDEST PUSH2 0x2E7A DUP4 PUSH2 0x28F6 JUMP JUMPDEST DUP6 MSTORE DUP3 ADD SLOAD AND DUP11 DUP5 ADD MSTORE PUSH1 0x2 DUP2 ADD SLOAD DUP12 DUP5 ADD MSTORE PUSH1 0x3 DUP2 ADD SLOAD PUSH1 0x60 DUP5 ADD MSTORE PUSH1 0xFF DUP1 DUP11 DUP4 ADD SLOAD AND ISZERO ISZERO PUSH1 0x80 DUP6 ADD MSTORE PUSH2 0x2EB2 PUSH1 0x5 DUP4 ADD PUSH2 0x28F6 JUMP JUMPDEST PUSH1 0xA0 DUP6 ADD MSTORE PUSH1 0x6 DUP3 ADD SLOAD PUSH1 0xC0 DUP6 ADD MSTORE PUSH1 0x7 DUP3 ADD SLOAD PUSH1 0xE0 DUP6 ADD MSTORE PUSH2 0x2ED7 PUSH1 0x8 DUP4 ADD PUSH2 0x28F6 JUMP JUMPDEST PUSH2 0x100 DUP6 ADD MSTORE PUSH2 0x2EE9 PUSH1 0x9 DUP4 ADD PUSH2 0x28F6 JUMP JUMPDEST PUSH2 0x120 DUP6 ADD MSTORE PUSH1 0xA DUP3 ADD SLOAD PUSH2 0x140 DUP6 ADD MSTORE DUP9 PUSH1 0xB DUP4 ADD SLOAD AND PUSH2 0x160 DUP6 ADD MSTORE PUSH1 0xC DUP3 ADD SLOAD PUSH2 0x180 DUP6 ADD MSTORE PUSH1 0xD DUP3 ADD SLOAD PUSH2 0x1A0 DUP6 ADD MSTORE PUSH2 0x2F29 PUSH1 0xE DUP4 ADD PUSH2 0x28F6 JUMP JUMPDEST PUSH2 0x1C0 DUP6 ADD MSTORE PUSH1 0xF DUP3 ADD SLOAD AND ISZERO ISZERO PUSH2 0x1E0 DUP5 ADD MSTORE PUSH1 0x10 DUP2 ADD SLOAD PUSH2 0x200 DUP5 ADD MSTORE PUSH1 0x11 DUP2 ADD SLOAD PUSH2 0x220 DUP5 ADD MSTORE ADD SLOAD PUSH2 0x240 DUP3 ADD MSTORE PUSH2 0x2F65 DUP3 DUP13 PUSH2 0x2D51 JUMP JUMPDEST MSTORE PUSH2 0x2F70 DUP2 DUP12 PUSH2 0x2D51 JUMP JUMPDEST POP ADD PUSH2 0x2E17 JUMP JUMPDEST DUP10 MLOAD DUP3 DUP3 DUP15 PUSH2 0x2F85 DUP5 PUSH2 0x289E JUMP JUMPDEST DUP14 DUP9 PUSH1 0x60 SWAP2 DUP3 DUP8 MSTORE DUP2 DUP7 DUP9 ADD MSTORE DUP7 ADD MSTORE DUP9 DUP2 DUP7 ADD MSTORE DUP9 PUSH1 0x80 DUP7 ADD MSTORE DUP1 PUSH1 0xA0 DUP7 ADD MSTORE DUP9 PUSH1 0xC0 DUP7 ADD MSTORE DUP9 PUSH1 0xE0 DUP7 ADD MSTORE DUP1 PUSH2 0x100 DUP7 ADD MSTORE DUP1 PUSH2 0x120 DUP7 ADD MSTORE DUP9 PUSH2 0x140 DUP7 ADD MSTORE DUP9 PUSH2 0x160 DUP7 ADD MSTORE DUP9 PUSH2 0x180 DUP7 ADD MSTORE DUP9 PUSH2 0x1A0 DUP7 ADD MSTORE PUSH2 0x1C0 DUP6 ADD MSTORE DUP8 PUSH2 0x1E0 DUP6 ADD MSTORE DUP8 PUSH2 0x200 DUP6 ADD MSTORE DUP8 PUSH2 0x220 DUP6 ADD MSTORE DUP8 PUSH2 0x240 DUP6 ADD MSTORE ADD ADD MSTORE ADD DUP8 SWAP1 PUSH2 0x2E0C JUMP JUMPDEST PUSH4 0x4E487B71 PUSH1 0xE0 SHL DUP9 MSTORE PUSH1 0x11 PUSH1 0x4 MSTORE PUSH1 0x24 DUP9 REVERT JUMPDEST PUSH2 0x3027 SWAP1 DUP8 PUSH2 0x2D44 JUMP JUMPDEST SWAP6 PUSH2 0x2DD9 JUMP JUMPDEST POP POP POP POP POP POP POP POP PUSH2 0x2D38 PUSH2 0x2D01 JUMP JUMPDEST PUSH1 0x1 SWAP2 DUP3 SWAP2 PUSH2 0x304B DUP6 PUSH2 0x28F6 JUMP JUMPDEST DUP2 MSTORE ADD SWAP3 ADD SWAP3 ADD SWAP2 SWAP1 DUP8 SWAP1 PUSH2 0x2DAD JUMP JUMPDEST DUP2 DUP2 LT PUSH2 0x3066 JUMPI POP POP JUMP JUMPDEST PUSH1 0x0 DUP2 SSTORE PUSH1 0x1 ADD PUSH2 0x305B JUMP JUMPDEST SWAP1 PUSH1 0x1F DUP2 GT PUSH2 0x307F JUMPI POP POP JUMP JUMPDEST PUSH2 0x2938 SWAP2 PUSH1 0x0 MSTORE PUSH1 0x1F PUSH1 0x20 PUSH1 0x0 KECCAK256 SWAP2 ADD PUSH1 0x5 SHR DUP2 ADD SWAP1 PUSH2 0x305B JUMP JUMPDEST DUP2 DUP2 MUL SWAP3 SWAP2 DUP2 ISZERO SWAP2 DUP5 DIV EQ OR ISZERO PUSH2 0x7CE JUMPI JUMP JUMPDEST ISZERO PUSH2 0x30B4 JUMPI JUMP JUMPDEST PUSH1 0x40 MLOAD PUSH3 0x461BCD PUSH1 0xE5 SHL DUP2 MSTORE PUSH1 0x20 PUSH1 0x4 DUP3 ADD MSTORE PUSH1 0x1A PUSH1 0x24 DUP3 ADD MSTORE PUSH32 0x496E73756666696369656E7420574545444C2062616C616E6365000000000000 PUSH1 0x44 DUP3 ADD MSTORE PUSH1 0x64 SWAP1 REVERT JUMPDEST PUSH1 0x0 NOT DUP2 EQ PUSH2 0x7CE JUMPI PUSH1 0x1 ADD SWAP1 JUMP JUMPDEST ISZERO PUSH2 0x310F JUMPI JUMP JUMPDEST PUSH1 0x40 MLOAD PUSH3 0x461BCD PUSH1 0xE5 SHL DUP2 MSTORE PUSH1 0x20 PUSH1 0x4 DUP3 ADD MSTORE PUSH1 0xF PUSH1 0x24 DUP3 ADD MSTORE PUSH15 0x131BD85B881B9BDD08199D5B991959 PUSH1 0x8A SHL PUSH1 0x44 DUP3 ADD MSTORE PUSH1 0x64 SWAP1 REVERT JUMPDEST PUSH1 0x1 PUSH1 0x1 PUSH1 0xA0 SHL SUB SWAP1 DUP2 AND SWAP1 DUP2 ISZERO PUSH2 0x31A1 JUMPI PUSH1 0x0 DUP1 MLOAD PUSH1 0x20 PUSH2 0x3558 DUP4 CODECOPY DUP2 MLOAD SWAP2 MSTORE DUP1 SLOAD PUSH1 0x1 PUSH1 0x1 PUSH1 0xA0 SHL SUB NOT DUP2 AND DUP5 OR SWAP1 SWAP2 SSTORE AND PUSH32 0x8BE0079C531659141344CD1FD0A4F28419497F9722A3DAAFE3B4186F6B6457E0 PUSH1 0x0 DUP1 LOG3 JUMP JUMPDEST PUSH1 0x40 MLOAD PUSH4 0x1E4FBDF7 PUSH1 0xE0 SHL DUP2 MSTORE PUSH1 0x0 PUSH1 0x4 DUP3 ADD MSTORE PUSH1 0x24 SWAP1 REVERT JUMPDEST PUSH1 0x0 DUP1 MLOAD PUSH1 0x20 PUSH2 0x3558 DUP4 CODECOPY DUP2 MLOAD SWAP2 MSTORE SLOAD PUSH1 0x1 PUSH1 0x1 PUSH1 0xA0 SHL SUB AND CALLER SUB PUSH2 0x31DB JUMPI JUMP JUMPDEST PUSH1 0x40 MLOAD PUSH4 0x118CDAA7 PUSH1 0xE0 SHL DUP2 MSTORE CALLER PUSH1 0x4 DUP3 ADD MSTORE PUSH1 0x24 SWAP1 REVERT JUMPDEST PUSH1 0xFF PUSH1 0x0 DUP1 MLOAD PUSH1 0x20 PUSH2 0x3578 DUP4 CODECOPY DUP2 MLOAD SWAP2 MSTORE SLOAD AND PUSH2 0x320C JUMPI JUMP JUMPDEST PUSH1 0x40 MLOAD PUSH4 0xD93C0665 PUSH1 0xE0 SHL DUP2 MSTORE PUSH1 0x4 SWAP1 REVERT JUMPDEST PUSH1 0x0 DUP1 MLOAD PUSH1 0x20 PUSH2 0x3598 DUP4 CODECOPY DUP2 MLOAD SWAP2 MSTORE PUSH1 0x2 DUP2 SLOAD EQ PUSH2 0x323C JUMPI PUSH1 0x2 SWAP1 SSTORE JUMP JUMPDEST PUSH1 0x40 MLOAD PUSH4 0x3EE5AEB5 PUSH1 0xE0 SHL DUP2 MSTORE PUSH1 0x4 SWAP1 REVERT JUMPDEST PUSH1 0x40 MLOAD PUSH4 0xA9059CBB PUSH1 0xE0 SHL PUSH1 0x20 DUP3 ADD MSTORE PUSH1 0x1 PUSH1 0x1 PUSH1 0xA0 SHL SUB SWAP1 SWAP3 AND PUSH1 0x24 DUP4 ADD MSTORE PUSH1 0x44 DUP1 DUP4 ADD SWAP4 SWAP1 SWAP4 MSTORE SWAP2 DUP2 MSTORE PUSH1 0x80 DUP2 ADD SWAP2 PUSH1 0x1 PUSH1 0x1 PUSH1 0x40 SHL SUB DUP4 GT DUP3 DUP5 LT OR PUSH2 0x142D JUMPI PUSH2 0x2938 SWAP3 PUSH1 0x40 MSTORE PUSH2 0x3478 JUMP JUMPDEST PUSH1 0x20 PUSH2 0x32B6 SWAP2 DUP2 PUSH1 0x40 MLOAD SWAP4 DUP3 DUP6 DUP1 SWAP5 MLOAD SWAP4 DUP5 SWAP3 ADD PUSH2 0x299B JUMP JUMPDEST DUP2 ADD PUSH1 0x2 DUP2 MSTORE SUB ADD SWAP1 KECCAK256 PUSH1 0xFF NOT DUP2 SLOAD AND SWAP1 SSTORE PUSH1 0x3 SLOAD DUP1 ISZERO PUSH2 0x7CE JUMPI PUSH1 0x0 NOT ADD PUSH1 0x3 SSTORE JUMP JUMPDEST PUSH1 0x40 MLOAD PUSH4 0x23B872DD PUSH1 0xE0 SHL PUSH1 0x20 DUP3 ADD MSTORE PUSH1 0x1 PUSH1 0x1 PUSH1 0xA0 SHL SUB SWAP3 DUP4 AND PUSH1 0x24 DUP3 ADD MSTORE SWAP3 SWAP1 SWAP2 AND PUSH1 0x44 DUP4 ADD MSTORE PUSH1 0x64 DUP1 DUP4 ADD SWAP4 SWAP1 SWAP4 MSTORE SWAP2 DUP2 MSTORE PUSH1 0xA0 DUP2 ADD SWAP2 DUP2 DUP4 LT PUSH1 0x1 PUSH1 0x1 PUSH1 0x40 SHL SUB DUP5 GT OR PUSH2 0x142D JUMPI PUSH2 0x2938 SWAP3 PUSH1 0x40 MSTORE PUSH2 0x3478 JUMP JUMPDEST SWAP2 SWAP1 SWAP2 DUP3 MLOAD PUSH1 0x1 PUSH1 0x1 PUSH1 0x40 SHL SUB DUP2 GT PUSH2 0x142D JUMPI PUSH2 0x334F DUP3 SLOAD PUSH2 0x2864 JUMP JUMPDEST PUSH1 0x1F DUP2 GT PUSH2 0x33FA JUMPI JUMPDEST POP PUSH1 0x20 DUP1 PUSH1 0x1F DUP4 GT PUSH1 0x1 EQ PUSH2 0x3395 JUMPI POP DUP2 SWAP3 SWAP4 SWAP5 PUSH1 0x0 SWAP3 PUSH2 0x338A JUMPI JUMPDEST POP POP DUP2 PUSH1 0x1 SHL SWAP2 PUSH1 0x0 NOT SWAP1 PUSH1 0x3 SHL SHR NOT AND OR SWAP1 SSTORE JUMP JUMPDEST ADD MLOAD SWAP1 POP CODESIZE DUP1 PUSH2 0x3374 JUMP JUMPDEST SWAP1 PUSH1 0x1F NOT DUP4 AND SWAP6 DUP5 PUSH1 0x0 MSTORE PUSH1 0x20 PUSH1 0x0 KECCAK256 SWAP3 PUSH1 0x0 SWAP1 JUMPDEST DUP9 DUP3 LT PUSH2 0x33E2 JUMPI POP POP DUP4 PUSH1 0x1 SWAP6 SWAP7 SWAP8 LT PUSH2 0x33C9 JUMPI JUMPDEST POP POP POP DUP2 SHL ADD SWAP1 SSTORE JUMP JUMPDEST ADD MLOAD PUSH1 0x0 NOT PUSH1 0xF8 DUP5 PUSH1 0x3 SHL AND SHR NOT AND SWAP1 SSTORE CODESIZE DUP1 DUP1 PUSH2 0x33BF JUMP JUMPDEST DUP1 PUSH1 0x1 DUP6 SWAP7 DUP3 SWAP5 SWAP7 DUP7 ADD MLOAD DUP2 SSTORE ADD SWAP6 ADD SWAP4 ADD SWAP1 PUSH2 0x33AA JUMP JUMPDEST PUSH2 0x3427 SWAP1 DUP4 PUSH1 0x0 MSTORE PUSH1 0x20 PUSH1 0x0 KECCAK256 PUSH1 0x1F DUP5 ADD PUSH1 0x5 SHR DUP2 ADD SWAP2 PUSH1 0x20 DUP6 LT PUSH2 0x342D JUMPI JUMPDEST PUSH1 0x1F ADD PUSH1 0x5 SHR ADD SWAP1 PUSH2 0x305B JUMP JUMPDEST CODESIZE PUSH2 0x3358 JUMP JUMPDEST SWAP1 SWAP2 POP DUP2 SWAP1 PUSH2 0x341A JUMP JUMPDEST PUSH1 0xFF PUSH32 0xF0C57E16840DF040F15088DC2F81FE391C3923BEC73E23A9662EFC9C229C6A00 SLOAD PUSH1 0x40 SHR AND ISZERO PUSH2 0x3466 JUMPI JUMP JUMPDEST PUSH1 0x40 MLOAD PUSH4 0x1AFCD79F PUSH1 0xE3 SHL DUP2 MSTORE PUSH1 0x4 SWAP1 REVERT JUMPDEST SWAP1 PUSH1 0x0 PUSH1 0x20 SWAP2 DUP3 DUP2 MLOAD SWAP2 ADD DUP3 DUP6 GAS CALL ISZERO PUSH2 0x466 JUMPI PUSH1 0x0 MLOAD RETURNDATASIZE PUSH2 0x34CB JUMPI POP PUSH1 0x1 PUSH1 0x1 PUSH1 0xA0 SHL SUB DUP2 AND EXTCODESIZE ISZERO JUMPDEST PUSH2 0x34A9 JUMPI POP JUMP JUMPDEST PUSH1 0x40 MLOAD PUSH4 0x5274AFE7 PUSH1 0xE0 SHL DUP2 MSTORE PUSH1 0x1 PUSH1 0x1 PUSH1 0xA0 SHL SUB SWAP1 SWAP2 AND PUSH1 0x4 DUP3 ADD MSTORE PUSH1 0x24 SWAP1 REVERT JUMPDEST PUSH1 0x1 EQ ISZERO PUSH2 0x34A2 JUMP JUMPDEST SWAP1 PUSH2 0x34FB JUMPI POP DUP1 MLOAD ISZERO PUSH2 0x34E9 JUMPI DUP1 MLOAD SWAP1 PUSH1 0x20 ADD REVERT JUMPDEST PUSH1 0x40 MLOAD PUSH4 0xD6BDA275 PUSH1 0xE0 SHL DUP2 MSTORE PUSH1 0x4 SWAP1 REVERT JUMPDEST DUP2 MLOAD ISZERO DUP1 PUSH2 0x352E JUMPI JUMPDEST PUSH2 0x350C JUMPI POP SWAP1 JUMP JUMPDEST PUSH1 0x40 MLOAD PUSH4 0x9996B315 PUSH1 0xE0 SHL DUP2 MSTORE PUSH1 0x1 PUSH1 0x1 PUSH1 0xA0 SHL SUB SWAP1 SWAP2 AND PUSH1 0x4 DUP3 ADD MSTORE PUSH1 0x24 SWAP1 REVERT JUMPDEST POP DUP1 EXTCODESIZE ISZERO PUSH2 0x3504 JUMP INVALID DUP11 PUSH28 0xE6B6D998757CDE134D68C5BC04568DBFD09AEDA7C427B92E33650217 EXTCODEHASH LOG4 SWAP1 AND 0xD0 SWAP14 PUSH19 0xD40FDAE2FD8CEAC6B6234C7706214FD39C1CD1 0xE6 MULMOD LOG0 MSTORE DUP13 NOT SWAP4 STOP 0xCD 0x5E 0xD1 0x5C PUSH15 0x187E77E9AEE88184C21F4F2182AB58 0x27 0xCB EXTCODESIZE PUSH31 0x7FBEDCD63F033009B779B17422D0DF92223018B32B4D1FA46E071723D6817 0xE2 BASEFEE PUSH14 0x3BECC55F00A264697066735822 SLT KECCAK256 CREATE RETURNDATACOPY 0xC SWAP8 0x5E PUSH5 0x24702273DA DUP12 RETURNDATACOPY MLOAD 0xF6 ADDRESS DUP12 0xAC INVALID DUP16 CALLCODE 0xAE ADDRESS 0xF8 0x27 PUSH17 0x59A0AE94649264736F6C63430008160033 "},"methodIdentifiers":{"FEE_BASIS_POINTS()":"a525ad3c","GRACE_PERIOD()":"c1a287e2","MAX_INTEREST_RATE()":"34855d14","MAX_LOAN_DURATION()":"0d0b2ca6","MIN_COLLATERAL_RATIO()":"7a9fffb7","MONTHLY_PERIOD()":"b30c5fc3","QUARTERLY_PERIOD()":"f0433fb3","UPGRADE_INTERFACE_VERSION()":"ad3cb1cc","VERSION()":"ffa1ad74","WEEDL_DECIMALS()":"441f949a","approveCollateral(string)":"92a00c4f","cancelLoan(string)":"c70f2e2b","claimCollateral(string)":"e287183a","createLoan(string,uint256,uint256,string,uint256,string,uint256,uint256,string)":"c8b0adaf","fundLoan(string)":"f897eeba","getAllLoans(uint256,uint256)":"ae0a1515","getGrowerHistory(address)":"296882b6","getGrowerLoans(address,uint256,uint256)":"c44582d7","getRepaymentStatus(string)":"8a48eb82","growerLoanCount(address)":"2bd45ac4","growerLoans(address,uint256)":"0d03811e","growerRepaidCount(address)":"c14cfe7f","initialize(address)":"c4d66de8","loans(string)":"c6141f63","owner()":"8da5cb5b","pause()":"8456cb59","paused()":"5c975abb","proxiableUUID()":"52d1902d","renounceOwnership()":"715018a6","repayLoan(string,uint256)":"de68dbd4","repaymentStatus(string)":"23fe30fb","totalLoanIds()":"8e20f050","transferOwnership(address)":"f2fde38b","unpause()":"3f4ba83a","upgradeToAndCall(address,bytes)":"4f1ef286","usedLoanIds(string)":"fe6f8b76","weedlToken()":"3b9c8cfe"}},"storageLayout":{"storage":[{"astId":2390,"contract":"contracts/GreenFiLoan.sol:GreenFiLoan","label":"weedlToken","offset":0,"slot":"0","type":"t_contract(IERC20)1482"},{"astId":2461,"contract":"contracts/GreenFiLoan.sol:GreenFiLoan","label":"loans","offset":0,"slot":"1","type":"t_mapping(t_string_memory_ptr,t_struct(CannabisLoan)2456_storage)"},{"astId":2465,"contract":"contracts/GreenFiLoan.sol:GreenFiLoan","label":"usedLoanIds","offset":0,"slot":"2","type":"t_mapping(t_string_memory_ptr,t_bool)"},{"astId":2467,"contract":"contracts/GreenFiLoan.sol:GreenFiLoan","label":"totalLoanIds","offset":0,"slot":"3","type":"t_uint256"},{"astId":2472,"contract":"contracts/GreenFiLoan.sol:GreenFiLoan","label":"growerLoans","offset":0,"slot":"4","type":"t_mapping(t_address,t_array(t_string_storage)dyn_storage)"},{"astId":2476,"contract":"contracts/GreenFiLoan.sol:GreenFiLoan","label":"growerLoanCount","offset":0,"slot":"5","type":"t_mapping(t_address,t_uint256)"},{"astId":2480,"contract":"contracts/GreenFiLoan.sol:GreenFiLoan","label":"growerRepaidCount","offset":0,"slot":"6","type":"t_mapping(t_address,t_uint256)"},{"astId":2484,"contract":"contracts/GreenFiLoan.sol:GreenFiLoan","label":"repaymentStatus","offset":0,"slot":"7","type":"t_mapping(t_string_memory_ptr,t_uint256)"}],"types":{"t_address":{"encoding":"inplace","label":"address","numberOfBytes":"20"},"t_array(t_string_storage)dyn_storage":{"base":"t_string_storage","encoding":"dynamic_array","label":"string[]","numberOfBytes":"32"},"t_bool":{"encoding":"inplace","label":"bool","numberOfBytes":"1"},"t_contract(IERC20)1482":{"encoding":"inplace","label":"contract IERC20","numberOfBytes":"20"},"t_mapping(t_address,t_array(t_string_storage)dyn_storage)":{"encoding":"mapping","key":"t_address","label":"mapping(address => string[])","numberOfBytes":"32","value":"t_array(t_string_storage)dyn_storage"},"t_mapping(t_address,t_uint256)":{"encoding":"mapping","key":"t_address","label":"mapping(address => uint256)","numberOfBytes":"32","value":"t_uint256"},"t_mapping(t_string_memory_ptr,t_bool)":{"encoding":"mapping","key":"t_string_memory_ptr","label":"mapping(string => bool)","numberOfBytes":"32","value":"t_bool"},"t_mapping(t_string_memory_ptr,t_struct(CannabisLoan)2456_storage)":{"encoding":"mapping","key":"t_string_memory_ptr","label":"mapping(string => struct GreenFiLoan.CannabisLoan)","numberOfBytes":"32","value":"t_struct(CannabisLoan)2456_storage"},"t_mapping(t_string_memory_ptr,t_uint256)":{"encoding":"mapping","key":"t_string_memory_ptr","label":"mapping(string => uint256)","numberOfBytes":"32","value":"t_uint256"},"t_string_memory_ptr":{"encoding":"bytes","label":"string","numberOfBytes":"32"},"t_string_storage":{"encoding":"bytes","label":"string","numberOfBytes":"32"},"t_struct(CannabisLoan)2456_storage":{"encoding":"inplace","label":"struct GreenFiLoan.CannabisLoan","members":[{"astId":2419,"contract":"contracts/GreenFiLoan.sol:GreenFiLoan","label":"id","offset":0,"slot":"0","type":"t_string_storage"},{"astId":2421,"contract":"contracts/GreenFiLoan.sol:GreenFiLoan","label":"grower","offset":0,"slot":"1","type":"t_address"},{"astId":2423,"contract":"contracts/GreenFiLoan.sol:GreenFiLoan","label":"amount","offset":0,"slot":"2","type":"t_uint256"},{"astId":2425,"contract":"contracts/GreenFiLoan.sol:GreenFiLoan","label":"duration","offset":0,"slot":"3","type":"t_uint256"},{"astId":2427,"contract":"contracts/GreenFiLoan.sol:GreenFiLoan","label":"isActive","offset":0,"slot":"4","type":"t_bool"},{"astId":2429,"contract":"contracts/GreenFiLoan.sol:GreenFiLoan","label":"contactInfo","offset":0,"slot":"5","type":"t_string_storage"},{"astId":2431,"contract":"contracts/GreenFiLoan.sol:GreenFiLoan","label":"fee","offset":0,"slot":"6","type":"t_uint256"},{"astId":2433,"contract":"contracts/GreenFiLoan.sol:GreenFiLoan","label":"createdAt","offset":0,"slot":"7","type":"t_uint256"},{"astId":2435,"contract":"contracts/GreenFiLoan.sol:GreenFiLoan","label":"growPurpose","offset":0,"slot":"8","type":"t_string_storage"},{"astId":2437,"contract":"contracts/GreenFiLoan.sol:GreenFiLoan","label":"status","offset":0,"slot":"9","type":"t_string_storage"},{"astId":2439,"contract":"contracts/GreenFiLoan.sol:GreenFiLoan","label":"collateralAmount","offset":0,"slot":"10","type":"t_uint256"},{"astId":2441,"contract":"contracts/GreenFiLoan.sol:GreenFiLoan","label":"lender","offset":0,"slot":"11","type":"t_address"},{"astId":2443,"contract":"contracts/GreenFiLoan.sol:GreenFiLoan","label":"repaidAmount","offset":0,"slot":"12","type":"t_uint256"},{"astId":2445,"contract":"contracts/GreenFiLoan.sol:GreenFiLoan","label":"interestRate","offset":0,"slot":"13","type":"t_uint256"},{"astId":2447,"contract":"contracts/GreenFiLoan.sol:GreenFiLoan","label":"repaymentSchedule","offset":0,"slot":"14","type":"t_string_storage"},{"astId":2449,"contract":"contracts/GreenFiLoan.sol:GreenFiLoan","label":"collateralApproved","offset":0,"slot":"15","type":"t_bool"},{"astId":2451,"contract":"contracts/GreenFiLoan.sol:GreenFiLoan","label":"nextPaymentDue","offset":0,"slot":"16","type":"t_uint256"},{"astId":2453,"contract":"contracts/GreenFiLoan.sol:GreenFiLoan","label":"paymentsMade","offset":0,"slot":"17","type":"t_uint256"},{"astId":2455,"contract":"contracts/GreenFiLoan.sol:GreenFiLoan","label":"totalPayments","offset":0,"slot":"18","type":"t_uint256"}],"numberOfBytes":"608"},"t_uint256":{"encoding":"inplace","label":"uint256","numberOfBytes":"32"}}}}}}