{"contracts/GreenFiStaking.sol":{"GreenFiStaking":{"abi":[{"inputs":[{"internalType":"address","name":"target","type":"address"}],"name":"AddressEmptyCode","type":"error"},{"inputs":[{"internalType":"address","name":"implementation","type":"address"}],"name":"ERC1967InvalidImplementation","type":"error"},{"inputs":[],"name":"ERC1967NonPayable","type":"error"},{"inputs":[],"name":"EnforcedPause","type":"error"},{"inputs":[],"name":"ExpectedPause","type":"error"},{"inputs":[],"name":"FailedCall","type":"error"},{"inputs":[],"name":"InvalidInitialization","type":"error"},{"inputs":[],"name":"NotInitializing","type":"error"},{"inputs":[{"internalType":"address","name":"owner","type":"address"}],"name":"OwnableInvalidOwner","type":"error"},{"inputs":[{"internalType":"address","name":"account","type":"address"}],"name":"OwnableUnauthorizedAccount","type":"error"},{"inputs":[],"name":"ReentrancyGuardReentrantCall","type":"error"},{"inputs":[{"internalType":"address","name":"token","type":"address"}],"name":"SafeERC20FailedOperation","type":"error"},{"inputs":[],"name":"UUPSUnauthorizedCallContext","type":"error"},{"inputs":[{"internalType":"bytes32","name":"slot","type":"bytes32"}],"name":"UUPSUnsupportedProxiableUUID","type":"error"},{"anonymous":false,"inputs":[{"indexed":false,"internalType":"uint64","name":"version","type":"uint64"}],"name":"Initialized","type":"event"},{"anonymous":false,"inputs":[{"indexed":true,"internalType":"address","name":"previousOwner","type":"address"},{"indexed":true,"internalType":"address","name":"newOwner","type":"address"}],"name":"OwnershipTransferred","type":"event"},{"anonymous":false,"inputs":[{"indexed":false,"internalType":"address","name":"account","type":"address"}],"name":"Paused","type":"event"},{"anonymous":false,"inputs":[{"indexed":true,"internalType":"address","name":"user","type":"address"},{"indexed":false,"internalType":"uint256","name":"reward","type":"uint256"},{"indexed":true,"internalType":"bytes32","name":"uuid","type":"bytes32"}],"name":"RewardClaimed","type":"event"},{"anonymous":false,"inputs":[{"indexed":true,"internalType":"address","name":"user","type":"address"},{"indexed":true,"internalType":"bytes32","name":"uuid","type":"bytes32"}],"name":"StakeReset","type":"event"},{"anonymous":false,"inputs":[{"indexed":true,"internalType":"address","name":"user","type":"address"},{"indexed":false,"internalType":"uint256","name":"amount","type":"uint256"},{"indexed":false,"internalType":"uint256","name":"duration","type":"uint256"},{"indexed":false,"internalType":"uint256","name":"startTime","type":"uint256"},{"indexed":true,"internalType":"bytes32","name":"uuid","type":"bytes32"}],"name":"Staked","type":"event"},{"anonymous":false,"inputs":[{"indexed":false,"internalType":"address","name":"account","type":"address"}],"name":"Unpaused","type":"event"},{"anonymous":false,"inputs":[{"indexed":true,"internalType":"address","name":"user","type":"address"},{"indexed":false,"internalType":"uint256","name":"amount","type":"uint256"},{"indexed":false,"internalType":"uint256","name":"reward","type":"uint256"},{"indexed":true,"internalType":"bytes32","name":"uuid","type":"bytes32"}],"name":"Unstaked","type":"event"},{"anonymous":false,"inputs":[{"indexed":true,"internalType":"address","name":"implementation","type":"address"}],"name":"Upgraded","type":"event"},{"inputs":[],"name":"REWARD_RATE","outputs":[{"internalType":"uint256","name":"","type":"uint256"}],"stateMutability":"view","type":"function"},{"inputs":[],"name":"SECONDS_PER_YEAR","outputs":[{"internalType":"uint256","name":"","type":"uint256"}],"stateMutability":"view","type":"function"},{"inputs":[],"name":"UPGRADE_INTERFACE_VERSION","outputs":[{"internalType":"string","name":"","type":"string"}],"stateMutability":"view","type":"function"},{"inputs":[{"internalType":"bytes32","name":"_uuid","type":"bytes32"}],"name":"claimReward","outputs":[],"stateMutability":"nonpayable","type":"function"},{"inputs":[],"name":"getTotalStaked","outputs":[{"internalType":"uint256","name":"","type":"uint256"}],"stateMutability":"view","type":"function"},{"inputs":[{"internalType":"address","name":"_user","type":"address"}],"name":"getUserStakes","outputs":[{"components":[{"internalType":"address","name":"user","type":"address"},{"internalType":"uint256","name":"amount","type":"uint256"},{"internalType":"uint256","name":"startTime","type":"uint256"},{"internalType":"uint256","name":"duration","type":"uint256"},{"internalType":"uint256","name":"rewardDebt","type":"uint256"},{"internalType":"bool","name":"isActive","type":"bool"},{"internalType":"bytes32","name":"uuid","type":"bytes32"}],"internalType":"struct GreenFiStaking.Stake[]","name":"","type":"tuple[]"}],"stateMutability":"view","type":"function"},{"inputs":[{"internalType":"address","name":"_weedlToken","type":"address"}],"name":"initialize","outputs":[],"stateMutability":"nonpayable","type":"function"},{"inputs":[],"name":"owner","outputs":[{"internalType":"address","name":"","type":"address"}],"stateMutability":"view","type":"function"},{"inputs":[],"name":"pause","outputs":[],"stateMutability":"nonpayable","type":"function"},{"inputs":[],"name":"paused","outputs":[{"internalType":"bool","name":"","type":"bool"}],"stateMutability":"view","type":"function"},{"inputs":[],"name":"proxiableUUID","outputs":[{"internalType":"bytes32","name":"","type":"bytes32"}],"stateMutability":"view","type":"function"},{"inputs":[],"name":"renounceOwnership","outputs":[],"stateMutability":"nonpayable","type":"function"},{"inputs":[{"internalType":"address","name":"_user","type":"address"},{"internalType":"bytes32","name":"_uuid","type":"bytes32"}],"name":"resetStake","outputs":[],"stateMutability":"nonpayable","type":"function"},{"inputs":[{"internalType":"uint256","name":"_amount","type":"uint256"},{"internalType":"uint256","name":"_duration","type":"uint256"}],"name":"stake","outputs":[],"stateMutability":"nonpayable","type":"function"},{"inputs":[{"internalType":"address","name":"_user","type":"address"},{"internalType":"uint256","name":"_index","type":"uint256"}],"name":"stakes","outputs":[{"components":[{"internalType":"address","name":"user","type":"address"},{"internalType":"uint256","name":"amount","type":"uint256"},{"internalType":"uint256","name":"startTime","type":"uint256"},{"internalType":"uint256","name":"duration","type":"uint256"},{"internalType":"uint256","name":"rewardDebt","type":"uint256"},{"internalType":"bool","name":"isActive","type":"bool"},{"internalType":"bytes32","name":"uuid","type":"bytes32"}],"internalType":"struct GreenFiStaking.Stake","name":"","type":"tuple"}],"stateMutability":"view","type":"function"},{"inputs":[{"internalType":"address","name":"newOwner","type":"address"}],"name":"transferOwnership","outputs":[],"stateMutability":"nonpayable","type":"function"},{"inputs":[],"name":"unpause","outputs":[],"stateMutability":"nonpayable","type":"function"},{"inputs":[{"internalType":"uint256","name":"_amount","type":"uint256"},{"internalType":"bytes32","name":"_uuid","type":"bytes32"}],"name":"unstake","outputs":[],"stateMutability":"nonpayable","type":"function"},{"inputs":[{"internalType":"address","name":"newImplementation","type":"address"},{"internalType":"bytes","name":"data","type":"bytes"}],"name":"upgradeToAndCall","outputs":[],"stateMutability":"payable","type":"function"},{"inputs":[],"name":"weedlToken","outputs":[{"internalType":"contract IERC20","name":"","type":"address"}],"stateMutability":"view","type":"function"}],"evm":{"bytecode":{"linkReferences":{},"object":"60a0806040523461002a57306080526117d990816100308239608051818181610cbe0152610d9e0152f35b600080fdfe6080604081815260048036101561001557600080fd5b60009260e0843560e01c9182630917e77614611161575081630d7965941461102e5781633b9c8cfe146110055781633f4ba83a14610f8d5781634f1ef28614610d2257816352d1902d14610ca8578163584b62a114610bd55781635997bb3714610bb75781635c975abb14610b85578163715018a614610b1b5781637b0472f01461087c578163842e298114610778575080638456cb59146107105780638da5cb5b146106da578063ad3cb1cc1461063c578063c4d66de814610479578063ca34f02b146102d6578063e6a69ab8146102b3578063f2fde38b146102835763f54140231461010257600080fd5b3461027f57602036600319011261027f5780359161011e611535565b610126611565565b338452600160205261015081852061013e85336114ad565b9061014b8154831061126f565b6112b0565b5060ff60058201541680610272575b1561023d57826101916002830154600384015461018761017f82846113af565b4210156113bc565b6001850154611590565b9101928354908183111561020357506101aa90826112e2565b925583546101c490839033906001600160a01b03166115e5565b519081527fe413caa6d70a6d9b51c2af2575a2914490f614355049af8ae7cde5caab9fd20160203392a360016000805160206117848339815191525580f35b606490602085519162461bcd60e51b835282015260146024820152734e6f207265776172647320617661696c61626c6560601b6044820152fd5b815162461bcd60e51b8152602081850152600f60248201526e4e6f20616374697665207374616b6560881b6044820152606490fd5b506001810154151561015f565b8280fd5b83346102b05760203660031901126102b0576102ad6102a061117d565b6102a8611474565b611400565b80f35b80fd5b5050346102d257816003193601126102d257602090516301e133808152f35b5080fd5b50903461027f578060031936011261027f57813590602435926102f7611535565b6102ff611565565b61030a831515611363565b338552600160205261032282862061013e86336114ad565b5090600582019081549060ff82168061046b575b1561042857509082918760027f97d5e5a1b6fab38e6ea76b7c8719e28c96e7f3c29b8b6cf12901866a71cb8261969501549261038b600160038701549661038061017f89896113af565b019485549687611590565b948810156103f6575050506103a18582546112e2565b90556103af846003546112e2565b6003555b85546103d4906001600160a01b03166103cc83876113af565b9033906115e5565b815193845260208401523392a360016000805160206117848339815191525580f35b60ff19928316905590915560035461040f9086906112e2565b60035585875260026020528287209081541690556103b3565b606490602086519162461bcd60e51b8352820152601e60248201527f496e73756666696369656e74206f7220696e616374697665207374616b6500006044820152fd5b508560018501541015610336565b503461027f57602036600319011261027f5761049361117d565b7ff0c57e16840df040f15088dc2f81fe391c3923bec73e23a9662efc9c229c6a009182549160ff83861c16159267ffffffffffffffff811680159081610634575b600114908161062a575b159081610621575b506106115767ffffffffffffffff1981166001178555836105f2575b506001600160a01b03169081156105b7575061051c61169f565b61052461169f565b61052d33611400565b61053561169f565b61053d61169f565b61054561169f565b60016000805160206117848339815191525561055f61169f565b84546001600160a01b031916178455610576578280f35b805468ff00000000000000001916905551600181527fc7f505b2f371ae2175ee4913f4499e1f2633a7b5936321eed1cdaeb6115181d290602090a138808280f35b606490602086519162461bcd60e51b83528201526015602482015274496e76616c696420746f6b656e206164647265737360581b6044820152fd5b68ffffffffffffffffff19166801000000000000000117845538610502565b855163f92ee8a960e01b81528390fd5b905015386104e6565b303b1591506104de565b8591506104d4565b503461027f578260031936011261027f578151908282019082821067ffffffffffffffff8311176106c75750825260058152602090640352e302e360dc1b6020820152825193849260208452825192836020860152825b8481106106b157505050828201840152601f01601f19168101030190f35b8181018301518882018801528795508201610693565b634e487b7160e01b855260419052602484fd5b5050346102d257816003193601126102d2576000805160206117448339815191525490516001600160a01b039091168152602090f35b5050346102d257816003193601126102d25760207f62e78cea01bee320cd4e420270b5ea74000d11b0c9f74754ebdbfc544b05a2589161074e611474565b610756611565565b600080516020611764833981519152805460ff1916600117905551338152a180f35b91849150346102d25760208060031936011261027f576001600160a01b0361079e61117d565b168352600192600182528581209485549367ffffffffffffffff8511610869575093869386938551916107d6828260051b01846111e6565b8083528183018096865282862086915b83831061083c57505050508551968796828801938389525180945287019594905b8382106108145787870388f35b91859750828761082a8799849895979951611224565b01970192018796959391949294610807565b95600785829a9b9c9698610852859b999b611305565b8152019201920191909998979593999694966107e6565b634e487b7160e01b835260419052602482fd5b5050903461027f578060031936011261027f5781359060243561089d611535565b6108a5611565565b6108b0831515611363565b8015610ad85760018060a01b039384865416906108fb84516020936323b872dd60e01b85830152336024830152306044830152876064830152606482526108f6826111ca565b611637565b8351828101903360601b825286603482015242605482015243607482015260748152610926816111ca565b519020958688526002835260ff8589205416610a96573388526001835286858920928987519361095585611198565b3385528685018a81528986019042825260608701928a84526080880194855260a088019860018a5260c0890197885280549068010000000000000000821015610a8157906109a8916001820181556112b0565b989098610a6e579060069796959493929151166bffffffffffffffffffffffff60a01b895416178855516001880155516002870155516003860155519084015560058301935115159360ff199460ff8683541691161790555191015585875260028252600184882091825416179055610a23846003546113af565b600355825193845283015242908201527f87338e3ee4f74a128e43e1cc852373ea84a0e04e21f4c541d1d82cc52d7f292660603392a360016000805160206117848339815191525580f35b50634e487b7160e01b8f528e865260248ffd5b5050634e487b7160e01b8f526041865260248ffd5b5060649184519162461bcd60e51b8352820152601760248201527f5555494420636f6c6c6973696f6e2064657465637465640000000000000000006044820152fd5b815162461bcd60e51b8152602081860152601f60248201527f4475726174696f6e206d7573742062652067726561746572207468616e2030006044820152606490fd5b84346102b057806003193601126102b057610b34611474565b60008051602061174483398151915280546001600160a01b0319811690915581906001600160a01b03167f8be0079c531659141344cd1fd0a4f28419497f9722a3daafe3b4186f6b6457e08280a380f35b505050346102d257816003193601126102d25760209060ff600080516020611764833981519152541690519015158152f35b505050346102d257816003193601126102d257602090516101a48152f35b505082346102b057826003193601126102b057610bf061117d565b91602435928260c08651610c0381611198565b82815282602082015282888201528260608201528260808201528260a0820152015260018060a01b031690818352600160205284832054841015610c6f5760e085610c6d610c64610c5e8884898981526001602052206112b0565b50611305565b91518092611224565bf35b606490602086519162461bcd60e51b83528201526013602482015272092dcecc2d8d2c840e6e8c2d6ca40d2dcc8caf606b1b6044820152fd5b505091346102b057806003193601126102b057507f00000000000000000000000000000000000000000000000000000000000000006001600160a01b03163003610d1557602090517f360894a13ba1a3210667c828492db98dca3e2076cc3735a920a3ca505d382bbc8152f35b5163703e46dd60e11b8152fd5b5050908060031936011261027f57610d3861117d565b90602493843567ffffffffffffffff81116102d257366023820112156102d25780850135610d6581611208565b94610d72855196876111e6565b81865260209182870193368a8383010111610f89578186928b8693018737880101526001600160a01b037f00000000000000000000000000000000000000000000000000000000000000008116308114908115610f5b575b50610f4b57610dd7611474565b81169585516352d1902d60e01b815283818a818b5afa869181610f18575b50610e11575050505050505191634c9c8ce360e01b8352820152fd5b9088888894938c7f360894a13ba1a3210667c828492db98dca3e2076cc3735a920a3ca505d382bbc91828103610f035750853b15610eef575080546001600160a01b031916821790558451889392917fbc7cd75a20ee27fd9adebab32041f755214dbc6bffa90cc0225b39da2e5c2d3b8580a2825115610ed1575050610ec39582915190845af4913d15610ec7573d610eb5610eac82611208565b925192836111e6565b81528581943d92013e6116e0565b5080f35b50606092506116e0565b955095505050505034610ee357505080f35b63b398979f60e01b8152fd5b8651634c9c8ce360e01b8152808501849052fd5b8751632a87526960e21b815280860191909152fd5b9091508481813d8311610f44575b610f3081836111e6565b81010312610f4057519038610df5565b8680fd5b503d610f26565b855163703e46dd60e11b81528890fd5b9050817f360894a13ba1a3210667c828492db98dca3e2076cc3735a920a3ca505d382bbc5416141538610dca565b8580fd5b50503461027f578260031936011261027f57610fa7611474565b6000805160206117648339815191529081549060ff821615610ff7575060ff19169055513381527f5db9ee0a495bf2e6ff9c91a7834c1ba4fdd244a5e8aa4e537bd38aeae4b073aa90602090a180f35b8351638dfc202b60e01b8152fd5b505050346102d257816003193601126102d257905490516001600160a01b039091168152602090f35b50503461027f578160031936011261027f5761104861117d565b9060243592611055611474565b6001600160a01b0383169283156111275790611074856110c1936114ad565b9084875260016020528087209061108d8254841061126f565b6110a7600161109c85856112b0565b5001546003546112e2565b60035586885260026020528720805460ff191690556112b0565b9190916111155781856006928180955581600184015581600284015581600384015582015582600582015501557f54a60f478ca425e614079c5be9e8687e34a2f6ce8da98b5d4c0d792f94cc2e0a8380a380f35b634e487b7160e01b8552849052602484fd5b815162461bcd60e51b81526020818501526014602482015273496e76616c69642075736572206164647265737360601b6044820152606490fd5b8590346102d257816003193601126102d2576020906003548152f35b600435906001600160a01b038216820361119357565b600080fd5b60e0810190811067ffffffffffffffff8211176111b457604052565b634e487b7160e01b600052604160045260246000fd5b60a0810190811067ffffffffffffffff8211176111b457604052565b90601f8019910116810190811067ffffffffffffffff8211176111b457604052565b67ffffffffffffffff81116111b457601f01601f191660200190565b60c0809160018060a01b0381511684526020810151602085015260408101516040850152606081015160608501526080810151608085015260a0810151151560a08501520151910152565b1561127657565b60405162461bcd60e51b8152602060048201526012602482015271125b9d985b1a59081cdd185ad9481555525160721b6044820152606490fd5b80548210156112cc576000526007602060002091020190600090565b634e487b7160e01b600052603260045260246000fd5b919082039182116112ef57565b634e487b7160e01b600052601160045260246000fd5b9060405161131281611198565b82546001600160a01b0316815260018301546020820152600283015460408201526003830154606082015260048301546080820152600583015460ff16151560a082015260069092015460c0830152565b1561136a57565b60405162461bcd60e51b815260206004820152601d60248201527f416d6f756e74206d7573742062652067726561746572207468616e20300000006044820152606490fd5b919082018092116112ef57565b156113c357565b60405162461bcd60e51b815260206004820152601560248201527414dd185ad9481a5cc81cdd1a5b1b081b1bd8dad959605a1b6044820152606490fd5b6001600160a01b0390811690811561145b5760008051602061174483398151915280546001600160a01b031981168417909155167f8be0079c531659141344cd1fd0a4f28419497f9722a3daafe3b4186f6b6457e0600080a3565b604051631e4fbdf760e01b815260006004820152602490fd5b600080516020611744833981519152546001600160a01b0316330361149557565b60405163118cdaa760e01b8152336004820152602490fd5b60018060a01b031660005260019160016020526040600020916000928054935b8481106115105760405162461bcd60e51b815260206004820152601460248201527314dd185ad94815555251081b9bdd08199bdd5b9960621b6044820152606490fd5b82600661151d83856112b0565b5001541461152c5785016114cd565b93505050915090565b60008051602061178483398151915260028154146115535760029055565b604051633ee5aeb560e01b8152600490fd5b60ff600080516020611764833981519152541661157e57565b60405163d93c066560e01b8152600490fd5b9161159b82826113af565b4211156115d45750905b8181029181830414901517156112ef576101a4908181029181830414901517156112ef5764496cebb800900490565b6115df9150426112e2565b906115a5565b60405163a9059cbb60e01b60208201526001600160a01b039092166024830152604480830193909352918152608081019167ffffffffffffffff8311828410176111b45761163592604052611637565b565b906000602091828151910182855af115611693576000513d61168a57506001600160a01b0381163b155b6116685750565b604051635274afe760e01b81526001600160a01b039091166004820152602490fd5b60011415611661565b6040513d6000823e3d90fd5b60ff7ff0c57e16840df040f15088dc2f81fe391c3923bec73e23a9662efc9c229c6a005460401c16156116ce57565b604051631afcd79f60e31b8152600490fd5b9061170757508051156116f557602081519101fd5b60405163d6bda27560e01b8152600490fd5b8151158061173a575b611718575090565b604051639996b31560e01b81526001600160a01b039091166004820152602490fd5b50803b1561171056fe9016d09d72d40fdae2fd8ceac6b6234c7706214fd39c1cd1e609a0528c199300cd5ed15c6e187e77e9aee88184c21f4f2182ab5827cb3b7e07fbedcd63f033009b779b17422d0df92223018b32b4d1fa46e071723d6817e2486d003becc55f00a2646970667358221220c85e49a907486157c9fe78d2e8b486163553939c04f1866b8eefbe03253e5a3964736f6c63430008160033","opcodes":"PUSH1 0xA0 DUP1 PUSH1 0x40 MSTORE CALLVALUE PUSH2 0x2A JUMPI ADDRESS PUSH1 0x80 MSTORE PUSH2 0x17D9 SWAP1 DUP2 PUSH2 0x30 DUP3 CODECOPY PUSH1 0x80 MLOAD DUP2 DUP2 DUP2 PUSH2 0xCBE ADD MSTORE PUSH2 0xD9E ADD MSTORE RETURN JUMPDEST PUSH1 0x0 DUP1 REVERT INVALID PUSH1 0x80 PUSH1 0x40 DUP2 DUP2 MSTORE PUSH1 0x4 DUP1 CALLDATASIZE LT ISZERO PUSH2 0x15 JUMPI PUSH1 0x0 DUP1 REVERT JUMPDEST PUSH1 0x0 SWAP3 PUSH1 0xE0 DUP5 CALLDATALOAD PUSH1 0xE0 SHR SWAP2 DUP3 PUSH4 0x917E776 EQ PUSH2 0x1161 JUMPI POP DUP2 PUSH4 0xD796594 EQ PUSH2 0x102E JUMPI DUP2 PUSH4 0x3B9C8CFE EQ PUSH2 0x1005 JUMPI DUP2 PUSH4 0x3F4BA83A EQ PUSH2 0xF8D JUMPI DUP2 PUSH4 0x4F1EF286 EQ PUSH2 0xD22 JUMPI DUP2 PUSH4 0x52D1902D EQ PUSH2 0xCA8 JUMPI DUP2 PUSH4 0x584B62A1 EQ PUSH2 0xBD5 JUMPI DUP2 PUSH4 0x5997BB37 EQ PUSH2 0xBB7 JUMPI DUP2 PUSH4 0x5C975ABB EQ PUSH2 0xB85 JUMPI DUP2 PUSH4 0x715018A6 EQ PUSH2 0xB1B JUMPI DUP2 PUSH4 0x7B0472F0 EQ PUSH2 0x87C JUMPI DUP2 PUSH4 0x842E2981 EQ PUSH2 0x778 JUMPI POP DUP1 PUSH4 0x8456CB59 EQ PUSH2 0x710 JUMPI DUP1 PUSH4 0x8DA5CB5B EQ PUSH2 0x6DA JUMPI DUP1 PUSH4 0xAD3CB1CC EQ PUSH2 0x63C JUMPI DUP1 PUSH4 0xC4D66DE8 EQ PUSH2 0x479 JUMPI DUP1 PUSH4 0xCA34F02B EQ PUSH2 0x2D6 JUMPI DUP1 PUSH4 0xE6A69AB8 EQ PUSH2 0x2B3 JUMPI DUP1 PUSH4 0xF2FDE38B EQ PUSH2 0x283 JUMPI PUSH4 0xF5414023 EQ PUSH2 0x102 JUMPI PUSH1 0x0 DUP1 REVERT JUMPDEST CALLVALUE PUSH2 0x27F JUMPI PUSH1 0x20 CALLDATASIZE PUSH1 0x3 NOT ADD SLT PUSH2 0x27F JUMPI DUP1 CALLDATALOAD SWAP2 PUSH2 0x11E PUSH2 0x1535 JUMP JUMPDEST PUSH2 0x126 PUSH2 0x1565 JUMP JUMPDEST CALLER DUP5 MSTORE PUSH1 0x1 PUSH1 0x20 MSTORE PUSH2 0x150 DUP2 DUP6 KECCAK256 PUSH2 0x13E DUP6 CALLER PUSH2 0x14AD JUMP JUMPDEST SWAP1 PUSH2 0x14B DUP2 SLOAD DUP4 LT PUSH2 0x126F JUMP JUMPDEST PUSH2 0x12B0 JUMP JUMPDEST POP PUSH1 0xFF PUSH1 0x5 DUP3 ADD SLOAD AND DUP1 PUSH2 0x272 JUMPI JUMPDEST ISZERO PUSH2 0x23D JUMPI DUP3 PUSH2 0x191 PUSH1 0x2 DUP4 ADD SLOAD PUSH1 0x3 DUP5 ADD SLOAD PUSH2 0x187 PUSH2 0x17F DUP3 DUP5 PUSH2 0x13AF JUMP JUMPDEST TIMESTAMP LT ISZERO PUSH2 0x13BC JUMP JUMPDEST PUSH1 0x1 DUP6 ADD SLOAD PUSH2 0x1590 JUMP JUMPDEST SWAP2 ADD SWAP3 DUP4 SLOAD SWAP1 DUP2 DUP4 GT ISZERO PUSH2 0x203 JUMPI POP PUSH2 0x1AA SWAP1 DUP3 PUSH2 0x12E2 JUMP JUMPDEST SWAP3 SSTORE DUP4 SLOAD PUSH2 0x1C4 SWAP1 DUP4 SWAP1 CALLER SWAP1 PUSH1 0x1 PUSH1 0x1 PUSH1 0xA0 SHL SUB AND PUSH2 0x15E5 JUMP JUMPDEST MLOAD SWAP1 DUP2 MSTORE PUSH32 0xE413CAA6D70A6D9B51C2AF2575A2914490F614355049AF8AE7CDE5CAAB9FD201 PUSH1 0x20 CALLER SWAP3 LOG3 PUSH1 0x1 PUSH1 0x0 DUP1 MLOAD PUSH1 0x20 PUSH2 0x1784 DUP4 CODECOPY DUP2 MLOAD SWAP2 MSTORE SSTORE DUP1 RETURN JUMPDEST PUSH1 0x64 SWAP1 PUSH1 0x20 DUP6 MLOAD SWAP2 PUSH3 0x461BCD PUSH1 0xE5 SHL DUP4 MSTORE DUP3 ADD MSTORE PUSH1 0x14 PUSH1 0x24 DUP3 ADD MSTORE PUSH20 0x4E6F207265776172647320617661696C61626C65 PUSH1 0x60 SHL PUSH1 0x44 DUP3 ADD MSTORE REVERT JUMPDEST DUP2 MLOAD PUSH3 0x461BCD PUSH1 0xE5 SHL DUP2 MSTORE PUSH1 0x20 DUP2 DUP6 ADD MSTORE PUSH1 0xF PUSH1 0x24 DUP3 ADD MSTORE PUSH15 0x4E6F20616374697665207374616B65 PUSH1 0x88 SHL PUSH1 0x44 DUP3 ADD MSTORE PUSH1 0x64 SWAP1 REVERT JUMPDEST POP PUSH1 0x1 DUP2 ADD SLOAD ISZERO ISZERO PUSH2 0x15F JUMP JUMPDEST DUP3 DUP1 REVERT JUMPDEST DUP4 CALLVALUE PUSH2 0x2B0 JUMPI PUSH1 0x20 CALLDATASIZE PUSH1 0x3 NOT ADD SLT PUSH2 0x2B0 JUMPI PUSH2 0x2AD PUSH2 0x2A0 PUSH2 0x117D JUMP JUMPDEST PUSH2 0x2A8 PUSH2 0x1474 JUMP JUMPDEST PUSH2 0x1400 JUMP JUMPDEST DUP1 RETURN JUMPDEST DUP1 REVERT JUMPDEST POP POP CALLVALUE PUSH2 0x2D2 JUMPI DUP2 PUSH1 0x3 NOT CALLDATASIZE ADD SLT PUSH2 0x2D2 JUMPI PUSH1 0x20 SWAP1 MLOAD PUSH4 0x1E13380 DUP2 MSTORE RETURN JUMPDEST POP DUP1 REVERT JUMPDEST POP SWAP1 CALLVALUE PUSH2 0x27F JUMPI DUP1 PUSH1 0x3 NOT CALLDATASIZE ADD SLT PUSH2 0x27F JUMPI DUP2 CALLDATALOAD SWAP1 PUSH1 0x24 CALLDATALOAD SWAP3 PUSH2 0x2F7 PUSH2 0x1535 JUMP JUMPDEST PUSH2 0x2FF PUSH2 0x1565 JUMP JUMPDEST PUSH2 0x30A DUP4 ISZERO ISZERO PUSH2 0x1363 JUMP JUMPDEST CALLER DUP6 MSTORE PUSH1 0x1 PUSH1 0x20 MSTORE PUSH2 0x322 DUP3 DUP7 KECCAK256 PUSH2 0x13E DUP7 CALLER PUSH2 0x14AD JUMP JUMPDEST POP SWAP1 PUSH1 0x5 DUP3 ADD SWAP1 DUP2 SLOAD SWAP1 PUSH1 0xFF DUP3 AND DUP1 PUSH2 0x46B JUMPI JUMPDEST ISZERO PUSH2 0x428 JUMPI POP SWAP1 DUP3 SWAP2 DUP8 PUSH1 0x2 PUSH32 0x97D5E5A1B6FAB38E6EA76B7C8719E28C96E7F3C29B8B6CF12901866A71CB8261 SWAP7 SWAP6 ADD SLOAD SWAP3 PUSH2 0x38B PUSH1 0x1 PUSH1 0x3 DUP8 ADD SLOAD SWAP7 PUSH2 0x380 PUSH2 0x17F DUP10 DUP10 PUSH2 0x13AF JUMP JUMPDEST ADD SWAP5 DUP6 SLOAD SWAP7 DUP8 PUSH2 0x1590 JUMP JUMPDEST SWAP5 DUP9 LT ISZERO PUSH2 0x3F6 JUMPI POP POP POP PUSH2 0x3A1 DUP6 DUP3 SLOAD PUSH2 0x12E2 JUMP JUMPDEST SWAP1 SSTORE PUSH2 0x3AF DUP5 PUSH1 0x3 SLOAD PUSH2 0x12E2 JUMP JUMPDEST PUSH1 0x3 SSTORE JUMPDEST DUP6 SLOAD PUSH2 0x3D4 SWAP1 PUSH1 0x1 PUSH1 0x1 PUSH1 0xA0 SHL SUB AND PUSH2 0x3CC DUP4 DUP8 PUSH2 0x13AF JUMP JUMPDEST SWAP1 CALLER SWAP1 PUSH2 0x15E5 JUMP JUMPDEST DUP2 MLOAD SWAP4 DUP5 MSTORE PUSH1 0x20 DUP5 ADD MSTORE CALLER SWAP3 LOG3 PUSH1 0x1 PUSH1 0x0 DUP1 MLOAD PUSH1 0x20 PUSH2 0x1784 DUP4 CODECOPY DUP2 MLOAD SWAP2 MSTORE SSTORE DUP1 RETURN JUMPDEST PUSH1 0xFF NOT SWAP3 DUP4 AND SWAP1 SSTORE SWAP1 SWAP2 SSTORE PUSH1 0x3 SLOAD PUSH2 0x40F SWAP1 DUP7 SWAP1 PUSH2 0x12E2 JUMP JUMPDEST PUSH1 0x3 SSTORE DUP6 DUP8 MSTORE PUSH1 0x2 PUSH1 0x20 MSTORE DUP3 DUP8 KECCAK256 SWAP1 DUP2 SLOAD AND SWAP1 SSTORE PUSH2 0x3B3 JUMP JUMPDEST PUSH1 0x64 SWAP1 PUSH1 0x20 DUP7 MLOAD SWAP2 PUSH3 0x461BCD PUSH1 0xE5 SHL DUP4 MSTORE DUP3 ADD MSTORE PUSH1 0x1E PUSH1 0x24 DUP3 ADD MSTORE PUSH32 0x496E73756666696369656E74206F7220696E616374697665207374616B650000 PUSH1 0x44 DUP3 ADD MSTORE REVERT JUMPDEST POP DUP6 PUSH1 0x1 DUP6 ADD SLOAD LT ISZERO PUSH2 0x336 JUMP JUMPDEST POP CALLVALUE PUSH2 0x27F JUMPI PUSH1 0x20 CALLDATASIZE PUSH1 0x3 NOT ADD SLT PUSH2 0x27F JUMPI PUSH2 0x493 PUSH2 0x117D JUMP JUMPDEST PUSH32 0xF0C57E16840DF040F15088DC2F81FE391C3923BEC73E23A9662EFC9C229C6A00 SWAP2 DUP3 SLOAD SWAP2 PUSH1 0xFF DUP4 DUP7 SHR AND ISZERO SWAP3 PUSH8 0xFFFFFFFFFFFFFFFF DUP2 AND DUP1 ISZERO SWAP1 DUP2 PUSH2 0x634 JUMPI JUMPDEST PUSH1 0x1 EQ SWAP1 DUP2 PUSH2 0x62A JUMPI JUMPDEST ISZERO SWAP1 DUP2 PUSH2 0x621 JUMPI JUMPDEST POP PUSH2 0x611 JUMPI PUSH8 0xFFFFFFFFFFFFFFFF NOT DUP2 AND PUSH1 0x1 OR DUP6 SSTORE DUP4 PUSH2 0x5F2 JUMPI JUMPDEST POP PUSH1 0x1 PUSH1 0x1 PUSH1 0xA0 SHL SUB AND SWAP1 DUP2 ISZERO PUSH2 0x5B7 JUMPI POP PUSH2 0x51C PUSH2 0x169F JUMP JUMPDEST PUSH2 0x524 PUSH2 0x169F JUMP JUMPDEST PUSH2 0x52D CALLER PUSH2 0x1400 JUMP JUMPDEST PUSH2 0x535 PUSH2 0x169F JUMP JUMPDEST PUSH2 0x53D PUSH2 0x169F JUMP JUMPDEST PUSH2 0x545 PUSH2 0x169F JUMP JUMPDEST PUSH1 0x1 PUSH1 0x0 DUP1 MLOAD PUSH1 0x20 PUSH2 0x1784 DUP4 CODECOPY DUP2 MLOAD SWAP2 MSTORE SSTORE PUSH2 0x55F PUSH2 0x169F JUMP JUMPDEST DUP5 SLOAD PUSH1 0x1 PUSH1 0x1 PUSH1 0xA0 SHL SUB NOT AND OR DUP5 SSTORE PUSH2 0x576 JUMPI DUP3 DUP1 RETURN JUMPDEST DUP1 SLOAD PUSH9 0xFF0000000000000000 NOT AND SWAP1 SSTORE MLOAD PUSH1 0x1 DUP2 MSTORE PUSH32 0xC7F505B2F371AE2175EE4913F4499E1F2633A7B5936321EED1CDAEB6115181D2 SWAP1 PUSH1 0x20 SWAP1 LOG1 CODESIZE DUP1 DUP3 DUP1 RETURN JUMPDEST PUSH1 0x64 SWAP1 PUSH1 0x20 DUP7 MLOAD SWAP2 PUSH3 0x461BCD PUSH1 0xE5 SHL DUP4 MSTORE DUP3 ADD MSTORE PUSH1 0x15 PUSH1 0x24 DUP3 ADD MSTORE PUSH21 0x496E76616C696420746F6B656E2061646472657373 PUSH1 0x58 SHL PUSH1 0x44 DUP3 ADD MSTORE REVERT JUMPDEST PUSH9 0xFFFFFFFFFFFFFFFFFF NOT AND PUSH9 0x10000000000000001 OR DUP5 SSTORE CODESIZE PUSH2 0x502 JUMP JUMPDEST DUP6 MLOAD PUSH4 0xF92EE8A9 PUSH1 0xE0 SHL DUP2 MSTORE DUP4 SWAP1 REVERT JUMPDEST SWAP1 POP ISZERO CODESIZE PUSH2 0x4E6 JUMP JUMPDEST ADDRESS EXTCODESIZE ISZERO SWAP2 POP PUSH2 0x4DE JUMP JUMPDEST DUP6 SWAP2 POP PUSH2 0x4D4 JUMP JUMPDEST POP CALLVALUE PUSH2 0x27F JUMPI DUP3 PUSH1 0x3 NOT CALLDATASIZE ADD SLT PUSH2 0x27F JUMPI DUP2 MLOAD SWAP1 DUP3 DUP3 ADD SWAP1 DUP3 DUP3 LT PUSH8 0xFFFFFFFFFFFFFFFF DUP4 GT OR PUSH2 0x6C7 JUMPI POP DUP3 MSTORE PUSH1 0x5 DUP2 MSTORE PUSH1 0x20 SWAP1 PUSH5 0x352E302E3 PUSH1 0xDC SHL PUSH1 0x20 DUP3 ADD MSTORE DUP3 MLOAD SWAP4 DUP5 SWAP3 PUSH1 0x20 DUP5 MSTORE DUP3 MLOAD SWAP3 DUP4 PUSH1 0x20 DUP7 ADD MSTORE DUP3 JUMPDEST DUP5 DUP2 LT PUSH2 0x6B1 JUMPI POP POP POP DUP3 DUP3 ADD DUP5 ADD MSTORE PUSH1 0x1F ADD PUSH1 0x1F NOT AND DUP2 ADD SUB ADD SWAP1 RETURN JUMPDEST DUP2 DUP2 ADD DUP4 ADD MLOAD DUP9 DUP3 ADD DUP9 ADD MSTORE DUP8 SWAP6 POP DUP3 ADD PUSH2 0x693 JUMP JUMPDEST PUSH4 0x4E487B71 PUSH1 0xE0 SHL DUP6 MSTORE PUSH1 0x41 SWAP1 MSTORE PUSH1 0x24 DUP5 REVERT JUMPDEST POP POP CALLVALUE PUSH2 0x2D2 JUMPI DUP2 PUSH1 0x3 NOT CALLDATASIZE ADD SLT PUSH2 0x2D2 JUMPI PUSH1 0x0 DUP1 MLOAD PUSH1 0x20 PUSH2 0x1744 DUP4 CODECOPY DUP2 MLOAD SWAP2 MSTORE SLOAD SWAP1 MLOAD PUSH1 0x1 PUSH1 0x1 PUSH1 0xA0 SHL SUB SWAP1 SWAP2 AND DUP2 MSTORE PUSH1 0x20 SWAP1 RETURN JUMPDEST POP POP CALLVALUE PUSH2 0x2D2 JUMPI DUP2 PUSH1 0x3 NOT CALLDATASIZE ADD SLT PUSH2 0x2D2 JUMPI PUSH1 0x20 PUSH32 0x62E78CEA01BEE320CD4E420270B5EA74000D11B0C9F74754EBDBFC544B05A258 SWAP2 PUSH2 0x74E PUSH2 0x1474 JUMP JUMPDEST PUSH2 0x756 PUSH2 0x1565 JUMP JUMPDEST PUSH1 0x0 DUP1 MLOAD PUSH1 0x20 PUSH2 0x1764 DUP4 CODECOPY DUP2 MLOAD SWAP2 MSTORE DUP1 SLOAD PUSH1 0xFF NOT AND PUSH1 0x1 OR SWAP1 SSTORE MLOAD CALLER DUP2 MSTORE LOG1 DUP1 RETURN JUMPDEST SWAP2 DUP5 SWAP2 POP CALLVALUE PUSH2 0x2D2 JUMPI PUSH1 0x20 DUP1 PUSH1 0x3 NOT CALLDATASIZE ADD SLT PUSH2 0x27F JUMPI PUSH1 0x1 PUSH1 0x1 PUSH1 0xA0 SHL SUB PUSH2 0x79E PUSH2 0x117D JUMP JUMPDEST AND DUP4 MSTORE PUSH1 0x1 SWAP3 PUSH1 0x1 DUP3 MSTORE DUP6 DUP2 KECCAK256 SWAP5 DUP6 SLOAD SWAP4 PUSH8 0xFFFFFFFFFFFFFFFF DUP6 GT PUSH2 0x869 JUMPI POP SWAP4 DUP7 SWAP4 DUP7 SWAP4 DUP6 MLOAD SWAP2 PUSH2 0x7D6 DUP3 DUP3 PUSH1 0x5 SHL ADD DUP5 PUSH2 0x11E6 JUMP JUMPDEST DUP1 DUP4 MSTORE DUP2 DUP4 ADD DUP1 SWAP7 DUP7 MSTORE DUP3 DUP7 KECCAK256 DUP7 SWAP2 JUMPDEST DUP4 DUP4 LT PUSH2 0x83C JUMPI POP POP POP POP DUP6 MLOAD SWAP7 DUP8 SWAP7 DUP3 DUP9 ADD SWAP4 DUP4 DUP10 MSTORE MLOAD DUP1 SWAP5 MSTORE DUP8 ADD SWAP6 SWAP5 SWAP1 JUMPDEST DUP4 DUP3 LT PUSH2 0x814 JUMPI DUP8 DUP8 SUB DUP9 RETURN JUMPDEST SWAP2 DUP6 SWAP8 POP DUP3 DUP8 PUSH2 0x82A DUP8 SWAP10 DUP5 SWAP9 SWAP6 SWAP8 SWAP10 MLOAD PUSH2 0x1224 JUMP JUMPDEST ADD SWAP8 ADD SWAP3 ADD DUP8 SWAP7 SWAP6 SWAP4 SWAP2 SWAP5 SWAP3 SWAP5 PUSH2 0x807 JUMP JUMPDEST SWAP6 PUSH1 0x7 DUP6 DUP3 SWAP11 SWAP12 SWAP13 SWAP7 SWAP9 PUSH2 0x852 DUP6 SWAP12 SWAP10 SWAP12 PUSH2 0x1305 JUMP JUMPDEST DUP2 MSTORE ADD SWAP3 ADD SWAP3 ADD SWAP2 SWAP1 SWAP10 SWAP9 SWAP8 SWAP6 SWAP4 SWAP10 SWAP7 SWAP5 SWAP7 PUSH2 0x7E6 JUMP JUMPDEST PUSH4 0x4E487B71 PUSH1 0xE0 SHL DUP4 MSTORE PUSH1 0x41 SWAP1 MSTORE PUSH1 0x24 DUP3 REVERT JUMPDEST POP POP SWAP1 CALLVALUE PUSH2 0x27F JUMPI DUP1 PUSH1 0x3 NOT CALLDATASIZE ADD SLT PUSH2 0x27F JUMPI DUP2 CALLDATALOAD SWAP1 PUSH1 0x24 CALLDATALOAD PUSH2 0x89D PUSH2 0x1535 JUMP JUMPDEST PUSH2 0x8A5 PUSH2 0x1565 JUMP JUMPDEST PUSH2 0x8B0 DUP4 ISZERO ISZERO PUSH2 0x1363 JUMP JUMPDEST DUP1 ISZERO PUSH2 0xAD8 JUMPI PUSH1 0x1 DUP1 PUSH1 0xA0 SHL SUB SWAP4 DUP5 DUP7 SLOAD AND SWAP1 PUSH2 0x8FB DUP5 MLOAD PUSH1 0x20 SWAP4 PUSH4 0x23B872DD PUSH1 0xE0 SHL DUP6 DUP4 ADD MSTORE CALLER PUSH1 0x24 DUP4 ADD MSTORE ADDRESS PUSH1 0x44 DUP4 ADD MSTORE DUP8 PUSH1 0x64 DUP4 ADD MSTORE PUSH1 0x64 DUP3 MSTORE PUSH2 0x8F6 DUP3 PUSH2 0x11CA JUMP JUMPDEST PUSH2 0x1637 JUMP JUMPDEST DUP4 MLOAD DUP3 DUP2 ADD SWAP1 CALLER PUSH1 0x60 SHL DUP3 MSTORE DUP7 PUSH1 0x34 DUP3 ADD MSTORE TIMESTAMP PUSH1 0x54 DUP3 ADD MSTORE NUMBER PUSH1 0x74 DUP3 ADD MSTORE PUSH1 0x74 DUP2 MSTORE PUSH2 0x926 DUP2 PUSH2 0x11CA JUMP JUMPDEST MLOAD SWAP1 KECCAK256 SWAP6 DUP7 DUP9 MSTORE PUSH1 0x2 DUP4 MSTORE PUSH1 0xFF DUP6 DUP10 KECCAK256 SLOAD AND PUSH2 0xA96 JUMPI CALLER DUP9 MSTORE PUSH1 0x1 DUP4 MSTORE DUP7 DUP6 DUP10 KECCAK256 SWAP3 DUP10 DUP8 MLOAD SWAP4 PUSH2 0x955 DUP6 PUSH2 0x1198 JUMP JUMPDEST CALLER DUP6 MSTORE DUP7 DUP6 ADD DUP11 DUP2 MSTORE DUP10 DUP7 ADD SWAP1 TIMESTAMP DUP3 MSTORE PUSH1 0x60 DUP8 ADD SWAP3 DUP11 DUP5 MSTORE PUSH1 0x80 DUP9 ADD SWAP5 DUP6 MSTORE PUSH1 0xA0 DUP9 ADD SWAP9 PUSH1 0x1 DUP11 MSTORE PUSH1 0xC0 DUP10 ADD SWAP8 DUP9 MSTORE DUP1 SLOAD SWAP1 PUSH9 0x10000000000000000 DUP3 LT ISZERO PUSH2 0xA81 JUMPI SWAP1 PUSH2 0x9A8 SWAP2 PUSH1 0x1 DUP3 ADD DUP2 SSTORE PUSH2 0x12B0 JUMP JUMPDEST SWAP9 SWAP1 SWAP9 PUSH2 0xA6E JUMPI SWAP1 PUSH1 0x6 SWAP8 SWAP7 SWAP6 SWAP5 SWAP4 SWAP3 SWAP2 MLOAD AND PUSH12 0xFFFFFFFFFFFFFFFFFFFFFFFF PUSH1 0xA0 SHL DUP10 SLOAD AND OR DUP9 SSTORE MLOAD PUSH1 0x1 DUP9 ADD SSTORE MLOAD PUSH1 0x2 DUP8 ADD SSTORE MLOAD PUSH1 0x3 DUP7 ADD SSTORE MLOAD SWAP1 DUP5 ADD SSTORE PUSH1 0x5 DUP4 ADD SWAP4 MLOAD ISZERO ISZERO SWAP4 PUSH1 0xFF NOT SWAP5 PUSH1 0xFF DUP7 DUP4 SLOAD AND SWAP2 AND OR SWAP1 SSTORE MLOAD SWAP2 ADD SSTORE DUP6 DUP8 MSTORE PUSH1 0x2 DUP3 MSTORE PUSH1 0x1 DUP5 DUP9 KECCAK256 SWAP2 DUP3 SLOAD AND OR SWAP1 SSTORE PUSH2 0xA23 DUP5 PUSH1 0x3 SLOAD PUSH2 0x13AF JUMP JUMPDEST PUSH1 0x3 SSTORE DUP3 MLOAD SWAP4 DUP5 MSTORE DUP4 ADD MSTORE TIMESTAMP SWAP1 DUP3 ADD MSTORE PUSH32 0x87338E3EE4F74A128E43E1CC852373EA84A0E04E21F4C541D1D82CC52D7F2926 PUSH1 0x60 CALLER SWAP3 LOG3 PUSH1 0x1 PUSH1 0x0 DUP1 MLOAD PUSH1 0x20 PUSH2 0x1784 DUP4 CODECOPY DUP2 MLOAD SWAP2 MSTORE SSTORE DUP1 RETURN JUMPDEST POP PUSH4 0x4E487B71 PUSH1 0xE0 SHL DUP16 MSTORE DUP15 DUP7 MSTORE PUSH1 0x24 DUP16 REVERT JUMPDEST POP POP PUSH4 0x4E487B71 PUSH1 0xE0 SHL DUP16 MSTORE PUSH1 0x41 DUP7 MSTORE PUSH1 0x24 DUP16 REVERT JUMPDEST POP PUSH1 0x64 SWAP2 DUP5 MLOAD SWAP2 PUSH3 0x461BCD PUSH1 0xE5 SHL DUP4 MSTORE DUP3 ADD MSTORE PUSH1 0x17 PUSH1 0x24 DUP3 ADD MSTORE PUSH32 0x5555494420636F6C6C6973696F6E206465746563746564000000000000000000 PUSH1 0x44 DUP3 ADD MSTORE REVERT JUMPDEST DUP2 MLOAD PUSH3 0x461BCD PUSH1 0xE5 SHL DUP2 MSTORE PUSH1 0x20 DUP2 DUP7 ADD MSTORE PUSH1 0x1F PUSH1 0x24 DUP3 ADD MSTORE PUSH32 0x4475726174696F6E206D7573742062652067726561746572207468616E203000 PUSH1 0x44 DUP3 ADD MSTORE PUSH1 0x64 SWAP1 REVERT JUMPDEST DUP5 CALLVALUE PUSH2 0x2B0 JUMPI DUP1 PUSH1 0x3 NOT CALLDATASIZE ADD SLT PUSH2 0x2B0 JUMPI PUSH2 0xB34 PUSH2 0x1474 JUMP JUMPDEST PUSH1 0x0 DUP1 MLOAD PUSH1 0x20 PUSH2 0x1744 DUP4 CODECOPY DUP2 MLOAD SWAP2 MSTORE DUP1 SLOAD PUSH1 0x1 PUSH1 0x1 PUSH1 0xA0 SHL SUB NOT DUP2 AND SWAP1 SWAP2 SSTORE DUP2 SWAP1 PUSH1 0x1 PUSH1 0x1 PUSH1 0xA0 SHL SUB AND PUSH32 0x8BE0079C531659141344CD1FD0A4F28419497F9722A3DAAFE3B4186F6B6457E0 DUP3 DUP1 LOG3 DUP1 RETURN JUMPDEST POP POP POP CALLVALUE PUSH2 0x2D2 JUMPI DUP2 PUSH1 0x3 NOT CALLDATASIZE ADD SLT PUSH2 0x2D2 JUMPI PUSH1 0x20 SWAP1 PUSH1 0xFF PUSH1 0x0 DUP1 MLOAD PUSH1 0x20 PUSH2 0x1764 DUP4 CODECOPY DUP2 MLOAD SWAP2 MSTORE SLOAD AND SWAP1 MLOAD SWAP1 ISZERO ISZERO DUP2 MSTORE RETURN JUMPDEST POP POP POP CALLVALUE PUSH2 0x2D2 JUMPI DUP2 PUSH1 0x3 NOT CALLDATASIZE ADD SLT PUSH2 0x2D2 JUMPI PUSH1 0x20 SWAP1 MLOAD PUSH2 0x1A4 DUP2 MSTORE RETURN JUMPDEST POP POP DUP3 CALLVALUE PUSH2 0x2B0 JUMPI DUP3 PUSH1 0x3 NOT CALLDATASIZE ADD SLT PUSH2 0x2B0 JUMPI PUSH2 0xBF0 PUSH2 0x117D JUMP JUMPDEST SWAP2 PUSH1 0x24 CALLDATALOAD SWAP3 DUP3 PUSH1 0xC0 DUP7 MLOAD PUSH2 0xC03 DUP2 PUSH2 0x1198 JUMP JUMPDEST DUP3 DUP2 MSTORE DUP3 PUSH1 0x20 DUP3 ADD MSTORE DUP3 DUP9 DUP3 ADD MSTORE DUP3 PUSH1 0x60 DUP3 ADD MSTORE DUP3 PUSH1 0x80 DUP3 ADD MSTORE DUP3 PUSH1 0xA0 DUP3 ADD MSTORE ADD MSTORE PUSH1 0x1 DUP1 PUSH1 0xA0 SHL SUB AND SWAP1 DUP2 DUP4 MSTORE PUSH1 0x1 PUSH1 0x20 MSTORE DUP5 DUP4 KECCAK256 SLOAD DUP5 LT ISZERO PUSH2 0xC6F JUMPI PUSH1 0xE0 DUP6 PUSH2 0xC6D PUSH2 0xC64 PUSH2 0xC5E DUP9 DUP5 DUP10 DUP10 DUP2 MSTORE PUSH1 0x1 PUSH1 0x20 MSTORE KECCAK256 PUSH2 0x12B0 JUMP JUMPDEST POP PUSH2 0x1305 JUMP JUMPDEST SWAP2 MLOAD DUP1 SWAP3 PUSH2 0x1224 JUMP JUMPDEST RETURN JUMPDEST PUSH1 0x64 SWAP1 PUSH1 0x20 DUP7 MLOAD SWAP2 PUSH3 0x461BCD PUSH1 0xE5 SHL DUP4 MSTORE DUP3 ADD MSTORE PUSH1 0x13 PUSH1 0x24 DUP3 ADD MSTORE PUSH19 0x92DCECC2D8D2C840E6E8C2D6CA40D2DCC8CAF PUSH1 0x6B SHL PUSH1 0x44 DUP3 ADD MSTORE REVERT JUMPDEST POP POP SWAP2 CALLVALUE PUSH2 0x2B0 JUMPI DUP1 PUSH1 0x3 NOT CALLDATASIZE ADD SLT PUSH2 0x2B0 JUMPI POP PUSH32 0x0 PUSH1 0x1 PUSH1 0x1 PUSH1 0xA0 SHL SUB AND ADDRESS SUB PUSH2 0xD15 JUMPI PUSH1 0x20 SWAP1 MLOAD PUSH32 0x360894A13BA1A3210667C828492DB98DCA3E2076CC3735A920A3CA505D382BBC DUP2 MSTORE RETURN JUMPDEST MLOAD PUSH4 0x703E46DD PUSH1 0xE1 SHL DUP2 MSTORE REVERT JUMPDEST POP POP SWAP1 DUP1 PUSH1 0x3 NOT CALLDATASIZE ADD SLT PUSH2 0x27F JUMPI PUSH2 0xD38 PUSH2 0x117D JUMP JUMPDEST SWAP1 PUSH1 0x24 SWAP4 DUP5 CALLDATALOAD PUSH8 0xFFFFFFFFFFFFFFFF DUP2 GT PUSH2 0x2D2 JUMPI CALLDATASIZE PUSH1 0x23 DUP3 ADD SLT ISZERO PUSH2 0x2D2 JUMPI DUP1 DUP6 ADD CALLDATALOAD PUSH2 0xD65 DUP2 PUSH2 0x1208 JUMP JUMPDEST SWAP5 PUSH2 0xD72 DUP6 MLOAD SWAP7 DUP8 PUSH2 0x11E6 JUMP JUMPDEST DUP2 DUP7 MSTORE PUSH1 0x20 SWAP2 DUP3 DUP8 ADD SWAP4 CALLDATASIZE DUP11 DUP4 DUP4 ADD ADD GT PUSH2 0xF89 JUMPI DUP2 DUP7 SWAP3 DUP12 DUP7 SWAP4 ADD DUP8 CALLDATACOPY DUP9 ADD ADD MSTORE PUSH1 0x1 PUSH1 0x1 PUSH1 0xA0 SHL SUB PUSH32 0x0 DUP2 AND ADDRESS DUP2 EQ SWAP1 DUP2 ISZERO PUSH2 0xF5B JUMPI JUMPDEST POP PUSH2 0xF4B JUMPI PUSH2 0xDD7 PUSH2 0x1474 JUMP JUMPDEST DUP2 AND SWAP6 DUP6 MLOAD PUSH4 0x52D1902D PUSH1 0xE0 SHL DUP2 MSTORE DUP4 DUP2 DUP11 DUP2 DUP12 GAS STATICCALL DUP7 SWAP2 DUP2 PUSH2 0xF18 JUMPI JUMPDEST POP PUSH2 0xE11 JUMPI POP POP POP POP POP POP MLOAD SWAP2 PUSH4 0x4C9C8CE3 PUSH1 0xE0 SHL DUP4 MSTORE DUP3 ADD MSTORE REVERT JUMPDEST SWAP1 DUP9 DUP9 DUP9 SWAP5 SWAP4 DUP13 PUSH32 0x360894A13BA1A3210667C828492DB98DCA3E2076CC3735A920A3CA505D382BBC SWAP2 DUP3 DUP2 SUB PUSH2 0xF03 JUMPI POP DUP6 EXTCODESIZE ISZERO PUSH2 0xEEF JUMPI POP DUP1 SLOAD PUSH1 0x1 PUSH1 0x1 PUSH1 0xA0 SHL SUB NOT AND DUP3 OR SWAP1 SSTORE DUP5 MLOAD DUP9 SWAP4 SWAP3 SWAP2 PUSH32 0xBC7CD75A20EE27FD9ADEBAB32041F755214DBC6BFFA90CC0225B39DA2E5C2D3B DUP6 DUP1 LOG2 DUP3 MLOAD ISZERO PUSH2 0xED1 JUMPI POP POP PUSH2 0xEC3 SWAP6 DUP3 SWAP2 MLOAD SWAP1 DUP5 GAS DELEGATECALL SWAP2 RETURNDATASIZE ISZERO PUSH2 0xEC7 JUMPI RETURNDATASIZE PUSH2 0xEB5 PUSH2 0xEAC DUP3 PUSH2 0x1208 JUMP JUMPDEST SWAP3 MLOAD SWAP3 DUP4 PUSH2 0x11E6 JUMP JUMPDEST DUP2 MSTORE DUP6 DUP2 SWAP5 RETURNDATASIZE SWAP3 ADD RETURNDATACOPY PUSH2 0x16E0 JUMP JUMPDEST POP DUP1 RETURN JUMPDEST POP PUSH1 0x60 SWAP3 POP PUSH2 0x16E0 JUMP JUMPDEST SWAP6 POP SWAP6 POP POP POP POP POP CALLVALUE PUSH2 0xEE3 JUMPI POP POP DUP1 RETURN JUMPDEST PUSH4 0xB398979F PUSH1 0xE0 SHL DUP2 MSTORE REVERT JUMPDEST DUP7 MLOAD PUSH4 0x4C9C8CE3 PUSH1 0xE0 SHL DUP2 MSTORE DUP1 DUP6 ADD DUP5 SWAP1 MSTORE REVERT JUMPDEST DUP8 MLOAD PUSH4 0x2A875269 PUSH1 0xE2 SHL DUP2 MSTORE DUP1 DUP7 ADD SWAP2 SWAP1 SWAP2 MSTORE REVERT JUMPDEST SWAP1 SWAP2 POP DUP5 DUP2 DUP2 RETURNDATASIZE DUP4 GT PUSH2 0xF44 JUMPI JUMPDEST PUSH2 0xF30 DUP2 DUP4 PUSH2 0x11E6 JUMP JUMPDEST DUP2 ADD SUB SLT PUSH2 0xF40 JUMPI MLOAD SWAP1 CODESIZE PUSH2 0xDF5 JUMP JUMPDEST DUP7 DUP1 REVERT JUMPDEST POP RETURNDATASIZE PUSH2 0xF26 JUMP JUMPDEST DUP6 MLOAD PUSH4 0x703E46DD PUSH1 0xE1 SHL DUP2 MSTORE DUP9 SWAP1 REVERT JUMPDEST SWAP1 POP DUP2 PUSH32 0x360894A13BA1A3210667C828492DB98DCA3E2076CC3735A920A3CA505D382BBC SLOAD AND EQ ISZERO CODESIZE PUSH2 0xDCA JUMP JUMPDEST DUP6 DUP1 REVERT JUMPDEST POP POP CALLVALUE PUSH2 0x27F JUMPI DUP3 PUSH1 0x3 NOT CALLDATASIZE ADD SLT PUSH2 0x27F JUMPI PUSH2 0xFA7 PUSH2 0x1474 JUMP JUMPDEST PUSH1 0x0 DUP1 MLOAD PUSH1 0x20 PUSH2 0x1764 DUP4 CODECOPY DUP2 MLOAD SWAP2 MSTORE SWAP1 DUP2 SLOAD SWAP1 PUSH1 0xFF DUP3 AND ISZERO PUSH2 0xFF7 JUMPI POP PUSH1 0xFF NOT AND SWAP1 SSTORE MLOAD CALLER DUP2 MSTORE PUSH32 0x5DB9EE0A495BF2E6FF9C91A7834C1BA4FDD244A5E8AA4E537BD38AEAE4B073AA SWAP1 PUSH1 0x20 SWAP1 LOG1 DUP1 RETURN JUMPDEST DUP4 MLOAD PUSH4 0x8DFC202B PUSH1 0xE0 SHL DUP2 MSTORE REVERT JUMPDEST POP POP POP CALLVALUE PUSH2 0x2D2 JUMPI DUP2 PUSH1 0x3 NOT CALLDATASIZE ADD SLT PUSH2 0x2D2 JUMPI SWAP1 SLOAD SWAP1 MLOAD PUSH1 0x1 PUSH1 0x1 PUSH1 0xA0 SHL SUB SWAP1 SWAP2 AND DUP2 MSTORE PUSH1 0x20 SWAP1 RETURN JUMPDEST POP POP CALLVALUE PUSH2 0x27F JUMPI DUP2 PUSH1 0x3 NOT CALLDATASIZE ADD SLT PUSH2 0x27F JUMPI PUSH2 0x1048 PUSH2 0x117D JUMP JUMPDEST SWAP1 PUSH1 0x24 CALLDATALOAD SWAP3 PUSH2 0x1055 PUSH2 0x1474 JUMP JUMPDEST PUSH1 0x1 PUSH1 0x1 PUSH1 0xA0 SHL SUB DUP4 AND SWAP3 DUP4 ISZERO PUSH2 0x1127 JUMPI SWAP1 PUSH2 0x1074 DUP6 PUSH2 0x10C1 SWAP4 PUSH2 0x14AD JUMP JUMPDEST SWAP1 DUP5 DUP8 MSTORE PUSH1 0x1 PUSH1 0x20 MSTORE DUP1 DUP8 KECCAK256 SWAP1 PUSH2 0x108D DUP3 SLOAD DUP5 LT PUSH2 0x126F JUMP JUMPDEST PUSH2 0x10A7 PUSH1 0x1 PUSH2 0x109C DUP6 DUP6 PUSH2 0x12B0 JUMP JUMPDEST POP ADD SLOAD PUSH1 0x3 SLOAD PUSH2 0x12E2 JUMP JUMPDEST PUSH1 0x3 SSTORE DUP7 DUP9 MSTORE PUSH1 0x2 PUSH1 0x20 MSTORE DUP8 KECCAK256 DUP1 SLOAD PUSH1 0xFF NOT AND SWAP1 SSTORE PUSH2 0x12B0 JUMP JUMPDEST SWAP2 SWAP1 SWAP2 PUSH2 0x1115 JUMPI DUP2 DUP6 PUSH1 0x6 SWAP3 DUP2 DUP1 SWAP6 SSTORE DUP2 PUSH1 0x1 DUP5 ADD SSTORE DUP2 PUSH1 0x2 DUP5 ADD SSTORE DUP2 PUSH1 0x3 DUP5 ADD SSTORE DUP3 ADD SSTORE DUP3 PUSH1 0x5 DUP3 ADD SSTORE ADD SSTORE PUSH32 0x54A60F478CA425E614079C5BE9E8687E34A2F6CE8DA98B5D4C0D792F94CC2E0A DUP4 DUP1 LOG3 DUP1 RETURN JUMPDEST PUSH4 0x4E487B71 PUSH1 0xE0 SHL DUP6 MSTORE DUP5 SWAP1 MSTORE PUSH1 0x24 DUP5 REVERT JUMPDEST DUP2 MLOAD PUSH3 0x461BCD PUSH1 0xE5 SHL DUP2 MSTORE PUSH1 0x20 DUP2 DUP6 ADD MSTORE PUSH1 0x14 PUSH1 0x24 DUP3 ADD MSTORE PUSH20 0x496E76616C696420757365722061646472657373 PUSH1 0x60 SHL PUSH1 0x44 DUP3 ADD MSTORE PUSH1 0x64 SWAP1 REVERT JUMPDEST DUP6 SWAP1 CALLVALUE PUSH2 0x2D2 JUMPI DUP2 PUSH1 0x3 NOT CALLDATASIZE ADD SLT PUSH2 0x2D2 JUMPI PUSH1 0x20 SWAP1 PUSH1 0x3 SLOAD DUP2 MSTORE RETURN JUMPDEST PUSH1 0x4 CALLDATALOAD SWAP1 PUSH1 0x1 PUSH1 0x1 PUSH1 0xA0 SHL SUB DUP3 AND DUP3 SUB PUSH2 0x1193 JUMPI JUMP JUMPDEST PUSH1 0x0 DUP1 REVERT JUMPDEST PUSH1 0xE0 DUP2 ADD SWAP1 DUP2 LT PUSH8 0xFFFFFFFFFFFFFFFF DUP3 GT OR PUSH2 0x11B4 JUMPI PUSH1 0x40 MSTORE JUMP JUMPDEST PUSH4 0x4E487B71 PUSH1 0xE0 SHL PUSH1 0x0 MSTORE PUSH1 0x41 PUSH1 0x4 MSTORE PUSH1 0x24 PUSH1 0x0 REVERT JUMPDEST PUSH1 0xA0 DUP2 ADD SWAP1 DUP2 LT PUSH8 0xFFFFFFFFFFFFFFFF DUP3 GT OR PUSH2 0x11B4 JUMPI PUSH1 0x40 MSTORE JUMP JUMPDEST SWAP1 PUSH1 0x1F DUP1 NOT SWAP2 ADD AND DUP2 ADD SWAP1 DUP2 LT PUSH8 0xFFFFFFFFFFFFFFFF DUP3 GT OR PUSH2 0x11B4 JUMPI PUSH1 0x40 MSTORE JUMP JUMPDEST PUSH8 0xFFFFFFFFFFFFFFFF DUP2 GT PUSH2 0x11B4 JUMPI PUSH1 0x1F ADD PUSH1 0x1F NOT AND PUSH1 0x20 ADD SWAP1 JUMP JUMPDEST PUSH1 0xC0 DUP1 SWAP2 PUSH1 0x1 DUP1 PUSH1 0xA0 SHL SUB DUP2 MLOAD AND DUP5 MSTORE PUSH1 0x20 DUP2 ADD MLOAD PUSH1 0x20 DUP6 ADD MSTORE PUSH1 0x40 DUP2 ADD MLOAD PUSH1 0x40 DUP6 ADD MSTORE PUSH1 0x60 DUP2 ADD MLOAD PUSH1 0x60 DUP6 ADD MSTORE PUSH1 0x80 DUP2 ADD MLOAD PUSH1 0x80 DUP6 ADD MSTORE PUSH1 0xA0 DUP2 ADD MLOAD ISZERO ISZERO PUSH1 0xA0 DUP6 ADD MSTORE ADD MLOAD SWAP2 ADD MSTORE JUMP JUMPDEST ISZERO PUSH2 0x1276 JUMPI JUMP JUMPDEST PUSH1 0x40 MLOAD PUSH3 0x461BCD PUSH1 0xE5 SHL DUP2 MSTORE PUSH1 0x20 PUSH1 0x4 DUP3 ADD MSTORE PUSH1 0x12 PUSH1 0x24 DUP3 ADD MSTORE PUSH18 0x125B9D985B1A59081CDD185AD94815555251 PUSH1 0x72 SHL PUSH1 0x44 DUP3 ADD MSTORE PUSH1 0x64 SWAP1 REVERT JUMPDEST DUP1 SLOAD DUP3 LT ISZERO PUSH2 0x12CC JUMPI PUSH1 0x0 MSTORE PUSH1 0x7 PUSH1 0x20 PUSH1 0x0 KECCAK256 SWAP2 MUL ADD SWAP1 PUSH1 0x0 SWAP1 JUMP JUMPDEST PUSH4 0x4E487B71 PUSH1 0xE0 SHL PUSH1 0x0 MSTORE PUSH1 0x32 PUSH1 0x4 MSTORE PUSH1 0x24 PUSH1 0x0 REVERT JUMPDEST SWAP2 SWAP1 DUP3 SUB SWAP2 DUP3 GT PUSH2 0x12EF JUMPI JUMP JUMPDEST PUSH4 0x4E487B71 PUSH1 0xE0 SHL PUSH1 0x0 MSTORE PUSH1 0x11 PUSH1 0x4 MSTORE PUSH1 0x24 PUSH1 0x0 REVERT JUMPDEST SWAP1 PUSH1 0x40 MLOAD PUSH2 0x1312 DUP2 PUSH2 0x1198 JUMP JUMPDEST DUP3 SLOAD PUSH1 0x1 PUSH1 0x1 PUSH1 0xA0 SHL SUB AND DUP2 MSTORE PUSH1 0x1 DUP4 ADD SLOAD PUSH1 0x20 DUP3 ADD MSTORE PUSH1 0x2 DUP4 ADD SLOAD PUSH1 0x40 DUP3 ADD MSTORE PUSH1 0x3 DUP4 ADD SLOAD PUSH1 0x60 DUP3 ADD MSTORE PUSH1 0x4 DUP4 ADD SLOAD PUSH1 0x80 DUP3 ADD MSTORE PUSH1 0x5 DUP4 ADD SLOAD PUSH1 0xFF AND ISZERO ISZERO PUSH1 0xA0 DUP3 ADD MSTORE PUSH1 0x6 SWAP1 SWAP3 ADD SLOAD PUSH1 0xC0 DUP4 ADD MSTORE JUMP JUMPDEST ISZERO PUSH2 0x136A JUMPI JUMP JUMPDEST PUSH1 0x40 MLOAD PUSH3 0x461BCD PUSH1 0xE5 SHL DUP2 MSTORE PUSH1 0x20 PUSH1 0x4 DUP3 ADD MSTORE PUSH1 0x1D PUSH1 0x24 DUP3 ADD MSTORE PUSH32 0x416D6F756E74206D7573742062652067726561746572207468616E2030000000 PUSH1 0x44 DUP3 ADD MSTORE PUSH1 0x64 SWAP1 REVERT JUMPDEST SWAP2 SWAP1 DUP3 ADD DUP1 SWAP3 GT PUSH2 0x12EF JUMPI JUMP JUMPDEST ISZERO PUSH2 0x13C3 JUMPI JUMP JUMPDEST PUSH1 0x40 MLOAD PUSH3 0x461BCD PUSH1 0xE5 SHL DUP2 MSTORE PUSH1 0x20 PUSH1 0x4 DUP3 ADD MSTORE PUSH1 0x15 PUSH1 0x24 DUP3 ADD MSTORE PUSH21 0x14DD185AD9481A5CC81CDD1A5B1B081B1BD8DAD959 PUSH1 0x5A SHL PUSH1 0x44 DUP3 ADD MSTORE PUSH1 0x64 SWAP1 REVERT JUMPDEST PUSH1 0x1 PUSH1 0x1 PUSH1 0xA0 SHL SUB SWAP1 DUP2 AND SWAP1 DUP2 ISZERO PUSH2 0x145B JUMPI PUSH1 0x0 DUP1 MLOAD PUSH1 0x20 PUSH2 0x1744 DUP4 CODECOPY DUP2 MLOAD SWAP2 MSTORE DUP1 SLOAD PUSH1 0x1 PUSH1 0x1 PUSH1 0xA0 SHL SUB NOT DUP2 AND DUP5 OR SWAP1 SWAP2 SSTORE AND PUSH32 0x8BE0079C531659141344CD1FD0A4F28419497F9722A3DAAFE3B4186F6B6457E0 PUSH1 0x0 DUP1 LOG3 JUMP JUMPDEST PUSH1 0x40 MLOAD PUSH4 0x1E4FBDF7 PUSH1 0xE0 SHL DUP2 MSTORE PUSH1 0x0 PUSH1 0x4 DUP3 ADD MSTORE PUSH1 0x24 SWAP1 REVERT JUMPDEST PUSH1 0x0 DUP1 MLOAD PUSH1 0x20 PUSH2 0x1744 DUP4 CODECOPY DUP2 MLOAD SWAP2 MSTORE SLOAD PUSH1 0x1 PUSH1 0x1 PUSH1 0xA0 SHL SUB AND CALLER SUB PUSH2 0x1495 JUMPI JUMP JUMPDEST PUSH1 0x40 MLOAD PUSH4 0x118CDAA7 PUSH1 0xE0 SHL DUP2 MSTORE CALLER PUSH1 0x4 DUP3 ADD MSTORE PUSH1 0x24 SWAP1 REVERT JUMPDEST PUSH1 0x1 DUP1 PUSH1 0xA0 SHL SUB AND PUSH1 0x0 MSTORE PUSH1 0x1 SWAP2 PUSH1 0x1 PUSH1 0x20 MSTORE PUSH1 0x40 PUSH1 0x0 KECCAK256 SWAP2 PUSH1 0x0 SWAP3 DUP1 SLOAD SWAP4 JUMPDEST DUP5 DUP2 LT PUSH2 0x1510 JUMPI PUSH1 0x40 MLOAD PUSH3 0x461BCD PUSH1 0xE5 SHL DUP2 MSTORE PUSH1 0x20 PUSH1 0x4 DUP3 ADD MSTORE PUSH1 0x14 PUSH1 0x24 DUP3 ADD MSTORE PUSH20 0x14DD185AD94815555251081B9BDD08199BDD5B99 PUSH1 0x62 SHL PUSH1 0x44 DUP3 ADD MSTORE PUSH1 0x64 SWAP1 REVERT JUMPDEST DUP3 PUSH1 0x6 PUSH2 0x151D DUP4 DUP6 PUSH2 0x12B0 JUMP JUMPDEST POP ADD SLOAD EQ PUSH2 0x152C JUMPI DUP6 ADD PUSH2 0x14CD JUMP JUMPDEST SWAP4 POP POP POP SWAP2 POP SWAP1 JUMP JUMPDEST PUSH1 0x0 DUP1 MLOAD PUSH1 0x20 PUSH2 0x1784 DUP4 CODECOPY DUP2 MLOAD SWAP2 MSTORE PUSH1 0x2 DUP2 SLOAD EQ PUSH2 0x1553 JUMPI PUSH1 0x2 SWAP1 SSTORE JUMP JUMPDEST PUSH1 0x40 MLOAD PUSH4 0x3EE5AEB5 PUSH1 0xE0 SHL DUP2 MSTORE PUSH1 0x4 SWAP1 REVERT JUMPDEST PUSH1 0xFF PUSH1 0x0 DUP1 MLOAD PUSH1 0x20 PUSH2 0x1764 DUP4 CODECOPY DUP2 MLOAD SWAP2 MSTORE SLOAD AND PUSH2 0x157E JUMPI JUMP JUMPDEST PUSH1 0x40 MLOAD PUSH4 0xD93C0665 PUSH1 0xE0 SHL DUP2 MSTORE PUSH1 0x4 SWAP1 REVERT JUMPDEST SWAP2 PUSH2 0x159B DUP3 DUP3 PUSH2 0x13AF JUMP JUMPDEST TIMESTAMP GT ISZERO PUSH2 0x15D4 JUMPI POP SWAP1 JUMPDEST DUP2 DUP2 MUL SWAP2 DUP2 DUP4 DIV EQ SWAP1 ISZERO OR ISZERO PUSH2 0x12EF JUMPI PUSH2 0x1A4 SWAP1 DUP2 DUP2 MUL SWAP2 DUP2 DUP4 DIV EQ SWAP1 ISZERO OR ISZERO PUSH2 0x12EF JUMPI PUSH5 0x496CEBB800 SWAP1 DIV SWAP1 JUMP JUMPDEST PUSH2 0x15DF SWAP2 POP TIMESTAMP PUSH2 0x12E2 JUMP JUMPDEST SWAP1 PUSH2 0x15A5 JUMP JUMPDEST PUSH1 0x40 MLOAD PUSH4 0xA9059CBB PUSH1 0xE0 SHL PUSH1 0x20 DUP3 ADD MSTORE PUSH1 0x1 PUSH1 0x1 PUSH1 0xA0 SHL SUB SWAP1 SWAP3 AND PUSH1 0x24 DUP4 ADD MSTORE PUSH1 0x44 DUP1 DUP4 ADD SWAP4 SWAP1 SWAP4 MSTORE SWAP2 DUP2 MSTORE PUSH1 0x80 DUP2 ADD SWAP2 PUSH8 0xFFFFFFFFFFFFFFFF DUP4 GT DUP3 DUP5 LT OR PUSH2 0x11B4 JUMPI PUSH2 0x1635 SWAP3 PUSH1 0x40 MSTORE PUSH2 0x1637 JUMP JUMPDEST JUMP JUMPDEST SWAP1 PUSH1 0x0 PUSH1 0x20 SWAP2 DUP3 DUP2 MLOAD SWAP2 ADD DUP3 DUP6 GAS CALL ISZERO PUSH2 0x1693 JUMPI PUSH1 0x0 MLOAD RETURNDATASIZE PUSH2 0x168A JUMPI POP PUSH1 0x1 PUSH1 0x1 PUSH1 0xA0 SHL SUB DUP2 AND EXTCODESIZE ISZERO JUMPDEST PUSH2 0x1668 JUMPI POP JUMP JUMPDEST PUSH1 0x40 MLOAD PUSH4 0x5274AFE7 PUSH1 0xE0 SHL DUP2 MSTORE PUSH1 0x1 PUSH1 0x1 PUSH1 0xA0 SHL SUB SWAP1 SWAP2 AND PUSH1 0x4 DUP3 ADD MSTORE PUSH1 0x24 SWAP1 REVERT JUMPDEST PUSH1 0x1 EQ ISZERO PUSH2 0x1661 JUMP JUMPDEST PUSH1 0x40 MLOAD RETURNDATASIZE PUSH1 0x0 DUP3 RETURNDATACOPY RETURNDATASIZE SWAP1 REVERT JUMPDEST PUSH1 0xFF PUSH32 0xF0C57E16840DF040F15088DC2F81FE391C3923BEC73E23A9662EFC9C229C6A00 SLOAD PUSH1 0x40 SHR AND ISZERO PUSH2 0x16CE JUMPI JUMP JUMPDEST PUSH1 0x40 MLOAD PUSH4 0x1AFCD79F PUSH1 0xE3 SHL DUP2 MSTORE PUSH1 0x4 SWAP1 REVERT JUMPDEST SWAP1 PUSH2 0x1707 JUMPI POP DUP1 MLOAD ISZERO PUSH2 0x16F5 JUMPI PUSH1 0x20 DUP2 MLOAD SWAP2 ADD REVERT JUMPDEST PUSH1 0x40 MLOAD PUSH4 0xD6BDA275 PUSH1 0xE0 SHL DUP2 MSTORE PUSH1 0x4 SWAP1 REVERT JUMPDEST DUP2 MLOAD ISZERO DUP1 PUSH2 0x173A JUMPI JUMPDEST PUSH2 0x1718 JUMPI POP SWAP1 JUMP JUMPDEST PUSH1 0x40 MLOAD PUSH4 0x9996B315 PUSH1 0xE0 SHL DUP2 MSTORE PUSH1 0x1 PUSH1 0x1 PUSH1 0xA0 SHL SUB SWAP1 SWAP2 AND PUSH1 0x4 DUP3 ADD MSTORE PUSH1 0x24 SWAP1 REVERT JUMPDEST POP DUP1 EXTCODESIZE ISZERO PUSH2 0x1710 JUMP INVALID SWAP1 AND 0xD0 SWAP14 PUSH19 0xD40FDAE2FD8CEAC6B6234C7706214FD39C1CD1 0xE6 MULMOD LOG0 MSTORE DUP13 NOT SWAP4 STOP 0xCD 0x5E 0xD1 0x5C PUSH15 0x187E77E9AEE88184C21F4F2182AB58 0x27 0xCB EXTCODESIZE PUSH31 0x7FBEDCD63F033009B779B17422D0DF92223018B32B4D1FA46E071723D6817 0xE2 BASEFEE PUSH14 0x3BECC55F00A264697066735822 SLT KECCAK256 0xC8 0x5E 0x49 0xA9 SMOD BASEFEE PUSH2 0x57C9 INVALID PUSH25 0xD2E8B486163553939C04F1866B8EEFBE03253E5A3964736F6C PUSH4 0x43000816 STOP CALLER "},"methodIdentifiers":{"REWARD_RATE()":"5997bb37","SECONDS_PER_YEAR()":"e6a69ab8","UPGRADE_INTERFACE_VERSION()":"ad3cb1cc","claimReward(bytes32)":"f5414023","getTotalStaked()":"0917e776","getUserStakes(address)":"842e2981","initialize(address)":"c4d66de8","owner()":"8da5cb5b","pause()":"8456cb59","paused()":"5c975abb","proxiableUUID()":"52d1902d","renounceOwnership()":"715018a6","resetStake(address,bytes32)":"0d796594","stake(uint256,uint256)":"7b0472f0","stakes(address,uint256)":"584b62a1","transferOwnership(address)":"f2fde38b","unpause()":"3f4ba83a","unstake(uint256,bytes32)":"ca34f02b","upgradeToAndCall(address,bytes)":"4f1ef286","weedlToken()":"3b9c8cfe"}},"storageLayout":{"storage":[{"astId":7599,"contract":"contracts/GreenFiStaking.sol:GreenFiStaking","label":"weedlToken","offset":0,"slot":"0","type":"t_contract(IERC20)2514"},{"astId":7626,"contract":"contracts/GreenFiStaking.sol:GreenFiStaking","label":"userStakes","offset":0,"slot":"1","type":"t_mapping(t_address,t_array(t_struct(Stake)7620_storage)dyn_storage)"},{"astId":7630,"contract":"contracts/GreenFiStaking.sol:GreenFiStaking","label":"uuidExists","offset":0,"slot":"2","type":"t_mapping(t_bytes32,t_bool)"},{"astId":7632,"contract":"contracts/GreenFiStaking.sol:GreenFiStaking","label":"totalStaked","offset":0,"slot":"3","type":"t_uint256"}],"types":{"t_address":{"encoding":"inplace","label":"address","numberOfBytes":"20"},"t_array(t_struct(Stake)7620_storage)dyn_storage":{"base":"t_struct(Stake)7620_storage","encoding":"dynamic_array","label":"struct GreenFiStaking.Stake[]","numberOfBytes":"32"},"t_bool":{"encoding":"inplace","label":"bool","numberOfBytes":"1"},"t_bytes32":{"encoding":"inplace","label":"bytes32","numberOfBytes":"32"},"t_contract(IERC20)2514":{"encoding":"inplace","label":"contract IERC20","numberOfBytes":"20"},"t_mapping(t_address,t_array(t_struct(Stake)7620_storage)dyn_storage)":{"encoding":"mapping","key":"t_address","label":"mapping(address => struct GreenFiStaking.Stake[])","numberOfBytes":"32","value":"t_array(t_struct(Stake)7620_storage)dyn_storage"},"t_mapping(t_bytes32,t_bool)":{"encoding":"mapping","key":"t_bytes32","label":"mapping(bytes32 => bool)","numberOfBytes":"32","value":"t_bool"},"t_struct(Stake)7620_storage":{"encoding":"inplace","label":"struct GreenFiStaking.Stake","members":[{"astId":7607,"contract":"contracts/GreenFiStaking.sol:GreenFiStaking","label":"user","offset":0,"slot":"0","type":"t_address"},{"astId":7609,"contract":"contracts/GreenFiStaking.sol:GreenFiStaking","label":"amount","offset":0,"slot":"1","type":"t_uint256"},{"astId":7611,"contract":"contracts/GreenFiStaking.sol:GreenFiStaking","label":"startTime","offset":0,"slot":"2","type":"t_uint256"},{"astId":7613,"contract":"contracts/GreenFiStaking.sol:GreenFiStaking","label":"duration","offset":0,"slot":"3","type":"t_uint256"},{"astId":7615,"contract":"contracts/GreenFiStaking.sol:GreenFiStaking","label":"rewardDebt","offset":0,"slot":"4","type":"t_uint256"},{"astId":7617,"contract":"contracts/GreenFiStaking.sol:GreenFiStaking","label":"isActive","offset":0,"slot":"5","type":"t_bool"},{"astId":7619,"contract":"contracts/GreenFiStaking.sol:GreenFiStaking","label":"uuid","offset":0,"slot":"6","type":"t_bytes32"}],"numberOfBytes":"224"},"t_uint256":{"encoding":"inplace","label":"uint256","numberOfBytes":"32"}}}}}}