{"contracts/GreenFiSeed.sol":{"GreenFiSeed":{"abi":[{"inputs":[],"stateMutability":"nonpayable","type":"constructor"},{"inputs":[{"internalType":"address","name":"target","type":"address"}],"name":"AddressEmptyCode","type":"error"},{"inputs":[{"internalType":"address","name":"implementation","type":"address"}],"name":"ERC1967InvalidImplementation","type":"error"},{"inputs":[],"name":"ERC1967NonPayable","type":"error"},{"inputs":[],"name":"EnforcedPause","type":"error"},{"inputs":[],"name":"ExpectedPause","type":"error"},{"inputs":[],"name":"FailedCall","type":"error"},{"inputs":[],"name":"InvalidInitialization","type":"error"},{"inputs":[],"name":"NotInitializing","type":"error"},{"inputs":[{"internalType":"address","name":"owner","type":"address"}],"name":"OwnableInvalidOwner","type":"error"},{"inputs":[{"internalType":"address","name":"account","type":"address"}],"name":"OwnableUnauthorizedAccount","type":"error"},{"inputs":[],"name":"ReentrancyGuardReentrantCall","type":"error"},{"inputs":[{"internalType":"address","name":"token","type":"address"}],"name":"SafeERC20FailedOperation","type":"error"},{"inputs":[],"name":"UUPSUnauthorizedCallContext","type":"error"},{"inputs":[{"internalType":"bytes32","name":"slot","type":"bytes32"}],"name":"UUPSUnsupportedProxiableUUID","type":"error"},{"anonymous":false,"inputs":[{"indexed":true,"internalType":"address","name":"payer","type":"address"},{"indexed":false,"internalType":"uint256","name":"feeAmount","type":"uint256"}],"name":"FeeCollected","type":"event"},{"anonymous":false,"inputs":[{"indexed":false,"internalType":"uint64","name":"version","type":"uint64"}],"name":"Initialized","type":"event"},{"anonymous":false,"inputs":[{"indexed":true,"internalType":"address","name":"previousOwner","type":"address"},{"indexed":true,"internalType":"address","name":"newOwner","type":"address"}],"name":"OwnershipTransferred","type":"event"},{"anonymous":false,"inputs":[{"indexed":false,"internalType":"address","name":"account","type":"address"}],"name":"Paused","type":"event"},{"anonymous":false,"inputs":[{"indexed":true,"internalType":"string","name":"seedId","type":"string"},{"indexed":true,"internalType":"address","name":"seller","type":"address"}],"name":"SeedDelisted","type":"event"},{"anonymous":false,"inputs":[{"indexed":true,"internalType":"string","name":"seedId","type":"string"},{"indexed":true,"internalType":"address","name":"seller","type":"address"},{"indexed":false,"internalType":"string","name":"metadataURI","type":"string"},{"indexed":false,"internalType":"string","name":"strain","type":"string"},{"indexed":false,"internalType":"uint256","name":"price","type":"uint256"},{"indexed":false,"internalType":"string","name":"contactInfo","type":"string"},{"indexed":false,"internalType":"uint256","name":"packSize","type":"uint256"},{"indexed":false,"internalType":"uint256","name":"packQuantity","type":"uint256"},{"indexed":false,"internalType":"uint256","name":"discount","type":"uint256"},{"indexed":false,"internalType":"uint256","name":"fee","type":"uint256"}],"name":"SeedListed","type":"event"},{"anonymous":false,"inputs":[{"indexed":true,"internalType":"string","name":"seedId","type":"string"},{"indexed":true,"internalType":"address","name":"buyer","type":"address"},{"indexed":false,"internalType":"uint256","name":"packQuantity","type":"uint256"},{"indexed":false,"internalType":"uint256","name":"totalPrice","type":"uint256"}],"name":"SeedPurchased","type":"event"},{"anonymous":false,"inputs":[{"indexed":false,"internalType":"address","name":"account","type":"address"}],"name":"Unpaused","type":"event"},{"anonymous":false,"inputs":[{"indexed":true,"internalType":"address","name":"implementation","type":"address"}],"name":"Upgraded","type":"event"},{"inputs":[],"name":"FEE_BASIS_POINTS","outputs":[{"internalType":"uint256","name":"","type":"uint256"}],"stateMutability":"view","type":"function"},{"inputs":[],"name":"MAX_CONTACT_LENGTH","outputs":[{"internalType":"uint256","name":"","type":"uint256"}],"stateMutability":"view","type":"function"},{"inputs":[],"name":"MAX_DISCOUNT","outputs":[{"internalType":"uint256","name":"","type":"uint256"}],"stateMutability":"view","type":"function"},{"inputs":[],"name":"MAX_QUANTITY","outputs":[{"internalType":"uint256","name":"","type":"uint256"}],"stateMutability":"view","type":"function"},{"inputs":[],"name":"MAX_SEED_ID_LENGTH","outputs":[{"internalType":"uint256","name":"","type":"uint256"}],"stateMutability":"view","type":"function"},{"inputs":[],"name":"MIN_PRICE","outputs":[{"internalType":"uint256","name":"","type":"uint256"}],"stateMutability":"view","type":"function"},{"inputs":[],"name":"UPGRADE_INTERFACE_VERSION","outputs":[{"internalType":"string","name":"","type":"string"}],"stateMutability":"view","type":"function"},{"inputs":[{"internalType":"string","name":"_seedId","type":"string"}],"name":"delistSeed","outputs":[],"stateMutability":"nonpayable","type":"function"},{"inputs":[],"name":"getAllSeeds","outputs":[{"components":[{"internalType":"string","name":"id","type":"string"},{"internalType":"address","name":"seller","type":"address"},{"internalType":"string","name":"metadataURI","type":"string"},{"internalType":"string","name":"strain","type":"string"},{"internalType":"uint256","name":"price","type":"uint256"},{"internalType":"string","name":"contactInfo","type":"string"},{"internalType":"uint256","name":"packSize","type":"uint256"},{"internalType":"uint256","name":"packQuantity","type":"uint256"},{"internalType":"uint256","name":"discount","type":"uint256"},{"internalType":"bool","name":"isActive","type":"bool"}],"internalType":"struct GreenFiSeed.Seed[]","name":"","type":"tuple[]"}],"stateMutability":"view","type":"function"},{"inputs":[{"internalType":"address","name":"_seller","type":"address"}],"name":"getSellerSeeds","outputs":[{"components":[{"internalType":"string","name":"id","type":"string"},{"internalType":"address","name":"seller","type":"address"},{"internalType":"string","name":"metadataURI","type":"string"},{"internalType":"string","name":"strain","type":"string"},{"internalType":"uint256","name":"price","type":"uint256"},{"internalType":"string","name":"contactInfo","type":"string"},{"internalType":"uint256","name":"packSize","type":"uint256"},{"internalType":"uint256","name":"packQuantity","type":"uint256"},{"internalType":"uint256","name":"discount","type":"uint256"},{"internalType":"bool","name":"isActive","type":"bool"}],"internalType":"struct GreenFiSeed.Seed[]","name":"","type":"tuple[]"}],"stateMutability":"view","type":"function"},{"inputs":[],"name":"getValidPackSizes","outputs":[{"internalType":"uint256[]","name":"","type":"uint256[]"}],"stateMutability":"view","type":"function"},{"inputs":[{"internalType":"address","name":"_weedlToken","type":"address"}],"name":"initialize","outputs":[],"stateMutability":"nonpayable","type":"function"},{"inputs":[{"internalType":"string","name":"_seedId","type":"string"}],"name":"isSeedIdAvailable","outputs":[{"internalType":"bool","name":"","type":"bool"}],"stateMutability":"view","type":"function"},{"inputs":[{"internalType":"string","name":"_seedId","type":"string"},{"internalType":"string","name":"_metadataURI","type":"string"},{"internalType":"uint256","name":"_price","type":"uint256"},{"internalType":"string","name":"_contactInfo","type":"string"},{"internalType":"string","name":"_strain","type":"string"},{"internalType":"uint256","name":"_packSize","type":"uint256"},{"internalType":"uint256","name":"_packQuantity","type":"uint256"},{"internalType":"uint256","name":"_discount","type":"uint256"}],"name":"listSeed","outputs":[],"stateMutability":"nonpayable","type":"function"},{"inputs":[],"name":"owner","outputs":[{"internalType":"address","name":"","type":"address"}],"stateMutability":"view","type":"function"},{"inputs":[],"name":"pause","outputs":[],"stateMutability":"nonpayable","type":"function"},{"inputs":[],"name":"paused","outputs":[{"internalType":"bool","name":"","type":"bool"}],"stateMutability":"view","type":"function"},{"inputs":[],"name":"proxiableUUID","outputs":[{"internalType":"bytes32","name":"","type":"bytes32"}],"stateMutability":"view","type":"function"},{"inputs":[{"internalType":"string","name":"_seedId","type":"string"},{"internalType":"uint256","name":"_packQuantity","type":"uint256"}],"name":"purchaseSeed","outputs":[],"stateMutability":"nonpayable","type":"function"},{"inputs":[],"name":"renounceOwnership","outputs":[],"stateMutability":"nonpayable","type":"function"},{"inputs":[{"internalType":"uint256","name":"","type":"uint256"}],"name":"seedIds","outputs":[{"internalType":"string","name":"","type":"string"}],"stateMutability":"view","type":"function"},{"inputs":[{"internalType":"string","name":"","type":"string"}],"name":"seeds","outputs":[{"internalType":"string","name":"id","type":"string"},{"internalType":"address","name":"seller","type":"address"},{"internalType":"string","name":"metadataURI","type":"string"},{"internalType":"string","name":"strain","type":"string"},{"internalType":"uint256","name":"price","type":"uint256"},{"internalType":"string","name":"contactInfo","type":"string"},{"internalType":"uint256","name":"packSize","type":"uint256"},{"internalType":"uint256","name":"packQuantity","type":"uint256"},{"internalType":"uint256","name":"discount","type":"uint256"},{"internalType":"bool","name":"isActive","type":"bool"}],"stateMutability":"view","type":"function"},{"inputs":[{"internalType":"address","name":"","type":"address"},{"internalType":"uint256","name":"","type":"uint256"}],"name":"sellerSeeds","outputs":[{"internalType":"string","name":"","type":"string"}],"stateMutability":"view","type":"function"},{"inputs":[{"internalType":"address","name":"newOwner","type":"address"}],"name":"transferOwnership","outputs":[],"stateMutability":"nonpayable","type":"function"},{"inputs":[],"name":"unpause","outputs":[],"stateMutability":"nonpayable","type":"function"},{"inputs":[{"internalType":"address","name":"newImplementation","type":"address"},{"internalType":"bytes","name":"data","type":"bytes"}],"name":"upgradeToAndCall","outputs":[],"stateMutability":"payable","type":"function"},{"inputs":[{"internalType":"uint256","name":"","type":"uint256"}],"name":"validPackSizes","outputs":[{"internalType":"uint256","name":"","type":"uint256"}],"stateMutability":"view","type":"function"},{"inputs":[],"name":"weedlToken","outputs":[{"internalType":"contract IERC20","name":"","type":"address"}],"stateMutability":"view","type":"function"},{"inputs":[],"name":"withdrawFees","outputs":[],"stateMutability":"nonpayable","type":"function"}],"evm":{"bytecode":{"linkReferences":{},"object":"60a080604052346100cc57306080527ff0c57e16840df040f15088dc2f81fe391c3923bec73e23a9662efc9c229c6a009081549060ff8260401c166100bd57506001600160401b036002600160401b031982821601610078575b6040516126db90816100d282396080518181816110db01526111940152f35b6001600160401b031990911681179091556040519081527fc7f505b2f371ae2175ee4913f4499e1f2633a7b5936321eed1cdaeb6115181d290602090a1388080610059565b63f92ee8a960e01b8152600490fd5b600080fdfe6080604052600436101561001257600080fd5b60003560e01c80630d6f7e9c14611b22578063391f0bb4146117cd5780633b9c8cfe146117a45780633f4ba83a1461172d5780634728959714611627578063476343ee146114f25780634aa93dd2146113735780634f1ef2861461114557806352d1902d146110c85780635c975abb14611098578063635d5c101461106b578063715018a614611001578063833bb12914610f995780638456cb5914610f325780638da5cb5b14610efc578063a25b056114610d8a578063a525ad3c14610d6e578063a9b9636314610653578063ad3cb1cc146105fb578063ad9f20a6146105da578063c0116a69146105a3578063c0217e3a14610506578063c4d66de814610266578063e34955691461024a578063e41ee46a1461022d578063e42a924714610212578063e5b6addd146101a7578063f2bc9a0e1461018b5763f2fde38b1461015b57600080fd5b3461018657602036600319011261018657610184610177611e16565b61017f6124ad565b612386565b005b600080fd5b3461018657600036600319011261018657602060405160648152f35b34610186576040366003190112610186576101c0611e16565b6001600160a01b03166000908152600460205260409020805460243590811015610186576101f46101fa9161020e93611f96565b90611fae565b604051918291602083526020830190611df1565b0390f35b34610186576000366003190112610186576020604051818152f35b346101865760003660031901126101865760206040516103e88152f35b3461018657600036600319011261018657602060405160328152f35b346101865760208060031936011261018657610280611e16565b907ff0c57e16840df040f15088dc2f81fe391c3923bec73e23a9662efc9c229c6a009081549260ff808560401c1615926001600160401b0392838716968715806104ff575b600180991490816104f5575b1590816104ec575b506104da5767ffffffffffffffff19811688178755856104bb575b506102fd612581565b610305612581565b61030e33612386565b610316612581565b61031e612581565b610326612581565b866000805160206126868339815191525561033f612581565b6001600160a01b0316801561047e576bffffffffffffffffffffffff60a01b600054161760005560405192606084019084821090821117610468576040526003926003815260056020820152600a60408201528654600388558060031061041b575b5091866000528660005b8581106103f9575086866103bb57005b805468ff0000000000000000191690556040519081527fc7f505b2f371ae2175ee4913f4499e1f2633a7b5936321eed1cdaeb6115181d290602090a1005b83838651169501948160008051602061264683398151915201550187906103ab565b60008051602061264683398151915201877fb10e2d527612073b26eecdfd717e6a320cf44b4afac2b0732d9fcbe2b7fa0cf95b82811061045c5750506103a1565b6000815501889061044e565b634e487b7160e01b600052604160045260246000fd5b60405162461bcd60e51b8152602060048201526015602482015274496e76616c696420746f6b656e206164647265737360581b6044820152606490fd5b68ffffffffffffffffff191668010000000000000001178655876102f4565b60405163f92ee8a960e01b8152600490fd5b905015896102d9565b303b1591506102d1565b50856102c5565b34610186576000366003190112610186576040518060018054928381526020809101809460016000526000805160206126468339815191529060005b8181106105905750505083610558910384611c5e565b60405192818401908285525180915260408401949160005b82811061057d5785870386f35b8351875295810195928101928401610570565b8254845292840192918501918501610542565b3461018657602036600319011261018657600435600154811015610186576105cc602091611f71565b90546040519160031b1c8152f35b34610186576000366003190112610186576020604051655af3107a40008152f35b346101865760003660031901126101865760405160408101908082106001600160401b038311176104685761020e9160405260058152640352e302e360dc1b6020820152604051918291602083526020830190611df1565b3461018657610100366003190112610186576001600160401b0360043581811161018657610685903690600401611cd1565b6024358281116101865761069d903690600401611cd1565b90606435838111610186576106b6903690600401611cd1565b92608435908111610186576106cf903690600401611cd1565b906106d86123fa565b6106e061242a565b80518015159081610d62575b5015610d24576040516001825191610708838260208701611cef565b600283820152602081838060a01b0394810103019020015416610ce657655af3107a400060443510610cab5760c435151580610c9d575b61074890611ffa565b61075360a4356124e6565b15610c6457603260e43511610c1f576064845111610be257815115610bac57825115610b7057602a60443502936044358504602a14604435151715610b5a57612710850415610b1d57600054604051636eb1769f60e11b81523360048201523060248201526001600160a01b0390911690602081604481855afa8015610add57600090610ae9575b6107ec91506127108804111561205e565b6040516370a0823160e01b815233600482015290602082602481845afa918215610add57600092610aa7575b5061082c61083b92612710890411156120a3565b61271087049030903390612455565b60405161084781611c42565b82815233602082015284604082015283606082015260443560808201528160a082015260a43560c082015260c43560e082015260e4356101008201526001610120820152610120600960405160208187516108a58183858c01611cef565b810160028152030190206108ba845182612274565b6001810160018060a01b036020860151166bffffffffffffffffffffffff60a01b8254161790556108f2604085015160028301612274565b610903606085015160038301612274565b6080840151600482015561091e60a085015160058301612274565b60c0840151600682015560e08401516007820155610100840151600882015501910151151560ff80198354169116179055600354600160401b8110156104685780600161096e9201600355611f24565b610a91578261097c91612274565b33600052600460205260406000208054600160401b811015610468576109a791600182018155611f96565b919091610a9157610a0e6109e8846109e37fc78e9bba005a83d04b607f813d0c5bfec47851cb43fbd51a19acdf615c285d5f96610a2496612274565b6120ef565b94610a00604051976101008952610100890190611df1565b908782036020890152611df1565b9060443560408701528582036060870152611df1565b9260a435608082015260c43560a082015260e43560c0820152612710850460e08201528033940390a3612710604051910481527f06c5efeff5c320943d265dc4e5f1af95ad523555ce0c1957e367dda5514572df60203392a2600160008051602061268683398151915255005b634e487b7160e01b600052600060045260246000fd5b91506020823d602011610ad5575b81610ac260209383611c5e565b810103126101865790519061082c610818565b3d9150610ab5565b6040513d6000823e3d90fd5b506020813d602011610b15575b81610b0360209383611c5e565b81010312610186576107ec90516107db565b3d9150610af6565b60405162461bcd60e51b81526020600482015260156024820152742332b29031b0b631bab630ba34b7b71032b93937b960591b6044820152606490fd5b634e487b7160e01b600052601160045260246000fd5b60405162461bcd60e51b8152602060048201526014602482015273496e76616c6964206d657461646174612055524960601b6044820152606490fd5b60405162461bcd60e51b815260206004820152600e60248201526d24b73b30b634b21039ba3930b4b760911b6044820152606490fd5b60405162461bcd60e51b8152602060048201526015602482015274436f6e7461637420696e666f20746f6f206c6f6e6760581b6044820152606490fd5b60405162461bcd60e51b815260206004820152601860248201527f446973636f756e742065786365656473206d6178696d756d00000000000000006044820152606490fd5b60405162461bcd60e51b8152602060048201526011602482015270496e76616c6964207061636b2073697a6560781b6044820152606490fd5b506103e860c435111561073f565b60405162461bcd60e51b815260206004820152601360248201527250726963652062656c6f77206d696e696d756d60681b6044820152606490fd5b60405162461bcd60e51b81526020600482015260166024820152755365656420494420616c726561647920696e2075736560501b6044820152606490fd5b60405162461bcd60e51b8152602060048201526016602482015275092dcecc2d8d2c840e6cacac840928840d8cadccee8d60531b6044820152606490fd5b602091501115856106ec565b34610186576000366003190112610186576020604051602a8152f35b3461018657600036600319011261018657600380546000805b828110610ec85750610db490612126565b916000805b838110610dce576040518061020e8782611e2c565b610de9610dda82611f24565b5060ff809160099384916121d1565b015416610dfb575b5050600101610db9565b92610ec0918394610e16610e10600196611f24565b506121d1565b9160405192610e2484611c42565b610e2d81611d4c565b8452868060a01b0387820154166020850152610e4b60028201611d4c565b6040850152610e5b898201611d4c565b606085015260048101546080850152610e7660058201611d4c565b60a0850152600681015460c0850152600781015460e085015260088101546101008501520154161515610120820152610eaf82896121bd565b52610eba81886121bd565b50612265565b919086610df1565b60ff6009610ed8610e1084611f24565b015416610ee8575b600101610da3565b90610ef4600191612265565b919050610ee0565b3461018657600036600319011261018657600080516020612626833981519152546040516001600160a01b039091168152602090f35b3461018657600036600319011261018657610f4b6124ad565b610f5361242a565b600080516020612666833981519152600160ff198254161790557f62e78cea01bee320cd4e420270b5ea74000d11b0c9f74754ebdbfc544b05a2586020604051338152a1005b34610186576020366003190112610186576004356001600160401b03811161018657610fcb6020913690600401611cd1565b600182610fe16040519384815193849201611cef565b820191600283528381838060a01b03940301902001541615604051908152f35b346101865760003660031901126101865761101a6124ad565b60008051602061262683398151915280546001600160a01b031981169091556000906001600160a01b03167f8be0079c531659141344cd1fd0a4f28419497f9722a3daafe3b4186f6b6457e08280a3005b3461018657602036600319011261018657600435600354811015610186576101fa6101f461020e92611f24565b3461018657600036600319011261018657602060ff60008051602061266683398151915254166040519015158152f35b34610186576000366003190112610186577f00000000000000000000000000000000000000000000000000000000000000006001600160a01b031630036111335760206040517f360894a13ba1a3210667c828492db98dca3e2076cc3735a920a3ca505d382bbc8152f35b60405163703e46dd60e11b8152600490fd5b604036600319011261018657611159611e16565b6024356001600160401b038111610186573660238201121561018657611189903690602481600401359101611c9a565b906001600160a01b037f00000000000000000000000000000000000000000000000000000000000000008116308114908115611345575b50611133576111cd6124ad565b6040516352d1902d60e01b8152908216916020918281600481875afa60009181611316575b5061121057604051634c9c8ce360e01b815260048101859052602490fd5b9284937f360894a13ba1a3210667c828492db98dca3e2076cc3735a920a3ca505d382bbc908181036112fe5750823b156112e55780546001600160a01b03191682179055604051907fbc7cd75a20ee27fd9adebab32041f755214dbc6bffa90cc0225b39da2e5c2d3b600080a28351156112cb5750600080848461018496519101845af4903d156112c2573d6112a581611c7f565b906112b36040519283611c5e565b8152600081943d92013e6125c2565b606092506125c2565b92505050346112d657005b63b398979f60e01b8152600490fd5b604051634c9c8ce360e01b815260048101839052602490fd5b60249060405190632a87526960e21b82526004820152fd5b9091508381813d831161133e575b61132e8183611c5e565b81010312610186575190866111f2565b503d611324565b9050817f360894a13ba1a3210667c828492db98dca3e2076cc3735a920a3ca505d382bbc54161415846111c0565b3461018657602080600319360112610186576001600160a01b0380611396611e16565b166000526004825260406000209081546113af8161210f565b926113bd6040519485611c5e565b8184526000908152848120858086015b8484106114d4575085856113e18251612126565b9260005b83518110156114c657806113fb600192866121bd565b5160ff6009856114146040519485815193849201611cef565b83019286816002958681520301902061144f6040519461143386611c42565b61143c83611d4c565b8652898884015416898701528201611d4c565b604085015261146060038201611d4c565b60608501526004810154608085015261147b60058201611d4c565b60a0850152600681015460c0850152600781015460e0850152600881015461010085015201541615156101208201526114b482886121bd565b526114bf81876121bd565b50016113e5565b6040518061020e8782611e2c565b60019182916114e285611d4c565b81520192019201919086906113cd565b346101865760003660031901126101865761150b6124ad565b6115136123fa565b6000546040516370a0823160e01b81523060048201526001600160a01b0391821691602091908282602481875afa918215610add576000926115f8575b5081156115bd5760008051602061262683398151915254166040519263a9059cbb60e01b90840152602483015260448201526044815260808101918183106001600160401b03841117610468576115a992604052612525565b600160008051602061268683398151915255005b60405162461bcd60e51b81526004810184905260136024820152724e6f206665657320746f20776974686472617760681b6044820152606490fd5b9091508281813d8311611620575b6116108183611c5e565b8101031261018657519084611550565b503d611606565b34610186576020366003190112610186576004356001600160401b03811161018657611657903690600401611cd1565b61165f6123fa565b61166761242a565b604051602081835161167c8183858801611cef565b60029082019081520301902060018101546001600160a01b031633036116f65760090180546116ad60ff8216611fbc565b60ff191690556116bd33916120ef565b7fce7d5a374b88b2a64f2970516112d4977854b27c776377a92890c6b8d29cb114600080a3600160008051602061268683398151915255005b60405162461bcd60e51b815260206004820152600f60248201526e2737ba1039b2b2b21039b2b63632b960891b6044820152606490fd5b34610186576000366003190112610186576117466124ad565b600080516020612666833981519152805460ff8116156117925760ff191690557f5db9ee0a495bf2e6ff9c91a7834c1ba4fdd244a5e8aa4e537bd38aeae4b073aa6020604051338152a1005b604051638dfc202b60e01b8152600490fd5b34610186576000366003190112610186576000546040516001600160a01b039091168152602090f35b34610186576040366003190112610186576004356001600160401b038111610186576117fd903690600401611cd1565b602490813561180a6123fa565b61181261242a565b604051908183516020938161182b869383858a01611cef565b8101600281520301902093600985019361184860ff865416611fbc565b611853831515611ffa565b6007860183815410611ade5760018701546001600160a01b0390811697909390338914611aa457856008600483015492015480611a7f575b506118959161204b565b93602a8502858104602a1486151715611a6a576127109004986118b88a8761203e565b600054604051636eb1769f60e11b8152336004820152306024820152919291908416908a81604481855afa8015610add578990600090611a39575b6118ff9250101561205e565b8960405180966370a0823160e01b825233600483015281845afa8015610add578c956000916119f2575b5061197c937f06c5efeff5c320943d265dc4e5f1af95ad523555ce0c1957e367dda5514572df9c9693611996999896936119688c61196f9510156120a3565b3390612455565b3090339060005416612455565b61198786825461203e565b809155156119e4575b506120ef565b90604051928352838301527ff076f51bafb67bdc44d9949e6d7c35b30314795854f3d90b680b3b3f4572728e60403393a36040519283523392a2600160008051602061268683398151915255005b805460ff1916905587611990565b809c96508b809250989795929394983d8311611a32575b611a138183611c5e565b810103126101865799519399949592948b94909392919061197c611929565b503d611a09565b50508a81813d8311611a63575b611a508183611c5e565b8101031261018657886118ff91516118f3565b503d611a46565b82634e487b7160e01b60005260116004526000fd5b90506064039060648211611a6a576064611a9d61189593899361204b565b049161188b565b60405162461bcd60e51b8152600481018890526013818401527210d85b9b9bdd08189d5e481bdddb881cd95959606a1b6044820152606490fd5b60405162461bcd60e51b815260048101869052601a818501527f496e73756666696369656e74207061636b207175616e746974790000000000006044820152606490fd5b34610186576020366003190112610186576004356001600160401b03811161018657611bf4611b6e6020611b5b81943690600401611cd1565b8160405193828580945193849201611cef565b81016002815203019020611b8181611d4c565b9060018060a01b0360018201541690611b9c60028201611d4c565b611c25611bab60038401611d4c565b600484015490611c12611bc060058701611d4c565b91611c0460068801549960078901549760ff600960088c01549b0154169a6040519e8f9e8f94610140808752860190611df1565b9301528c820360408e0152611df1565b908a820360608c0152611df1565b91608089015287820360a0890152611df1565b9360c086015260e085015261010084015215156101208301520390f35b61014081019081106001600160401b0382111761046857604052565b90601f801991011681019081106001600160401b0382111761046857604052565b6001600160401b03811161046857601f01601f191660200190565b929192611ca682611c7f565b91611cb46040519384611c5e565b829481845281830111610186578281602093846000960137010152565b9080601f8301121561018657816020611cec93359101611c9a565b90565b60005b838110611d025750506000910152565b8181015183820152602001611cf2565b90600182811c92168015611d42575b6020831014611d2c57565b634e487b7160e01b600052602260045260246000fd5b91607f1691611d21565b90604051918260008254611d5f81611d12565b90818452602094600191600181169081600014611dcf5750600114611d90575b505050611d8e92500383611c5e565b565b600090815285812095935091905b818310611db7575050611d8e9350820101388080611d7f565b85548884018501529485019487945091830191611d9e565b92505050611d8e94925060ff191682840152151560051b820101388080611d7f565b90602091611e0a81518092818552858086019101611cef565b601f01601f1916010190565b600435906001600160a01b038216820361018657565b6020808201908083528351809252604092604081018260408560051b8401019601946000925b858410611e63575050505050505090565b909192939495968580600192603f198582030187528a5190611ee7611eca611eb7611e98610140865190808752860190611df1565b888060a01b038787015116878601528a8601518582038c870152611df1565b6060808601519085830390860152611df1565b6080808501519084015260a0808501519084830390850152611df1565b9160c0808201519083015260e080820151908301526101008082015190830152610120809101511515910152990194019401929594939190611e52565b600354811015611f5b5760036000527fc2575a0e9e593c00f959f8c92f12db2869c3395a3b0502d05e2516446f71f85b0190600090565b634e487b7160e01b600052603260045260246000fd5b600154811015611f5b5760016000526000805160206126468339815191520190600090565b8054821015611f5b5760005260206000200190600090565b90610a9157611cec90611d4c565b15611fc357565b60405162461bcd60e51b815260206004820152600f60248201526e53656564206e6f742061637469766560881b6044820152606490fd5b1561200157565b60405162461bcd60e51b8152602060048201526015602482015274496e76616c6964207061636b207175616e7469747960581b6044820152606490fd5b91908203918211610b5a57565b81810292918115918404141715610b5a57565b1561206557565b60405162461bcd60e51b8152602060048201526016602482015275496e73756666696369656e7420616c6c6f77616e636560501b6044820152606490fd5b156120aa57565b60405162461bcd60e51b815260206004820152601a60248201527f496e73756666696369656e7420574545444c2062616c616e63650000000000006044820152606490fd5b61210790602060405192828480945193849201611cef565b810103902090565b6001600160401b0381116104685760051b60200190565b906121308261210f565b6040906121406040519182611c5e565b8381528093612151601f199161210f565b019160005b8381106121635750505050565b602090825161217181611c42565b60608082528390600082840152808684015280808401526000608084015260a0830152600060c0830152600060e083015260006101008301526000610120830152828601015201612156565b8051821015611f5b5760209160051b010190565b6040519081600082546121e381611d12565b93600191808316908115612249575060011461220b575b505060209250600281520301902090565b9091506000526020906020600020906000915b8583106122355750505050602091810138806121fa565b80548784015286945091830191810161221e565b92505050602093915060ff1916825280151502810138806121fa565b6000198114610b5a5760010190565b91909182516001600160401b038111610468576122918254611d12565b601f811161233c575b50602080601f83116001146122d75750819293946000926122cc575b50508160011b916000199060031b1c1916179055565b0151905038806122b6565b90601f19831695846000526020600020926000905b8882106123245750508360019596971061230b575b505050811b019055565b015160001960f88460031b161c19169055388080612301565b806001859682949686015181550195019301906122ec565b6000836000526020600020601f840160051c8101926020851061237c575b601f0160051c01915b82811061237157505061229a565b818155600101612363565b909250829061235a565b6001600160a01b039081169081156123e15760008051602061262683398151915280546001600160a01b031981168417909155167f8be0079c531659141344cd1fd0a4f28419497f9722a3daafe3b4186f6b6457e0600080a3565b604051631e4fbdf760e01b815260006004820152602490fd5b60008051602061268683398151915260028154146124185760029055565b604051633ee5aeb560e01b8152600490fd5b60ff600080516020612666833981519152541661244357565b60405163d93c066560e01b8152600490fd5b6040516323b872dd60e01b60208201526001600160a01b03928316602482015292909116604483015260648083019390935291815260a08101918183106001600160401b0384111761046857611d8e92604052612525565b600080516020612626833981519152546001600160a01b031633036124ce57565b60405163118cdaa760e01b8152336004820152602490fd5b6000600191600154915b8281106125005750505050600090565b8061250b8592611f71565b90549060031b1c831461251e57016124f0565b5050505090565b906000602091828151910182855af115610add576000513d61257857506001600160a01b0381163b155b6125565750565b604051635274afe760e01b81526001600160a01b039091166004820152602490fd5b6001141561254f565b60ff7ff0c57e16840df040f15088dc2f81fe391c3923bec73e23a9662efc9c229c6a005460401c16156125b057565b604051631afcd79f60e31b8152600490fd5b906125e957508051156125d757602081519101fd5b60405163d6bda27560e01b8152600490fd5b8151158061261c575b6125fa575090565b604051639996b31560e01b81526001600160a01b039091166004820152602490fd5b50803b156125f256fe9016d09d72d40fdae2fd8ceac6b6234c7706214fd39c1cd1e609a0528c199300b10e2d527612073b26eecdfd717e6a320cf44b4afac2b0732d9fcbe2b7fa0cf6cd5ed15c6e187e77e9aee88184c21f4f2182ab5827cb3b7e07fbedcd63f033009b779b17422d0df92223018b32b4d1fa46e071723d6817e2486d003becc55f00a2646970667358221220dd72382c9707790ecac4dbc42115854c3dfbe5f4d46d6397b0472a4721c026cf64736f6c63430008160033","opcodes":"PUSH1 0xA0 DUP1 PUSH1 0x40 MSTORE CALLVALUE PUSH2 0xCC JUMPI ADDRESS PUSH1 0x80 MSTORE PUSH32 0xF0C57E16840DF040F15088DC2F81FE391C3923BEC73E23A9662EFC9C229C6A00 SWAP1 DUP2 SLOAD SWAP1 PUSH1 0xFF DUP3 PUSH1 0x40 SHR AND PUSH2 0xBD JUMPI POP PUSH1 0x1 PUSH1 0x1 PUSH1 0x40 SHL SUB PUSH1 0x2 PUSH1 0x1 PUSH1 0x40 SHL SUB NOT DUP3 DUP3 AND ADD PUSH2 0x78 JUMPI JUMPDEST PUSH1 0x40 MLOAD PUSH2 0x26DB SWAP1 DUP2 PUSH2 0xD2 DUP3 CODECOPY PUSH1 0x80 MLOAD DUP2 DUP2 DUP2 PUSH2 0x10DB ADD MSTORE PUSH2 0x1194 ADD MSTORE RETURN JUMPDEST PUSH1 0x1 PUSH1 0x1 PUSH1 0x40 SHL SUB NOT SWAP1 SWAP2 AND DUP2 OR SWAP1 SWAP2 SSTORE PUSH1 0x40 MLOAD SWAP1 DUP2 MSTORE PUSH32 0xC7F505B2F371AE2175EE4913F4499E1F2633A7B5936321EED1CDAEB6115181D2 SWAP1 PUSH1 0x20 SWAP1 LOG1 CODESIZE DUP1 DUP1 PUSH2 0x59 JUMP JUMPDEST PUSH4 0xF92EE8A9 PUSH1 0xE0 SHL DUP2 MSTORE PUSH1 0x4 SWAP1 REVERT JUMPDEST PUSH1 0x0 DUP1 REVERT INVALID PUSH1 0x80 PUSH1 0x40 MSTORE PUSH1 0x4 CALLDATASIZE LT ISZERO PUSH2 0x12 JUMPI PUSH1 0x0 DUP1 REVERT JUMPDEST PUSH1 0x0 CALLDATALOAD PUSH1 0xE0 SHR DUP1 PUSH4 0xD6F7E9C EQ PUSH2 0x1B22 JUMPI DUP1 PUSH4 0x391F0BB4 EQ PUSH2 0x17CD JUMPI DUP1 PUSH4 0x3B9C8CFE EQ PUSH2 0x17A4 JUMPI DUP1 PUSH4 0x3F4BA83A EQ PUSH2 0x172D JUMPI DUP1 PUSH4 0x47289597 EQ PUSH2 0x1627 JUMPI DUP1 PUSH4 0x476343EE EQ PUSH2 0x14F2 JUMPI DUP1 PUSH4 0x4AA93DD2 EQ PUSH2 0x1373 JUMPI DUP1 PUSH4 0x4F1EF286 EQ PUSH2 0x1145 JUMPI DUP1 PUSH4 0x52D1902D EQ PUSH2 0x10C8 JUMPI DUP1 PUSH4 0x5C975ABB EQ PUSH2 0x1098 JUMPI DUP1 PUSH4 0x635D5C10 EQ PUSH2 0x106B JUMPI DUP1 PUSH4 0x715018A6 EQ PUSH2 0x1001 JUMPI DUP1 PUSH4 0x833BB129 EQ PUSH2 0xF99 JUMPI DUP1 PUSH4 0x8456CB59 EQ PUSH2 0xF32 JUMPI DUP1 PUSH4 0x8DA5CB5B EQ PUSH2 0xEFC JUMPI DUP1 PUSH4 0xA25B0561 EQ PUSH2 0xD8A JUMPI DUP1 PUSH4 0xA525AD3C EQ PUSH2 0xD6E JUMPI DUP1 PUSH4 0xA9B96363 EQ PUSH2 0x653 JUMPI DUP1 PUSH4 0xAD3CB1CC EQ PUSH2 0x5FB JUMPI DUP1 PUSH4 0xAD9F20A6 EQ PUSH2 0x5DA JUMPI DUP1 PUSH4 0xC0116A69 EQ PUSH2 0x5A3 JUMPI DUP1 PUSH4 0xC0217E3A EQ PUSH2 0x506 JUMPI DUP1 PUSH4 0xC4D66DE8 EQ PUSH2 0x266 JUMPI DUP1 PUSH4 0xE3495569 EQ PUSH2 0x24A JUMPI DUP1 PUSH4 0xE41EE46A EQ PUSH2 0x22D JUMPI DUP1 PUSH4 0xE42A9247 EQ PUSH2 0x212 JUMPI DUP1 PUSH4 0xE5B6ADDD EQ PUSH2 0x1A7 JUMPI DUP1 PUSH4 0xF2BC9A0E EQ PUSH2 0x18B JUMPI PUSH4 0xF2FDE38B EQ PUSH2 0x15B JUMPI PUSH1 0x0 DUP1 REVERT JUMPDEST CALLVALUE PUSH2 0x186 JUMPI PUSH1 0x20 CALLDATASIZE PUSH1 0x3 NOT ADD SLT PUSH2 0x186 JUMPI PUSH2 0x184 PUSH2 0x177 PUSH2 0x1E16 JUMP JUMPDEST PUSH2 0x17F PUSH2 0x24AD JUMP JUMPDEST PUSH2 0x2386 JUMP JUMPDEST STOP JUMPDEST PUSH1 0x0 DUP1 REVERT JUMPDEST CALLVALUE PUSH2 0x186 JUMPI PUSH1 0x0 CALLDATASIZE PUSH1 0x3 NOT ADD SLT PUSH2 0x186 JUMPI PUSH1 0x20 PUSH1 0x40 MLOAD PUSH1 0x64 DUP2 MSTORE RETURN JUMPDEST CALLVALUE PUSH2 0x186 JUMPI PUSH1 0x40 CALLDATASIZE PUSH1 0x3 NOT ADD SLT PUSH2 0x186 JUMPI PUSH2 0x1C0 PUSH2 0x1E16 JUMP JUMPDEST PUSH1 0x1 PUSH1 0x1 PUSH1 0xA0 SHL SUB AND PUSH1 0x0 SWAP1 DUP2 MSTORE PUSH1 0x4 PUSH1 0x20 MSTORE PUSH1 0x40 SWAP1 KECCAK256 DUP1 SLOAD PUSH1 0x24 CALLDATALOAD SWAP1 DUP2 LT ISZERO PUSH2 0x186 JUMPI PUSH2 0x1F4 PUSH2 0x1FA SWAP2 PUSH2 0x20E SWAP4 PUSH2 0x1F96 JUMP JUMPDEST SWAP1 PUSH2 0x1FAE JUMP JUMPDEST PUSH1 0x40 MLOAD SWAP2 DUP3 SWAP2 PUSH1 0x20 DUP4 MSTORE PUSH1 0x20 DUP4 ADD SWAP1 PUSH2 0x1DF1 JUMP JUMPDEST SUB SWAP1 RETURN JUMPDEST CALLVALUE PUSH2 0x186 JUMPI PUSH1 0x0 CALLDATASIZE PUSH1 0x3 NOT ADD SLT PUSH2 0x186 JUMPI PUSH1 0x20 PUSH1 0x40 MLOAD DUP2 DUP2 MSTORE RETURN JUMPDEST CALLVALUE PUSH2 0x186 JUMPI PUSH1 0x0 CALLDATASIZE PUSH1 0x3 NOT ADD SLT PUSH2 0x186 JUMPI PUSH1 0x20 PUSH1 0x40 MLOAD PUSH2 0x3E8 DUP2 MSTORE RETURN JUMPDEST CALLVALUE PUSH2 0x186 JUMPI PUSH1 0x0 CALLDATASIZE PUSH1 0x3 NOT ADD SLT PUSH2 0x186 JUMPI PUSH1 0x20 PUSH1 0x40 MLOAD PUSH1 0x32 DUP2 MSTORE RETURN JUMPDEST CALLVALUE PUSH2 0x186 JUMPI PUSH1 0x20 DUP1 PUSH1 0x3 NOT CALLDATASIZE ADD SLT PUSH2 0x186 JUMPI PUSH2 0x280 PUSH2 0x1E16 JUMP JUMPDEST SWAP1 PUSH32 0xF0C57E16840DF040F15088DC2F81FE391C3923BEC73E23A9662EFC9C229C6A00 SWAP1 DUP2 SLOAD SWAP3 PUSH1 0xFF DUP1 DUP6 PUSH1 0x40 SHR AND ISZERO SWAP3 PUSH1 0x1 PUSH1 0x1 PUSH1 0x40 SHL SUB SWAP3 DUP4 DUP8 AND SWAP7 DUP8 ISZERO DUP1 PUSH2 0x4FF JUMPI JUMPDEST PUSH1 0x1 DUP1 SWAP10 EQ SWAP1 DUP2 PUSH2 0x4F5 JUMPI JUMPDEST ISZERO SWAP1 DUP2 PUSH2 0x4EC JUMPI JUMPDEST POP PUSH2 0x4DA JUMPI PUSH8 0xFFFFFFFFFFFFFFFF NOT DUP2 AND DUP9 OR DUP8 SSTORE DUP6 PUSH2 0x4BB JUMPI JUMPDEST POP PUSH2 0x2FD PUSH2 0x2581 JUMP JUMPDEST PUSH2 0x305 PUSH2 0x2581 JUMP JUMPDEST PUSH2 0x30E CALLER PUSH2 0x2386 JUMP JUMPDEST PUSH2 0x316 PUSH2 0x2581 JUMP JUMPDEST PUSH2 0x31E PUSH2 0x2581 JUMP JUMPDEST PUSH2 0x326 PUSH2 0x2581 JUMP JUMPDEST DUP7 PUSH1 0x0 DUP1 MLOAD PUSH1 0x20 PUSH2 0x2686 DUP4 CODECOPY DUP2 MLOAD SWAP2 MSTORE SSTORE PUSH2 0x33F PUSH2 0x2581 JUMP JUMPDEST PUSH1 0x1 PUSH1 0x1 PUSH1 0xA0 SHL SUB AND DUP1 ISZERO PUSH2 0x47E JUMPI PUSH12 0xFFFFFFFFFFFFFFFFFFFFFFFF PUSH1 0xA0 SHL PUSH1 0x0 SLOAD AND OR PUSH1 0x0 SSTORE PUSH1 0x40 MLOAD SWAP3 PUSH1 0x60 DUP5 ADD SWAP1 DUP5 DUP3 LT SWAP1 DUP3 GT OR PUSH2 0x468 JUMPI PUSH1 0x40 MSTORE PUSH1 0x3 SWAP3 PUSH1 0x3 DUP2 MSTORE PUSH1 0x5 PUSH1 0x20 DUP3 ADD MSTORE PUSH1 0xA PUSH1 0x40 DUP3 ADD MSTORE DUP7 SLOAD PUSH1 0x3 DUP9 SSTORE DUP1 PUSH1 0x3 LT PUSH2 0x41B JUMPI JUMPDEST POP SWAP2 DUP7 PUSH1 0x0 MSTORE DUP7 PUSH1 0x0 JUMPDEST DUP6 DUP2 LT PUSH2 0x3F9 JUMPI POP DUP7 DUP7 PUSH2 0x3BB JUMPI STOP JUMPDEST DUP1 SLOAD PUSH9 0xFF0000000000000000 NOT AND SWAP1 SSTORE PUSH1 0x40 MLOAD SWAP1 DUP2 MSTORE PUSH32 0xC7F505B2F371AE2175EE4913F4499E1F2633A7B5936321EED1CDAEB6115181D2 SWAP1 PUSH1 0x20 SWAP1 LOG1 STOP JUMPDEST DUP4 DUP4 DUP7 MLOAD AND SWAP6 ADD SWAP5 DUP2 PUSH1 0x0 DUP1 MLOAD PUSH1 0x20 PUSH2 0x2646 DUP4 CODECOPY DUP2 MLOAD SWAP2 MSTORE ADD SSTORE ADD DUP8 SWAP1 PUSH2 0x3AB JUMP JUMPDEST PUSH1 0x0 DUP1 MLOAD PUSH1 0x20 PUSH2 0x2646 DUP4 CODECOPY DUP2 MLOAD SWAP2 MSTORE ADD DUP8 PUSH32 0xB10E2D527612073B26EECDFD717E6A320CF44B4AFAC2B0732D9FCBE2B7FA0CF9 JUMPDEST DUP3 DUP2 LT PUSH2 0x45C JUMPI POP POP PUSH2 0x3A1 JUMP JUMPDEST PUSH1 0x0 DUP2 SSTORE ADD DUP9 SWAP1 PUSH2 0x44E JUMP JUMPDEST PUSH4 0x4E487B71 PUSH1 0xE0 SHL PUSH1 0x0 MSTORE PUSH1 0x41 PUSH1 0x4 MSTORE PUSH1 0x24 PUSH1 0x0 REVERT JUMPDEST PUSH1 0x40 MLOAD PUSH3 0x461BCD PUSH1 0xE5 SHL DUP2 MSTORE PUSH1 0x20 PUSH1 0x4 DUP3 ADD MSTORE PUSH1 0x15 PUSH1 0x24 DUP3 ADD MSTORE PUSH21 0x496E76616C696420746F6B656E2061646472657373 PUSH1 0x58 SHL PUSH1 0x44 DUP3 ADD MSTORE PUSH1 0x64 SWAP1 REVERT JUMPDEST PUSH9 0xFFFFFFFFFFFFFFFFFF NOT AND PUSH9 0x10000000000000001 OR DUP7 SSTORE DUP8 PUSH2 0x2F4 JUMP JUMPDEST PUSH1 0x40 MLOAD PUSH4 0xF92EE8A9 PUSH1 0xE0 SHL DUP2 MSTORE PUSH1 0x4 SWAP1 REVERT JUMPDEST SWAP1 POP ISZERO DUP10 PUSH2 0x2D9 JUMP JUMPDEST ADDRESS EXTCODESIZE ISZERO SWAP2 POP PUSH2 0x2D1 JUMP JUMPDEST POP DUP6 PUSH2 0x2C5 JUMP JUMPDEST CALLVALUE PUSH2 0x186 JUMPI PUSH1 0x0 CALLDATASIZE PUSH1 0x3 NOT ADD SLT PUSH2 0x186 JUMPI PUSH1 0x40 MLOAD DUP1 PUSH1 0x1 DUP1 SLOAD SWAP3 DUP4 DUP2 MSTORE PUSH1 0x20 DUP1 SWAP2 ADD DUP1 SWAP5 PUSH1 0x1 PUSH1 0x0 MSTORE PUSH1 0x0 DUP1 MLOAD PUSH1 0x20 PUSH2 0x2646 DUP4 CODECOPY DUP2 MLOAD SWAP2 MSTORE SWAP1 PUSH1 0x0 JUMPDEST DUP2 DUP2 LT PUSH2 0x590 JUMPI POP POP POP DUP4 PUSH2 0x558 SWAP2 SUB DUP5 PUSH2 0x1C5E JUMP JUMPDEST PUSH1 0x40 MLOAD SWAP3 DUP2 DUP5 ADD SWAP1 DUP3 DUP6 MSTORE MLOAD DUP1 SWAP2 MSTORE PUSH1 0x40 DUP5 ADD SWAP5 SWAP2 PUSH1 0x0 JUMPDEST DUP3 DUP2 LT PUSH2 0x57D JUMPI DUP6 DUP8 SUB DUP7 RETURN JUMPDEST DUP4 MLOAD DUP8 MSTORE SWAP6 DUP2 ADD SWAP6 SWAP3 DUP2 ADD SWAP3 DUP5 ADD PUSH2 0x570 JUMP JUMPDEST DUP3 SLOAD DUP5 MSTORE SWAP3 DUP5 ADD SWAP3 SWAP2 DUP6 ADD SWAP2 DUP6 ADD PUSH2 0x542 JUMP JUMPDEST CALLVALUE PUSH2 0x186 JUMPI PUSH1 0x20 CALLDATASIZE PUSH1 0x3 NOT ADD SLT PUSH2 0x186 JUMPI PUSH1 0x4 CALLDATALOAD PUSH1 0x1 SLOAD DUP2 LT ISZERO PUSH2 0x186 JUMPI PUSH2 0x5CC PUSH1 0x20 SWAP2 PUSH2 0x1F71 JUMP JUMPDEST SWAP1 SLOAD PUSH1 0x40 MLOAD SWAP2 PUSH1 0x3 SHL SHR DUP2 MSTORE RETURN JUMPDEST CALLVALUE PUSH2 0x186 JUMPI PUSH1 0x0 CALLDATASIZE PUSH1 0x3 NOT ADD SLT PUSH2 0x186 JUMPI PUSH1 0x20 PUSH1 0x40 MLOAD PUSH6 0x5AF3107A4000 DUP2 MSTORE RETURN JUMPDEST CALLVALUE PUSH2 0x186 JUMPI PUSH1 0x0 CALLDATASIZE PUSH1 0x3 NOT ADD SLT PUSH2 0x186 JUMPI PUSH1 0x40 MLOAD PUSH1 0x40 DUP2 ADD SWAP1 DUP1 DUP3 LT PUSH1 0x1 PUSH1 0x1 PUSH1 0x40 SHL SUB DUP4 GT OR PUSH2 0x468 JUMPI PUSH2 0x20E SWAP2 PUSH1 0x40 MSTORE PUSH1 0x5 DUP2 MSTORE PUSH5 0x352E302E3 PUSH1 0xDC SHL PUSH1 0x20 DUP3 ADD MSTORE PUSH1 0x40 MLOAD SWAP2 DUP3 SWAP2 PUSH1 0x20 DUP4 MSTORE PUSH1 0x20 DUP4 ADD SWAP1 PUSH2 0x1DF1 JUMP JUMPDEST CALLVALUE PUSH2 0x186 JUMPI PUSH2 0x100 CALLDATASIZE PUSH1 0x3 NOT ADD SLT PUSH2 0x186 JUMPI PUSH1 0x1 PUSH1 0x1 PUSH1 0x40 SHL SUB PUSH1 0x4 CALLDATALOAD DUP2 DUP2 GT PUSH2 0x186 JUMPI PUSH2 0x685 SWAP1 CALLDATASIZE SWAP1 PUSH1 0x4 ADD PUSH2 0x1CD1 JUMP JUMPDEST PUSH1 0x24 CALLDATALOAD DUP3 DUP2 GT PUSH2 0x186 JUMPI PUSH2 0x69D SWAP1 CALLDATASIZE SWAP1 PUSH1 0x4 ADD PUSH2 0x1CD1 JUMP JUMPDEST SWAP1 PUSH1 0x64 CALLDATALOAD DUP4 DUP2 GT PUSH2 0x186 JUMPI PUSH2 0x6B6 SWAP1 CALLDATASIZE SWAP1 PUSH1 0x4 ADD PUSH2 0x1CD1 JUMP JUMPDEST SWAP3 PUSH1 0x84 CALLDATALOAD SWAP1 DUP2 GT PUSH2 0x186 JUMPI PUSH2 0x6CF SWAP1 CALLDATASIZE SWAP1 PUSH1 0x4 ADD PUSH2 0x1CD1 JUMP JUMPDEST SWAP1 PUSH2 0x6D8 PUSH2 0x23FA JUMP JUMPDEST PUSH2 0x6E0 PUSH2 0x242A JUMP JUMPDEST DUP1 MLOAD DUP1 ISZERO ISZERO SWAP1 DUP2 PUSH2 0xD62 JUMPI JUMPDEST POP ISZERO PUSH2 0xD24 JUMPI PUSH1 0x40 MLOAD PUSH1 0x1 DUP3 MLOAD SWAP2 PUSH2 0x708 DUP4 DUP3 PUSH1 0x20 DUP8 ADD PUSH2 0x1CEF JUMP JUMPDEST PUSH1 0x2 DUP4 DUP3 ADD MSTORE PUSH1 0x20 DUP2 DUP4 DUP1 PUSH1 0xA0 SHL SUB SWAP5 DUP2 ADD SUB ADD SWAP1 KECCAK256 ADD SLOAD AND PUSH2 0xCE6 JUMPI PUSH6 0x5AF3107A4000 PUSH1 0x44 CALLDATALOAD LT PUSH2 0xCAB JUMPI PUSH1 0xC4 CALLDATALOAD ISZERO ISZERO DUP1 PUSH2 0xC9D JUMPI JUMPDEST PUSH2 0x748 SWAP1 PUSH2 0x1FFA JUMP JUMPDEST PUSH2 0x753 PUSH1 0xA4 CALLDATALOAD PUSH2 0x24E6 JUMP JUMPDEST ISZERO PUSH2 0xC64 JUMPI PUSH1 0x32 PUSH1 0xE4 CALLDATALOAD GT PUSH2 0xC1F JUMPI PUSH1 0x64 DUP5 MLOAD GT PUSH2 0xBE2 JUMPI DUP2 MLOAD ISZERO PUSH2 0xBAC JUMPI DUP3 MLOAD ISZERO PUSH2 0xB70 JUMPI PUSH1 0x2A PUSH1 0x44 CALLDATALOAD MUL SWAP4 PUSH1 0x44 CALLDATALOAD DUP6 DIV PUSH1 0x2A EQ PUSH1 0x44 CALLDATALOAD ISZERO OR ISZERO PUSH2 0xB5A JUMPI PUSH2 0x2710 DUP6 DIV ISZERO PUSH2 0xB1D JUMPI PUSH1 0x0 SLOAD PUSH1 0x40 MLOAD PUSH4 0x6EB1769F PUSH1 0xE1 SHL DUP2 MSTORE CALLER PUSH1 0x4 DUP3 ADD MSTORE ADDRESS PUSH1 0x24 DUP3 ADD MSTORE PUSH1 0x1 PUSH1 0x1 PUSH1 0xA0 SHL SUB SWAP1 SWAP2 AND SWAP1 PUSH1 0x20 DUP2 PUSH1 0x44 DUP2 DUP6 GAS STATICCALL DUP1 ISZERO PUSH2 0xADD JUMPI PUSH1 0x0 SWAP1 PUSH2 0xAE9 JUMPI JUMPDEST PUSH2 0x7EC SWAP2 POP PUSH2 0x2710 DUP9 DIV GT ISZERO PUSH2 0x205E JUMP JUMPDEST PUSH1 0x40 MLOAD PUSH4 0x70A08231 PUSH1 0xE0 SHL DUP2 MSTORE CALLER PUSH1 0x4 DUP3 ADD MSTORE SWAP1 PUSH1 0x20 DUP3 PUSH1 0x24 DUP2 DUP5 GAS STATICCALL SWAP2 DUP3 ISZERO PUSH2 0xADD JUMPI PUSH1 0x0 SWAP3 PUSH2 0xAA7 JUMPI JUMPDEST POP PUSH2 0x82C PUSH2 0x83B SWAP3 PUSH2 0x2710 DUP10 DIV GT ISZERO PUSH2 0x20A3 JUMP JUMPDEST PUSH2 0x2710 DUP8 DIV SWAP1 ADDRESS SWAP1 CALLER SWAP1 PUSH2 0x2455 JUMP JUMPDEST PUSH1 0x40 MLOAD PUSH2 0x847 DUP2 PUSH2 0x1C42 JUMP JUMPDEST DUP3 DUP2 MSTORE CALLER PUSH1 0x20 DUP3 ADD MSTORE DUP5 PUSH1 0x40 DUP3 ADD MSTORE DUP4 PUSH1 0x60 DUP3 ADD MSTORE PUSH1 0x44 CALLDATALOAD PUSH1 0x80 DUP3 ADD MSTORE DUP2 PUSH1 0xA0 DUP3 ADD MSTORE PUSH1 0xA4 CALLDATALOAD PUSH1 0xC0 DUP3 ADD MSTORE PUSH1 0xC4 CALLDATALOAD PUSH1 0xE0 DUP3 ADD MSTORE PUSH1 0xE4 CALLDATALOAD PUSH2 0x100 DUP3 ADD MSTORE PUSH1 0x1 PUSH2 0x120 DUP3 ADD MSTORE PUSH2 0x120 PUSH1 0x9 PUSH1 0x40 MLOAD PUSH1 0x20 DUP2 DUP8 MLOAD PUSH2 0x8A5 DUP2 DUP4 DUP6 DUP13 ADD PUSH2 0x1CEF JUMP JUMPDEST DUP2 ADD PUSH1 0x2 DUP2 MSTORE SUB ADD SWAP1 KECCAK256 PUSH2 0x8BA DUP5 MLOAD DUP3 PUSH2 0x2274 JUMP JUMPDEST PUSH1 0x1 DUP2 ADD PUSH1 0x1 DUP1 PUSH1 0xA0 SHL SUB PUSH1 0x20 DUP7 ADD MLOAD AND PUSH12 0xFFFFFFFFFFFFFFFFFFFFFFFF PUSH1 0xA0 SHL DUP3 SLOAD AND OR SWAP1 SSTORE PUSH2 0x8F2 PUSH1 0x40 DUP6 ADD MLOAD PUSH1 0x2 DUP4 ADD PUSH2 0x2274 JUMP JUMPDEST PUSH2 0x903 PUSH1 0x60 DUP6 ADD MLOAD PUSH1 0x3 DUP4 ADD PUSH2 0x2274 JUMP JUMPDEST PUSH1 0x80 DUP5 ADD MLOAD PUSH1 0x4 DUP3 ADD SSTORE PUSH2 0x91E PUSH1 0xA0 DUP6 ADD MLOAD PUSH1 0x5 DUP4 ADD PUSH2 0x2274 JUMP JUMPDEST PUSH1 0xC0 DUP5 ADD MLOAD PUSH1 0x6 DUP3 ADD SSTORE PUSH1 0xE0 DUP5 ADD MLOAD PUSH1 0x7 DUP3 ADD SSTORE PUSH2 0x100 DUP5 ADD MLOAD PUSH1 0x8 DUP3 ADD SSTORE ADD SWAP2 ADD MLOAD ISZERO ISZERO PUSH1 0xFF DUP1 NOT DUP4 SLOAD AND SWAP2 AND OR SWAP1 SSTORE PUSH1 0x3 SLOAD PUSH1 0x1 PUSH1 0x40 SHL DUP2 LT ISZERO PUSH2 0x468 JUMPI DUP1 PUSH1 0x1 PUSH2 0x96E SWAP3 ADD PUSH1 0x3 SSTORE PUSH2 0x1F24 JUMP JUMPDEST PUSH2 0xA91 JUMPI DUP3 PUSH2 0x97C SWAP2 PUSH2 0x2274 JUMP JUMPDEST CALLER PUSH1 0x0 MSTORE PUSH1 0x4 PUSH1 0x20 MSTORE PUSH1 0x40 PUSH1 0x0 KECCAK256 DUP1 SLOAD PUSH1 0x1 PUSH1 0x40 SHL DUP2 LT ISZERO PUSH2 0x468 JUMPI PUSH2 0x9A7 SWAP2 PUSH1 0x1 DUP3 ADD DUP2 SSTORE PUSH2 0x1F96 JUMP JUMPDEST SWAP2 SWAP1 SWAP2 PUSH2 0xA91 JUMPI PUSH2 0xA0E PUSH2 0x9E8 DUP5 PUSH2 0x9E3 PUSH32 0xC78E9BBA005A83D04B607F813D0C5BFEC47851CB43FBD51A19ACDF615C285D5F SWAP7 PUSH2 0xA24 SWAP7 PUSH2 0x2274 JUMP JUMPDEST PUSH2 0x20EF JUMP JUMPDEST SWAP5 PUSH2 0xA00 PUSH1 0x40 MLOAD SWAP8 PUSH2 0x100 DUP10 MSTORE PUSH2 0x100 DUP10 ADD SWAP1 PUSH2 0x1DF1 JUMP JUMPDEST SWAP1 DUP8 DUP3 SUB PUSH1 0x20 DUP10 ADD MSTORE PUSH2 0x1DF1 JUMP JUMPDEST SWAP1 PUSH1 0x44 CALLDATALOAD PUSH1 0x40 DUP8 ADD MSTORE DUP6 DUP3 SUB PUSH1 0x60 DUP8 ADD MSTORE PUSH2 0x1DF1 JUMP JUMPDEST SWAP3 PUSH1 0xA4 CALLDATALOAD PUSH1 0x80 DUP3 ADD MSTORE PUSH1 0xC4 CALLDATALOAD PUSH1 0xA0 DUP3 ADD MSTORE PUSH1 0xE4 CALLDATALOAD PUSH1 0xC0 DUP3 ADD MSTORE PUSH2 0x2710 DUP6 DIV PUSH1 0xE0 DUP3 ADD MSTORE DUP1 CALLER SWAP5 SUB SWAP1 LOG3 PUSH2 0x2710 PUSH1 0x40 MLOAD SWAP2 DIV DUP2 MSTORE PUSH32 0x6C5EFEFF5C320943D265DC4E5F1AF95AD523555CE0C1957E367DDA5514572DF PUSH1 0x20 CALLER SWAP3 LOG2 PUSH1 0x1 PUSH1 0x0 DUP1 MLOAD PUSH1 0x20 PUSH2 0x2686 DUP4 CODECOPY DUP2 MLOAD SWAP2 MSTORE SSTORE STOP JUMPDEST PUSH4 0x4E487B71 PUSH1 0xE0 SHL PUSH1 0x0 MSTORE PUSH1 0x0 PUSH1 0x4 MSTORE PUSH1 0x24 PUSH1 0x0 REVERT JUMPDEST SWAP2 POP PUSH1 0x20 DUP3 RETURNDATASIZE PUSH1 0x20 GT PUSH2 0xAD5 JUMPI JUMPDEST DUP2 PUSH2 0xAC2 PUSH1 0x20 SWAP4 DUP4 PUSH2 0x1C5E JUMP JUMPDEST DUP2 ADD SUB SLT PUSH2 0x186 JUMPI SWAP1 MLOAD SWAP1 PUSH2 0x82C PUSH2 0x818 JUMP JUMPDEST RETURNDATASIZE SWAP2 POP PUSH2 0xAB5 JUMP JUMPDEST PUSH1 0x40 MLOAD RETURNDATASIZE PUSH1 0x0 DUP3 RETURNDATACOPY RETURNDATASIZE SWAP1 REVERT JUMPDEST POP PUSH1 0x20 DUP2 RETURNDATASIZE PUSH1 0x20 GT PUSH2 0xB15 JUMPI JUMPDEST DUP2 PUSH2 0xB03 PUSH1 0x20 SWAP4 DUP4 PUSH2 0x1C5E JUMP JUMPDEST DUP2 ADD SUB SLT PUSH2 0x186 JUMPI PUSH2 0x7EC SWAP1 MLOAD PUSH2 0x7DB JUMP JUMPDEST RETURNDATASIZE SWAP2 POP PUSH2 0xAF6 JUMP JUMPDEST PUSH1 0x40 MLOAD PUSH3 0x461BCD PUSH1 0xE5 SHL DUP2 MSTORE PUSH1 0x20 PUSH1 0x4 DUP3 ADD MSTORE PUSH1 0x15 PUSH1 0x24 DUP3 ADD MSTORE PUSH21 0x2332B29031B0B631BAB630BA34B7B71032B93937B9 PUSH1 0x59 SHL PUSH1 0x44 DUP3 ADD MSTORE PUSH1 0x64 SWAP1 REVERT JUMPDEST PUSH4 0x4E487B71 PUSH1 0xE0 SHL PUSH1 0x0 MSTORE PUSH1 0x11 PUSH1 0x4 MSTORE PUSH1 0x24 PUSH1 0x0 REVERT JUMPDEST PUSH1 0x40 MLOAD PUSH3 0x461BCD PUSH1 0xE5 SHL DUP2 MSTORE PUSH1 0x20 PUSH1 0x4 DUP3 ADD MSTORE PUSH1 0x14 PUSH1 0x24 DUP3 ADD MSTORE PUSH20 0x496E76616C6964206D6574616461746120555249 PUSH1 0x60 SHL PUSH1 0x44 DUP3 ADD MSTORE PUSH1 0x64 SWAP1 REVERT JUMPDEST PUSH1 0x40 MLOAD PUSH3 0x461BCD PUSH1 0xE5 SHL DUP2 MSTORE PUSH1 0x20 PUSH1 0x4 DUP3 ADD MSTORE PUSH1 0xE PUSH1 0x24 DUP3 ADD MSTORE PUSH14 0x24B73B30B634B21039BA3930B4B7 PUSH1 0x91 SHL PUSH1 0x44 DUP3 ADD MSTORE PUSH1 0x64 SWAP1 REVERT JUMPDEST PUSH1 0x40 MLOAD PUSH3 0x461BCD PUSH1 0xE5 SHL DUP2 MSTORE PUSH1 0x20 PUSH1 0x4 DUP3 ADD MSTORE PUSH1 0x15 PUSH1 0x24 DUP3 ADD MSTORE PUSH21 0x436F6E7461637420696E666F20746F6F206C6F6E67 PUSH1 0x58 SHL PUSH1 0x44 DUP3 ADD MSTORE PUSH1 0x64 SWAP1 REVERT JUMPDEST PUSH1 0x40 MLOAD PUSH3 0x461BCD PUSH1 0xE5 SHL DUP2 MSTORE PUSH1 0x20 PUSH1 0x4 DUP3 ADD MSTORE PUSH1 0x18 PUSH1 0x24 DUP3 ADD MSTORE PUSH32 0x446973636F756E742065786365656473206D6178696D756D0000000000000000 PUSH1 0x44 DUP3 ADD MSTORE PUSH1 0x64 SWAP1 REVERT JUMPDEST PUSH1 0x40 MLOAD PUSH3 0x461BCD PUSH1 0xE5 SHL DUP2 MSTORE PUSH1 0x20 PUSH1 0x4 DUP3 ADD MSTORE PUSH1 0x11 PUSH1 0x24 DUP3 ADD MSTORE PUSH17 0x496E76616C6964207061636B2073697A65 PUSH1 0x78 SHL PUSH1 0x44 DUP3 ADD MSTORE PUSH1 0x64 SWAP1 REVERT JUMPDEST POP PUSH2 0x3E8 PUSH1 0xC4 CALLDATALOAD GT ISZERO PUSH2 0x73F JUMP JUMPDEST PUSH1 0x40 MLOAD PUSH3 0x461BCD PUSH1 0xE5 SHL DUP2 MSTORE PUSH1 0x20 PUSH1 0x4 DUP3 ADD MSTORE PUSH1 0x13 PUSH1 0x24 DUP3 ADD MSTORE PUSH19 0x50726963652062656C6F77206D696E696D756D PUSH1 0x68 SHL PUSH1 0x44 DUP3 ADD MSTORE PUSH1 0x64 SWAP1 REVERT JUMPDEST PUSH1 0x40 MLOAD PUSH3 0x461BCD PUSH1 0xE5 SHL DUP2 MSTORE PUSH1 0x20 PUSH1 0x4 DUP3 ADD MSTORE PUSH1 0x16 PUSH1 0x24 DUP3 ADD MSTORE PUSH22 0x5365656420494420616C726561647920696E20757365 PUSH1 0x50 SHL PUSH1 0x44 DUP3 ADD MSTORE PUSH1 0x64 SWAP1 REVERT JUMPDEST PUSH1 0x40 MLOAD PUSH3 0x461BCD PUSH1 0xE5 SHL DUP2 MSTORE PUSH1 0x20 PUSH1 0x4 DUP3 ADD MSTORE PUSH1 0x16 PUSH1 0x24 DUP3 ADD MSTORE PUSH22 0x92DCECC2D8D2C840E6CACAC840928840D8CADCCEE8D PUSH1 0x53 SHL PUSH1 0x44 DUP3 ADD MSTORE PUSH1 0x64 SWAP1 REVERT JUMPDEST PUSH1 0x20 SWAP2 POP GT ISZERO DUP6 PUSH2 0x6EC JUMP JUMPDEST CALLVALUE PUSH2 0x186 JUMPI PUSH1 0x0 CALLDATASIZE PUSH1 0x3 NOT ADD SLT PUSH2 0x186 JUMPI PUSH1 0x20 PUSH1 0x40 MLOAD PUSH1 0x2A DUP2 MSTORE RETURN JUMPDEST CALLVALUE PUSH2 0x186 JUMPI PUSH1 0x0 CALLDATASIZE PUSH1 0x3 NOT ADD SLT PUSH2 0x186 JUMPI PUSH1 0x3 DUP1 SLOAD PUSH1 0x0 DUP1 JUMPDEST DUP3 DUP2 LT PUSH2 0xEC8 JUMPI POP PUSH2 0xDB4 SWAP1 PUSH2 0x2126 JUMP JUMPDEST SWAP2 PUSH1 0x0 DUP1 JUMPDEST DUP4 DUP2 LT PUSH2 0xDCE JUMPI PUSH1 0x40 MLOAD DUP1 PUSH2 0x20E DUP8 DUP3 PUSH2 0x1E2C JUMP JUMPDEST PUSH2 0xDE9 PUSH2 0xDDA DUP3 PUSH2 0x1F24 JUMP JUMPDEST POP PUSH1 0xFF DUP1 SWAP2 PUSH1 0x9 SWAP4 DUP5 SWAP2 PUSH2 0x21D1 JUMP JUMPDEST ADD SLOAD AND PUSH2 0xDFB JUMPI JUMPDEST POP POP PUSH1 0x1 ADD PUSH2 0xDB9 JUMP JUMPDEST SWAP3 PUSH2 0xEC0 SWAP2 DUP4 SWAP5 PUSH2 0xE16 PUSH2 0xE10 PUSH1 0x1 SWAP7 PUSH2 0x1F24 JUMP JUMPDEST POP PUSH2 0x21D1 JUMP JUMPDEST SWAP2 PUSH1 0x40 MLOAD SWAP3 PUSH2 0xE24 DUP5 PUSH2 0x1C42 JUMP JUMPDEST PUSH2 0xE2D DUP2 PUSH2 0x1D4C JUMP JUMPDEST DUP5 MSTORE DUP7 DUP1 PUSH1 0xA0 SHL SUB DUP8 DUP3 ADD SLOAD AND PUSH1 0x20 DUP6 ADD MSTORE PUSH2 0xE4B PUSH1 0x2 DUP3 ADD PUSH2 0x1D4C JUMP JUMPDEST PUSH1 0x40 DUP6 ADD MSTORE PUSH2 0xE5B DUP10 DUP3 ADD PUSH2 0x1D4C JUMP JUMPDEST PUSH1 0x60 DUP6 ADD MSTORE PUSH1 0x4 DUP2 ADD SLOAD PUSH1 0x80 DUP6 ADD MSTORE PUSH2 0xE76 PUSH1 0x5 DUP3 ADD PUSH2 0x1D4C JUMP JUMPDEST PUSH1 0xA0 DUP6 ADD MSTORE PUSH1 0x6 DUP2 ADD SLOAD PUSH1 0xC0 DUP6 ADD MSTORE PUSH1 0x7 DUP2 ADD SLOAD PUSH1 0xE0 DUP6 ADD MSTORE PUSH1 0x8 DUP2 ADD SLOAD PUSH2 0x100 DUP6 ADD MSTORE ADD SLOAD AND ISZERO ISZERO PUSH2 0x120 DUP3 ADD MSTORE PUSH2 0xEAF DUP3 DUP10 PUSH2 0x21BD JUMP JUMPDEST MSTORE PUSH2 0xEBA DUP2 DUP9 PUSH2 0x21BD JUMP JUMPDEST POP PUSH2 0x2265 JUMP JUMPDEST SWAP2 SWAP1 DUP7 PUSH2 0xDF1 JUMP JUMPDEST PUSH1 0xFF PUSH1 0x9 PUSH2 0xED8 PUSH2 0xE10 DUP5 PUSH2 0x1F24 JUMP JUMPDEST ADD SLOAD AND PUSH2 0xEE8 JUMPI JUMPDEST PUSH1 0x1 ADD PUSH2 0xDA3 JUMP JUMPDEST SWAP1 PUSH2 0xEF4 PUSH1 0x1 SWAP2 PUSH2 0x2265 JUMP JUMPDEST SWAP2 SWAP1 POP PUSH2 0xEE0 JUMP JUMPDEST CALLVALUE PUSH2 0x186 JUMPI PUSH1 0x0 CALLDATASIZE PUSH1 0x3 NOT ADD SLT PUSH2 0x186 JUMPI PUSH1 0x0 DUP1 MLOAD PUSH1 0x20 PUSH2 0x2626 DUP4 CODECOPY DUP2 MLOAD SWAP2 MSTORE SLOAD PUSH1 0x40 MLOAD PUSH1 0x1 PUSH1 0x1 PUSH1 0xA0 SHL SUB SWAP1 SWAP2 AND DUP2 MSTORE PUSH1 0x20 SWAP1 RETURN JUMPDEST CALLVALUE PUSH2 0x186 JUMPI PUSH1 0x0 CALLDATASIZE PUSH1 0x3 NOT ADD SLT PUSH2 0x186 JUMPI PUSH2 0xF4B PUSH2 0x24AD JUMP JUMPDEST PUSH2 0xF53 PUSH2 0x242A JUMP JUMPDEST PUSH1 0x0 DUP1 MLOAD PUSH1 0x20 PUSH2 0x2666 DUP4 CODECOPY DUP2 MLOAD SWAP2 MSTORE PUSH1 0x1 PUSH1 0xFF NOT DUP3 SLOAD AND OR SWAP1 SSTORE PUSH32 0x62E78CEA01BEE320CD4E420270B5EA74000D11B0C9F74754EBDBFC544B05A258 PUSH1 0x20 PUSH1 0x40 MLOAD CALLER DUP2 MSTORE LOG1 STOP JUMPDEST CALLVALUE PUSH2 0x186 JUMPI PUSH1 0x20 CALLDATASIZE PUSH1 0x3 NOT ADD SLT PUSH2 0x186 JUMPI PUSH1 0x4 CALLDATALOAD PUSH1 0x1 PUSH1 0x1 PUSH1 0x40 SHL SUB DUP2 GT PUSH2 0x186 JUMPI PUSH2 0xFCB PUSH1 0x20 SWAP2 CALLDATASIZE SWAP1 PUSH1 0x4 ADD PUSH2 0x1CD1 JUMP JUMPDEST PUSH1 0x1 DUP3 PUSH2 0xFE1 PUSH1 0x40 MLOAD SWAP4 DUP5 DUP2 MLOAD SWAP4 DUP5 SWAP3 ADD PUSH2 0x1CEF JUMP JUMPDEST DUP3 ADD SWAP2 PUSH1 0x2 DUP4 MSTORE DUP4 DUP2 DUP4 DUP1 PUSH1 0xA0 SHL SUB SWAP5 SUB ADD SWAP1 KECCAK256 ADD SLOAD AND ISZERO PUSH1 0x40 MLOAD SWAP1 DUP2 MSTORE RETURN JUMPDEST CALLVALUE PUSH2 0x186 JUMPI PUSH1 0x0 CALLDATASIZE PUSH1 0x3 NOT ADD SLT PUSH2 0x186 JUMPI PUSH2 0x101A PUSH2 0x24AD JUMP JUMPDEST PUSH1 0x0 DUP1 MLOAD PUSH1 0x20 PUSH2 0x2626 DUP4 CODECOPY DUP2 MLOAD SWAP2 MSTORE DUP1 SLOAD PUSH1 0x1 PUSH1 0x1 PUSH1 0xA0 SHL SUB NOT DUP2 AND SWAP1 SWAP2 SSTORE PUSH1 0x0 SWAP1 PUSH1 0x1 PUSH1 0x1 PUSH1 0xA0 SHL SUB AND PUSH32 0x8BE0079C531659141344CD1FD0A4F28419497F9722A3DAAFE3B4186F6B6457E0 DUP3 DUP1 LOG3 STOP JUMPDEST CALLVALUE PUSH2 0x186 JUMPI PUSH1 0x20 CALLDATASIZE PUSH1 0x3 NOT ADD SLT PUSH2 0x186 JUMPI PUSH1 0x4 CALLDATALOAD PUSH1 0x3 SLOAD DUP2 LT ISZERO PUSH2 0x186 JUMPI PUSH2 0x1FA PUSH2 0x1F4 PUSH2 0x20E SWAP3 PUSH2 0x1F24 JUMP JUMPDEST CALLVALUE PUSH2 0x186 JUMPI PUSH1 0x0 CALLDATASIZE PUSH1 0x3 NOT ADD SLT PUSH2 0x186 JUMPI PUSH1 0x20 PUSH1 0xFF PUSH1 0x0 DUP1 MLOAD PUSH1 0x20 PUSH2 0x2666 DUP4 CODECOPY DUP2 MLOAD SWAP2 MSTORE SLOAD AND PUSH1 0x40 MLOAD SWAP1 ISZERO ISZERO DUP2 MSTORE RETURN JUMPDEST CALLVALUE PUSH2 0x186 JUMPI PUSH1 0x0 CALLDATASIZE PUSH1 0x3 NOT ADD SLT PUSH2 0x186 JUMPI PUSH32 0x0 PUSH1 0x1 PUSH1 0x1 PUSH1 0xA0 SHL SUB AND ADDRESS SUB PUSH2 0x1133 JUMPI PUSH1 0x20 PUSH1 0x40 MLOAD PUSH32 0x360894A13BA1A3210667C828492DB98DCA3E2076CC3735A920A3CA505D382BBC DUP2 MSTORE RETURN JUMPDEST PUSH1 0x40 MLOAD PUSH4 0x703E46DD PUSH1 0xE1 SHL DUP2 MSTORE PUSH1 0x4 SWAP1 REVERT JUMPDEST PUSH1 0x40 CALLDATASIZE PUSH1 0x3 NOT ADD SLT PUSH2 0x186 JUMPI PUSH2 0x1159 PUSH2 0x1E16 JUMP JUMPDEST PUSH1 0x24 CALLDATALOAD PUSH1 0x1 PUSH1 0x1 PUSH1 0x40 SHL SUB DUP2 GT PUSH2 0x186 JUMPI CALLDATASIZE PUSH1 0x23 DUP3 ADD SLT ISZERO PUSH2 0x186 JUMPI PUSH2 0x1189 SWAP1 CALLDATASIZE SWAP1 PUSH1 0x24 DUP2 PUSH1 0x4 ADD CALLDATALOAD SWAP2 ADD PUSH2 0x1C9A JUMP JUMPDEST SWAP1 PUSH1 0x1 PUSH1 0x1 PUSH1 0xA0 SHL SUB PUSH32 0x0 DUP2 AND ADDRESS DUP2 EQ SWAP1 DUP2 ISZERO PUSH2 0x1345 JUMPI JUMPDEST POP PUSH2 0x1133 JUMPI PUSH2 0x11CD PUSH2 0x24AD JUMP JUMPDEST PUSH1 0x40 MLOAD PUSH4 0x52D1902D PUSH1 0xE0 SHL DUP2 MSTORE SWAP1 DUP3 AND SWAP2 PUSH1 0x20 SWAP2 DUP3 DUP2 PUSH1 0x4 DUP2 DUP8 GAS STATICCALL PUSH1 0x0 SWAP2 DUP2 PUSH2 0x1316 JUMPI JUMPDEST POP PUSH2 0x1210 JUMPI PUSH1 0x40 MLOAD PUSH4 0x4C9C8CE3 PUSH1 0xE0 SHL DUP2 MSTORE PUSH1 0x4 DUP2 ADD DUP6 SWAP1 MSTORE PUSH1 0x24 SWAP1 REVERT JUMPDEST SWAP3 DUP5 SWAP4 PUSH32 0x360894A13BA1A3210667C828492DB98DCA3E2076CC3735A920A3CA505D382BBC SWAP1 DUP2 DUP2 SUB PUSH2 0x12FE JUMPI POP DUP3 EXTCODESIZE ISZERO PUSH2 0x12E5 JUMPI DUP1 SLOAD PUSH1 0x1 PUSH1 0x1 PUSH1 0xA0 SHL SUB NOT AND DUP3 OR SWAP1 SSTORE PUSH1 0x40 MLOAD SWAP1 PUSH32 0xBC7CD75A20EE27FD9ADEBAB32041F755214DBC6BFFA90CC0225B39DA2E5C2D3B PUSH1 0x0 DUP1 LOG2 DUP4 MLOAD ISZERO PUSH2 0x12CB JUMPI POP PUSH1 0x0 DUP1 DUP5 DUP5 PUSH2 0x184 SWAP7 MLOAD SWAP2 ADD DUP5 GAS DELEGATECALL SWAP1 RETURNDATASIZE ISZERO PUSH2 0x12C2 JUMPI RETURNDATASIZE PUSH2 0x12A5 DUP2 PUSH2 0x1C7F JUMP JUMPDEST SWAP1 PUSH2 0x12B3 PUSH1 0x40 MLOAD SWAP3 DUP4 PUSH2 0x1C5E JUMP JUMPDEST DUP2 MSTORE PUSH1 0x0 DUP2 SWAP5 RETURNDATASIZE SWAP3 ADD RETURNDATACOPY PUSH2 0x25C2 JUMP JUMPDEST PUSH1 0x60 SWAP3 POP PUSH2 0x25C2 JUMP JUMPDEST SWAP3 POP POP POP CALLVALUE PUSH2 0x12D6 JUMPI STOP JUMPDEST PUSH4 0xB398979F PUSH1 0xE0 SHL DUP2 MSTORE PUSH1 0x4 SWAP1 REVERT JUMPDEST PUSH1 0x40 MLOAD PUSH4 0x4C9C8CE3 PUSH1 0xE0 SHL DUP2 MSTORE PUSH1 0x4 DUP2 ADD DUP4 SWAP1 MSTORE PUSH1 0x24 SWAP1 REVERT JUMPDEST PUSH1 0x24 SWAP1 PUSH1 0x40 MLOAD SWAP1 PUSH4 0x2A875269 PUSH1 0xE2 SHL DUP3 MSTORE PUSH1 0x4 DUP3 ADD MSTORE REVERT JUMPDEST SWAP1 SWAP2 POP DUP4 DUP2 DUP2 RETURNDATASIZE DUP4 GT PUSH2 0x133E JUMPI JUMPDEST PUSH2 0x132E DUP2 DUP4 PUSH2 0x1C5E JUMP JUMPDEST DUP2 ADD SUB SLT PUSH2 0x186 JUMPI MLOAD SWAP1 DUP7 PUSH2 0x11F2 JUMP JUMPDEST POP RETURNDATASIZE PUSH2 0x1324 JUMP JUMPDEST SWAP1 POP DUP2 PUSH32 0x360894A13BA1A3210667C828492DB98DCA3E2076CC3735A920A3CA505D382BBC SLOAD AND EQ ISZERO DUP5 PUSH2 0x11C0 JUMP JUMPDEST CALLVALUE PUSH2 0x186 JUMPI PUSH1 0x20 DUP1 PUSH1 0x3 NOT CALLDATASIZE ADD SLT PUSH2 0x186 JUMPI PUSH1 0x1 PUSH1 0x1 PUSH1 0xA0 SHL SUB DUP1 PUSH2 0x1396 PUSH2 0x1E16 JUMP JUMPDEST AND PUSH1 0x0 MSTORE PUSH1 0x4 DUP3 MSTORE PUSH1 0x40 PUSH1 0x0 KECCAK256 SWAP1 DUP2 SLOAD PUSH2 0x13AF DUP2 PUSH2 0x210F JUMP JUMPDEST SWAP3 PUSH2 0x13BD PUSH1 0x40 MLOAD SWAP5 DUP6 PUSH2 0x1C5E JUMP JUMPDEST DUP2 DUP5 MSTORE PUSH1 0x0 SWAP1 DUP2 MSTORE DUP5 DUP2 KECCAK256 DUP6 DUP1 DUP7 ADD JUMPDEST DUP5 DUP5 LT PUSH2 0x14D4 JUMPI POP DUP6 DUP6 PUSH2 0x13E1 DUP3 MLOAD PUSH2 0x2126 JUMP JUMPDEST SWAP3 PUSH1 0x0 JUMPDEST DUP4 MLOAD DUP2 LT ISZERO PUSH2 0x14C6 JUMPI DUP1 PUSH2 0x13FB PUSH1 0x1 SWAP3 DUP7 PUSH2 0x21BD JUMP JUMPDEST MLOAD PUSH1 0xFF PUSH1 0x9 DUP6 PUSH2 0x1414 PUSH1 0x40 MLOAD SWAP5 DUP6 DUP2 MLOAD SWAP4 DUP5 SWAP3 ADD PUSH2 0x1CEF JUMP JUMPDEST DUP4 ADD SWAP3 DUP7 DUP2 PUSH1 0x2 SWAP6 DUP7 DUP2 MSTORE SUB ADD SWAP1 KECCAK256 PUSH2 0x144F PUSH1 0x40 MLOAD SWAP5 PUSH2 0x1433 DUP7 PUSH2 0x1C42 JUMP JUMPDEST PUSH2 0x143C DUP4 PUSH2 0x1D4C JUMP JUMPDEST DUP7 MSTORE DUP10 DUP9 DUP5 ADD SLOAD AND DUP10 DUP8 ADD MSTORE DUP3 ADD PUSH2 0x1D4C JUMP JUMPDEST PUSH1 0x40 DUP6 ADD MSTORE PUSH2 0x1460 PUSH1 0x3 DUP3 ADD PUSH2 0x1D4C JUMP JUMPDEST PUSH1 0x60 DUP6 ADD MSTORE PUSH1 0x4 DUP2 ADD SLOAD PUSH1 0x80 DUP6 ADD MSTORE PUSH2 0x147B PUSH1 0x5 DUP3 ADD PUSH2 0x1D4C JUMP JUMPDEST PUSH1 0xA0 DUP6 ADD MSTORE PUSH1 0x6 DUP2 ADD SLOAD PUSH1 0xC0 DUP6 ADD MSTORE PUSH1 0x7 DUP2 ADD SLOAD PUSH1 0xE0 DUP6 ADD MSTORE PUSH1 0x8 DUP2 ADD SLOAD PUSH2 0x100 DUP6 ADD MSTORE ADD SLOAD AND ISZERO ISZERO PUSH2 0x120 DUP3 ADD MSTORE PUSH2 0x14B4 DUP3 DUP9 PUSH2 0x21BD JUMP JUMPDEST MSTORE PUSH2 0x14BF DUP2 DUP8 PUSH2 0x21BD JUMP JUMPDEST POP ADD PUSH2 0x13E5 JUMP JUMPDEST PUSH1 0x40 MLOAD DUP1 PUSH2 0x20E DUP8 DUP3 PUSH2 0x1E2C JUMP JUMPDEST PUSH1 0x1 SWAP2 DUP3 SWAP2 PUSH2 0x14E2 DUP6 PUSH2 0x1D4C JUMP JUMPDEST DUP2 MSTORE ADD SWAP3 ADD SWAP3 ADD SWAP2 SWAP1 DUP7 SWAP1 PUSH2 0x13CD JUMP JUMPDEST CALLVALUE PUSH2 0x186 JUMPI PUSH1 0x0 CALLDATASIZE PUSH1 0x3 NOT ADD SLT PUSH2 0x186 JUMPI PUSH2 0x150B PUSH2 0x24AD JUMP JUMPDEST PUSH2 0x1513 PUSH2 0x23FA JUMP JUMPDEST PUSH1 0x0 SLOAD PUSH1 0x40 MLOAD PUSH4 0x70A08231 PUSH1 0xE0 SHL DUP2 MSTORE ADDRESS PUSH1 0x4 DUP3 ADD MSTORE PUSH1 0x1 PUSH1 0x1 PUSH1 0xA0 SHL SUB SWAP2 DUP3 AND SWAP2 PUSH1 0x20 SWAP2 SWAP1 DUP3 DUP3 PUSH1 0x24 DUP2 DUP8 GAS STATICCALL SWAP2 DUP3 ISZERO PUSH2 0xADD JUMPI PUSH1 0x0 SWAP3 PUSH2 0x15F8 JUMPI JUMPDEST POP DUP2 ISZERO PUSH2 0x15BD JUMPI PUSH1 0x0 DUP1 MLOAD PUSH1 0x20 PUSH2 0x2626 DUP4 CODECOPY DUP2 MLOAD SWAP2 MSTORE SLOAD AND PUSH1 0x40 MLOAD SWAP3 PUSH4 0xA9059CBB PUSH1 0xE0 SHL SWAP1 DUP5 ADD MSTORE PUSH1 0x24 DUP4 ADD MSTORE PUSH1 0x44 DUP3 ADD MSTORE PUSH1 0x44 DUP2 MSTORE PUSH1 0x80 DUP2 ADD SWAP2 DUP2 DUP4 LT PUSH1 0x1 PUSH1 0x1 PUSH1 0x40 SHL SUB DUP5 GT OR PUSH2 0x468 JUMPI PUSH2 0x15A9 SWAP3 PUSH1 0x40 MSTORE PUSH2 0x2525 JUMP JUMPDEST PUSH1 0x1 PUSH1 0x0 DUP1 MLOAD PUSH1 0x20 PUSH2 0x2686 DUP4 CODECOPY DUP2 MLOAD SWAP2 MSTORE SSTORE STOP JUMPDEST PUSH1 0x40 MLOAD PUSH3 0x461BCD PUSH1 0xE5 SHL DUP2 MSTORE PUSH1 0x4 DUP2 ADD DUP5 SWAP1 MSTORE PUSH1 0x13 PUSH1 0x24 DUP3 ADD MSTORE PUSH19 0x4E6F206665657320746F207769746864726177 PUSH1 0x68 SHL PUSH1 0x44 DUP3 ADD MSTORE PUSH1 0x64 SWAP1 REVERT JUMPDEST SWAP1 SWAP2 POP DUP3 DUP2 DUP2 RETURNDATASIZE DUP4 GT PUSH2 0x1620 JUMPI JUMPDEST PUSH2 0x1610 DUP2 DUP4 PUSH2 0x1C5E JUMP JUMPDEST DUP2 ADD SUB SLT PUSH2 0x186 JUMPI MLOAD SWAP1 DUP5 PUSH2 0x1550 JUMP JUMPDEST POP RETURNDATASIZE PUSH2 0x1606 JUMP JUMPDEST CALLVALUE PUSH2 0x186 JUMPI PUSH1 0x20 CALLDATASIZE PUSH1 0x3 NOT ADD SLT PUSH2 0x186 JUMPI PUSH1 0x4 CALLDATALOAD PUSH1 0x1 PUSH1 0x1 PUSH1 0x40 SHL SUB DUP2 GT PUSH2 0x186 JUMPI PUSH2 0x1657 SWAP1 CALLDATASIZE SWAP1 PUSH1 0x4 ADD PUSH2 0x1CD1 JUMP JUMPDEST PUSH2 0x165F PUSH2 0x23FA JUMP JUMPDEST PUSH2 0x1667 PUSH2 0x242A JUMP JUMPDEST PUSH1 0x40 MLOAD PUSH1 0x20 DUP2 DUP4 MLOAD PUSH2 0x167C DUP2 DUP4 DUP6 DUP9 ADD PUSH2 0x1CEF JUMP JUMPDEST PUSH1 0x2 SWAP1 DUP3 ADD SWAP1 DUP2 MSTORE SUB ADD SWAP1 KECCAK256 PUSH1 0x1 DUP2 ADD SLOAD PUSH1 0x1 PUSH1 0x1 PUSH1 0xA0 SHL SUB AND CALLER SUB PUSH2 0x16F6 JUMPI PUSH1 0x9 ADD DUP1 SLOAD PUSH2 0x16AD PUSH1 0xFF DUP3 AND PUSH2 0x1FBC JUMP JUMPDEST PUSH1 0xFF NOT AND SWAP1 SSTORE PUSH2 0x16BD CALLER SWAP2 PUSH2 0x20EF JUMP JUMPDEST PUSH32 0xCE7D5A374B88B2A64F2970516112D4977854B27C776377A92890C6B8D29CB114 PUSH1 0x0 DUP1 LOG3 PUSH1 0x1 PUSH1 0x0 DUP1 MLOAD PUSH1 0x20 PUSH2 0x2686 DUP4 CODECOPY DUP2 MLOAD SWAP2 MSTORE SSTORE STOP JUMPDEST PUSH1 0x40 MLOAD PUSH3 0x461BCD PUSH1 0xE5 SHL DUP2 MSTORE PUSH1 0x20 PUSH1 0x4 DUP3 ADD MSTORE PUSH1 0xF PUSH1 0x24 DUP3 ADD MSTORE PUSH15 0x2737BA1039B2B2B21039B2B63632B9 PUSH1 0x89 SHL PUSH1 0x44 DUP3 ADD MSTORE PUSH1 0x64 SWAP1 REVERT JUMPDEST CALLVALUE PUSH2 0x186 JUMPI PUSH1 0x0 CALLDATASIZE PUSH1 0x3 NOT ADD SLT PUSH2 0x186 JUMPI PUSH2 0x1746 PUSH2 0x24AD JUMP JUMPDEST PUSH1 0x0 DUP1 MLOAD PUSH1 0x20 PUSH2 0x2666 DUP4 CODECOPY DUP2 MLOAD SWAP2 MSTORE DUP1 SLOAD PUSH1 0xFF DUP2 AND ISZERO PUSH2 0x1792 JUMPI PUSH1 0xFF NOT AND SWAP1 SSTORE PUSH32 0x5DB9EE0A495BF2E6FF9C91A7834C1BA4FDD244A5E8AA4E537BD38AEAE4B073AA PUSH1 0x20 PUSH1 0x40 MLOAD CALLER DUP2 MSTORE LOG1 STOP JUMPDEST PUSH1 0x40 MLOAD PUSH4 0x8DFC202B PUSH1 0xE0 SHL DUP2 MSTORE PUSH1 0x4 SWAP1 REVERT JUMPDEST CALLVALUE PUSH2 0x186 JUMPI PUSH1 0x0 CALLDATASIZE PUSH1 0x3 NOT ADD SLT PUSH2 0x186 JUMPI PUSH1 0x0 SLOAD PUSH1 0x40 MLOAD PUSH1 0x1 PUSH1 0x1 PUSH1 0xA0 SHL SUB SWAP1 SWAP2 AND DUP2 MSTORE PUSH1 0x20 SWAP1 RETURN JUMPDEST CALLVALUE PUSH2 0x186 JUMPI PUSH1 0x40 CALLDATASIZE PUSH1 0x3 NOT ADD SLT PUSH2 0x186 JUMPI PUSH1 0x4 CALLDATALOAD PUSH1 0x1 PUSH1 0x1 PUSH1 0x40 SHL SUB DUP2 GT PUSH2 0x186 JUMPI PUSH2 0x17FD SWAP1 CALLDATASIZE SWAP1 PUSH1 0x4 ADD PUSH2 0x1CD1 JUMP JUMPDEST PUSH1 0x24 SWAP1 DUP2 CALLDATALOAD PUSH2 0x180A PUSH2 0x23FA JUMP JUMPDEST PUSH2 0x1812 PUSH2 0x242A JUMP JUMPDEST PUSH1 0x40 MLOAD SWAP1 DUP2 DUP4 MLOAD PUSH1 0x20 SWAP4 DUP2 PUSH2 0x182B DUP7 SWAP4 DUP4 DUP6 DUP11 ADD PUSH2 0x1CEF JUMP JUMPDEST DUP2 ADD PUSH1 0x2 DUP2 MSTORE SUB ADD SWAP1 KECCAK256 SWAP4 PUSH1 0x9 DUP6 ADD SWAP4 PUSH2 0x1848 PUSH1 0xFF DUP7 SLOAD AND PUSH2 0x1FBC JUMP JUMPDEST PUSH2 0x1853 DUP4 ISZERO ISZERO PUSH2 0x1FFA JUMP JUMPDEST PUSH1 0x7 DUP7 ADD DUP4 DUP2 SLOAD LT PUSH2 0x1ADE JUMPI PUSH1 0x1 DUP8 ADD SLOAD PUSH1 0x1 PUSH1 0x1 PUSH1 0xA0 SHL SUB SWAP1 DUP2 AND SWAP8 SWAP1 SWAP4 SWAP1 CALLER DUP10 EQ PUSH2 0x1AA4 JUMPI DUP6 PUSH1 0x8 PUSH1 0x4 DUP4 ADD SLOAD SWAP3 ADD SLOAD DUP1 PUSH2 0x1A7F JUMPI JUMPDEST POP PUSH2 0x1895 SWAP2 PUSH2 0x204B JUMP JUMPDEST SWAP4 PUSH1 0x2A DUP6 MUL DUP6 DUP2 DIV PUSH1 0x2A EQ DUP7 ISZERO OR ISZERO PUSH2 0x1A6A JUMPI PUSH2 0x2710 SWAP1 DIV SWAP9 PUSH2 0x18B8 DUP11 DUP8 PUSH2 0x203E JUMP JUMPDEST PUSH1 0x0 SLOAD PUSH1 0x40 MLOAD PUSH4 0x6EB1769F PUSH1 0xE1 SHL DUP2 MSTORE CALLER PUSH1 0x4 DUP3 ADD MSTORE ADDRESS PUSH1 0x24 DUP3 ADD MSTORE SWAP2 SWAP3 SWAP2 SWAP1 DUP5 AND SWAP1 DUP11 DUP2 PUSH1 0x44 DUP2 DUP6 GAS STATICCALL DUP1 ISZERO PUSH2 0xADD JUMPI DUP10 SWAP1 PUSH1 0x0 SWAP1 PUSH2 0x1A39 JUMPI JUMPDEST PUSH2 0x18FF SWAP3 POP LT ISZERO PUSH2 0x205E JUMP JUMPDEST DUP10 PUSH1 0x40 MLOAD DUP1 SWAP7 PUSH4 0x70A08231 PUSH1 0xE0 SHL DUP3 MSTORE CALLER PUSH1 0x4 DUP4 ADD MSTORE DUP2 DUP5 GAS STATICCALL DUP1 ISZERO PUSH2 0xADD JUMPI DUP13 SWAP6 PUSH1 0x0 SWAP2 PUSH2 0x19F2 JUMPI JUMPDEST POP PUSH2 0x197C SWAP4 PUSH32 0x6C5EFEFF5C320943D265DC4E5F1AF95AD523555CE0C1957E367DDA5514572DF SWAP13 SWAP7 SWAP4 PUSH2 0x1996 SWAP10 SWAP9 SWAP7 SWAP4 PUSH2 0x1968 DUP13 PUSH2 0x196F SWAP6 LT ISZERO PUSH2 0x20A3 JUMP JUMPDEST CALLER SWAP1 PUSH2 0x2455 JUMP JUMPDEST ADDRESS SWAP1 CALLER SWAP1 PUSH1 0x0 SLOAD AND PUSH2 0x2455 JUMP JUMPDEST PUSH2 0x1987 DUP7 DUP3 SLOAD PUSH2 0x203E JUMP JUMPDEST DUP1 SWAP2 SSTORE ISZERO PUSH2 0x19E4 JUMPI JUMPDEST POP PUSH2 0x20EF JUMP JUMPDEST SWAP1 PUSH1 0x40 MLOAD SWAP3 DUP4 MSTORE DUP4 DUP4 ADD MSTORE PUSH32 0xF076F51BAFB67BDC44D9949E6D7C35B30314795854F3D90B680B3B3F4572728E PUSH1 0x40 CALLER SWAP4 LOG3 PUSH1 0x40 MLOAD SWAP3 DUP4 MSTORE CALLER SWAP3 LOG2 PUSH1 0x1 PUSH1 0x0 DUP1 MLOAD PUSH1 0x20 PUSH2 0x2686 DUP4 CODECOPY DUP2 MLOAD SWAP2 MSTORE SSTORE STOP JUMPDEST DUP1 SLOAD PUSH1 0xFF NOT AND SWAP1 SSTORE DUP8 PUSH2 0x1990 JUMP JUMPDEST DUP1 SWAP13 SWAP7 POP DUP12 DUP1 SWAP3 POP SWAP9 SWAP8 SWAP6 SWAP3 SWAP4 SWAP5 SWAP9 RETURNDATASIZE DUP4 GT PUSH2 0x1A32 JUMPI JUMPDEST PUSH2 0x1A13 DUP2 DUP4 PUSH2 0x1C5E JUMP JUMPDEST DUP2 ADD SUB SLT PUSH2 0x186 JUMPI SWAP10 MLOAD SWAP4 SWAP10 SWAP5 SWAP6 SWAP3 SWAP5 DUP12 SWAP5 SWAP1 SWAP4 SWAP3 SWAP2 SWAP1 PUSH2 0x197C PUSH2 0x1929 JUMP JUMPDEST POP RETURNDATASIZE PUSH2 0x1A09 JUMP JUMPDEST POP POP DUP11 DUP2 DUP2 RETURNDATASIZE DUP4 GT PUSH2 0x1A63 JUMPI JUMPDEST PUSH2 0x1A50 DUP2 DUP4 PUSH2 0x1C5E JUMP JUMPDEST DUP2 ADD SUB SLT PUSH2 0x186 JUMPI DUP9 PUSH2 0x18FF SWAP2 MLOAD PUSH2 0x18F3 JUMP JUMPDEST POP RETURNDATASIZE PUSH2 0x1A46 JUMP JUMPDEST DUP3 PUSH4 0x4E487B71 PUSH1 0xE0 SHL PUSH1 0x0 MSTORE PUSH1 0x11 PUSH1 0x4 MSTORE PUSH1 0x0 REVERT JUMPDEST SWAP1 POP PUSH1 0x64 SUB SWAP1 PUSH1 0x64 DUP3 GT PUSH2 0x1A6A JUMPI PUSH1 0x64 PUSH2 0x1A9D PUSH2 0x1895 SWAP4 DUP10 SWAP4 PUSH2 0x204B JUMP JUMPDEST DIV SWAP2 PUSH2 0x188B JUMP JUMPDEST PUSH1 0x40 MLOAD PUSH3 0x461BCD PUSH1 0xE5 SHL DUP2 MSTORE PUSH1 0x4 DUP2 ADD DUP9 SWAP1 MSTORE PUSH1 0x13 DUP2 DUP5 ADD MSTORE PUSH19 0x10D85B9B9BDD08189D5E481BDDDB881CD95959 PUSH1 0x6A SHL PUSH1 0x44 DUP3 ADD MSTORE PUSH1 0x64 SWAP1 REVERT JUMPDEST PUSH1 0x40 MLOAD PUSH3 0x461BCD PUSH1 0xE5 SHL DUP2 MSTORE PUSH1 0x4 DUP2 ADD DUP7 SWAP1 MSTORE PUSH1 0x1A DUP2 DUP6 ADD MSTORE PUSH32 0x496E73756666696369656E74207061636B207175616E74697479000000000000 PUSH1 0x44 DUP3 ADD MSTORE PUSH1 0x64 SWAP1 REVERT JUMPDEST CALLVALUE PUSH2 0x186 JUMPI PUSH1 0x20 CALLDATASIZE PUSH1 0x3 NOT ADD SLT PUSH2 0x186 JUMPI PUSH1 0x4 CALLDATALOAD PUSH1 0x1 PUSH1 0x1 PUSH1 0x40 SHL SUB DUP2 GT PUSH2 0x186 JUMPI PUSH2 0x1BF4 PUSH2 0x1B6E PUSH1 0x20 PUSH2 0x1B5B DUP2 SWAP5 CALLDATASIZE SWAP1 PUSH1 0x4 ADD PUSH2 0x1CD1 JUMP JUMPDEST DUP2 PUSH1 0x40 MLOAD SWAP4 DUP3 DUP6 DUP1 SWAP5 MLOAD SWAP4 DUP5 SWAP3 ADD PUSH2 0x1CEF JUMP JUMPDEST DUP2 ADD PUSH1 0x2 DUP2 MSTORE SUB ADD SWAP1 KECCAK256 PUSH2 0x1B81 DUP2 PUSH2 0x1D4C JUMP JUMPDEST SWAP1 PUSH1 0x1 DUP1 PUSH1 0xA0 SHL SUB PUSH1 0x1 DUP3 ADD SLOAD AND SWAP1 PUSH2 0x1B9C PUSH1 0x2 DUP3 ADD PUSH2 0x1D4C JUMP JUMPDEST PUSH2 0x1C25 PUSH2 0x1BAB PUSH1 0x3 DUP5 ADD PUSH2 0x1D4C JUMP JUMPDEST PUSH1 0x4 DUP5 ADD SLOAD SWAP1 PUSH2 0x1C12 PUSH2 0x1BC0 PUSH1 0x5 DUP8 ADD PUSH2 0x1D4C JUMP JUMPDEST SWAP2 PUSH2 0x1C04 PUSH1 0x6 DUP9 ADD SLOAD SWAP10 PUSH1 0x7 DUP10 ADD SLOAD SWAP8 PUSH1 0xFF PUSH1 0x9 PUSH1 0x8 DUP13 ADD SLOAD SWAP12 ADD SLOAD AND SWAP11 PUSH1 0x40 MLOAD SWAP15 DUP16 SWAP15 DUP16 SWAP5 PUSH2 0x140 DUP1 DUP8 MSTORE DUP7 ADD SWAP1 PUSH2 0x1DF1 JUMP JUMPDEST SWAP4 ADD MSTORE DUP13 DUP3 SUB PUSH1 0x40 DUP15 ADD MSTORE PUSH2 0x1DF1 JUMP JUMPDEST SWAP1 DUP11 DUP3 SUB PUSH1 0x60 DUP13 ADD MSTORE PUSH2 0x1DF1 JUMP JUMPDEST SWAP2 PUSH1 0x80 DUP10 ADD MSTORE DUP8 DUP3 SUB PUSH1 0xA0 DUP10 ADD MSTORE PUSH2 0x1DF1 JUMP JUMPDEST SWAP4 PUSH1 0xC0 DUP7 ADD MSTORE PUSH1 0xE0 DUP6 ADD MSTORE PUSH2 0x100 DUP5 ADD MSTORE ISZERO ISZERO PUSH2 0x120 DUP4 ADD MSTORE SUB SWAP1 RETURN JUMPDEST PUSH2 0x140 DUP2 ADD SWAP1 DUP2 LT PUSH1 0x1 PUSH1 0x1 PUSH1 0x40 SHL SUB DUP3 GT OR PUSH2 0x468 JUMPI PUSH1 0x40 MSTORE JUMP JUMPDEST SWAP1 PUSH1 0x1F DUP1 NOT SWAP2 ADD AND DUP2 ADD SWAP1 DUP2 LT PUSH1 0x1 PUSH1 0x1 PUSH1 0x40 SHL SUB DUP3 GT OR PUSH2 0x468 JUMPI PUSH1 0x40 MSTORE JUMP JUMPDEST PUSH1 0x1 PUSH1 0x1 PUSH1 0x40 SHL SUB DUP2 GT PUSH2 0x468 JUMPI PUSH1 0x1F ADD PUSH1 0x1F NOT AND PUSH1 0x20 ADD SWAP1 JUMP JUMPDEST SWAP3 SWAP2 SWAP3 PUSH2 0x1CA6 DUP3 PUSH2 0x1C7F JUMP JUMPDEST SWAP2 PUSH2 0x1CB4 PUSH1 0x40 MLOAD SWAP4 DUP5 PUSH2 0x1C5E JUMP JUMPDEST DUP3 SWAP5 DUP2 DUP5 MSTORE DUP2 DUP4 ADD GT PUSH2 0x186 JUMPI DUP3 DUP2 PUSH1 0x20 SWAP4 DUP5 PUSH1 0x0 SWAP7 ADD CALLDATACOPY ADD ADD MSTORE JUMP JUMPDEST SWAP1 DUP1 PUSH1 0x1F DUP4 ADD SLT ISZERO PUSH2 0x186 JUMPI DUP2 PUSH1 0x20 PUSH2 0x1CEC SWAP4 CALLDATALOAD SWAP2 ADD PUSH2 0x1C9A JUMP JUMPDEST SWAP1 JUMP JUMPDEST PUSH1 0x0 JUMPDEST DUP4 DUP2 LT PUSH2 0x1D02 JUMPI POP POP PUSH1 0x0 SWAP2 ADD MSTORE JUMP JUMPDEST DUP2 DUP2 ADD MLOAD DUP4 DUP3 ADD MSTORE PUSH1 0x20 ADD PUSH2 0x1CF2 JUMP JUMPDEST SWAP1 PUSH1 0x1 DUP3 DUP2 SHR SWAP3 AND DUP1 ISZERO PUSH2 0x1D42 JUMPI JUMPDEST PUSH1 0x20 DUP4 LT EQ PUSH2 0x1D2C JUMPI JUMP JUMPDEST PUSH4 0x4E487B71 PUSH1 0xE0 SHL PUSH1 0x0 MSTORE PUSH1 0x22 PUSH1 0x4 MSTORE PUSH1 0x24 PUSH1 0x0 REVERT JUMPDEST SWAP2 PUSH1 0x7F AND SWAP2 PUSH2 0x1D21 JUMP JUMPDEST SWAP1 PUSH1 0x40 MLOAD SWAP2 DUP3 PUSH1 0x0 DUP3 SLOAD PUSH2 0x1D5F DUP2 PUSH2 0x1D12 JUMP JUMPDEST SWAP1 DUP2 DUP5 MSTORE PUSH1 0x20 SWAP5 PUSH1 0x1 SWAP2 PUSH1 0x1 DUP2 AND SWAP1 DUP2 PUSH1 0x0 EQ PUSH2 0x1DCF JUMPI POP PUSH1 0x1 EQ PUSH2 0x1D90 JUMPI JUMPDEST POP POP POP PUSH2 0x1D8E SWAP3 POP SUB DUP4 PUSH2 0x1C5E JUMP JUMPDEST JUMP JUMPDEST PUSH1 0x0 SWAP1 DUP2 MSTORE DUP6 DUP2 KECCAK256 SWAP6 SWAP4 POP SWAP2 SWAP1 JUMPDEST DUP2 DUP4 LT PUSH2 0x1DB7 JUMPI POP POP PUSH2 0x1D8E SWAP4 POP DUP3 ADD ADD CODESIZE DUP1 DUP1 PUSH2 0x1D7F JUMP JUMPDEST DUP6 SLOAD DUP9 DUP5 ADD DUP6 ADD MSTORE SWAP5 DUP6 ADD SWAP5 DUP8 SWAP5 POP SWAP2 DUP4 ADD SWAP2 PUSH2 0x1D9E JUMP JUMPDEST SWAP3 POP POP POP PUSH2 0x1D8E SWAP5 SWAP3 POP PUSH1 0xFF NOT AND DUP3 DUP5 ADD MSTORE ISZERO ISZERO PUSH1 0x5 SHL DUP3 ADD ADD CODESIZE DUP1 DUP1 PUSH2 0x1D7F JUMP JUMPDEST SWAP1 PUSH1 0x20 SWAP2 PUSH2 0x1E0A DUP2 MLOAD DUP1 SWAP3 DUP2 DUP6 MSTORE DUP6 DUP1 DUP7 ADD SWAP2 ADD PUSH2 0x1CEF JUMP JUMPDEST PUSH1 0x1F ADD PUSH1 0x1F NOT AND ADD ADD SWAP1 JUMP JUMPDEST PUSH1 0x4 CALLDATALOAD SWAP1 PUSH1 0x1 PUSH1 0x1 PUSH1 0xA0 SHL SUB DUP3 AND DUP3 SUB PUSH2 0x186 JUMPI JUMP JUMPDEST PUSH1 0x20 DUP1 DUP3 ADD SWAP1 DUP1 DUP4 MSTORE DUP4 MLOAD DUP1 SWAP3 MSTORE PUSH1 0x40 SWAP3 PUSH1 0x40 DUP2 ADD DUP3 PUSH1 0x40 DUP6 PUSH1 0x5 SHL DUP5 ADD ADD SWAP7 ADD SWAP5 PUSH1 0x0 SWAP3 JUMPDEST DUP6 DUP5 LT PUSH2 0x1E63 JUMPI POP POP POP POP POP POP POP SWAP1 JUMP JUMPDEST SWAP1 SWAP2 SWAP3 SWAP4 SWAP5 SWAP6 SWAP7 DUP6 DUP1 PUSH1 0x1 SWAP3 PUSH1 0x3F NOT DUP6 DUP3 SUB ADD DUP8 MSTORE DUP11 MLOAD SWAP1 PUSH2 0x1EE7 PUSH2 0x1ECA PUSH2 0x1EB7 PUSH2 0x1E98 PUSH2 0x140 DUP7 MLOAD SWAP1 DUP1 DUP8 MSTORE DUP7 ADD SWAP1 PUSH2 0x1DF1 JUMP JUMPDEST DUP9 DUP1 PUSH1 0xA0 SHL SUB DUP8 DUP8 ADD MLOAD AND DUP8 DUP7 ADD MSTORE DUP11 DUP7 ADD MLOAD DUP6 DUP3 SUB DUP13 DUP8 ADD MSTORE PUSH2 0x1DF1 JUMP JUMPDEST PUSH1 0x60 DUP1 DUP7 ADD MLOAD SWAP1 DUP6 DUP4 SUB SWAP1 DUP7 ADD MSTORE PUSH2 0x1DF1 JUMP JUMPDEST PUSH1 0x80 DUP1 DUP6 ADD MLOAD SWAP1 DUP5 ADD MSTORE PUSH1 0xA0 DUP1 DUP6 ADD MLOAD SWAP1 DUP5 DUP4 SUB SWAP1 DUP6 ADD MSTORE PUSH2 0x1DF1 JUMP JUMPDEST SWAP2 PUSH1 0xC0 DUP1 DUP3 ADD MLOAD SWAP1 DUP4 ADD MSTORE PUSH1 0xE0 DUP1 DUP3 ADD MLOAD SWAP1 DUP4 ADD MSTORE PUSH2 0x100 DUP1 DUP3 ADD MLOAD SWAP1 DUP4 ADD MSTORE PUSH2 0x120 DUP1 SWAP2 ADD MLOAD ISZERO ISZERO SWAP2 ADD MSTORE SWAP10 ADD SWAP5 ADD SWAP5 ADD SWAP3 SWAP6 SWAP5 SWAP4 SWAP2 SWAP1 PUSH2 0x1E52 JUMP JUMPDEST PUSH1 0x3 SLOAD DUP2 LT ISZERO PUSH2 0x1F5B JUMPI PUSH1 0x3 PUSH1 0x0 MSTORE PUSH32 0xC2575A0E9E593C00F959F8C92F12DB2869C3395A3B0502D05E2516446F71F85B ADD SWAP1 PUSH1 0x0 SWAP1 JUMP JUMPDEST PUSH4 0x4E487B71 PUSH1 0xE0 SHL PUSH1 0x0 MSTORE PUSH1 0x32 PUSH1 0x4 MSTORE PUSH1 0x24 PUSH1 0x0 REVERT JUMPDEST PUSH1 0x1 SLOAD DUP2 LT ISZERO PUSH2 0x1F5B JUMPI PUSH1 0x1 PUSH1 0x0 MSTORE PUSH1 0x0 DUP1 MLOAD PUSH1 0x20 PUSH2 0x2646 DUP4 CODECOPY DUP2 MLOAD SWAP2 MSTORE ADD SWAP1 PUSH1 0x0 SWAP1 JUMP JUMPDEST DUP1 SLOAD DUP3 LT ISZERO PUSH2 0x1F5B JUMPI PUSH1 0x0 MSTORE PUSH1 0x20 PUSH1 0x0 KECCAK256 ADD SWAP1 PUSH1 0x0 SWAP1 JUMP JUMPDEST SWAP1 PUSH2 0xA91 JUMPI PUSH2 0x1CEC SWAP1 PUSH2 0x1D4C JUMP JUMPDEST ISZERO PUSH2 0x1FC3 JUMPI JUMP JUMPDEST PUSH1 0x40 MLOAD PUSH3 0x461BCD PUSH1 0xE5 SHL DUP2 MSTORE PUSH1 0x20 PUSH1 0x4 DUP3 ADD MSTORE PUSH1 0xF PUSH1 0x24 DUP3 ADD MSTORE PUSH15 0x53656564206E6F7420616374697665 PUSH1 0x88 SHL PUSH1 0x44 DUP3 ADD MSTORE PUSH1 0x64 SWAP1 REVERT JUMPDEST ISZERO PUSH2 0x2001 JUMPI JUMP JUMPDEST PUSH1 0x40 MLOAD PUSH3 0x461BCD PUSH1 0xE5 SHL DUP2 MSTORE PUSH1 0x20 PUSH1 0x4 DUP3 ADD MSTORE PUSH1 0x15 PUSH1 0x24 DUP3 ADD MSTORE PUSH21 0x496E76616C6964207061636B207175616E74697479 PUSH1 0x58 SHL PUSH1 0x44 DUP3 ADD MSTORE PUSH1 0x64 SWAP1 REVERT JUMPDEST SWAP2 SWAP1 DUP3 SUB SWAP2 DUP3 GT PUSH2 0xB5A JUMPI JUMP JUMPDEST DUP2 DUP2 MUL SWAP3 SWAP2 DUP2 ISZERO SWAP2 DUP5 DIV EQ OR ISZERO PUSH2 0xB5A JUMPI JUMP JUMPDEST ISZERO PUSH2 0x2065 JUMPI JUMP JUMPDEST PUSH1 0x40 MLOAD PUSH3 0x461BCD PUSH1 0xE5 SHL DUP2 MSTORE PUSH1 0x20 PUSH1 0x4 DUP3 ADD MSTORE PUSH1 0x16 PUSH1 0x24 DUP3 ADD MSTORE PUSH22 0x496E73756666696369656E7420616C6C6F77616E6365 PUSH1 0x50 SHL PUSH1 0x44 DUP3 ADD MSTORE PUSH1 0x64 SWAP1 REVERT JUMPDEST ISZERO PUSH2 0x20AA JUMPI JUMP JUMPDEST PUSH1 0x40 MLOAD PUSH3 0x461BCD PUSH1 0xE5 SHL DUP2 MSTORE PUSH1 0x20 PUSH1 0x4 DUP3 ADD MSTORE PUSH1 0x1A PUSH1 0x24 DUP3 ADD MSTORE PUSH32 0x496E73756666696369656E7420574545444C2062616C616E6365000000000000 PUSH1 0x44 DUP3 ADD MSTORE PUSH1 0x64 SWAP1 REVERT JUMPDEST PUSH2 0x2107 SWAP1 PUSH1 0x20 PUSH1 0x40 MLOAD SWAP3 DUP3 DUP5 DUP1 SWAP5 MLOAD SWAP4 DUP5 SWAP3 ADD PUSH2 0x1CEF JUMP JUMPDEST DUP2 ADD SUB SWAP1 KECCAK256 SWAP1 JUMP JUMPDEST PUSH1 0x1 PUSH1 0x1 PUSH1 0x40 SHL SUB DUP2 GT PUSH2 0x468 JUMPI PUSH1 0x5 SHL PUSH1 0x20 ADD SWAP1 JUMP JUMPDEST SWAP1 PUSH2 0x2130 DUP3 PUSH2 0x210F JUMP JUMPDEST PUSH1 0x40 SWAP1 PUSH2 0x2140 PUSH1 0x40 MLOAD SWAP2 DUP3 PUSH2 0x1C5E JUMP JUMPDEST DUP4 DUP2 MSTORE DUP1 SWAP4 PUSH2 0x2151 PUSH1 0x1F NOT SWAP2 PUSH2 0x210F JUMP JUMPDEST ADD SWAP2 PUSH1 0x0 JUMPDEST DUP4 DUP2 LT PUSH2 0x2163 JUMPI POP POP POP POP JUMP JUMPDEST PUSH1 0x20 SWAP1 DUP3 MLOAD PUSH2 0x2171 DUP2 PUSH2 0x1C42 JUMP JUMPDEST PUSH1 0x60 DUP1 DUP3 MSTORE DUP4 SWAP1 PUSH1 0x0 DUP3 DUP5 ADD MSTORE DUP1 DUP7 DUP5 ADD MSTORE DUP1 DUP1 DUP5 ADD MSTORE PUSH1 0x0 PUSH1 0x80 DUP5 ADD MSTORE PUSH1 0xA0 DUP4 ADD MSTORE PUSH1 0x0 PUSH1 0xC0 DUP4 ADD MSTORE PUSH1 0x0 PUSH1 0xE0 DUP4 ADD MSTORE PUSH1 0x0 PUSH2 0x100 DUP4 ADD MSTORE PUSH1 0x0 PUSH2 0x120 DUP4 ADD MSTORE DUP3 DUP7 ADD ADD MSTORE ADD PUSH2 0x2156 JUMP JUMPDEST DUP1 MLOAD DUP3 LT ISZERO PUSH2 0x1F5B JUMPI PUSH1 0x20 SWAP2 PUSH1 0x5 SHL ADD ADD SWAP1 JUMP JUMPDEST PUSH1 0x40 MLOAD SWAP1 DUP2 PUSH1 0x0 DUP3 SLOAD PUSH2 0x21E3 DUP2 PUSH2 0x1D12 JUMP JUMPDEST SWAP4 PUSH1 0x1 SWAP2 DUP1 DUP4 AND SWAP1 DUP2 ISZERO PUSH2 0x2249 JUMPI POP PUSH1 0x1 EQ PUSH2 0x220B JUMPI JUMPDEST POP POP PUSH1 0x20 SWAP3 POP PUSH1 0x2 DUP2 MSTORE SUB ADD SWAP1 KECCAK256 SWAP1 JUMP JUMPDEST SWAP1 SWAP2 POP PUSH1 0x0 MSTORE PUSH1 0x20 SWAP1 PUSH1 0x20 PUSH1 0x0 KECCAK256 SWAP1 PUSH1 0x0 SWAP2 JUMPDEST DUP6 DUP4 LT PUSH2 0x2235 JUMPI POP POP POP POP PUSH1 0x20 SWAP2 DUP2 ADD CODESIZE DUP1 PUSH2 0x21FA JUMP JUMPDEST DUP1 SLOAD DUP8 DUP5 ADD MSTORE DUP7 SWAP5 POP SWAP2 DUP4 ADD SWAP2 DUP2 ADD PUSH2 0x221E JUMP JUMPDEST SWAP3 POP POP POP PUSH1 0x20 SWAP4 SWAP2 POP PUSH1 0xFF NOT AND DUP3 MSTORE DUP1 ISZERO ISZERO MUL DUP2 ADD CODESIZE DUP1 PUSH2 0x21FA JUMP JUMPDEST PUSH1 0x0 NOT DUP2 EQ PUSH2 0xB5A JUMPI PUSH1 0x1 ADD SWAP1 JUMP JUMPDEST SWAP2 SWAP1 SWAP2 DUP3 MLOAD PUSH1 0x1 PUSH1 0x1 PUSH1 0x40 SHL SUB DUP2 GT PUSH2 0x468 JUMPI PUSH2 0x2291 DUP3 SLOAD PUSH2 0x1D12 JUMP JUMPDEST PUSH1 0x1F DUP2 GT PUSH2 0x233C JUMPI JUMPDEST POP PUSH1 0x20 DUP1 PUSH1 0x1F DUP4 GT PUSH1 0x1 EQ PUSH2 0x22D7 JUMPI POP DUP2 SWAP3 SWAP4 SWAP5 PUSH1 0x0 SWAP3 PUSH2 0x22CC JUMPI JUMPDEST POP POP DUP2 PUSH1 0x1 SHL SWAP2 PUSH1 0x0 NOT SWAP1 PUSH1 0x3 SHL SHR NOT AND OR SWAP1 SSTORE JUMP JUMPDEST ADD MLOAD SWAP1 POP CODESIZE DUP1 PUSH2 0x22B6 JUMP JUMPDEST SWAP1 PUSH1 0x1F NOT DUP4 AND SWAP6 DUP5 PUSH1 0x0 MSTORE PUSH1 0x20 PUSH1 0x0 KECCAK256 SWAP3 PUSH1 0x0 SWAP1 JUMPDEST DUP9 DUP3 LT PUSH2 0x2324 JUMPI POP POP DUP4 PUSH1 0x1 SWAP6 SWAP7 SWAP8 LT PUSH2 0x230B JUMPI JUMPDEST POP POP POP DUP2 SHL ADD SWAP1 SSTORE JUMP JUMPDEST ADD MLOAD PUSH1 0x0 NOT PUSH1 0xF8 DUP5 PUSH1 0x3 SHL AND SHR NOT AND SWAP1 SSTORE CODESIZE DUP1 DUP1 PUSH2 0x2301 JUMP JUMPDEST DUP1 PUSH1 0x1 DUP6 SWAP7 DUP3 SWAP5 SWAP7 DUP7 ADD MLOAD DUP2 SSTORE ADD SWAP6 ADD SWAP4 ADD SWAP1 PUSH2 0x22EC JUMP JUMPDEST PUSH1 0x0 DUP4 PUSH1 0x0 MSTORE PUSH1 0x20 PUSH1 0x0 KECCAK256 PUSH1 0x1F DUP5 ADD PUSH1 0x5 SHR DUP2 ADD SWAP3 PUSH1 0x20 DUP6 LT PUSH2 0x237C JUMPI JUMPDEST PUSH1 0x1F ADD PUSH1 0x5 SHR ADD SWAP2 JUMPDEST DUP3 DUP2 LT PUSH2 0x2371 JUMPI POP POP PUSH2 0x229A JUMP JUMPDEST DUP2 DUP2 SSTORE PUSH1 0x1 ADD PUSH2 0x2363 JUMP JUMPDEST SWAP1 SWAP3 POP DUP3 SWAP1 PUSH2 0x235A JUMP JUMPDEST PUSH1 0x1 PUSH1 0x1 PUSH1 0xA0 SHL SUB SWAP1 DUP2 AND SWAP1 DUP2 ISZERO PUSH2 0x23E1 JUMPI PUSH1 0x0 DUP1 MLOAD PUSH1 0x20 PUSH2 0x2626 DUP4 CODECOPY DUP2 MLOAD SWAP2 MSTORE DUP1 SLOAD PUSH1 0x1 PUSH1 0x1 PUSH1 0xA0 SHL SUB NOT DUP2 AND DUP5 OR SWAP1 SWAP2 SSTORE AND PUSH32 0x8BE0079C531659141344CD1FD0A4F28419497F9722A3DAAFE3B4186F6B6457E0 PUSH1 0x0 DUP1 LOG3 JUMP JUMPDEST PUSH1 0x40 MLOAD PUSH4 0x1E4FBDF7 PUSH1 0xE0 SHL DUP2 MSTORE PUSH1 0x0 PUSH1 0x4 DUP3 ADD MSTORE PUSH1 0x24 SWAP1 REVERT JUMPDEST PUSH1 0x0 DUP1 MLOAD PUSH1 0x20 PUSH2 0x2686 DUP4 CODECOPY DUP2 MLOAD SWAP2 MSTORE PUSH1 0x2 DUP2 SLOAD EQ PUSH2 0x2418 JUMPI PUSH1 0x2 SWAP1 SSTORE JUMP JUMPDEST PUSH1 0x40 MLOAD PUSH4 0x3EE5AEB5 PUSH1 0xE0 SHL DUP2 MSTORE PUSH1 0x4 SWAP1 REVERT JUMPDEST PUSH1 0xFF PUSH1 0x0 DUP1 MLOAD PUSH1 0x20 PUSH2 0x2666 DUP4 CODECOPY DUP2 MLOAD SWAP2 MSTORE SLOAD AND PUSH2 0x2443 JUMPI JUMP JUMPDEST PUSH1 0x40 MLOAD PUSH4 0xD93C0665 PUSH1 0xE0 SHL DUP2 MSTORE PUSH1 0x4 SWAP1 REVERT JUMPDEST PUSH1 0x40 MLOAD PUSH4 0x23B872DD PUSH1 0xE0 SHL PUSH1 0x20 DUP3 ADD MSTORE PUSH1 0x1 PUSH1 0x1 PUSH1 0xA0 SHL SUB SWAP3 DUP4 AND PUSH1 0x24 DUP3 ADD MSTORE SWAP3 SWAP1 SWAP2 AND PUSH1 0x44 DUP4 ADD MSTORE PUSH1 0x64 DUP1 DUP4 ADD SWAP4 SWAP1 SWAP4 MSTORE SWAP2 DUP2 MSTORE PUSH1 0xA0 DUP2 ADD SWAP2 DUP2 DUP4 LT PUSH1 0x1 PUSH1 0x1 PUSH1 0x40 SHL SUB DUP5 GT OR PUSH2 0x468 JUMPI PUSH2 0x1D8E SWAP3 PUSH1 0x40 MSTORE PUSH2 0x2525 JUMP JUMPDEST PUSH1 0x0 DUP1 MLOAD PUSH1 0x20 PUSH2 0x2626 DUP4 CODECOPY DUP2 MLOAD SWAP2 MSTORE SLOAD PUSH1 0x1 PUSH1 0x1 PUSH1 0xA0 SHL SUB AND CALLER SUB PUSH2 0x24CE JUMPI JUMP JUMPDEST PUSH1 0x40 MLOAD PUSH4 0x118CDAA7 PUSH1 0xE0 SHL DUP2 MSTORE CALLER PUSH1 0x4 DUP3 ADD MSTORE PUSH1 0x24 SWAP1 REVERT JUMPDEST PUSH1 0x0 PUSH1 0x1 SWAP2 PUSH1 0x1 SLOAD SWAP2 JUMPDEST DUP3 DUP2 LT PUSH2 0x2500 JUMPI POP POP POP POP PUSH1 0x0 SWAP1 JUMP JUMPDEST DUP1 PUSH2 0x250B DUP6 SWAP3 PUSH2 0x1F71 JUMP JUMPDEST SWAP1 SLOAD SWAP1 PUSH1 0x3 SHL SHR DUP4 EQ PUSH2 0x251E JUMPI ADD PUSH2 0x24F0 JUMP JUMPDEST POP POP POP POP SWAP1 JUMP JUMPDEST SWAP1 PUSH1 0x0 PUSH1 0x20 SWAP2 DUP3 DUP2 MLOAD SWAP2 ADD DUP3 DUP6 GAS CALL ISZERO PUSH2 0xADD JUMPI PUSH1 0x0 MLOAD RETURNDATASIZE PUSH2 0x2578 JUMPI POP PUSH1 0x1 PUSH1 0x1 PUSH1 0xA0 SHL SUB DUP2 AND EXTCODESIZE ISZERO JUMPDEST PUSH2 0x2556 JUMPI POP JUMP JUMPDEST PUSH1 0x40 MLOAD PUSH4 0x5274AFE7 PUSH1 0xE0 SHL DUP2 MSTORE PUSH1 0x1 PUSH1 0x1 PUSH1 0xA0 SHL SUB SWAP1 SWAP2 AND PUSH1 0x4 DUP3 ADD MSTORE PUSH1 0x24 SWAP1 REVERT JUMPDEST PUSH1 0x1 EQ ISZERO PUSH2 0x254F JUMP JUMPDEST PUSH1 0xFF PUSH32 0xF0C57E16840DF040F15088DC2F81FE391C3923BEC73E23A9662EFC9C229C6A00 SLOAD PUSH1 0x40 SHR AND ISZERO PUSH2 0x25B0 JUMPI JUMP JUMPDEST PUSH1 0x40 MLOAD PUSH4 0x1AFCD79F PUSH1 0xE3 SHL DUP2 MSTORE PUSH1 0x4 SWAP1 REVERT JUMPDEST SWAP1 PUSH2 0x25E9 JUMPI POP DUP1 MLOAD ISZERO PUSH2 0x25D7 JUMPI PUSH1 0x20 DUP2 MLOAD SWAP2 ADD REVERT JUMPDEST PUSH1 0x40 MLOAD PUSH4 0xD6BDA275 PUSH1 0xE0 SHL DUP2 MSTORE PUSH1 0x4 SWAP1 REVERT JUMPDEST DUP2 MLOAD ISZERO DUP1 PUSH2 0x261C JUMPI JUMPDEST PUSH2 0x25FA JUMPI POP SWAP1 JUMP JUMPDEST PUSH1 0x40 MLOAD PUSH4 0x9996B315 PUSH1 0xE0 SHL DUP2 MSTORE PUSH1 0x1 PUSH1 0x1 PUSH1 0xA0 SHL SUB SWAP1 SWAP2 AND PUSH1 0x4 DUP3 ADD MSTORE PUSH1 0x24 SWAP1 REVERT JUMPDEST POP DUP1 EXTCODESIZE ISZERO PUSH2 0x25F2 JUMP INVALID SWAP1 AND 0xD0 SWAP14 PUSH19 0xD40FDAE2FD8CEAC6B6234C7706214FD39C1CD1 0xE6 MULMOD LOG0 MSTORE DUP13 NOT SWAP4 STOP 0xB1 0xE 0x2D MSTORE PUSH23 0x12073B26EECDFD717E6A320CF44B4AFAC2B0732D9FCBE2 0xB7 STATICCALL 0xC 0xF6 0xCD 0x5E 0xD1 0x5C PUSH15 0x187E77E9AEE88184C21F4F2182AB58 0x27 0xCB EXTCODESIZE PUSH31 0x7FBEDCD63F033009B779B17422D0DF92223018B32B4D1FA46E071723D6817 0xE2 BASEFEE PUSH14 0x3BECC55F00A264697066735822 SLT KECCAK256 0xDD PUSH19 0x382C9707790ECAC4DBC42115854C3DFBE5F4D4 PUSH14 0x6397B0472A4721C026CF64736F6C PUSH4 0x43000816 STOP CALLER "},"methodIdentifiers":{"FEE_BASIS_POINTS()":"a525ad3c","MAX_CONTACT_LENGTH()":"f2bc9a0e","MAX_DISCOUNT()":"e3495569","MAX_QUANTITY()":"e41ee46a","MAX_SEED_ID_LENGTH()":"e42a9247","MIN_PRICE()":"ad9f20a6","UPGRADE_INTERFACE_VERSION()":"ad3cb1cc","delistSeed(string)":"47289597","getAllSeeds()":"a25b0561","getSellerSeeds(address)":"4aa93dd2","getValidPackSizes()":"c0217e3a","initialize(address)":"c4d66de8","isSeedIdAvailable(string)":"833bb129","listSeed(string,string,uint256,string,string,uint256,uint256,uint256)":"a9b96363","owner()":"8da5cb5b","pause()":"8456cb59","paused()":"5c975abb","proxiableUUID()":"52d1902d","purchaseSeed(string,uint256)":"391f0bb4","renounceOwnership()":"715018a6","seedIds(uint256)":"635d5c10","seeds(string)":"0d6f7e9c","sellerSeeds(address,uint256)":"e5b6addd","transferOwnership(address)":"f2fde38b","unpause()":"3f4ba83a","upgradeToAndCall(address,bytes)":"4f1ef286","validPackSizes(uint256)":"c0116a69","weedlToken()":"3b9c8cfe","withdrawFees()":"476343ee"}},"storageLayout":{"storage":[{"astId":6706,"contract":"contracts/GreenFiSeed.sol:GreenFiSeed","label":"weedlToken","offset":0,"slot":"0","type":"t_contract(IERC20)2514"},{"astId":6727,"contract":"contracts/GreenFiSeed.sol:GreenFiSeed","label":"validPackSizes","offset":0,"slot":"1","type":"t_array(t_uint256)dyn_storage"},{"astId":6753,"contract":"contracts/GreenFiSeed.sol:GreenFiSeed","label":"seeds","offset":0,"slot":"2","type":"t_mapping(t_string_memory_ptr,t_struct(Seed)6748_storage)"},{"astId":6756,"contract":"contracts/GreenFiSeed.sol:GreenFiSeed","label":"seedIds","offset":0,"slot":"3","type":"t_array(t_string_storage)dyn_storage"},{"astId":6761,"contract":"contracts/GreenFiSeed.sol:GreenFiSeed","label":"sellerSeeds","offset":0,"slot":"4","type":"t_mapping(t_address,t_array(t_string_storage)dyn_storage)"}],"types":{"t_address":{"encoding":"inplace","label":"address","numberOfBytes":"20"},"t_array(t_string_storage)dyn_storage":{"base":"t_string_storage","encoding":"dynamic_array","label":"string[]","numberOfBytes":"32"},"t_array(t_uint256)dyn_storage":{"base":"t_uint256","encoding":"dynamic_array","label":"uint256[]","numberOfBytes":"32"},"t_bool":{"encoding":"inplace","label":"bool","numberOfBytes":"1"},"t_contract(IERC20)2514":{"encoding":"inplace","label":"contract IERC20","numberOfBytes":"20"},"t_mapping(t_address,t_array(t_string_storage)dyn_storage)":{"encoding":"mapping","key":"t_address","label":"mapping(address => string[])","numberOfBytes":"32","value":"t_array(t_string_storage)dyn_storage"},"t_mapping(t_string_memory_ptr,t_struct(Seed)6748_storage)":{"encoding":"mapping","key":"t_string_memory_ptr","label":"mapping(string => struct GreenFiSeed.Seed)","numberOfBytes":"32","value":"t_struct(Seed)6748_storage"},"t_string_memory_ptr":{"encoding":"bytes","label":"string","numberOfBytes":"32"},"t_string_storage":{"encoding":"bytes","label":"string","numberOfBytes":"32"},"t_struct(Seed)6748_storage":{"encoding":"inplace","label":"struct GreenFiSeed.Seed","members":[{"astId":6729,"contract":"contracts/GreenFiSeed.sol:GreenFiSeed","label":"id","offset":0,"slot":"0","type":"t_string_storage"},{"astId":6731,"contract":"contracts/GreenFiSeed.sol:GreenFiSeed","label":"seller","offset":0,"slot":"1","type":"t_address"},{"astId":6733,"contract":"contracts/GreenFiSeed.sol:GreenFiSeed","label":"metadataURI","offset":0,"slot":"2","type":"t_string_storage"},{"astId":6735,"contract":"contracts/GreenFiSeed.sol:GreenFiSeed","label":"strain","offset":0,"slot":"3","type":"t_string_storage"},{"astId":6737,"contract":"contracts/GreenFiSeed.sol:GreenFiSeed","label":"price","offset":0,"slot":"4","type":"t_uint256"},{"astId":6739,"contract":"contracts/GreenFiSeed.sol:GreenFiSeed","label":"contactInfo","offset":0,"slot":"5","type":"t_string_storage"},{"astId":6741,"contract":"contracts/GreenFiSeed.sol:GreenFiSeed","label":"packSize","offset":0,"slot":"6","type":"t_uint256"},{"astId":6743,"contract":"contracts/GreenFiSeed.sol:GreenFiSeed","label":"packQuantity","offset":0,"slot":"7","type":"t_uint256"},{"astId":6745,"contract":"contracts/GreenFiSeed.sol:GreenFiSeed","label":"discount","offset":0,"slot":"8","type":"t_uint256"},{"astId":6747,"contract":"contracts/GreenFiSeed.sol:GreenFiSeed","label":"isActive","offset":0,"slot":"9","type":"t_bool"}],"numberOfBytes":"320"},"t_uint256":{"encoding":"inplace","label":"uint256","numberOfBytes":"32"}}}}}}