{"contracts/GreenFiBorrow.sol":{"GreenFiBorrow":{"abi":[{"inputs":[{"internalType":"address","name":"target","type":"address"}],"name":"AddressEmptyCode","type":"error"},{"inputs":[{"internalType":"address","name":"implementation","type":"address"}],"name":"ERC1967InvalidImplementation","type":"error"},{"inputs":[],"name":"ERC1967NonPayable","type":"error"},{"inputs":[],"name":"FailedCall","type":"error"},{"inputs":[],"name":"InvalidInitialization","type":"error"},{"inputs":[],"name":"NotInitializing","type":"error"},{"inputs":[{"internalType":"address","name":"owner","type":"address"}],"name":"OwnableInvalidOwner","type":"error"},{"inputs":[{"internalType":"address","name":"account","type":"address"}],"name":"OwnableUnauthorizedAccount","type":"error"},{"inputs":[],"name":"ReentrancyGuardReentrantCall","type":"error"},{"inputs":[{"internalType":"address","name":"token","type":"address"}],"name":"SafeERC20FailedOperation","type":"error"},{"inputs":[],"name":"UUPSUnauthorizedCallContext","type":"error"},{"inputs":[{"internalType":"bytes32","name":"slot","type":"bytes32"}],"name":"UUPSUnsupportedProxiableUUID","type":"error"},{"anonymous":false,"inputs":[{"indexed":false,"internalType":"string","name":"id","type":"string"},{"indexed":true,"internalType":"address","name":"borrower","type":"address"},{"indexed":false,"internalType":"string","name":"landId","type":"string"},{"indexed":false,"internalType":"uint256","name":"amount","type":"uint256"},{"indexed":false,"internalType":"uint256","name":"fee","type":"uint256"},{"indexed":false,"internalType":"uint256","name":"duration","type":"uint256"},{"indexed":false,"internalType":"string","name":"contactInfo","type":"string"},{"indexed":false,"internalType":"string","name":"purpose","type":"string"},{"indexed":false,"internalType":"string","name":"collateralInfo","type":"string"},{"indexed":false,"internalType":"string","name":"latitude","type":"string"},{"indexed":false,"internalType":"string","name":"longitude","type":"string"}],"name":"BorrowingCreated","type":"event"},{"anonymous":false,"inputs":[{"indexed":false,"internalType":"string","name":"id","type":"string"},{"indexed":true,"internalType":"address","name":"borrower","type":"address"}],"name":"BorrowingEnded","type":"event"},{"anonymous":false,"inputs":[{"indexed":false,"internalType":"uint64","name":"version","type":"uint64"}],"name":"Initialized","type":"event"},{"anonymous":false,"inputs":[{"indexed":false,"internalType":"string","name":"id","type":"string"},{"indexed":true,"internalType":"address","name":"lender","type":"address"},{"indexed":false,"internalType":"uint256","name":"amount","type":"uint256"}],"name":"LentToBorrowing","type":"event"},{"anonymous":false,"inputs":[{"indexed":true,"internalType":"address","name":"previousOwner","type":"address"},{"indexed":true,"internalType":"address","name":"newOwner","type":"address"}],"name":"OwnershipTransferred","type":"event"},{"anonymous":false,"inputs":[{"indexed":false,"internalType":"string","name":"id","type":"string"},{"indexed":true,"internalType":"address","name":"borrower","type":"address"},{"indexed":false,"internalType":"uint256","name":"amount","type":"uint256"}],"name":"RepaidBorrowing","type":"event"},{"anonymous":false,"inputs":[{"indexed":true,"internalType":"address","name":"implementation","type":"address"}],"name":"Upgraded","type":"event"},{"inputs":[],"name":"FEE_BASIS_POINTS","outputs":[{"internalType":"uint256","name":"","type":"uint256"}],"stateMutability":"view","type":"function"},{"inputs":[],"name":"UPGRADE_INTERFACE_VERSION","outputs":[{"internalType":"string","name":"","type":"string"}],"stateMutability":"view","type":"function"},{"inputs":[{"internalType":"uint256","name":"","type":"uint256"}],"name":"borrowingIds","outputs":[{"internalType":"string","name":"","type":"string"}],"stateMutability":"view","type":"function"},{"inputs":[{"internalType":"string","name":"","type":"string"}],"name":"borrowings","outputs":[{"internalType":"string","name":"id","type":"string"},{"internalType":"address","name":"borrower","type":"address"},{"internalType":"string","name":"landId","type":"string"},{"internalType":"uint256","name":"amount","type":"uint256"},{"internalType":"uint256","name":"fee","type":"uint256"},{"internalType":"uint256","name":"duration","type":"uint256"},{"internalType":"uint256","name":"startTime","type":"uint256"},{"internalType":"bool","name":"isActive","type":"bool"},{"internalType":"string","name":"contactInfo","type":"string"},{"internalType":"string","name":"purpose","type":"string"},{"internalType":"string","name":"collateralInfo","type":"string"},{"internalType":"string","name":"latitude","type":"string"},{"internalType":"string","name":"longitude","type":"string"},{"internalType":"uint256","name":"totalLent","type":"uint256"},{"internalType":"uint256","name":"totalRepaid","type":"uint256"}],"stateMutability":"view","type":"function"},{"inputs":[{"internalType":"uint256","name":"_amount","type":"uint256"}],"name":"calculateFee","outputs":[{"internalType":"uint256","name":"","type":"uint256"}],"stateMutability":"pure","type":"function"},{"inputs":[{"internalType":"string","name":"_id","type":"string"},{"internalType":"string","name":"_landId","type":"string"},{"internalType":"uint256","name":"_amount","type":"uint256"},{"internalType":"uint256","name":"_duration","type":"uint256"},{"internalType":"string","name":"_contactInfo","type":"string"},{"internalType":"string","name":"_purpose","type":"string"},{"internalType":"string","name":"_collateralInfo","type":"string"},{"internalType":"string","name":"_latitude","type":"string"},{"internalType":"string","name":"_longitude","type":"string"}],"name":"createBorrowing","outputs":[],"stateMutability":"nonpayable","type":"function"},{"inputs":[{"internalType":"string","name":"_id","type":"string"}],"name":"endBorrowing","outputs":[],"stateMutability":"nonpayable","type":"function"},{"inputs":[],"name":"getAllBorrowings","outputs":[{"components":[{"internalType":"string","name":"id","type":"string"},{"internalType":"address","name":"borrower","type":"address"},{"internalType":"string","name":"landId","type":"string"},{"internalType":"uint256","name":"amount","type":"uint256"},{"internalType":"uint256","name":"fee","type":"uint256"},{"internalType":"uint256","name":"duration","type":"uint256"},{"internalType":"uint256","name":"startTime","type":"uint256"},{"internalType":"bool","name":"isActive","type":"bool"},{"internalType":"string","name":"contactInfo","type":"string"},{"internalType":"string","name":"purpose","type":"string"},{"internalType":"string","name":"collateralInfo","type":"string"},{"internalType":"string","name":"latitude","type":"string"},{"internalType":"string","name":"longitude","type":"string"},{"internalType":"uint256","name":"totalLent","type":"uint256"},{"internalType":"uint256","name":"totalRepaid","type":"uint256"}],"internalType":"struct GreenFiBorrow.BorrowingInfo[]","name":"","type":"tuple[]"}],"stateMutability":"view","type":"function"},{"inputs":[{"internalType":"string","name":"_id","type":"string"},{"internalType":"address","name":"_lender","type":"address"}],"name":"getLenderContribution","outputs":[{"internalType":"uint256","name":"","type":"uint256"}],"stateMutability":"view","type":"function"},{"inputs":[{"internalType":"string","name":"_id","type":"string"}],"name":"getLenders","outputs":[{"internalType":"address[]","name":"","type":"address[]"}],"stateMutability":"view","type":"function"},{"inputs":[{"internalType":"address","name":"_user","type":"address"}],"name":"getUserBorrowings","outputs":[{"components":[{"internalType":"string","name":"id","type":"string"},{"internalType":"address","name":"borrower","type":"address"},{"internalType":"string","name":"landId","type":"string"},{"internalType":"uint256","name":"amount","type":"uint256"},{"internalType":"uint256","name":"fee","type":"uint256"},{"internalType":"uint256","name":"duration","type":"uint256"},{"internalType":"uint256","name":"startTime","type":"uint256"},{"internalType":"bool","name":"isActive","type":"bool"},{"internalType":"string","name":"contactInfo","type":"string"},{"internalType":"string","name":"purpose","type":"string"},{"internalType":"string","name":"collateralInfo","type":"string"},{"internalType":"string","name":"latitude","type":"string"},{"internalType":"string","name":"longitude","type":"string"},{"internalType":"uint256","name":"totalLent","type":"uint256"},{"internalType":"uint256","name":"totalRepaid","type":"uint256"}],"internalType":"struct GreenFiBorrow.BorrowingInfo[]","name":"","type":"tuple[]"}],"stateMutability":"view","type":"function"},{"inputs":[{"internalType":"address","name":"_weedlToken","type":"address"}],"name":"initialize","outputs":[],"stateMutability":"nonpayable","type":"function"},{"inputs":[{"internalType":"string","name":"_id","type":"string"},{"internalType":"uint256","name":"_amount","type":"uint256"}],"name":"lendToBorrowing","outputs":[],"stateMutability":"nonpayable","type":"function"},{"inputs":[],"name":"owner","outputs":[{"internalType":"address","name":"","type":"address"}],"stateMutability":"view","type":"function"},{"inputs":[],"name":"proxiableUUID","outputs":[{"internalType":"bytes32","name":"","type":"bytes32"}],"stateMutability":"view","type":"function"},{"inputs":[],"name":"renounceOwnership","outputs":[],"stateMutability":"nonpayable","type":"function"},{"inputs":[{"internalType":"string","name":"_id","type":"string"},{"internalType":"uint256","name":"_amount","type":"uint256"}],"name":"repayBorrowing","outputs":[],"stateMutability":"nonpayable","type":"function"},{"inputs":[{"internalType":"address","name":"newOwner","type":"address"}],"name":"transferOwnership","outputs":[],"stateMutability":"nonpayable","type":"function"},{"inputs":[{"internalType":"address","name":"newImplementation","type":"address"},{"internalType":"bytes","name":"data","type":"bytes"}],"name":"upgradeToAndCall","outputs":[],"stateMutability":"payable","type":"function"},{"inputs":[{"internalType":"address","name":"","type":"address"},{"internalType":"uint256","name":"","type":"uint256"}],"name":"userBorrowings","outputs":[{"internalType":"string","name":"","type":"string"}],"stateMutability":"view","type":"function"},{"inputs":[],"name":"weedlToken","outputs":[{"internalType":"contract IERC20","name":"","type":"address"}],"stateMutability":"view","type":"function"}],"evm":{"bytecode":{"linkReferences":{},"object":"60a0806040523461002a57306080526125a490816100308239608051818181610f430152610ffc0152f35b600080fdfe6080604052600436101561001257600080fd5b60e060003560e01c9081630e7e5ffd14611b4f57816315a96fbb1461154b5781633b9c8cfe146115225781633e63680d1461132b578163494d7687146111db5781634f1ef28614610fad57816352d1902d14610f305781635d269e5114610d6657508063715018a614610cfc5780638da5cb5b14610cc657806399a5d74714610ca0578063a043d48d14610bb8578063a525ad3c14610b9c578063ad3cb1cc14610b44578063ae5c6fff14610adb578063b5bbbae4146107a1578063c4d66de8146105e2578063db138b4514610442578063dd471337146103d7578063ecf83dc3146101375763f2fde38b1461010757600080fd5b3461013257602036600319011261013257610130610123611dbf565b61012b6123e9565b61218c565b005b600080fd5b346101325761014536611f2a565b61014d612200565b6040519182815160209481610166879383858801611d0a565b810160018152030190209161018160ff600785015416612084565b80156103875761019a6006840154600585015490611f81565b421161034257600d83016101af828254611f81565b6003850154106102ff576000546001600160a01b0391906101d7908490309033908616612230565b601085013360005280875260406000205415610280575b9461024d9284927fc8153f350d75779be66fa143a419a6b9e1d69626e49e410ffba47a6efb4dee3e97336000528952604060002061022d858254611f81565b905561023a848254611f81565b905560018160005416920154169061239a565b61026260405192604084526040840190611d2d565b938201528033930390a2600160008051602061254f83398151915255005b94600f810192835492600160401b8410156102e9577fc8153f350d75779be66fa143a419a6b9e1d69626e49e410ffba47a6efb4dee3e976102cb8561024d9760018a98018155611bc5565b81549060031b908533831b921b1916179055929750925092506101ee565b634e487b7160e01b600052604160045260246000fd5b6064856040519062461bcd60e51b825280600483015260248201527f4c656e64696e6720657863656564732072657175657374656420616d6f756e746044820152fd5b60405162461bcd60e51b815260048101859052601e60248201527f426f72726f77696e67206475726174696f6e20686173206578706972656400006044820152606490fd5b60405162461bcd60e51b815260048101859052602260248201527f4c656e6420616d6f756e74206d7573742062652067726561746572207468616e604482015261020360f41b6064820152608490fd5b34610132576040366003190112610132576103f0611dbf565b6001600160a01b031660009081526003602052604090208054602435908110156101325761042461042a9161043e93611bc5565b90611cf9565b604051918291602083526020830190611d2d565b0390f35b34610132576020366003190112610132576004356001600160401b03811161013257610472903690600401611da4565b604051818180935160208193019161048992611d0a565b81016001815203602001902061049e81611c54565b600182015490916001600160a01b03909116906104bd60028201611c54565b92600382015490600483015490600584015490600685015490600786015460ff1690600887016104ec90611c54565b906104f960098901611c54565b92610506600a8a01611c54565b94610513600b8b01611c54565b96610520600c8c01611c54565b98600d8c01549b600e01549a6040519e8f9e8f976101e0808a52890161054591611d2d565b906020890152878103604089015261055c91611d2d565b956060015260808d015260a08c015260c08b0152151560e08a01528881036101008a015261058991611d2d565b87810361012089015261059b91611d2d565b8681036101408801526105ad91611d2d565b8581036101608701526105bf91611d2d565b8481036101808601526105d191611d2d565b916101a08401526101c08301520390f35b34610132576020366003190112610132576105fb611dbf565b7ff0c57e16840df040f15088dc2f81fe391c3923bec73e23a9662efc9c229c6a009081549060ff8260401c1615916001600160401b03811680159081610799575b600114908161078f575b159081610786575b506107745767ffffffffffffffff198116600117845582610755575b5061067361248a565b61067b61248a565b6106843361218c565b61068c61248a565b61069461248a565b61069c61248a565b600160008051602061254f833981519152556001600160a01b03168015610718576bffffffffffffffffffffffff60a01b60005416176000556106db57005b68ff00000000000000001981541690557fc7f505b2f371ae2175ee4913f4499e1f2633a7b5936321eed1cdaeb6115181d2602060405160018152a1005b60405162461bcd60e51b8152602060048201526015602482015274496e76616c696420746f6b656e206164647265737360581b6044820152606490fd5b68ffffffffffffffffff1916680100000000000000011783558361066a565b60405163f92ee8a960e01b8152600490fd5b9050158561064e565b303b159150610646565b84915061063c565b34610132576107af36611f2a565b906107b8612200565b60405160208183516107cd8183858801611d0a565b8101600181520301902060018060a01b036001820154163303610a96576107fa60ff600783015416612084565b8215610a455761080e83600e830154611f81565b600d82015410610a0057600054610833908490309033906001600160a01b0316612230565b61084183600e830154611f81565b600e82015560005b600f8201548110156109495761086281600f8401611bc5565b905460039190911b1c6001600160a01b03169081151580610930575b61088d575b6001915001610849565b816000526010830160205260406000205491828681020486148315171561091a57600d84015480156109045786600194020490816108cd575b5050610883565b6108e18282868060a01b036000541661239a565b600052601084016020526108fb60406000209182546120d0565b905585806108c6565b634e487b7160e01b600052601260045260246000fd5b634e487b7160e01b600052601160045260246000fd5b508160005260108301602052604060002054151561087e565b50827f6052df171eec68d8662ffc10214cf42c318aa882862fc729de6746ffc6d2c538604051604081526109806040820186611d2d565b9260208201528033930390a2600e810154600d82015411156109b1575b600160008051602061254f83398151915255005b600760ff1981830154169101557fdecc5f5a8dcdf1c8aa17e12213169c28b4d8de95678aa033c3063eb6530e6b4360405160208152806109f633946020830190611d2d565b0390a2808061099d565b60405162461bcd60e51b815260206004820152601d60248201527f52657061796d656e742065786365656473206c656e7420616d6f756e740000006044820152606490fd5b60405162461bcd60e51b815260206004820152602360248201527f526570617920616d6f756e74206d75737420626520677265617465722074686160448201526206e20360ec1b6064820152608490fd5b60405162461bcd60e51b815260206004820152601760248201527f4f6e6c7920626f72726f7765722063616e2072657061790000000000000000006044820152606490fd5b34610132576040366003190112610132576004356001600160401b03811161013257610b0b903690600401611da4565b6024356001600160a01b038116919082900361013257610b2c601091611f5b565b01906000526020526020604060002054604051908152f35b346101325760003660031901126101325760405160408101908082106001600160401b038311176102e95761043e9160405260058152640352e302e360dc1b6020820152604051918291602083526020830190611d2d565b34610132576000366003190112610132576020604051602a8152f35b3461013257602080600319360112610132576004356001600160401b03811161013257610be9903690600401611da4565b90600f81610c006040519485815193849201611d0a565b83019282816001956001815203019020019160405191828185549182815201908195600052826000209060005b818110610c845750505083610c43910384611c33565b60405192818401908285525180915260408401949160005b828110610c685785870386f35b83516001600160a01b0316875295810195928101928401610c5b565b82546001600160a01b0316845292840192918501918501610c2d565b34610132576020366003190112610132576020610cbe600435612171565b604051908152f35b346101325760003660031901126101325760008051602061252f833981519152546040516001600160a01b039091168152602090f35b3461013257600036600319011261013257610d156123e9565b60008051602061252f83398151915280546001600160a01b031981169091556000906001600160a01b03167f8be0079c531659141344cd1fd0a4f28419497f9722a3daafe3b4186f6b6457e08280a3005b346101325760003660031901126101325760028054906000805b838110610efc5750610d9190611fc8565b9260009060005b848110610dad576040518061043e8882611dd5565b610dc984610dba83611b78565b5060ff809160079485916120dd565b015416610ddc575b505050600101610d98565b610ef392849692610ec6600c602094610dff610df960019a611b78565b506120dd565b90898060a01b038a830154169560038301549160048401546005850154916006860154938601541693610e59600d87015499600e8801549b6040519d8e610e4581611c17565b610e4e8b611c54565b815201528701611c54565b60408c015260608b015260808a015260a089015260c088015215158a870152610e8460088201611c54565b610100870152610e9660098201611c54565b610120870152610ea8600a8201611c54565b610140870152610eba600b8201611c54565b61016087015201611c54565b6101808401526101a08301526101c0820152610ee2828a611fa5565b52610eed8189611fa5565b50611fb9565b92908488610dd1565b60ff6007610f0c610df984611b78565b015416610f1c575b600101610d80565b90610f28600191611fb9565b919050610f14565b34610132576000366003190112610132577f00000000000000000000000000000000000000000000000000000000000000006001600160a01b03163003610f9b5760206040517f360894a13ba1a3210667c828492db98dca3e2076cc3735a920a3ca505d382bbc8152f35b60405163703e46dd60e11b8152600490fd5b604036600319011261013257610fc1611dbf565b6024356001600160401b038111610132573660238201121561013257610ff1903690602481600401359101611d6d565b906001600160a01b037f000000000000000000000000000000000000000000000000000000000000000081163081149081156111ad575b50610f9b576110356123e9565b6040516352d1902d60e01b8152908216916020918281600481875afa6000918161117e575b5061107857604051634c9c8ce360e01b815260048101859052602490fd5b9284937f360894a13ba1a3210667c828492db98dca3e2076cc3735a920a3ca505d382bbc908181036111665750823b1561114d5780546001600160a01b03191682179055604051907fbc7cd75a20ee27fd9adebab32041f755214dbc6bffa90cc0225b39da2e5c2d3b600080a28351156111335750600080848461013096519101845af4903d1561112a573d61110d81611d52565b9061111b6040519283611c33565b8152600081943d92013e6124cb565b606092506124cb565b925050503461113e57005b63b398979f60e01b8152600490fd5b604051634c9c8ce360e01b815260048101839052602490fd5b60249060405190632a87526960e21b82526004820152fd5b9091508381813d83116111a6575b6111968183611c33565b810103126101325751908661105a565b503d61118c565b9050817f360894a13ba1a3210667c828492db98dca3e2076cc3735a920a3ca505d382bbc5416141584611028565b3461013257602080600319360112610132576004356001600160401b0381116101325761120c903690600401611da4565b611214612200565b604051828183516112288183858801611d0a565b8101600181520301902060018060a01b038060018301541633036112e65791817fdecc5f5a8dcdf1c8aa17e12213169c28b4d8de95678aa033c3063eb6530e6b439360076112ae9401805461127f60ff8216612084565b60ff19169055600d6003830154920154918281116112c5575b5050506040519182918583523395830190611d2d565b0390a2600160008051602061254f83398151915255005b6112de926112d2916120d0565b9033906000541661239a565b848080611298565b60405162461bcd60e51b815260048101859052601f60248201527f4f6e6c7920626f72726f7765722063616e20656e6420626f72726f77696e67006044820152606490fd5b346101325760209081600319360112610132576001600160a01b039182611350611dbf565b1660005260039060038152604060002093845461136c81611f8e565b9561137a6040519788611c33565b8187526000908152838120848089015b84841061150457505050505060009260005b86518110156113e05760ff60076113bc6113b6848b611fa5565b51611f5b565b0154166113cc575b60010161139c565b936113d8600191611fb9565b9490506113c4565b50846113ed879495611fc8565b9160009260005b86518110156114f6578760ff60078982826114126113b68885611fa5565b015416611426575b505050506001016113f4565b916114ea93916114c3600c6114426113b68960019a9e98611fa5565b8d8982015416948b820154946004830154916005840154906006850154928501541692600d85015497600e860154996040519b61147e8d611c17565b61148788611c54565b8d528c015261149860028701611c54565b60408c015260608b015260808a015260a089015260c088015215158c870152610e8460088201611c54565b6101808401526101a08301526101c08201526114df8286611fa5565b52610eed8185611fa5565b9490508789808961141a565b6040518061043e8482611dd5565b600191829161151285611c54565b815201920192019190859061138a565b34610132576000366003190112610132576000546040516001600160a01b039091168152602090f35b3461013257610120366003190112610132576001600160401b036004358181116101325761157d903690600401611da4565b60243582811161013257611595903690600401611da4565b608435838111610132576115ad903690600401611da4565b9160a435848111610132576115c6903690600401611da4565b9160c435858111610132576115df903690600401611da4565b9360e435868111610132576115f8903690600401611da4565b956101043590811161013257611612903690600401611da4565b9561161b612200565b60443515611b0a57606435151580611afa575b15611aa557835115611a60576040516001855191611650838260208a01611d0a565b8183820152602081838060a01b0394810103019020015416611a1b578151156119d6578451156119915785511561194c57805115611907578651156118c25761169a604435612171565b6000549092906116c3906001600160a01b03166116b985604435611f81565b9030903390612230565b6000600e604051602081816116de8b83815193849201611d0a565b810160018152030190206116f28882612288565b6001810180546001600160a01b031916331790556117138760028301612288565b6044356003820155856004820155606435600582015542600682015560078101600160ff1982541617905561174b8460088301612288565b6117588960098301612288565b6117658a600a8301612288565b61177285600b8301612288565b61177f8b600c8301612288565b82600d8201550155600254600160401b8110156102e9578060016117a69201600255611b78565b6118ac57856117b491612288565b33600052600360205260406000208054600160401b8110156102e9576117df91600182018155611bc5565b9790976118ac5761187f6118409761187161189c9661188d9561184e6112ae9a61182b7f8a238393e944ded6e1f623b61c56e79aa2f9f7439bf7f4346f5245b6d259ac379f8e90612288565b6040519d8e9d8e610140908181520190611d2d565b8d810360208f015290611d2d565b9160443560408d015260608c015260643560808c01528a820360a08c0152611d2d565b9088820360c08a0152611d2d565b9086820360e0880152611d2d565b90848203610100860152611d2d565b8281036101208401523395611d2d565b634e487b7160e01b600052600060045260246000fd5b60405162461bcd60e51b815260206004820152601960248201527f4c6f6e6769747564652063616e6e6f7420626520656d707479000000000000006044820152606490fd5b60405162461bcd60e51b815260206004820152601860248201527f4c617469747564652063616e6e6f7420626520656d70747900000000000000006044820152606490fd5b60405162461bcd60e51b815260206004820152601f60248201527f436f6c6c61746572616c20696e666f2063616e6e6f7420626520656d707479006044820152606490fd5b60405162461bcd60e51b815260206004820152601760248201527f507572706f73652063616e6e6f7420626520656d7074790000000000000000006044820152606490fd5b60405162461bcd60e51b815260206004820152601c60248201527f436f6e7461637420696e666f2063616e6e6f7420626520656d707479000000006044820152606490fd5b60405162461bcd60e51b815260206004820152601b60248201527f426f72726f77696e6720494420616c72656164792065786973747300000000006044820152606490fd5b60405162461bcd60e51b815260206004820152601c60248201527f426f72726f77696e672049442063616e6e6f7420626520656d707479000000006044820152606490fd5b60405162461bcd60e51b815260206004820152602760248201527f4475726174696f6e206d757374206265206265747765656e203120616e6420336044820152663635206461797360c81b6064820152608490fd5b506301e13380606435111561162e565b60405162461bcd60e51b815260206004820152601d60248201527f416d6f756e74206d7573742062652067726561746572207468616e20300000006044820152606490fd5b34610132576020366003190112610132576004356002548110156101325761042a61042461043e925b600254811015611baf5760026000527f405787fa12a823e0f2b7631cc41b3ba8828b3321ca811111fa75cd3aa3bb5ace0190600090565b634e487b7160e01b600052603260045260246000fd5b8054821015611baf5760005260206000200190600090565b90600182811c92168015611c0d575b6020831014611bf757565b634e487b7160e01b600052602260045260246000fd5b91607f1691611bec565b6101e081019081106001600160401b038211176102e957604052565b90601f801991011681019081106001600160401b038211176102e957604052565b90604051918260008254611c6781611bdd565b90818452602094600191600181169081600014611cd75750600114611c98575b505050611c9692500383611c33565b565b600090815285812095935091905b818310611cbf575050611c969350820101388080611c87565b85548884018501529485019487945091830191611ca6565b92505050611c9694925060ff191682840152151560051b820101388080611c87565b906118ac57611d0790611c54565b90565b60005b838110611d1d5750506000910152565b8181015183820152602001611d0d565b90602091611d4681518092818552858086019101611d0a565b601f01601f1916010190565b6001600160401b0381116102e957601f01601f191660200190565b929192611d7982611d52565b91611d876040519384611c33565b829481845281830111610132578281602093846000960137010152565b9080601f8301121561013257816020611d0793359101611d6d565b600435906001600160a01b038216820361013257565b6020808201908083528351809252604092604081018260408560051b8401019601946000925b858410611e0c575050505050505090565b909192939495968580600192603f198582030187528a5190611f03611eef611edb611ec7611eb3611e6b611e4a6101e0895190808a52890190611d2d565b8b8060a01b038a8a0151168a8901528d808a015190898303908a0152611d2d565b606080890151908801526080808901519088015260a0808901519088015260c0808901519088015260e080890151151590880152610100808901519088830390890152611d2d565b610120808801519087830390880152611d2d565b610140808701519086830390870152611d2d565b610160808601519085830390860152611d2d565b610180808501519084830390850152611d2d565b916101a080820151908301526101c080910151910152990194019401929594939190611dfb565b604060031982011261013257600435906001600160401b03821161013257611f5491600401611da4565b9060243590565b6020611f74918160405193828580945193849201611d0a565b8101600181520301902090565b9190820180921161091a57565b6001600160401b0381116102e95760051b60200190565b8051821015611baf5760209160051b010190565b600019811461091a5760010190565b90611fd282611f8e565b604090611fe26040519182611c33565b8381528093611ff3601f1991611f8e565b019160005b8381106120055750505050565b602090825161201381611c17565b60608082528390600082840152808684015260008184015260006080840152600060a0840152600060c0840152600060e08401528061010084015280610120840152806101408401528061016084015261018083015260006101a083015260006101c0830152828601015201611ff8565b1561208b57565b60405162461bcd60e51b815260206004820152601760248201527f426f72726f77696e67206973206e6f74206163746976650000000000000000006044820152606490fd5b9190820391821161091a57565b6040519081600082546120ef81611bdd565b936001918083169081156121555750600114612117575b505060209250600181520301902090565b9091506000526020906020600020906000915b858310612141575050505060209181013880612106565b80548784015286945091830191810161212a565b92505050602093915060ff191682528015150281013880612106565b602a810290808204602a149015171561091a57612710900490565b6001600160a01b039081169081156121e75760008051602061252f83398151915280546001600160a01b031981168417909155167f8be0079c531659141344cd1fd0a4f28419497f9722a3daafe3b4186f6b6457e0600080a3565b604051631e4fbdf760e01b815260006004820152602490fd5b60008051602061254f833981519152600281541461221e5760029055565b604051633ee5aeb560e01b8152600490fd5b6040516323b872dd60e01b60208201526001600160a01b03928316602482015292909116604483015260648083019390935291815260a08101918183106001600160401b038411176102e957611c9692604052612422565b91909182516001600160401b0381116102e9576122a58254611bdd565b601f8111612350575b50602080601f83116001146122eb5750819293946000926122e0575b50508160011b916000199060031b1c1916179055565b0151905038806122ca565b90601f19831695846000526020600020926000905b8882106123385750508360019596971061231f575b505050811b019055565b015160001960f88460031b161c19169055388080612315565b80600185968294968601518155019501930190612300565b6000836000526020600020601f840160051c81019260208510612390575b601f0160051c01915b8281106123855750506122ae565b818155600101612377565b909250829061236e565b60405163a9059cbb60e01b60208201526001600160a01b03909216602483015260448083019390935291815260808101916001600160401b038311828410176102e957611c9692604052612422565b60008051602061252f833981519152546001600160a01b0316330361240a57565b60405163118cdaa760e01b8152336004820152602490fd5b906000602091828151910182855af11561247e576000513d61247557506001600160a01b0381163b155b6124535750565b604051635274afe760e01b81526001600160a01b039091166004820152602490fd5b6001141561244c565b6040513d6000823e3d90fd5b60ff7ff0c57e16840df040f15088dc2f81fe391c3923bec73e23a9662efc9c229c6a005460401c16156124b957565b604051631afcd79f60e31b8152600490fd5b906124f257508051156124e057602081519101fd5b60405163d6bda27560e01b8152600490fd5b81511580612525575b612503575090565b604051639996b31560e01b81526001600160a01b039091166004820152602490fd5b50803b156124fb56fe9016d09d72d40fdae2fd8ceac6b6234c7706214fd39c1cd1e609a0528c1993009b779b17422d0df92223018b32b4d1fa46e071723d6817e2486d003becc55f00a2646970667358221220b69798c62781392d51cf34cf6b3d01ec55023f20b23872bfa156bbde946cd9ae64736f6c63430008160033","opcodes":"PUSH1 0xA0 DUP1 PUSH1 0x40 MSTORE CALLVALUE PUSH2 0x2A JUMPI ADDRESS PUSH1 0x80 MSTORE PUSH2 0x25A4 SWAP1 DUP2 PUSH2 0x30 DUP3 CODECOPY PUSH1 0x80 MLOAD DUP2 DUP2 DUP2 PUSH2 0xF43 ADD MSTORE PUSH2 0xFFC ADD MSTORE RETURN JUMPDEST PUSH1 0x0 DUP1 REVERT INVALID PUSH1 0x80 PUSH1 0x40 MSTORE PUSH1 0x4 CALLDATASIZE LT ISZERO PUSH2 0x12 JUMPI PUSH1 0x0 DUP1 REVERT JUMPDEST PUSH1 0xE0 PUSH1 0x0 CALLDATALOAD PUSH1 0xE0 SHR SWAP1 DUP2 PUSH4 0xE7E5FFD EQ PUSH2 0x1B4F JUMPI DUP2 PUSH4 0x15A96FBB EQ PUSH2 0x154B JUMPI DUP2 PUSH4 0x3B9C8CFE EQ PUSH2 0x1522 JUMPI DUP2 PUSH4 0x3E63680D EQ PUSH2 0x132B JUMPI DUP2 PUSH4 0x494D7687 EQ PUSH2 0x11DB JUMPI DUP2 PUSH4 0x4F1EF286 EQ PUSH2 0xFAD JUMPI DUP2 PUSH4 0x52D1902D EQ PUSH2 0xF30 JUMPI DUP2 PUSH4 0x5D269E51 EQ PUSH2 0xD66 JUMPI POP DUP1 PUSH4 0x715018A6 EQ PUSH2 0xCFC JUMPI DUP1 PUSH4 0x8DA5CB5B EQ PUSH2 0xCC6 JUMPI DUP1 PUSH4 0x99A5D747 EQ PUSH2 0xCA0 JUMPI DUP1 PUSH4 0xA043D48D EQ PUSH2 0xBB8 JUMPI DUP1 PUSH4 0xA525AD3C EQ PUSH2 0xB9C JUMPI DUP1 PUSH4 0xAD3CB1CC EQ PUSH2 0xB44 JUMPI DUP1 PUSH4 0xAE5C6FFF EQ PUSH2 0xADB JUMPI DUP1 PUSH4 0xB5BBBAE4 EQ PUSH2 0x7A1 JUMPI DUP1 PUSH4 0xC4D66DE8 EQ PUSH2 0x5E2 JUMPI DUP1 PUSH4 0xDB138B45 EQ PUSH2 0x442 JUMPI DUP1 PUSH4 0xDD471337 EQ PUSH2 0x3D7 JUMPI DUP1 PUSH4 0xECF83DC3 EQ PUSH2 0x137 JUMPI PUSH4 0xF2FDE38B EQ PUSH2 0x107 JUMPI PUSH1 0x0 DUP1 REVERT JUMPDEST CALLVALUE PUSH2 0x132 JUMPI PUSH1 0x20 CALLDATASIZE PUSH1 0x3 NOT ADD SLT PUSH2 0x132 JUMPI PUSH2 0x130 PUSH2 0x123 PUSH2 0x1DBF JUMP JUMPDEST PUSH2 0x12B PUSH2 0x23E9 JUMP JUMPDEST PUSH2 0x218C JUMP JUMPDEST STOP JUMPDEST PUSH1 0x0 DUP1 REVERT JUMPDEST CALLVALUE PUSH2 0x132 JUMPI PUSH2 0x145 CALLDATASIZE PUSH2 0x1F2A JUMP JUMPDEST PUSH2 0x14D PUSH2 0x2200 JUMP JUMPDEST PUSH1 0x40 MLOAD SWAP2 DUP3 DUP2 MLOAD PUSH1 0x20 SWAP5 DUP2 PUSH2 0x166 DUP8 SWAP4 DUP4 DUP6 DUP9 ADD PUSH2 0x1D0A JUMP JUMPDEST DUP2 ADD PUSH1 0x1 DUP2 MSTORE SUB ADD SWAP1 KECCAK256 SWAP2 PUSH2 0x181 PUSH1 0xFF PUSH1 0x7 DUP6 ADD SLOAD AND PUSH2 0x2084 JUMP JUMPDEST DUP1 ISZERO PUSH2 0x387 JUMPI PUSH2 0x19A PUSH1 0x6 DUP5 ADD SLOAD PUSH1 0x5 DUP6 ADD SLOAD SWAP1 PUSH2 0x1F81 JUMP JUMPDEST TIMESTAMP GT PUSH2 0x342 JUMPI PUSH1 0xD DUP4 ADD PUSH2 0x1AF DUP3 DUP3 SLOAD PUSH2 0x1F81 JUMP JUMPDEST PUSH1 0x3 DUP6 ADD SLOAD LT PUSH2 0x2FF JUMPI PUSH1 0x0 SLOAD PUSH1 0x1 PUSH1 0x1 PUSH1 0xA0 SHL SUB SWAP2 SWAP1 PUSH2 0x1D7 SWAP1 DUP5 SWAP1 ADDRESS SWAP1 CALLER SWAP1 DUP7 AND PUSH2 0x2230 JUMP JUMPDEST PUSH1 0x10 DUP6 ADD CALLER PUSH1 0x0 MSTORE DUP1 DUP8 MSTORE PUSH1 0x40 PUSH1 0x0 KECCAK256 SLOAD ISZERO PUSH2 0x280 JUMPI JUMPDEST SWAP5 PUSH2 0x24D SWAP3 DUP5 SWAP3 PUSH32 0xC8153F350D75779BE66FA143A419A6B9E1D69626E49E410FFBA47A6EFB4DEE3E SWAP8 CALLER PUSH1 0x0 MSTORE DUP10 MSTORE PUSH1 0x40 PUSH1 0x0 KECCAK256 PUSH2 0x22D DUP6 DUP3 SLOAD PUSH2 0x1F81 JUMP JUMPDEST SWAP1 SSTORE PUSH2 0x23A DUP5 DUP3 SLOAD PUSH2 0x1F81 JUMP JUMPDEST SWAP1 SSTORE PUSH1 0x1 DUP2 PUSH1 0x0 SLOAD AND SWAP3 ADD SLOAD AND SWAP1 PUSH2 0x239A JUMP JUMPDEST PUSH2 0x262 PUSH1 0x40 MLOAD SWAP3 PUSH1 0x40 DUP5 MSTORE PUSH1 0x40 DUP5 ADD SWAP1 PUSH2 0x1D2D JUMP JUMPDEST SWAP4 DUP3 ADD MSTORE DUP1 CALLER SWAP4 SUB SWAP1 LOG2 PUSH1 0x1 PUSH1 0x0 DUP1 MLOAD PUSH1 0x20 PUSH2 0x254F DUP4 CODECOPY DUP2 MLOAD SWAP2 MSTORE SSTORE STOP JUMPDEST SWAP5 PUSH1 0xF DUP2 ADD SWAP3 DUP4 SLOAD SWAP3 PUSH1 0x1 PUSH1 0x40 SHL DUP5 LT ISZERO PUSH2 0x2E9 JUMPI PUSH32 0xC8153F350D75779BE66FA143A419A6B9E1D69626E49E410FFBA47A6EFB4DEE3E SWAP8 PUSH2 0x2CB DUP6 PUSH2 0x24D SWAP8 PUSH1 0x1 DUP11 SWAP9 ADD DUP2 SSTORE PUSH2 0x1BC5 JUMP JUMPDEST DUP2 SLOAD SWAP1 PUSH1 0x3 SHL SWAP1 DUP6 CALLER DUP4 SHL SWAP3 SHL NOT AND OR SWAP1 SSTORE SWAP3 SWAP8 POP SWAP3 POP SWAP3 POP PUSH2 0x1EE JUMP JUMPDEST PUSH4 0x4E487B71 PUSH1 0xE0 SHL PUSH1 0x0 MSTORE PUSH1 0x41 PUSH1 0x4 MSTORE PUSH1 0x24 PUSH1 0x0 REVERT JUMPDEST PUSH1 0x64 DUP6 PUSH1 0x40 MLOAD SWAP1 PUSH3 0x461BCD PUSH1 0xE5 SHL DUP3 MSTORE DUP1 PUSH1 0x4 DUP4 ADD MSTORE PUSH1 0x24 DUP3 ADD MSTORE PUSH32 0x4C656E64696E6720657863656564732072657175657374656420616D6F756E74 PUSH1 0x44 DUP3 ADD MSTORE REVERT JUMPDEST PUSH1 0x40 MLOAD PUSH3 0x461BCD PUSH1 0xE5 SHL DUP2 MSTORE PUSH1 0x4 DUP2 ADD DUP6 SWAP1 MSTORE PUSH1 0x1E PUSH1 0x24 DUP3 ADD MSTORE PUSH32 0x426F72726F77696E67206475726174696F6E2068617320657870697265640000 PUSH1 0x44 DUP3 ADD MSTORE PUSH1 0x64 SWAP1 REVERT JUMPDEST PUSH1 0x40 MLOAD PUSH3 0x461BCD PUSH1 0xE5 SHL DUP2 MSTORE PUSH1 0x4 DUP2 ADD DUP6 SWAP1 MSTORE PUSH1 0x22 PUSH1 0x24 DUP3 ADD MSTORE PUSH32 0x4C656E6420616D6F756E74206D7573742062652067726561746572207468616E PUSH1 0x44 DUP3 ADD MSTORE PUSH2 0x203 PUSH1 0xF4 SHL PUSH1 0x64 DUP3 ADD MSTORE PUSH1 0x84 SWAP1 REVERT JUMPDEST CALLVALUE PUSH2 0x132 JUMPI PUSH1 0x40 CALLDATASIZE PUSH1 0x3 NOT ADD SLT PUSH2 0x132 JUMPI PUSH2 0x3F0 PUSH2 0x1DBF JUMP JUMPDEST PUSH1 0x1 PUSH1 0x1 PUSH1 0xA0 SHL SUB AND PUSH1 0x0 SWAP1 DUP2 MSTORE PUSH1 0x3 PUSH1 0x20 MSTORE PUSH1 0x40 SWAP1 KECCAK256 DUP1 SLOAD PUSH1 0x24 CALLDATALOAD SWAP1 DUP2 LT ISZERO PUSH2 0x132 JUMPI PUSH2 0x424 PUSH2 0x42A SWAP2 PUSH2 0x43E SWAP4 PUSH2 0x1BC5 JUMP JUMPDEST SWAP1 PUSH2 0x1CF9 JUMP JUMPDEST PUSH1 0x40 MLOAD SWAP2 DUP3 SWAP2 PUSH1 0x20 DUP4 MSTORE PUSH1 0x20 DUP4 ADD SWAP1 PUSH2 0x1D2D JUMP JUMPDEST SUB SWAP1 RETURN JUMPDEST CALLVALUE PUSH2 0x132 JUMPI PUSH1 0x20 CALLDATASIZE PUSH1 0x3 NOT ADD SLT PUSH2 0x132 JUMPI PUSH1 0x4 CALLDATALOAD PUSH1 0x1 PUSH1 0x1 PUSH1 0x40 SHL SUB DUP2 GT PUSH2 0x132 JUMPI PUSH2 0x472 SWAP1 CALLDATASIZE SWAP1 PUSH1 0x4 ADD PUSH2 0x1DA4 JUMP JUMPDEST PUSH1 0x40 MLOAD DUP2 DUP2 DUP1 SWAP4 MLOAD PUSH1 0x20 DUP2 SWAP4 ADD SWAP2 PUSH2 0x489 SWAP3 PUSH2 0x1D0A JUMP JUMPDEST DUP2 ADD PUSH1 0x1 DUP2 MSTORE SUB PUSH1 0x20 ADD SWAP1 KECCAK256 PUSH2 0x49E DUP2 PUSH2 0x1C54 JUMP JUMPDEST PUSH1 0x1 DUP3 ADD SLOAD SWAP1 SWAP2 PUSH1 0x1 PUSH1 0x1 PUSH1 0xA0 SHL SUB SWAP1 SWAP2 AND SWAP1 PUSH2 0x4BD PUSH1 0x2 DUP3 ADD PUSH2 0x1C54 JUMP JUMPDEST SWAP3 PUSH1 0x3 DUP3 ADD SLOAD SWAP1 PUSH1 0x4 DUP4 ADD SLOAD SWAP1 PUSH1 0x5 DUP5 ADD SLOAD SWAP1 PUSH1 0x6 DUP6 ADD SLOAD SWAP1 PUSH1 0x7 DUP7 ADD SLOAD PUSH1 0xFF AND SWAP1 PUSH1 0x8 DUP8 ADD PUSH2 0x4EC SWAP1 PUSH2 0x1C54 JUMP JUMPDEST SWAP1 PUSH2 0x4F9 PUSH1 0x9 DUP10 ADD PUSH2 0x1C54 JUMP JUMPDEST SWAP3 PUSH2 0x506 PUSH1 0xA DUP11 ADD PUSH2 0x1C54 JUMP JUMPDEST SWAP5 PUSH2 0x513 PUSH1 0xB DUP12 ADD PUSH2 0x1C54 JUMP JUMPDEST SWAP7 PUSH2 0x520 PUSH1 0xC DUP13 ADD PUSH2 0x1C54 JUMP JUMPDEST SWAP9 PUSH1 0xD DUP13 ADD SLOAD SWAP12 PUSH1 0xE ADD SLOAD SWAP11 PUSH1 0x40 MLOAD SWAP15 DUP16 SWAP15 DUP16 SWAP8 PUSH2 0x1E0 DUP1 DUP11 MSTORE DUP10 ADD PUSH2 0x545 SWAP2 PUSH2 0x1D2D JUMP JUMPDEST SWAP1 PUSH1 0x20 DUP10 ADD MSTORE DUP8 DUP2 SUB PUSH1 0x40 DUP10 ADD MSTORE PUSH2 0x55C SWAP2 PUSH2 0x1D2D JUMP JUMPDEST SWAP6 PUSH1 0x60 ADD MSTORE PUSH1 0x80 DUP14 ADD MSTORE PUSH1 0xA0 DUP13 ADD MSTORE PUSH1 0xC0 DUP12 ADD MSTORE ISZERO ISZERO PUSH1 0xE0 DUP11 ADD MSTORE DUP9 DUP2 SUB PUSH2 0x100 DUP11 ADD MSTORE PUSH2 0x589 SWAP2 PUSH2 0x1D2D JUMP JUMPDEST DUP8 DUP2 SUB PUSH2 0x120 DUP10 ADD MSTORE PUSH2 0x59B SWAP2 PUSH2 0x1D2D JUMP JUMPDEST DUP7 DUP2 SUB PUSH2 0x140 DUP9 ADD MSTORE PUSH2 0x5AD SWAP2 PUSH2 0x1D2D JUMP JUMPDEST DUP6 DUP2 SUB PUSH2 0x160 DUP8 ADD MSTORE PUSH2 0x5BF SWAP2 PUSH2 0x1D2D JUMP JUMPDEST DUP5 DUP2 SUB PUSH2 0x180 DUP7 ADD MSTORE PUSH2 0x5D1 SWAP2 PUSH2 0x1D2D JUMP JUMPDEST SWAP2 PUSH2 0x1A0 DUP5 ADD MSTORE PUSH2 0x1C0 DUP4 ADD MSTORE SUB SWAP1 RETURN JUMPDEST CALLVALUE PUSH2 0x132 JUMPI PUSH1 0x20 CALLDATASIZE PUSH1 0x3 NOT ADD SLT PUSH2 0x132 JUMPI PUSH2 0x5FB PUSH2 0x1DBF JUMP JUMPDEST PUSH32 0xF0C57E16840DF040F15088DC2F81FE391C3923BEC73E23A9662EFC9C229C6A00 SWAP1 DUP2 SLOAD SWAP1 PUSH1 0xFF DUP3 PUSH1 0x40 SHR AND ISZERO SWAP2 PUSH1 0x1 PUSH1 0x1 PUSH1 0x40 SHL SUB DUP2 AND DUP1 ISZERO SWAP1 DUP2 PUSH2 0x799 JUMPI JUMPDEST PUSH1 0x1 EQ SWAP1 DUP2 PUSH2 0x78F JUMPI JUMPDEST ISZERO SWAP1 DUP2 PUSH2 0x786 JUMPI JUMPDEST POP PUSH2 0x774 JUMPI PUSH8 0xFFFFFFFFFFFFFFFF NOT DUP2 AND PUSH1 0x1 OR DUP5 SSTORE DUP3 PUSH2 0x755 JUMPI JUMPDEST POP PUSH2 0x673 PUSH2 0x248A JUMP JUMPDEST PUSH2 0x67B PUSH2 0x248A JUMP JUMPDEST PUSH2 0x684 CALLER PUSH2 0x218C JUMP JUMPDEST PUSH2 0x68C PUSH2 0x248A JUMP JUMPDEST PUSH2 0x694 PUSH2 0x248A JUMP JUMPDEST PUSH2 0x69C PUSH2 0x248A JUMP JUMPDEST PUSH1 0x1 PUSH1 0x0 DUP1 MLOAD PUSH1 0x20 PUSH2 0x254F DUP4 CODECOPY DUP2 MLOAD SWAP2 MSTORE SSTORE PUSH1 0x1 PUSH1 0x1 PUSH1 0xA0 SHL SUB AND DUP1 ISZERO PUSH2 0x718 JUMPI PUSH12 0xFFFFFFFFFFFFFFFFFFFFFFFF PUSH1 0xA0 SHL PUSH1 0x0 SLOAD AND OR PUSH1 0x0 SSTORE PUSH2 0x6DB JUMPI STOP JUMPDEST PUSH9 0xFF0000000000000000 NOT DUP2 SLOAD AND SWAP1 SSTORE PUSH32 0xC7F505B2F371AE2175EE4913F4499E1F2633A7B5936321EED1CDAEB6115181D2 PUSH1 0x20 PUSH1 0x40 MLOAD PUSH1 0x1 DUP2 MSTORE LOG1 STOP JUMPDEST PUSH1 0x40 MLOAD PUSH3 0x461BCD PUSH1 0xE5 SHL DUP2 MSTORE PUSH1 0x20 PUSH1 0x4 DUP3 ADD MSTORE PUSH1 0x15 PUSH1 0x24 DUP3 ADD MSTORE PUSH21 0x496E76616C696420746F6B656E2061646472657373 PUSH1 0x58 SHL PUSH1 0x44 DUP3 ADD MSTORE PUSH1 0x64 SWAP1 REVERT JUMPDEST PUSH9 0xFFFFFFFFFFFFFFFFFF NOT AND PUSH9 0x10000000000000001 OR DUP4 SSTORE DUP4 PUSH2 0x66A JUMP JUMPDEST PUSH1 0x40 MLOAD PUSH4 0xF92EE8A9 PUSH1 0xE0 SHL DUP2 MSTORE PUSH1 0x4 SWAP1 REVERT JUMPDEST SWAP1 POP ISZERO DUP6 PUSH2 0x64E JUMP JUMPDEST ADDRESS EXTCODESIZE ISZERO SWAP2 POP PUSH2 0x646 JUMP JUMPDEST DUP5 SWAP2 POP PUSH2 0x63C JUMP JUMPDEST CALLVALUE PUSH2 0x132 JUMPI PUSH2 0x7AF CALLDATASIZE PUSH2 0x1F2A JUMP JUMPDEST SWAP1 PUSH2 0x7B8 PUSH2 0x2200 JUMP JUMPDEST PUSH1 0x40 MLOAD PUSH1 0x20 DUP2 DUP4 MLOAD PUSH2 0x7CD DUP2 DUP4 DUP6 DUP9 ADD PUSH2 0x1D0A JUMP JUMPDEST DUP2 ADD PUSH1 0x1 DUP2 MSTORE SUB ADD SWAP1 KECCAK256 PUSH1 0x1 DUP1 PUSH1 0xA0 SHL SUB PUSH1 0x1 DUP3 ADD SLOAD AND CALLER SUB PUSH2 0xA96 JUMPI PUSH2 0x7FA PUSH1 0xFF PUSH1 0x7 DUP4 ADD SLOAD AND PUSH2 0x2084 JUMP JUMPDEST DUP3 ISZERO PUSH2 0xA45 JUMPI PUSH2 0x80E DUP4 PUSH1 0xE DUP4 ADD SLOAD PUSH2 0x1F81 JUMP JUMPDEST PUSH1 0xD DUP3 ADD SLOAD LT PUSH2 0xA00 JUMPI PUSH1 0x0 SLOAD PUSH2 0x833 SWAP1 DUP5 SWAP1 ADDRESS SWAP1 CALLER SWAP1 PUSH1 0x1 PUSH1 0x1 PUSH1 0xA0 SHL SUB AND PUSH2 0x2230 JUMP JUMPDEST PUSH2 0x841 DUP4 PUSH1 0xE DUP4 ADD SLOAD PUSH2 0x1F81 JUMP JUMPDEST PUSH1 0xE DUP3 ADD SSTORE PUSH1 0x0 JUMPDEST PUSH1 0xF DUP3 ADD SLOAD DUP2 LT ISZERO PUSH2 0x949 JUMPI PUSH2 0x862 DUP2 PUSH1 0xF DUP5 ADD PUSH2 0x1BC5 JUMP JUMPDEST SWAP1 SLOAD PUSH1 0x3 SWAP2 SWAP1 SWAP2 SHL SHR PUSH1 0x1 PUSH1 0x1 PUSH1 0xA0 SHL SUB AND SWAP1 DUP2 ISZERO ISZERO DUP1 PUSH2 0x930 JUMPI JUMPDEST PUSH2 0x88D JUMPI JUMPDEST PUSH1 0x1 SWAP2 POP ADD PUSH2 0x849 JUMP JUMPDEST DUP2 PUSH1 0x0 MSTORE PUSH1 0x10 DUP4 ADD PUSH1 0x20 MSTORE PUSH1 0x40 PUSH1 0x0 KECCAK256 SLOAD SWAP2 DUP3 DUP7 DUP2 MUL DIV DUP7 EQ DUP4 ISZERO OR ISZERO PUSH2 0x91A JUMPI PUSH1 0xD DUP5 ADD SLOAD DUP1 ISZERO PUSH2 0x904 JUMPI DUP7 PUSH1 0x1 SWAP5 MUL DIV SWAP1 DUP2 PUSH2 0x8CD JUMPI JUMPDEST POP POP PUSH2 0x883 JUMP JUMPDEST PUSH2 0x8E1 DUP3 DUP3 DUP7 DUP1 PUSH1 0xA0 SHL SUB PUSH1 0x0 SLOAD AND PUSH2 0x239A JUMP JUMPDEST PUSH1 0x0 MSTORE PUSH1 0x10 DUP5 ADD PUSH1 0x20 MSTORE PUSH2 0x8FB PUSH1 0x40 PUSH1 0x0 KECCAK256 SWAP2 DUP3 SLOAD PUSH2 0x20D0 JUMP JUMPDEST SWAP1 SSTORE DUP6 DUP1 PUSH2 0x8C6 JUMP JUMPDEST PUSH4 0x4E487B71 PUSH1 0xE0 SHL PUSH1 0x0 MSTORE PUSH1 0x12 PUSH1 0x4 MSTORE PUSH1 0x24 PUSH1 0x0 REVERT JUMPDEST PUSH4 0x4E487B71 PUSH1 0xE0 SHL PUSH1 0x0 MSTORE PUSH1 0x11 PUSH1 0x4 MSTORE PUSH1 0x24 PUSH1 0x0 REVERT JUMPDEST POP DUP2 PUSH1 0x0 MSTORE PUSH1 0x10 DUP4 ADD PUSH1 0x20 MSTORE PUSH1 0x40 PUSH1 0x0 KECCAK256 SLOAD ISZERO ISZERO PUSH2 0x87E JUMP JUMPDEST POP DUP3 PUSH32 0x6052DF171EEC68D8662FFC10214CF42C318AA882862FC729DE6746FFC6D2C538 PUSH1 0x40 MLOAD PUSH1 0x40 DUP2 MSTORE PUSH2 0x980 PUSH1 0x40 DUP3 ADD DUP7 PUSH2 0x1D2D JUMP JUMPDEST SWAP3 PUSH1 0x20 DUP3 ADD MSTORE DUP1 CALLER SWAP4 SUB SWAP1 LOG2 PUSH1 0xE DUP2 ADD SLOAD PUSH1 0xD DUP3 ADD SLOAD GT ISZERO PUSH2 0x9B1 JUMPI JUMPDEST PUSH1 0x1 PUSH1 0x0 DUP1 MLOAD PUSH1 0x20 PUSH2 0x254F DUP4 CODECOPY DUP2 MLOAD SWAP2 MSTORE SSTORE STOP JUMPDEST PUSH1 0x7 PUSH1 0xFF NOT DUP2 DUP4 ADD SLOAD AND SWAP2 ADD SSTORE PUSH32 0xDECC5F5A8DCDF1C8AA17E12213169C28B4D8DE95678AA033C3063EB6530E6B43 PUSH1 0x40 MLOAD PUSH1 0x20 DUP2 MSTORE DUP1 PUSH2 0x9F6 CALLER SWAP5 PUSH1 0x20 DUP4 ADD SWAP1 PUSH2 0x1D2D JUMP JUMPDEST SUB SWAP1 LOG2 DUP1 DUP1 PUSH2 0x99D JUMP JUMPDEST PUSH1 0x40 MLOAD PUSH3 0x461BCD PUSH1 0xE5 SHL DUP2 MSTORE PUSH1 0x20 PUSH1 0x4 DUP3 ADD MSTORE PUSH1 0x1D PUSH1 0x24 DUP3 ADD MSTORE PUSH32 0x52657061796D656E742065786365656473206C656E7420616D6F756E74000000 PUSH1 0x44 DUP3 ADD MSTORE PUSH1 0x64 SWAP1 REVERT JUMPDEST PUSH1 0x40 MLOAD PUSH3 0x461BCD PUSH1 0xE5 SHL DUP2 MSTORE PUSH1 0x20 PUSH1 0x4 DUP3 ADD MSTORE PUSH1 0x23 PUSH1 0x24 DUP3 ADD MSTORE PUSH32 0x526570617920616D6F756E74206D757374206265206772656174657220746861 PUSH1 0x44 DUP3 ADD MSTORE PUSH3 0x6E203 PUSH1 0xEC SHL PUSH1 0x64 DUP3 ADD MSTORE PUSH1 0x84 SWAP1 REVERT JUMPDEST PUSH1 0x40 MLOAD PUSH3 0x461BCD PUSH1 0xE5 SHL DUP2 MSTORE PUSH1 0x20 PUSH1 0x4 DUP3 ADD MSTORE PUSH1 0x17 PUSH1 0x24 DUP3 ADD MSTORE PUSH32 0x4F6E6C7920626F72726F7765722063616E207265706179000000000000000000 PUSH1 0x44 DUP3 ADD MSTORE PUSH1 0x64 SWAP1 REVERT JUMPDEST CALLVALUE PUSH2 0x132 JUMPI PUSH1 0x40 CALLDATASIZE PUSH1 0x3 NOT ADD SLT PUSH2 0x132 JUMPI PUSH1 0x4 CALLDATALOAD PUSH1 0x1 PUSH1 0x1 PUSH1 0x40 SHL SUB DUP2 GT PUSH2 0x132 JUMPI PUSH2 0xB0B SWAP1 CALLDATASIZE SWAP1 PUSH1 0x4 ADD PUSH2 0x1DA4 JUMP JUMPDEST PUSH1 0x24 CALLDATALOAD PUSH1 0x1 PUSH1 0x1 PUSH1 0xA0 SHL SUB DUP2 AND SWAP2 SWAP1 DUP3 SWAP1 SUB PUSH2 0x132 JUMPI PUSH2 0xB2C PUSH1 0x10 SWAP2 PUSH2 0x1F5B JUMP JUMPDEST ADD SWAP1 PUSH1 0x0 MSTORE PUSH1 0x20 MSTORE PUSH1 0x20 PUSH1 0x40 PUSH1 0x0 KECCAK256 SLOAD PUSH1 0x40 MLOAD SWAP1 DUP2 MSTORE RETURN JUMPDEST CALLVALUE PUSH2 0x132 JUMPI PUSH1 0x0 CALLDATASIZE PUSH1 0x3 NOT ADD SLT PUSH2 0x132 JUMPI PUSH1 0x40 MLOAD PUSH1 0x40 DUP2 ADD SWAP1 DUP1 DUP3 LT PUSH1 0x1 PUSH1 0x1 PUSH1 0x40 SHL SUB DUP4 GT OR PUSH2 0x2E9 JUMPI PUSH2 0x43E SWAP2 PUSH1 0x40 MSTORE PUSH1 0x5 DUP2 MSTORE PUSH5 0x352E302E3 PUSH1 0xDC SHL PUSH1 0x20 DUP3 ADD MSTORE PUSH1 0x40 MLOAD SWAP2 DUP3 SWAP2 PUSH1 0x20 DUP4 MSTORE PUSH1 0x20 DUP4 ADD SWAP1 PUSH2 0x1D2D JUMP JUMPDEST CALLVALUE PUSH2 0x132 JUMPI PUSH1 0x0 CALLDATASIZE PUSH1 0x3 NOT ADD SLT PUSH2 0x132 JUMPI PUSH1 0x20 PUSH1 0x40 MLOAD PUSH1 0x2A DUP2 MSTORE RETURN JUMPDEST CALLVALUE PUSH2 0x132 JUMPI PUSH1 0x20 DUP1 PUSH1 0x3 NOT CALLDATASIZE ADD SLT PUSH2 0x132 JUMPI PUSH1 0x4 CALLDATALOAD PUSH1 0x1 PUSH1 0x1 PUSH1 0x40 SHL SUB DUP2 GT PUSH2 0x132 JUMPI PUSH2 0xBE9 SWAP1 CALLDATASIZE SWAP1 PUSH1 0x4 ADD PUSH2 0x1DA4 JUMP JUMPDEST SWAP1 PUSH1 0xF DUP2 PUSH2 0xC00 PUSH1 0x40 MLOAD SWAP5 DUP6 DUP2 MLOAD SWAP4 DUP5 SWAP3 ADD PUSH2 0x1D0A JUMP JUMPDEST DUP4 ADD SWAP3 DUP3 DUP2 PUSH1 0x1 SWAP6 PUSH1 0x1 DUP2 MSTORE SUB ADD SWAP1 KECCAK256 ADD SWAP2 PUSH1 0x40 MLOAD SWAP2 DUP3 DUP2 DUP6 SLOAD SWAP2 DUP3 DUP2 MSTORE ADD SWAP1 DUP2 SWAP6 PUSH1 0x0 MSTORE DUP3 PUSH1 0x0 KECCAK256 SWAP1 PUSH1 0x0 JUMPDEST DUP2 DUP2 LT PUSH2 0xC84 JUMPI POP POP POP DUP4 PUSH2 0xC43 SWAP2 SUB DUP5 PUSH2 0x1C33 JUMP JUMPDEST PUSH1 0x40 MLOAD SWAP3 DUP2 DUP5 ADD SWAP1 DUP3 DUP6 MSTORE MLOAD DUP1 SWAP2 MSTORE PUSH1 0x40 DUP5 ADD SWAP5 SWAP2 PUSH1 0x0 JUMPDEST DUP3 DUP2 LT PUSH2 0xC68 JUMPI DUP6 DUP8 SUB DUP7 RETURN JUMPDEST DUP4 MLOAD PUSH1 0x1 PUSH1 0x1 PUSH1 0xA0 SHL SUB AND DUP8 MSTORE SWAP6 DUP2 ADD SWAP6 SWAP3 DUP2 ADD SWAP3 DUP5 ADD PUSH2 0xC5B JUMP JUMPDEST DUP3 SLOAD PUSH1 0x1 PUSH1 0x1 PUSH1 0xA0 SHL SUB AND DUP5 MSTORE SWAP3 DUP5 ADD SWAP3 SWAP2 DUP6 ADD SWAP2 DUP6 ADD PUSH2 0xC2D JUMP JUMPDEST CALLVALUE PUSH2 0x132 JUMPI PUSH1 0x20 CALLDATASIZE PUSH1 0x3 NOT ADD SLT PUSH2 0x132 JUMPI PUSH1 0x20 PUSH2 0xCBE PUSH1 0x4 CALLDATALOAD PUSH2 0x2171 JUMP JUMPDEST PUSH1 0x40 MLOAD SWAP1 DUP2 MSTORE RETURN JUMPDEST CALLVALUE PUSH2 0x132 JUMPI PUSH1 0x0 CALLDATASIZE PUSH1 0x3 NOT ADD SLT PUSH2 0x132 JUMPI PUSH1 0x0 DUP1 MLOAD PUSH1 0x20 PUSH2 0x252F DUP4 CODECOPY DUP2 MLOAD SWAP2 MSTORE SLOAD PUSH1 0x40 MLOAD PUSH1 0x1 PUSH1 0x1 PUSH1 0xA0 SHL SUB SWAP1 SWAP2 AND DUP2 MSTORE PUSH1 0x20 SWAP1 RETURN JUMPDEST CALLVALUE PUSH2 0x132 JUMPI PUSH1 0x0 CALLDATASIZE PUSH1 0x3 NOT ADD SLT PUSH2 0x132 JUMPI PUSH2 0xD15 PUSH2 0x23E9 JUMP JUMPDEST PUSH1 0x0 DUP1 MLOAD PUSH1 0x20 PUSH2 0x252F DUP4 CODECOPY DUP2 MLOAD SWAP2 MSTORE DUP1 SLOAD PUSH1 0x1 PUSH1 0x1 PUSH1 0xA0 SHL SUB NOT DUP2 AND SWAP1 SWAP2 SSTORE PUSH1 0x0 SWAP1 PUSH1 0x1 PUSH1 0x1 PUSH1 0xA0 SHL SUB AND PUSH32 0x8BE0079C531659141344CD1FD0A4F28419497F9722A3DAAFE3B4186F6B6457E0 DUP3 DUP1 LOG3 STOP JUMPDEST CALLVALUE PUSH2 0x132 JUMPI PUSH1 0x0 CALLDATASIZE PUSH1 0x3 NOT ADD SLT PUSH2 0x132 JUMPI PUSH1 0x2 DUP1 SLOAD SWAP1 PUSH1 0x0 DUP1 JUMPDEST DUP4 DUP2 LT PUSH2 0xEFC JUMPI POP PUSH2 0xD91 SWAP1 PUSH2 0x1FC8 JUMP JUMPDEST SWAP3 PUSH1 0x0 SWAP1 PUSH1 0x0 JUMPDEST DUP5 DUP2 LT PUSH2 0xDAD JUMPI PUSH1 0x40 MLOAD DUP1 PUSH2 0x43E DUP9 DUP3 PUSH2 0x1DD5 JUMP JUMPDEST PUSH2 0xDC9 DUP5 PUSH2 0xDBA DUP4 PUSH2 0x1B78 JUMP JUMPDEST POP PUSH1 0xFF DUP1 SWAP2 PUSH1 0x7 SWAP5 DUP6 SWAP2 PUSH2 0x20DD JUMP JUMPDEST ADD SLOAD AND PUSH2 0xDDC JUMPI JUMPDEST POP POP POP PUSH1 0x1 ADD PUSH2 0xD98 JUMP JUMPDEST PUSH2 0xEF3 SWAP3 DUP5 SWAP7 SWAP3 PUSH2 0xEC6 PUSH1 0xC PUSH1 0x20 SWAP5 PUSH2 0xDFF PUSH2 0xDF9 PUSH1 0x1 SWAP11 PUSH2 0x1B78 JUMP JUMPDEST POP PUSH2 0x20DD JUMP JUMPDEST SWAP1 DUP10 DUP1 PUSH1 0xA0 SHL SUB DUP11 DUP4 ADD SLOAD AND SWAP6 PUSH1 0x3 DUP4 ADD SLOAD SWAP2 PUSH1 0x4 DUP5 ADD SLOAD PUSH1 0x5 DUP6 ADD SLOAD SWAP2 PUSH1 0x6 DUP7 ADD SLOAD SWAP4 DUP7 ADD SLOAD AND SWAP4 PUSH2 0xE59 PUSH1 0xD DUP8 ADD SLOAD SWAP10 PUSH1 0xE DUP9 ADD SLOAD SWAP12 PUSH1 0x40 MLOAD SWAP14 DUP15 PUSH2 0xE45 DUP2 PUSH2 0x1C17 JUMP JUMPDEST PUSH2 0xE4E DUP12 PUSH2 0x1C54 JUMP JUMPDEST DUP2 MSTORE ADD MSTORE DUP8 ADD PUSH2 0x1C54 JUMP JUMPDEST PUSH1 0x40 DUP13 ADD MSTORE PUSH1 0x60 DUP12 ADD MSTORE PUSH1 0x80 DUP11 ADD MSTORE PUSH1 0xA0 DUP10 ADD MSTORE PUSH1 0xC0 DUP9 ADD MSTORE ISZERO ISZERO DUP11 DUP8 ADD MSTORE PUSH2 0xE84 PUSH1 0x8 DUP3 ADD PUSH2 0x1C54 JUMP JUMPDEST PUSH2 0x100 DUP8 ADD MSTORE PUSH2 0xE96 PUSH1 0x9 DUP3 ADD PUSH2 0x1C54 JUMP JUMPDEST PUSH2 0x120 DUP8 ADD MSTORE PUSH2 0xEA8 PUSH1 0xA DUP3 ADD PUSH2 0x1C54 JUMP JUMPDEST PUSH2 0x140 DUP8 ADD MSTORE PUSH2 0xEBA PUSH1 0xB DUP3 ADD PUSH2 0x1C54 JUMP JUMPDEST PUSH2 0x160 DUP8 ADD MSTORE ADD PUSH2 0x1C54 JUMP JUMPDEST PUSH2 0x180 DUP5 ADD MSTORE PUSH2 0x1A0 DUP4 ADD MSTORE PUSH2 0x1C0 DUP3 ADD MSTORE PUSH2 0xEE2 DUP3 DUP11 PUSH2 0x1FA5 JUMP JUMPDEST MSTORE PUSH2 0xEED DUP2 DUP10 PUSH2 0x1FA5 JUMP JUMPDEST POP PUSH2 0x1FB9 JUMP JUMPDEST SWAP3 SWAP1 DUP5 DUP9 PUSH2 0xDD1 JUMP JUMPDEST PUSH1 0xFF PUSH1 0x7 PUSH2 0xF0C PUSH2 0xDF9 DUP5 PUSH2 0x1B78 JUMP JUMPDEST ADD SLOAD AND PUSH2 0xF1C JUMPI JUMPDEST PUSH1 0x1 ADD PUSH2 0xD80 JUMP JUMPDEST SWAP1 PUSH2 0xF28 PUSH1 0x1 SWAP2 PUSH2 0x1FB9 JUMP JUMPDEST SWAP2 SWAP1 POP PUSH2 0xF14 JUMP JUMPDEST CALLVALUE PUSH2 0x132 JUMPI PUSH1 0x0 CALLDATASIZE PUSH1 0x3 NOT ADD SLT PUSH2 0x132 JUMPI PUSH32 0x0 PUSH1 0x1 PUSH1 0x1 PUSH1 0xA0 SHL SUB AND ADDRESS SUB PUSH2 0xF9B JUMPI PUSH1 0x20 PUSH1 0x40 MLOAD PUSH32 0x360894A13BA1A3210667C828492DB98DCA3E2076CC3735A920A3CA505D382BBC DUP2 MSTORE RETURN JUMPDEST PUSH1 0x40 MLOAD PUSH4 0x703E46DD PUSH1 0xE1 SHL DUP2 MSTORE PUSH1 0x4 SWAP1 REVERT JUMPDEST PUSH1 0x40 CALLDATASIZE PUSH1 0x3 NOT ADD SLT PUSH2 0x132 JUMPI PUSH2 0xFC1 PUSH2 0x1DBF JUMP JUMPDEST PUSH1 0x24 CALLDATALOAD PUSH1 0x1 PUSH1 0x1 PUSH1 0x40 SHL SUB DUP2 GT PUSH2 0x132 JUMPI CALLDATASIZE PUSH1 0x23 DUP3 ADD SLT ISZERO PUSH2 0x132 JUMPI PUSH2 0xFF1 SWAP1 CALLDATASIZE SWAP1 PUSH1 0x24 DUP2 PUSH1 0x4 ADD CALLDATALOAD SWAP2 ADD PUSH2 0x1D6D JUMP JUMPDEST SWAP1 PUSH1 0x1 PUSH1 0x1 PUSH1 0xA0 SHL SUB PUSH32 0x0 DUP2 AND ADDRESS DUP2 EQ SWAP1 DUP2 ISZERO PUSH2 0x11AD JUMPI JUMPDEST POP PUSH2 0xF9B JUMPI PUSH2 0x1035 PUSH2 0x23E9 JUMP JUMPDEST PUSH1 0x40 MLOAD PUSH4 0x52D1902D PUSH1 0xE0 SHL DUP2 MSTORE SWAP1 DUP3 AND SWAP2 PUSH1 0x20 SWAP2 DUP3 DUP2 PUSH1 0x4 DUP2 DUP8 GAS STATICCALL PUSH1 0x0 SWAP2 DUP2 PUSH2 0x117E JUMPI JUMPDEST POP PUSH2 0x1078 JUMPI PUSH1 0x40 MLOAD PUSH4 0x4C9C8CE3 PUSH1 0xE0 SHL DUP2 MSTORE PUSH1 0x4 DUP2 ADD DUP6 SWAP1 MSTORE PUSH1 0x24 SWAP1 REVERT JUMPDEST SWAP3 DUP5 SWAP4 PUSH32 0x360894A13BA1A3210667C828492DB98DCA3E2076CC3735A920A3CA505D382BBC SWAP1 DUP2 DUP2 SUB PUSH2 0x1166 JUMPI POP DUP3 EXTCODESIZE ISZERO PUSH2 0x114D JUMPI DUP1 SLOAD PUSH1 0x1 PUSH1 0x1 PUSH1 0xA0 SHL SUB NOT AND DUP3 OR SWAP1 SSTORE PUSH1 0x40 MLOAD SWAP1 PUSH32 0xBC7CD75A20EE27FD9ADEBAB32041F755214DBC6BFFA90CC0225B39DA2E5C2D3B PUSH1 0x0 DUP1 LOG2 DUP4 MLOAD ISZERO PUSH2 0x1133 JUMPI POP PUSH1 0x0 DUP1 DUP5 DUP5 PUSH2 0x130 SWAP7 MLOAD SWAP2 ADD DUP5 GAS DELEGATECALL SWAP1 RETURNDATASIZE ISZERO PUSH2 0x112A JUMPI RETURNDATASIZE PUSH2 0x110D DUP2 PUSH2 0x1D52 JUMP JUMPDEST SWAP1 PUSH2 0x111B PUSH1 0x40 MLOAD SWAP3 DUP4 PUSH2 0x1C33 JUMP JUMPDEST DUP2 MSTORE PUSH1 0x0 DUP2 SWAP5 RETURNDATASIZE SWAP3 ADD RETURNDATACOPY PUSH2 0x24CB JUMP JUMPDEST PUSH1 0x60 SWAP3 POP PUSH2 0x24CB JUMP JUMPDEST SWAP3 POP POP POP CALLVALUE PUSH2 0x113E JUMPI STOP JUMPDEST PUSH4 0xB398979F PUSH1 0xE0 SHL DUP2 MSTORE PUSH1 0x4 SWAP1 REVERT JUMPDEST PUSH1 0x40 MLOAD PUSH4 0x4C9C8CE3 PUSH1 0xE0 SHL DUP2 MSTORE PUSH1 0x4 DUP2 ADD DUP4 SWAP1 MSTORE PUSH1 0x24 SWAP1 REVERT JUMPDEST PUSH1 0x24 SWAP1 PUSH1 0x40 MLOAD SWAP1 PUSH4 0x2A875269 PUSH1 0xE2 SHL DUP3 MSTORE PUSH1 0x4 DUP3 ADD MSTORE REVERT JUMPDEST SWAP1 SWAP2 POP DUP4 DUP2 DUP2 RETURNDATASIZE DUP4 GT PUSH2 0x11A6 JUMPI JUMPDEST PUSH2 0x1196 DUP2 DUP4 PUSH2 0x1C33 JUMP JUMPDEST DUP2 ADD SUB SLT PUSH2 0x132 JUMPI MLOAD SWAP1 DUP7 PUSH2 0x105A JUMP JUMPDEST POP RETURNDATASIZE PUSH2 0x118C JUMP JUMPDEST SWAP1 POP DUP2 PUSH32 0x360894A13BA1A3210667C828492DB98DCA3E2076CC3735A920A3CA505D382BBC SLOAD AND EQ ISZERO DUP5 PUSH2 0x1028 JUMP JUMPDEST CALLVALUE PUSH2 0x132 JUMPI PUSH1 0x20 DUP1 PUSH1 0x3 NOT CALLDATASIZE ADD SLT PUSH2 0x132 JUMPI PUSH1 0x4 CALLDATALOAD PUSH1 0x1 PUSH1 0x1 PUSH1 0x40 SHL SUB DUP2 GT PUSH2 0x132 JUMPI PUSH2 0x120C SWAP1 CALLDATASIZE SWAP1 PUSH1 0x4 ADD PUSH2 0x1DA4 JUMP JUMPDEST PUSH2 0x1214 PUSH2 0x2200 JUMP JUMPDEST PUSH1 0x40 MLOAD DUP3 DUP2 DUP4 MLOAD PUSH2 0x1228 DUP2 DUP4 DUP6 DUP9 ADD PUSH2 0x1D0A JUMP JUMPDEST DUP2 ADD PUSH1 0x1 DUP2 MSTORE SUB ADD SWAP1 KECCAK256 PUSH1 0x1 DUP1 PUSH1 0xA0 SHL SUB DUP1 PUSH1 0x1 DUP4 ADD SLOAD AND CALLER SUB PUSH2 0x12E6 JUMPI SWAP2 DUP2 PUSH32 0xDECC5F5A8DCDF1C8AA17E12213169C28B4D8DE95678AA033C3063EB6530E6B43 SWAP4 PUSH1 0x7 PUSH2 0x12AE SWAP5 ADD DUP1 SLOAD PUSH2 0x127F PUSH1 0xFF DUP3 AND PUSH2 0x2084 JUMP JUMPDEST PUSH1 0xFF NOT AND SWAP1 SSTORE PUSH1 0xD PUSH1 0x3 DUP4 ADD SLOAD SWAP3 ADD SLOAD SWAP2 DUP3 DUP2 GT PUSH2 0x12C5 JUMPI JUMPDEST POP POP POP PUSH1 0x40 MLOAD SWAP2 DUP3 SWAP2 DUP6 DUP4 MSTORE CALLER SWAP6 DUP4 ADD SWAP1 PUSH2 0x1D2D JUMP JUMPDEST SUB SWAP1 LOG2 PUSH1 0x1 PUSH1 0x0 DUP1 MLOAD PUSH1 0x20 PUSH2 0x254F DUP4 CODECOPY DUP2 MLOAD SWAP2 MSTORE SSTORE STOP JUMPDEST PUSH2 0x12DE SWAP3 PUSH2 0x12D2 SWAP2 PUSH2 0x20D0 JUMP JUMPDEST SWAP1 CALLER SWAP1 PUSH1 0x0 SLOAD AND PUSH2 0x239A JUMP JUMPDEST DUP5 DUP1 DUP1 PUSH2 0x1298 JUMP JUMPDEST PUSH1 0x40 MLOAD PUSH3 0x461BCD PUSH1 0xE5 SHL DUP2 MSTORE PUSH1 0x4 DUP2 ADD DUP6 SWAP1 MSTORE PUSH1 0x1F PUSH1 0x24 DUP3 ADD MSTORE PUSH32 0x4F6E6C7920626F72726F7765722063616E20656E6420626F72726F77696E6700 PUSH1 0x44 DUP3 ADD MSTORE PUSH1 0x64 SWAP1 REVERT JUMPDEST CALLVALUE PUSH2 0x132 JUMPI PUSH1 0x20 SWAP1 DUP2 PUSH1 0x3 NOT CALLDATASIZE ADD SLT PUSH2 0x132 JUMPI PUSH1 0x1 PUSH1 0x1 PUSH1 0xA0 SHL SUB SWAP2 DUP3 PUSH2 0x1350 PUSH2 0x1DBF JUMP JUMPDEST AND PUSH1 0x0 MSTORE PUSH1 0x3 SWAP1 PUSH1 0x3 DUP2 MSTORE PUSH1 0x40 PUSH1 0x0 KECCAK256 SWAP4 DUP5 SLOAD PUSH2 0x136C DUP2 PUSH2 0x1F8E JUMP JUMPDEST SWAP6 PUSH2 0x137A PUSH1 0x40 MLOAD SWAP8 DUP9 PUSH2 0x1C33 JUMP JUMPDEST DUP2 DUP8 MSTORE PUSH1 0x0 SWAP1 DUP2 MSTORE DUP4 DUP2 KECCAK256 DUP5 DUP1 DUP10 ADD JUMPDEST DUP5 DUP5 LT PUSH2 0x1504 JUMPI POP POP POP POP POP PUSH1 0x0 SWAP3 PUSH1 0x0 JUMPDEST DUP7 MLOAD DUP2 LT ISZERO PUSH2 0x13E0 JUMPI PUSH1 0xFF PUSH1 0x7 PUSH2 0x13BC PUSH2 0x13B6 DUP5 DUP12 PUSH2 0x1FA5 JUMP JUMPDEST MLOAD PUSH2 0x1F5B JUMP JUMPDEST ADD SLOAD AND PUSH2 0x13CC JUMPI JUMPDEST PUSH1 0x1 ADD PUSH2 0x139C JUMP JUMPDEST SWAP4 PUSH2 0x13D8 PUSH1 0x1 SWAP2 PUSH2 0x1FB9 JUMP JUMPDEST SWAP5 SWAP1 POP PUSH2 0x13C4 JUMP JUMPDEST POP DUP5 PUSH2 0x13ED DUP8 SWAP5 SWAP6 PUSH2 0x1FC8 JUMP JUMPDEST SWAP2 PUSH1 0x0 SWAP3 PUSH1 0x0 JUMPDEST DUP7 MLOAD DUP2 LT ISZERO PUSH2 0x14F6 JUMPI DUP8 PUSH1 0xFF PUSH1 0x7 DUP10 DUP3 DUP3 PUSH2 0x1412 PUSH2 0x13B6 DUP9 DUP6 PUSH2 0x1FA5 JUMP JUMPDEST ADD SLOAD AND PUSH2 0x1426 JUMPI JUMPDEST POP POP POP POP PUSH1 0x1 ADD PUSH2 0x13F4 JUMP JUMPDEST SWAP2 PUSH2 0x14EA SWAP4 SWAP2 PUSH2 0x14C3 PUSH1 0xC PUSH2 0x1442 PUSH2 0x13B6 DUP10 PUSH1 0x1 SWAP11 SWAP15 SWAP9 PUSH2 0x1FA5 JUMP JUMPDEST DUP14 DUP10 DUP3 ADD SLOAD AND SWAP5 DUP12 DUP3 ADD SLOAD SWAP5 PUSH1 0x4 DUP4 ADD SLOAD SWAP2 PUSH1 0x5 DUP5 ADD SLOAD SWAP1 PUSH1 0x6 DUP6 ADD SLOAD SWAP3 DUP6 ADD SLOAD AND SWAP3 PUSH1 0xD DUP6 ADD SLOAD SWAP8 PUSH1 0xE DUP7 ADD SLOAD SWAP10 PUSH1 0x40 MLOAD SWAP12 PUSH2 0x147E DUP14 PUSH2 0x1C17 JUMP JUMPDEST PUSH2 0x1487 DUP9 PUSH2 0x1C54 JUMP JUMPDEST DUP14 MSTORE DUP13 ADD MSTORE PUSH2 0x1498 PUSH1 0x2 DUP8 ADD PUSH2 0x1C54 JUMP JUMPDEST PUSH1 0x40 DUP13 ADD MSTORE PUSH1 0x60 DUP12 ADD MSTORE PUSH1 0x80 DUP11 ADD MSTORE PUSH1 0xA0 DUP10 ADD MSTORE PUSH1 0xC0 DUP9 ADD MSTORE ISZERO ISZERO DUP13 DUP8 ADD MSTORE PUSH2 0xE84 PUSH1 0x8 DUP3 ADD PUSH2 0x1C54 JUMP JUMPDEST PUSH2 0x180 DUP5 ADD MSTORE PUSH2 0x1A0 DUP4 ADD MSTORE PUSH2 0x1C0 DUP3 ADD MSTORE PUSH2 0x14DF DUP3 DUP7 PUSH2 0x1FA5 JUMP JUMPDEST MSTORE PUSH2 0xEED DUP2 DUP6 PUSH2 0x1FA5 JUMP JUMPDEST SWAP5 SWAP1 POP DUP8 DUP10 DUP1 DUP10 PUSH2 0x141A JUMP JUMPDEST PUSH1 0x40 MLOAD DUP1 PUSH2 0x43E DUP5 DUP3 PUSH2 0x1DD5 JUMP JUMPDEST PUSH1 0x1 SWAP2 DUP3 SWAP2 PUSH2 0x1512 DUP6 PUSH2 0x1C54 JUMP JUMPDEST DUP2 MSTORE ADD SWAP3 ADD SWAP3 ADD SWAP2 SWAP1 DUP6 SWAP1 PUSH2 0x138A JUMP JUMPDEST CALLVALUE PUSH2 0x132 JUMPI PUSH1 0x0 CALLDATASIZE PUSH1 0x3 NOT ADD SLT PUSH2 0x132 JUMPI PUSH1 0x0 SLOAD PUSH1 0x40 MLOAD PUSH1 0x1 PUSH1 0x1 PUSH1 0xA0 SHL SUB SWAP1 SWAP2 AND DUP2 MSTORE PUSH1 0x20 SWAP1 RETURN JUMPDEST CALLVALUE PUSH2 0x132 JUMPI PUSH2 0x120 CALLDATASIZE PUSH1 0x3 NOT ADD SLT PUSH2 0x132 JUMPI PUSH1 0x1 PUSH1 0x1 PUSH1 0x40 SHL SUB PUSH1 0x4 CALLDATALOAD DUP2 DUP2 GT PUSH2 0x132 JUMPI PUSH2 0x157D SWAP1 CALLDATASIZE SWAP1 PUSH1 0x4 ADD PUSH2 0x1DA4 JUMP JUMPDEST PUSH1 0x24 CALLDATALOAD DUP3 DUP2 GT PUSH2 0x132 JUMPI PUSH2 0x1595 SWAP1 CALLDATASIZE SWAP1 PUSH1 0x4 ADD PUSH2 0x1DA4 JUMP JUMPDEST PUSH1 0x84 CALLDATALOAD DUP4 DUP2 GT PUSH2 0x132 JUMPI PUSH2 0x15AD SWAP1 CALLDATASIZE SWAP1 PUSH1 0x4 ADD PUSH2 0x1DA4 JUMP JUMPDEST SWAP2 PUSH1 0xA4 CALLDATALOAD DUP5 DUP2 GT PUSH2 0x132 JUMPI PUSH2 0x15C6 SWAP1 CALLDATASIZE SWAP1 PUSH1 0x4 ADD PUSH2 0x1DA4 JUMP JUMPDEST SWAP2 PUSH1 0xC4 CALLDATALOAD DUP6 DUP2 GT PUSH2 0x132 JUMPI PUSH2 0x15DF SWAP1 CALLDATASIZE SWAP1 PUSH1 0x4 ADD PUSH2 0x1DA4 JUMP JUMPDEST SWAP4 PUSH1 0xE4 CALLDATALOAD DUP7 DUP2 GT PUSH2 0x132 JUMPI PUSH2 0x15F8 SWAP1 CALLDATASIZE SWAP1 PUSH1 0x4 ADD PUSH2 0x1DA4 JUMP JUMPDEST SWAP6 PUSH2 0x104 CALLDATALOAD SWAP1 DUP2 GT PUSH2 0x132 JUMPI PUSH2 0x1612 SWAP1 CALLDATASIZE SWAP1 PUSH1 0x4 ADD PUSH2 0x1DA4 JUMP JUMPDEST SWAP6 PUSH2 0x161B PUSH2 0x2200 JUMP JUMPDEST PUSH1 0x44 CALLDATALOAD ISZERO PUSH2 0x1B0A JUMPI PUSH1 0x64 CALLDATALOAD ISZERO ISZERO DUP1 PUSH2 0x1AFA JUMPI JUMPDEST ISZERO PUSH2 0x1AA5 JUMPI DUP4 MLOAD ISZERO PUSH2 0x1A60 JUMPI PUSH1 0x40 MLOAD PUSH1 0x1 DUP6 MLOAD SWAP2 PUSH2 0x1650 DUP4 DUP3 PUSH1 0x20 DUP11 ADD PUSH2 0x1D0A JUMP JUMPDEST DUP2 DUP4 DUP3 ADD MSTORE PUSH1 0x20 DUP2 DUP4 DUP1 PUSH1 0xA0 SHL SUB SWAP5 DUP2 ADD SUB ADD SWAP1 KECCAK256 ADD SLOAD AND PUSH2 0x1A1B JUMPI DUP2 MLOAD ISZERO PUSH2 0x19D6 JUMPI DUP5 MLOAD ISZERO PUSH2 0x1991 JUMPI DUP6 MLOAD ISZERO PUSH2 0x194C JUMPI DUP1 MLOAD ISZERO PUSH2 0x1907 JUMPI DUP7 MLOAD ISZERO PUSH2 0x18C2 JUMPI PUSH2 0x169A PUSH1 0x44 CALLDATALOAD PUSH2 0x2171 JUMP JUMPDEST PUSH1 0x0 SLOAD SWAP1 SWAP3 SWAP1 PUSH2 0x16C3 SWAP1 PUSH1 0x1 PUSH1 0x1 PUSH1 0xA0 SHL SUB AND PUSH2 0x16B9 DUP6 PUSH1 0x44 CALLDATALOAD PUSH2 0x1F81 JUMP JUMPDEST SWAP1 ADDRESS SWAP1 CALLER SWAP1 PUSH2 0x2230 JUMP JUMPDEST PUSH1 0x0 PUSH1 0xE PUSH1 0x40 MLOAD PUSH1 0x20 DUP2 DUP2 PUSH2 0x16DE DUP12 DUP4 DUP2 MLOAD SWAP4 DUP5 SWAP3 ADD PUSH2 0x1D0A JUMP JUMPDEST DUP2 ADD PUSH1 0x1 DUP2 MSTORE SUB ADD SWAP1 KECCAK256 PUSH2 0x16F2 DUP9 DUP3 PUSH2 0x2288 JUMP JUMPDEST PUSH1 0x1 DUP2 ADD DUP1 SLOAD PUSH1 0x1 PUSH1 0x1 PUSH1 0xA0 SHL SUB NOT AND CALLER OR SWAP1 SSTORE PUSH2 0x1713 DUP8 PUSH1 0x2 DUP4 ADD PUSH2 0x2288 JUMP JUMPDEST PUSH1 0x44 CALLDATALOAD PUSH1 0x3 DUP3 ADD SSTORE DUP6 PUSH1 0x4 DUP3 ADD SSTORE PUSH1 0x64 CALLDATALOAD PUSH1 0x5 DUP3 ADD SSTORE TIMESTAMP PUSH1 0x6 DUP3 ADD SSTORE PUSH1 0x7 DUP2 ADD PUSH1 0x1 PUSH1 0xFF NOT DUP3 SLOAD AND OR SWAP1 SSTORE PUSH2 0x174B DUP5 PUSH1 0x8 DUP4 ADD PUSH2 0x2288 JUMP JUMPDEST PUSH2 0x1758 DUP10 PUSH1 0x9 DUP4 ADD PUSH2 0x2288 JUMP JUMPDEST PUSH2 0x1765 DUP11 PUSH1 0xA DUP4 ADD PUSH2 0x2288 JUMP JUMPDEST PUSH2 0x1772 DUP6 PUSH1 0xB DUP4 ADD PUSH2 0x2288 JUMP JUMPDEST PUSH2 0x177F DUP12 PUSH1 0xC DUP4 ADD PUSH2 0x2288 JUMP JUMPDEST DUP3 PUSH1 0xD DUP3 ADD SSTORE ADD SSTORE PUSH1 0x2 SLOAD PUSH1 0x1 PUSH1 0x40 SHL DUP2 LT ISZERO PUSH2 0x2E9 JUMPI DUP1 PUSH1 0x1 PUSH2 0x17A6 SWAP3 ADD PUSH1 0x2 SSTORE PUSH2 0x1B78 JUMP JUMPDEST PUSH2 0x18AC JUMPI DUP6 PUSH2 0x17B4 SWAP2 PUSH2 0x2288 JUMP JUMPDEST CALLER PUSH1 0x0 MSTORE PUSH1 0x3 PUSH1 0x20 MSTORE PUSH1 0x40 PUSH1 0x0 KECCAK256 DUP1 SLOAD PUSH1 0x1 PUSH1 0x40 SHL DUP2 LT ISZERO PUSH2 0x2E9 JUMPI PUSH2 0x17DF SWAP2 PUSH1 0x1 DUP3 ADD DUP2 SSTORE PUSH2 0x1BC5 JUMP JUMPDEST SWAP8 SWAP1 SWAP8 PUSH2 0x18AC JUMPI PUSH2 0x187F PUSH2 0x1840 SWAP8 PUSH2 0x1871 PUSH2 0x189C SWAP7 PUSH2 0x188D SWAP6 PUSH2 0x184E PUSH2 0x12AE SWAP11 PUSH2 0x182B PUSH32 0x8A238393E944DED6E1F623B61C56E79AA2F9F7439BF7F4346F5245B6D259AC37 SWAP16 DUP15 SWAP1 PUSH2 0x2288 JUMP JUMPDEST PUSH1 0x40 MLOAD SWAP14 DUP15 SWAP14 DUP15 PUSH2 0x140 SWAP1 DUP2 DUP2 MSTORE ADD SWAP1 PUSH2 0x1D2D JUMP JUMPDEST DUP14 DUP2 SUB PUSH1 0x20 DUP16 ADD MSTORE SWAP1 PUSH2 0x1D2D JUMP JUMPDEST SWAP2 PUSH1 0x44 CALLDATALOAD PUSH1 0x40 DUP14 ADD MSTORE PUSH1 0x60 DUP13 ADD MSTORE PUSH1 0x64 CALLDATALOAD PUSH1 0x80 DUP13 ADD MSTORE DUP11 DUP3 SUB PUSH1 0xA0 DUP13 ADD MSTORE PUSH2 0x1D2D JUMP JUMPDEST SWAP1 DUP9 DUP3 SUB PUSH1 0xC0 DUP11 ADD MSTORE PUSH2 0x1D2D JUMP JUMPDEST SWAP1 DUP7 DUP3 SUB PUSH1 0xE0 DUP9 ADD MSTORE PUSH2 0x1D2D JUMP JUMPDEST SWAP1 DUP5 DUP3 SUB PUSH2 0x100 DUP7 ADD MSTORE PUSH2 0x1D2D JUMP JUMPDEST DUP3 DUP2 SUB PUSH2 0x120 DUP5 ADD MSTORE CALLER SWAP6 PUSH2 0x1D2D JUMP JUMPDEST PUSH4 0x4E487B71 PUSH1 0xE0 SHL PUSH1 0x0 MSTORE PUSH1 0x0 PUSH1 0x4 MSTORE PUSH1 0x24 PUSH1 0x0 REVERT JUMPDEST PUSH1 0x40 MLOAD PUSH3 0x461BCD PUSH1 0xE5 SHL DUP2 MSTORE PUSH1 0x20 PUSH1 0x4 DUP3 ADD MSTORE PUSH1 0x19 PUSH1 0x24 DUP3 ADD MSTORE PUSH32 0x4C6F6E6769747564652063616E6E6F7420626520656D70747900000000000000 PUSH1 0x44 DUP3 ADD MSTORE PUSH1 0x64 SWAP1 REVERT JUMPDEST PUSH1 0x40 MLOAD PUSH3 0x461BCD PUSH1 0xE5 SHL DUP2 MSTORE PUSH1 0x20 PUSH1 0x4 DUP3 ADD MSTORE PUSH1 0x18 PUSH1 0x24 DUP3 ADD MSTORE PUSH32 0x4C617469747564652063616E6E6F7420626520656D7074790000000000000000 PUSH1 0x44 DUP3 ADD MSTORE PUSH1 0x64 SWAP1 REVERT JUMPDEST PUSH1 0x40 MLOAD PUSH3 0x461BCD PUSH1 0xE5 SHL DUP2 MSTORE PUSH1 0x20 PUSH1 0x4 DUP3 ADD MSTORE PUSH1 0x1F PUSH1 0x24 DUP3 ADD MSTORE PUSH32 0x436F6C6C61746572616C20696E666F2063616E6E6F7420626520656D70747900 PUSH1 0x44 DUP3 ADD MSTORE PUSH1 0x64 SWAP1 REVERT JUMPDEST PUSH1 0x40 MLOAD PUSH3 0x461BCD PUSH1 0xE5 SHL DUP2 MSTORE PUSH1 0x20 PUSH1 0x4 DUP3 ADD MSTORE PUSH1 0x17 PUSH1 0x24 DUP3 ADD MSTORE PUSH32 0x507572706F73652063616E6E6F7420626520656D707479000000000000000000 PUSH1 0x44 DUP3 ADD MSTORE PUSH1 0x64 SWAP1 REVERT JUMPDEST PUSH1 0x40 MLOAD PUSH3 0x461BCD PUSH1 0xE5 SHL DUP2 MSTORE PUSH1 0x20 PUSH1 0x4 DUP3 ADD MSTORE PUSH1 0x1C PUSH1 0x24 DUP3 ADD MSTORE PUSH32 0x436F6E7461637420696E666F2063616E6E6F7420626520656D70747900000000 PUSH1 0x44 DUP3 ADD MSTORE PUSH1 0x64 SWAP1 REVERT JUMPDEST PUSH1 0x40 MLOAD PUSH3 0x461BCD PUSH1 0xE5 SHL DUP2 MSTORE PUSH1 0x20 PUSH1 0x4 DUP3 ADD MSTORE PUSH1 0x1B PUSH1 0x24 DUP3 ADD MSTORE PUSH32 0x426F72726F77696E6720494420616C7265616479206578697374730000000000 PUSH1 0x44 DUP3 ADD MSTORE PUSH1 0x64 SWAP1 REVERT JUMPDEST PUSH1 0x40 MLOAD PUSH3 0x461BCD PUSH1 0xE5 SHL DUP2 MSTORE PUSH1 0x20 PUSH1 0x4 DUP3 ADD MSTORE PUSH1 0x1C PUSH1 0x24 DUP3 ADD MSTORE PUSH32 0x426F72726F77696E672049442063616E6E6F7420626520656D70747900000000 PUSH1 0x44 DUP3 ADD MSTORE PUSH1 0x64 SWAP1 REVERT JUMPDEST PUSH1 0x40 MLOAD PUSH3 0x461BCD PUSH1 0xE5 SHL DUP2 MSTORE PUSH1 0x20 PUSH1 0x4 DUP3 ADD MSTORE PUSH1 0x27 PUSH1 0x24 DUP3 ADD MSTORE PUSH32 0x4475726174696F6E206D757374206265206265747765656E203120616E642033 PUSH1 0x44 DUP3 ADD MSTORE PUSH7 0x36352064617973 PUSH1 0xC8 SHL PUSH1 0x64 DUP3 ADD MSTORE PUSH1 0x84 SWAP1 REVERT JUMPDEST POP PUSH4 0x1E13380 PUSH1 0x64 CALLDATALOAD GT ISZERO PUSH2 0x162E JUMP JUMPDEST PUSH1 0x40 MLOAD PUSH3 0x461BCD PUSH1 0xE5 SHL DUP2 MSTORE PUSH1 0x20 PUSH1 0x4 DUP3 ADD MSTORE PUSH1 0x1D PUSH1 0x24 DUP3 ADD MSTORE PUSH32 0x416D6F756E74206D7573742062652067726561746572207468616E2030000000 PUSH1 0x44 DUP3 ADD MSTORE PUSH1 0x64 SWAP1 REVERT JUMPDEST CALLVALUE PUSH2 0x132 JUMPI PUSH1 0x20 CALLDATASIZE PUSH1 0x3 NOT ADD SLT PUSH2 0x132 JUMPI PUSH1 0x4 CALLDATALOAD PUSH1 0x2 SLOAD DUP2 LT ISZERO PUSH2 0x132 JUMPI PUSH2 0x42A PUSH2 0x424 PUSH2 0x43E SWAP3 JUMPDEST PUSH1 0x2 SLOAD DUP2 LT ISZERO PUSH2 0x1BAF JUMPI PUSH1 0x2 PUSH1 0x0 MSTORE PUSH32 0x405787FA12A823E0F2B7631CC41B3BA8828B3321CA811111FA75CD3AA3BB5ACE ADD SWAP1 PUSH1 0x0 SWAP1 JUMP JUMPDEST PUSH4 0x4E487B71 PUSH1 0xE0 SHL PUSH1 0x0 MSTORE PUSH1 0x32 PUSH1 0x4 MSTORE PUSH1 0x24 PUSH1 0x0 REVERT JUMPDEST DUP1 SLOAD DUP3 LT ISZERO PUSH2 0x1BAF JUMPI PUSH1 0x0 MSTORE PUSH1 0x20 PUSH1 0x0 KECCAK256 ADD SWAP1 PUSH1 0x0 SWAP1 JUMP JUMPDEST SWAP1 PUSH1 0x1 DUP3 DUP2 SHR SWAP3 AND DUP1 ISZERO PUSH2 0x1C0D JUMPI JUMPDEST PUSH1 0x20 DUP4 LT EQ PUSH2 0x1BF7 JUMPI JUMP JUMPDEST PUSH4 0x4E487B71 PUSH1 0xE0 SHL PUSH1 0x0 MSTORE PUSH1 0x22 PUSH1 0x4 MSTORE PUSH1 0x24 PUSH1 0x0 REVERT JUMPDEST SWAP2 PUSH1 0x7F AND SWAP2 PUSH2 0x1BEC JUMP JUMPDEST PUSH2 0x1E0 DUP2 ADD SWAP1 DUP2 LT PUSH1 0x1 PUSH1 0x1 PUSH1 0x40 SHL SUB DUP3 GT OR PUSH2 0x2E9 JUMPI PUSH1 0x40 MSTORE JUMP JUMPDEST SWAP1 PUSH1 0x1F DUP1 NOT SWAP2 ADD AND DUP2 ADD SWAP1 DUP2 LT PUSH1 0x1 PUSH1 0x1 PUSH1 0x40 SHL SUB DUP3 GT OR PUSH2 0x2E9 JUMPI PUSH1 0x40 MSTORE JUMP JUMPDEST SWAP1 PUSH1 0x40 MLOAD SWAP2 DUP3 PUSH1 0x0 DUP3 SLOAD PUSH2 0x1C67 DUP2 PUSH2 0x1BDD JUMP JUMPDEST SWAP1 DUP2 DUP5 MSTORE PUSH1 0x20 SWAP5 PUSH1 0x1 SWAP2 PUSH1 0x1 DUP2 AND SWAP1 DUP2 PUSH1 0x0 EQ PUSH2 0x1CD7 JUMPI POP PUSH1 0x1 EQ PUSH2 0x1C98 JUMPI JUMPDEST POP POP POP PUSH2 0x1C96 SWAP3 POP SUB DUP4 PUSH2 0x1C33 JUMP JUMPDEST JUMP JUMPDEST PUSH1 0x0 SWAP1 DUP2 MSTORE DUP6 DUP2 KECCAK256 SWAP6 SWAP4 POP SWAP2 SWAP1 JUMPDEST DUP2 DUP4 LT PUSH2 0x1CBF JUMPI POP POP PUSH2 0x1C96 SWAP4 POP DUP3 ADD ADD CODESIZE DUP1 DUP1 PUSH2 0x1C87 JUMP JUMPDEST DUP6 SLOAD DUP9 DUP5 ADD DUP6 ADD MSTORE SWAP5 DUP6 ADD SWAP5 DUP8 SWAP5 POP SWAP2 DUP4 ADD SWAP2 PUSH2 0x1CA6 JUMP JUMPDEST SWAP3 POP POP POP PUSH2 0x1C96 SWAP5 SWAP3 POP PUSH1 0xFF NOT AND DUP3 DUP5 ADD MSTORE ISZERO ISZERO PUSH1 0x5 SHL DUP3 ADD ADD CODESIZE DUP1 DUP1 PUSH2 0x1C87 JUMP JUMPDEST SWAP1 PUSH2 0x18AC JUMPI PUSH2 0x1D07 SWAP1 PUSH2 0x1C54 JUMP JUMPDEST SWAP1 JUMP JUMPDEST PUSH1 0x0 JUMPDEST DUP4 DUP2 LT PUSH2 0x1D1D JUMPI POP POP PUSH1 0x0 SWAP2 ADD MSTORE JUMP JUMPDEST DUP2 DUP2 ADD MLOAD DUP4 DUP3 ADD MSTORE PUSH1 0x20 ADD PUSH2 0x1D0D JUMP JUMPDEST SWAP1 PUSH1 0x20 SWAP2 PUSH2 0x1D46 DUP2 MLOAD DUP1 SWAP3 DUP2 DUP6 MSTORE DUP6 DUP1 DUP7 ADD SWAP2 ADD PUSH2 0x1D0A JUMP JUMPDEST PUSH1 0x1F ADD PUSH1 0x1F NOT AND ADD ADD SWAP1 JUMP JUMPDEST PUSH1 0x1 PUSH1 0x1 PUSH1 0x40 SHL SUB DUP2 GT PUSH2 0x2E9 JUMPI PUSH1 0x1F ADD PUSH1 0x1F NOT AND PUSH1 0x20 ADD SWAP1 JUMP JUMPDEST SWAP3 SWAP2 SWAP3 PUSH2 0x1D79 DUP3 PUSH2 0x1D52 JUMP JUMPDEST SWAP2 PUSH2 0x1D87 PUSH1 0x40 MLOAD SWAP4 DUP5 PUSH2 0x1C33 JUMP JUMPDEST DUP3 SWAP5 DUP2 DUP5 MSTORE DUP2 DUP4 ADD GT PUSH2 0x132 JUMPI DUP3 DUP2 PUSH1 0x20 SWAP4 DUP5 PUSH1 0x0 SWAP7 ADD CALLDATACOPY ADD ADD MSTORE JUMP JUMPDEST SWAP1 DUP1 PUSH1 0x1F DUP4 ADD SLT ISZERO PUSH2 0x132 JUMPI DUP2 PUSH1 0x20 PUSH2 0x1D07 SWAP4 CALLDATALOAD SWAP2 ADD PUSH2 0x1D6D JUMP JUMPDEST PUSH1 0x4 CALLDATALOAD SWAP1 PUSH1 0x1 PUSH1 0x1 PUSH1 0xA0 SHL SUB DUP3 AND DUP3 SUB PUSH2 0x132 JUMPI JUMP JUMPDEST PUSH1 0x20 DUP1 DUP3 ADD SWAP1 DUP1 DUP4 MSTORE DUP4 MLOAD DUP1 SWAP3 MSTORE PUSH1 0x40 SWAP3 PUSH1 0x40 DUP2 ADD DUP3 PUSH1 0x40 DUP6 PUSH1 0x5 SHL DUP5 ADD ADD SWAP7 ADD SWAP5 PUSH1 0x0 SWAP3 JUMPDEST DUP6 DUP5 LT PUSH2 0x1E0C JUMPI POP POP POP POP POP POP POP SWAP1 JUMP JUMPDEST SWAP1 SWAP2 SWAP3 SWAP4 SWAP5 SWAP6 SWAP7 DUP6 DUP1 PUSH1 0x1 SWAP3 PUSH1 0x3F NOT DUP6 DUP3 SUB ADD DUP8 MSTORE DUP11 MLOAD SWAP1 PUSH2 0x1F03 PUSH2 0x1EEF PUSH2 0x1EDB PUSH2 0x1EC7 PUSH2 0x1EB3 PUSH2 0x1E6B PUSH2 0x1E4A PUSH2 0x1E0 DUP10 MLOAD SWAP1 DUP1 DUP11 MSTORE DUP10 ADD SWAP1 PUSH2 0x1D2D JUMP JUMPDEST DUP12 DUP1 PUSH1 0xA0 SHL SUB DUP11 DUP11 ADD MLOAD AND DUP11 DUP10 ADD MSTORE DUP14 DUP1 DUP11 ADD MLOAD SWAP1 DUP10 DUP4 SUB SWAP1 DUP11 ADD MSTORE PUSH2 0x1D2D JUMP JUMPDEST PUSH1 0x60 DUP1 DUP10 ADD MLOAD SWAP1 DUP9 ADD MSTORE PUSH1 0x80 DUP1 DUP10 ADD MLOAD SWAP1 DUP9 ADD MSTORE PUSH1 0xA0 DUP1 DUP10 ADD MLOAD SWAP1 DUP9 ADD MSTORE PUSH1 0xC0 DUP1 DUP10 ADD MLOAD SWAP1 DUP9 ADD MSTORE PUSH1 0xE0 DUP1 DUP10 ADD MLOAD ISZERO ISZERO SWAP1 DUP9 ADD MSTORE PUSH2 0x100 DUP1 DUP10 ADD MLOAD SWAP1 DUP9 DUP4 SUB SWAP1 DUP10 ADD MSTORE PUSH2 0x1D2D JUMP JUMPDEST PUSH2 0x120 DUP1 DUP9 ADD MLOAD SWAP1 DUP8 DUP4 SUB SWAP1 DUP9 ADD MSTORE PUSH2 0x1D2D JUMP JUMPDEST PUSH2 0x140 DUP1 DUP8 ADD MLOAD SWAP1 DUP7 DUP4 SUB SWAP1 DUP8 ADD MSTORE PUSH2 0x1D2D JUMP JUMPDEST PUSH2 0x160 DUP1 DUP7 ADD MLOAD SWAP1 DUP6 DUP4 SUB SWAP1 DUP7 ADD MSTORE PUSH2 0x1D2D JUMP JUMPDEST PUSH2 0x180 DUP1 DUP6 ADD MLOAD SWAP1 DUP5 DUP4 SUB SWAP1 DUP6 ADD MSTORE PUSH2 0x1D2D JUMP JUMPDEST SWAP2 PUSH2 0x1A0 DUP1 DUP3 ADD MLOAD SWAP1 DUP4 ADD MSTORE PUSH2 0x1C0 DUP1 SWAP2 ADD MLOAD SWAP2 ADD MSTORE SWAP10 ADD SWAP5 ADD SWAP5 ADD SWAP3 SWAP6 SWAP5 SWAP4 SWAP2 SWAP1 PUSH2 0x1DFB JUMP JUMPDEST PUSH1 0x40 PUSH1 0x3 NOT DUP3 ADD SLT PUSH2 0x132 JUMPI PUSH1 0x4 CALLDATALOAD SWAP1 PUSH1 0x1 PUSH1 0x1 PUSH1 0x40 SHL SUB DUP3 GT PUSH2 0x132 JUMPI PUSH2 0x1F54 SWAP2 PUSH1 0x4 ADD PUSH2 0x1DA4 JUMP JUMPDEST SWAP1 PUSH1 0x24 CALLDATALOAD SWAP1 JUMP JUMPDEST PUSH1 0x20 PUSH2 0x1F74 SWAP2 DUP2 PUSH1 0x40 MLOAD SWAP4 DUP3 DUP6 DUP1 SWAP5 MLOAD SWAP4 DUP5 SWAP3 ADD PUSH2 0x1D0A JUMP JUMPDEST DUP2 ADD PUSH1 0x1 DUP2 MSTORE SUB ADD SWAP1 KECCAK256 SWAP1 JUMP JUMPDEST SWAP2 SWAP1 DUP3 ADD DUP1 SWAP3 GT PUSH2 0x91A JUMPI JUMP JUMPDEST PUSH1 0x1 PUSH1 0x1 PUSH1 0x40 SHL SUB DUP2 GT PUSH2 0x2E9 JUMPI PUSH1 0x5 SHL PUSH1 0x20 ADD SWAP1 JUMP JUMPDEST DUP1 MLOAD DUP3 LT ISZERO PUSH2 0x1BAF JUMPI PUSH1 0x20 SWAP2 PUSH1 0x5 SHL ADD ADD SWAP1 JUMP JUMPDEST PUSH1 0x0 NOT DUP2 EQ PUSH2 0x91A JUMPI PUSH1 0x1 ADD SWAP1 JUMP JUMPDEST SWAP1 PUSH2 0x1FD2 DUP3 PUSH2 0x1F8E JUMP JUMPDEST PUSH1 0x40 SWAP1 PUSH2 0x1FE2 PUSH1 0x40 MLOAD SWAP2 DUP3 PUSH2 0x1C33 JUMP JUMPDEST DUP4 DUP2 MSTORE DUP1 SWAP4 PUSH2 0x1FF3 PUSH1 0x1F NOT SWAP2 PUSH2 0x1F8E JUMP JUMPDEST ADD SWAP2 PUSH1 0x0 JUMPDEST DUP4 DUP2 LT PUSH2 0x2005 JUMPI POP POP POP POP JUMP JUMPDEST PUSH1 0x20 SWAP1 DUP3 MLOAD PUSH2 0x2013 DUP2 PUSH2 0x1C17 JUMP JUMPDEST PUSH1 0x60 DUP1 DUP3 MSTORE DUP4 SWAP1 PUSH1 0x0 DUP3 DUP5 ADD MSTORE DUP1 DUP7 DUP5 ADD MSTORE PUSH1 0x0 DUP2 DUP5 ADD MSTORE PUSH1 0x0 PUSH1 0x80 DUP5 ADD MSTORE PUSH1 0x0 PUSH1 0xA0 DUP5 ADD MSTORE PUSH1 0x0 PUSH1 0xC0 DUP5 ADD MSTORE PUSH1 0x0 PUSH1 0xE0 DUP5 ADD MSTORE DUP1 PUSH2 0x100 DUP5 ADD MSTORE DUP1 PUSH2 0x120 DUP5 ADD MSTORE DUP1 PUSH2 0x140 DUP5 ADD MSTORE DUP1 PUSH2 0x160 DUP5 ADD MSTORE PUSH2 0x180 DUP4 ADD MSTORE PUSH1 0x0 PUSH2 0x1A0 DUP4 ADD MSTORE PUSH1 0x0 PUSH2 0x1C0 DUP4 ADD MSTORE DUP3 DUP7 ADD ADD MSTORE ADD PUSH2 0x1FF8 JUMP JUMPDEST ISZERO PUSH2 0x208B JUMPI JUMP JUMPDEST PUSH1 0x40 MLOAD PUSH3 0x461BCD PUSH1 0xE5 SHL DUP2 MSTORE PUSH1 0x20 PUSH1 0x4 DUP3 ADD MSTORE PUSH1 0x17 PUSH1 0x24 DUP3 ADD MSTORE PUSH32 0x426F72726F77696E67206973206E6F7420616374697665000000000000000000 PUSH1 0x44 DUP3 ADD MSTORE PUSH1 0x64 SWAP1 REVERT JUMPDEST SWAP2 SWAP1 DUP3 SUB SWAP2 DUP3 GT PUSH2 0x91A JUMPI JUMP JUMPDEST PUSH1 0x40 MLOAD SWAP1 DUP2 PUSH1 0x0 DUP3 SLOAD PUSH2 0x20EF DUP2 PUSH2 0x1BDD JUMP JUMPDEST SWAP4 PUSH1 0x1 SWAP2 DUP1 DUP4 AND SWAP1 DUP2 ISZERO PUSH2 0x2155 JUMPI POP PUSH1 0x1 EQ PUSH2 0x2117 JUMPI JUMPDEST POP POP PUSH1 0x20 SWAP3 POP PUSH1 0x1 DUP2 MSTORE SUB ADD SWAP1 KECCAK256 SWAP1 JUMP JUMPDEST SWAP1 SWAP2 POP PUSH1 0x0 MSTORE PUSH1 0x20 SWAP1 PUSH1 0x20 PUSH1 0x0 KECCAK256 SWAP1 PUSH1 0x0 SWAP2 JUMPDEST DUP6 DUP4 LT PUSH2 0x2141 JUMPI POP POP POP POP PUSH1 0x20 SWAP2 DUP2 ADD CODESIZE DUP1 PUSH2 0x2106 JUMP JUMPDEST DUP1 SLOAD DUP8 DUP5 ADD MSTORE DUP7 SWAP5 POP SWAP2 DUP4 ADD SWAP2 DUP2 ADD PUSH2 0x212A JUMP JUMPDEST SWAP3 POP POP POP PUSH1 0x20 SWAP4 SWAP2 POP PUSH1 0xFF NOT AND DUP3 MSTORE DUP1 ISZERO ISZERO MUL DUP2 ADD CODESIZE DUP1 PUSH2 0x2106 JUMP JUMPDEST PUSH1 0x2A DUP2 MUL SWAP1 DUP1 DUP3 DIV PUSH1 0x2A EQ SWAP1 ISZERO OR ISZERO PUSH2 0x91A JUMPI PUSH2 0x2710 SWAP1 DIV SWAP1 JUMP JUMPDEST PUSH1 0x1 PUSH1 0x1 PUSH1 0xA0 SHL SUB SWAP1 DUP2 AND SWAP1 DUP2 ISZERO PUSH2 0x21E7 JUMPI PUSH1 0x0 DUP1 MLOAD PUSH1 0x20 PUSH2 0x252F DUP4 CODECOPY DUP2 MLOAD SWAP2 MSTORE DUP1 SLOAD PUSH1 0x1 PUSH1 0x1 PUSH1 0xA0 SHL SUB NOT DUP2 AND DUP5 OR SWAP1 SWAP2 SSTORE AND PUSH32 0x8BE0079C531659141344CD1FD0A4F28419497F9722A3DAAFE3B4186F6B6457E0 PUSH1 0x0 DUP1 LOG3 JUMP JUMPDEST PUSH1 0x40 MLOAD PUSH4 0x1E4FBDF7 PUSH1 0xE0 SHL DUP2 MSTORE PUSH1 0x0 PUSH1 0x4 DUP3 ADD MSTORE PUSH1 0x24 SWAP1 REVERT JUMPDEST PUSH1 0x0 DUP1 MLOAD PUSH1 0x20 PUSH2 0x254F DUP4 CODECOPY DUP2 MLOAD SWAP2 MSTORE PUSH1 0x2 DUP2 SLOAD EQ PUSH2 0x221E JUMPI PUSH1 0x2 SWAP1 SSTORE JUMP JUMPDEST PUSH1 0x40 MLOAD PUSH4 0x3EE5AEB5 PUSH1 0xE0 SHL DUP2 MSTORE PUSH1 0x4 SWAP1 REVERT JUMPDEST PUSH1 0x40 MLOAD PUSH4 0x23B872DD PUSH1 0xE0 SHL PUSH1 0x20 DUP3 ADD MSTORE PUSH1 0x1 PUSH1 0x1 PUSH1 0xA0 SHL SUB SWAP3 DUP4 AND PUSH1 0x24 DUP3 ADD MSTORE SWAP3 SWAP1 SWAP2 AND PUSH1 0x44 DUP4 ADD MSTORE PUSH1 0x64 DUP1 DUP4 ADD SWAP4 SWAP1 SWAP4 MSTORE SWAP2 DUP2 MSTORE PUSH1 0xA0 DUP2 ADD SWAP2 DUP2 DUP4 LT PUSH1 0x1 PUSH1 0x1 PUSH1 0x40 SHL SUB DUP5 GT OR PUSH2 0x2E9 JUMPI PUSH2 0x1C96 SWAP3 PUSH1 0x40 MSTORE PUSH2 0x2422 JUMP JUMPDEST SWAP2 SWAP1 SWAP2 DUP3 MLOAD PUSH1 0x1 PUSH1 0x1 PUSH1 0x40 SHL SUB DUP2 GT PUSH2 0x2E9 JUMPI PUSH2 0x22A5 DUP3 SLOAD PUSH2 0x1BDD JUMP JUMPDEST PUSH1 0x1F DUP2 GT PUSH2 0x2350 JUMPI JUMPDEST POP PUSH1 0x20 DUP1 PUSH1 0x1F DUP4 GT PUSH1 0x1 EQ PUSH2 0x22EB JUMPI POP DUP2 SWAP3 SWAP4 SWAP5 PUSH1 0x0 SWAP3 PUSH2 0x22E0 JUMPI JUMPDEST POP POP DUP2 PUSH1 0x1 SHL SWAP2 PUSH1 0x0 NOT SWAP1 PUSH1 0x3 SHL SHR NOT AND OR SWAP1 SSTORE JUMP JUMPDEST ADD MLOAD SWAP1 POP CODESIZE DUP1 PUSH2 0x22CA JUMP JUMPDEST SWAP1 PUSH1 0x1F NOT DUP4 AND SWAP6 DUP5 PUSH1 0x0 MSTORE PUSH1 0x20 PUSH1 0x0 KECCAK256 SWAP3 PUSH1 0x0 SWAP1 JUMPDEST DUP9 DUP3 LT PUSH2 0x2338 JUMPI POP POP DUP4 PUSH1 0x1 SWAP6 SWAP7 SWAP8 LT PUSH2 0x231F JUMPI JUMPDEST POP POP POP DUP2 SHL ADD SWAP1 SSTORE JUMP JUMPDEST ADD MLOAD PUSH1 0x0 NOT PUSH1 0xF8 DUP5 PUSH1 0x3 SHL AND SHR NOT AND SWAP1 SSTORE CODESIZE DUP1 DUP1 PUSH2 0x2315 JUMP JUMPDEST DUP1 PUSH1 0x1 DUP6 SWAP7 DUP3 SWAP5 SWAP7 DUP7 ADD MLOAD DUP2 SSTORE ADD SWAP6 ADD SWAP4 ADD SWAP1 PUSH2 0x2300 JUMP JUMPDEST PUSH1 0x0 DUP4 PUSH1 0x0 MSTORE PUSH1 0x20 PUSH1 0x0 KECCAK256 PUSH1 0x1F DUP5 ADD PUSH1 0x5 SHR DUP2 ADD SWAP3 PUSH1 0x20 DUP6 LT PUSH2 0x2390 JUMPI JUMPDEST PUSH1 0x1F ADD PUSH1 0x5 SHR ADD SWAP2 JUMPDEST DUP3 DUP2 LT PUSH2 0x2385 JUMPI POP POP PUSH2 0x22AE JUMP JUMPDEST DUP2 DUP2 SSTORE PUSH1 0x1 ADD PUSH2 0x2377 JUMP JUMPDEST SWAP1 SWAP3 POP DUP3 SWAP1 PUSH2 0x236E JUMP JUMPDEST PUSH1 0x40 MLOAD PUSH4 0xA9059CBB PUSH1 0xE0 SHL PUSH1 0x20 DUP3 ADD MSTORE PUSH1 0x1 PUSH1 0x1 PUSH1 0xA0 SHL SUB SWAP1 SWAP3 AND PUSH1 0x24 DUP4 ADD MSTORE PUSH1 0x44 DUP1 DUP4 ADD SWAP4 SWAP1 SWAP4 MSTORE SWAP2 DUP2 MSTORE PUSH1 0x80 DUP2 ADD SWAP2 PUSH1 0x1 PUSH1 0x1 PUSH1 0x40 SHL SUB DUP4 GT DUP3 DUP5 LT OR PUSH2 0x2E9 JUMPI PUSH2 0x1C96 SWAP3 PUSH1 0x40 MSTORE PUSH2 0x2422 JUMP JUMPDEST PUSH1 0x0 DUP1 MLOAD PUSH1 0x20 PUSH2 0x252F DUP4 CODECOPY DUP2 MLOAD SWAP2 MSTORE SLOAD PUSH1 0x1 PUSH1 0x1 PUSH1 0xA0 SHL SUB AND CALLER SUB PUSH2 0x240A JUMPI JUMP JUMPDEST PUSH1 0x40 MLOAD PUSH4 0x118CDAA7 PUSH1 0xE0 SHL DUP2 MSTORE CALLER PUSH1 0x4 DUP3 ADD MSTORE PUSH1 0x24 SWAP1 REVERT JUMPDEST SWAP1 PUSH1 0x0 PUSH1 0x20 SWAP2 DUP3 DUP2 MLOAD SWAP2 ADD DUP3 DUP6 GAS CALL ISZERO PUSH2 0x247E JUMPI PUSH1 0x0 MLOAD RETURNDATASIZE PUSH2 0x2475 JUMPI POP PUSH1 0x1 PUSH1 0x1 PUSH1 0xA0 SHL SUB DUP2 AND EXTCODESIZE ISZERO JUMPDEST PUSH2 0x2453 JUMPI POP JUMP JUMPDEST PUSH1 0x40 MLOAD PUSH4 0x5274AFE7 PUSH1 0xE0 SHL DUP2 MSTORE PUSH1 0x1 PUSH1 0x1 PUSH1 0xA0 SHL SUB SWAP1 SWAP2 AND PUSH1 0x4 DUP3 ADD MSTORE PUSH1 0x24 SWAP1 REVERT JUMPDEST PUSH1 0x1 EQ ISZERO PUSH2 0x244C JUMP JUMPDEST PUSH1 0x40 MLOAD RETURNDATASIZE PUSH1 0x0 DUP3 RETURNDATACOPY RETURNDATASIZE SWAP1 REVERT JUMPDEST PUSH1 0xFF PUSH32 0xF0C57E16840DF040F15088DC2F81FE391C3923BEC73E23A9662EFC9C229C6A00 SLOAD PUSH1 0x40 SHR AND ISZERO PUSH2 0x24B9 JUMPI JUMP JUMPDEST PUSH1 0x40 MLOAD PUSH4 0x1AFCD79F PUSH1 0xE3 SHL DUP2 MSTORE PUSH1 0x4 SWAP1 REVERT JUMPDEST SWAP1 PUSH2 0x24F2 JUMPI POP DUP1 MLOAD ISZERO PUSH2 0x24E0 JUMPI PUSH1 0x20 DUP2 MLOAD SWAP2 ADD REVERT JUMPDEST PUSH1 0x40 MLOAD PUSH4 0xD6BDA275 PUSH1 0xE0 SHL DUP2 MSTORE PUSH1 0x4 SWAP1 REVERT JUMPDEST DUP2 MLOAD ISZERO DUP1 PUSH2 0x2525 JUMPI JUMPDEST PUSH2 0x2503 JUMPI POP SWAP1 JUMP JUMPDEST PUSH1 0x40 MLOAD PUSH4 0x9996B315 PUSH1 0xE0 SHL DUP2 MSTORE PUSH1 0x1 PUSH1 0x1 PUSH1 0xA0 SHL SUB SWAP1 SWAP2 AND PUSH1 0x4 DUP3 ADD MSTORE PUSH1 0x24 SWAP1 REVERT JUMPDEST POP DUP1 EXTCODESIZE ISZERO PUSH2 0x24FB JUMP INVALID SWAP1 AND 0xD0 SWAP14 PUSH19 0xD40FDAE2FD8CEAC6B6234C7706214FD39C1CD1 0xE6 MULMOD LOG0 MSTORE DUP13 NOT SWAP4 STOP SWAP12 PUSH24 0x9B17422D0DF92223018B32B4D1FA46E071723D6817E2486D STOP EXTCODESIZE 0xEC 0xC5 PUSH0 STOP LOG2 PUSH5 0x6970667358 0x22 SLT KECCAK256 0xB6 SWAP8 SWAP9 0xC6 0x27 DUP2 CODECOPY 0x2D MLOAD 0xCF CALLVALUE 0xCF PUSH12 0x3D01EC55023F20B23872BFA1 JUMP 0xBB 0xDE SWAP5 PUSH13 0xD9AE64736F6C63430008160033 "},"methodIdentifiers":{"FEE_BASIS_POINTS()":"a525ad3c","UPGRADE_INTERFACE_VERSION()":"ad3cb1cc","borrowingIds(uint256)":"0e7e5ffd","borrowings(string)":"db138b45","calculateFee(uint256)":"99a5d747","createBorrowing(string,string,uint256,uint256,string,string,string,string,string)":"15a96fbb","endBorrowing(string)":"494d7687","getAllBorrowings()":"5d269e51","getLenderContribution(string,address)":"ae5c6fff","getLenders(string)":"a043d48d","getUserBorrowings(address)":"3e63680d","initialize(address)":"c4d66de8","lendToBorrowing(string,uint256)":"ecf83dc3","owner()":"8da5cb5b","proxiableUUID()":"52d1902d","renounceOwnership()":"715018a6","repayBorrowing(string,uint256)":"b5bbbae4","transferOwnership(address)":"f2fde38b","upgradeToAndCall(address,bytes)":"4f1ef286","userBorrowings(address,uint256)":"dd471337","weedlToken()":"3b9c8cfe"}},"storageLayout":{"storage":[{"astId":3614,"contract":"contracts/GreenFiBorrow.sol:GreenFiBorrow","label":"weedlToken","offset":0,"slot":"0","type":"t_contract(IERC20)2514"},{"astId":3660,"contract":"contracts/GreenFiBorrow.sol:GreenFiBorrow","label":"borrowings","offset":0,"slot":"1","type":"t_mapping(t_string_memory_ptr,t_struct(Borrowing)3655_storage)"},{"astId":3663,"contract":"contracts/GreenFiBorrow.sol:GreenFiBorrow","label":"borrowingIds","offset":0,"slot":"2","type":"t_array(t_string_storage)dyn_storage"},{"astId":3668,"contract":"contracts/GreenFiBorrow.sol:GreenFiBorrow","label":"userBorrowings","offset":0,"slot":"3","type":"t_mapping(t_address,t_array(t_string_storage)dyn_storage)"}],"types":{"t_address":{"encoding":"inplace","label":"address","numberOfBytes":"20"},"t_array(t_address)dyn_storage":{"base":"t_address","encoding":"dynamic_array","label":"address[]","numberOfBytes":"32"},"t_array(t_string_storage)dyn_storage":{"base":"t_string_storage","encoding":"dynamic_array","label":"string[]","numberOfBytes":"32"},"t_bool":{"encoding":"inplace","label":"bool","numberOfBytes":"1"},"t_contract(IERC20)2514":{"encoding":"inplace","label":"contract IERC20","numberOfBytes":"20"},"t_mapping(t_address,t_array(t_string_storage)dyn_storage)":{"encoding":"mapping","key":"t_address","label":"mapping(address => string[])","numberOfBytes":"32","value":"t_array(t_string_storage)dyn_storage"},"t_mapping(t_address,t_uint256)":{"encoding":"mapping","key":"t_address","label":"mapping(address => uint256)","numberOfBytes":"32","value":"t_uint256"},"t_mapping(t_string_memory_ptr,t_struct(Borrowing)3655_storage)":{"encoding":"mapping","key":"t_string_memory_ptr","label":"mapping(string => struct GreenFiBorrow.Borrowing)","numberOfBytes":"32","value":"t_struct(Borrowing)3655_storage"},"t_string_memory_ptr":{"encoding":"bytes","label":"string","numberOfBytes":"32"},"t_string_storage":{"encoding":"bytes","label":"string","numberOfBytes":"32"},"t_struct(Borrowing)3655_storage":{"encoding":"inplace","label":"struct GreenFiBorrow.Borrowing","members":[{"astId":3619,"contract":"contracts/GreenFiBorrow.sol:GreenFiBorrow","label":"id","offset":0,"slot":"0","type":"t_string_storage"},{"astId":3621,"contract":"contracts/GreenFiBorrow.sol:GreenFiBorrow","label":"borrower","offset":0,"slot":"1","type":"t_address"},{"astId":3623,"contract":"contracts/GreenFiBorrow.sol:GreenFiBorrow","label":"landId","offset":0,"slot":"2","type":"t_string_storage"},{"astId":3625,"contract":"contracts/GreenFiBorrow.sol:GreenFiBorrow","label":"amount","offset":0,"slot":"3","type":"t_uint256"},{"astId":3627,"contract":"contracts/GreenFiBorrow.sol:GreenFiBorrow","label":"fee","offset":0,"slot":"4","type":"t_uint256"},{"astId":3629,"contract":"contracts/GreenFiBorrow.sol:GreenFiBorrow","label":"duration","offset":0,"slot":"5","type":"t_uint256"},{"astId":3631,"contract":"contracts/GreenFiBorrow.sol:GreenFiBorrow","label":"startTime","offset":0,"slot":"6","type":"t_uint256"},{"astId":3633,"contract":"contracts/GreenFiBorrow.sol:GreenFiBorrow","label":"isActive","offset":0,"slot":"7","type":"t_bool"},{"astId":3635,"contract":"contracts/GreenFiBorrow.sol:GreenFiBorrow","label":"contactInfo","offset":0,"slot":"8","type":"t_string_storage"},{"astId":3637,"contract":"contracts/GreenFiBorrow.sol:GreenFiBorrow","label":"purpose","offset":0,"slot":"9","type":"t_string_storage"},{"astId":3639,"contract":"contracts/GreenFiBorrow.sol:GreenFiBorrow","label":"collateralInfo","offset":0,"slot":"10","type":"t_string_storage"},{"astId":3641,"contract":"contracts/GreenFiBorrow.sol:GreenFiBorrow","label":"latitude","offset":0,"slot":"11","type":"t_string_storage"},{"astId":3643,"contract":"contracts/GreenFiBorrow.sol:GreenFiBorrow","label":"longitude","offset":0,"slot":"12","type":"t_string_storage"},{"astId":3645,"contract":"contracts/GreenFiBorrow.sol:GreenFiBorrow","label":"totalLent","offset":0,"slot":"13","type":"t_uint256"},{"astId":3647,"contract":"contracts/GreenFiBorrow.sol:GreenFiBorrow","label":"totalRepaid","offset":0,"slot":"14","type":"t_uint256"},{"astId":3650,"contract":"contracts/GreenFiBorrow.sol:GreenFiBorrow","label":"lenders","offset":0,"slot":"15","type":"t_array(t_address)dyn_storage"},{"astId":3654,"contract":"contracts/GreenFiBorrow.sol:GreenFiBorrow","label":"lenderContributions","offset":0,"slot":"16","type":"t_mapping(t_address,t_uint256)"}],"numberOfBytes":"544"},"t_uint256":{"encoding":"inplace","label":"uint256","numberOfBytes":"32"}}}}}}