{"contracts/WEEDL.sol":{"WEEDL":{"abi":[{"inputs":[{"internalType":"address","name":"admin","type":"address"},{"internalType":"address","name":"_ecosystemWallet","type":"address"},{"internalType":"address[]","name":"initialDexPairs","type":"address[]"}],"stateMutability":"nonpayable","type":"constructor"},{"inputs":[],"name":"AccessControlBadConfirmation","type":"error"},{"inputs":[{"internalType":"address","name":"account","type":"address"},{"internalType":"bytes32","name":"neededRole","type":"bytes32"}],"name":"AccessControlUnauthorizedAccount","type":"error"},{"inputs":[{"internalType":"address","name":"spender","type":"address"},{"internalType":"uint256","name":"allowance","type":"uint256"},{"internalType":"uint256","name":"needed","type":"uint256"}],"name":"ERC20InsufficientAllowance","type":"error"},{"inputs":[{"internalType":"address","name":"sender","type":"address"},{"internalType":"uint256","name":"balance","type":"uint256"},{"internalType":"uint256","name":"needed","type":"uint256"}],"name":"ERC20InsufficientBalance","type":"error"},{"inputs":[{"internalType":"address","name":"approver","type":"address"}],"name":"ERC20InvalidApprover","type":"error"},{"inputs":[{"internalType":"address","name":"receiver","type":"address"}],"name":"ERC20InvalidReceiver","type":"error"},{"inputs":[{"internalType":"address","name":"sender","type":"address"}],"name":"ERC20InvalidSender","type":"error"},{"inputs":[{"internalType":"address","name":"spender","type":"address"}],"name":"ERC20InvalidSpender","type":"error"},{"inputs":[],"name":"ReentrancyGuardReentrantCall","type":"error"},{"anonymous":false,"inputs":[{"indexed":true,"internalType":"address","name":"oldPendingAdmin","type":"address"},{"indexed":false,"internalType":"uint256","name":"timestamp","type":"uint256"}],"name":"AdminProposalCanceled","type":"event"},{"anonymous":false,"inputs":[{"indexed":true,"internalType":"address","name":"oldAdmin","type":"address"},{"indexed":true,"internalType":"address","name":"newAdmin","type":"address"},{"indexed":false,"internalType":"uint256","name":"timestamp","type":"uint256"}],"name":"AdminRoleAccepted","type":"event"},{"anonymous":false,"inputs":[{"indexed":true,"internalType":"address","name":"oldAdmin","type":"address"},{"indexed":true,"internalType":"address","name":"newAdmin","type":"address"},{"indexed":false,"internalType":"uint256","name":"deadline","type":"uint256"}],"name":"AdminRoleProposed","type":"event"},{"anonymous":false,"inputs":[{"indexed":true,"internalType":"address","name":"owner","type":"address"},{"indexed":true,"internalType":"address","name":"spender","type":"address"},{"indexed":false,"internalType":"uint256","name":"value","type":"uint256"}],"name":"Approval","type":"event"},{"anonymous":false,"inputs":[{"indexed":true,"internalType":"address","name":"to","type":"address"},{"indexed":false,"internalType":"uint256","name":"amount","type":"uint256"}],"name":"BurnSkipped","type":"event"},{"anonymous":false,"inputs":[{"indexed":true,"internalType":"address","name":"dexPair","type":"address"},{"indexed":false,"internalType":"uint256","name":"timestamp","type":"uint256"}],"name":"DexPairAdded","type":"event"},{"anonymous":false,"inputs":[{"indexed":true,"internalType":"address","name":"dexPair","type":"address"},{"indexed":false,"internalType":"uint256","name":"timestamp","type":"uint256"}],"name":"DexPairRemoved","type":"event"},{"anonymous":false,"inputs":[{"indexed":true,"internalType":"bytes32","name":"role","type":"bytes32"},{"indexed":true,"internalType":"bytes32","name":"previousAdminRole","type":"bytes32"},{"indexed":true,"internalType":"bytes32","name":"newAdminRole","type":"bytes32"}],"name":"RoleAdminChanged","type":"event"},{"anonymous":false,"inputs":[{"indexed":true,"internalType":"bytes32","name":"role","type":"bytes32"},{"indexed":true,"internalType":"address","name":"account","type":"address"},{"indexed":true,"internalType":"address","name":"sender","type":"address"}],"name":"RoleGranted","type":"event"},{"anonymous":false,"inputs":[{"indexed":true,"internalType":"bytes32","name":"role","type":"bytes32"},{"indexed":true,"internalType":"address","name":"account","type":"address"},{"indexed":true,"internalType":"address","name":"sender","type":"address"}],"name":"RoleRevoked","type":"event"},{"anonymous":false,"inputs":[{"indexed":true,"internalType":"address","name":"seller","type":"address"},{"indexed":false,"internalType":"uint256","name":"amount","type":"uint256"}],"name":"TokensBurnedAfterSell","type":"event"},{"anonymous":false,"inputs":[{"indexed":true,"internalType":"address","name":"to","type":"address"},{"indexed":false,"internalType":"uint256","name":"amount","type":"uint256"},{"indexed":false,"internalType":"string","name":"purpose","type":"string"}],"name":"TokensMinted","type":"event"},{"anonymous":false,"inputs":[{"indexed":true,"internalType":"address","name":"from","type":"address"},{"indexed":true,"internalType":"address","name":"to","type":"address"},{"indexed":false,"internalType":"uint256","name":"value","type":"uint256"}],"name":"Transfer","type":"event"},{"inputs":[],"name":"ADMIN_ROLE","outputs":[{"internalType":"bytes32","name":"","type":"bytes32"}],"stateMutability":"view","type":"function"},{"inputs":[],"name":"BURN_ALLOCATION","outputs":[{"internalType":"uint256","name":"","type":"uint256"}],"stateMutability":"view","type":"function"},{"inputs":[],"name":"DEFAULT_ADMIN_ROLE","outputs":[{"internalType":"bytes32","name":"","type":"bytes32"}],"stateMutability":"view","type":"function"},{"inputs":[],"name":"DEFAULT_PROPOSAL_DEADLINE","outputs":[{"internalType":"uint256","name":"","type":"uint256"}],"stateMutability":"view","type":"function"},{"inputs":[],"name":"ECOSYSTEM_ALLOCATION","outputs":[{"internalType":"uint256","name":"","type":"uint256"}],"stateMutability":"view","type":"function"},{"inputs":[],"name":"LOAN_ALLOCATION","outputs":[{"internalType":"uint256","name":"","type":"uint256"}],"stateMutability":"view","type":"function"},{"inputs":[],"name":"MIN_PROPOSAL_DEADLINE","outputs":[{"internalType":"uint256","name":"","type":"uint256"}],"stateMutability":"view","type":"function"},{"inputs":[],"name":"PRESALE_ALLOCATION","outputs":[{"internalType":"uint256","name":"","type":"uint256"}],"stateMutability":"view","type":"function"},{"inputs":[],"name":"STAKING_ALLOCATION","outputs":[{"internalType":"uint256","name":"","type":"uint256"}],"stateMutability":"view","type":"function"},{"inputs":[],"name":"TOTAL_SUPPLY","outputs":[{"internalType":"uint256","name":"","type":"uint256"}],"stateMutability":"view","type":"function"},{"inputs":[],"name":"acceptAdminRole","outputs":[],"stateMutability":"nonpayable","type":"function"},{"inputs":[{"internalType":"address","name":"_dexPair","type":"address"}],"name":"addDexPair","outputs":[],"stateMutability":"nonpayable","type":"function"},{"inputs":[{"internalType":"address","name":"owner","type":"address"},{"internalType":"address","name":"spender","type":"address"}],"name":"allowance","outputs":[{"internalType":"uint256","name":"","type":"uint256"}],"stateMutability":"view","type":"function"},{"inputs":[{"internalType":"address","name":"spender","type":"address"},{"internalType":"uint256","name":"value","type":"uint256"}],"name":"approve","outputs":[{"internalType":"bool","name":"","type":"bool"}],"stateMutability":"nonpayable","type":"function"},{"inputs":[{"internalType":"address","name":"account","type":"address"}],"name":"balanceOf","outputs":[{"internalType":"uint256","name":"","type":"uint256"}],"stateMutability":"view","type":"function"},{"inputs":[{"internalType":"uint256","name":"amount","type":"uint256"}],"name":"burn","outputs":[],"stateMutability":"nonpayable","type":"function"},{"inputs":[{"internalType":"address","name":"account","type":"address"},{"internalType":"uint256","name":"value","type":"uint256"}],"name":"burnFrom","outputs":[],"stateMutability":"nonpayable","type":"function"},{"inputs":[],"name":"cancelProposal","outputs":[],"stateMutability":"nonpayable","type":"function"},{"inputs":[],"name":"currentAdmin","outputs":[{"internalType":"address","name":"","type":"address"}],"stateMutability":"view","type":"function"},{"inputs":[],"name":"decimals","outputs":[{"internalType":"uint8","name":"","type":"uint8"}],"stateMutability":"view","type":"function"},{"inputs":[{"internalType":"address","name":"","type":"address"}],"name":"dexPairs","outputs":[{"internalType":"bool","name":"","type":"bool"}],"stateMutability":"view","type":"function"},{"inputs":[],"name":"ecosystemWallet","outputs":[{"internalType":"address","name":"","type":"address"}],"stateMutability":"view","type":"function"},{"inputs":[],"name":"getContractState","outputs":[{"internalType":"address","name":"currentPendingAdmin","type":"address"},{"internalType":"uint256","name":"currentPendingDeadline","type":"uint256"},{"internalType":"address","name":"currentAdminAddress","type":"address"}],"stateMutability":"view","type":"function"},{"inputs":[{"internalType":"bytes32","name":"role","type":"bytes32"}],"name":"getRoleAdmin","outputs":[{"internalType":"bytes32","name":"","type":"bytes32"}],"stateMutability":"view","type":"function"},{"inputs":[{"internalType":"bytes32","name":"role","type":"bytes32"},{"internalType":"address","name":"account","type":"address"}],"name":"grantRole","outputs":[],"stateMutability":"nonpayable","type":"function"},{"inputs":[{"internalType":"bytes32","name":"role","type":"bytes32"},{"internalType":"address","name":"account","type":"address"}],"name":"hasRole","outputs":[{"internalType":"bool","name":"","type":"bool"}],"stateMutability":"view","type":"function"},{"inputs":[{"internalType":"address","name":"_pair","type":"address"}],"name":"isDexPair","outputs":[{"internalType":"bool","name":"","type":"bool"}],"stateMutability":"view","type":"function"},{"inputs":[],"name":"name","outputs":[{"internalType":"string","name":"","type":"string"}],"stateMutability":"view","type":"function"},{"inputs":[],"name":"pendingAdmin","outputs":[{"internalType":"address","name":"","type":"address"}],"stateMutability":"view","type":"function"},{"inputs":[],"name":"pendingAdminDeadline","outputs":[{"internalType":"uint256","name":"","type":"uint256"}],"stateMutability":"view","type":"function"},{"inputs":[{"internalType":"address","name":"newAdmin","type":"address"},{"internalType":"uint256","name":"deadlineDuration","type":"uint256"}],"name":"proposeAdmin","outputs":[],"stateMutability":"nonpayable","type":"function"},{"inputs":[{"internalType":"address","name":"_dexPair","type":"address"}],"name":"removeDexPair","outputs":[],"stateMutability":"nonpayable","type":"function"},{"inputs":[{"internalType":"bytes32","name":"role","type":"bytes32"},{"internalType":"address","name":"callerConfirmation","type":"address"}],"name":"renounceRole","outputs":[],"stateMutability":"nonpayable","type":"function"},{"inputs":[{"internalType":"bytes32","name":"role","type":"bytes32"},{"internalType":"address","name":"account","type":"address"}],"name":"revokeRole","outputs":[],"stateMutability":"nonpayable","type":"function"},{"inputs":[{"internalType":"bytes4","name":"interfaceId","type":"bytes4"}],"name":"supportsInterface","outputs":[{"internalType":"bool","name":"","type":"bool"}],"stateMutability":"view","type":"function"},{"inputs":[],"name":"symbol","outputs":[{"internalType":"string","name":"","type":"string"}],"stateMutability":"view","type":"function"},{"inputs":[],"name":"totalSupply","outputs":[{"internalType":"uint256","name":"","type":"uint256"}],"stateMutability":"view","type":"function"},{"inputs":[{"internalType":"address","name":"to","type":"address"},{"internalType":"uint256","name":"amount","type":"uint256"}],"name":"transfer","outputs":[{"internalType":"bool","name":"","type":"bool"}],"stateMutability":"nonpayable","type":"function"},{"inputs":[{"internalType":"address","name":"from","type":"address"},{"internalType":"address","name":"to","type":"address"},{"internalType":"uint256","name":"amount","type":"uint256"}],"name":"transferFrom","outputs":[{"internalType":"bool","name":"","type":"bool"}],"stateMutability":"nonpayable","type":"function"},{"inputs":[],"name":"version","outputs":[{"internalType":"string","name":"","type":"string"}],"stateMutability":"pure","type":"function"},{"stateMutability":"payable","type":"receive"}],"evm":{"bytecode":{"linkReferences":{},"object":"6040610160815234620007ca5762002285803803806200001f81620007ef565b9283398101606082820312620007ca576200003a8262000815565b926020916200004b83850162000815565b948285015160018060401b0395868211620007ca570193601f95838787011215620007ca57855193818511620006a65760059685881b90848062000091818501620007ef565b809981520192820101928311620007ca5784809101915b838310620007af5750505050620000be620007cf565b96600e88526d2bb2b2b22632b732102a37b5b2b760911b83890152620000e3620007cf565b908782526415d151511360da1b84830152885191838311620006a657600392835460019b8c82811c92168015620007a4575b888310146200078e57818584931162000738575b508790858311600114620006c857600092620006bc575b505060001982861b1c1916908b1b1783555b8051938411620006a6576004988954908b82811c921680156200069b575b8783101462000686579083929186959482116200062b575b505085918411600114620005c057600093620005b4575b505082891b92600019911b1c19161785555b856006556b0d92289838d21a99680000006080526b04123f60ddd8a1946c00000060a0526b02b6d4eb3e906bb848000000968760c0528760e052610100978852610120966b015b6a759f4835dc24000000885260018060a01b03908185169182156200057c5780841696871562000539576200022d8762000879565b50600b80546001600160a01b03191685179055610140858152996000845b620003a5575b505050505060809291620003389162000288620002816200027860c05160e0519062000855565b8d519062000855565b306200092d565b62000309620002a16200027860c05160e0519062000855565b968951978852898689015260138a8901527f4275726e2c205374616b696e672c204c6f616e0000000000000000000000000060608901527f9d89e36eadf856db0ad9ffb5a569e07f95634dddd9501141ecf04820484ad0dc9788883092a260a051906200092d565b858560a0518a519081528a8782015260078b8201526650726573616c6560c81b6060820152a28851906200092d565b8487519181519283528201526009858201526845636f73797374656d60b81b6060820152a251916118dd9384620009a88539608051846109d9015260a05184610430015260c05184610bfc015260e051846104d20152518361036d0152518261099e01525181610c970152f35b8251811015620005335783620003bc82856200082a565b511615620004f05783620003d182856200082a565b51163b15620004ad5783620003e782856200082a565b5116600052600780895260ff8c60002054166200046a5785949392918591856200041283876200082a565b51166000528a528c6000208260ff198254161790558c7f3a93ab67d958a473d13350354f4b749a25f1837ed4f63fb6128758678e0b5a028b876200045785896200082a565b51169251428152a201909192936200024b565b8b5162461bcd60e51b81528084018a9052601760248201527f444558207061697220616c7265616479206578697374730000000000000000006044820152606490fd5b8a5162461bcd60e51b8152808301899052601760248201527f4445582070616972206e6f74206120636f6e74726163740000000000000000006044820152606490fd5b8a5162461bcd60e51b8152808301899052601560248201527f5a65726f204445582070616972206164647265737300000000000000000000006044820152606490fd5b62000251565b885162461bcd60e51b8152808b01879052601d60248201527f5a65726f2065636f73797374656d2077616c6c657420616464726573730000006044820152606490fd5b875162461bcd60e51b8152808a0186905260126024820152715a65726f2061646d696e206164647265737360701b6044820152606490fd5b0151915038806200019f565b91908a9450601f198416928a600052866000209360005b88828210620006145750508511620005f9575b50505050811b018555620001b1565b01519060f884600019921b161c1916905538808080620005ea565b8385015187558e98909601959384019301620005d7565b9091929394508a600052866000209084808801821c8301938989106200067c575b918897968f93969594929601901c01915b8281106200066c575062000188565b600081558796508d91016200065d565b935082936200064c565b60228b634e487b7160e01b6000525260246000fd5b91607f169162000170565b634e487b7160e01b600052604160045260246000fd5b01519050388062000140565b908d9350601f1983169187600052896000209260005b8b828210620007185750508411620006ff575b505050811b01835562000152565b015160001983881b60f8161c19169055388080620006f1565b91929395968291958786015181550195019301908f9594939291620006de565b9091508560005287600020858d818601901c8201928a861062000784575b85949391018e1c909101908e905b8281106200077457505062000129565b600081558594508f910162000764565b9250819262000756565b634e487b7160e01b600052602260045260246000fd5b91607f169162000115565b8190620007bc8462000815565b8152019101908490620000a8565b600080fd5b60408051919082016001600160401b03811183821017620006a657604052565b6040519190601f01601f191682016001600160401b03811183821017620006a657604052565b51906001600160a01b0382168203620007ca57565b80518210156200083f5760209160051b010190565b634e487b7160e01b600052603260045260246000fd5b919082018092116200086357565b634e487b7160e01b600052601160045260246000fd5b6001600160a01b031660008181527fd8ef4509105c3edb0b04658b4528edc5ddd30ea5a81e623a2623c88db1eb54b660205260408120549091907fa49807205ce4d355092ef5a8a18f56e8913cf4a201fbe287825b095693c217759060ff16620009285780835260056020526040832082845260205260408320600160ff198254161790557f2f8788117e7eff1d82e926ec794901d17c78024a50270940304540a733656f0d339380a4600190565b505090565b6001600160a01b03169081156200098e577fddf252ad1be2c89b69c2b068fc378daa952ba7f163c4a11628f55a4df523b3ef6020826200097260009460025462000855565b60025584845283825260408420818154019055604051908152a3565b60405163ec442f0560e01b815260006004820152602490fdfe608060409080825260049081361015610055575b50361561001f57600080fd5b6020606492519162461bcd60e51b83528201526011602482015270115512081b9bdd081cdd5c1c1bdc9d1959607a1b6044820152fd5b600090813560e01c90816301ffc9a71461119057508063029eae0e146110bf57806306fdde0314610fc9578063095ea7b314610f1e57806318160ddd14610eff57806323b872dd14610ddf578063248a9ca314610db35780632678224714610d8a5780632f2ff15d14610d61578063313ce56714610d4557806336568abe14610cff578063400099271461045357806342966c6814610cc6578063435263ef14610c8257806354fd4d5014610c1f578063598cf19514610be457806370a0823114610bad57806375b238fc14610b8457806379cc679014610b4e5780637f4e484914610b145780638c3d7301146109fc578063902d55a5146109c157806390534f24146109865780639070577f146108d557806391d148541461088d57806395d5e4931461087057806395d89b411461076b578063a16511e614610632578063a217fddf14610617578063a7a9b249146105f9578063a9059cbb146104f5578063b99dcae5146104ba578063ba4bcd7214610491578063c002f93914610453578063c7b5a48c14610418578063d547741f146103d9578063dd62ed3e14610390578063e676f44d14610355578063e6ddf403146102385763fcdbb19e03610013578234610234578160031936011261023457602090600a549051908152f35b5080fd5b509134610351576020908160031936011261034d576102556111e4565b9261025e61130b565b610266611399565b6001600160a01b0384169361027c8515156112d0565b3b1561031b578385526007835260ff82862054166102da575082845260078252808420805460ff19166001179055514281527f3a93ab67d958a473d13350354f4b749a25f1837ed4f63fb6128758678e0b5a029190a2600160065580f35b82606492519162461bcd60e51b8352820152601760248201527f444558207061697220616c7265616479206578697374730000000000000000006044820152fd5b82606492519162461bcd60e51b8352820152600e60248201526d139bdd08184818dbdb9d1c9858dd60921b6044820152fd5b8380fd5b8280fd5b508234610234578160031936011261023457602090517f00000000000000000000000000000000000000000000000000000000000000008152f35b508234610234578060031936011261023457806020926103ae6111e4565b6103b66111ff565b6001600160a01b0391821683526001865283832091168252845220549051908152f35b509134610351578060031936011261035157610414913561040f60016103fd6111ff565b93838752600560205286200154611373565b611810565b5080f35b508234610234578160031936011261023457602090517f00000000000000000000000000000000000000000000000000000000000000008152f35b5082346102345760203660031901126102345760209160ff9082906001600160a01b0361047e6111e4565b1681526007855220541690519015158152f35b508234610234578160031936011261023457600b5490516001600160a01b039091168152602090f35b508234610234578160031936011261023457602090517f00000000000000000000000000000000000000000000000000000000000000008152f35b50823461023457806003193601126102345761050f6111e4565b916024359061051f821515611296565b61052a82853361148f565b3381526020809460088252438584205560018060a01b0316918281524385822055600782528460ff8183205416806105e9575b61056b575b90505160018152f35b30825281835290205483116105bb57505061058681306115bb565b81519081527f17fb25c14e38163cf7b813826e0a5a17abae9753ae23edffb426593defea04cb833392a25b8280838184610562565b7f7bceafddcbbd682ac897e4e307d8324dc2b43fe1f44ad0b41d24fc1c8477cc7391928451908152a26105b1565b506105f33361156d565b1561055d565b50823461023457816003193601126102345760209051620151808152f35b50823461023457816003193601126102345751908152602090f35b50913461035157806003193601126103515761064c6111e4565b916024359261065961130b565b610661611399565b6001600160a01b03908116936106788515156112d0565b33851461073257610e1081106106fa57846bffffffffffffffffffffffff60a01b60095416176009554201918242116106e75750816020917f9abf466cdfc433ca6c207a24f348720d9d0103ee08a7a84c9e047c27aa3f59ec93600a55600b54169351908152a3600160065580f35b634e487b7160e01b865260119052602485fd5b835162461bcd60e51b81526020818501526012602482015271111958591b1a5b99481d1bdbc81cda1bdc9d60721b6044820152606490fd5b835162461bcd60e51b8152602081850152601360248201527221b0b73737ba10383937b837b9b29039b2b63360691b6044820152606490fd5b50823461023457816003193601126102345780519180938054916001908360011c9260018516948515610866575b60209586861081146108535785895290811561082f57506001146107d7575b6107d387876107c9828c038361125e565b5191829182611215565b0390f35b81529295507f8a35acfbc15ff81a39ae7d344fd709f28e8600b4aa8c65c6b64bfe7fe36bd19b5b82841061081c57505050826107d3946107c9928201019486806107b8565b80548685018801529286019281016107fe565b60ff19168887015250505050151560051b83010192506107c9826107d386806107b8565b634e487b7160e01b845260228352602484fd5b93607f1693610799565b50823461023457816003193601126102345760209051610e108152f35b509190346103515781600319360112610351578160209360ff926108af6111ff565b90358252600586528282206001600160a01b039091168252855220549151911615158152f35b5091346103515782600319360112610351576108ef61130b565b6108f7611399565b6009546001600160a01b03811692831561095057506001600160a01b031916600955600a839055514281527fab6c881f0b5973dc19822e8201c9ff2489162187617cf05ed6e349d80387184390602090a2600160065580f35b606490602084519162461bcd60e51b8352820152601060248201526f2737903832b73234b7339030b236b4b760811b6044820152fd5b508234610234578160031936011261023457602090517f00000000000000000000000000000000000000000000000000000000000000008152f35b508234610234578160031936011261023457602090517f00000000000000000000000000000000000000000000000000000000000000008152f35b50919034610351578260031936011261035157610a17611399565b6009546001600160a01b03919082163303610adc57600a544211610aa65750600b541690610a443361165a565b50610a4e82611776565b506bffffffffffffffffffffffff60a01b3381600b541617600b556009541660095582600a5551904282527e797c0a9bfa172509344a12642a49611f0dde48811134afeb085a78f756e0f760203393a3600160065580f35b606490602084519162461bcd60e51b8352820152601060248201526f141c9bdc1bdcd85b08195e1c1a5c995960821b6044820152fd5b606490602084519162461bcd60e51b835282015260126024820152712737ba10383937b837b9b2b21030b236b4b760711b6044820152fd5b50823461023457816003193601126102345760609060018060a01b03806009541691600a5491600b54169181519384526020840152820152f35b50823461023457366003190112610b8157610b7e610b6a6111e4565b60243590610b798233836113bc565b6115bb565b80f35b80fd5b508234610234578160031936011261023457602090516000805160206118888339815191528152f35b5082346102345760203660031901126102345760209181906001600160a01b03610bd56111e4565b16815280845220549051908152f35b508234610234578160031936011261023457602090517f00000000000000000000000000000000000000000000000000000000000000008152f35b5082346102345781600319360112610234578051918183019083821067ffffffffffffffff831117610c6f57506107d3935081526005825264312e302e3560d81b60208301525191829182611215565b634e487b7160e01b815260418552602490fd5b508234610234578160031936011261023457517f00000000000000000000000000000000000000000000000000000000000000006001600160a01b03168152602090f35b50903461023457602036600319011261023457610cf79035610ce6611399565b610cf1811515611296565b336115bb565b600160065580f35b508234610234578060031936011261023457610d196111ff565b90336001600160a01b03831603610d365750610414919235611810565b5163334bd91960e11b81528390fd5b5082346102345781600319360112610234576020905160128152f35b5091346103515780600319360112610351576104149135610d8560016103fd6111ff565b6116fb565b50823461023457816003193601126102345760095490516001600160a01b039091168152602090f35b509190346103515760203660031901126103515781602093600192358152600585522001549051908152f35b50823461023457606036600319011261023457610dfa6111e4565b610e026111ff565b9260443593610e12851515611296565b610e1d8533856113bc565b610e2885828561148f565b60018060a01b039485841692838152856020978894600886524383852055169586835243828420556007855260ff82842054169081610eee575b50610e71575b83905160018152f35b3082528184529020548111610ec0577f17fb25c14e38163cf7b813826e0a5a17abae9753ae23edffb426593defea04cb929350610eae81306115bb565b8451908152a25b828083818085610e68565b7f7bceafddcbbd682ac897e4e307d8324dc2b43fe1f44ad0b41d24fc1c8477cc7392508451908152a2610eb5565b610ef8915061156d565b1589610e62565b5082346102345781600319360112610234576020906002549051908152f35b50919034610351578160031936011261035157610f396111e4565b602435903315610fb2576001600160a01b0316918215610f9b57508083602095338152600187528181208582528752205582519081527f8c5be1e5ebec7d5bd14f71427d1e84f3dd0314c0f7b2291e5b200ac8c7c3b925843392a35160018152f35b8351634a1406b160e11b8152908101859052602490fd5b835163e602df0560e01b8152808401869052602490fd5b50913461035157826003193601126103515780519183600354906001908260011c926001811680156110b5575b60209586861082146110a257508488529081156110805750600114611027575b6107d386866107c9828b038361125e565b929550600383527fc2575a0e9e593c00f959f8c92f12db2869c3395a3b0502d05e2516446f71f85b5b82841061106d57505050826107d3946107c9928201019438611016565b8054868501880152928601928101611050565b60ff191687860152505050151560051b83010192506107c9826107d338611016565b634e487b7160e01b845260229052602483fd5b93607f1693610ff6565b509134610351576020366003190112610351576110da6111e4565b6110e261130b565b6110ea611399565b6001600160a01b031680845260076020528184205490929060ff161561114e575060207ff86ecc019b976c424459afef9981e77ea5e944b19e6262dbb6da47e652f15516918385526007825280852060ff19815416905551428152a2600160065580f35b6020606492519162461bcd60e51b8352820152601760248201527f444558207061697220646f6573206e6f742065786973740000000000000000006044820152fd5b90508234610351576020366003190112610351573563ffffffff60e01b81168091036103515760209250637965db0b60e01b81149081156111d3575b5015158152f35b6301ffc9a760e01b149050836111cc565b600435906001600160a01b03821682036111fa57565b600080fd5b602435906001600160a01b03821682036111fa57565b6020808252825181830181905290939260005b82811061124a57505060409293506000838284010152601f8019910116010190565b818101860151848201604001528501611228565b90601f8019910116810190811067ffffffffffffffff82111761128057604052565b634e487b7160e01b600052604160045260246000fd5b1561129d57565b60405162461bcd60e51b815260206004820152600b60248201526a16995c9bc8185b5bdd5b9d60aa1b6044820152606490fd5b156112d757565b60405162461bcd60e51b815260206004820152600c60248201526b5a65726f206164647265737360a01b6044820152606490fd5b3360009081527fd8ef4509105c3edb0b04658b4528edc5ddd30ea5a81e623a2623c88db1eb54b660205260409020546000805160206118888339815191529060ff16156113555750565b6044906040519063e2517d3f60e01b82523360048301526024820152fd5b80600052600560205260406000203360005260205260ff60406000205416156113555750565b6002600654146113aa576002600655565b604051633ee5aeb560e01b8152600490fd5b9160018060a01b0380931691600093838552600160205260409384862091831691828752602052848620549260001984106113fb575b50505050505050565b84841061145f5750801561144757811561142f578552600160205283852090855260205203912055388080808080806113f2565b8451634a1406b160e11b815260048101879052602490fd5b845163e602df0560e01b815260048101879052602490fd5b8551637dc7a0d960e11b81526001600160a01b039190911660048201526024810184905260448101859052606490fd5b916001600160a01b03808416928315611554571692831561153b5760009083825281602052604082205490838210611509575091604082827fddf252ad1be2c89b69c2b068fc378daa952ba7f163c4a11628f55a4df523b3ef958760209652828652038282205586815220818154019055604051908152a3565b60405163391434e360e21b81526001600160a01b03919091166004820152602481019190915260448101839052606490fd5b60405163ec442f0560e01b815260006004820152602490fd5b604051634b637e8f60e11b815260006004820152602490fd5b6001600160a01b03166000908152600860205260409020548015159081611592575090565b9050600281018091116115a55743111590565b634e487b7160e01b600052601160045260246000fd5b906001600160a01b03821690811561155457600092828452836020526040842054908282106116285750817fddf252ad1be2c89b69c2b068fc378daa952ba7f163c4a11628f55a4df523b3ef926020928587528684520360408620558060025403600255604051908152a3565b60405163391434e360e21b81526001600160a01b03919091166004820152602481019190915260448101829052606490fd5b6001600160a01b031660008181527fd8ef4509105c3edb0b04658b4528edc5ddd30ea5a81e623a2623c88db1eb54b660205260408120549091906000805160206118888339815191529060ff166116f65780835260056020526040832082845260205260408320600160ff198254161790557f2f8788117e7eff1d82e926ec794901d17c78024a50270940304540a733656f0d339380a4600190565b505090565b906000918083526005602052604083209160018060a01b03169182845260205260ff604084205416156000146116f65780835260056020526040832082845260205260408320600160ff198254161790557f2f8788117e7eff1d82e926ec794901d17c78024a50270940304540a733656f0d339380a4600190565b6001600160a01b031660008181527fd8ef4509105c3edb0b04658b4528edc5ddd30ea5a81e623a2623c88db1eb54b660205260408120549091906000805160206118888339815191529060ff16156116f6578083526005602052604083208284526020526040832060ff1981541690557ff6391f5c32d9c69d2a47ea670b442974b53935d1edc7fd64eb21e047a839171b339380a4600190565b906000918083526005602052604083209160018060a01b03169182845260205260ff6040842054166000146116f6578083526005602052604083208284526020526040832060ff1981541690557ff6391f5c32d9c69d2a47ea670b442974b53935d1edc7fd64eb21e047a839171b339380a460019056fea49807205ce4d355092ef5a8a18f56e8913cf4a201fbe287825b095693c21775a2646970667358221220806fd2595b7442f303bd2ead747a695cc78420899822948e3064b9498fe3243f64736f6c63430008160033","opcodes":"PUSH1 0x40 PUSH2 0x160 DUP2 MSTORE CALLVALUE PUSH3 0x7CA JUMPI PUSH3 0x2285 DUP1 CODESIZE SUB DUP1 PUSH3 0x1F DUP2 PUSH3 0x7EF JUMP JUMPDEST SWAP3 DUP4 CODECOPY DUP2 ADD PUSH1 0x60 DUP3 DUP3 SUB SLT PUSH3 0x7CA JUMPI PUSH3 0x3A DUP3 PUSH3 0x815 JUMP JUMPDEST SWAP3 PUSH1 0x20 SWAP2 PUSH3 0x4B DUP4 DUP6 ADD PUSH3 0x815 JUMP JUMPDEST SWAP5 DUP3 DUP6 ADD MLOAD PUSH1 0x1 DUP1 PUSH1 0x40 SHL SUB SWAP6 DUP7 DUP3 GT PUSH3 0x7CA JUMPI ADD SWAP4 PUSH1 0x1F SWAP6 DUP4 DUP8 DUP8 ADD SLT ISZERO PUSH3 0x7CA JUMPI DUP6 MLOAD SWAP4 DUP2 DUP6 GT PUSH3 0x6A6 JUMPI PUSH1 0x5 SWAP7 DUP6 DUP9 SHL SWAP1 DUP5 DUP1 PUSH3 0x91 DUP2 DUP6 ADD PUSH3 0x7EF JUMP JUMPDEST DUP1 SWAP10 DUP2 MSTORE ADD SWAP3 DUP3 ADD ADD SWAP3 DUP4 GT PUSH3 0x7CA JUMPI DUP5 DUP1 SWAP2 ADD SWAP2 JUMPDEST DUP4 DUP4 LT PUSH3 0x7AF JUMPI POP POP POP POP PUSH3 0xBE PUSH3 0x7CF JUMP JUMPDEST SWAP7 PUSH1 0xE DUP9 MSTORE PUSH14 0x2BB2B2B22632B732102A37B5B2B7 PUSH1 0x91 SHL DUP4 DUP10 ADD MSTORE PUSH3 0xE3 PUSH3 0x7CF JUMP JUMPDEST SWAP1 DUP8 DUP3 MSTORE PUSH5 0x15D1515113 PUSH1 0xDA SHL DUP5 DUP4 ADD MSTORE DUP9 MLOAD SWAP2 DUP4 DUP4 GT PUSH3 0x6A6 JUMPI PUSH1 0x3 SWAP3 DUP4 SLOAD PUSH1 0x1 SWAP12 DUP13 DUP3 DUP2 SHR SWAP3 AND DUP1 ISZERO PUSH3 0x7A4 JUMPI JUMPDEST DUP9 DUP4 LT EQ PUSH3 0x78E JUMPI DUP2 DUP6 DUP5 SWAP4 GT PUSH3 0x738 JUMPI JUMPDEST POP DUP8 SWAP1 DUP6 DUP4 GT PUSH1 0x1 EQ PUSH3 0x6C8 JUMPI PUSH1 0x0 SWAP3 PUSH3 0x6BC JUMPI JUMPDEST POP POP PUSH1 0x0 NOT DUP3 DUP7 SHL SHR NOT AND SWAP1 DUP12 SHL OR DUP4 SSTORE JUMPDEST DUP1 MLOAD SWAP4 DUP5 GT PUSH3 0x6A6 JUMPI PUSH1 0x4 SWAP9 DUP10 SLOAD SWAP1 DUP12 DUP3 DUP2 SHR SWAP3 AND DUP1 ISZERO PUSH3 0x69B JUMPI JUMPDEST DUP8 DUP4 LT EQ PUSH3 0x686 JUMPI SWAP1 DUP4 SWAP3 SWAP2 DUP7 SWAP6 SWAP5 DUP3 GT PUSH3 0x62B JUMPI JUMPDEST POP POP DUP6 SWAP2 DUP5 GT PUSH1 0x1 EQ PUSH3 0x5C0 JUMPI PUSH1 0x0 SWAP4 PUSH3 0x5B4 JUMPI JUMPDEST POP POP DUP3 DUP10 SHL SWAP3 PUSH1 0x0 NOT SWAP2 SHL SHR NOT AND OR DUP6 SSTORE JUMPDEST DUP6 PUSH1 0x6 SSTORE PUSH12 0xD92289838D21A9968000000 PUSH1 0x80 MSTORE PUSH12 0x4123F60DDD8A1946C000000 PUSH1 0xA0 MSTORE PUSH12 0x2B6D4EB3E906BB848000000 SWAP7 DUP8 PUSH1 0xC0 MSTORE DUP8 PUSH1 0xE0 MSTORE PUSH2 0x100 SWAP8 DUP9 MSTORE PUSH2 0x120 SWAP7 PUSH12 0x15B6A759F4835DC24000000 DUP9 MSTORE PUSH1 0x1 DUP1 PUSH1 0xA0 SHL SUB SWAP1 DUP2 DUP6 AND SWAP2 DUP3 ISZERO PUSH3 0x57C JUMPI DUP1 DUP5 AND SWAP7 DUP8 ISZERO PUSH3 0x539 JUMPI PUSH3 0x22D DUP8 PUSH3 0x879 JUMP JUMPDEST POP PUSH1 0xB DUP1 SLOAD PUSH1 0x1 PUSH1 0x1 PUSH1 0xA0 SHL SUB NOT AND DUP6 OR SWAP1 SSTORE PUSH2 0x140 DUP6 DUP2 MSTORE SWAP10 PUSH1 0x0 DUP5 JUMPDEST PUSH3 0x3A5 JUMPI JUMPDEST POP POP POP POP POP PUSH1 0x80 SWAP3 SWAP2 PUSH3 0x338 SWAP2 PUSH3 0x288 PUSH3 0x281 PUSH3 0x278 PUSH1 0xC0 MLOAD PUSH1 0xE0 MLOAD SWAP1 PUSH3 0x855 JUMP JUMPDEST DUP14 MLOAD SWAP1 PUSH3 0x855 JUMP JUMPDEST ADDRESS PUSH3 0x92D JUMP JUMPDEST PUSH3 0x309 PUSH3 0x2A1 PUSH3 0x278 PUSH1 0xC0 MLOAD PUSH1 0xE0 MLOAD SWAP1 PUSH3 0x855 JUMP JUMPDEST SWAP7 DUP10 MLOAD SWAP8 DUP9 MSTORE DUP10 DUP7 DUP10 ADD MSTORE PUSH1 0x13 DUP11 DUP10 ADD MSTORE PUSH32 0x4275726E2C205374616B696E672C204C6F616E00000000000000000000000000 PUSH1 0x60 DUP10 ADD MSTORE PUSH32 0x9D89E36EADF856DB0AD9FFB5A569E07F95634DDDD9501141ECF04820484AD0DC SWAP8 DUP9 DUP9 ADDRESS SWAP3 LOG2 PUSH1 0xA0 MLOAD SWAP1 PUSH3 0x92D JUMP JUMPDEST DUP6 DUP6 PUSH1 0xA0 MLOAD DUP11 MLOAD SWAP1 DUP2 MSTORE DUP11 DUP8 DUP3 ADD MSTORE PUSH1 0x7 DUP12 DUP3 ADD MSTORE PUSH7 0x50726573616C65 PUSH1 0xC8 SHL PUSH1 0x60 DUP3 ADD MSTORE LOG2 DUP9 MLOAD SWAP1 PUSH3 0x92D JUMP JUMPDEST DUP5 DUP8 MLOAD SWAP2 DUP2 MLOAD SWAP3 DUP4 MSTORE DUP3 ADD MSTORE PUSH1 0x9 DUP6 DUP3 ADD MSTORE PUSH9 0x45636F73797374656D PUSH1 0xB8 SHL PUSH1 0x60 DUP3 ADD MSTORE LOG2 MLOAD SWAP2 PUSH2 0x18DD SWAP4 DUP5 PUSH3 0x9A8 DUP6 CODECOPY PUSH1 0x80 MLOAD DUP5 PUSH2 0x9D9 ADD MSTORE PUSH1 0xA0 MLOAD DUP5 PUSH2 0x430 ADD MSTORE PUSH1 0xC0 MLOAD DUP5 PUSH2 0xBFC ADD MSTORE PUSH1 0xE0 MLOAD DUP5 PUSH2 0x4D2 ADD MSTORE MLOAD DUP4 PUSH2 0x36D ADD MSTORE MLOAD DUP3 PUSH2 0x99E ADD MSTORE MLOAD DUP2 PUSH2 0xC97 ADD MSTORE RETURN JUMPDEST DUP3 MLOAD DUP2 LT ISZERO PUSH3 0x533 JUMPI DUP4 PUSH3 0x3BC DUP3 DUP6 PUSH3 0x82A JUMP JUMPDEST MLOAD AND ISZERO PUSH3 0x4F0 JUMPI DUP4 PUSH3 0x3D1 DUP3 DUP6 PUSH3 0x82A JUMP JUMPDEST MLOAD AND EXTCODESIZE ISZERO PUSH3 0x4AD JUMPI DUP4 PUSH3 0x3E7 DUP3 DUP6 PUSH3 0x82A JUMP JUMPDEST MLOAD AND PUSH1 0x0 MSTORE PUSH1 0x7 DUP1 DUP10 MSTORE PUSH1 0xFF DUP13 PUSH1 0x0 KECCAK256 SLOAD AND PUSH3 0x46A JUMPI DUP6 SWAP5 SWAP4 SWAP3 SWAP2 DUP6 SWAP2 DUP6 PUSH3 0x412 DUP4 DUP8 PUSH3 0x82A JUMP JUMPDEST MLOAD AND PUSH1 0x0 MSTORE DUP11 MSTORE DUP13 PUSH1 0x0 KECCAK256 DUP3 PUSH1 0xFF NOT DUP3 SLOAD AND OR SWAP1 SSTORE DUP13 PUSH32 0x3A93AB67D958A473D13350354F4B749A25F1837ED4F63FB6128758678E0B5A02 DUP12 DUP8 PUSH3 0x457 DUP6 DUP10 PUSH3 0x82A JUMP JUMPDEST MLOAD AND SWAP3 MLOAD TIMESTAMP DUP2 MSTORE LOG2 ADD SWAP1 SWAP2 SWAP3 SWAP4 PUSH3 0x24B JUMP JUMPDEST DUP12 MLOAD PUSH3 0x461BCD PUSH1 0xE5 SHL DUP2 MSTORE DUP1 DUP5 ADD DUP11 SWAP1 MSTORE PUSH1 0x17 PUSH1 0x24 DUP3 ADD MSTORE PUSH32 0x444558207061697220616C726561647920657869737473000000000000000000 PUSH1 0x44 DUP3 ADD MSTORE PUSH1 0x64 SWAP1 REVERT JUMPDEST DUP11 MLOAD PUSH3 0x461BCD PUSH1 0xE5 SHL DUP2 MSTORE DUP1 DUP4 ADD DUP10 SWAP1 MSTORE PUSH1 0x17 PUSH1 0x24 DUP3 ADD MSTORE PUSH32 0x4445582070616972206E6F74206120636F6E7472616374000000000000000000 PUSH1 0x44 DUP3 ADD MSTORE PUSH1 0x64 SWAP1 REVERT JUMPDEST DUP11 MLOAD PUSH3 0x461BCD PUSH1 0xE5 SHL DUP2 MSTORE DUP1 DUP4 ADD DUP10 SWAP1 MSTORE PUSH1 0x15 PUSH1 0x24 DUP3 ADD MSTORE PUSH32 0x5A65726F20444558207061697220616464726573730000000000000000000000 PUSH1 0x44 DUP3 ADD MSTORE PUSH1 0x64 SWAP1 REVERT JUMPDEST PUSH3 0x251 JUMP JUMPDEST DUP9 MLOAD PUSH3 0x461BCD PUSH1 0xE5 SHL DUP2 MSTORE DUP1 DUP12 ADD DUP8 SWAP1 MSTORE PUSH1 0x1D PUSH1 0x24 DUP3 ADD MSTORE PUSH32 0x5A65726F2065636F73797374656D2077616C6C65742061646472657373000000 PUSH1 0x44 DUP3 ADD MSTORE PUSH1 0x64 SWAP1 REVERT JUMPDEST DUP8 MLOAD PUSH3 0x461BCD PUSH1 0xE5 SHL DUP2 MSTORE DUP1 DUP11 ADD DUP7 SWAP1 MSTORE PUSH1 0x12 PUSH1 0x24 DUP3 ADD MSTORE PUSH18 0x5A65726F2061646D696E2061646472657373 PUSH1 0x70 SHL PUSH1 0x44 DUP3 ADD MSTORE PUSH1 0x64 SWAP1 REVERT JUMPDEST ADD MLOAD SWAP2 POP CODESIZE DUP1 PUSH3 0x19F JUMP JUMPDEST SWAP2 SWAP1 DUP11 SWAP5 POP PUSH1 0x1F NOT DUP5 AND SWAP3 DUP11 PUSH1 0x0 MSTORE DUP7 PUSH1 0x0 KECCAK256 SWAP4 PUSH1 0x0 JUMPDEST DUP9 DUP3 DUP3 LT PUSH3 0x614 JUMPI POP POP DUP6 GT PUSH3 0x5F9 JUMPI JUMPDEST POP POP POP POP DUP2 SHL ADD DUP6 SSTORE PUSH3 0x1B1 JUMP JUMPDEST ADD MLOAD SWAP1 PUSH1 0xF8 DUP5 PUSH1 0x0 NOT SWAP3 SHL AND SHR NOT AND SWAP1 SSTORE CODESIZE DUP1 DUP1 DUP1 PUSH3 0x5EA JUMP JUMPDEST DUP4 DUP6 ADD MLOAD DUP8 SSTORE DUP15 SWAP9 SWAP1 SWAP7 ADD SWAP6 SWAP4 DUP5 ADD SWAP4 ADD PUSH3 0x5D7 JUMP JUMPDEST SWAP1 SWAP2 SWAP3 SWAP4 SWAP5 POP DUP11 PUSH1 0x0 MSTORE DUP7 PUSH1 0x0 KECCAK256 SWAP1 DUP5 DUP1 DUP9 ADD DUP3 SHR DUP4 ADD SWAP4 DUP10 DUP10 LT PUSH3 0x67C JUMPI JUMPDEST SWAP2 DUP9 SWAP8 SWAP7 DUP16 SWAP4 SWAP7 SWAP6 SWAP5 SWAP3 SWAP7 ADD SWAP1 SHR ADD SWAP2 JUMPDEST DUP3 DUP2 LT PUSH3 0x66C JUMPI POP PUSH3 0x188 JUMP JUMPDEST PUSH1 0x0 DUP2 SSTORE DUP8 SWAP7 POP DUP14 SWAP2 ADD PUSH3 0x65D JUMP JUMPDEST SWAP4 POP DUP3 SWAP4 PUSH3 0x64C JUMP JUMPDEST PUSH1 0x22 DUP12 PUSH4 0x4E487B71 PUSH1 0xE0 SHL PUSH1 0x0 MSTORE MSTORE PUSH1 0x24 PUSH1 0x0 REVERT JUMPDEST SWAP2 PUSH1 0x7F AND SWAP2 PUSH3 0x170 JUMP JUMPDEST PUSH4 0x4E487B71 PUSH1 0xE0 SHL PUSH1 0x0 MSTORE PUSH1 0x41 PUSH1 0x4 MSTORE PUSH1 0x24 PUSH1 0x0 REVERT JUMPDEST ADD MLOAD SWAP1 POP CODESIZE DUP1 PUSH3 0x140 JUMP JUMPDEST SWAP1 DUP14 SWAP4 POP PUSH1 0x1F NOT DUP4 AND SWAP2 DUP8 PUSH1 0x0 MSTORE DUP10 PUSH1 0x0 KECCAK256 SWAP3 PUSH1 0x0 JUMPDEST DUP12 DUP3 DUP3 LT PUSH3 0x718 JUMPI POP POP DUP5 GT PUSH3 0x6FF JUMPI JUMPDEST POP POP POP DUP2 SHL ADD DUP4 SSTORE PUSH3 0x152 JUMP JUMPDEST ADD MLOAD PUSH1 0x0 NOT DUP4 DUP9 SHL PUSH1 0xF8 AND SHR NOT AND SWAP1 SSTORE CODESIZE DUP1 DUP1 PUSH3 0x6F1 JUMP JUMPDEST SWAP2 SWAP3 SWAP4 SWAP6 SWAP7 DUP3 SWAP2 SWAP6 DUP8 DUP7 ADD MLOAD DUP2 SSTORE ADD SWAP6 ADD SWAP4 ADD SWAP1 DUP16 SWAP6 SWAP5 SWAP4 SWAP3 SWAP2 PUSH3 0x6DE JUMP JUMPDEST SWAP1 SWAP2 POP DUP6 PUSH1 0x0 MSTORE DUP8 PUSH1 0x0 KECCAK256 DUP6 DUP14 DUP2 DUP7 ADD SWAP1 SHR DUP3 ADD SWAP3 DUP11 DUP7 LT PUSH3 0x784 JUMPI JUMPDEST DUP6 SWAP5 SWAP4 SWAP2 ADD DUP15 SHR SWAP1 SWAP2 ADD SWAP1 DUP15 SWAP1 JUMPDEST DUP3 DUP2 LT PUSH3 0x774 JUMPI POP POP PUSH3 0x129 JUMP JUMPDEST PUSH1 0x0 DUP2 SSTORE DUP6 SWAP5 POP DUP16 SWAP2 ADD PUSH3 0x764 JUMP JUMPDEST SWAP3 POP DUP2 SWAP3 PUSH3 0x756 JUMP JUMPDEST PUSH4 0x4E487B71 PUSH1 0xE0 SHL PUSH1 0x0 MSTORE PUSH1 0x22 PUSH1 0x4 MSTORE PUSH1 0x24 PUSH1 0x0 REVERT JUMPDEST SWAP2 PUSH1 0x7F AND SWAP2 PUSH3 0x115 JUMP JUMPDEST DUP2 SWAP1 PUSH3 0x7BC DUP5 PUSH3 0x815 JUMP JUMPDEST DUP2 MSTORE ADD SWAP2 ADD SWAP1 DUP5 SWAP1 PUSH3 0xA8 JUMP JUMPDEST PUSH1 0x0 DUP1 REVERT JUMPDEST PUSH1 0x40 DUP1 MLOAD SWAP2 SWAP1 DUP3 ADD PUSH1 0x1 PUSH1 0x1 PUSH1 0x40 SHL SUB DUP2 GT DUP4 DUP3 LT OR PUSH3 0x6A6 JUMPI PUSH1 0x40 MSTORE JUMP JUMPDEST PUSH1 0x40 MLOAD SWAP2 SWAP1 PUSH1 0x1F ADD PUSH1 0x1F NOT AND DUP3 ADD PUSH1 0x1 PUSH1 0x1 PUSH1 0x40 SHL SUB DUP2 GT DUP4 DUP3 LT OR PUSH3 0x6A6 JUMPI PUSH1 0x40 MSTORE JUMP JUMPDEST MLOAD SWAP1 PUSH1 0x1 PUSH1 0x1 PUSH1 0xA0 SHL SUB DUP3 AND DUP3 SUB PUSH3 0x7CA JUMPI JUMP JUMPDEST DUP1 MLOAD DUP3 LT ISZERO PUSH3 0x83F JUMPI PUSH1 0x20 SWAP2 PUSH1 0x5 SHL ADD ADD SWAP1 JUMP JUMPDEST PUSH4 0x4E487B71 PUSH1 0xE0 SHL PUSH1 0x0 MSTORE PUSH1 0x32 PUSH1 0x4 MSTORE PUSH1 0x24 PUSH1 0x0 REVERT JUMPDEST SWAP2 SWAP1 DUP3 ADD DUP1 SWAP3 GT PUSH3 0x863 JUMPI JUMP JUMPDEST PUSH4 0x4E487B71 PUSH1 0xE0 SHL PUSH1 0x0 MSTORE PUSH1 0x11 PUSH1 0x4 MSTORE PUSH1 0x24 PUSH1 0x0 REVERT JUMPDEST PUSH1 0x1 PUSH1 0x1 PUSH1 0xA0 SHL SUB AND PUSH1 0x0 DUP2 DUP2 MSTORE PUSH32 0xD8EF4509105C3EDB0B04658B4528EDC5DDD30EA5A81E623A2623C88DB1EB54B6 PUSH1 0x20 MSTORE PUSH1 0x40 DUP2 KECCAK256 SLOAD SWAP1 SWAP2 SWAP1 PUSH32 0xA49807205CE4D355092EF5A8A18F56E8913CF4A201FBE287825B095693C21775 SWAP1 PUSH1 0xFF AND PUSH3 0x928 JUMPI DUP1 DUP4 MSTORE PUSH1 0x5 PUSH1 0x20 MSTORE PUSH1 0x40 DUP4 KECCAK256 DUP3 DUP5 MSTORE PUSH1 0x20 MSTORE PUSH1 0x40 DUP4 KECCAK256 PUSH1 0x1 PUSH1 0xFF NOT DUP3 SLOAD AND OR SWAP1 SSTORE PUSH32 0x2F8788117E7EFF1D82E926EC794901D17C78024A50270940304540A733656F0D CALLER SWAP4 DUP1 LOG4 PUSH1 0x1 SWAP1 JUMP JUMPDEST POP POP SWAP1 JUMP JUMPDEST PUSH1 0x1 PUSH1 0x1 PUSH1 0xA0 SHL SUB AND SWAP1 DUP2 ISZERO PUSH3 0x98E JUMPI PUSH32 0xDDF252AD1BE2C89B69C2B068FC378DAA952BA7F163C4A11628F55A4DF523B3EF PUSH1 0x20 DUP3 PUSH3 0x972 PUSH1 0x0 SWAP5 PUSH1 0x2 SLOAD PUSH3 0x855 JUMP JUMPDEST PUSH1 0x2 SSTORE DUP5 DUP5 MSTORE DUP4 DUP3 MSTORE PUSH1 0x40 DUP5 KECCAK256 DUP2 DUP2 SLOAD ADD SWAP1 SSTORE PUSH1 0x40 MLOAD SWAP1 DUP2 MSTORE LOG3 JUMP JUMPDEST PUSH1 0x40 MLOAD PUSH4 0xEC442F05 PUSH1 0xE0 SHL DUP2 MSTORE PUSH1 0x0 PUSH1 0x4 DUP3 ADD MSTORE PUSH1 0x24 SWAP1 REVERT INVALID PUSH1 0x80 PUSH1 0x40 SWAP1 DUP1 DUP3 MSTORE PUSH1 0x4 SWAP1 DUP2 CALLDATASIZE LT ISZERO PUSH2 0x55 JUMPI JUMPDEST POP CALLDATASIZE ISZERO PUSH2 0x1F JUMPI PUSH1 0x0 DUP1 REVERT JUMPDEST PUSH1 0x20 PUSH1 0x64 SWAP3 MLOAD SWAP2 PUSH3 0x461BCD PUSH1 0xE5 SHL DUP4 MSTORE DUP3 ADD MSTORE PUSH1 0x11 PUSH1 0x24 DUP3 ADD MSTORE PUSH17 0x115512081B9BDD081CDD5C1C1BDC9D1959 PUSH1 0x7A SHL PUSH1 0x44 DUP3 ADD MSTORE REVERT JUMPDEST PUSH1 0x0 SWAP1 DUP2 CALLDATALOAD PUSH1 0xE0 SHR SWAP1 DUP2 PUSH4 0x1FFC9A7 EQ PUSH2 0x1190 JUMPI POP DUP1 PUSH4 0x29EAE0E EQ PUSH2 0x10BF JUMPI DUP1 PUSH4 0x6FDDE03 EQ PUSH2 0xFC9 JUMPI DUP1 PUSH4 0x95EA7B3 EQ PUSH2 0xF1E JUMPI DUP1 PUSH4 0x18160DDD EQ PUSH2 0xEFF JUMPI DUP1 PUSH4 0x23B872DD EQ PUSH2 0xDDF JUMPI DUP1 PUSH4 0x248A9CA3 EQ PUSH2 0xDB3 JUMPI DUP1 PUSH4 0x26782247 EQ PUSH2 0xD8A JUMPI DUP1 PUSH4 0x2F2FF15D EQ PUSH2 0xD61 JUMPI DUP1 PUSH4 0x313CE567 EQ PUSH2 0xD45 JUMPI DUP1 PUSH4 0x36568ABE EQ PUSH2 0xCFF JUMPI DUP1 PUSH4 0x40009927 EQ PUSH2 0x453 JUMPI DUP1 PUSH4 0x42966C68 EQ PUSH2 0xCC6 JUMPI DUP1 PUSH4 0x435263EF EQ PUSH2 0xC82 JUMPI DUP1 PUSH4 0x54FD4D50 EQ PUSH2 0xC1F JUMPI DUP1 PUSH4 0x598CF195 EQ PUSH2 0xBE4 JUMPI DUP1 PUSH4 0x70A08231 EQ PUSH2 0xBAD JUMPI DUP1 PUSH4 0x75B238FC EQ PUSH2 0xB84 JUMPI DUP1 PUSH4 0x79CC6790 EQ PUSH2 0xB4E JUMPI DUP1 PUSH4 0x7F4E4849 EQ PUSH2 0xB14 JUMPI DUP1 PUSH4 0x8C3D7301 EQ PUSH2 0x9FC JUMPI DUP1 PUSH4 0x902D55A5 EQ PUSH2 0x9C1 JUMPI DUP1 PUSH4 0x90534F24 EQ PUSH2 0x986 JUMPI DUP1 PUSH4 0x9070577F EQ PUSH2 0x8D5 JUMPI DUP1 PUSH4 0x91D14854 EQ PUSH2 0x88D JUMPI DUP1 PUSH4 0x95D5E493 EQ PUSH2 0x870 JUMPI DUP1 PUSH4 0x95D89B41 EQ PUSH2 0x76B JUMPI DUP1 PUSH4 0xA16511E6 EQ PUSH2 0x632 JUMPI DUP1 PUSH4 0xA217FDDF EQ PUSH2 0x617 JUMPI DUP1 PUSH4 0xA7A9B249 EQ PUSH2 0x5F9 JUMPI DUP1 PUSH4 0xA9059CBB EQ PUSH2 0x4F5 JUMPI DUP1 PUSH4 0xB99DCAE5 EQ PUSH2 0x4BA JUMPI DUP1 PUSH4 0xBA4BCD72 EQ PUSH2 0x491 JUMPI DUP1 PUSH4 0xC002F939 EQ PUSH2 0x453 JUMPI DUP1 PUSH4 0xC7B5A48C EQ PUSH2 0x418 JUMPI DUP1 PUSH4 0xD547741F EQ PUSH2 0x3D9 JUMPI DUP1 PUSH4 0xDD62ED3E EQ PUSH2 0x390 JUMPI DUP1 PUSH4 0xE676F44D EQ PUSH2 0x355 JUMPI DUP1 PUSH4 0xE6DDF403 EQ PUSH2 0x238 JUMPI PUSH4 0xFCDBB19E SUB PUSH2 0x13 JUMPI DUP3 CALLVALUE PUSH2 0x234 JUMPI DUP2 PUSH1 0x3 NOT CALLDATASIZE ADD SLT PUSH2 0x234 JUMPI PUSH1 0x20 SWAP1 PUSH1 0xA SLOAD SWAP1 MLOAD SWAP1 DUP2 MSTORE RETURN JUMPDEST POP DUP1 REVERT JUMPDEST POP SWAP2 CALLVALUE PUSH2 0x351 JUMPI PUSH1 0x20 SWAP1 DUP2 PUSH1 0x3 NOT CALLDATASIZE ADD SLT PUSH2 0x34D JUMPI PUSH2 0x255 PUSH2 0x11E4 JUMP JUMPDEST SWAP3 PUSH2 0x25E PUSH2 0x130B JUMP JUMPDEST PUSH2 0x266 PUSH2 0x1399 JUMP JUMPDEST PUSH1 0x1 PUSH1 0x1 PUSH1 0xA0 SHL SUB DUP5 AND SWAP4 PUSH2 0x27C DUP6 ISZERO ISZERO PUSH2 0x12D0 JUMP JUMPDEST EXTCODESIZE ISZERO PUSH2 0x31B JUMPI DUP4 DUP6 MSTORE PUSH1 0x7 DUP4 MSTORE PUSH1 0xFF DUP3 DUP7 KECCAK256 SLOAD AND PUSH2 0x2DA JUMPI POP DUP3 DUP5 MSTORE PUSH1 0x7 DUP3 MSTORE DUP1 DUP5 KECCAK256 DUP1 SLOAD PUSH1 0xFF NOT AND PUSH1 0x1 OR SWAP1 SSTORE MLOAD TIMESTAMP DUP2 MSTORE PUSH32 0x3A93AB67D958A473D13350354F4B749A25F1837ED4F63FB6128758678E0B5A02 SWAP2 SWAP1 LOG2 PUSH1 0x1 PUSH1 0x6 SSTORE DUP1 RETURN JUMPDEST DUP3 PUSH1 0x64 SWAP3 MLOAD SWAP2 PUSH3 0x461BCD PUSH1 0xE5 SHL DUP4 MSTORE DUP3 ADD MSTORE PUSH1 0x17 PUSH1 0x24 DUP3 ADD MSTORE PUSH32 0x444558207061697220616C726561647920657869737473000000000000000000 PUSH1 0x44 DUP3 ADD MSTORE REVERT JUMPDEST DUP3 PUSH1 0x64 SWAP3 MLOAD SWAP2 PUSH3 0x461BCD PUSH1 0xE5 SHL DUP4 MSTORE DUP3 ADD MSTORE PUSH1 0xE PUSH1 0x24 DUP3 ADD MSTORE PUSH14 0x139BDD08184818DBDB9D1C9858DD PUSH1 0x92 SHL PUSH1 0x44 DUP3 ADD MSTORE REVERT JUMPDEST DUP4 DUP1 REVERT JUMPDEST DUP3 DUP1 REVERT JUMPDEST POP DUP3 CALLVALUE PUSH2 0x234 JUMPI DUP2 PUSH1 0x3 NOT CALLDATASIZE ADD SLT PUSH2 0x234 JUMPI PUSH1 0x20 SWAP1 MLOAD PUSH32 0x0 DUP2 MSTORE RETURN JUMPDEST POP DUP3 CALLVALUE PUSH2 0x234 JUMPI DUP1 PUSH1 0x3 NOT CALLDATASIZE ADD SLT PUSH2 0x234 JUMPI DUP1 PUSH1 0x20 SWAP3 PUSH2 0x3AE PUSH2 0x11E4 JUMP JUMPDEST PUSH2 0x3B6 PUSH2 0x11FF JUMP JUMPDEST PUSH1 0x1 PUSH1 0x1 PUSH1 0xA0 SHL SUB SWAP2 DUP3 AND DUP4 MSTORE PUSH1 0x1 DUP7 MSTORE DUP4 DUP4 KECCAK256 SWAP2 AND DUP3 MSTORE DUP5 MSTORE KECCAK256 SLOAD SWAP1 MLOAD SWAP1 DUP2 MSTORE RETURN JUMPDEST POP SWAP2 CALLVALUE PUSH2 0x351 JUMPI DUP1 PUSH1 0x3 NOT CALLDATASIZE ADD SLT PUSH2 0x351 JUMPI PUSH2 0x414 SWAP2 CALLDATALOAD PUSH2 0x40F PUSH1 0x1 PUSH2 0x3FD PUSH2 0x11FF JUMP JUMPDEST SWAP4 DUP4 DUP8 MSTORE PUSH1 0x5 PUSH1 0x20 MSTORE DUP7 KECCAK256 ADD SLOAD PUSH2 0x1373 JUMP JUMPDEST PUSH2 0x1810 JUMP JUMPDEST POP DUP1 RETURN JUMPDEST POP DUP3 CALLVALUE PUSH2 0x234 JUMPI DUP2 PUSH1 0x3 NOT CALLDATASIZE ADD SLT PUSH2 0x234 JUMPI PUSH1 0x20 SWAP1 MLOAD PUSH32 0x0 DUP2 MSTORE RETURN JUMPDEST POP DUP3 CALLVALUE PUSH2 0x234 JUMPI PUSH1 0x20 CALLDATASIZE PUSH1 0x3 NOT ADD SLT PUSH2 0x234 JUMPI PUSH1 0x20 SWAP2 PUSH1 0xFF SWAP1 DUP3 SWAP1 PUSH1 0x1 PUSH1 0x1 PUSH1 0xA0 SHL SUB PUSH2 0x47E PUSH2 0x11E4 JUMP JUMPDEST AND DUP2 MSTORE PUSH1 0x7 DUP6 MSTORE KECCAK256 SLOAD AND SWAP1 MLOAD SWAP1 ISZERO ISZERO DUP2 MSTORE RETURN JUMPDEST POP DUP3 CALLVALUE PUSH2 0x234 JUMPI DUP2 PUSH1 0x3 NOT CALLDATASIZE ADD SLT PUSH2 0x234 JUMPI PUSH1 0xB SLOAD SWAP1 MLOAD PUSH1 0x1 PUSH1 0x1 PUSH1 0xA0 SHL SUB SWAP1 SWAP2 AND DUP2 MSTORE PUSH1 0x20 SWAP1 RETURN JUMPDEST POP DUP3 CALLVALUE PUSH2 0x234 JUMPI DUP2 PUSH1 0x3 NOT CALLDATASIZE ADD SLT PUSH2 0x234 JUMPI PUSH1 0x20 SWAP1 MLOAD PUSH32 0x0 DUP2 MSTORE RETURN JUMPDEST POP DUP3 CALLVALUE PUSH2 0x234 JUMPI DUP1 PUSH1 0x3 NOT CALLDATASIZE ADD SLT PUSH2 0x234 JUMPI PUSH2 0x50F PUSH2 0x11E4 JUMP JUMPDEST SWAP2 PUSH1 0x24 CALLDATALOAD SWAP1 PUSH2 0x51F DUP3 ISZERO ISZERO PUSH2 0x1296 JUMP JUMPDEST PUSH2 0x52A DUP3 DUP6 CALLER PUSH2 0x148F JUMP JUMPDEST CALLER DUP2 MSTORE PUSH1 0x20 DUP1 SWAP5 PUSH1 0x8 DUP3 MSTORE NUMBER DUP6 DUP5 KECCAK256 SSTORE PUSH1 0x1 DUP1 PUSH1 0xA0 SHL SUB AND SWAP2 DUP3 DUP2 MSTORE NUMBER DUP6 DUP3 KECCAK256 SSTORE PUSH1 0x7 DUP3 MSTORE DUP5 PUSH1 0xFF DUP2 DUP4 KECCAK256 SLOAD AND DUP1 PUSH2 0x5E9 JUMPI JUMPDEST PUSH2 0x56B JUMPI JUMPDEST SWAP1 POP MLOAD PUSH1 0x1 DUP2 MSTORE RETURN JUMPDEST ADDRESS DUP3 MSTORE DUP2 DUP4 MSTORE SWAP1 KECCAK256 SLOAD DUP4 GT PUSH2 0x5BB JUMPI POP POP PUSH2 0x586 DUP2 ADDRESS PUSH2 0x15BB JUMP JUMPDEST DUP2 MLOAD SWAP1 DUP2 MSTORE PUSH32 0x17FB25C14E38163CF7B813826E0A5A17ABAE9753AE23EDFFB426593DEFEA04CB DUP4 CALLER SWAP3 LOG2 JUMPDEST DUP3 DUP1 DUP4 DUP2 DUP5 PUSH2 0x562 JUMP JUMPDEST PUSH32 0x7BCEAFDDCBBD682AC897E4E307D8324DC2B43FE1F44AD0B41D24FC1C8477CC73 SWAP2 SWAP3 DUP5 MLOAD SWAP1 DUP2 MSTORE LOG2 PUSH2 0x5B1 JUMP JUMPDEST POP PUSH2 0x5F3 CALLER PUSH2 0x156D JUMP JUMPDEST ISZERO PUSH2 0x55D JUMP JUMPDEST POP DUP3 CALLVALUE PUSH2 0x234 JUMPI DUP2 PUSH1 0x3 NOT CALLDATASIZE ADD SLT PUSH2 0x234 JUMPI PUSH1 0x20 SWAP1 MLOAD PUSH3 0x15180 DUP2 MSTORE RETURN JUMPDEST POP DUP3 CALLVALUE PUSH2 0x234 JUMPI DUP2 PUSH1 0x3 NOT CALLDATASIZE ADD SLT PUSH2 0x234 JUMPI MLOAD SWAP1 DUP2 MSTORE PUSH1 0x20 SWAP1 RETURN JUMPDEST POP SWAP2 CALLVALUE PUSH2 0x351 JUMPI DUP1 PUSH1 0x3 NOT CALLDATASIZE ADD SLT PUSH2 0x351 JUMPI PUSH2 0x64C PUSH2 0x11E4 JUMP JUMPDEST SWAP2 PUSH1 0x24 CALLDATALOAD SWAP3 PUSH2 0x659 PUSH2 0x130B JUMP JUMPDEST PUSH2 0x661 PUSH2 0x1399 JUMP JUMPDEST PUSH1 0x1 PUSH1 0x1 PUSH1 0xA0 SHL SUB SWAP1 DUP2 AND SWAP4 PUSH2 0x678 DUP6 ISZERO ISZERO PUSH2 0x12D0 JUMP JUMPDEST CALLER DUP6 EQ PUSH2 0x732 JUMPI PUSH2 0xE10 DUP2 LT PUSH2 0x6FA JUMPI DUP5 PUSH12 0xFFFFFFFFFFFFFFFFFFFFFFFF PUSH1 0xA0 SHL PUSH1 0x9 SLOAD AND OR PUSH1 0x9 SSTORE TIMESTAMP ADD SWAP2 DUP3 TIMESTAMP GT PUSH2 0x6E7 JUMPI POP DUP2 PUSH1 0x20 SWAP2 PUSH32 0x9ABF466CDFC433CA6C207A24F348720D9D0103EE08A7A84C9E047C27AA3F59EC SWAP4 PUSH1 0xA SSTORE PUSH1 0xB SLOAD AND SWAP4 MLOAD SWAP1 DUP2 MSTORE LOG3 PUSH1 0x1 PUSH1 0x6 SSTORE DUP1 RETURN JUMPDEST PUSH4 0x4E487B71 PUSH1 0xE0 SHL DUP7 MSTORE PUSH1 0x11 SWAP1 MSTORE PUSH1 0x24 DUP6 REVERT JUMPDEST DUP4 MLOAD PUSH3 0x461BCD PUSH1 0xE5 SHL DUP2 MSTORE PUSH1 0x20 DUP2 DUP6 ADD MSTORE PUSH1 0x12 PUSH1 0x24 DUP3 ADD MSTORE PUSH18 0x111958591B1A5B99481D1BDBC81CDA1BDC9D PUSH1 0x72 SHL PUSH1 0x44 DUP3 ADD MSTORE PUSH1 0x64 SWAP1 REVERT JUMPDEST DUP4 MLOAD PUSH3 0x461BCD PUSH1 0xE5 SHL DUP2 MSTORE PUSH1 0x20 DUP2 DUP6 ADD MSTORE PUSH1 0x13 PUSH1 0x24 DUP3 ADD MSTORE PUSH19 0x21B0B73737BA10383937B837B9B29039B2B633 PUSH1 0x69 SHL PUSH1 0x44 DUP3 ADD MSTORE PUSH1 0x64 SWAP1 REVERT JUMPDEST POP DUP3 CALLVALUE PUSH2 0x234 JUMPI DUP2 PUSH1 0x3 NOT CALLDATASIZE ADD SLT PUSH2 0x234 JUMPI DUP1 MLOAD SWAP2 DUP1 SWAP4 DUP1 SLOAD SWAP2 PUSH1 0x1 SWAP1 DUP4 PUSH1 0x1 SHR SWAP3 PUSH1 0x1 DUP6 AND SWAP5 DUP6 ISZERO PUSH2 0x866 JUMPI JUMPDEST PUSH1 0x20 SWAP6 DUP7 DUP7 LT DUP2 EQ PUSH2 0x853 JUMPI DUP6 DUP10 MSTORE SWAP1 DUP2 ISZERO PUSH2 0x82F JUMPI POP PUSH1 0x1 EQ PUSH2 0x7D7 JUMPI JUMPDEST PUSH2 0x7D3 DUP8 DUP8 PUSH2 0x7C9 DUP3 DUP13 SUB DUP4 PUSH2 0x125E JUMP JUMPDEST MLOAD SWAP2 DUP3 SWAP2 DUP3 PUSH2 0x1215 JUMP JUMPDEST SUB SWAP1 RETURN JUMPDEST DUP2 MSTORE SWAP3 SWAP6 POP PUSH32 0x8A35ACFBC15FF81A39AE7D344FD709F28E8600B4AA8C65C6B64BFE7FE36BD19B JUMPDEST DUP3 DUP5 LT PUSH2 0x81C JUMPI POP POP POP DUP3 PUSH2 0x7D3 SWAP5 PUSH2 0x7C9 SWAP3 DUP3 ADD ADD SWAP5 DUP7 DUP1 PUSH2 0x7B8 JUMP JUMPDEST DUP1 SLOAD DUP7 DUP6 ADD DUP9 ADD MSTORE SWAP3 DUP7 ADD SWAP3 DUP2 ADD PUSH2 0x7FE JUMP JUMPDEST PUSH1 0xFF NOT AND DUP9 DUP8 ADD MSTORE POP POP POP POP ISZERO ISZERO PUSH1 0x5 SHL DUP4 ADD ADD SWAP3 POP PUSH2 0x7C9 DUP3 PUSH2 0x7D3 DUP7 DUP1 PUSH2 0x7B8 JUMP JUMPDEST PUSH4 0x4E487B71 PUSH1 0xE0 SHL DUP5 MSTORE PUSH1 0x22 DUP4 MSTORE PUSH1 0x24 DUP5 REVERT JUMPDEST SWAP4 PUSH1 0x7F AND SWAP4 PUSH2 0x799 JUMP JUMPDEST POP DUP3 CALLVALUE PUSH2 0x234 JUMPI DUP2 PUSH1 0x3 NOT CALLDATASIZE ADD SLT PUSH2 0x234 JUMPI PUSH1 0x20 SWAP1 MLOAD PUSH2 0xE10 DUP2 MSTORE RETURN JUMPDEST POP SWAP2 SWAP1 CALLVALUE PUSH2 0x351 JUMPI DUP2 PUSH1 0x3 NOT CALLDATASIZE ADD SLT PUSH2 0x351 JUMPI DUP2 PUSH1 0x20 SWAP4 PUSH1 0xFF SWAP3 PUSH2 0x8AF PUSH2 0x11FF JUMP JUMPDEST SWAP1 CALLDATALOAD DUP3 MSTORE PUSH1 0x5 DUP7 MSTORE DUP3 DUP3 KECCAK256 PUSH1 0x1 PUSH1 0x1 PUSH1 0xA0 SHL SUB SWAP1 SWAP2 AND DUP3 MSTORE DUP6 MSTORE KECCAK256 SLOAD SWAP2 MLOAD SWAP2 AND ISZERO ISZERO DUP2 MSTORE RETURN JUMPDEST POP SWAP2 CALLVALUE PUSH2 0x351 JUMPI DUP3 PUSH1 0x3 NOT CALLDATASIZE ADD SLT PUSH2 0x351 JUMPI PUSH2 0x8EF PUSH2 0x130B JUMP JUMPDEST PUSH2 0x8F7 PUSH2 0x1399 JUMP JUMPDEST PUSH1 0x9 SLOAD PUSH1 0x1 PUSH1 0x1 PUSH1 0xA0 SHL SUB DUP2 AND SWAP3 DUP4 ISZERO PUSH2 0x950 JUMPI POP PUSH1 0x1 PUSH1 0x1 PUSH1 0xA0 SHL SUB NOT AND PUSH1 0x9 SSTORE PUSH1 0xA DUP4 SWAP1 SSTORE MLOAD TIMESTAMP DUP2 MSTORE PUSH32 0xAB6C881F0B5973DC19822E8201C9FF2489162187617CF05ED6E349D803871843 SWAP1 PUSH1 0x20 SWAP1 LOG2 PUSH1 0x1 PUSH1 0x6 SSTORE DUP1 RETURN JUMPDEST PUSH1 0x64 SWAP1 PUSH1 0x20 DUP5 MLOAD SWAP2 PUSH3 0x461BCD PUSH1 0xE5 SHL DUP4 MSTORE DUP3 ADD MSTORE PUSH1 0x10 PUSH1 0x24 DUP3 ADD MSTORE PUSH16 0x2737903832B73234B7339030B236B4B7 PUSH1 0x81 SHL PUSH1 0x44 DUP3 ADD MSTORE REVERT JUMPDEST POP DUP3 CALLVALUE PUSH2 0x234 JUMPI DUP2 PUSH1 0x3 NOT CALLDATASIZE ADD SLT PUSH2 0x234 JUMPI PUSH1 0x20 SWAP1 MLOAD PUSH32 0x0 DUP2 MSTORE RETURN JUMPDEST POP DUP3 CALLVALUE PUSH2 0x234 JUMPI DUP2 PUSH1 0x3 NOT CALLDATASIZE ADD SLT PUSH2 0x234 JUMPI PUSH1 0x20 SWAP1 MLOAD PUSH32 0x0 DUP2 MSTORE RETURN JUMPDEST POP SWAP2 SWAP1 CALLVALUE PUSH2 0x351 JUMPI DUP3 PUSH1 0x3 NOT CALLDATASIZE ADD SLT PUSH2 0x351 JUMPI PUSH2 0xA17 PUSH2 0x1399 JUMP JUMPDEST PUSH1 0x9 SLOAD PUSH1 0x1 PUSH1 0x1 PUSH1 0xA0 SHL SUB SWAP2 SWAP1 DUP3 AND CALLER SUB PUSH2 0xADC JUMPI PUSH1 0xA SLOAD TIMESTAMP GT PUSH2 0xAA6 JUMPI POP PUSH1 0xB SLOAD AND SWAP1 PUSH2 0xA44 CALLER PUSH2 0x165A JUMP JUMPDEST POP PUSH2 0xA4E DUP3 PUSH2 0x1776 JUMP JUMPDEST POP PUSH12 0xFFFFFFFFFFFFFFFFFFFFFFFF PUSH1 0xA0 SHL CALLER DUP2 PUSH1 0xB SLOAD AND OR PUSH1 0xB SSTORE PUSH1 0x9 SLOAD AND PUSH1 0x9 SSTORE DUP3 PUSH1 0xA SSTORE MLOAD SWAP1 TIMESTAMP DUP3 MSTORE PUSH31 0x797C0A9BFA172509344A12642A49611F0DDE48811134AFEB085A78F756E0F7 PUSH1 0x20 CALLER SWAP4 LOG3 PUSH1 0x1 PUSH1 0x6 SSTORE DUP1 RETURN JUMPDEST PUSH1 0x64 SWAP1 PUSH1 0x20 DUP5 MLOAD SWAP2 PUSH3 0x461BCD PUSH1 0xE5 SHL DUP4 MSTORE DUP3 ADD MSTORE PUSH1 0x10 PUSH1 0x24 DUP3 ADD MSTORE PUSH16 0x141C9BDC1BDCD85B08195E1C1A5C9959 PUSH1 0x82 SHL PUSH1 0x44 DUP3 ADD MSTORE REVERT JUMPDEST PUSH1 0x64 SWAP1 PUSH1 0x20 DUP5 MLOAD SWAP2 PUSH3 0x461BCD PUSH1 0xE5 SHL DUP4 MSTORE DUP3 ADD MSTORE PUSH1 0x12 PUSH1 0x24 DUP3 ADD MSTORE PUSH18 0x2737BA10383937B837B9B2B21030B236B4B7 PUSH1 0x71 SHL PUSH1 0x44 DUP3 ADD MSTORE REVERT JUMPDEST POP DUP3 CALLVALUE PUSH2 0x234 JUMPI DUP2 PUSH1 0x3 NOT CALLDATASIZE ADD SLT PUSH2 0x234 JUMPI PUSH1 0x60 SWAP1 PUSH1 0x1 DUP1 PUSH1 0xA0 SHL SUB DUP1 PUSH1 0x9 SLOAD AND SWAP2 PUSH1 0xA SLOAD SWAP2 PUSH1 0xB SLOAD AND SWAP2 DUP2 MLOAD SWAP4 DUP5 MSTORE PUSH1 0x20 DUP5 ADD MSTORE DUP3 ADD MSTORE RETURN JUMPDEST POP DUP3 CALLVALUE PUSH2 0x234 JUMPI CALLDATASIZE PUSH1 0x3 NOT ADD SLT PUSH2 0xB81 JUMPI PUSH2 0xB7E PUSH2 0xB6A PUSH2 0x11E4 JUMP JUMPDEST PUSH1 0x24 CALLDATALOAD SWAP1 PUSH2 0xB79 DUP3 CALLER DUP4 PUSH2 0x13BC JUMP JUMPDEST PUSH2 0x15BB JUMP JUMPDEST DUP1 RETURN JUMPDEST DUP1 REVERT JUMPDEST POP DUP3 CALLVALUE PUSH2 0x234 JUMPI DUP2 PUSH1 0x3 NOT CALLDATASIZE ADD SLT PUSH2 0x234 JUMPI PUSH1 0x20 SWAP1 MLOAD PUSH1 0x0 DUP1 MLOAD PUSH1 0x20 PUSH2 0x1888 DUP4 CODECOPY DUP2 MLOAD SWAP2 MSTORE DUP2 MSTORE RETURN JUMPDEST POP DUP3 CALLVALUE PUSH2 0x234 JUMPI PUSH1 0x20 CALLDATASIZE PUSH1 0x3 NOT ADD SLT PUSH2 0x234 JUMPI PUSH1 0x20 SWAP2 DUP2 SWAP1 PUSH1 0x1 PUSH1 0x1 PUSH1 0xA0 SHL SUB PUSH2 0xBD5 PUSH2 0x11E4 JUMP JUMPDEST AND DUP2 MSTORE DUP1 DUP5 MSTORE KECCAK256 SLOAD SWAP1 MLOAD SWAP1 DUP2 MSTORE RETURN JUMPDEST POP DUP3 CALLVALUE PUSH2 0x234 JUMPI DUP2 PUSH1 0x3 NOT CALLDATASIZE ADD SLT PUSH2 0x234 JUMPI PUSH1 0x20 SWAP1 MLOAD PUSH32 0x0 DUP2 MSTORE RETURN JUMPDEST POP DUP3 CALLVALUE PUSH2 0x234 JUMPI DUP2 PUSH1 0x3 NOT CALLDATASIZE ADD SLT PUSH2 0x234 JUMPI DUP1 MLOAD SWAP2 DUP2 DUP4 ADD SWAP1 DUP4 DUP3 LT PUSH8 0xFFFFFFFFFFFFFFFF DUP4 GT OR PUSH2 0xC6F JUMPI POP PUSH2 0x7D3 SWAP4 POP DUP2 MSTORE PUSH1 0x5 DUP3 MSTORE PUSH5 0x312E302E35 PUSH1 0xD8 SHL PUSH1 0x20 DUP4 ADD MSTORE MLOAD SWAP2 DUP3 SWAP2 DUP3 PUSH2 0x1215 JUMP JUMPDEST PUSH4 0x4E487B71 PUSH1 0xE0 SHL DUP2 MSTORE PUSH1 0x41 DUP6 MSTORE PUSH1 0x24 SWAP1 REVERT JUMPDEST POP DUP3 CALLVALUE PUSH2 0x234 JUMPI DUP2 PUSH1 0x3 NOT CALLDATASIZE ADD SLT PUSH2 0x234 JUMPI MLOAD PUSH32 0x0 PUSH1 0x1 PUSH1 0x1 PUSH1 0xA0 SHL SUB AND DUP2 MSTORE PUSH1 0x20 SWAP1 RETURN JUMPDEST POP SWAP1 CALLVALUE PUSH2 0x234 JUMPI PUSH1 0x20 CALLDATASIZE PUSH1 0x3 NOT ADD SLT PUSH2 0x234 JUMPI PUSH2 0xCF7 SWAP1 CALLDATALOAD PUSH2 0xCE6 PUSH2 0x1399 JUMP JUMPDEST PUSH2 0xCF1 DUP2 ISZERO ISZERO PUSH2 0x1296 JUMP JUMPDEST CALLER PUSH2 0x15BB JUMP JUMPDEST PUSH1 0x1 PUSH1 0x6 SSTORE DUP1 RETURN JUMPDEST POP DUP3 CALLVALUE PUSH2 0x234 JUMPI DUP1 PUSH1 0x3 NOT CALLDATASIZE ADD SLT PUSH2 0x234 JUMPI PUSH2 0xD19 PUSH2 0x11FF JUMP JUMPDEST SWAP1 CALLER PUSH1 0x1 PUSH1 0x1 PUSH1 0xA0 SHL SUB DUP4 AND SUB PUSH2 0xD36 JUMPI POP PUSH2 0x414 SWAP2 SWAP3 CALLDATALOAD PUSH2 0x1810 JUMP JUMPDEST MLOAD PUSH4 0x334BD919 PUSH1 0xE1 SHL DUP2 MSTORE DUP4 SWAP1 REVERT JUMPDEST POP DUP3 CALLVALUE PUSH2 0x234 JUMPI DUP2 PUSH1 0x3 NOT CALLDATASIZE ADD SLT PUSH2 0x234 JUMPI PUSH1 0x20 SWAP1 MLOAD PUSH1 0x12 DUP2 MSTORE RETURN JUMPDEST POP SWAP2 CALLVALUE PUSH2 0x351 JUMPI DUP1 PUSH1 0x3 NOT CALLDATASIZE ADD SLT PUSH2 0x351 JUMPI PUSH2 0x414 SWAP2 CALLDATALOAD PUSH2 0xD85 PUSH1 0x1 PUSH2 0x3FD PUSH2 0x11FF JUMP JUMPDEST PUSH2 0x16FB JUMP JUMPDEST POP DUP3 CALLVALUE PUSH2 0x234 JUMPI DUP2 PUSH1 0x3 NOT CALLDATASIZE ADD SLT PUSH2 0x234 JUMPI PUSH1 0x9 SLOAD SWAP1 MLOAD PUSH1 0x1 PUSH1 0x1 PUSH1 0xA0 SHL SUB SWAP1 SWAP2 AND DUP2 MSTORE PUSH1 0x20 SWAP1 RETURN JUMPDEST POP SWAP2 SWAP1 CALLVALUE PUSH2 0x351 JUMPI PUSH1 0x20 CALLDATASIZE PUSH1 0x3 NOT ADD SLT PUSH2 0x351 JUMPI DUP2 PUSH1 0x20 SWAP4 PUSH1 0x1 SWAP3 CALLDATALOAD DUP2 MSTORE PUSH1 0x5 DUP6 MSTORE KECCAK256 ADD SLOAD SWAP1 MLOAD SWAP1 DUP2 MSTORE RETURN JUMPDEST POP DUP3 CALLVALUE PUSH2 0x234 JUMPI PUSH1 0x60 CALLDATASIZE PUSH1 0x3 NOT ADD SLT PUSH2 0x234 JUMPI PUSH2 0xDFA PUSH2 0x11E4 JUMP JUMPDEST PUSH2 0xE02 PUSH2 0x11FF JUMP JUMPDEST SWAP3 PUSH1 0x44 CALLDATALOAD SWAP4 PUSH2 0xE12 DUP6 ISZERO ISZERO PUSH2 0x1296 JUMP JUMPDEST PUSH2 0xE1D DUP6 CALLER DUP6 PUSH2 0x13BC JUMP JUMPDEST PUSH2 0xE28 DUP6 DUP3 DUP6 PUSH2 0x148F JUMP JUMPDEST PUSH1 0x1 DUP1 PUSH1 0xA0 SHL SUB SWAP5 DUP6 DUP5 AND SWAP3 DUP4 DUP2 MSTORE DUP6 PUSH1 0x20 SWAP8 DUP9 SWAP5 PUSH1 0x8 DUP7 MSTORE NUMBER DUP4 DUP6 KECCAK256 SSTORE AND SWAP6 DUP7 DUP4 MSTORE NUMBER DUP3 DUP5 KECCAK256 SSTORE PUSH1 0x7 DUP6 MSTORE PUSH1 0xFF DUP3 DUP5 KECCAK256 SLOAD AND SWAP1 DUP2 PUSH2 0xEEE JUMPI JUMPDEST POP PUSH2 0xE71 JUMPI JUMPDEST DUP4 SWAP1 MLOAD PUSH1 0x1 DUP2 MSTORE RETURN JUMPDEST ADDRESS DUP3 MSTORE DUP2 DUP5 MSTORE SWAP1 KECCAK256 SLOAD DUP2 GT PUSH2 0xEC0 JUMPI PUSH32 0x17FB25C14E38163CF7B813826E0A5A17ABAE9753AE23EDFFB426593DEFEA04CB SWAP3 SWAP4 POP PUSH2 0xEAE DUP2 ADDRESS PUSH2 0x15BB JUMP JUMPDEST DUP5 MLOAD SWAP1 DUP2 MSTORE LOG2 JUMPDEST DUP3 DUP1 DUP4 DUP2 DUP1 DUP6 PUSH2 0xE68 JUMP JUMPDEST PUSH32 0x7BCEAFDDCBBD682AC897E4E307D8324DC2B43FE1F44AD0B41D24FC1C8477CC73 SWAP3 POP DUP5 MLOAD SWAP1 DUP2 MSTORE LOG2 PUSH2 0xEB5 JUMP JUMPDEST PUSH2 0xEF8 SWAP2 POP PUSH2 0x156D JUMP JUMPDEST ISZERO DUP10 PUSH2 0xE62 JUMP JUMPDEST POP DUP3 CALLVALUE PUSH2 0x234 JUMPI DUP2 PUSH1 0x3 NOT CALLDATASIZE ADD SLT PUSH2 0x234 JUMPI PUSH1 0x20 SWAP1 PUSH1 0x2 SLOAD SWAP1 MLOAD SWAP1 DUP2 MSTORE RETURN JUMPDEST POP SWAP2 SWAP1 CALLVALUE PUSH2 0x351 JUMPI DUP2 PUSH1 0x3 NOT CALLDATASIZE ADD SLT PUSH2 0x351 JUMPI PUSH2 0xF39 PUSH2 0x11E4 JUMP JUMPDEST PUSH1 0x24 CALLDATALOAD SWAP1 CALLER ISZERO PUSH2 0xFB2 JUMPI PUSH1 0x1 PUSH1 0x1 PUSH1 0xA0 SHL SUB AND SWAP2 DUP3 ISZERO PUSH2 0xF9B JUMPI POP DUP1 DUP4 PUSH1 0x20 SWAP6 CALLER DUP2 MSTORE PUSH1 0x1 DUP8 MSTORE DUP2 DUP2 KECCAK256 DUP6 DUP3 MSTORE DUP8 MSTORE KECCAK256 SSTORE DUP3 MLOAD SWAP1 DUP2 MSTORE PUSH32 0x8C5BE1E5EBEC7D5BD14F71427D1E84F3DD0314C0F7B2291E5B200AC8C7C3B925 DUP5 CALLER SWAP3 LOG3 MLOAD PUSH1 0x1 DUP2 MSTORE RETURN JUMPDEST DUP4 MLOAD PUSH4 0x4A1406B1 PUSH1 0xE1 SHL DUP2 MSTORE SWAP1 DUP2 ADD DUP6 SWAP1 MSTORE PUSH1 0x24 SWAP1 REVERT JUMPDEST DUP4 MLOAD PUSH4 0xE602DF05 PUSH1 0xE0 SHL DUP2 MSTORE DUP1 DUP5 ADD DUP7 SWAP1 MSTORE PUSH1 0x24 SWAP1 REVERT JUMPDEST POP SWAP2 CALLVALUE PUSH2 0x351 JUMPI DUP3 PUSH1 0x3 NOT CALLDATASIZE ADD SLT PUSH2 0x351 JUMPI DUP1 MLOAD SWAP2 DUP4 PUSH1 0x3 SLOAD SWAP1 PUSH1 0x1 SWAP1 DUP3 PUSH1 0x1 SHR SWAP3 PUSH1 0x1 DUP2 AND DUP1 ISZERO PUSH2 0x10B5 JUMPI JUMPDEST PUSH1 0x20 SWAP6 DUP7 DUP7 LT DUP3 EQ PUSH2 0x10A2 JUMPI POP DUP5 DUP9 MSTORE SWAP1 DUP2 ISZERO PUSH2 0x1080 JUMPI POP PUSH1 0x1 EQ PUSH2 0x1027 JUMPI JUMPDEST PUSH2 0x7D3 DUP7 DUP7 PUSH2 0x7C9 DUP3 DUP12 SUB DUP4 PUSH2 0x125E JUMP JUMPDEST SWAP3 SWAP6 POP PUSH1 0x3 DUP4 MSTORE PUSH32 0xC2575A0E9E593C00F959F8C92F12DB2869C3395A3B0502D05E2516446F71F85B JUMPDEST DUP3 DUP5 LT PUSH2 0x106D JUMPI POP POP POP DUP3 PUSH2 0x7D3 SWAP5 PUSH2 0x7C9 SWAP3 DUP3 ADD ADD SWAP5 CODESIZE PUSH2 0x1016 JUMP JUMPDEST DUP1 SLOAD DUP7 DUP6 ADD DUP9 ADD MSTORE SWAP3 DUP7 ADD SWAP3 DUP2 ADD PUSH2 0x1050 JUMP JUMPDEST PUSH1 0xFF NOT AND DUP8 DUP7 ADD MSTORE POP POP POP ISZERO ISZERO PUSH1 0x5 SHL DUP4 ADD ADD SWAP3 POP PUSH2 0x7C9 DUP3 PUSH2 0x7D3 CODESIZE PUSH2 0x1016 JUMP JUMPDEST PUSH4 0x4E487B71 PUSH1 0xE0 SHL DUP5 MSTORE PUSH1 0x22 SWAP1 MSTORE PUSH1 0x24 DUP4 REVERT JUMPDEST SWAP4 PUSH1 0x7F AND SWAP4 PUSH2 0xFF6 JUMP JUMPDEST POP SWAP2 CALLVALUE PUSH2 0x351 JUMPI PUSH1 0x20 CALLDATASIZE PUSH1 0x3 NOT ADD SLT PUSH2 0x351 JUMPI PUSH2 0x10DA PUSH2 0x11E4 JUMP JUMPDEST PUSH2 0x10E2 PUSH2 0x130B JUMP JUMPDEST PUSH2 0x10EA PUSH2 0x1399 JUMP JUMPDEST PUSH1 0x1 PUSH1 0x1 PUSH1 0xA0 SHL SUB AND DUP1 DUP5 MSTORE PUSH1 0x7 PUSH1 0x20 MSTORE DUP2 DUP5 KECCAK256 SLOAD SWAP1 SWAP3 SWAP1 PUSH1 0xFF AND ISZERO PUSH2 0x114E JUMPI POP PUSH1 0x20 PUSH32 0xF86ECC019B976C424459AFEF9981E77EA5E944B19E6262DBB6DA47E652F15516 SWAP2 DUP4 DUP6 MSTORE PUSH1 0x7 DUP3 MSTORE DUP1 DUP6 KECCAK256 PUSH1 0xFF NOT DUP2 SLOAD AND SWAP1 SSTORE MLOAD TIMESTAMP DUP2 MSTORE LOG2 PUSH1 0x1 PUSH1 0x6 SSTORE DUP1 RETURN JUMPDEST PUSH1 0x20 PUSH1 0x64 SWAP3 MLOAD SWAP2 PUSH3 0x461BCD PUSH1 0xE5 SHL DUP4 MSTORE DUP3 ADD MSTORE PUSH1 0x17 PUSH1 0x24 DUP3 ADD MSTORE PUSH32 0x444558207061697220646F6573206E6F74206578697374000000000000000000 PUSH1 0x44 DUP3 ADD MSTORE REVERT JUMPDEST SWAP1 POP DUP3 CALLVALUE PUSH2 0x351 JUMPI PUSH1 0x20 CALLDATASIZE PUSH1 0x3 NOT ADD SLT PUSH2 0x351 JUMPI CALLDATALOAD PUSH4 0xFFFFFFFF PUSH1 0xE0 SHL DUP2 AND DUP1 SWAP2 SUB PUSH2 0x351 JUMPI PUSH1 0x20 SWAP3 POP PUSH4 0x7965DB0B PUSH1 0xE0 SHL DUP2 EQ SWAP1 DUP2 ISZERO PUSH2 0x11D3 JUMPI JUMPDEST POP ISZERO ISZERO DUP2 MSTORE RETURN JUMPDEST PUSH4 0x1FFC9A7 PUSH1 0xE0 SHL EQ SWAP1 POP DUP4 PUSH2 0x11CC JUMP JUMPDEST PUSH1 0x4 CALLDATALOAD SWAP1 PUSH1 0x1 PUSH1 0x1 PUSH1 0xA0 SHL SUB DUP3 AND DUP3 SUB PUSH2 0x11FA JUMPI JUMP JUMPDEST PUSH1 0x0 DUP1 REVERT JUMPDEST PUSH1 0x24 CALLDATALOAD SWAP1 PUSH1 0x1 PUSH1 0x1 PUSH1 0xA0 SHL SUB DUP3 AND DUP3 SUB PUSH2 0x11FA JUMPI JUMP JUMPDEST PUSH1 0x20 DUP1 DUP3 MSTORE DUP3 MLOAD DUP2 DUP4 ADD DUP2 SWAP1 MSTORE SWAP1 SWAP4 SWAP3 PUSH1 0x0 JUMPDEST DUP3 DUP2 LT PUSH2 0x124A JUMPI POP POP PUSH1 0x40 SWAP3 SWAP4 POP PUSH1 0x0 DUP4 DUP3 DUP5 ADD ADD MSTORE PUSH1 0x1F DUP1 NOT SWAP2 ADD AND ADD ADD SWAP1 JUMP JUMPDEST DUP2 DUP2 ADD DUP7 ADD MLOAD DUP5 DUP3 ADD PUSH1 0x40 ADD MSTORE DUP6 ADD PUSH2 0x1228 JUMP JUMPDEST SWAP1 PUSH1 0x1F DUP1 NOT SWAP2 ADD AND DUP2 ADD SWAP1 DUP2 LT PUSH8 0xFFFFFFFFFFFFFFFF DUP3 GT OR PUSH2 0x1280 JUMPI PUSH1 0x40 MSTORE JUMP JUMPDEST PUSH4 0x4E487B71 PUSH1 0xE0 SHL PUSH1 0x0 MSTORE PUSH1 0x41 PUSH1 0x4 MSTORE PUSH1 0x24 PUSH1 0x0 REVERT JUMPDEST ISZERO PUSH2 0x129D JUMPI JUMP JUMPDEST PUSH1 0x40 MLOAD PUSH3 0x461BCD PUSH1 0xE5 SHL DUP2 MSTORE PUSH1 0x20 PUSH1 0x4 DUP3 ADD MSTORE PUSH1 0xB PUSH1 0x24 DUP3 ADD MSTORE PUSH11 0x16995C9BC8185B5BDD5B9D PUSH1 0xAA SHL PUSH1 0x44 DUP3 ADD MSTORE PUSH1 0x64 SWAP1 REVERT JUMPDEST ISZERO PUSH2 0x12D7 JUMPI JUMP JUMPDEST PUSH1 0x40 MLOAD PUSH3 0x461BCD PUSH1 0xE5 SHL DUP2 MSTORE PUSH1 0x20 PUSH1 0x4 DUP3 ADD MSTORE PUSH1 0xC PUSH1 0x24 DUP3 ADD MSTORE PUSH12 0x5A65726F2061646472657373 PUSH1 0xA0 SHL PUSH1 0x44 DUP3 ADD MSTORE PUSH1 0x64 SWAP1 REVERT JUMPDEST CALLER PUSH1 0x0 SWAP1 DUP2 MSTORE PUSH32 0xD8EF4509105C3EDB0B04658B4528EDC5DDD30EA5A81E623A2623C88DB1EB54B6 PUSH1 0x20 MSTORE PUSH1 0x40 SWAP1 KECCAK256 SLOAD PUSH1 0x0 DUP1 MLOAD PUSH1 0x20 PUSH2 0x1888 DUP4 CODECOPY DUP2 MLOAD SWAP2 MSTORE SWAP1 PUSH1 0xFF AND ISZERO PUSH2 0x1355 JUMPI POP JUMP JUMPDEST PUSH1 0x44 SWAP1 PUSH1 0x40 MLOAD SWAP1 PUSH4 0xE2517D3F PUSH1 0xE0 SHL DUP3 MSTORE CALLER PUSH1 0x4 DUP4 ADD MSTORE PUSH1 0x24 DUP3 ADD MSTORE REVERT JUMPDEST DUP1 PUSH1 0x0 MSTORE PUSH1 0x5 PUSH1 0x20 MSTORE PUSH1 0x40 PUSH1 0x0 KECCAK256 CALLER PUSH1 0x0 MSTORE PUSH1 0x20 MSTORE PUSH1 0xFF PUSH1 0x40 PUSH1 0x0 KECCAK256 SLOAD AND ISZERO PUSH2 0x1355 JUMPI POP JUMP JUMPDEST PUSH1 0x2 PUSH1 0x6 SLOAD EQ PUSH2 0x13AA JUMPI PUSH1 0x2 PUSH1 0x6 SSTORE JUMP JUMPDEST PUSH1 0x40 MLOAD PUSH4 0x3EE5AEB5 PUSH1 0xE0 SHL DUP2 MSTORE PUSH1 0x4 SWAP1 REVERT JUMPDEST SWAP2 PUSH1 0x1 DUP1 PUSH1 0xA0 SHL SUB DUP1 SWAP4 AND SWAP2 PUSH1 0x0 SWAP4 DUP4 DUP6 MSTORE PUSH1 0x1 PUSH1 0x20 MSTORE PUSH1 0x40 SWAP4 DUP5 DUP7 KECCAK256 SWAP2 DUP4 AND SWAP2 DUP3 DUP8 MSTORE PUSH1 0x20 MSTORE DUP5 DUP7 KECCAK256 SLOAD SWAP3 PUSH1 0x0 NOT DUP5 LT PUSH2 0x13FB JUMPI JUMPDEST POP POP POP POP POP POP POP JUMP JUMPDEST DUP5 DUP5 LT PUSH2 0x145F JUMPI POP DUP1 ISZERO PUSH2 0x1447 JUMPI DUP2 ISZERO PUSH2 0x142F JUMPI DUP6 MSTORE PUSH1 0x1 PUSH1 0x20 MSTORE DUP4 DUP6 KECCAK256 SWAP1 DUP6 MSTORE PUSH1 0x20 MSTORE SUB SWAP2 KECCAK256 SSTORE CODESIZE DUP1 DUP1 DUP1 DUP1 DUP1 DUP1 PUSH2 0x13F2 JUMP JUMPDEST DUP5 MLOAD PUSH4 0x4A1406B1 PUSH1 0xE1 SHL DUP2 MSTORE PUSH1 0x4 DUP2 ADD DUP8 SWAP1 MSTORE PUSH1 0x24 SWAP1 REVERT JUMPDEST DUP5 MLOAD PUSH4 0xE602DF05 PUSH1 0xE0 SHL DUP2 MSTORE PUSH1 0x4 DUP2 ADD DUP8 SWAP1 MSTORE PUSH1 0x24 SWAP1 REVERT JUMPDEST DUP6 MLOAD PUSH4 0x7DC7A0D9 PUSH1 0xE1 SHL DUP2 MSTORE PUSH1 0x1 PUSH1 0x1 PUSH1 0xA0 SHL SUB SWAP2 SWAP1 SWAP2 AND PUSH1 0x4 DUP3 ADD MSTORE PUSH1 0x24 DUP2 ADD DUP5 SWAP1 MSTORE PUSH1 0x44 DUP2 ADD DUP6 SWAP1 MSTORE PUSH1 0x64 SWAP1 REVERT JUMPDEST SWAP2 PUSH1 0x1 PUSH1 0x1 PUSH1 0xA0 SHL SUB DUP1 DUP5 AND SWAP3 DUP4 ISZERO PUSH2 0x1554 JUMPI AND SWAP3 DUP4 ISZERO PUSH2 0x153B JUMPI PUSH1 0x0 SWAP1 DUP4 DUP3 MSTORE DUP2 PUSH1 0x20 MSTORE PUSH1 0x40 DUP3 KECCAK256 SLOAD SWAP1 DUP4 DUP3 LT PUSH2 0x1509 JUMPI POP SWAP2 PUSH1 0x40 DUP3 DUP3 PUSH32 0xDDF252AD1BE2C89B69C2B068FC378DAA952BA7F163C4A11628F55A4DF523B3EF SWAP6 DUP8 PUSH1 0x20 SWAP7 MSTORE DUP3 DUP7 MSTORE SUB DUP3 DUP3 KECCAK256 SSTORE DUP7 DUP2 MSTORE KECCAK256 DUP2 DUP2 SLOAD ADD SWAP1 SSTORE PUSH1 0x40 MLOAD SWAP1 DUP2 MSTORE LOG3 JUMP JUMPDEST PUSH1 0x40 MLOAD PUSH4 0x391434E3 PUSH1 0xE2 SHL DUP2 MSTORE PUSH1 0x1 PUSH1 0x1 PUSH1 0xA0 SHL SUB SWAP2 SWAP1 SWAP2 AND PUSH1 0x4 DUP3 ADD MSTORE PUSH1 0x24 DUP2 ADD SWAP2 SWAP1 SWAP2 MSTORE PUSH1 0x44 DUP2 ADD DUP4 SWAP1 MSTORE PUSH1 0x64 SWAP1 REVERT JUMPDEST PUSH1 0x40 MLOAD PUSH4 0xEC442F05 PUSH1 0xE0 SHL DUP2 MSTORE PUSH1 0x0 PUSH1 0x4 DUP3 ADD MSTORE PUSH1 0x24 SWAP1 REVERT JUMPDEST PUSH1 0x40 MLOAD PUSH4 0x4B637E8F PUSH1 0xE1 SHL DUP2 MSTORE PUSH1 0x0 PUSH1 0x4 DUP3 ADD MSTORE PUSH1 0x24 SWAP1 REVERT JUMPDEST PUSH1 0x1 PUSH1 0x1 PUSH1 0xA0 SHL SUB AND PUSH1 0x0 SWAP1 DUP2 MSTORE PUSH1 0x8 PUSH1 0x20 MSTORE PUSH1 0x40 SWAP1 KECCAK256 SLOAD DUP1 ISZERO ISZERO SWAP1 DUP2 PUSH2 0x1592 JUMPI POP SWAP1 JUMP JUMPDEST SWAP1 POP PUSH1 0x2 DUP2 ADD DUP1 SWAP2 GT PUSH2 0x15A5 JUMPI NUMBER GT ISZERO SWAP1 JUMP JUMPDEST PUSH4 0x4E487B71 PUSH1 0xE0 SHL PUSH1 0x0 MSTORE PUSH1 0x11 PUSH1 0x4 MSTORE PUSH1 0x24 PUSH1 0x0 REVERT JUMPDEST SWAP1 PUSH1 0x1 PUSH1 0x1 PUSH1 0xA0 SHL SUB DUP3 AND SWAP1 DUP2 ISZERO PUSH2 0x1554 JUMPI PUSH1 0x0 SWAP3 DUP3 DUP5 MSTORE DUP4 PUSH1 0x20 MSTORE PUSH1 0x40 DUP5 KECCAK256 SLOAD SWAP1 DUP3 DUP3 LT PUSH2 0x1628 JUMPI POP DUP2 PUSH32 0xDDF252AD1BE2C89B69C2B068FC378DAA952BA7F163C4A11628F55A4DF523B3EF SWAP3 PUSH1 0x20 SWAP3 DUP6 DUP8 MSTORE DUP7 DUP5 MSTORE SUB PUSH1 0x40 DUP7 KECCAK256 SSTORE DUP1 PUSH1 0x2 SLOAD SUB PUSH1 0x2 SSTORE PUSH1 0x40 MLOAD SWAP1 DUP2 MSTORE LOG3 JUMP JUMPDEST PUSH1 0x40 MLOAD PUSH4 0x391434E3 PUSH1 0xE2 SHL DUP2 MSTORE PUSH1 0x1 PUSH1 0x1 PUSH1 0xA0 SHL SUB SWAP2 SWAP1 SWAP2 AND PUSH1 0x4 DUP3 ADD MSTORE PUSH1 0x24 DUP2 ADD SWAP2 SWAP1 SWAP2 MSTORE PUSH1 0x44 DUP2 ADD DUP3 SWAP1 MSTORE PUSH1 0x64 SWAP1 REVERT JUMPDEST PUSH1 0x1 PUSH1 0x1 PUSH1 0xA0 SHL SUB AND PUSH1 0x0 DUP2 DUP2 MSTORE PUSH32 0xD8EF4509105C3EDB0B04658B4528EDC5DDD30EA5A81E623A2623C88DB1EB54B6 PUSH1 0x20 MSTORE PUSH1 0x40 DUP2 KECCAK256 SLOAD SWAP1 SWAP2 SWAP1 PUSH1 0x0 DUP1 MLOAD PUSH1 0x20 PUSH2 0x1888 DUP4 CODECOPY DUP2 MLOAD SWAP2 MSTORE SWAP1 PUSH1 0xFF AND PUSH2 0x16F6 JUMPI DUP1 DUP4 MSTORE PUSH1 0x5 PUSH1 0x20 MSTORE PUSH1 0x40 DUP4 KECCAK256 DUP3 DUP5 MSTORE PUSH1 0x20 MSTORE PUSH1 0x40 DUP4 KECCAK256 PUSH1 0x1 PUSH1 0xFF NOT DUP3 SLOAD AND OR SWAP1 SSTORE PUSH32 0x2F8788117E7EFF1D82E926EC794901D17C78024A50270940304540A733656F0D CALLER SWAP4 DUP1 LOG4 PUSH1 0x1 SWAP1 JUMP JUMPDEST POP POP SWAP1 JUMP JUMPDEST SWAP1 PUSH1 0x0 SWAP2 DUP1 DUP4 MSTORE PUSH1 0x5 PUSH1 0x20 MSTORE PUSH1 0x40 DUP4 KECCAK256 SWAP2 PUSH1 0x1 DUP1 PUSH1 0xA0 SHL SUB AND SWAP2 DUP3 DUP5 MSTORE PUSH1 0x20 MSTORE PUSH1 0xFF PUSH1 0x40 DUP5 KECCAK256 SLOAD AND ISZERO PUSH1 0x0 EQ PUSH2 0x16F6 JUMPI DUP1 DUP4 MSTORE PUSH1 0x5 PUSH1 0x20 MSTORE PUSH1 0x40 DUP4 KECCAK256 DUP3 DUP5 MSTORE PUSH1 0x20 MSTORE PUSH1 0x40 DUP4 KECCAK256 PUSH1 0x1 PUSH1 0xFF NOT DUP3 SLOAD AND OR SWAP1 SSTORE PUSH32 0x2F8788117E7EFF1D82E926EC794901D17C78024A50270940304540A733656F0D CALLER SWAP4 DUP1 LOG4 PUSH1 0x1 SWAP1 JUMP JUMPDEST PUSH1 0x1 PUSH1 0x1 PUSH1 0xA0 SHL SUB AND PUSH1 0x0 DUP2 DUP2 MSTORE PUSH32 0xD8EF4509105C3EDB0B04658B4528EDC5DDD30EA5A81E623A2623C88DB1EB54B6 PUSH1 0x20 MSTORE PUSH1 0x40 DUP2 KECCAK256 SLOAD SWAP1 SWAP2 SWAP1 PUSH1 0x0 DUP1 MLOAD PUSH1 0x20 PUSH2 0x1888 DUP4 CODECOPY DUP2 MLOAD SWAP2 MSTORE SWAP1 PUSH1 0xFF AND ISZERO PUSH2 0x16F6 JUMPI DUP1 DUP4 MSTORE PUSH1 0x5 PUSH1 0x20 MSTORE PUSH1 0x40 DUP4 KECCAK256 DUP3 DUP5 MSTORE PUSH1 0x20 MSTORE PUSH1 0x40 DUP4 KECCAK256 PUSH1 0xFF NOT DUP2 SLOAD AND SWAP1 SSTORE PUSH32 0xF6391F5C32D9C69D2A47EA670B442974B53935D1EDC7FD64EB21E047A839171B CALLER SWAP4 DUP1 LOG4 PUSH1 0x1 SWAP1 JUMP JUMPDEST SWAP1 PUSH1 0x0 SWAP2 DUP1 DUP4 MSTORE PUSH1 0x5 PUSH1 0x20 MSTORE PUSH1 0x40 DUP4 KECCAK256 SWAP2 PUSH1 0x1 DUP1 PUSH1 0xA0 SHL SUB AND SWAP2 DUP3 DUP5 MSTORE PUSH1 0x20 MSTORE PUSH1 0xFF PUSH1 0x40 DUP5 KECCAK256 SLOAD AND PUSH1 0x0 EQ PUSH2 0x16F6 JUMPI DUP1 DUP4 MSTORE PUSH1 0x5 PUSH1 0x20 MSTORE PUSH1 0x40 DUP4 KECCAK256 DUP3 DUP5 MSTORE PUSH1 0x20 MSTORE PUSH1 0x40 DUP4 KECCAK256 PUSH1 0xFF NOT DUP2 SLOAD AND SWAP1 SSTORE PUSH32 0xF6391F5C32D9C69D2A47EA670B442974B53935D1EDC7FD64EB21E047A839171B CALLER SWAP4 DUP1 LOG4 PUSH1 0x1 SWAP1 JUMP INVALID LOG4 SWAP9 SMOD KECCAK256 0x5C 0xE4 0xD3 SSTORE MULMOD 0x2E CREATE2 0xA8 LOG1 DUP16 JUMP 0xE8 SWAP2 EXTCODECOPY DELEGATECALL LOG2 ADD 0xFB 0xE2 DUP8 DUP3 JUMPDEST MULMOD JUMP SWAP4 0xC2 OR PUSH22 0xA2646970667358221220806FD2595B7442F303BD2EAD PUSH21 0x7A695CC78420899822948E3064B9498FE3243F6473 PUSH16 0x6C634300081600330000000000000000 "},"methodIdentifiers":{"ADMIN_ROLE()":"75b238fc","BURN_ALLOCATION()":"598cf195","DEFAULT_ADMIN_ROLE()":"a217fddf","DEFAULT_PROPOSAL_DEADLINE()":"a7a9b249","ECOSYSTEM_ALLOCATION()":"90534f24","LOAN_ALLOCATION()":"e676f44d","MIN_PROPOSAL_DEADLINE()":"95d5e493","PRESALE_ALLOCATION()":"c7b5a48c","STAKING_ALLOCATION()":"b99dcae5","TOTAL_SUPPLY()":"902d55a5","acceptAdminRole()":"8c3d7301","addDexPair(address)":"e6ddf403","allowance(address,address)":"dd62ed3e","approve(address,uint256)":"095ea7b3","balanceOf(address)":"70a08231","burn(uint256)":"42966c68","burnFrom(address,uint256)":"79cc6790","cancelProposal()":"9070577f","currentAdmin()":"ba4bcd72","decimals()":"313ce567","dexPairs(address)":"c002f939","ecosystemWallet()":"435263ef","getContractState()":"7f4e4849","getRoleAdmin(bytes32)":"248a9ca3","grantRole(bytes32,address)":"2f2ff15d","hasRole(bytes32,address)":"91d14854","isDexPair(address)":"40009927","name()":"06fdde03","pendingAdmin()":"26782247","pendingAdminDeadline()":"fcdbb19e","proposeAdmin(address,uint256)":"a16511e6","removeDexPair(address)":"029eae0e","renounceRole(bytes32,address)":"36568abe","revokeRole(bytes32,address)":"d547741f","supportsInterface(bytes4)":"01ffc9a7","symbol()":"95d89b41","totalSupply()":"18160ddd","transfer(address,uint256)":"a9059cbb","transferFrom(address,address,uint256)":"23b872dd","version()":"54fd4d50"}},"storageLayout":{"storage":[{"astId":1944,"contract":"contracts/WEEDL.sol:WEEDL","label":"_balances","offset":0,"slot":"0","type":"t_mapping(t_address,t_uint256)"},{"astId":1950,"contract":"contracts/WEEDL.sol:WEEDL","label":"_allowances","offset":0,"slot":"1","type":"t_mapping(t_address,t_mapping(t_address,t_uint256))"},{"astId":1952,"contract":"contracts/WEEDL.sol:WEEDL","label":"_totalSupply","offset":0,"slot":"2","type":"t_uint256"},{"astId":1954,"contract":"contracts/WEEDL.sol:WEEDL","label":"_name","offset":0,"slot":"3","type":"t_string_storage"},{"astId":1956,"contract":"contracts/WEEDL.sol:WEEDL","label":"_symbol","offset":0,"slot":"4","type":"t_string_storage"},{"astId":1007,"contract":"contracts/WEEDL.sol:WEEDL","label":"_roles","offset":0,"slot":"5","type":"t_mapping(t_bytes32,t_struct(RoleData)1002_storage)"},{"astId":3373,"contract":"contracts/WEEDL.sol:WEEDL","label":"_status","offset":0,"slot":"6","type":"t_uint256"},{"astId":8387,"contract":"contracts/WEEDL.sol:WEEDL","label":"dexPairs","offset":0,"slot":"7","type":"t_mapping(t_address,t_bool)"},{"astId":8391,"contract":"contracts/WEEDL.sol:WEEDL","label":"lastTransferBlock","offset":0,"slot":"8","type":"t_mapping(t_address,t_uint256)"},{"astId":8393,"contract":"contracts/WEEDL.sol:WEEDL","label":"pendingAdmin","offset":0,"slot":"9","type":"t_address"},{"astId":8395,"contract":"contracts/WEEDL.sol:WEEDL","label":"pendingAdminDeadline","offset":0,"slot":"10","type":"t_uint256"},{"astId":8397,"contract":"contracts/WEEDL.sol:WEEDL","label":"currentAdmin","offset":0,"slot":"11","type":"t_address"}],"types":{"t_address":{"encoding":"inplace","label":"address","numberOfBytes":"20"},"t_bool":{"encoding":"inplace","label":"bool","numberOfBytes":"1"},"t_bytes32":{"encoding":"inplace","label":"bytes32","numberOfBytes":"32"},"t_mapping(t_address,t_bool)":{"encoding":"mapping","key":"t_address","label":"mapping(address => bool)","numberOfBytes":"32","value":"t_bool"},"t_mapping(t_address,t_mapping(t_address,t_uint256))":{"encoding":"mapping","key":"t_address","label":"mapping(address => mapping(address => uint256))","numberOfBytes":"32","value":"t_mapping(t_address,t_uint256)"},"t_mapping(t_address,t_uint256)":{"encoding":"mapping","key":"t_address","label":"mapping(address => uint256)","numberOfBytes":"32","value":"t_uint256"},"t_mapping(t_bytes32,t_struct(RoleData)1002_storage)":{"encoding":"mapping","key":"t_bytes32","label":"mapping(bytes32 => struct AccessControl.RoleData)","numberOfBytes":"32","value":"t_struct(RoleData)1002_storage"},"t_string_storage":{"encoding":"bytes","label":"string","numberOfBytes":"32"},"t_struct(RoleData)1002_storage":{"encoding":"inplace","label":"struct AccessControl.RoleData","members":[{"astId":999,"contract":"contracts/WEEDL.sol:WEEDL","label":"hasRole","offset":0,"slot":"0","type":"t_mapping(t_address,t_bool)"},{"astId":1001,"contract":"contracts/WEEDL.sol:WEEDL","label":"adminRole","offset":0,"slot":"1","type":"t_bytes32"}],"numberOfBytes":"64"},"t_uint256":{"encoding":"inplace","label":"uint256","numberOfBytes":"32"}}}}}}