{"contracts/GreenFiLand.sol":{"GreenFiLand":{"abi":[{"inputs":[{"internalType":"address","name":"target","type":"address"}],"name":"AddressEmptyCode","type":"error"},{"inputs":[{"internalType":"address","name":"implementation","type":"address"}],"name":"ERC1967InvalidImplementation","type":"error"},{"inputs":[],"name":"ERC1967NonPayable","type":"error"},{"inputs":[],"name":"EnforcedPause","type":"error"},{"inputs":[],"name":"ExpectedPause","type":"error"},{"inputs":[],"name":"FailedCall","type":"error"},{"inputs":[],"name":"InsufficientBalance","type":"error"},{"inputs":[],"name":"InvalidCollateralValue","type":"error"},{"inputs":[],"name":"InvalidContactInfo","type":"error"},{"inputs":[],"name":"InvalidInitialization","type":"error"},{"inputs":[],"name":"InvalidLandId","type":"error"},{"inputs":[],"name":"InvalidMetadataURI","type":"error"},{"inputs":[],"name":"InvalidPaginationParameters","type":"error"},{"inputs":[],"name":"InvalidTokenAddress","type":"error"},{"inputs":[],"name":"LandInUse","type":"error"},{"inputs":[],"name":"LandNotActive","type":"error"},{"inputs":[],"name":"NotInitializing","type":"error"},{"inputs":[{"internalType":"address","name":"owner","type":"address"}],"name":"OwnableInvalidOwner","type":"error"},{"inputs":[{"internalType":"address","name":"account","type":"address"}],"name":"OwnableUnauthorizedAccount","type":"error"},{"inputs":[],"name":"ReentrancyGuardReentrantCall","type":"error"},{"inputs":[{"internalType":"address","name":"token","type":"address"}],"name":"SafeERC20FailedOperation","type":"error"},{"inputs":[],"name":"UUPSUnauthorizedCallContext","type":"error"},{"inputs":[{"internalType":"bytes32","name":"slot","type":"bytes32"}],"name":"UUPSUnsupportedProxiableUUID","type":"error"},{"inputs":[],"name":"Unauthorized","type":"error"},{"anonymous":false,"inputs":[{"indexed":true,"internalType":"string","name":"id","type":"string"},{"indexed":true,"internalType":"address","name":"owner","type":"address"},{"indexed":false,"internalType":"uint256","name":"newCollateralValue","type":"uint256"},{"indexed":false,"internalType":"uint256","name":"fee","type":"uint256"}],"name":"CollateralUpdated","type":"event"},{"anonymous":false,"inputs":[{"indexed":false,"internalType":"uint64","name":"version","type":"uint64"}],"name":"Initialized","type":"event"},{"anonymous":false,"inputs":[{"indexed":true,"internalType":"string","name":"id","type":"string"},{"indexed":true,"internalType":"address","name":"owner","type":"address"},{"indexed":false,"internalType":"uint256","name":"refundAmount","type":"uint256"}],"name":"LandDelisted","type":"event"},{"anonymous":false,"inputs":[{"indexed":true,"internalType":"string","name":"id","type":"string"},{"indexed":true,"internalType":"address","name":"owner","type":"address"},{"indexed":false,"internalType":"string","name":"metadataURI","type":"string"},{"indexed":false,"internalType":"uint256","name":"collateralValue","type":"uint256"},{"indexed":false,"internalType":"string","name":"contactInfo","type":"string"},{"indexed":false,"internalType":"uint256","name":"fee","type":"uint256"}],"name":"LandListed","type":"event"},{"anonymous":false,"inputs":[{"indexed":true,"internalType":"address","name":"previousOwner","type":"address"},{"indexed":true,"internalType":"address","name":"newOwner","type":"address"}],"name":"OwnershipTransferred","type":"event"},{"anonymous":false,"inputs":[{"indexed":false,"internalType":"address","name":"account","type":"address"}],"name":"Paused","type":"event"},{"anonymous":false,"inputs":[{"indexed":false,"internalType":"address","name":"account","type":"address"}],"name":"Unpaused","type":"event"},{"anonymous":false,"inputs":[{"indexed":true,"internalType":"address","name":"implementation","type":"address"}],"name":"Upgraded","type":"event"},{"inputs":[],"name":"FEE_BASIS_POINTS","outputs":[{"internalType":"uint256","name":"","type":"uint256"}],"stateMutability":"view","type":"function"},{"inputs":[],"name":"MAX_CONTACT_LENGTH","outputs":[{"internalType":"uint256","name":"","type":"uint256"}],"stateMutability":"view","type":"function"},{"inputs":[],"name":"MAX_PAGE_SIZE","outputs":[{"internalType":"uint256","name":"","type":"uint256"}],"stateMutability":"view","type":"function"},{"inputs":[],"name":"UPGRADE_INTERFACE_VERSION","outputs":[{"internalType":"string","name":"","type":"string"}],"stateMutability":"view","type":"function"},{"inputs":[],"name":"activeListingsCount","outputs":[{"internalType":"uint256","name":"","type":"uint256"}],"stateMutability":"view","type":"function"},{"inputs":[{"internalType":"string","name":"_id","type":"string"}],"name":"delistLand","outputs":[],"stateMutability":"nonpayable","type":"function"},{"inputs":[{"internalType":"uint256","name":"startIndex","type":"uint256"},{"internalType":"uint256","name":"pageSize","type":"uint256"}],"name":"getAllLandListingsPaginated","outputs":[{"components":[{"internalType":"string","name":"id","type":"string"},{"internalType":"address","name":"owner","type":"address"},{"internalType":"string","name":"metadataURI","type":"string"},{"internalType":"uint256","name":"collateralValue","type":"uint256"},{"internalType":"bool","name":"isActive","type":"bool"},{"internalType":"string","name":"contactInfo","type":"string"}],"internalType":"struct GreenFiLand.LandListing[]","name":"","type":"tuple[]"},{"internalType":"uint256","name":"totalActive","type":"uint256"}],"stateMutability":"view","type":"function"},{"inputs":[{"internalType":"string","name":"_id","type":"string"}],"name":"getLandListing","outputs":[{"components":[{"internalType":"string","name":"id","type":"string"},{"internalType":"address","name":"owner","type":"address"},{"internalType":"string","name":"metadataURI","type":"string"},{"internalType":"uint256","name":"collateralValue","type":"uint256"},{"internalType":"bool","name":"isActive","type":"bool"},{"internalType":"string","name":"contactInfo","type":"string"}],"internalType":"struct GreenFiLand.LandListing","name":"","type":"tuple"}],"stateMutability":"view","type":"function"},{"inputs":[],"name":"getTotalActiveListings","outputs":[{"internalType":"uint256","name":"","type":"uint256"}],"stateMutability":"view","type":"function"},{"inputs":[{"internalType":"address","name":"user","type":"address"},{"internalType":"uint256","name":"startIndex","type":"uint256"},{"internalType":"uint256","name":"pageSize","type":"uint256"}],"name":"getUserListingsPaginated","outputs":[{"components":[{"internalType":"string","name":"id","type":"string"},{"internalType":"address","name":"owner","type":"address"},{"internalType":"string","name":"metadataURI","type":"string"},{"internalType":"uint256","name":"collateralValue","type":"uint256"},{"internalType":"bool","name":"isActive","type":"bool"},{"internalType":"string","name":"contactInfo","type":"string"}],"internalType":"struct GreenFiLand.LandListing[]","name":"","type":"tuple[]"},{"internalType":"uint256","name":"totalUserActive","type":"uint256"}],"stateMutability":"view","type":"function"},{"inputs":[{"internalType":"address","name":"_weedlToken","type":"address"}],"name":"initialize","outputs":[],"stateMutability":"nonpayable","type":"function"},{"inputs":[{"internalType":"string","name":"","type":"string"}],"name":"landIdIndices","outputs":[{"internalType":"uint256","name":"","type":"uint256"}],"stateMutability":"view","type":"function"},{"inputs":[{"internalType":"uint256","name":"","type":"uint256"}],"name":"landIds","outputs":[{"internalType":"string","name":"","type":"string"}],"stateMutability":"view","type":"function"},{"inputs":[{"internalType":"string","name":"","type":"string"}],"name":"landListings","outputs":[{"internalType":"string","name":"id","type":"string"},{"internalType":"address","name":"owner","type":"address"},{"internalType":"string","name":"metadataURI","type":"string"},{"internalType":"uint256","name":"collateralValue","type":"uint256"},{"internalType":"bool","name":"isActive","type":"bool"},{"internalType":"string","name":"contactInfo","type":"string"}],"stateMutability":"view","type":"function"},{"inputs":[{"internalType":"string","name":"_id","type":"string"},{"internalType":"string","name":"_metadataURI","type":"string"},{"internalType":"uint256","name":"_collateralValue","type":"uint256"},{"internalType":"string","name":"_contactInfo","type":"string"}],"name":"listLand","outputs":[],"stateMutability":"nonpayable","type":"function"},{"inputs":[],"name":"owner","outputs":[{"internalType":"address","name":"","type":"address"}],"stateMutability":"view","type":"function"},{"inputs":[],"name":"pause","outputs":[],"stateMutability":"nonpayable","type":"function"},{"inputs":[],"name":"paused","outputs":[{"internalType":"bool","name":"","type":"bool"}],"stateMutability":"view","type":"function"},{"inputs":[],"name":"proxiableUUID","outputs":[{"internalType":"bytes32","name":"","type":"bytes32"}],"stateMutability":"view","type":"function"},{"inputs":[],"name":"renounceOwnership","outputs":[],"stateMutability":"nonpayable","type":"function"},{"inputs":[{"internalType":"address","name":"newOwner","type":"address"}],"name":"transferOwnership","outputs":[],"stateMutability":"nonpayable","type":"function"},{"inputs":[],"name":"unpause","outputs":[],"stateMutability":"nonpayable","type":"function"},{"inputs":[{"internalType":"string","name":"_id","type":"string"},{"internalType":"uint256","name":"_newCollateralValue","type":"uint256"}],"name":"updateLandCollateral","outputs":[],"stateMutability":"nonpayable","type":"function"},{"inputs":[{"internalType":"address","name":"newImplementation","type":"address"},{"internalType":"bytes","name":"data","type":"bytes"}],"name":"upgradeToAndCall","outputs":[],"stateMutability":"payable","type":"function"},{"inputs":[],"name":"weedlToken","outputs":[{"internalType":"contract IERC20","name":"","type":"address"}],"stateMutability":"view","type":"function"}],"evm":{"bytecode":{"linkReferences":{},"object":"60a0806040523461002a573060805261225290816100308239608051818181610f220152610fd50152f35b600080fdfe60806040908082526004918236101561001757600080fd5b600092833560e01c928363045fb3e91461178f57508263278dad4014611430578263327789541461135357826335fe1a76146112835782633b9c8cfe1461125b5782633f4ba83a146111e257826348f4da20146111c65782634f1ef28614610f8657826352d1902d14610f0d57826357b06e8c14610cfd5782635c975abb14610ccc5782636cf3dcfc14610af8578263715018a614610a8e5782638456cb5914610a2657826386a197f9146109ca5782638da5cb5b14610994578263903a945114610933578263a525ad3c14610917578263a5298c4a146108f8578263a75554cd14610763578263ad3cb1cc1461071a578263c4d66de81461056f578263efb85b721461018957508163f2bc9a0e14610169575063f2fde38b1461013a57600080fd5b3461016657602036600319011261016657610163610156611a19565b61015e611fae565b611e90565b80f35b80fd5b9050346101855781600319360112610185576020905160648152f35b5080fd5b9091503461056b57608036600319011261056b576001600160401b038135818111610567576101bb903690840161186e565b91602435828111610563576101d3903690830161186e565b906044359260643590811161055f576101ef903690830161186e565b6101f7611f04565b6101ff611f34565b84518015908115610554575b50610545578251158015610516575b6105075760648151116104f85783156104e95785519585519560209361025d85830198610248818c8c61188c565b8a0199868160019c8d815203019020546118af565b6104db57602a8702878104602a036104c85761271090049761027f8989611ae6565b8b5485516370a0823160e01b815233858201526001600160a01b0392918316908e908a81602481865afa9182156104bd57908492610488575b5010610478576005888e8d61035e8e8c8f9a99856103398f9a8e8e6102e761037f9f6103289430903390611fe7565b86519d8e976102f5896117aa565b81895260a0848a0199338b528281019b8c52606081019d8e52608081019e8f52019d8e525193849283925192839161188c565b8101858152030190209a518b611dc7565b89019151166bffffffffffffffffffffffff60a01b8254161790555160028701611dc7565b5160038501558784019051151560ff80198354169116179055519101611dc7565b610398600254928392875180938192895192839161188c565b81016003815203019020556801000000000000000081101561046557808a6103c39201600255611a99565b61045357827fceb2d59502e683f00a1afc723434970a1cbcd23a13295d1fa9f094dc1e9446eb979694926103fe610434979561040f94611dc7565b6104088154611d3d565b9055611cea565b9661042482519660808852608088019061198e565b938601528483039085015261198e565b9360608201528033940390a36000805160206121fd8339815191525580f35b634e487b7160e01b8b528a825260248bfd5b634e487b7160e01b8b526041825260248bfd5b8651631e9acf1760e31b81528590fd5b8092508b8092503d83116104b6575b6104a181836117f6565b810103126104b257829051386102b8565b8e80fd5b503d610497565b8951903d90823e3d90fd5b634e487b7160e01b8b526011825260248bfd5b825163767727f760e01b8152fd5b5084516341becd2f60e11b8152fd5b50845163067116cf60e11b8152fd5b508451630eec403f60e41b8152fd5b5061053f8651610525816117db565b6007815266697066733a2f2f60c81b602082015284612050565b1561021a565b50845163f5217d2760e01b8152fd5b60209150113861020b565b8680fd5b8580fd5b8480fd5b8280fd5b9091503461056b57602036600319011261056b5761058b611a19565b907ff0c57e16840df040f15088dc2f81fe391c3923bec73e23a9662efc9c229c6a009182549160ff83861c1615926001600160401b03811680159081610712575b6001149081610708575b1590816106ff575b506106f05767ffffffffffffffff1981166001178555836106d1575b506001600160a01b0382169182159081156106c7575b506106b9575061061e612118565b610626612118565b61062f33611e90565b610637612118565b61063f612118565b610647612118565b60016000805160206121fd83398151915255610661612118565b84546001600160a01b031916178455610678578280f35b805468ff00000000000000001916905551600181527fc7f505b2f371ae2175ee4913f4499e1f2633a7b5936321eed1cdaeb6115181d290602090a138808280f35b8451630f58058360e11b8152fd5b90503b1538610610565b68ffffffffffffffffff191668010000000000000001178455386105fa565b50845163f92ee8a960e01b8152fd5b905015386105de565b303b1591506105d6565b8591506105cc565b838234610185578160031936011261018557805161075f9161073b826117db565b60058252640352e302e360dc1b60208301525191829160208352602083019061198e565b0390f35b9091503461056b578160031936011261056b57602435918135831580156108ee575b80156108e3575b6108d557825493818511156108ce576107a58286611b09565b905b8082116108c6575b506107b981611d63565b918695600292600254975b888110806108bd575b156108af576107ea6107de82611a99565b508960ff928392611c56565b015416806108a5575b610807575b5061080290611d3d565b6107c4565b819a8661087e60058b61089e958e61082a6108246108029a611a99565b50611c56565b9261085f81519761083a896117aa565b610843866118e9565b895260018601546001600160a01b031660208a015285016118e9565b90870152600383015460608701528201541615156080850152016118e9565b60a082015261088d828a611db3565b526108988189611db3565b50611d3d565b99906107f8565b50848210156107f3565b86518061075f858983611a2f565b50818a106107cd565b9050386107af565b85906107a7565b50516329d976df60e11b8152fd5b50825481101561078c565b5060328411610785565b9091503461056b578260031936011261056b5760209250549051908152f35b83823461018557816003193601126101855760209051602a8152f35b9083346101665760203660031901126101665782356002548110156101855761095b90611a99565b9390936109825761075f8361096f866118e9565b905191829160208352602083019061198e565b634e487b7160e01b8252819052602490fd5b8382346101855781600319360112610185576000805160206121bd8339815191525490516001600160a01b039091168152602090f35b908334610166576020366003190112610166578235906001600160401b03821161016657506020610a028194610a149336910161186e565b8184519382858094519384920161188c565b81016003815203019020549051908152f35b83823461018557816003193601126101855760207f62e78cea01bee320cd4e420270b5ea74000d11b0c9f74754ebdbfc544b05a25891610a64611fae565b610a6c611f34565b6000805160206121dd833981519152805460ff1916600117905551338152a180f35b8334610166578060031936011261016657610aa7611fae565b6000805160206121bd83398151915280546001600160a01b0319811690915581906001600160a01b03167f8be0079c531659141344cd1fd0a4f28419497f9722a3daafe3b4186f6b6457e08280a380f35b9091503461056b578160031936011261056b5780356001600160401b038111610cc857610b28903690830161186e565b9160243592610b35611f04565b610b3d611f34565b81516020818351610b51818385880161188c565b8101600181520301902060ff848201541615610cb95760018101546001600160a01b03919082163303610caa578515610c9a57600301908154602a810290808204602a1481151715610c8757610bad9061271080930490611ae6565b95602a880290888204602a03610c745750927f9ce0e3c72308775f6e26f82ec688446a112aa95d9d95ba42167f7144dad8c8c99594928892610c20950497610bf58985611ae6565b9181831115610c4357610c1a9291610c10918d541692611b09565b9030903390611fe7565b55611cea565b92815194855260208501523393a360016000805160206121fd8339815191525580f35b818310610c53575b505050610c1a565b610c6c92610c64918d541692611b09565b903390611f5f565b388080610c4b565b634e487b7160e01b8a5260119052602489fd5b634e487b7160e01b895260118752602489fd5b505050516341becd2f60e11b8152fd5b505050516282b42960e81b8152fd5b50505163168db56760e31b8152fd5b8380fd5b83823461018557816003193601126101855760209060ff6000805160206121dd833981519152541690519015158152f35b83823461018557606091606060031936011261016657610d1b611a19565b92602435936044359182158015610f03575b610ef35783918496600293600254985b898110610ea1575080821015610e915781811115610e8a57610d5f8282611b09565b955b808711610e82575b50610d7386611d63565b95875b8a811080610e79575b15610e6b5789610d9e8d610d9284611a99565b508160ff938492611c56565b01541680610e3d575b80610e33575b610dc3575b505050610dbe90611d3d565b610d76565b610e0e6005610e2894869e948d94610de0610824610dbe9a611a99565b92610df081519761083a896117aa565b9087015260038301548e8701528201541615156080850152016118e9565b60a0820152610e1d828c611db3565b52610898818b611db3565b989050898d8d610db2565b5086841015610dad565b50610e5f610e4a85611a99565b506001600160a01b0391829160019190611c56565b01541690891614610da7565b89518061075f858b83611a2f565b50818910610d7f565b95508a610d69565b8695610d61565b87516329d976df60e11b81528a90fd5b60ff8b610eb061082484611a99565b01541680610eda575b610ec6575b600101610d3d565b90610ed2600191611d3d565b919050610ebe565b50610ee7610e4a82611a99565b01541690851614610eb9565b84516329d976df60e11b81528790fd5b5060328311610d2d565b908334610166578060031936011261016657507f00000000000000000000000000000000000000000000000000000000000000006001600160a01b03163003610f7957602090517f360894a13ba1a3210667c828492db98dca3e2076cc3735a920a3ca505d382bbc8152f35b5163703e46dd60e11b8152fd5b91508060031936011261056b57610f9b611a19565b906024356001600160401b038111610567573660238201121561056757610fcb9036906024818701359101611832565b6001600160a01b037f00000000000000000000000000000000000000000000000000000000000000008116308114908115611198575b506111885761100e611fae565b82516352d1902d60e01b81529084169360209182818881895afa889181611155575b5061104c578451634c9c8ce360e01b8152808801879052602490fd5b7f360894a13ba1a3210667c828492db98dca3e2076cc3735a920a3ca505d382bbc9692959193969081810361113f5750833b156111285780546001600160a01b0319168217905583518792917fbc7cd75a20ee27fd9adebab32041f755214dbc6bffa90cc0225b39da2e5c2d3b8480a286511561110b5750508085856110fd97519101845af4913d15611101573d6110ef6110e682611817565b925192836117f6565b81528581943d92013e612159565b5080f35b5060609250612159565b945094505050503461111c57505080f35b63b398979f60e01b8152fd5b8451634c9c8ce360e01b8152808401839052602490fd5b83602491875191632a87526960e21b8352820152fd5b9091508381813d8311611181575b61116d81836117f6565b8101031261117d57519038611030565b8880fd5b503d611163565b825163703e46dd60e11b81528590fd5b9050817f360894a13ba1a3210667c828492db98dca3e2076cc3735a920a3ca505d382bbc5416141538611001565b8382346101855781600319360112610185576020905160328152f35b9091503461056b578260031936011261056b576111fd611fae565b6000805160206121dd8339815191529081549060ff82161561124d575060ff19169055513381527f5db9ee0a495bf2e6ff9c91a7834c1ba4fdd244a5e8aa4e537bd38aeae4b073aa90602090a180f35b8351638dfc202b60e01b8152fd5b838234610185578160031936011261018557905490516001600160a01b039091168152602090f35b8382346101855760209182600319360112610166578335906001600160401b03821161016657509061133f60056112df856112c461075f9636908a0161186e565b6112cc611d0a565b508186519382858094519384920161188c565b8101600181520301902060ff8451976112f7896117aa565b611300836118e9565b895260018301546001600160a01b0316888a0152611320600284016118e9565b868a0152600383015460608a01528201541615156080880152016118e9565b60a0850152519282849384528301906119b3565b908334610166576020366003190112610166578235906001600160401b0382116101665750611404926113a3602061139161075f943690850161186e565b8186519382858094519384920161188c565b81016001815203019020926113b7846118e9565b6001850154909490611416906001600160a01b03166113d8600284016118e9565b6113f0600560ff6003870154988701541695016118e9565b948051998a9960c08b5260c08b019061198e565b9260208a01528883039089015261198e565b9260608601521515608085015283820360a085015261198e565b91503461056b57602080600319360112610cc85782356001600160401b03811161056757611461903690850161186e565b611469611f04565b611471611f34565b825181519083818185019361148781838761188c565b810160018152030190209085820195865460ff8116156117805760018401546001600160a01b039490851633036117715760030154602a8102818104602a148215171561175e57906127106114dd920490611ae6565b60ff19918216909855815490811561174b57908894939291600019809201835588518881895161150e81838a61188c565b81016003815203019020549060025480831061157f575b8c888c7fe32c17c71f4e61848aec6c558af72ec21f2a857393f3ab42d61b4c80e0d667aa8d6115628e61155d868f33908a5416611f5f565b611cea565b92519384523393a360016000805160206121fd8339815191525580f35b90919280949596975081019081116117385761159a90611a99565b506115a483611a99565b61172657906115b291611b72565b878b6115bd84611a99565b508b519384929180546115cf816118af565b92600182169182156117125750506001146116df575b505060038152030190205560025480156116cc57019061160482611a99565b9190916116ba57506115629389611667887fe32c17c71f4e61848aec6c558af72ec21f2a857393f3ab42d61b4c80e0d667aa99989661155d9684878f9861164b90546118af565b8061167e575b5050506002558b51809381928a5192839161188c565b810160038152030190205592949581943880611525565b82601f8211600114611696575050555b843880611651565b90918082526116b3601f888420940160051c840160018501611b16565b555561168e565b634e487b7160e01b8a52899052602489fd5b634e487b7160e01b8a526031835260248afd5b9091508e528d8381205b8282106116fb575050810138806115e5565b8054868301528c94869450909101906001016116e9565b1685525050801515028201905038806115e5565b634e487b7160e01b8d528c865260248dfd5b634e487b7160e01b8c526011855260248cfd5b634e487b7160e01b8a526011835260248afd5b634e487b7160e01b8b526011845260248bfd5b87516282b42960e81b81528390fd5b50855163168db56760e31b8152fd5b84913461056b578260031936011261056b5760209250548152f35b60c081019081106001600160401b038211176117c557604052565b634e487b7160e01b600052604160045260246000fd5b604081019081106001600160401b038211176117c557604052565b90601f801991011681019081106001600160401b038211176117c557604052565b6001600160401b0381116117c557601f01601f191660200190565b92919261183e82611817565b9161184c60405193846117f6565b829481845281830111611869578281602093846000960137010152565b600080fd5b9080601f830112156118695781602061188993359101611832565b90565b60005b83811061189f5750506000910152565b818101518382015260200161188f565b90600182811c921680156118df575b60208310146118c957565b634e487b7160e01b600052602260045260246000fd5b91607f16916118be565b906040519182600082546118fc816118af565b9081845260209460019160018116908160001461196c575060011461192d575b50505061192b925003836117f6565b565b600090815285812095935091905b81831061195457505061192b935082010138808061191c565b8554888401850152948501948794509183019161193b565b9250505061192b94925060ff191682840152151560051b82010138808061191c565b906020916119a78151809281855285808601910161188c565b601f01601f1916010190565b6118899160a06119f26119cf845160c0855260c085019061198e565b600180841b0360208601511660208501526040850151848203604086015261198e565b926060810151606084015260808101511515608084015201519060a081840391015261198e565b600435906001600160a01b038216820361186957565b9291906040840190604085528051809252606085019160608160051b870101916020809101936000905b838210611a6d575050505060209150930152565b909192938380611a89600193605f198d820301865289516119b3565b9701920192019094939291611a59565b600254811015611ad05760026000527f405787fa12a823e0f2b7631cc41b3ba8828b3321ca811111fa75cd3aa3bb5ace0190600090565b634e487b7160e01b600052603260045260246000fd5b91908201809211611af357565b634e487b7160e01b600052601160045260246000fd5b91908203918211611af357565b818110611b21575050565b60008155600101611b16565b9190601f8111611b3c57505050565b61192b926000526020600020906020601f840160051c83019310611b68575b601f0160051c0190611b16565b9091508190611b5b565b90808214611c5257611b8481546118af565b906001600160401b0382116117c557611ba782611ba185546118af565b85611b2d565b600090601f8311600114611be757611bd8929160009183611bdc575b50508160011b916000199060031b1c19161790565b9055565b015490503880611bc3565b815260208082208483528183209291601f1985169083905b828210611c39575050908460019594939210611c20575b505050811b019055565b015460001960f88460031b161c19169055388080611c16565b8495819295850154815560018091019601940190611bff565b5050565b604051908160008254611c68816118af565b93600191808316908115611cce5750600114611c90575b505060209250600181520301902090565b9091506000526020906020600020906000915b858310611cba575050505060209181013880611c7f565b805487840152869450918301918101611ca3565b92505050602093915060ff191682528015150281013880611c7f565b611d029060206040519282848094519384920161188c565b810103902090565b60405190611d17826117aa565b606060a08382815260006020820152826040820152600083820152600060808201520152565b6000198114611af35760010190565b6001600160401b0381116117c55760051b60200190565b90611d6d82611d4c565b611d7a60405191826117f6565b8281528092611d8b601f1991611d4c565b019060005b828110611d9c57505050565b602090611da7611d0a565b82828501015201611d90565b8051821015611ad05760209160051b010190565b91909182516001600160401b0381116117c557611dee81611de884546118af565b84611b2d565b602080601f8311600114611e2c57508190611bd8939495600092611e215750508160011b916000199060031b1c19161790565b015190503880611bc3565b90601f19831695846000526020600020926000905b888210611e7857505083600195969710611e5f57505050811b019055565b015160001960f88460031b161c19169055388080611c16565b80600185968294968601518155019501930190611e41565b6001600160a01b03908116908115611eeb576000805160206121bd83398151915280546001600160a01b031981168417909155167f8be0079c531659141344cd1fd0a4f28419497f9722a3daafe3b4186f6b6457e0600080a3565b604051631e4fbdf760e01b815260006004820152602490fd5b6000805160206121fd8339815191526002815414611f225760029055565b604051633ee5aeb560e01b8152600490fd5b60ff6000805160206121dd8339815191525416611f4d57565b60405163d93c066560e01b8152600490fd5b60405163a9059cbb60e01b60208201526001600160a01b03909216602483015260448083019390935291815260808101916001600160401b038311828410176117c55761192b926040526120b0565b6000805160206121bd833981519152546001600160a01b03163303611fcf57565b60405163118cdaa760e01b8152336004820152602490fd5b6040516323b872dd60e01b60208201526001600160a01b03928316602482015292909116604483015260648083019390935291815260a08101918183106001600160401b038411176117c55761192b926040526120b0565b908151811015611ad0570160200190565b9081518151116120a95760009060005b81518110156120a0576001600160f81b03198061207d838761203f565b51169061208a838561203f565b51160361209957600101612060565b5050905090565b50505050600190565b5050600090565b906000602091828151910182855af11561210c576000513d61210357506001600160a01b0381163b155b6120e15750565b604051635274afe760e01b81526001600160a01b039091166004820152602490fd5b600114156120da565b6040513d6000823e3d90fd5b60ff7ff0c57e16840df040f15088dc2f81fe391c3923bec73e23a9662efc9c229c6a005460401c161561214757565b604051631afcd79f60e31b8152600490fd5b90612180575080511561216e57805190602001fd5b60405163d6bda27560e01b8152600490fd5b815115806121b3575b612191575090565b604051639996b31560e01b81526001600160a01b039091166004820152602490fd5b50803b1561218956fe9016d09d72d40fdae2fd8ceac6b6234c7706214fd39c1cd1e609a0528c199300cd5ed15c6e187e77e9aee88184c21f4f2182ab5827cb3b7e07fbedcd63f033009b779b17422d0df92223018b32b4d1fa46e071723d6817e2486d003becc55f00a2646970667358221220a108fdaffa8f2e2730fe7001110f6693b48f2c1864a2afabedc15f39d9508e8764736f6c63430008160033","opcodes":"PUSH1 0xA0 DUP1 PUSH1 0x40 MSTORE CALLVALUE PUSH2 0x2A JUMPI ADDRESS PUSH1 0x80 MSTORE PUSH2 0x2252 SWAP1 DUP2 PUSH2 0x30 DUP3 CODECOPY PUSH1 0x80 MLOAD DUP2 DUP2 DUP2 PUSH2 0xF22 ADD MSTORE PUSH2 0xFD5 ADD MSTORE RETURN JUMPDEST PUSH1 0x0 DUP1 REVERT INVALID PUSH1 0x80 PUSH1 0x40 SWAP1 DUP1 DUP3 MSTORE PUSH1 0x4 SWAP2 DUP3 CALLDATASIZE LT ISZERO PUSH2 0x17 JUMPI PUSH1 0x0 DUP1 REVERT JUMPDEST PUSH1 0x0 SWAP3 DUP4 CALLDATALOAD PUSH1 0xE0 SHR SWAP3 DUP4 PUSH4 0x45FB3E9 EQ PUSH2 0x178F JUMPI POP DUP3 PUSH4 0x278DAD40 EQ PUSH2 0x1430 JUMPI DUP3 PUSH4 0x32778954 EQ PUSH2 0x1353 JUMPI DUP3 PUSH4 0x35FE1A76 EQ PUSH2 0x1283 JUMPI DUP3 PUSH4 0x3B9C8CFE EQ PUSH2 0x125B JUMPI DUP3 PUSH4 0x3F4BA83A EQ PUSH2 0x11E2 JUMPI DUP3 PUSH4 0x48F4DA20 EQ PUSH2 0x11C6 JUMPI DUP3 PUSH4 0x4F1EF286 EQ PUSH2 0xF86 JUMPI DUP3 PUSH4 0x52D1902D EQ PUSH2 0xF0D JUMPI DUP3 PUSH4 0x57B06E8C EQ PUSH2 0xCFD JUMPI DUP3 PUSH4 0x5C975ABB EQ PUSH2 0xCCC JUMPI DUP3 PUSH4 0x6CF3DCFC EQ PUSH2 0xAF8 JUMPI DUP3 PUSH4 0x715018A6 EQ PUSH2 0xA8E JUMPI DUP3 PUSH4 0x8456CB59 EQ PUSH2 0xA26 JUMPI DUP3 PUSH4 0x86A197F9 EQ PUSH2 0x9CA JUMPI DUP3 PUSH4 0x8DA5CB5B EQ PUSH2 0x994 JUMPI DUP3 PUSH4 0x903A9451 EQ PUSH2 0x933 JUMPI DUP3 PUSH4 0xA525AD3C EQ PUSH2 0x917 JUMPI DUP3 PUSH4 0xA5298C4A EQ PUSH2 0x8F8 JUMPI DUP3 PUSH4 0xA75554CD EQ PUSH2 0x763 JUMPI DUP3 PUSH4 0xAD3CB1CC EQ PUSH2 0x71A JUMPI DUP3 PUSH4 0xC4D66DE8 EQ PUSH2 0x56F JUMPI DUP3 PUSH4 0xEFB85B72 EQ PUSH2 0x189 JUMPI POP DUP2 PUSH4 0xF2BC9A0E EQ PUSH2 0x169 JUMPI POP PUSH4 0xF2FDE38B EQ PUSH2 0x13A JUMPI PUSH1 0x0 DUP1 REVERT JUMPDEST CALLVALUE PUSH2 0x166 JUMPI PUSH1 0x20 CALLDATASIZE PUSH1 0x3 NOT ADD SLT PUSH2 0x166 JUMPI PUSH2 0x163 PUSH2 0x156 PUSH2 0x1A19 JUMP JUMPDEST PUSH2 0x15E PUSH2 0x1FAE JUMP JUMPDEST PUSH2 0x1E90 JUMP JUMPDEST DUP1 RETURN JUMPDEST DUP1 REVERT JUMPDEST SWAP1 POP CALLVALUE PUSH2 0x185 JUMPI DUP2 PUSH1 0x3 NOT CALLDATASIZE ADD SLT PUSH2 0x185 JUMPI PUSH1 0x20 SWAP1 MLOAD PUSH1 0x64 DUP2 MSTORE RETURN JUMPDEST POP DUP1 REVERT JUMPDEST SWAP1 SWAP2 POP CALLVALUE PUSH2 0x56B JUMPI PUSH1 0x80 CALLDATASIZE PUSH1 0x3 NOT ADD SLT PUSH2 0x56B JUMPI PUSH1 0x1 PUSH1 0x1 PUSH1 0x40 SHL SUB DUP2 CALLDATALOAD DUP2 DUP2 GT PUSH2 0x567 JUMPI PUSH2 0x1BB SWAP1 CALLDATASIZE SWAP1 DUP5 ADD PUSH2 0x186E JUMP JUMPDEST SWAP2 PUSH1 0x24 CALLDATALOAD DUP3 DUP2 GT PUSH2 0x563 JUMPI PUSH2 0x1D3 SWAP1 CALLDATASIZE SWAP1 DUP4 ADD PUSH2 0x186E JUMP JUMPDEST SWAP1 PUSH1 0x44 CALLDATALOAD SWAP3 PUSH1 0x64 CALLDATALOAD SWAP1 DUP2 GT PUSH2 0x55F JUMPI PUSH2 0x1EF SWAP1 CALLDATASIZE SWAP1 DUP4 ADD PUSH2 0x186E JUMP JUMPDEST PUSH2 0x1F7 PUSH2 0x1F04 JUMP JUMPDEST PUSH2 0x1FF PUSH2 0x1F34 JUMP JUMPDEST DUP5 MLOAD DUP1 ISZERO SWAP1 DUP2 ISZERO PUSH2 0x554 JUMPI JUMPDEST POP PUSH2 0x545 JUMPI DUP3 MLOAD ISZERO DUP1 ISZERO PUSH2 0x516 JUMPI JUMPDEST PUSH2 0x507 JUMPI PUSH1 0x64 DUP2 MLOAD GT PUSH2 0x4F8 JUMPI DUP4 ISZERO PUSH2 0x4E9 JUMPI DUP6 MLOAD SWAP6 DUP6 MLOAD SWAP6 PUSH1 0x20 SWAP4 PUSH2 0x25D DUP6 DUP4 ADD SWAP9 PUSH2 0x248 DUP2 DUP13 DUP13 PUSH2 0x188C JUMP JUMPDEST DUP11 ADD SWAP10 DUP7 DUP2 PUSH1 0x1 SWAP13 DUP14 DUP2 MSTORE SUB ADD SWAP1 KECCAK256 SLOAD PUSH2 0x18AF JUMP JUMPDEST PUSH2 0x4DB JUMPI PUSH1 0x2A DUP8 MUL DUP8 DUP2 DIV PUSH1 0x2A SUB PUSH2 0x4C8 JUMPI PUSH2 0x2710 SWAP1 DIV SWAP8 PUSH2 0x27F DUP10 DUP10 PUSH2 0x1AE6 JUMP JUMPDEST DUP12 SLOAD DUP6 MLOAD PUSH4 0x70A08231 PUSH1 0xE0 SHL DUP2 MSTORE CALLER DUP6 DUP3 ADD MSTORE PUSH1 0x1 PUSH1 0x1 PUSH1 0xA0 SHL SUB SWAP3 SWAP2 DUP4 AND SWAP1 DUP15 SWAP1 DUP11 DUP2 PUSH1 0x24 DUP2 DUP7 GAS STATICCALL SWAP2 DUP3 ISZERO PUSH2 0x4BD JUMPI SWAP1 DUP5 SWAP3 PUSH2 0x488 JUMPI JUMPDEST POP LT PUSH2 0x478 JUMPI PUSH1 0x5 DUP9 DUP15 DUP14 PUSH2 0x35E DUP15 DUP13 DUP16 SWAP11 SWAP10 DUP6 PUSH2 0x339 DUP16 SWAP11 DUP15 DUP15 PUSH2 0x2E7 PUSH2 0x37F SWAP16 PUSH2 0x328 SWAP5 ADDRESS SWAP1 CALLER SWAP1 PUSH2 0x1FE7 JUMP JUMPDEST DUP7 MLOAD SWAP14 DUP15 SWAP8 PUSH2 0x2F5 DUP10 PUSH2 0x17AA JUMP JUMPDEST DUP2 DUP10 MSTORE PUSH1 0xA0 DUP5 DUP11 ADD SWAP10 CALLER DUP12 MSTORE DUP3 DUP2 ADD SWAP12 DUP13 MSTORE PUSH1 0x60 DUP2 ADD SWAP14 DUP15 MSTORE PUSH1 0x80 DUP2 ADD SWAP15 DUP16 MSTORE ADD SWAP14 DUP15 MSTORE MLOAD SWAP4 DUP5 SWAP3 DUP4 SWAP3 MLOAD SWAP3 DUP4 SWAP2 PUSH2 0x188C JUMP JUMPDEST DUP2 ADD DUP6 DUP2 MSTORE SUB ADD SWAP1 KECCAK256 SWAP11 MLOAD DUP12 PUSH2 0x1DC7 JUMP JUMPDEST DUP10 ADD SWAP2 MLOAD AND PUSH12 0xFFFFFFFFFFFFFFFFFFFFFFFF PUSH1 0xA0 SHL DUP3 SLOAD AND OR SWAP1 SSTORE MLOAD PUSH1 0x2 DUP8 ADD PUSH2 0x1DC7 JUMP JUMPDEST MLOAD PUSH1 0x3 DUP6 ADD SSTORE DUP8 DUP5 ADD SWAP1 MLOAD ISZERO ISZERO PUSH1 0xFF DUP1 NOT DUP4 SLOAD AND SWAP2 AND OR SWAP1 SSTORE MLOAD SWAP2 ADD PUSH2 0x1DC7 JUMP JUMPDEST PUSH2 0x398 PUSH1 0x2 SLOAD SWAP3 DUP4 SWAP3 DUP8 MLOAD DUP1 SWAP4 DUP2 SWAP3 DUP10 MLOAD SWAP3 DUP4 SWAP2 PUSH2 0x188C JUMP JUMPDEST DUP2 ADD PUSH1 0x3 DUP2 MSTORE SUB ADD SWAP1 KECCAK256 SSTORE PUSH9 0x10000000000000000 DUP2 LT ISZERO PUSH2 0x465 JUMPI DUP1 DUP11 PUSH2 0x3C3 SWAP3 ADD PUSH1 0x2 SSTORE PUSH2 0x1A99 JUMP JUMPDEST PUSH2 0x453 JUMPI DUP3 PUSH32 0xCEB2D59502E683F00A1AFC723434970A1CBCD23A13295D1FA9F094DC1E9446EB SWAP8 SWAP7 SWAP5 SWAP3 PUSH2 0x3FE PUSH2 0x434 SWAP8 SWAP6 PUSH2 0x40F SWAP5 PUSH2 0x1DC7 JUMP JUMPDEST PUSH2 0x408 DUP2 SLOAD PUSH2 0x1D3D JUMP JUMPDEST SWAP1 SSTORE PUSH2 0x1CEA JUMP JUMPDEST SWAP7 PUSH2 0x424 DUP3 MLOAD SWAP7 PUSH1 0x80 DUP9 MSTORE PUSH1 0x80 DUP9 ADD SWAP1 PUSH2 0x198E JUMP JUMPDEST SWAP4 DUP7 ADD MSTORE DUP5 DUP4 SUB SWAP1 DUP6 ADD MSTORE PUSH2 0x198E JUMP JUMPDEST SWAP4 PUSH1 0x60 DUP3 ADD MSTORE DUP1 CALLER SWAP5 SUB SWAP1 LOG3 PUSH1 0x0 DUP1 MLOAD PUSH1 0x20 PUSH2 0x21FD DUP4 CODECOPY DUP2 MLOAD SWAP2 MSTORE SSTORE DUP1 RETURN JUMPDEST PUSH4 0x4E487B71 PUSH1 0xE0 SHL DUP12 MSTORE DUP11 DUP3 MSTORE PUSH1 0x24 DUP12 REVERT JUMPDEST PUSH4 0x4E487B71 PUSH1 0xE0 SHL DUP12 MSTORE PUSH1 0x41 DUP3 MSTORE PUSH1 0x24 DUP12 REVERT JUMPDEST DUP7 MLOAD PUSH4 0x1E9ACF17 PUSH1 0xE3 SHL DUP2 MSTORE DUP6 SWAP1 REVERT JUMPDEST DUP1 SWAP3 POP DUP12 DUP1 SWAP3 POP RETURNDATASIZE DUP4 GT PUSH2 0x4B6 JUMPI JUMPDEST PUSH2 0x4A1 DUP2 DUP4 PUSH2 0x17F6 JUMP JUMPDEST DUP2 ADD SUB SLT PUSH2 0x4B2 JUMPI DUP3 SWAP1 MLOAD CODESIZE PUSH2 0x2B8 JUMP JUMPDEST DUP15 DUP1 REVERT JUMPDEST POP RETURNDATASIZE PUSH2 0x497 JUMP JUMPDEST DUP10 MLOAD SWAP1 RETURNDATASIZE SWAP1 DUP3 RETURNDATACOPY RETURNDATASIZE SWAP1 REVERT JUMPDEST PUSH4 0x4E487B71 PUSH1 0xE0 SHL DUP12 MSTORE PUSH1 0x11 DUP3 MSTORE PUSH1 0x24 DUP12 REVERT JUMPDEST DUP3 MLOAD PUSH4 0x767727F7 PUSH1 0xE0 SHL DUP2 MSTORE REVERT JUMPDEST POP DUP5 MLOAD PUSH4 0x41BECD2F PUSH1 0xE1 SHL DUP2 MSTORE REVERT JUMPDEST POP DUP5 MLOAD PUSH4 0x67116CF PUSH1 0xE1 SHL DUP2 MSTORE REVERT JUMPDEST POP DUP5 MLOAD PUSH4 0xEEC403F PUSH1 0xE4 SHL DUP2 MSTORE REVERT JUMPDEST POP PUSH2 0x53F DUP7 MLOAD PUSH2 0x525 DUP2 PUSH2 0x17DB JUMP JUMPDEST PUSH1 0x7 DUP2 MSTORE PUSH7 0x697066733A2F2F PUSH1 0xC8 SHL PUSH1 0x20 DUP3 ADD MSTORE DUP5 PUSH2 0x2050 JUMP JUMPDEST ISZERO PUSH2 0x21A JUMP JUMPDEST POP DUP5 MLOAD PUSH4 0xF5217D27 PUSH1 0xE0 SHL DUP2 MSTORE REVERT JUMPDEST PUSH1 0x20 SWAP2 POP GT CODESIZE PUSH2 0x20B JUMP JUMPDEST DUP7 DUP1 REVERT JUMPDEST DUP6 DUP1 REVERT JUMPDEST DUP5 DUP1 REVERT JUMPDEST DUP3 DUP1 REVERT JUMPDEST SWAP1 SWAP2 POP CALLVALUE PUSH2 0x56B JUMPI PUSH1 0x20 CALLDATASIZE PUSH1 0x3 NOT ADD SLT PUSH2 0x56B JUMPI PUSH2 0x58B PUSH2 0x1A19 JUMP JUMPDEST SWAP1 PUSH32 0xF0C57E16840DF040F15088DC2F81FE391C3923BEC73E23A9662EFC9C229C6A00 SWAP2 DUP3 SLOAD SWAP2 PUSH1 0xFF DUP4 DUP7 SHR AND ISZERO SWAP3 PUSH1 0x1 PUSH1 0x1 PUSH1 0x40 SHL SUB DUP2 AND DUP1 ISZERO SWAP1 DUP2 PUSH2 0x712 JUMPI JUMPDEST PUSH1 0x1 EQ SWAP1 DUP2 PUSH2 0x708 JUMPI JUMPDEST ISZERO SWAP1 DUP2 PUSH2 0x6FF JUMPI JUMPDEST POP PUSH2 0x6F0 JUMPI PUSH8 0xFFFFFFFFFFFFFFFF NOT DUP2 AND PUSH1 0x1 OR DUP6 SSTORE DUP4 PUSH2 0x6D1 JUMPI JUMPDEST POP PUSH1 0x1 PUSH1 0x1 PUSH1 0xA0 SHL SUB DUP3 AND SWAP2 DUP3 ISZERO SWAP1 DUP2 ISZERO PUSH2 0x6C7 JUMPI JUMPDEST POP PUSH2 0x6B9 JUMPI POP PUSH2 0x61E PUSH2 0x2118 JUMP JUMPDEST PUSH2 0x626 PUSH2 0x2118 JUMP JUMPDEST PUSH2 0x62F CALLER PUSH2 0x1E90 JUMP JUMPDEST PUSH2 0x637 PUSH2 0x2118 JUMP JUMPDEST PUSH2 0x63F PUSH2 0x2118 JUMP JUMPDEST PUSH2 0x647 PUSH2 0x2118 JUMP JUMPDEST PUSH1 0x1 PUSH1 0x0 DUP1 MLOAD PUSH1 0x20 PUSH2 0x21FD DUP4 CODECOPY DUP2 MLOAD SWAP2 MSTORE SSTORE PUSH2 0x661 PUSH2 0x2118 JUMP JUMPDEST DUP5 SLOAD PUSH1 0x1 PUSH1 0x1 PUSH1 0xA0 SHL SUB NOT AND OR DUP5 SSTORE PUSH2 0x678 JUMPI DUP3 DUP1 RETURN JUMPDEST DUP1 SLOAD PUSH9 0xFF0000000000000000 NOT AND SWAP1 SSTORE MLOAD PUSH1 0x1 DUP2 MSTORE PUSH32 0xC7F505B2F371AE2175EE4913F4499E1F2633A7B5936321EED1CDAEB6115181D2 SWAP1 PUSH1 0x20 SWAP1 LOG1 CODESIZE DUP1 DUP3 DUP1 RETURN JUMPDEST DUP5 MLOAD PUSH4 0xF580583 PUSH1 0xE1 SHL DUP2 MSTORE REVERT JUMPDEST SWAP1 POP EXTCODESIZE ISZERO CODESIZE PUSH2 0x610 JUMP JUMPDEST PUSH9 0xFFFFFFFFFFFFFFFFFF NOT AND PUSH9 0x10000000000000001 OR DUP5 SSTORE CODESIZE PUSH2 0x5FA JUMP JUMPDEST POP DUP5 MLOAD PUSH4 0xF92EE8A9 PUSH1 0xE0 SHL DUP2 MSTORE REVERT JUMPDEST SWAP1 POP ISZERO CODESIZE PUSH2 0x5DE JUMP JUMPDEST ADDRESS EXTCODESIZE ISZERO SWAP2 POP PUSH2 0x5D6 JUMP JUMPDEST DUP6 SWAP2 POP PUSH2 0x5CC JUMP JUMPDEST DUP4 DUP3 CALLVALUE PUSH2 0x185 JUMPI DUP2 PUSH1 0x3 NOT CALLDATASIZE ADD SLT PUSH2 0x185 JUMPI DUP1 MLOAD PUSH2 0x75F SWAP2 PUSH2 0x73B DUP3 PUSH2 0x17DB JUMP JUMPDEST PUSH1 0x5 DUP3 MSTORE PUSH5 0x352E302E3 PUSH1 0xDC SHL PUSH1 0x20 DUP4 ADD MSTORE MLOAD SWAP2 DUP3 SWAP2 PUSH1 0x20 DUP4 MSTORE PUSH1 0x20 DUP4 ADD SWAP1 PUSH2 0x198E JUMP JUMPDEST SUB SWAP1 RETURN JUMPDEST SWAP1 SWAP2 POP CALLVALUE PUSH2 0x56B JUMPI DUP2 PUSH1 0x3 NOT CALLDATASIZE ADD SLT PUSH2 0x56B JUMPI PUSH1 0x24 CALLDATALOAD SWAP2 DUP2 CALLDATALOAD DUP4 ISZERO DUP1 ISZERO PUSH2 0x8EE JUMPI JUMPDEST DUP1 ISZERO PUSH2 0x8E3 JUMPI JUMPDEST PUSH2 0x8D5 JUMPI DUP3 SLOAD SWAP4 DUP2 DUP6 GT ISZERO PUSH2 0x8CE JUMPI PUSH2 0x7A5 DUP3 DUP7 PUSH2 0x1B09 JUMP JUMPDEST SWAP1 JUMPDEST DUP1 DUP3 GT PUSH2 0x8C6 JUMPI JUMPDEST POP PUSH2 0x7B9 DUP2 PUSH2 0x1D63 JUMP JUMPDEST SWAP2 DUP7 SWAP6 PUSH1 0x2 SWAP3 PUSH1 0x2 SLOAD SWAP8 JUMPDEST DUP9 DUP2 LT DUP1 PUSH2 0x8BD JUMPI JUMPDEST ISZERO PUSH2 0x8AF JUMPI PUSH2 0x7EA PUSH2 0x7DE DUP3 PUSH2 0x1A99 JUMP JUMPDEST POP DUP10 PUSH1 0xFF SWAP3 DUP4 SWAP3 PUSH2 0x1C56 JUMP JUMPDEST ADD SLOAD AND DUP1 PUSH2 0x8A5 JUMPI JUMPDEST PUSH2 0x807 JUMPI JUMPDEST POP PUSH2 0x802 SWAP1 PUSH2 0x1D3D JUMP JUMPDEST PUSH2 0x7C4 JUMP JUMPDEST DUP2 SWAP11 DUP7 PUSH2 0x87E PUSH1 0x5 DUP12 PUSH2 0x89E SWAP6 DUP15 PUSH2 0x82A PUSH2 0x824 PUSH2 0x802 SWAP11 PUSH2 0x1A99 JUMP JUMPDEST POP PUSH2 0x1C56 JUMP JUMPDEST SWAP3 PUSH2 0x85F DUP2 MLOAD SWAP8 PUSH2 0x83A DUP10 PUSH2 0x17AA JUMP JUMPDEST PUSH2 0x843 DUP7 PUSH2 0x18E9 JUMP JUMPDEST DUP10 MSTORE PUSH1 0x1 DUP7 ADD SLOAD PUSH1 0x1 PUSH1 0x1 PUSH1 0xA0 SHL SUB AND PUSH1 0x20 DUP11 ADD MSTORE DUP6 ADD PUSH2 0x18E9 JUMP JUMPDEST SWAP1 DUP8 ADD MSTORE PUSH1 0x3 DUP4 ADD SLOAD PUSH1 0x60 DUP8 ADD MSTORE DUP3 ADD SLOAD AND ISZERO ISZERO PUSH1 0x80 DUP6 ADD MSTORE ADD PUSH2 0x18E9 JUMP JUMPDEST PUSH1 0xA0 DUP3 ADD MSTORE PUSH2 0x88D DUP3 DUP11 PUSH2 0x1DB3 JUMP JUMPDEST MSTORE PUSH2 0x898 DUP2 DUP10 PUSH2 0x1DB3 JUMP JUMPDEST POP PUSH2 0x1D3D JUMP JUMPDEST SWAP10 SWAP1 PUSH2 0x7F8 JUMP JUMPDEST POP DUP5 DUP3 LT ISZERO PUSH2 0x7F3 JUMP JUMPDEST DUP7 MLOAD DUP1 PUSH2 0x75F DUP6 DUP10 DUP4 PUSH2 0x1A2F JUMP JUMPDEST POP DUP2 DUP11 LT PUSH2 0x7CD JUMP JUMPDEST SWAP1 POP CODESIZE PUSH2 0x7AF JUMP JUMPDEST DUP6 SWAP1 PUSH2 0x7A7 JUMP JUMPDEST POP MLOAD PUSH4 0x29D976DF PUSH1 0xE1 SHL DUP2 MSTORE REVERT JUMPDEST POP DUP3 SLOAD DUP2 LT ISZERO PUSH2 0x78C JUMP JUMPDEST POP PUSH1 0x32 DUP5 GT PUSH2 0x785 JUMP JUMPDEST SWAP1 SWAP2 POP CALLVALUE PUSH2 0x56B JUMPI DUP3 PUSH1 0x3 NOT CALLDATASIZE ADD SLT PUSH2 0x56B JUMPI PUSH1 0x20 SWAP3 POP SLOAD SWAP1 MLOAD SWAP1 DUP2 MSTORE RETURN JUMPDEST DUP4 DUP3 CALLVALUE PUSH2 0x185 JUMPI DUP2 PUSH1 0x3 NOT CALLDATASIZE ADD SLT PUSH2 0x185 JUMPI PUSH1 0x20 SWAP1 MLOAD PUSH1 0x2A DUP2 MSTORE RETURN JUMPDEST SWAP1 DUP4 CALLVALUE PUSH2 0x166 JUMPI PUSH1 0x20 CALLDATASIZE PUSH1 0x3 NOT ADD SLT PUSH2 0x166 JUMPI DUP3 CALLDATALOAD PUSH1 0x2 SLOAD DUP2 LT ISZERO PUSH2 0x185 JUMPI PUSH2 0x95B SWAP1 PUSH2 0x1A99 JUMP JUMPDEST SWAP4 SWAP1 SWAP4 PUSH2 0x982 JUMPI PUSH2 0x75F DUP4 PUSH2 0x96F DUP7 PUSH2 0x18E9 JUMP JUMPDEST SWAP1 MLOAD SWAP2 DUP3 SWAP2 PUSH1 0x20 DUP4 MSTORE PUSH1 0x20 DUP4 ADD SWAP1 PUSH2 0x198E JUMP JUMPDEST PUSH4 0x4E487B71 PUSH1 0xE0 SHL DUP3 MSTORE DUP2 SWAP1 MSTORE PUSH1 0x24 SWAP1 REVERT JUMPDEST DUP4 DUP3 CALLVALUE PUSH2 0x185 JUMPI DUP2 PUSH1 0x3 NOT CALLDATASIZE ADD SLT PUSH2 0x185 JUMPI PUSH1 0x0 DUP1 MLOAD PUSH1 0x20 PUSH2 0x21BD DUP4 CODECOPY DUP2 MLOAD SWAP2 MSTORE SLOAD SWAP1 MLOAD PUSH1 0x1 PUSH1 0x1 PUSH1 0xA0 SHL SUB SWAP1 SWAP2 AND DUP2 MSTORE PUSH1 0x20 SWAP1 RETURN JUMPDEST SWAP1 DUP4 CALLVALUE PUSH2 0x166 JUMPI PUSH1 0x20 CALLDATASIZE PUSH1 0x3 NOT ADD SLT PUSH2 0x166 JUMPI DUP3 CALLDATALOAD SWAP1 PUSH1 0x1 PUSH1 0x1 PUSH1 0x40 SHL SUB DUP3 GT PUSH2 0x166 JUMPI POP PUSH1 0x20 PUSH2 0xA02 DUP2 SWAP5 PUSH2 0xA14 SWAP4 CALLDATASIZE SWAP2 ADD PUSH2 0x186E JUMP JUMPDEST DUP2 DUP5 MLOAD SWAP4 DUP3 DUP6 DUP1 SWAP5 MLOAD SWAP4 DUP5 SWAP3 ADD PUSH2 0x188C JUMP JUMPDEST DUP2 ADD PUSH1 0x3 DUP2 MSTORE SUB ADD SWAP1 KECCAK256 SLOAD SWAP1 MLOAD SWAP1 DUP2 MSTORE RETURN JUMPDEST DUP4 DUP3 CALLVALUE PUSH2 0x185 JUMPI DUP2 PUSH1 0x3 NOT CALLDATASIZE ADD SLT PUSH2 0x185 JUMPI PUSH1 0x20 PUSH32 0x62E78CEA01BEE320CD4E420270B5EA74000D11B0C9F74754EBDBFC544B05A258 SWAP2 PUSH2 0xA64 PUSH2 0x1FAE JUMP JUMPDEST PUSH2 0xA6C PUSH2 0x1F34 JUMP JUMPDEST PUSH1 0x0 DUP1 MLOAD PUSH1 0x20 PUSH2 0x21DD DUP4 CODECOPY DUP2 MLOAD SWAP2 MSTORE DUP1 SLOAD PUSH1 0xFF NOT AND PUSH1 0x1 OR SWAP1 SSTORE MLOAD CALLER DUP2 MSTORE LOG1 DUP1 RETURN JUMPDEST DUP4 CALLVALUE PUSH2 0x166 JUMPI DUP1 PUSH1 0x3 NOT CALLDATASIZE ADD SLT PUSH2 0x166 JUMPI PUSH2 0xAA7 PUSH2 0x1FAE JUMP JUMPDEST PUSH1 0x0 DUP1 MLOAD PUSH1 0x20 PUSH2 0x21BD DUP4 CODECOPY DUP2 MLOAD SWAP2 MSTORE DUP1 SLOAD PUSH1 0x1 PUSH1 0x1 PUSH1 0xA0 SHL SUB NOT DUP2 AND SWAP1 SWAP2 SSTORE DUP2 SWAP1 PUSH1 0x1 PUSH1 0x1 PUSH1 0xA0 SHL SUB AND PUSH32 0x8BE0079C531659141344CD1FD0A4F28419497F9722A3DAAFE3B4186F6B6457E0 DUP3 DUP1 LOG3 DUP1 RETURN JUMPDEST SWAP1 SWAP2 POP CALLVALUE PUSH2 0x56B JUMPI DUP2 PUSH1 0x3 NOT CALLDATASIZE ADD SLT PUSH2 0x56B JUMPI DUP1 CALLDATALOAD PUSH1 0x1 PUSH1 0x1 PUSH1 0x40 SHL SUB DUP2 GT PUSH2 0xCC8 JUMPI PUSH2 0xB28 SWAP1 CALLDATASIZE SWAP1 DUP4 ADD PUSH2 0x186E JUMP JUMPDEST SWAP2 PUSH1 0x24 CALLDATALOAD SWAP3 PUSH2 0xB35 PUSH2 0x1F04 JUMP JUMPDEST PUSH2 0xB3D PUSH2 0x1F34 JUMP JUMPDEST DUP2 MLOAD PUSH1 0x20 DUP2 DUP4 MLOAD PUSH2 0xB51 DUP2 DUP4 DUP6 DUP9 ADD PUSH2 0x188C JUMP JUMPDEST DUP2 ADD PUSH1 0x1 DUP2 MSTORE SUB ADD SWAP1 KECCAK256 PUSH1 0xFF DUP5 DUP3 ADD SLOAD AND ISZERO PUSH2 0xCB9 JUMPI PUSH1 0x1 DUP2 ADD SLOAD PUSH1 0x1 PUSH1 0x1 PUSH1 0xA0 SHL SUB SWAP2 SWAP1 DUP3 AND CALLER SUB PUSH2 0xCAA JUMPI DUP6 ISZERO PUSH2 0xC9A JUMPI PUSH1 0x3 ADD SWAP1 DUP2 SLOAD PUSH1 0x2A DUP2 MUL SWAP1 DUP1 DUP3 DIV PUSH1 0x2A EQ DUP2 ISZERO OR ISZERO PUSH2 0xC87 JUMPI PUSH2 0xBAD SWAP1 PUSH2 0x2710 DUP1 SWAP4 DIV SWAP1 PUSH2 0x1AE6 JUMP JUMPDEST SWAP6 PUSH1 0x2A DUP9 MUL SWAP1 DUP9 DUP3 DIV PUSH1 0x2A SUB PUSH2 0xC74 JUMPI POP SWAP3 PUSH32 0x9CE0E3C72308775F6E26F82EC688446A112AA95D9D95BA42167F7144DAD8C8C9 SWAP6 SWAP5 SWAP3 DUP9 SWAP3 PUSH2 0xC20 SWAP6 DIV SWAP8 PUSH2 0xBF5 DUP10 DUP6 PUSH2 0x1AE6 JUMP JUMPDEST SWAP2 DUP2 DUP4 GT ISZERO PUSH2 0xC43 JUMPI PUSH2 0xC1A SWAP3 SWAP2 PUSH2 0xC10 SWAP2 DUP14 SLOAD AND SWAP3 PUSH2 0x1B09 JUMP JUMPDEST SWAP1 ADDRESS SWAP1 CALLER SWAP1 PUSH2 0x1FE7 JUMP JUMPDEST SSTORE PUSH2 0x1CEA JUMP JUMPDEST SWAP3 DUP2 MLOAD SWAP5 DUP6 MSTORE PUSH1 0x20 DUP6 ADD MSTORE CALLER SWAP4 LOG3 PUSH1 0x1 PUSH1 0x0 DUP1 MLOAD PUSH1 0x20 PUSH2 0x21FD DUP4 CODECOPY DUP2 MLOAD SWAP2 MSTORE SSTORE DUP1 RETURN JUMPDEST DUP2 DUP4 LT PUSH2 0xC53 JUMPI JUMPDEST POP POP POP PUSH2 0xC1A JUMP JUMPDEST PUSH2 0xC6C SWAP3 PUSH2 0xC64 SWAP2 DUP14 SLOAD AND SWAP3 PUSH2 0x1B09 JUMP JUMPDEST SWAP1 CALLER SWAP1 PUSH2 0x1F5F JUMP JUMPDEST CODESIZE DUP1 DUP1 PUSH2 0xC4B JUMP JUMPDEST PUSH4 0x4E487B71 PUSH1 0xE0 SHL DUP11 MSTORE PUSH1 0x11 SWAP1 MSTORE PUSH1 0x24 DUP10 REVERT JUMPDEST PUSH4 0x4E487B71 PUSH1 0xE0 SHL DUP10 MSTORE PUSH1 0x11 DUP8 MSTORE PUSH1 0x24 DUP10 REVERT JUMPDEST POP POP POP MLOAD PUSH4 0x41BECD2F PUSH1 0xE1 SHL DUP2 MSTORE REVERT JUMPDEST POP POP POP MLOAD PUSH3 0x82B429 PUSH1 0xE8 SHL DUP2 MSTORE REVERT JUMPDEST POP POP MLOAD PUSH4 0x168DB567 PUSH1 0xE3 SHL DUP2 MSTORE REVERT JUMPDEST DUP4 DUP1 REVERT JUMPDEST DUP4 DUP3 CALLVALUE PUSH2 0x185 JUMPI DUP2 PUSH1 0x3 NOT CALLDATASIZE ADD SLT PUSH2 0x185 JUMPI PUSH1 0x20 SWAP1 PUSH1 0xFF PUSH1 0x0 DUP1 MLOAD PUSH1 0x20 PUSH2 0x21DD DUP4 CODECOPY DUP2 MLOAD SWAP2 MSTORE SLOAD AND SWAP1 MLOAD SWAP1 ISZERO ISZERO DUP2 MSTORE RETURN JUMPDEST DUP4 DUP3 CALLVALUE PUSH2 0x185 JUMPI PUSH1 0x60 SWAP2 PUSH1 0x60 PUSH1 0x3 NOT CALLDATASIZE ADD SLT PUSH2 0x166 JUMPI PUSH2 0xD1B PUSH2 0x1A19 JUMP JUMPDEST SWAP3 PUSH1 0x24 CALLDATALOAD SWAP4 PUSH1 0x44 CALLDATALOAD SWAP2 DUP3 ISZERO DUP1 ISZERO PUSH2 0xF03 JUMPI JUMPDEST PUSH2 0xEF3 JUMPI DUP4 SWAP2 DUP5 SWAP7 PUSH1 0x2 SWAP4 PUSH1 0x2 SLOAD SWAP9 JUMPDEST DUP10 DUP2 LT PUSH2 0xEA1 JUMPI POP DUP1 DUP3 LT ISZERO PUSH2 0xE91 JUMPI DUP2 DUP2 GT ISZERO PUSH2 0xE8A JUMPI PUSH2 0xD5F DUP3 DUP3 PUSH2 0x1B09 JUMP JUMPDEST SWAP6 JUMPDEST DUP1 DUP8 GT PUSH2 0xE82 JUMPI JUMPDEST POP PUSH2 0xD73 DUP7 PUSH2 0x1D63 JUMP JUMPDEST SWAP6 DUP8 JUMPDEST DUP11 DUP2 LT DUP1 PUSH2 0xE79 JUMPI JUMPDEST ISZERO PUSH2 0xE6B JUMPI DUP10 PUSH2 0xD9E DUP14 PUSH2 0xD92 DUP5 PUSH2 0x1A99 JUMP JUMPDEST POP DUP2 PUSH1 0xFF SWAP4 DUP5 SWAP3 PUSH2 0x1C56 JUMP JUMPDEST ADD SLOAD AND DUP1 PUSH2 0xE3D JUMPI JUMPDEST DUP1 PUSH2 0xE33 JUMPI JUMPDEST PUSH2 0xDC3 JUMPI JUMPDEST POP POP POP PUSH2 0xDBE SWAP1 PUSH2 0x1D3D JUMP JUMPDEST PUSH2 0xD76 JUMP JUMPDEST PUSH2 0xE0E PUSH1 0x5 PUSH2 0xE28 SWAP5 DUP7 SWAP15 SWAP5 DUP14 SWAP5 PUSH2 0xDE0 PUSH2 0x824 PUSH2 0xDBE SWAP11 PUSH2 0x1A99 JUMP JUMPDEST SWAP3 PUSH2 0xDF0 DUP2 MLOAD SWAP8 PUSH2 0x83A DUP10 PUSH2 0x17AA JUMP JUMPDEST SWAP1 DUP8 ADD MSTORE PUSH1 0x3 DUP4 ADD SLOAD DUP15 DUP8 ADD MSTORE DUP3 ADD SLOAD AND ISZERO ISZERO PUSH1 0x80 DUP6 ADD MSTORE ADD PUSH2 0x18E9 JUMP JUMPDEST PUSH1 0xA0 DUP3 ADD MSTORE PUSH2 0xE1D DUP3 DUP13 PUSH2 0x1DB3 JUMP JUMPDEST MSTORE PUSH2 0x898 DUP2 DUP12 PUSH2 0x1DB3 JUMP JUMPDEST SWAP9 SWAP1 POP DUP10 DUP14 DUP14 PUSH2 0xDB2 JUMP JUMPDEST POP DUP7 DUP5 LT ISZERO PUSH2 0xDAD JUMP JUMPDEST POP PUSH2 0xE5F PUSH2 0xE4A DUP6 PUSH2 0x1A99 JUMP JUMPDEST POP PUSH1 0x1 PUSH1 0x1 PUSH1 0xA0 SHL SUB SWAP2 DUP3 SWAP2 PUSH1 0x1 SWAP2 SWAP1 PUSH2 0x1C56 JUMP JUMPDEST ADD SLOAD AND SWAP1 DUP10 AND EQ PUSH2 0xDA7 JUMP JUMPDEST DUP10 MLOAD DUP1 PUSH2 0x75F DUP6 DUP12 DUP4 PUSH2 0x1A2F JUMP JUMPDEST POP DUP2 DUP10 LT PUSH2 0xD7F JUMP JUMPDEST SWAP6 POP DUP11 PUSH2 0xD69 JUMP JUMPDEST DUP7 SWAP6 PUSH2 0xD61 JUMP JUMPDEST DUP8 MLOAD PUSH4 0x29D976DF PUSH1 0xE1 SHL DUP2 MSTORE DUP11 SWAP1 REVERT JUMPDEST PUSH1 0xFF DUP12 PUSH2 0xEB0 PUSH2 0x824 DUP5 PUSH2 0x1A99 JUMP JUMPDEST ADD SLOAD AND DUP1 PUSH2 0xEDA JUMPI JUMPDEST PUSH2 0xEC6 JUMPI JUMPDEST PUSH1 0x1 ADD PUSH2 0xD3D JUMP JUMPDEST SWAP1 PUSH2 0xED2 PUSH1 0x1 SWAP2 PUSH2 0x1D3D JUMP JUMPDEST SWAP2 SWAP1 POP PUSH2 0xEBE JUMP JUMPDEST POP PUSH2 0xEE7 PUSH2 0xE4A DUP3 PUSH2 0x1A99 JUMP JUMPDEST ADD SLOAD AND SWAP1 DUP6 AND EQ PUSH2 0xEB9 JUMP JUMPDEST DUP5 MLOAD PUSH4 0x29D976DF PUSH1 0xE1 SHL DUP2 MSTORE DUP8 SWAP1 REVERT JUMPDEST POP PUSH1 0x32 DUP4 GT PUSH2 0xD2D JUMP JUMPDEST SWAP1 DUP4 CALLVALUE PUSH2 0x166 JUMPI DUP1 PUSH1 0x3 NOT CALLDATASIZE ADD SLT PUSH2 0x166 JUMPI POP PUSH32 0x0 PUSH1 0x1 PUSH1 0x1 PUSH1 0xA0 SHL SUB AND ADDRESS SUB PUSH2 0xF79 JUMPI PUSH1 0x20 SWAP1 MLOAD PUSH32 0x360894A13BA1A3210667C828492DB98DCA3E2076CC3735A920A3CA505D382BBC DUP2 MSTORE RETURN JUMPDEST MLOAD PUSH4 0x703E46DD PUSH1 0xE1 SHL DUP2 MSTORE REVERT JUMPDEST SWAP2 POP DUP1 PUSH1 0x3 NOT CALLDATASIZE ADD SLT PUSH2 0x56B JUMPI PUSH2 0xF9B PUSH2 0x1A19 JUMP JUMPDEST SWAP1 PUSH1 0x24 CALLDATALOAD PUSH1 0x1 PUSH1 0x1 PUSH1 0x40 SHL SUB DUP2 GT PUSH2 0x567 JUMPI CALLDATASIZE PUSH1 0x23 DUP3 ADD SLT ISZERO PUSH2 0x567 JUMPI PUSH2 0xFCB SWAP1 CALLDATASIZE SWAP1 PUSH1 0x24 DUP2 DUP8 ADD CALLDATALOAD SWAP2 ADD PUSH2 0x1832 JUMP JUMPDEST PUSH1 0x1 PUSH1 0x1 PUSH1 0xA0 SHL SUB PUSH32 0x0 DUP2 AND ADDRESS DUP2 EQ SWAP1 DUP2 ISZERO PUSH2 0x1198 JUMPI JUMPDEST POP PUSH2 0x1188 JUMPI PUSH2 0x100E PUSH2 0x1FAE JUMP JUMPDEST DUP3 MLOAD PUSH4 0x52D1902D PUSH1 0xE0 SHL DUP2 MSTORE SWAP1 DUP5 AND SWAP4 PUSH1 0x20 SWAP2 DUP3 DUP2 DUP9 DUP2 DUP10 GAS STATICCALL DUP9 SWAP2 DUP2 PUSH2 0x1155 JUMPI JUMPDEST POP PUSH2 0x104C JUMPI DUP5 MLOAD PUSH4 0x4C9C8CE3 PUSH1 0xE0 SHL DUP2 MSTORE DUP1 DUP9 ADD DUP8 SWAP1 MSTORE PUSH1 0x24 SWAP1 REVERT JUMPDEST PUSH32 0x360894A13BA1A3210667C828492DB98DCA3E2076CC3735A920A3CA505D382BBC SWAP7 SWAP3 SWAP6 SWAP2 SWAP4 SWAP7 SWAP1 DUP2 DUP2 SUB PUSH2 0x113F JUMPI POP DUP4 EXTCODESIZE ISZERO PUSH2 0x1128 JUMPI DUP1 SLOAD PUSH1 0x1 PUSH1 0x1 PUSH1 0xA0 SHL SUB NOT AND DUP3 OR SWAP1 SSTORE DUP4 MLOAD DUP8 SWAP3 SWAP2 PUSH32 0xBC7CD75A20EE27FD9ADEBAB32041F755214DBC6BFFA90CC0225B39DA2E5C2D3B DUP5 DUP1 LOG2 DUP7 MLOAD ISZERO PUSH2 0x110B JUMPI POP POP DUP1 DUP6 DUP6 PUSH2 0x10FD SWAP8 MLOAD SWAP2 ADD DUP5 GAS DELEGATECALL SWAP2 RETURNDATASIZE ISZERO PUSH2 0x1101 JUMPI RETURNDATASIZE PUSH2 0x10EF PUSH2 0x10E6 DUP3 PUSH2 0x1817 JUMP JUMPDEST SWAP3 MLOAD SWAP3 DUP4 PUSH2 0x17F6 JUMP JUMPDEST DUP2 MSTORE DUP6 DUP2 SWAP5 RETURNDATASIZE SWAP3 ADD RETURNDATACOPY PUSH2 0x2159 JUMP JUMPDEST POP DUP1 RETURN JUMPDEST POP PUSH1 0x60 SWAP3 POP PUSH2 0x2159 JUMP JUMPDEST SWAP5 POP SWAP5 POP POP POP POP CALLVALUE PUSH2 0x111C JUMPI POP POP DUP1 RETURN JUMPDEST PUSH4 0xB398979F PUSH1 0xE0 SHL DUP2 MSTORE REVERT JUMPDEST DUP5 MLOAD PUSH4 0x4C9C8CE3 PUSH1 0xE0 SHL DUP2 MSTORE DUP1 DUP5 ADD DUP4 SWAP1 MSTORE PUSH1 0x24 SWAP1 REVERT JUMPDEST DUP4 PUSH1 0x24 SWAP2 DUP8 MLOAD SWAP2 PUSH4 0x2A875269 PUSH1 0xE2 SHL DUP4 MSTORE DUP3 ADD MSTORE REVERT JUMPDEST SWAP1 SWAP2 POP DUP4 DUP2 DUP2 RETURNDATASIZE DUP4 GT PUSH2 0x1181 JUMPI JUMPDEST PUSH2 0x116D DUP2 DUP4 PUSH2 0x17F6 JUMP JUMPDEST DUP2 ADD SUB SLT PUSH2 0x117D JUMPI MLOAD SWAP1 CODESIZE PUSH2 0x1030 JUMP JUMPDEST DUP9 DUP1 REVERT JUMPDEST POP RETURNDATASIZE PUSH2 0x1163 JUMP JUMPDEST DUP3 MLOAD PUSH4 0x703E46DD PUSH1 0xE1 SHL DUP2 MSTORE DUP6 SWAP1 REVERT JUMPDEST SWAP1 POP DUP2 PUSH32 0x360894A13BA1A3210667C828492DB98DCA3E2076CC3735A920A3CA505D382BBC SLOAD AND EQ ISZERO CODESIZE PUSH2 0x1001 JUMP JUMPDEST DUP4 DUP3 CALLVALUE PUSH2 0x185 JUMPI DUP2 PUSH1 0x3 NOT CALLDATASIZE ADD SLT PUSH2 0x185 JUMPI PUSH1 0x20 SWAP1 MLOAD PUSH1 0x32 DUP2 MSTORE RETURN JUMPDEST SWAP1 SWAP2 POP CALLVALUE PUSH2 0x56B JUMPI DUP3 PUSH1 0x3 NOT CALLDATASIZE ADD SLT PUSH2 0x56B JUMPI PUSH2 0x11FD PUSH2 0x1FAE JUMP JUMPDEST PUSH1 0x0 DUP1 MLOAD PUSH1 0x20 PUSH2 0x21DD DUP4 CODECOPY DUP2 MLOAD SWAP2 MSTORE SWAP1 DUP2 SLOAD SWAP1 PUSH1 0xFF DUP3 AND ISZERO PUSH2 0x124D JUMPI POP PUSH1 0xFF NOT AND SWAP1 SSTORE MLOAD CALLER DUP2 MSTORE PUSH32 0x5DB9EE0A495BF2E6FF9C91A7834C1BA4FDD244A5E8AA4E537BD38AEAE4B073AA SWAP1 PUSH1 0x20 SWAP1 LOG1 DUP1 RETURN JUMPDEST DUP4 MLOAD PUSH4 0x8DFC202B PUSH1 0xE0 SHL DUP2 MSTORE REVERT JUMPDEST DUP4 DUP3 CALLVALUE PUSH2 0x185 JUMPI DUP2 PUSH1 0x3 NOT CALLDATASIZE ADD SLT PUSH2 0x185 JUMPI SWAP1 SLOAD SWAP1 MLOAD PUSH1 0x1 PUSH1 0x1 PUSH1 0xA0 SHL SUB SWAP1 SWAP2 AND DUP2 MSTORE PUSH1 0x20 SWAP1 RETURN JUMPDEST DUP4 DUP3 CALLVALUE PUSH2 0x185 JUMPI PUSH1 0x20 SWAP2 DUP3 PUSH1 0x3 NOT CALLDATASIZE ADD SLT PUSH2 0x166 JUMPI DUP4 CALLDATALOAD SWAP1 PUSH1 0x1 PUSH1 0x1 PUSH1 0x40 SHL SUB DUP3 GT PUSH2 0x166 JUMPI POP SWAP1 PUSH2 0x133F PUSH1 0x5 PUSH2 0x12DF DUP6 PUSH2 0x12C4 PUSH2 0x75F SWAP7 CALLDATASIZE SWAP1 DUP11 ADD PUSH2 0x186E JUMP JUMPDEST PUSH2 0x12CC PUSH2 0x1D0A JUMP JUMPDEST POP DUP2 DUP7 MLOAD SWAP4 DUP3 DUP6 DUP1 SWAP5 MLOAD SWAP4 DUP5 SWAP3 ADD PUSH2 0x188C JUMP JUMPDEST DUP2 ADD PUSH1 0x1 DUP2 MSTORE SUB ADD SWAP1 KECCAK256 PUSH1 0xFF DUP5 MLOAD SWAP8 PUSH2 0x12F7 DUP10 PUSH2 0x17AA JUMP JUMPDEST PUSH2 0x1300 DUP4 PUSH2 0x18E9 JUMP JUMPDEST DUP10 MSTORE PUSH1 0x1 DUP4 ADD SLOAD PUSH1 0x1 PUSH1 0x1 PUSH1 0xA0 SHL SUB AND DUP9 DUP11 ADD MSTORE PUSH2 0x1320 PUSH1 0x2 DUP5 ADD PUSH2 0x18E9 JUMP JUMPDEST DUP7 DUP11 ADD MSTORE PUSH1 0x3 DUP4 ADD SLOAD PUSH1 0x60 DUP11 ADD MSTORE DUP3 ADD SLOAD AND ISZERO ISZERO PUSH1 0x80 DUP9 ADD MSTORE ADD PUSH2 0x18E9 JUMP JUMPDEST PUSH1 0xA0 DUP6 ADD MSTORE MLOAD SWAP3 DUP3 DUP5 SWAP4 DUP5 MSTORE DUP4 ADD SWAP1 PUSH2 0x19B3 JUMP JUMPDEST SWAP1 DUP4 CALLVALUE PUSH2 0x166 JUMPI PUSH1 0x20 CALLDATASIZE PUSH1 0x3 NOT ADD SLT PUSH2 0x166 JUMPI DUP3 CALLDATALOAD SWAP1 PUSH1 0x1 PUSH1 0x1 PUSH1 0x40 SHL SUB DUP3 GT PUSH2 0x166 JUMPI POP PUSH2 0x1404 SWAP3 PUSH2 0x13A3 PUSH1 0x20 PUSH2 0x1391 PUSH2 0x75F SWAP5 CALLDATASIZE SWAP1 DUP6 ADD PUSH2 0x186E JUMP JUMPDEST DUP2 DUP7 MLOAD SWAP4 DUP3 DUP6 DUP1 SWAP5 MLOAD SWAP4 DUP5 SWAP3 ADD PUSH2 0x188C JUMP JUMPDEST DUP2 ADD PUSH1 0x1 DUP2 MSTORE SUB ADD SWAP1 KECCAK256 SWAP3 PUSH2 0x13B7 DUP5 PUSH2 0x18E9 JUMP JUMPDEST PUSH1 0x1 DUP6 ADD SLOAD SWAP1 SWAP5 SWAP1 PUSH2 0x1416 SWAP1 PUSH1 0x1 PUSH1 0x1 PUSH1 0xA0 SHL SUB AND PUSH2 0x13D8 PUSH1 0x2 DUP5 ADD PUSH2 0x18E9 JUMP JUMPDEST PUSH2 0x13F0 PUSH1 0x5 PUSH1 0xFF PUSH1 0x3 DUP8 ADD SLOAD SWAP9 DUP8 ADD SLOAD AND SWAP6 ADD PUSH2 0x18E9 JUMP JUMPDEST SWAP5 DUP1 MLOAD SWAP10 DUP11 SWAP10 PUSH1 0xC0 DUP12 MSTORE PUSH1 0xC0 DUP12 ADD SWAP1 PUSH2 0x198E JUMP JUMPDEST SWAP3 PUSH1 0x20 DUP11 ADD MSTORE DUP9 DUP4 SUB SWAP1 DUP10 ADD MSTORE PUSH2 0x198E JUMP JUMPDEST SWAP3 PUSH1 0x60 DUP7 ADD MSTORE ISZERO ISZERO PUSH1 0x80 DUP6 ADD MSTORE DUP4 DUP3 SUB PUSH1 0xA0 DUP6 ADD MSTORE PUSH2 0x198E JUMP JUMPDEST SWAP2 POP CALLVALUE PUSH2 0x56B JUMPI PUSH1 0x20 DUP1 PUSH1 0x3 NOT CALLDATASIZE ADD SLT PUSH2 0xCC8 JUMPI DUP3 CALLDATALOAD PUSH1 0x1 PUSH1 0x1 PUSH1 0x40 SHL SUB DUP2 GT PUSH2 0x567 JUMPI PUSH2 0x1461 SWAP1 CALLDATASIZE SWAP1 DUP6 ADD PUSH2 0x186E JUMP JUMPDEST PUSH2 0x1469 PUSH2 0x1F04 JUMP JUMPDEST PUSH2 0x1471 PUSH2 0x1F34 JUMP JUMPDEST DUP3 MLOAD DUP2 MLOAD SWAP1 DUP4 DUP2 DUP2 DUP6 ADD SWAP4 PUSH2 0x1487 DUP2 DUP4 DUP8 PUSH2 0x188C JUMP JUMPDEST DUP2 ADD PUSH1 0x1 DUP2 MSTORE SUB ADD SWAP1 KECCAK256 SWAP1 DUP6 DUP3 ADD SWAP6 DUP7 SLOAD PUSH1 0xFF DUP2 AND ISZERO PUSH2 0x1780 JUMPI PUSH1 0x1 DUP5 ADD SLOAD PUSH1 0x1 PUSH1 0x1 PUSH1 0xA0 SHL SUB SWAP5 SWAP1 DUP6 AND CALLER SUB PUSH2 0x1771 JUMPI PUSH1 0x3 ADD SLOAD PUSH1 0x2A DUP2 MUL DUP2 DUP2 DIV PUSH1 0x2A EQ DUP3 ISZERO OR ISZERO PUSH2 0x175E JUMPI SWAP1 PUSH2 0x2710 PUSH2 0x14DD SWAP3 DIV SWAP1 PUSH2 0x1AE6 JUMP JUMPDEST PUSH1 0xFF NOT SWAP2 DUP3 AND SWAP1 SWAP9 SSTORE DUP2 SLOAD SWAP1 DUP2 ISZERO PUSH2 0x174B JUMPI SWAP1 DUP9 SWAP5 SWAP4 SWAP3 SWAP2 PUSH1 0x0 NOT DUP1 SWAP3 ADD DUP4 SSTORE DUP9 MLOAD DUP9 DUP2 DUP10 MLOAD PUSH2 0x150E DUP2 DUP4 DUP11 PUSH2 0x188C JUMP JUMPDEST DUP2 ADD PUSH1 0x3 DUP2 MSTORE SUB ADD SWAP1 KECCAK256 SLOAD SWAP1 PUSH1 0x2 SLOAD DUP1 DUP4 LT PUSH2 0x157F JUMPI JUMPDEST DUP13 DUP9 DUP13 PUSH32 0xE32C17C71F4E61848AEC6C558AF72EC21F2A857393F3AB42D61B4C80E0D667AA DUP14 PUSH2 0x1562 DUP15 PUSH2 0x155D DUP7 DUP16 CALLER SWAP1 DUP11 SLOAD AND PUSH2 0x1F5F JUMP JUMPDEST PUSH2 0x1CEA JUMP JUMPDEST SWAP3 MLOAD SWAP4 DUP5 MSTORE CALLER SWAP4 LOG3 PUSH1 0x1 PUSH1 0x0 DUP1 MLOAD PUSH1 0x20 PUSH2 0x21FD DUP4 CODECOPY DUP2 MLOAD SWAP2 MSTORE SSTORE DUP1 RETURN JUMPDEST SWAP1 SWAP2 SWAP3 DUP1 SWAP5 SWAP6 SWAP7 SWAP8 POP DUP2 ADD SWAP1 DUP2 GT PUSH2 0x1738 JUMPI PUSH2 0x159A SWAP1 PUSH2 0x1A99 JUMP JUMPDEST POP PUSH2 0x15A4 DUP4 PUSH2 0x1A99 JUMP JUMPDEST PUSH2 0x1726 JUMPI SWAP1 PUSH2 0x15B2 SWAP2 PUSH2 0x1B72 JUMP JUMPDEST DUP8 DUP12 PUSH2 0x15BD DUP5 PUSH2 0x1A99 JUMP JUMPDEST POP DUP12 MLOAD SWAP4 DUP5 SWAP3 SWAP2 DUP1 SLOAD PUSH2 0x15CF DUP2 PUSH2 0x18AF JUMP JUMPDEST SWAP3 PUSH1 0x1 DUP3 AND SWAP2 DUP3 ISZERO PUSH2 0x1712 JUMPI POP POP PUSH1 0x1 EQ PUSH2 0x16DF JUMPI JUMPDEST POP POP PUSH1 0x3 DUP2 MSTORE SUB ADD SWAP1 KECCAK256 SSTORE PUSH1 0x2 SLOAD DUP1 ISZERO PUSH2 0x16CC JUMPI ADD SWAP1 PUSH2 0x1604 DUP3 PUSH2 0x1A99 JUMP JUMPDEST SWAP2 SWAP1 SWAP2 PUSH2 0x16BA JUMPI POP PUSH2 0x1562 SWAP4 DUP10 PUSH2 0x1667 DUP9 PUSH32 0xE32C17C71F4E61848AEC6C558AF72EC21F2A857393F3AB42D61B4C80E0D667AA SWAP10 SWAP9 SWAP7 PUSH2 0x155D SWAP7 DUP5 DUP8 DUP16 SWAP9 PUSH2 0x164B SWAP1 SLOAD PUSH2 0x18AF JUMP JUMPDEST DUP1 PUSH2 0x167E JUMPI JUMPDEST POP POP POP PUSH1 0x2 SSTORE DUP12 MLOAD DUP1 SWAP4 DUP2 SWAP3 DUP11 MLOAD SWAP3 DUP4 SWAP2 PUSH2 0x188C JUMP JUMPDEST DUP2 ADD PUSH1 0x3 DUP2 MSTORE SUB ADD SWAP1 KECCAK256 SSTORE SWAP3 SWAP5 SWAP6 DUP2 SWAP5 CODESIZE DUP1 PUSH2 0x1525 JUMP JUMPDEST DUP3 PUSH1 0x1F DUP3 GT PUSH1 0x1 EQ PUSH2 0x1696 JUMPI POP POP SSTORE JUMPDEST DUP5 CODESIZE DUP1 PUSH2 0x1651 JUMP JUMPDEST SWAP1 SWAP2 DUP1 DUP3 MSTORE PUSH2 0x16B3 PUSH1 0x1F DUP9 DUP5 KECCAK256 SWAP5 ADD PUSH1 0x5 SHR DUP5 ADD PUSH1 0x1 DUP6 ADD PUSH2 0x1B16 JUMP JUMPDEST SSTORE SSTORE PUSH2 0x168E JUMP JUMPDEST PUSH4 0x4E487B71 PUSH1 0xE0 SHL DUP11 MSTORE DUP10 SWAP1 MSTORE PUSH1 0x24 DUP10 REVERT JUMPDEST PUSH4 0x4E487B71 PUSH1 0xE0 SHL DUP11 MSTORE PUSH1 0x31 DUP4 MSTORE PUSH1 0x24 DUP11 REVERT JUMPDEST SWAP1 SWAP2 POP DUP15 MSTORE DUP14 DUP4 DUP2 KECCAK256 JUMPDEST DUP3 DUP3 LT PUSH2 0x16FB JUMPI POP POP DUP2 ADD CODESIZE DUP1 PUSH2 0x15E5 JUMP JUMPDEST DUP1 SLOAD DUP7 DUP4 ADD MSTORE DUP13 SWAP5 DUP7 SWAP5 POP SWAP1 SWAP2 ADD SWAP1 PUSH1 0x1 ADD PUSH2 0x16E9 JUMP JUMPDEST AND DUP6 MSTORE POP POP DUP1 ISZERO ISZERO MUL DUP3 ADD SWAP1 POP CODESIZE DUP1 PUSH2 0x15E5 JUMP JUMPDEST PUSH4 0x4E487B71 PUSH1 0xE0 SHL DUP14 MSTORE DUP13 DUP7 MSTORE PUSH1 0x24 DUP14 REVERT JUMPDEST PUSH4 0x4E487B71 PUSH1 0xE0 SHL DUP13 MSTORE PUSH1 0x11 DUP6 MSTORE PUSH1 0x24 DUP13 REVERT JUMPDEST PUSH4 0x4E487B71 PUSH1 0xE0 SHL DUP11 MSTORE PUSH1 0x11 DUP4 MSTORE PUSH1 0x24 DUP11 REVERT JUMPDEST PUSH4 0x4E487B71 PUSH1 0xE0 SHL DUP12 MSTORE PUSH1 0x11 DUP5 MSTORE PUSH1 0x24 DUP12 REVERT JUMPDEST DUP8 MLOAD PUSH3 0x82B429 PUSH1 0xE8 SHL DUP2 MSTORE DUP4 SWAP1 REVERT JUMPDEST POP DUP6 MLOAD PUSH4 0x168DB567 PUSH1 0xE3 SHL DUP2 MSTORE REVERT JUMPDEST DUP5 SWAP2 CALLVALUE PUSH2 0x56B JUMPI DUP3 PUSH1 0x3 NOT CALLDATASIZE ADD SLT PUSH2 0x56B JUMPI PUSH1 0x20 SWAP3 POP SLOAD DUP2 MSTORE RETURN JUMPDEST PUSH1 0xC0 DUP2 ADD SWAP1 DUP2 LT PUSH1 0x1 PUSH1 0x1 PUSH1 0x40 SHL SUB DUP3 GT OR PUSH2 0x17C5 JUMPI PUSH1 0x40 MSTORE JUMP JUMPDEST PUSH4 0x4E487B71 PUSH1 0xE0 SHL PUSH1 0x0 MSTORE PUSH1 0x41 PUSH1 0x4 MSTORE PUSH1 0x24 PUSH1 0x0 REVERT JUMPDEST PUSH1 0x40 DUP2 ADD SWAP1 DUP2 LT PUSH1 0x1 PUSH1 0x1 PUSH1 0x40 SHL SUB DUP3 GT OR PUSH2 0x17C5 JUMPI PUSH1 0x40 MSTORE JUMP JUMPDEST SWAP1 PUSH1 0x1F DUP1 NOT SWAP2 ADD AND DUP2 ADD SWAP1 DUP2 LT PUSH1 0x1 PUSH1 0x1 PUSH1 0x40 SHL SUB DUP3 GT OR PUSH2 0x17C5 JUMPI PUSH1 0x40 MSTORE JUMP JUMPDEST PUSH1 0x1 PUSH1 0x1 PUSH1 0x40 SHL SUB DUP2 GT PUSH2 0x17C5 JUMPI PUSH1 0x1F ADD PUSH1 0x1F NOT AND PUSH1 0x20 ADD SWAP1 JUMP JUMPDEST SWAP3 SWAP2 SWAP3 PUSH2 0x183E DUP3 PUSH2 0x1817 JUMP JUMPDEST SWAP2 PUSH2 0x184C PUSH1 0x40 MLOAD SWAP4 DUP5 PUSH2 0x17F6 JUMP JUMPDEST DUP3 SWAP5 DUP2 DUP5 MSTORE DUP2 DUP4 ADD GT PUSH2 0x1869 JUMPI DUP3 DUP2 PUSH1 0x20 SWAP4 DUP5 PUSH1 0x0 SWAP7 ADD CALLDATACOPY ADD ADD MSTORE JUMP JUMPDEST PUSH1 0x0 DUP1 REVERT JUMPDEST SWAP1 DUP1 PUSH1 0x1F DUP4 ADD SLT ISZERO PUSH2 0x1869 JUMPI DUP2 PUSH1 0x20 PUSH2 0x1889 SWAP4 CALLDATALOAD SWAP2 ADD PUSH2 0x1832 JUMP JUMPDEST SWAP1 JUMP JUMPDEST PUSH1 0x0 JUMPDEST DUP4 DUP2 LT PUSH2 0x189F JUMPI POP POP PUSH1 0x0 SWAP2 ADD MSTORE JUMP JUMPDEST DUP2 DUP2 ADD MLOAD DUP4 DUP3 ADD MSTORE PUSH1 0x20 ADD PUSH2 0x188F JUMP JUMPDEST SWAP1 PUSH1 0x1 DUP3 DUP2 SHR SWAP3 AND DUP1 ISZERO PUSH2 0x18DF JUMPI JUMPDEST PUSH1 0x20 DUP4 LT EQ PUSH2 0x18C9 JUMPI JUMP JUMPDEST PUSH4 0x4E487B71 PUSH1 0xE0 SHL PUSH1 0x0 MSTORE PUSH1 0x22 PUSH1 0x4 MSTORE PUSH1 0x24 PUSH1 0x0 REVERT JUMPDEST SWAP2 PUSH1 0x7F AND SWAP2 PUSH2 0x18BE JUMP JUMPDEST SWAP1 PUSH1 0x40 MLOAD SWAP2 DUP3 PUSH1 0x0 DUP3 SLOAD PUSH2 0x18FC DUP2 PUSH2 0x18AF JUMP JUMPDEST SWAP1 DUP2 DUP5 MSTORE PUSH1 0x20 SWAP5 PUSH1 0x1 SWAP2 PUSH1 0x1 DUP2 AND SWAP1 DUP2 PUSH1 0x0 EQ PUSH2 0x196C JUMPI POP PUSH1 0x1 EQ PUSH2 0x192D JUMPI JUMPDEST POP POP POP PUSH2 0x192B SWAP3 POP SUB DUP4 PUSH2 0x17F6 JUMP JUMPDEST JUMP JUMPDEST PUSH1 0x0 SWAP1 DUP2 MSTORE DUP6 DUP2 KECCAK256 SWAP6 SWAP4 POP SWAP2 SWAP1 JUMPDEST DUP2 DUP4 LT PUSH2 0x1954 JUMPI POP POP PUSH2 0x192B SWAP4 POP DUP3 ADD ADD CODESIZE DUP1 DUP1 PUSH2 0x191C JUMP JUMPDEST DUP6 SLOAD DUP9 DUP5 ADD DUP6 ADD MSTORE SWAP5 DUP6 ADD SWAP5 DUP8 SWAP5 POP SWAP2 DUP4 ADD SWAP2 PUSH2 0x193B JUMP JUMPDEST SWAP3 POP POP POP PUSH2 0x192B SWAP5 SWAP3 POP PUSH1 0xFF NOT AND DUP3 DUP5 ADD MSTORE ISZERO ISZERO PUSH1 0x5 SHL DUP3 ADD ADD CODESIZE DUP1 DUP1 PUSH2 0x191C JUMP JUMPDEST SWAP1 PUSH1 0x20 SWAP2 PUSH2 0x19A7 DUP2 MLOAD DUP1 SWAP3 DUP2 DUP6 MSTORE DUP6 DUP1 DUP7 ADD SWAP2 ADD PUSH2 0x188C JUMP JUMPDEST PUSH1 0x1F ADD PUSH1 0x1F NOT AND ADD ADD SWAP1 JUMP JUMPDEST PUSH2 0x1889 SWAP2 PUSH1 0xA0 PUSH2 0x19F2 PUSH2 0x19CF DUP5 MLOAD PUSH1 0xC0 DUP6 MSTORE PUSH1 0xC0 DUP6 ADD SWAP1 PUSH2 0x198E JUMP JUMPDEST PUSH1 0x1 DUP1 DUP5 SHL SUB PUSH1 0x20 DUP7 ADD MLOAD AND PUSH1 0x20 DUP6 ADD MSTORE PUSH1 0x40 DUP6 ADD MLOAD DUP5 DUP3 SUB PUSH1 0x40 DUP7 ADD MSTORE PUSH2 0x198E JUMP JUMPDEST SWAP3 PUSH1 0x60 DUP2 ADD MLOAD PUSH1 0x60 DUP5 ADD MSTORE PUSH1 0x80 DUP2 ADD MLOAD ISZERO ISZERO PUSH1 0x80 DUP5 ADD MSTORE ADD MLOAD SWAP1 PUSH1 0xA0 DUP2 DUP5 SUB SWAP2 ADD MSTORE PUSH2 0x198E JUMP JUMPDEST PUSH1 0x4 CALLDATALOAD SWAP1 PUSH1 0x1 PUSH1 0x1 PUSH1 0xA0 SHL SUB DUP3 AND DUP3 SUB PUSH2 0x1869 JUMPI JUMP JUMPDEST SWAP3 SWAP2 SWAP1 PUSH1 0x40 DUP5 ADD SWAP1 PUSH1 0x40 DUP6 MSTORE DUP1 MLOAD DUP1 SWAP3 MSTORE PUSH1 0x60 DUP6 ADD SWAP2 PUSH1 0x60 DUP2 PUSH1 0x5 SHL DUP8 ADD ADD SWAP2 PUSH1 0x20 DUP1 SWAP2 ADD SWAP4 PUSH1 0x0 SWAP1 JUMPDEST DUP4 DUP3 LT PUSH2 0x1A6D JUMPI POP POP POP POP PUSH1 0x20 SWAP2 POP SWAP4 ADD MSTORE JUMP JUMPDEST SWAP1 SWAP2 SWAP3 SWAP4 DUP4 DUP1 PUSH2 0x1A89 PUSH1 0x1 SWAP4 PUSH1 0x5F NOT DUP14 DUP3 SUB ADD DUP7 MSTORE DUP10 MLOAD PUSH2 0x19B3 JUMP JUMPDEST SWAP8 ADD SWAP3 ADD SWAP3 ADD SWAP1 SWAP5 SWAP4 SWAP3 SWAP2 PUSH2 0x1A59 JUMP JUMPDEST PUSH1 0x2 SLOAD DUP2 LT ISZERO PUSH2 0x1AD0 JUMPI PUSH1 0x2 PUSH1 0x0 MSTORE PUSH32 0x405787FA12A823E0F2B7631CC41B3BA8828B3321CA811111FA75CD3AA3BB5ACE ADD SWAP1 PUSH1 0x0 SWAP1 JUMP JUMPDEST PUSH4 0x4E487B71 PUSH1 0xE0 SHL PUSH1 0x0 MSTORE PUSH1 0x32 PUSH1 0x4 MSTORE PUSH1 0x24 PUSH1 0x0 REVERT JUMPDEST SWAP2 SWAP1 DUP3 ADD DUP1 SWAP3 GT PUSH2 0x1AF3 JUMPI JUMP JUMPDEST PUSH4 0x4E487B71 PUSH1 0xE0 SHL PUSH1 0x0 MSTORE PUSH1 0x11 PUSH1 0x4 MSTORE PUSH1 0x24 PUSH1 0x0 REVERT JUMPDEST SWAP2 SWAP1 DUP3 SUB SWAP2 DUP3 GT PUSH2 0x1AF3 JUMPI JUMP JUMPDEST DUP2 DUP2 LT PUSH2 0x1B21 JUMPI POP POP JUMP JUMPDEST PUSH1 0x0 DUP2 SSTORE PUSH1 0x1 ADD PUSH2 0x1B16 JUMP JUMPDEST SWAP2 SWAP1 PUSH1 0x1F DUP2 GT PUSH2 0x1B3C JUMPI POP POP POP JUMP JUMPDEST PUSH2 0x192B SWAP3 PUSH1 0x0 MSTORE PUSH1 0x20 PUSH1 0x0 KECCAK256 SWAP1 PUSH1 0x20 PUSH1 0x1F DUP5 ADD PUSH1 0x5 SHR DUP4 ADD SWAP4 LT PUSH2 0x1B68 JUMPI JUMPDEST PUSH1 0x1F ADD PUSH1 0x5 SHR ADD SWAP1 PUSH2 0x1B16 JUMP JUMPDEST SWAP1 SWAP2 POP DUP2 SWAP1 PUSH2 0x1B5B JUMP JUMPDEST SWAP1 DUP1 DUP3 EQ PUSH2 0x1C52 JUMPI PUSH2 0x1B84 DUP2 SLOAD PUSH2 0x18AF JUMP JUMPDEST SWAP1 PUSH1 0x1 PUSH1 0x1 PUSH1 0x40 SHL SUB DUP3 GT PUSH2 0x17C5 JUMPI PUSH2 0x1BA7 DUP3 PUSH2 0x1BA1 DUP6 SLOAD PUSH2 0x18AF JUMP JUMPDEST DUP6 PUSH2 0x1B2D JUMP JUMPDEST PUSH1 0x0 SWAP1 PUSH1 0x1F DUP4 GT PUSH1 0x1 EQ PUSH2 0x1BE7 JUMPI PUSH2 0x1BD8 SWAP3 SWAP2 PUSH1 0x0 SWAP2 DUP4 PUSH2 0x1BDC JUMPI JUMPDEST POP POP DUP2 PUSH1 0x1 SHL SWAP2 PUSH1 0x0 NOT SWAP1 PUSH1 0x3 SHL SHR NOT AND OR SWAP1 JUMP JUMPDEST SWAP1 SSTORE JUMP JUMPDEST ADD SLOAD SWAP1 POP CODESIZE DUP1 PUSH2 0x1BC3 JUMP JUMPDEST DUP2 MSTORE PUSH1 0x20 DUP1 DUP3 KECCAK256 DUP5 DUP4 MSTORE DUP2 DUP4 KECCAK256 SWAP3 SWAP2 PUSH1 0x1F NOT DUP6 AND SWAP1 DUP4 SWAP1 JUMPDEST DUP3 DUP3 LT PUSH2 0x1C39 JUMPI POP POP SWAP1 DUP5 PUSH1 0x1 SWAP6 SWAP5 SWAP4 SWAP3 LT PUSH2 0x1C20 JUMPI JUMPDEST POP POP POP DUP2 SHL ADD SWAP1 SSTORE JUMP JUMPDEST ADD SLOAD PUSH1 0x0 NOT PUSH1 0xF8 DUP5 PUSH1 0x3 SHL AND SHR NOT AND SWAP1 SSTORE CODESIZE DUP1 DUP1 PUSH2 0x1C16 JUMP JUMPDEST DUP5 SWAP6 DUP2 SWAP3 SWAP6 DUP6 ADD SLOAD DUP2 SSTORE PUSH1 0x1 DUP1 SWAP2 ADD SWAP7 ADD SWAP5 ADD SWAP1 PUSH2 0x1BFF JUMP JUMPDEST POP POP JUMP JUMPDEST PUSH1 0x40 MLOAD SWAP1 DUP2 PUSH1 0x0 DUP3 SLOAD PUSH2 0x1C68 DUP2 PUSH2 0x18AF JUMP JUMPDEST SWAP4 PUSH1 0x1 SWAP2 DUP1 DUP4 AND SWAP1 DUP2 ISZERO PUSH2 0x1CCE JUMPI POP PUSH1 0x1 EQ PUSH2 0x1C90 JUMPI JUMPDEST POP POP PUSH1 0x20 SWAP3 POP PUSH1 0x1 DUP2 MSTORE SUB ADD SWAP1 KECCAK256 SWAP1 JUMP JUMPDEST SWAP1 SWAP2 POP PUSH1 0x0 MSTORE PUSH1 0x20 SWAP1 PUSH1 0x20 PUSH1 0x0 KECCAK256 SWAP1 PUSH1 0x0 SWAP2 JUMPDEST DUP6 DUP4 LT PUSH2 0x1CBA JUMPI POP POP POP POP PUSH1 0x20 SWAP2 DUP2 ADD CODESIZE DUP1 PUSH2 0x1C7F JUMP JUMPDEST DUP1 SLOAD DUP8 DUP5 ADD MSTORE DUP7 SWAP5 POP SWAP2 DUP4 ADD SWAP2 DUP2 ADD PUSH2 0x1CA3 JUMP JUMPDEST SWAP3 POP POP POP PUSH1 0x20 SWAP4 SWAP2 POP PUSH1 0xFF NOT AND DUP3 MSTORE DUP1 ISZERO ISZERO MUL DUP2 ADD CODESIZE DUP1 PUSH2 0x1C7F JUMP JUMPDEST PUSH2 0x1D02 SWAP1 PUSH1 0x20 PUSH1 0x40 MLOAD SWAP3 DUP3 DUP5 DUP1 SWAP5 MLOAD SWAP4 DUP5 SWAP3 ADD PUSH2 0x188C JUMP JUMPDEST DUP2 ADD SUB SWAP1 KECCAK256 SWAP1 JUMP JUMPDEST PUSH1 0x40 MLOAD SWAP1 PUSH2 0x1D17 DUP3 PUSH2 0x17AA JUMP JUMPDEST PUSH1 0x60 PUSH1 0xA0 DUP4 DUP3 DUP2 MSTORE PUSH1 0x0 PUSH1 0x20 DUP3 ADD MSTORE DUP3 PUSH1 0x40 DUP3 ADD MSTORE PUSH1 0x0 DUP4 DUP3 ADD MSTORE PUSH1 0x0 PUSH1 0x80 DUP3 ADD MSTORE ADD MSTORE JUMP JUMPDEST PUSH1 0x0 NOT DUP2 EQ PUSH2 0x1AF3 JUMPI PUSH1 0x1 ADD SWAP1 JUMP JUMPDEST PUSH1 0x1 PUSH1 0x1 PUSH1 0x40 SHL SUB DUP2 GT PUSH2 0x17C5 JUMPI PUSH1 0x5 SHL PUSH1 0x20 ADD SWAP1 JUMP JUMPDEST SWAP1 PUSH2 0x1D6D DUP3 PUSH2 0x1D4C JUMP JUMPDEST PUSH2 0x1D7A PUSH1 0x40 MLOAD SWAP2 DUP3 PUSH2 0x17F6 JUMP JUMPDEST DUP3 DUP2 MSTORE DUP1 SWAP3 PUSH2 0x1D8B PUSH1 0x1F NOT SWAP2 PUSH2 0x1D4C JUMP JUMPDEST ADD SWAP1 PUSH1 0x0 JUMPDEST DUP3 DUP2 LT PUSH2 0x1D9C JUMPI POP POP POP JUMP JUMPDEST PUSH1 0x20 SWAP1 PUSH2 0x1DA7 PUSH2 0x1D0A JUMP JUMPDEST DUP3 DUP3 DUP6 ADD ADD MSTORE ADD PUSH2 0x1D90 JUMP JUMPDEST DUP1 MLOAD DUP3 LT ISZERO PUSH2 0x1AD0 JUMPI PUSH1 0x20 SWAP2 PUSH1 0x5 SHL ADD ADD SWAP1 JUMP JUMPDEST SWAP2 SWAP1 SWAP2 DUP3 MLOAD PUSH1 0x1 PUSH1 0x1 PUSH1 0x40 SHL SUB DUP2 GT PUSH2 0x17C5 JUMPI PUSH2 0x1DEE DUP2 PUSH2 0x1DE8 DUP5 SLOAD PUSH2 0x18AF JUMP JUMPDEST DUP5 PUSH2 0x1B2D JUMP JUMPDEST PUSH1 0x20 DUP1 PUSH1 0x1F DUP4 GT PUSH1 0x1 EQ PUSH2 0x1E2C JUMPI POP DUP2 SWAP1 PUSH2 0x1BD8 SWAP4 SWAP5 SWAP6 PUSH1 0x0 SWAP3 PUSH2 0x1E21 JUMPI POP POP DUP2 PUSH1 0x1 SHL SWAP2 PUSH1 0x0 NOT SWAP1 PUSH1 0x3 SHL SHR NOT AND OR SWAP1 JUMP JUMPDEST ADD MLOAD SWAP1 POP CODESIZE DUP1 PUSH2 0x1BC3 JUMP JUMPDEST SWAP1 PUSH1 0x1F NOT DUP4 AND SWAP6 DUP5 PUSH1 0x0 MSTORE PUSH1 0x20 PUSH1 0x0 KECCAK256 SWAP3 PUSH1 0x0 SWAP1 JUMPDEST DUP9 DUP3 LT PUSH2 0x1E78 JUMPI POP POP DUP4 PUSH1 0x1 SWAP6 SWAP7 SWAP8 LT PUSH2 0x1E5F JUMPI POP POP POP DUP2 SHL ADD SWAP1 SSTORE JUMP JUMPDEST ADD MLOAD PUSH1 0x0 NOT PUSH1 0xF8 DUP5 PUSH1 0x3 SHL AND SHR NOT AND SWAP1 SSTORE CODESIZE DUP1 DUP1 PUSH2 0x1C16 JUMP JUMPDEST DUP1 PUSH1 0x1 DUP6 SWAP7 DUP3 SWAP5 SWAP7 DUP7 ADD MLOAD DUP2 SSTORE ADD SWAP6 ADD SWAP4 ADD SWAP1 PUSH2 0x1E41 JUMP JUMPDEST PUSH1 0x1 PUSH1 0x1 PUSH1 0xA0 SHL SUB SWAP1 DUP2 AND SWAP1 DUP2 ISZERO PUSH2 0x1EEB JUMPI PUSH1 0x0 DUP1 MLOAD PUSH1 0x20 PUSH2 0x21BD DUP4 CODECOPY DUP2 MLOAD SWAP2 MSTORE DUP1 SLOAD PUSH1 0x1 PUSH1 0x1 PUSH1 0xA0 SHL SUB NOT DUP2 AND DUP5 OR SWAP1 SWAP2 SSTORE AND PUSH32 0x8BE0079C531659141344CD1FD0A4F28419497F9722A3DAAFE3B4186F6B6457E0 PUSH1 0x0 DUP1 LOG3 JUMP JUMPDEST PUSH1 0x40 MLOAD PUSH4 0x1E4FBDF7 PUSH1 0xE0 SHL DUP2 MSTORE PUSH1 0x0 PUSH1 0x4 DUP3 ADD MSTORE PUSH1 0x24 SWAP1 REVERT JUMPDEST PUSH1 0x0 DUP1 MLOAD PUSH1 0x20 PUSH2 0x21FD DUP4 CODECOPY DUP2 MLOAD SWAP2 MSTORE PUSH1 0x2 DUP2 SLOAD EQ PUSH2 0x1F22 JUMPI PUSH1 0x2 SWAP1 SSTORE JUMP JUMPDEST PUSH1 0x40 MLOAD PUSH4 0x3EE5AEB5 PUSH1 0xE0 SHL DUP2 MSTORE PUSH1 0x4 SWAP1 REVERT JUMPDEST PUSH1 0xFF PUSH1 0x0 DUP1 MLOAD PUSH1 0x20 PUSH2 0x21DD DUP4 CODECOPY DUP2 MLOAD SWAP2 MSTORE SLOAD AND PUSH2 0x1F4D JUMPI JUMP JUMPDEST PUSH1 0x40 MLOAD PUSH4 0xD93C0665 PUSH1 0xE0 SHL DUP2 MSTORE PUSH1 0x4 SWAP1 REVERT JUMPDEST PUSH1 0x40 MLOAD PUSH4 0xA9059CBB PUSH1 0xE0 SHL PUSH1 0x20 DUP3 ADD MSTORE PUSH1 0x1 PUSH1 0x1 PUSH1 0xA0 SHL SUB SWAP1 SWAP3 AND PUSH1 0x24 DUP4 ADD MSTORE PUSH1 0x44 DUP1 DUP4 ADD SWAP4 SWAP1 SWAP4 MSTORE SWAP2 DUP2 MSTORE PUSH1 0x80 DUP2 ADD SWAP2 PUSH1 0x1 PUSH1 0x1 PUSH1 0x40 SHL SUB DUP4 GT DUP3 DUP5 LT OR PUSH2 0x17C5 JUMPI PUSH2 0x192B SWAP3 PUSH1 0x40 MSTORE PUSH2 0x20B0 JUMP JUMPDEST PUSH1 0x0 DUP1 MLOAD PUSH1 0x20 PUSH2 0x21BD DUP4 CODECOPY DUP2 MLOAD SWAP2 MSTORE SLOAD PUSH1 0x1 PUSH1 0x1 PUSH1 0xA0 SHL SUB AND CALLER SUB PUSH2 0x1FCF JUMPI JUMP JUMPDEST PUSH1 0x40 MLOAD PUSH4 0x118CDAA7 PUSH1 0xE0 SHL DUP2 MSTORE CALLER PUSH1 0x4 DUP3 ADD MSTORE PUSH1 0x24 SWAP1 REVERT JUMPDEST PUSH1 0x40 MLOAD PUSH4 0x23B872DD PUSH1 0xE0 SHL PUSH1 0x20 DUP3 ADD MSTORE PUSH1 0x1 PUSH1 0x1 PUSH1 0xA0 SHL SUB SWAP3 DUP4 AND PUSH1 0x24 DUP3 ADD MSTORE SWAP3 SWAP1 SWAP2 AND PUSH1 0x44 DUP4 ADD MSTORE PUSH1 0x64 DUP1 DUP4 ADD SWAP4 SWAP1 SWAP4 MSTORE SWAP2 DUP2 MSTORE PUSH1 0xA0 DUP2 ADD SWAP2 DUP2 DUP4 LT PUSH1 0x1 PUSH1 0x1 PUSH1 0x40 SHL SUB DUP5 GT OR PUSH2 0x17C5 JUMPI PUSH2 0x192B SWAP3 PUSH1 0x40 MSTORE PUSH2 0x20B0 JUMP JUMPDEST SWAP1 DUP2 MLOAD DUP2 LT ISZERO PUSH2 0x1AD0 JUMPI ADD PUSH1 0x20 ADD SWAP1 JUMP JUMPDEST SWAP1 DUP2 MLOAD DUP2 MLOAD GT PUSH2 0x20A9 JUMPI PUSH1 0x0 SWAP1 PUSH1 0x0 JUMPDEST DUP2 MLOAD DUP2 LT ISZERO PUSH2 0x20A0 JUMPI PUSH1 0x1 PUSH1 0x1 PUSH1 0xF8 SHL SUB NOT DUP1 PUSH2 0x207D DUP4 DUP8 PUSH2 0x203F JUMP JUMPDEST MLOAD AND SWAP1 PUSH2 0x208A DUP4 DUP6 PUSH2 0x203F JUMP JUMPDEST MLOAD AND SUB PUSH2 0x2099 JUMPI PUSH1 0x1 ADD PUSH2 0x2060 JUMP JUMPDEST POP POP SWAP1 POP SWAP1 JUMP JUMPDEST POP POP POP POP PUSH1 0x1 SWAP1 JUMP JUMPDEST POP POP PUSH1 0x0 SWAP1 JUMP JUMPDEST SWAP1 PUSH1 0x0 PUSH1 0x20 SWAP2 DUP3 DUP2 MLOAD SWAP2 ADD DUP3 DUP6 GAS CALL ISZERO PUSH2 0x210C JUMPI PUSH1 0x0 MLOAD RETURNDATASIZE PUSH2 0x2103 JUMPI POP PUSH1 0x1 PUSH1 0x1 PUSH1 0xA0 SHL SUB DUP2 AND EXTCODESIZE ISZERO JUMPDEST PUSH2 0x20E1 JUMPI POP JUMP JUMPDEST PUSH1 0x40 MLOAD PUSH4 0x5274AFE7 PUSH1 0xE0 SHL DUP2 MSTORE PUSH1 0x1 PUSH1 0x1 PUSH1 0xA0 SHL SUB SWAP1 SWAP2 AND PUSH1 0x4 DUP3 ADD MSTORE PUSH1 0x24 SWAP1 REVERT JUMPDEST PUSH1 0x1 EQ ISZERO PUSH2 0x20DA JUMP JUMPDEST PUSH1 0x40 MLOAD RETURNDATASIZE PUSH1 0x0 DUP3 RETURNDATACOPY RETURNDATASIZE SWAP1 REVERT JUMPDEST PUSH1 0xFF PUSH32 0xF0C57E16840DF040F15088DC2F81FE391C3923BEC73E23A9662EFC9C229C6A00 SLOAD PUSH1 0x40 SHR AND ISZERO PUSH2 0x2147 JUMPI JUMP JUMPDEST PUSH1 0x40 MLOAD PUSH4 0x1AFCD79F PUSH1 0xE3 SHL DUP2 MSTORE PUSH1 0x4 SWAP1 REVERT JUMPDEST SWAP1 PUSH2 0x2180 JUMPI POP DUP1 MLOAD ISZERO PUSH2 0x216E JUMPI DUP1 MLOAD SWAP1 PUSH1 0x20 ADD REVERT JUMPDEST PUSH1 0x40 MLOAD PUSH4 0xD6BDA275 PUSH1 0xE0 SHL DUP2 MSTORE PUSH1 0x4 SWAP1 REVERT JUMPDEST DUP2 MLOAD ISZERO DUP1 PUSH2 0x21B3 JUMPI JUMPDEST PUSH2 0x2191 JUMPI POP SWAP1 JUMP JUMPDEST PUSH1 0x40 MLOAD PUSH4 0x9996B315 PUSH1 0xE0 SHL DUP2 MSTORE PUSH1 0x1 PUSH1 0x1 PUSH1 0xA0 SHL SUB SWAP1 SWAP2 AND PUSH1 0x4 DUP3 ADD MSTORE PUSH1 0x24 SWAP1 REVERT JUMPDEST POP DUP1 EXTCODESIZE ISZERO PUSH2 0x2189 JUMP INVALID SWAP1 AND 0xD0 SWAP14 PUSH19 0xD40FDAE2FD8CEAC6B6234C7706214FD39C1CD1 0xE6 MULMOD LOG0 MSTORE DUP13 NOT SWAP4 STOP 0xCD 0x5E 0xD1 0x5C PUSH15 0x187E77E9AEE88184C21F4F2182AB58 0x27 0xCB EXTCODESIZE PUSH31 0x7FBEDCD63F033009B779B17422D0DF92223018B32B4D1FA46E071723D6817 0xE2 BASEFEE PUSH14 0x3BECC55F00A264697066735822 SLT KECCAK256 LOG1 ADDMOD REVERT 0xAF STATICCALL DUP16 0x2E 0x27 ADDRESS INVALID PUSH17 0x1110F6693B48F2C1864A2AFABEDC15F39 0xD9 POP DUP15 DUP8 PUSH5 0x736F6C6343 STOP ADDMOD AND STOP CALLER "},"methodIdentifiers":{"FEE_BASIS_POINTS()":"a525ad3c","MAX_CONTACT_LENGTH()":"f2bc9a0e","MAX_PAGE_SIZE()":"48f4da20","UPGRADE_INTERFACE_VERSION()":"ad3cb1cc","activeListingsCount()":"045fb3e9","delistLand(string)":"278dad40","getAllLandListingsPaginated(uint256,uint256)":"a75554cd","getLandListing(string)":"35fe1a76","getTotalActiveListings()":"a5298c4a","getUserListingsPaginated(address,uint256,uint256)":"57b06e8c","initialize(address)":"c4d66de8","landIdIndices(string)":"86a197f9","landIds(uint256)":"903a9451","landListings(string)":"32778954","listLand(string,string,uint256,string)":"efb85b72","owner()":"8da5cb5b","pause()":"8456cb59","paused()":"5c975abb","proxiableUUID()":"52d1902d","renounceOwnership()":"715018a6","transferOwnership(address)":"f2fde38b","unpause()":"3f4ba83a","updateLandCollateral(string,uint256)":"6cf3dcfc","upgradeToAndCall(address,bytes)":"4f1ef286","weedlToken()":"3b9c8cfe"}},"storageLayout":{"storage":[{"astId":2390,"contract":"contracts/GreenFiLand.sol:GreenFiLand","label":"weedlToken","offset":0,"slot":"0","type":"t_contract(IERC20)1482"},{"astId":2417,"contract":"contracts/GreenFiLand.sol:GreenFiLand","label":"landListings","offset":0,"slot":"1","type":"t_mapping(t_string_memory_ptr,t_struct(LandListing)2412_storage)"},{"astId":2420,"contract":"contracts/GreenFiLand.sol:GreenFiLand","label":"landIds","offset":0,"slot":"2","type":"t_array(t_string_storage)dyn_storage"},{"astId":2424,"contract":"contracts/GreenFiLand.sol:GreenFiLand","label":"landIdIndices","offset":0,"slot":"3","type":"t_mapping(t_string_memory_ptr,t_uint256)"},{"astId":2426,"contract":"contracts/GreenFiLand.sol:GreenFiLand","label":"activeListingsCount","offset":0,"slot":"4","type":"t_uint256"}],"types":{"t_address":{"encoding":"inplace","label":"address","numberOfBytes":"20"},"t_array(t_string_storage)dyn_storage":{"base":"t_string_storage","encoding":"dynamic_array","label":"string[]","numberOfBytes":"32"},"t_bool":{"encoding":"inplace","label":"bool","numberOfBytes":"1"},"t_contract(IERC20)1482":{"encoding":"inplace","label":"contract IERC20","numberOfBytes":"20"},"t_mapping(t_string_memory_ptr,t_struct(LandListing)2412_storage)":{"encoding":"mapping","key":"t_string_memory_ptr","label":"mapping(string => struct GreenFiLand.LandListing)","numberOfBytes":"32","value":"t_struct(LandListing)2412_storage"},"t_mapping(t_string_memory_ptr,t_uint256)":{"encoding":"mapping","key":"t_string_memory_ptr","label":"mapping(string => uint256)","numberOfBytes":"32","value":"t_uint256"},"t_string_memory_ptr":{"encoding":"bytes","label":"string","numberOfBytes":"32"},"t_string_storage":{"encoding":"bytes","label":"string","numberOfBytes":"32"},"t_struct(LandListing)2412_storage":{"encoding":"inplace","label":"struct GreenFiLand.LandListing","members":[{"astId":2401,"contract":"contracts/GreenFiLand.sol:GreenFiLand","label":"id","offset":0,"slot":"0","type":"t_string_storage"},{"astId":2403,"contract":"contracts/GreenFiLand.sol:GreenFiLand","label":"owner","offset":0,"slot":"1","type":"t_address"},{"astId":2405,"contract":"contracts/GreenFiLand.sol:GreenFiLand","label":"metadataURI","offset":0,"slot":"2","type":"t_string_storage"},{"astId":2407,"contract":"contracts/GreenFiLand.sol:GreenFiLand","label":"collateralValue","offset":0,"slot":"3","type":"t_uint256"},{"astId":2409,"contract":"contracts/GreenFiLand.sol:GreenFiLand","label":"isActive","offset":0,"slot":"4","type":"t_bool"},{"astId":2411,"contract":"contracts/GreenFiLand.sol:GreenFiLand","label":"contactInfo","offset":0,"slot":"5","type":"t_string_storage"}],"numberOfBytes":"192"},"t_uint256":{"encoding":"inplace","label":"uint256","numberOfBytes":"32"}}}}}}