{
  "_format": "hh-sol-artifact-1",
  "contractName": "GreenFiLand",
  "sourceName": "contracts/GreenFiLand.sol",
  "abi": [
    {
      "inputs": [
        {
          "internalType": "address",
          "name": "target",
          "type": "address"
        }
      ],
      "name": "AddressEmptyCode",
      "type": "error"
    },
    {
      "inputs": [
        {
          "internalType": "address",
          "name": "implementation",
          "type": "address"
        }
      ],
      "name": "ERC1967InvalidImplementation",
      "type": "error"
    },
    {
      "inputs": [],
      "name": "ERC1967NonPayable",
      "type": "error"
    },
    {
      "inputs": [],
      "name": "EnforcedPause",
      "type": "error"
    },
    {
      "inputs": [],
      "name": "ExpectedPause",
      "type": "error"
    },
    {
      "inputs": [],
      "name": "FailedCall",
      "type": "error"
    },
    {
      "inputs": [],
      "name": "InsufficientBalance",
      "type": "error"
    },
    {
      "inputs": [],
      "name": "InvalidCollateralValue",
      "type": "error"
    },
    {
      "inputs": [],
      "name": "InvalidContactInfo",
      "type": "error"
    },
    {
      "inputs": [],
      "name": "InvalidInitialization",
      "type": "error"
    },
    {
      "inputs": [],
      "name": "InvalidLandId",
      "type": "error"
    },
    {
      "inputs": [],
      "name": "InvalidMetadataURI",
      "type": "error"
    },
    {
      "inputs": [],
      "name": "InvalidPaginationParameters",
      "type": "error"
    },
    {
      "inputs": [],
      "name": "InvalidTokenAddress",
      "type": "error"
    },
    {
      "inputs": [],
      "name": "LandInUse",
      "type": "error"
    },
    {
      "inputs": [],
      "name": "LandNotActive",
      "type": "error"
    },
    {
      "inputs": [],
      "name": "NotInitializing",
      "type": "error"
    },
    {
      "inputs": [
        {
          "internalType": "address",
          "name": "owner",
          "type": "address"
        }
      ],
      "name": "OwnableInvalidOwner",
      "type": "error"
    },
    {
      "inputs": [
        {
          "internalType": "address",
          "name": "account",
          "type": "address"
        }
      ],
      "name": "OwnableUnauthorizedAccount",
      "type": "error"
    },
    {
      "inputs": [],
      "name": "ReentrancyGuardReentrantCall",
      "type": "error"
    },
    {
      "inputs": [
        {
          "internalType": "address",
          "name": "token",
          "type": "address"
        }
      ],
      "name": "SafeERC20FailedOperation",
      "type": "error"
    },
    {
      "inputs": [],
      "name": "UUPSUnauthorizedCallContext",
      "type": "error"
    },
    {
      "inputs": [
        {
          "internalType": "bytes32",
          "name": "slot",
          "type": "bytes32"
        }
      ],
      "name": "UUPSUnsupportedProxiableUUID",
      "type": "error"
    },
    {
      "inputs": [],
      "name": "Unauthorized",
      "type": "error"
    },
    {
      "anonymous": false,
      "inputs": [
        {
          "indexed": true,
          "internalType": "string",
          "name": "id",
          "type": "string"
        },
        {
          "indexed": true,
          "internalType": "address",
          "name": "owner",
          "type": "address"
        },
        {
          "indexed": false,
          "internalType": "uint256",
          "name": "newCollateralValue",
          "type": "uint256"
        },
        {
          "indexed": false,
          "internalType": "uint256",
          "name": "fee",
          "type": "uint256"
        }
      ],
      "name": "CollateralUpdated",
      "type": "event"
    },
    {
      "anonymous": false,
      "inputs": [
        {
          "indexed": false,
          "internalType": "uint64",
          "name": "version",
          "type": "uint64"
        }
      ],
      "name": "Initialized",
      "type": "event"
    },
    {
      "anonymous": false,
      "inputs": [
        {
          "indexed": true,
          "internalType": "string",
          "name": "id",
          "type": "string"
        },
        {
          "indexed": true,
          "internalType": "address",
          "name": "owner",
          "type": "address"
        },
        {
          "indexed": false,
          "internalType": "uint256",
          "name": "refundAmount",
          "type": "uint256"
        }
      ],
      "name": "LandDelisted",
      "type": "event"
    },
    {
      "anonymous": false,
      "inputs": [
        {
          "indexed": true,
          "internalType": "string",
          "name": "id",
          "type": "string"
        },
        {
          "indexed": true,
          "internalType": "address",
          "name": "owner",
          "type": "address"
        },
        {
          "indexed": false,
          "internalType": "string",
          "name": "metadataURI",
          "type": "string"
        },
        {
          "indexed": false,
          "internalType": "uint256",
          "name": "collateralValue",
          "type": "uint256"
        },
        {
          "indexed": false,
          "internalType": "string",
          "name": "contactInfo",
          "type": "string"
        },
        {
          "indexed": false,
          "internalType": "uint256",
          "name": "fee",
          "type": "uint256"
        }
      ],
      "name": "LandListed",
      "type": "event"
    },
    {
      "anonymous": false,
      "inputs": [
        {
          "indexed": true,
          "internalType": "address",
          "name": "previousOwner",
          "type": "address"
        },
        {
          "indexed": true,
          "internalType": "address",
          "name": "newOwner",
          "type": "address"
        }
      ],
      "name": "OwnershipTransferred",
      "type": "event"
    },
    {
      "anonymous": false,
      "inputs": [
        {
          "indexed": false,
          "internalType": "address",
          "name": "account",
          "type": "address"
        }
      ],
      "name": "Paused",
      "type": "event"
    },
    {
      "anonymous": false,
      "inputs": [
        {
          "indexed": false,
          "internalType": "address",
          "name": "account",
          "type": "address"
        }
      ],
      "name": "Unpaused",
      "type": "event"
    },
    {
      "anonymous": false,
      "inputs": [
        {
          "indexed": true,
          "internalType": "address",
          "name": "implementation",
          "type": "address"
        }
      ],
      "name": "Upgraded",
      "type": "event"
    },
    {
      "inputs": [],
      "name": "FEE_BASIS_POINTS",
      "outputs": [
        {
          "internalType": "uint256",
          "name": "",
          "type": "uint256"
        }
      ],
      "stateMutability": "view",
      "type": "function"
    },
    {
      "inputs": [],
      "name": "MAX_CONTACT_LENGTH",
      "outputs": [
        {
          "internalType": "uint256",
          "name": "",
          "type": "uint256"
        }
      ],
      "stateMutability": "view",
      "type": "function"
    },
    {
      "inputs": [],
      "name": "MAX_PAGE_SIZE",
      "outputs": [
        {
          "internalType": "uint256",
          "name": "",
          "type": "uint256"
        }
      ],
      "stateMutability": "view",
      "type": "function"
    },
    {
      "inputs": [],
      "name": "UPGRADE_INTERFACE_VERSION",
      "outputs": [
        {
          "internalType": "string",
          "name": "",
          "type": "string"
        }
      ],
      "stateMutability": "view",
      "type": "function"
    },
    {
      "inputs": [],
      "name": "activeListingsCount",
      "outputs": [
        {
          "internalType": "uint256",
          "name": "",
          "type": "uint256"
        }
      ],
      "stateMutability": "view",
      "type": "function"
    },
    {
      "inputs": [
        {
          "internalType": "string",
          "name": "_id",
          "type": "string"
        }
      ],
      "name": "delistLand",
      "outputs": [],
      "stateMutability": "nonpayable",
      "type": "function"
    },
    {
      "inputs": [
        {
          "internalType": "uint256",
          "name": "startIndex",
          "type": "uint256"
        },
        {
          "internalType": "uint256",
          "name": "pageSize",
          "type": "uint256"
        }
      ],
      "name": "getAllLandListingsPaginated",
      "outputs": [
        {
          "components": [
            {
              "internalType": "string",
              "name": "id",
              "type": "string"
            },
            {
              "internalType": "address",
              "name": "owner",
              "type": "address"
            },
            {
              "internalType": "string",
              "name": "metadataURI",
              "type": "string"
            },
            {
              "internalType": "uint256",
              "name": "collateralValue",
              "type": "uint256"
            },
            {
              "internalType": "bool",
              "name": "isActive",
              "type": "bool"
            },
            {
              "internalType": "string",
              "name": "contactInfo",
              "type": "string"
            }
          ],
          "internalType": "struct GreenFiLand.LandListing[]",
          "name": "",
          "type": "tuple[]"
        },
        {
          "internalType": "uint256",
          "name": "totalActive",
          "type": "uint256"
        }
      ],
      "stateMutability": "view",
      "type": "function"
    },
    {
      "inputs": [
        {
          "internalType": "string",
          "name": "_id",
          "type": "string"
        }
      ],
      "name": "getLandListing",
      "outputs": [
        {
          "components": [
            {
              "internalType": "string",
              "name": "id",
              "type": "string"
            },
            {
              "internalType": "address",
              "name": "owner",
              "type": "address"
            },
            {
              "internalType": "string",
              "name": "metadataURI",
              "type": "string"
            },
            {
              "internalType": "uint256",
              "name": "collateralValue",
              "type": "uint256"
            },
            {
              "internalType": "bool",
              "name": "isActive",
              "type": "bool"
            },
            {
              "internalType": "string",
              "name": "contactInfo",
              "type": "string"
            }
          ],
          "internalType": "struct GreenFiLand.LandListing",
          "name": "",
          "type": "tuple"
        }
      ],
      "stateMutability": "view",
      "type": "function"
    },
    {
      "inputs": [],
      "name": "getTotalActiveListings",
      "outputs": [
        {
          "internalType": "uint256",
          "name": "",
          "type": "uint256"
        }
      ],
      "stateMutability": "view",
      "type": "function"
    },
    {
      "inputs": [
        {
          "internalType": "address",
          "name": "user",
          "type": "address"
        },
        {
          "internalType": "uint256",
          "name": "startIndex",
          "type": "uint256"
        },
        {
          "internalType": "uint256",
          "name": "pageSize",
          "type": "uint256"
        }
      ],
      "name": "getUserListingsPaginated",
      "outputs": [
        {
          "components": [
            {
              "internalType": "string",
              "name": "id",
              "type": "string"
            },
            {
              "internalType": "address",
              "name": "owner",
              "type": "address"
            },
            {
              "internalType": "string",
              "name": "metadataURI",
              "type": "string"
            },
            {
              "internalType": "uint256",
              "name": "collateralValue",
              "type": "uint256"
            },
            {
              "internalType": "bool",
              "name": "isActive",
              "type": "bool"
            },
            {
              "internalType": "string",
              "name": "contactInfo",
              "type": "string"
            }
          ],
          "internalType": "struct GreenFiLand.LandListing[]",
          "name": "",
          "type": "tuple[]"
        },
        {
          "internalType": "uint256",
          "name": "totalUserActive",
          "type": "uint256"
        }
      ],
      "stateMutability": "view",
      "type": "function"
    },
    {
      "inputs": [
        {
          "internalType": "address",
          "name": "_weedlToken",
          "type": "address"
        }
      ],
      "name": "initialize",
      "outputs": [],
      "stateMutability": "nonpayable",
      "type": "function"
    },
    {
      "inputs": [
        {
          "internalType": "string",
          "name": "",
          "type": "string"
        }
      ],
      "name": "landIdIndices",
      "outputs": [
        {
          "internalType": "uint256",
          "name": "",
          "type": "uint256"
        }
      ],
      "stateMutability": "view",
      "type": "function"
    },
    {
      "inputs": [
        {
          "internalType": "uint256",
          "name": "",
          "type": "uint256"
        }
      ],
      "name": "landIds",
      "outputs": [
        {
          "internalType": "string",
          "name": "",
          "type": "string"
        }
      ],
      "stateMutability": "view",
      "type": "function"
    },
    {
      "inputs": [
        {
          "internalType": "string",
          "name": "",
          "type": "string"
        }
      ],
      "name": "landListings",
      "outputs": [
        {
          "internalType": "string",
          "name": "id",
          "type": "string"
        },
        {
          "internalType": "address",
          "name": "owner",
          "type": "address"
        },
        {
          "internalType": "string",
          "name": "metadataURI",
          "type": "string"
        },
        {
          "internalType": "uint256",
          "name": "collateralValue",
          "type": "uint256"
        },
        {
          "internalType": "bool",
          "name": "isActive",
          "type": "bool"
        },
        {
          "internalType": "string",
          "name": "contactInfo",
          "type": "string"
        }
      ],
      "stateMutability": "view",
      "type": "function"
    },
    {
      "inputs": [
        {
          "internalType": "string",
          "name": "_id",
          "type": "string"
        },
        {
          "internalType": "string",
          "name": "_metadataURI",
          "type": "string"
        },
        {
          "internalType": "uint256",
          "name": "_collateralValue",
          "type": "uint256"
        },
        {
          "internalType": "string",
          "name": "_contactInfo",
          "type": "string"
        }
      ],
      "name": "listLand",
      "outputs": [],
      "stateMutability": "nonpayable",
      "type": "function"
    },
    {
      "inputs": [],
      "name": "owner",
      "outputs": [
        {
          "internalType": "address",
          "name": "",
          "type": "address"
        }
      ],
      "stateMutability": "view",
      "type": "function"
    },
    {
      "inputs": [],
      "name": "pause",
      "outputs": [],
      "stateMutability": "nonpayable",
      "type": "function"
    },
    {
      "inputs": [],
      "name": "paused",
      "outputs": [
        {
          "internalType": "bool",
          "name": "",
          "type": "bool"
        }
      ],
      "stateMutability": "view",
      "type": "function"
    },
    {
      "inputs": [],
      "name": "proxiableUUID",
      "outputs": [
        {
          "internalType": "bytes32",
          "name": "",
          "type": "bytes32"
        }
      ],
      "stateMutability": "view",
      "type": "function"
    },
    {
      "inputs": [],
      "name": "renounceOwnership",
      "outputs": [],
      "stateMutability": "nonpayable",
      "type": "function"
    },
    {
      "inputs": [
        {
          "internalType": "address",
          "name": "newOwner",
          "type": "address"
        }
      ],
      "name": "transferOwnership",
      "outputs": [],
      "stateMutability": "nonpayable",
      "type": "function"
    },
    {
      "inputs": [],
      "name": "unpause",
      "outputs": [],
      "stateMutability": "nonpayable",
      "type": "function"
    },
    {
      "inputs": [
        {
          "internalType": "string",
          "name": "_id",
          "type": "string"
        },
        {
          "internalType": "uint256",
          "name": "_newCollateralValue",
          "type": "uint256"
        }
      ],
      "name": "updateLandCollateral",
      "outputs": [],
      "stateMutability": "nonpayable",
      "type": "function"
    },
    {
      "inputs": [
        {
          "internalType": "address",
          "name": "newImplementation",
          "type": "address"
        },
        {
          "internalType": "bytes",
          "name": "data",
          "type": "bytes"
        }
      ],
      "name": "upgradeToAndCall",
      "outputs": [],
      "stateMutability": "payable",
      "type": "function"
    },
    {
      "inputs": [],
      "name": "weedlToken",
      "outputs": [
        {
          "internalType": "contract IERC20",
          "name": "",
          "type": "address"
        }
      ],
      "stateMutability": "view",
      "type": "function"
    }
  ],
  "bytecode": "0x60a0806040523461002a573060805261225290816100308239608051818181610f220152610fd50152f35b600080fdfe60806040908082526004918236101561001757600080fd5b600092833560e01c928363045fb3e91461178f57508263278dad4014611430578263327789541461135357826335fe1a76146112835782633b9c8cfe1461125b5782633f4ba83a146111e257826348f4da20146111c65782634f1ef28614610f8657826352d1902d14610f0d57826357b06e8c14610cfd5782635c975abb14610ccc5782636cf3dcfc14610af8578263715018a614610a8e5782638456cb5914610a2657826386a197f9146109ca5782638da5cb5b14610994578263903a945114610933578263a525ad3c14610917578263a5298c4a146108f8578263a75554cd14610763578263ad3cb1cc1461071a578263c4d66de81461056f578263efb85b721461018957508163f2bc9a0e14610169575063f2fde38b1461013a57600080fd5b3461016657602036600319011261016657610163610156611a19565b61015e611fae565b611e90565b80f35b80fd5b9050346101855781600319360112610185576020905160648152f35b5080fd5b9091503461056b57608036600319011261056b576001600160401b038135818111610567576101bb903690840161186e565b91602435828111610563576101d3903690830161186e565b906044359260643590811161055f576101ef903690830161186e565b6101f7611f04565b6101ff611f34565b84518015908115610554575b50610545578251158015610516575b6105075760648151116104f85783156104e95785519585519560209361025d85830198610248818c8c61188c565b8a0199868160019c8d815203019020546118af565b6104db57602a8702878104602a036104c85761271090049761027f8989611ae6565b8b5485516370a0823160e01b815233858201526001600160a01b0392918316908e908a81602481865afa9182156104bd57908492610488575b5010610478576005888e8d61035e8e8c8f9a99856103398f9a8e8e6102e761037f9f6103289430903390611fe7565b86519d8e976102f5896117aa565b81895260a0848a0199338b528281019b8c52606081019d8e52608081019e8f52019d8e525193849283925192839161188c565b8101858152030190209a518b611dc7565b89019151166bffffffffffffffffffffffff60a01b8254161790555160028701611dc7565b5160038501558784019051151560ff80198354169116179055519101611dc7565b610398600254928392875180938192895192839161188c565b81016003815203019020556801000000000000000081101561046557808a6103c39201600255611a99565b61045357827fceb2d59502e683f00a1afc723434970a1cbcd23a13295d1fa9f094dc1e9446eb979694926103fe610434979561040f94611dc7565b6104088154611d3d565b9055611cea565b9661042482519660808852608088019061198e565b938601528483039085015261198e565b9360608201528033940390a36000805160206121fd8339815191525580f35b634e487b7160e01b8b528a825260248bfd5b634e487b7160e01b8b526041825260248bfd5b8651631e9acf1760e31b81528590fd5b8092508b8092503d83116104b6575b6104a181836117f6565b810103126104b257829051386102b8565b8e80fd5b503d610497565b8951903d90823e3d90fd5b634e487b7160e01b8b526011825260248bfd5b825163767727f760e01b8152fd5b5084516341becd2f60e11b8152fd5b50845163067116cf60e11b8152fd5b508451630eec403f60e41b8152fd5b5061053f8651610525816117db565b6007815266697066733a2f2f60c81b602082015284612050565b1561021a565b50845163f5217d2760e01b8152fd5b60209150113861020b565b8680fd5b8580fd5b8480fd5b8280fd5b9091503461056b57602036600319011261056b5761058b611a19565b907ff0c57e16840df040f15088dc2f81fe391c3923bec73e23a9662efc9c229c6a009182549160ff83861c1615926001600160401b03811680159081610712575b6001149081610708575b1590816106ff575b506106f05767ffffffffffffffff1981166001178555836106d1575b506001600160a01b0382169182159081156106c7575b506106b9575061061e612118565b610626612118565b61062f33611e90565b610637612118565b61063f612118565b610647612118565b60016000805160206121fd83398151915255610661612118565b84546001600160a01b031916178455610678578280f35b805468ff00000000000000001916905551600181527fc7f505b2f371ae2175ee4913f4499e1f2633a7b5936321eed1cdaeb6115181d290602090a138808280f35b8451630f58058360e11b8152fd5b90503b1538610610565b68ffffffffffffffffff191668010000000000000001178455386105fa565b50845163f92ee8a960e01b8152fd5b905015386105de565b303b1591506105d6565b8591506105cc565b838234610185578160031936011261018557805161075f9161073b826117db565b60058252640352e302e360dc1b60208301525191829160208352602083019061198e565b0390f35b9091503461056b578160031936011261056b57602435918135831580156108ee575b80156108e3575b6108d557825493818511156108ce576107a58286611b09565b905b8082116108c6575b506107b981611d63565b918695600292600254975b888110806108bd575b156108af576107ea6107de82611a99565b508960ff928392611c56565b015416806108a5575b610807575b5061080290611d3d565b6107c4565b819a8661087e60058b61089e958e61082a6108246108029a611a99565b50611c56565b9261085f81519761083a896117aa565b610843866118e9565b895260018601546001600160a01b031660208a015285016118e9565b90870152600383015460608701528201541615156080850152016118e9565b60a082015261088d828a611db3565b526108988189611db3565b50611d3d565b99906107f8565b50848210156107f3565b86518061075f858983611a2f565b50818a106107cd565b9050386107af565b85906107a7565b50516329d976df60e11b8152fd5b50825481101561078c565b5060328411610785565b9091503461056b578260031936011261056b5760209250549051908152f35b83823461018557816003193601126101855760209051602a8152f35b9083346101665760203660031901126101665782356002548110156101855761095b90611a99565b9390936109825761075f8361096f866118e9565b905191829160208352602083019061198e565b634e487b7160e01b8252819052602490fd5b8382346101855781600319360112610185576000805160206121bd8339815191525490516001600160a01b039091168152602090f35b908334610166576020366003190112610166578235906001600160401b03821161016657506020610a028194610a149336910161186e565b8184519382858094519384920161188c565b81016003815203019020549051908152f35b83823461018557816003193601126101855760207f62e78cea01bee320cd4e420270b5ea74000d11b0c9f74754ebdbfc544b05a25891610a64611fae565b610a6c611f34565b6000805160206121dd833981519152805460ff1916600117905551338152a180f35b8334610166578060031936011261016657610aa7611fae565b6000805160206121bd83398151915280546001600160a01b0319811690915581906001600160a01b03167f8be0079c531659141344cd1fd0a4f28419497f9722a3daafe3b4186f6b6457e08280a380f35b9091503461056b578160031936011261056b5780356001600160401b038111610cc857610b28903690830161186e565b9160243592610b35611f04565b610b3d611f34565b81516020818351610b51818385880161188c565b8101600181520301902060ff848201541615610cb95760018101546001600160a01b03919082163303610caa578515610c9a57600301908154602a810290808204602a1481151715610c8757610bad9061271080930490611ae6565b95602a880290888204602a03610c745750927f9ce0e3c72308775f6e26f82ec688446a112aa95d9d95ba42167f7144dad8c8c99594928892610c20950497610bf58985611ae6565b9181831115610c4357610c1a9291610c10918d541692611b09565b9030903390611fe7565b55611cea565b92815194855260208501523393a360016000805160206121fd8339815191525580f35b818310610c53575b505050610c1a565b610c6c92610c64918d541692611b09565b903390611f5f565b388080610c4b565b634e487b7160e01b8a5260119052602489fd5b634e487b7160e01b895260118752602489fd5b505050516341becd2f60e11b8152fd5b505050516282b42960e81b8152fd5b50505163168db56760e31b8152fd5b8380fd5b83823461018557816003193601126101855760209060ff6000805160206121dd833981519152541690519015158152f35b83823461018557606091606060031936011261016657610d1b611a19565b92602435936044359182158015610f03575b610ef35783918496600293600254985b898110610ea1575080821015610e915781811115610e8a57610d5f8282611b09565b955b808711610e82575b50610d7386611d63565b95875b8a811080610e79575b15610e6b5789610d9e8d610d9284611a99565b508160ff938492611c56565b01541680610e3d575b80610e33575b610dc3575b505050610dbe90611d3d565b610d76565b610e0e6005610e2894869e948d94610de0610824610dbe9a611a99565b92610df081519761083a896117aa565b9087015260038301548e8701528201541615156080850152016118e9565b60a0820152610e1d828c611db3565b52610898818b611db3565b989050898d8d610db2565b5086841015610dad565b50610e5f610e4a85611a99565b506001600160a01b0391829160019190611c56565b01541690891614610da7565b89518061075f858b83611a2f565b50818910610d7f565b95508a610d69565b8695610d61565b87516329d976df60e11b81528a90fd5b60ff8b610eb061082484611a99565b01541680610eda575b610ec6575b600101610d3d565b90610ed2600191611d3d565b919050610ebe565b50610ee7610e4a82611a99565b01541690851614610eb9565b84516329d976df60e11b81528790fd5b5060328311610d2d565b908334610166578060031936011261016657507f00000000000000000000000000000000000000000000000000000000000000006001600160a01b03163003610f7957602090517f360894a13ba1a3210667c828492db98dca3e2076cc3735a920a3ca505d382bbc8152f35b5163703e46dd60e11b8152fd5b91508060031936011261056b57610f9b611a19565b906024356001600160401b038111610567573660238201121561056757610fcb9036906024818701359101611832565b6001600160a01b037f00000000000000000000000000000000000000000000000000000000000000008116308114908115611198575b506111885761100e611fae565b82516352d1902d60e01b81529084169360209182818881895afa889181611155575b5061104c578451634c9c8ce360e01b8152808801879052602490fd5b7f360894a13ba1a3210667c828492db98dca3e2076cc3735a920a3ca505d382bbc9692959193969081810361113f5750833b156111285780546001600160a01b0319168217905583518792917fbc7cd75a20ee27fd9adebab32041f755214dbc6bffa90cc0225b39da2e5c2d3b8480a286511561110b5750508085856110fd97519101845af4913d15611101573d6110ef6110e682611817565b925192836117f6565b81528581943d92013e612159565b5080f35b5060609250612159565b945094505050503461111c57505080f35b63b398979f60e01b8152fd5b8451634c9c8ce360e01b8152808401839052602490fd5b83602491875191632a87526960e21b8352820152fd5b9091508381813d8311611181575b61116d81836117f6565b8101031261117d57519038611030565b8880fd5b503d611163565b825163703e46dd60e11b81528590fd5b9050817f360894a13ba1a3210667c828492db98dca3e2076cc3735a920a3ca505d382bbc5416141538611001565b8382346101855781600319360112610185576020905160328152f35b9091503461056b578260031936011261056b576111fd611fae565b6000805160206121dd8339815191529081549060ff82161561124d575060ff19169055513381527f5db9ee0a495bf2e6ff9c91a7834c1ba4fdd244a5e8aa4e537bd38aeae4b073aa90602090a180f35b8351638dfc202b60e01b8152fd5b838234610185578160031936011261018557905490516001600160a01b039091168152602090f35b8382346101855760209182600319360112610166578335906001600160401b03821161016657509061133f60056112df856112c461075f9636908a0161186e565b6112cc611d0a565b508186519382858094519384920161188c565b8101600181520301902060ff8451976112f7896117aa565b611300836118e9565b895260018301546001600160a01b0316888a0152611320600284016118e9565b868a0152600383015460608a01528201541615156080880152016118e9565b60a0850152519282849384528301906119b3565b908334610166576020366003190112610166578235906001600160401b0382116101665750611404926113a3602061139161075f943690850161186e565b8186519382858094519384920161188c565b81016001815203019020926113b7846118e9565b6001850154909490611416906001600160a01b03166113d8600284016118e9565b6113f0600560ff6003870154988701541695016118e9565b948051998a9960c08b5260c08b019061198e565b9260208a01528883039089015261198e565b9260608601521515608085015283820360a085015261198e565b91503461056b57602080600319360112610cc85782356001600160401b03811161056757611461903690850161186e565b611469611f04565b611471611f34565b825181519083818185019361148781838761188c565b810160018152030190209085820195865460ff8116156117805760018401546001600160a01b039490851633036117715760030154602a8102818104602a148215171561175e57906127106114dd920490611ae6565b60ff19918216909855815490811561174b57908894939291600019809201835588518881895161150e81838a61188c565b81016003815203019020549060025480831061157f575b8c888c7fe32c17c71f4e61848aec6c558af72ec21f2a857393f3ab42d61b4c80e0d667aa8d6115628e61155d868f33908a5416611f5f565b611cea565b92519384523393a360016000805160206121fd8339815191525580f35b90919280949596975081019081116117385761159a90611a99565b506115a483611a99565b61172657906115b291611b72565b878b6115bd84611a99565b508b519384929180546115cf816118af565b92600182169182156117125750506001146116df575b505060038152030190205560025480156116cc57019061160482611a99565b9190916116ba57506115629389611667887fe32c17c71f4e61848aec6c558af72ec21f2a857393f3ab42d61b4c80e0d667aa99989661155d9684878f9861164b90546118af565b8061167e575b5050506002558b51809381928a5192839161188c565b810160038152030190205592949581943880611525565b82601f8211600114611696575050555b843880611651565b90918082526116b3601f888420940160051c840160018501611b16565b555561168e565b634e487b7160e01b8a52899052602489fd5b634e487b7160e01b8a526031835260248afd5b9091508e528d8381205b8282106116fb575050810138806115e5565b8054868301528c94869450909101906001016116e9565b1685525050801515028201905038806115e5565b634e487b7160e01b8d528c865260248dfd5b634e487b7160e01b8c526011855260248cfd5b634e487b7160e01b8a526011835260248afd5b634e487b7160e01b8b526011845260248bfd5b87516282b42960e81b81528390fd5b50855163168db56760e31b8152fd5b84913461056b578260031936011261056b5760209250548152f35b60c081019081106001600160401b038211176117c557604052565b634e487b7160e01b600052604160045260246000fd5b604081019081106001600160401b038211176117c557604052565b90601f801991011681019081106001600160401b038211176117c557604052565b6001600160401b0381116117c557601f01601f191660200190565b92919261183e82611817565b9161184c60405193846117f6565b829481845281830111611869578281602093846000960137010152565b600080fd5b9080601f830112156118695781602061188993359101611832565b90565b60005b83811061189f5750506000910152565b818101518382015260200161188f565b90600182811c921680156118df575b60208310146118c957565b634e487b7160e01b600052602260045260246000fd5b91607f16916118be565b906040519182600082546118fc816118af565b9081845260209460019160018116908160001461196c575060011461192d575b50505061192b925003836117f6565b565b600090815285812095935091905b81831061195457505061192b935082010138808061191c565b8554888401850152948501948794509183019161193b565b9250505061192b94925060ff191682840152151560051b82010138808061191c565b906020916119a78151809281855285808601910161188c565b601f01601f1916010190565b6118899160a06119f26119cf845160c0855260c085019061198e565b600180841b0360208601511660208501526040850151848203604086015261198e565b926060810151606084015260808101511515608084015201519060a081840391015261198e565b600435906001600160a01b038216820361186957565b9291906040840190604085528051809252606085019160608160051b870101916020809101936000905b838210611a6d575050505060209150930152565b909192938380611a89600193605f198d820301865289516119b3565b9701920192019094939291611a59565b600254811015611ad05760026000527f405787fa12a823e0f2b7631cc41b3ba8828b3321ca811111fa75cd3aa3bb5ace0190600090565b634e487b7160e01b600052603260045260246000fd5b91908201809211611af357565b634e487b7160e01b600052601160045260246000fd5b91908203918211611af357565b818110611b21575050565b60008155600101611b16565b9190601f8111611b3c57505050565b61192b926000526020600020906020601f840160051c83019310611b68575b601f0160051c0190611b16565b9091508190611b5b565b90808214611c5257611b8481546118af565b906001600160401b0382116117c557611ba782611ba185546118af565b85611b2d565b600090601f8311600114611be757611bd8929160009183611bdc575b50508160011b916000199060031b1c19161790565b9055565b015490503880611bc3565b815260208082208483528183209291601f1985169083905b828210611c39575050908460019594939210611c20575b505050811b019055565b015460001960f88460031b161c19169055388080611c16565b8495819295850154815560018091019601940190611bff565b5050565b604051908160008254611c68816118af565b93600191808316908115611cce5750600114611c90575b505060209250600181520301902090565b9091506000526020906020600020906000915b858310611cba575050505060209181013880611c7f565b805487840152869450918301918101611ca3565b92505050602093915060ff191682528015150281013880611c7f565b611d029060206040519282848094519384920161188c565b810103902090565b60405190611d17826117aa565b606060a08382815260006020820152826040820152600083820152600060808201520152565b6000198114611af35760010190565b6001600160401b0381116117c55760051b60200190565b90611d6d82611d4c565b611d7a60405191826117f6565b8281528092611d8b601f1991611d4c565b019060005b828110611d9c57505050565b602090611da7611d0a565b82828501015201611d90565b8051821015611ad05760209160051b010190565b91909182516001600160401b0381116117c557611dee81611de884546118af565b84611b2d565b602080601f8311600114611e2c57508190611bd8939495600092611e215750508160011b916000199060031b1c19161790565b015190503880611bc3565b90601f19831695846000526020600020926000905b888210611e7857505083600195969710611e5f57505050811b019055565b015160001960f88460031b161c19169055388080611c16565b80600185968294968601518155019501930190611e41565b6001600160a01b03908116908115611eeb576000805160206121bd83398151915280546001600160a01b031981168417909155167f8be0079c531659141344cd1fd0a4f28419497f9722a3daafe3b4186f6b6457e0600080a3565b604051631e4fbdf760e01b815260006004820152602490fd5b6000805160206121fd8339815191526002815414611f225760029055565b604051633ee5aeb560e01b8152600490fd5b60ff6000805160206121dd8339815191525416611f4d57565b60405163d93c066560e01b8152600490fd5b60405163a9059cbb60e01b60208201526001600160a01b03909216602483015260448083019390935291815260808101916001600160401b038311828410176117c55761192b926040526120b0565b6000805160206121bd833981519152546001600160a01b03163303611fcf57565b60405163118cdaa760e01b8152336004820152602490fd5b6040516323b872dd60e01b60208201526001600160a01b03928316602482015292909116604483015260648083019390935291815260a08101918183106001600160401b038411176117c55761192b926040526120b0565b908151811015611ad0570160200190565b9081518151116120a95760009060005b81518110156120a0576001600160f81b03198061207d838761203f565b51169061208a838561203f565b51160361209957600101612060565b5050905090565b50505050600190565b5050600090565b906000602091828151910182855af11561210c576000513d61210357506001600160a01b0381163b155b6120e15750565b604051635274afe760e01b81526001600160a01b039091166004820152602490fd5b600114156120da565b6040513d6000823e3d90fd5b60ff7ff0c57e16840df040f15088dc2f81fe391c3923bec73e23a9662efc9c229c6a005460401c161561214757565b604051631afcd79f60e31b8152600490fd5b90612180575080511561216e57805190602001fd5b60405163d6bda27560e01b8152600490fd5b815115806121b3575b612191575090565b604051639996b31560e01b81526001600160a01b039091166004820152602490fd5b50803b1561218956fe9016d09d72d40fdae2fd8ceac6b6234c7706214fd39c1cd1e609a0528c199300cd5ed15c6e187e77e9aee88184c21f4f2182ab5827cb3b7e07fbedcd63f033009b779b17422d0df92223018b32b4d1fa46e071723d6817e2486d003becc55f00a2646970667358221220a108fdaffa8f2e2730fe7001110f6693b48f2c1864a2afabedc15f39d9508e8764736f6c63430008160033",
  "linkReferences": {},
  "deployedLinkReferences": {}
}