{
  "_format": "hh-sol-artifact-1",
  "contractName": "GreenFiStaking",
  "sourceName": "contracts/GreenFiStaking.sol",
  "abi": [
    {
      "inputs": [
        {
          "internalType": "address",
          "name": "target",
          "type": "address"
        }
      ],
      "name": "AddressEmptyCode",
      "type": "error"
    },
    {
      "inputs": [
        {
          "internalType": "address",
          "name": "implementation",
          "type": "address"
        }
      ],
      "name": "ERC1967InvalidImplementation",
      "type": "error"
    },
    {
      "inputs": [],
      "name": "ERC1967NonPayable",
      "type": "error"
    },
    {
      "inputs": [],
      "name": "EnforcedPause",
      "type": "error"
    },
    {
      "inputs": [],
      "name": "ExpectedPause",
      "type": "error"
    },
    {
      "inputs": [],
      "name": "FailedCall",
      "type": "error"
    },
    {
      "inputs": [],
      "name": "InvalidInitialization",
      "type": "error"
    },
    {
      "inputs": [],
      "name": "NotInitializing",
      "type": "error"
    },
    {
      "inputs": [
        {
          "internalType": "address",
          "name": "owner",
          "type": "address"
        }
      ],
      "name": "OwnableInvalidOwner",
      "type": "error"
    },
    {
      "inputs": [
        {
          "internalType": "address",
          "name": "account",
          "type": "address"
        }
      ],
      "name": "OwnableUnauthorizedAccount",
      "type": "error"
    },
    {
      "inputs": [],
      "name": "ReentrancyGuardReentrantCall",
      "type": "error"
    },
    {
      "inputs": [
        {
          "internalType": "address",
          "name": "token",
          "type": "address"
        }
      ],
      "name": "SafeERC20FailedOperation",
      "type": "error"
    },
    {
      "inputs": [],
      "name": "UUPSUnauthorizedCallContext",
      "type": "error"
    },
    {
      "inputs": [
        {
          "internalType": "bytes32",
          "name": "slot",
          "type": "bytes32"
        }
      ],
      "name": "UUPSUnsupportedProxiableUUID",
      "type": "error"
    },
    {
      "anonymous": false,
      "inputs": [
        {
          "indexed": false,
          "internalType": "uint64",
          "name": "version",
          "type": "uint64"
        }
      ],
      "name": "Initialized",
      "type": "event"
    },
    {
      "anonymous": false,
      "inputs": [
        {
          "indexed": true,
          "internalType": "address",
          "name": "previousOwner",
          "type": "address"
        },
        {
          "indexed": true,
          "internalType": "address",
          "name": "newOwner",
          "type": "address"
        }
      ],
      "name": "OwnershipTransferred",
      "type": "event"
    },
    {
      "anonymous": false,
      "inputs": [
        {
          "indexed": false,
          "internalType": "address",
          "name": "account",
          "type": "address"
        }
      ],
      "name": "Paused",
      "type": "event"
    },
    {
      "anonymous": false,
      "inputs": [
        {
          "indexed": true,
          "internalType": "address",
          "name": "user",
          "type": "address"
        },
        {
          "indexed": false,
          "internalType": "uint256",
          "name": "reward",
          "type": "uint256"
        },
        {
          "indexed": true,
          "internalType": "bytes32",
          "name": "uuid",
          "type": "bytes32"
        }
      ],
      "name": "RewardClaimed",
      "type": "event"
    },
    {
      "anonymous": false,
      "inputs": [
        {
          "indexed": true,
          "internalType": "address",
          "name": "user",
          "type": "address"
        },
        {
          "indexed": true,
          "internalType": "bytes32",
          "name": "uuid",
          "type": "bytes32"
        }
      ],
      "name": "StakeReset",
      "type": "event"
    },
    {
      "anonymous": false,
      "inputs": [
        {
          "indexed": true,
          "internalType": "address",
          "name": "user",
          "type": "address"
        },
        {
          "indexed": false,
          "internalType": "uint256",
          "name": "amount",
          "type": "uint256"
        },
        {
          "indexed": false,
          "internalType": "uint256",
          "name": "duration",
          "type": "uint256"
        },
        {
          "indexed": false,
          "internalType": "uint256",
          "name": "startTime",
          "type": "uint256"
        },
        {
          "indexed": true,
          "internalType": "bytes32",
          "name": "uuid",
          "type": "bytes32"
        }
      ],
      "name": "Staked",
      "type": "event"
    },
    {
      "anonymous": false,
      "inputs": [
        {
          "indexed": false,
          "internalType": "address",
          "name": "account",
          "type": "address"
        }
      ],
      "name": "Unpaused",
      "type": "event"
    },
    {
      "anonymous": false,
      "inputs": [
        {
          "indexed": true,
          "internalType": "address",
          "name": "user",
          "type": "address"
        },
        {
          "indexed": false,
          "internalType": "uint256",
          "name": "amount",
          "type": "uint256"
        },
        {
          "indexed": false,
          "internalType": "uint256",
          "name": "reward",
          "type": "uint256"
        },
        {
          "indexed": true,
          "internalType": "bytes32",
          "name": "uuid",
          "type": "bytes32"
        }
      ],
      "name": "Unstaked",
      "type": "event"
    },
    {
      "anonymous": false,
      "inputs": [
        {
          "indexed": true,
          "internalType": "address",
          "name": "implementation",
          "type": "address"
        }
      ],
      "name": "Upgraded",
      "type": "event"
    },
    {
      "inputs": [],
      "name": "REWARD_RATE",
      "outputs": [
        {
          "internalType": "uint256",
          "name": "",
          "type": "uint256"
        }
      ],
      "stateMutability": "view",
      "type": "function"
    },
    {
      "inputs": [],
      "name": "SECONDS_PER_YEAR",
      "outputs": [
        {
          "internalType": "uint256",
          "name": "",
          "type": "uint256"
        }
      ],
      "stateMutability": "view",
      "type": "function"
    },
    {
      "inputs": [],
      "name": "UPGRADE_INTERFACE_VERSION",
      "outputs": [
        {
          "internalType": "string",
          "name": "",
          "type": "string"
        }
      ],
      "stateMutability": "view",
      "type": "function"
    },
    {
      "inputs": [
        {
          "internalType": "bytes32",
          "name": "_uuid",
          "type": "bytes32"
        }
      ],
      "name": "claimReward",
      "outputs": [],
      "stateMutability": "nonpayable",
      "type": "function"
    },
    {
      "inputs": [],
      "name": "getTotalStaked",
      "outputs": [
        {
          "internalType": "uint256",
          "name": "",
          "type": "uint256"
        }
      ],
      "stateMutability": "view",
      "type": "function"
    },
    {
      "inputs": [
        {
          "internalType": "address",
          "name": "_user",
          "type": "address"
        }
      ],
      "name": "getUserStakes",
      "outputs": [
        {
          "components": [
            {
              "internalType": "address",
              "name": "user",
              "type": "address"
            },
            {
              "internalType": "uint256",
              "name": "amount",
              "type": "uint256"
            },
            {
              "internalType": "uint256",
              "name": "startTime",
              "type": "uint256"
            },
            {
              "internalType": "uint256",
              "name": "duration",
              "type": "uint256"
            },
            {
              "internalType": "uint256",
              "name": "rewardDebt",
              "type": "uint256"
            },
            {
              "internalType": "bool",
              "name": "isActive",
              "type": "bool"
            },
            {
              "internalType": "bytes32",
              "name": "uuid",
              "type": "bytes32"
            }
          ],
          "internalType": "struct GreenFiStaking.Stake[]",
          "name": "",
          "type": "tuple[]"
        }
      ],
      "stateMutability": "view",
      "type": "function"
    },
    {
      "inputs": [
        {
          "internalType": "address",
          "name": "_weedlToken",
          "type": "address"
        }
      ],
      "name": "initialize",
      "outputs": [],
      "stateMutability": "nonpayable",
      "type": "function"
    },
    {
      "inputs": [],
      "name": "owner",
      "outputs": [
        {
          "internalType": "address",
          "name": "",
          "type": "address"
        }
      ],
      "stateMutability": "view",
      "type": "function"
    },
    {
      "inputs": [],
      "name": "pause",
      "outputs": [],
      "stateMutability": "nonpayable",
      "type": "function"
    },
    {
      "inputs": [],
      "name": "paused",
      "outputs": [
        {
          "internalType": "bool",
          "name": "",
          "type": "bool"
        }
      ],
      "stateMutability": "view",
      "type": "function"
    },
    {
      "inputs": [],
      "name": "proxiableUUID",
      "outputs": [
        {
          "internalType": "bytes32",
          "name": "",
          "type": "bytes32"
        }
      ],
      "stateMutability": "view",
      "type": "function"
    },
    {
      "inputs": [],
      "name": "renounceOwnership",
      "outputs": [],
      "stateMutability": "nonpayable",
      "type": "function"
    },
    {
      "inputs": [
        {
          "internalType": "address",
          "name": "_user",
          "type": "address"
        },
        {
          "internalType": "bytes32",
          "name": "_uuid",
          "type": "bytes32"
        }
      ],
      "name": "resetStake",
      "outputs": [],
      "stateMutability": "nonpayable",
      "type": "function"
    },
    {
      "inputs": [
        {
          "internalType": "uint256",
          "name": "_amount",
          "type": "uint256"
        },
        {
          "internalType": "uint256",
          "name": "_duration",
          "type": "uint256"
        }
      ],
      "name": "stake",
      "outputs": [],
      "stateMutability": "nonpayable",
      "type": "function"
    },
    {
      "inputs": [
        {
          "internalType": "address",
          "name": "_user",
          "type": "address"
        },
        {
          "internalType": "uint256",
          "name": "_index",
          "type": "uint256"
        }
      ],
      "name": "stakes",
      "outputs": [
        {
          "components": [
            {
              "internalType": "address",
              "name": "user",
              "type": "address"
            },
            {
              "internalType": "uint256",
              "name": "amount",
              "type": "uint256"
            },
            {
              "internalType": "uint256",
              "name": "startTime",
              "type": "uint256"
            },
            {
              "internalType": "uint256",
              "name": "duration",
              "type": "uint256"
            },
            {
              "internalType": "uint256",
              "name": "rewardDebt",
              "type": "uint256"
            },
            {
              "internalType": "bool",
              "name": "isActive",
              "type": "bool"
            },
            {
              "internalType": "bytes32",
              "name": "uuid",
              "type": "bytes32"
            }
          ],
          "internalType": "struct GreenFiStaking.Stake",
          "name": "",
          "type": "tuple"
        }
      ],
      "stateMutability": "view",
      "type": "function"
    },
    {
      "inputs": [
        {
          "internalType": "address",
          "name": "newOwner",
          "type": "address"
        }
      ],
      "name": "transferOwnership",
      "outputs": [],
      "stateMutability": "nonpayable",
      "type": "function"
    },
    {
      "inputs": [],
      "name": "unpause",
      "outputs": [],
      "stateMutability": "nonpayable",
      "type": "function"
    },
    {
      "inputs": [
        {
          "internalType": "uint256",
          "name": "_amount",
          "type": "uint256"
        },
        {
          "internalType": "bytes32",
          "name": "_uuid",
          "type": "bytes32"
        }
      ],
      "name": "unstake",
      "outputs": [],
      "stateMutability": "nonpayable",
      "type": "function"
    },
    {
      "inputs": [
        {
          "internalType": "address",
          "name": "newImplementation",
          "type": "address"
        },
        {
          "internalType": "bytes",
          "name": "data",
          "type": "bytes"
        }
      ],
      "name": "upgradeToAndCall",
      "outputs": [],
      "stateMutability": "payable",
      "type": "function"
    },
    {
      "inputs": [],
      "name": "weedlToken",
      "outputs": [
        {
          "internalType": "contract IERC20",
          "name": "",
          "type": "address"
        }
      ],
      "stateMutability": "view",
      "type": "function"
    }
  ],
  "bytecode": "0x60a0806040523461002a57306080526117d990816100308239608051818181610cbe0152610d9e0152f35b600080fdfe6080604081815260048036101561001557600080fd5b60009260e0843560e01c9182630917e77614611161575081630d7965941461102e5781633b9c8cfe146110055781633f4ba83a14610f8d5781634f1ef28614610d2257816352d1902d14610ca8578163584b62a114610bd55781635997bb3714610bb75781635c975abb14610b85578163715018a614610b1b5781637b0472f01461087c578163842e298114610778575080638456cb59146107105780638da5cb5b146106da578063ad3cb1cc1461063c578063c4d66de814610479578063ca34f02b146102d6578063e6a69ab8146102b3578063f2fde38b146102835763f54140231461010257600080fd5b3461027f57602036600319011261027f5780359161011e611535565b610126611565565b338452600160205261015081852061013e85336114ad565b9061014b8154831061126f565b6112b0565b5060ff60058201541680610272575b1561023d57826101916002830154600384015461018761017f82846113af565b4210156113bc565b6001850154611590565b9101928354908183111561020357506101aa90826112e2565b925583546101c490839033906001600160a01b03166115e5565b519081527fe413caa6d70a6d9b51c2af2575a2914490f614355049af8ae7cde5caab9fd20160203392a360016000805160206117848339815191525580f35b606490602085519162461bcd60e51b835282015260146024820152734e6f207265776172647320617661696c61626c6560601b6044820152fd5b815162461bcd60e51b8152602081850152600f60248201526e4e6f20616374697665207374616b6560881b6044820152606490fd5b506001810154151561015f565b8280fd5b83346102b05760203660031901126102b0576102ad6102a061117d565b6102a8611474565b611400565b80f35b80fd5b5050346102d257816003193601126102d257602090516301e133808152f35b5080fd5b50903461027f578060031936011261027f57813590602435926102f7611535565b6102ff611565565b61030a831515611363565b338552600160205261032282862061013e86336114ad565b5090600582019081549060ff82168061046b575b1561042857509082918760027f97d5e5a1b6fab38e6ea76b7c8719e28c96e7f3c29b8b6cf12901866a71cb8261969501549261038b600160038701549661038061017f89896113af565b019485549687611590565b948810156103f6575050506103a18582546112e2565b90556103af846003546112e2565b6003555b85546103d4906001600160a01b03166103cc83876113af565b9033906115e5565b815193845260208401523392a360016000805160206117848339815191525580f35b60ff19928316905590915560035461040f9086906112e2565b60035585875260026020528287209081541690556103b3565b606490602086519162461bcd60e51b8352820152601e60248201527f496e73756666696369656e74206f7220696e616374697665207374616b6500006044820152fd5b508560018501541015610336565b503461027f57602036600319011261027f5761049361117d565b7ff0c57e16840df040f15088dc2f81fe391c3923bec73e23a9662efc9c229c6a009182549160ff83861c16159267ffffffffffffffff811680159081610634575b600114908161062a575b159081610621575b506106115767ffffffffffffffff1981166001178555836105f2575b506001600160a01b03169081156105b7575061051c61169f565b61052461169f565b61052d33611400565b61053561169f565b61053d61169f565b61054561169f565b60016000805160206117848339815191525561055f61169f565b84546001600160a01b031916178455610576578280f35b805468ff00000000000000001916905551600181527fc7f505b2f371ae2175ee4913f4499e1f2633a7b5936321eed1cdaeb6115181d290602090a138808280f35b606490602086519162461bcd60e51b83528201526015602482015274496e76616c696420746f6b656e206164647265737360581b6044820152fd5b68ffffffffffffffffff19166801000000000000000117845538610502565b855163f92ee8a960e01b81528390fd5b905015386104e6565b303b1591506104de565b8591506104d4565b503461027f578260031936011261027f578151908282019082821067ffffffffffffffff8311176106c75750825260058152602090640352e302e360dc1b6020820152825193849260208452825192836020860152825b8481106106b157505050828201840152601f01601f19168101030190f35b8181018301518882018801528795508201610693565b634e487b7160e01b855260419052602484fd5b5050346102d257816003193601126102d2576000805160206117448339815191525490516001600160a01b039091168152602090f35b5050346102d257816003193601126102d25760207f62e78cea01bee320cd4e420270b5ea74000d11b0c9f74754ebdbfc544b05a2589161074e611474565b610756611565565b600080516020611764833981519152805460ff1916600117905551338152a180f35b91849150346102d25760208060031936011261027f576001600160a01b0361079e61117d565b168352600192600182528581209485549367ffffffffffffffff8511610869575093869386938551916107d6828260051b01846111e6565b8083528183018096865282862086915b83831061083c57505050508551968796828801938389525180945287019594905b8382106108145787870388f35b91859750828761082a8799849895979951611224565b01970192018796959391949294610807565b95600785829a9b9c9698610852859b999b611305565b8152019201920191909998979593999694966107e6565b634e487b7160e01b835260419052602482fd5b5050903461027f578060031936011261027f5781359060243561089d611535565b6108a5611565565b6108b0831515611363565b8015610ad85760018060a01b039384865416906108fb84516020936323b872dd60e01b85830152336024830152306044830152876064830152606482526108f6826111ca565b611637565b8351828101903360601b825286603482015242605482015243607482015260748152610926816111ca565b519020958688526002835260ff8589205416610a96573388526001835286858920928987519361095585611198565b3385528685018a81528986019042825260608701928a84526080880194855260a088019860018a5260c0890197885280549068010000000000000000821015610a8157906109a8916001820181556112b0565b989098610a6e579060069796959493929151166bffffffffffffffffffffffff60a01b895416178855516001880155516002870155516003860155519084015560058301935115159360ff199460ff8683541691161790555191015585875260028252600184882091825416179055610a23846003546113af565b600355825193845283015242908201527f87338e3ee4f74a128e43e1cc852373ea84a0e04e21f4c541d1d82cc52d7f292660603392a360016000805160206117848339815191525580f35b50634e487b7160e01b8f528e865260248ffd5b5050634e487b7160e01b8f526041865260248ffd5b5060649184519162461bcd60e51b8352820152601760248201527f5555494420636f6c6c6973696f6e2064657465637465640000000000000000006044820152fd5b815162461bcd60e51b8152602081860152601f60248201527f4475726174696f6e206d7573742062652067726561746572207468616e2030006044820152606490fd5b84346102b057806003193601126102b057610b34611474565b60008051602061174483398151915280546001600160a01b0319811690915581906001600160a01b03167f8be0079c531659141344cd1fd0a4f28419497f9722a3daafe3b4186f6b6457e08280a380f35b505050346102d257816003193601126102d25760209060ff600080516020611764833981519152541690519015158152f35b505050346102d257816003193601126102d257602090516101a48152f35b505082346102b057826003193601126102b057610bf061117d565b91602435928260c08651610c0381611198565b82815282602082015282888201528260608201528260808201528260a0820152015260018060a01b031690818352600160205284832054841015610c6f5760e085610c6d610c64610c5e8884898981526001602052206112b0565b50611305565b91518092611224565bf35b606490602086519162461bcd60e51b83528201526013602482015272092dcecc2d8d2c840e6e8c2d6ca40d2dcc8caf606b1b6044820152fd5b505091346102b057806003193601126102b057507f00000000000000000000000000000000000000000000000000000000000000006001600160a01b03163003610d1557602090517f360894a13ba1a3210667c828492db98dca3e2076cc3735a920a3ca505d382bbc8152f35b5163703e46dd60e11b8152fd5b5050908060031936011261027f57610d3861117d565b90602493843567ffffffffffffffff81116102d257366023820112156102d25780850135610d6581611208565b94610d72855196876111e6565b81865260209182870193368a8383010111610f89578186928b8693018737880101526001600160a01b037f00000000000000000000000000000000000000000000000000000000000000008116308114908115610f5b575b50610f4b57610dd7611474565b81169585516352d1902d60e01b815283818a818b5afa869181610f18575b50610e11575050505050505191634c9c8ce360e01b8352820152fd5b9088888894938c7f360894a13ba1a3210667c828492db98dca3e2076cc3735a920a3ca505d382bbc91828103610f035750853b15610eef575080546001600160a01b031916821790558451889392917fbc7cd75a20ee27fd9adebab32041f755214dbc6bffa90cc0225b39da2e5c2d3b8580a2825115610ed1575050610ec39582915190845af4913d15610ec7573d610eb5610eac82611208565b925192836111e6565b81528581943d92013e6116e0565b5080f35b50606092506116e0565b955095505050505034610ee357505080f35b63b398979f60e01b8152fd5b8651634c9c8ce360e01b8152808501849052fd5b8751632a87526960e21b815280860191909152fd5b9091508481813d8311610f44575b610f3081836111e6565b81010312610f4057519038610df5565b8680fd5b503d610f26565b855163703e46dd60e11b81528890fd5b9050817f360894a13ba1a3210667c828492db98dca3e2076cc3735a920a3ca505d382bbc5416141538610dca565b8580fd5b50503461027f578260031936011261027f57610fa7611474565b6000805160206117648339815191529081549060ff821615610ff7575060ff19169055513381527f5db9ee0a495bf2e6ff9c91a7834c1ba4fdd244a5e8aa4e537bd38aeae4b073aa90602090a180f35b8351638dfc202b60e01b8152fd5b505050346102d257816003193601126102d257905490516001600160a01b039091168152602090f35b50503461027f578160031936011261027f5761104861117d565b9060243592611055611474565b6001600160a01b0383169283156111275790611074856110c1936114ad565b9084875260016020528087209061108d8254841061126f565b6110a7600161109c85856112b0565b5001546003546112e2565b60035586885260026020528720805460ff191690556112b0565b9190916111155781856006928180955581600184015581600284015581600384015582015582600582015501557f54a60f478ca425e614079c5be9e8687e34a2f6ce8da98b5d4c0d792f94cc2e0a8380a380f35b634e487b7160e01b8552849052602484fd5b815162461bcd60e51b81526020818501526014602482015273496e76616c69642075736572206164647265737360601b6044820152606490fd5b8590346102d257816003193601126102d2576020906003548152f35b600435906001600160a01b038216820361119357565b600080fd5b60e0810190811067ffffffffffffffff8211176111b457604052565b634e487b7160e01b600052604160045260246000fd5b60a0810190811067ffffffffffffffff8211176111b457604052565b90601f8019910116810190811067ffffffffffffffff8211176111b457604052565b67ffffffffffffffff81116111b457601f01601f191660200190565b60c0809160018060a01b0381511684526020810151602085015260408101516040850152606081015160608501526080810151608085015260a0810151151560a08501520151910152565b1561127657565b60405162461bcd60e51b8152602060048201526012602482015271125b9d985b1a59081cdd185ad9481555525160721b6044820152606490fd5b80548210156112cc576000526007602060002091020190600090565b634e487b7160e01b600052603260045260246000fd5b919082039182116112ef57565b634e487b7160e01b600052601160045260246000fd5b9060405161131281611198565b82546001600160a01b0316815260018301546020820152600283015460408201526003830154606082015260048301546080820152600583015460ff16151560a082015260069092015460c0830152565b1561136a57565b60405162461bcd60e51b815260206004820152601d60248201527f416d6f756e74206d7573742062652067726561746572207468616e20300000006044820152606490fd5b919082018092116112ef57565b156113c357565b60405162461bcd60e51b815260206004820152601560248201527414dd185ad9481a5cc81cdd1a5b1b081b1bd8dad959605a1b6044820152606490fd5b6001600160a01b0390811690811561145b5760008051602061174483398151915280546001600160a01b031981168417909155167f8be0079c531659141344cd1fd0a4f28419497f9722a3daafe3b4186f6b6457e0600080a3565b604051631e4fbdf760e01b815260006004820152602490fd5b600080516020611744833981519152546001600160a01b0316330361149557565b60405163118cdaa760e01b8152336004820152602490fd5b60018060a01b031660005260019160016020526040600020916000928054935b8481106115105760405162461bcd60e51b815260206004820152601460248201527314dd185ad94815555251081b9bdd08199bdd5b9960621b6044820152606490fd5b82600661151d83856112b0565b5001541461152c5785016114cd565b93505050915090565b60008051602061178483398151915260028154146115535760029055565b604051633ee5aeb560e01b8152600490fd5b60ff600080516020611764833981519152541661157e57565b60405163d93c066560e01b8152600490fd5b9161159b82826113af565b4211156115d45750905b8181029181830414901517156112ef576101a4908181029181830414901517156112ef5764496cebb800900490565b6115df9150426112e2565b906115a5565b60405163a9059cbb60e01b60208201526001600160a01b039092166024830152604480830193909352918152608081019167ffffffffffffffff8311828410176111b45761163592604052611637565b565b906000602091828151910182855af115611693576000513d61168a57506001600160a01b0381163b155b6116685750565b604051635274afe760e01b81526001600160a01b039091166004820152602490fd5b60011415611661565b6040513d6000823e3d90fd5b60ff7ff0c57e16840df040f15088dc2f81fe391c3923bec73e23a9662efc9c229c6a005460401c16156116ce57565b604051631afcd79f60e31b8152600490fd5b9061170757508051156116f557602081519101fd5b60405163d6bda27560e01b8152600490fd5b8151158061173a575b611718575090565b604051639996b31560e01b81526001600160a01b039091166004820152602490fd5b50803b1561171056fe9016d09d72d40fdae2fd8ceac6b6234c7706214fd39c1cd1e609a0528c199300cd5ed15c6e187e77e9aee88184c21f4f2182ab5827cb3b7e07fbedcd63f033009b779b17422d0df92223018b32b4d1fa46e071723d6817e2486d003becc55f00a2646970667358221220c85e49a907486157c9fe78d2e8b486163553939c04f1866b8eefbe03253e5a3964736f6c63430008160033",
  "linkReferences": {},
  "deployedLinkReferences": {}
}