{
  "_format": "hh-sol-artifact-1",
  "contractName": "GreenFiProducts",
  "sourceName": "contracts/GreenFiProducts.sol",
  "abi": [
    {
      "inputs": [],
      "stateMutability": "nonpayable",
      "type": "constructor"
    },
    {
      "inputs": [
        {
          "internalType": "address",
          "name": "target",
          "type": "address"
        }
      ],
      "name": "AddressEmptyCode",
      "type": "error"
    },
    {
      "inputs": [
        {
          "internalType": "address",
          "name": "implementation",
          "type": "address"
        }
      ],
      "name": "ERC1967InvalidImplementation",
      "type": "error"
    },
    {
      "inputs": [],
      "name": "ERC1967NonPayable",
      "type": "error"
    },
    {
      "inputs": [],
      "name": "EnforcedPause",
      "type": "error"
    },
    {
      "inputs": [],
      "name": "ExpectedPause",
      "type": "error"
    },
    {
      "inputs": [],
      "name": "FailedCall",
      "type": "error"
    },
    {
      "inputs": [],
      "name": "InvalidInitialization",
      "type": "error"
    },
    {
      "inputs": [],
      "name": "NotInitializing",
      "type": "error"
    },
    {
      "inputs": [
        {
          "internalType": "address",
          "name": "owner",
          "type": "address"
        }
      ],
      "name": "OwnableInvalidOwner",
      "type": "error"
    },
    {
      "inputs": [
        {
          "internalType": "address",
          "name": "account",
          "type": "address"
        }
      ],
      "name": "OwnableUnauthorizedAccount",
      "type": "error"
    },
    {
      "inputs": [],
      "name": "ReentrancyGuardReentrantCall",
      "type": "error"
    },
    {
      "inputs": [
        {
          "internalType": "address",
          "name": "token",
          "type": "address"
        }
      ],
      "name": "SafeERC20FailedOperation",
      "type": "error"
    },
    {
      "inputs": [],
      "name": "UUPSUnauthorizedCallContext",
      "type": "error"
    },
    {
      "inputs": [
        {
          "internalType": "bytes32",
          "name": "slot",
          "type": "bytes32"
        }
      ],
      "name": "UUPSUnsupportedProxiableUUID",
      "type": "error"
    },
    {
      "anonymous": false,
      "inputs": [
        {
          "indexed": true,
          "internalType": "address",
          "name": "payer",
          "type": "address"
        },
        {
          "indexed": false,
          "internalType": "uint256",
          "name": "feeAmount",
          "type": "uint256"
        }
      ],
      "name": "FeeCollected",
      "type": "event"
    },
    {
      "anonymous": false,
      "inputs": [
        {
          "indexed": false,
          "internalType": "uint64",
          "name": "version",
          "type": "uint64"
        }
      ],
      "name": "Initialized",
      "type": "event"
    },
    {
      "anonymous": false,
      "inputs": [
        {
          "indexed": true,
          "internalType": "address",
          "name": "previousOwner",
          "type": "address"
        },
        {
          "indexed": true,
          "internalType": "address",
          "name": "newOwner",
          "type": "address"
        }
      ],
      "name": "OwnershipTransferred",
      "type": "event"
    },
    {
      "anonymous": false,
      "inputs": [
        {
          "indexed": false,
          "internalType": "address",
          "name": "account",
          "type": "address"
        }
      ],
      "name": "Paused",
      "type": "event"
    },
    {
      "anonymous": false,
      "inputs": [
        {
          "indexed": true,
          "internalType": "string",
          "name": "productId",
          "type": "string"
        },
        {
          "indexed": true,
          "internalType": "address",
          "name": "seller",
          "type": "address"
        }
      ],
      "name": "ProductDelisted",
      "type": "event"
    },
    {
      "anonymous": false,
      "inputs": [
        {
          "indexed": true,
          "internalType": "string",
          "name": "productId",
          "type": "string"
        },
        {
          "indexed": true,
          "internalType": "address",
          "name": "seller",
          "type": "address"
        },
        {
          "indexed": false,
          "internalType": "string",
          "name": "metadataURI",
          "type": "string"
        },
        {
          "indexed": false,
          "internalType": "string",
          "name": "category",
          "type": "string"
        },
        {
          "indexed": false,
          "internalType": "uint256",
          "name": "price",
          "type": "uint256"
        },
        {
          "indexed": false,
          "internalType": "string",
          "name": "contactInfo",
          "type": "string"
        },
        {
          "indexed": false,
          "internalType": "uint256",
          "name": "unitQuantity",
          "type": "uint256"
        },
        {
          "indexed": false,
          "internalType": "uint256",
          "name": "quantityAvailable",
          "type": "uint256"
        },
        {
          "indexed": false,
          "internalType": "uint256",
          "name": "discount",
          "type": "uint256"
        },
        {
          "indexed": false,
          "internalType": "uint256",
          "name": "fee",
          "type": "uint256"
        }
      ],
      "name": "ProductListed",
      "type": "event"
    },
    {
      "anonymous": false,
      "inputs": [
        {
          "indexed": true,
          "internalType": "string",
          "name": "productId",
          "type": "string"
        },
        {
          "indexed": true,
          "internalType": "address",
          "name": "buyer",
          "type": "address"
        },
        {
          "indexed": false,
          "internalType": "uint256",
          "name": "quantityPurchased",
          "type": "uint256"
        },
        {
          "indexed": false,
          "internalType": "uint256",
          "name": "totalPrice",
          "type": "uint256"
        }
      ],
      "name": "ProductPurchased",
      "type": "event"
    },
    {
      "anonymous": false,
      "inputs": [
        {
          "indexed": false,
          "internalType": "address",
          "name": "account",
          "type": "address"
        }
      ],
      "name": "Unpaused",
      "type": "event"
    },
    {
      "anonymous": false,
      "inputs": [
        {
          "indexed": true,
          "internalType": "address",
          "name": "implementation",
          "type": "address"
        }
      ],
      "name": "Upgraded",
      "type": "event"
    },
    {
      "inputs": [],
      "name": "FEE_BASIS_POINTS",
      "outputs": [
        {
          "internalType": "uint256",
          "name": "",
          "type": "uint256"
        }
      ],
      "stateMutability": "view",
      "type": "function"
    },
    {
      "inputs": [],
      "name": "MAX_CONTACT_LENGTH",
      "outputs": [
        {
          "internalType": "uint256",
          "name": "",
          "type": "uint256"
        }
      ],
      "stateMutability": "view",
      "type": "function"
    },
    {
      "inputs": [],
      "name": "MAX_DISCOUNT",
      "outputs": [
        {
          "internalType": "uint256",
          "name": "",
          "type": "uint256"
        }
      ],
      "stateMutability": "view",
      "type": "function"
    },
    {
      "inputs": [],
      "name": "MAX_PRODUCT_ID_LENGTH",
      "outputs": [
        {
          "internalType": "uint256",
          "name": "",
          "type": "uint256"
        }
      ],
      "stateMutability": "view",
      "type": "function"
    },
    {
      "inputs": [],
      "name": "MAX_QUANTITY",
      "outputs": [
        {
          "internalType": "uint256",
          "name": "",
          "type": "uint256"
        }
      ],
      "stateMutability": "view",
      "type": "function"
    },
    {
      "inputs": [],
      "name": "MIN_PRICE",
      "outputs": [
        {
          "internalType": "uint256",
          "name": "",
          "type": "uint256"
        }
      ],
      "stateMutability": "view",
      "type": "function"
    },
    {
      "inputs": [],
      "name": "UPGRADE_INTERFACE_VERSION",
      "outputs": [
        {
          "internalType": "string",
          "name": "",
          "type": "string"
        }
      ],
      "stateMutability": "view",
      "type": "function"
    },
    {
      "inputs": [
        {
          "internalType": "string",
          "name": "_productId",
          "type": "string"
        }
      ],
      "name": "delistProduct",
      "outputs": [],
      "stateMutability": "nonpayable",
      "type": "function"
    },
    {
      "inputs": [],
      "name": "getAllProducts",
      "outputs": [
        {
          "components": [
            {
              "internalType": "string",
              "name": "id",
              "type": "string"
            },
            {
              "internalType": "address",
              "name": "seller",
              "type": "address"
            },
            {
              "internalType": "string",
              "name": "metadataURI",
              "type": "string"
            },
            {
              "internalType": "string",
              "name": "category",
              "type": "string"
            },
            {
              "internalType": "uint256",
              "name": "price",
              "type": "uint256"
            },
            {
              "internalType": "string",
              "name": "contactInfo",
              "type": "string"
            },
            {
              "internalType": "uint256",
              "name": "unitQuantity",
              "type": "uint256"
            },
            {
              "internalType": "uint256",
              "name": "quantityAvailable",
              "type": "uint256"
            },
            {
              "internalType": "uint256",
              "name": "discount",
              "type": "uint256"
            },
            {
              "internalType": "bool",
              "name": "isActive",
              "type": "bool"
            }
          ],
          "internalType": "struct GreenFiProducts.Product[]",
          "name": "",
          "type": "tuple[]"
        }
      ],
      "stateMutability": "view",
      "type": "function"
    },
    {
      "inputs": [
        {
          "internalType": "address",
          "name": "_seller",
          "type": "address"
        }
      ],
      "name": "getSellerProducts",
      "outputs": [
        {
          "components": [
            {
              "internalType": "string",
              "name": "id",
              "type": "string"
            },
            {
              "internalType": "address",
              "name": "seller",
              "type": "address"
            },
            {
              "internalType": "string",
              "name": "metadataURI",
              "type": "string"
            },
            {
              "internalType": "string",
              "name": "category",
              "type": "string"
            },
            {
              "internalType": "uint256",
              "name": "price",
              "type": "uint256"
            },
            {
              "internalType": "string",
              "name": "contactInfo",
              "type": "string"
            },
            {
              "internalType": "uint256",
              "name": "unitQuantity",
              "type": "uint256"
            },
            {
              "internalType": "uint256",
              "name": "quantityAvailable",
              "type": "uint256"
            },
            {
              "internalType": "uint256",
              "name": "discount",
              "type": "uint256"
            },
            {
              "internalType": "bool",
              "name": "isActive",
              "type": "bool"
            }
          ],
          "internalType": "struct GreenFiProducts.Product[]",
          "name": "",
          "type": "tuple[]"
        }
      ],
      "stateMutability": "view",
      "type": "function"
    },
    {
      "inputs": [],
      "name": "getValidUnitQuantities",
      "outputs": [
        {
          "internalType": "uint256[]",
          "name": "",
          "type": "uint256[]"
        }
      ],
      "stateMutability": "view",
      "type": "function"
    },
    {
      "inputs": [
        {
          "internalType": "address",
          "name": "_weedlToken",
          "type": "address"
        }
      ],
      "name": "initialize",
      "outputs": [],
      "stateMutability": "nonpayable",
      "type": "function"
    },
    {
      "inputs": [
        {
          "internalType": "string",
          "name": "_productId",
          "type": "string"
        }
      ],
      "name": "isProductIdAvailable",
      "outputs": [
        {
          "internalType": "bool",
          "name": "",
          "type": "bool"
        }
      ],
      "stateMutability": "view",
      "type": "function"
    },
    {
      "inputs": [
        {
          "internalType": "string",
          "name": "_productId",
          "type": "string"
        },
        {
          "internalType": "string",
          "name": "_metadataURI",
          "type": "string"
        },
        {
          "internalType": "uint256",
          "name": "_price",
          "type": "uint256"
        },
        {
          "internalType": "string",
          "name": "_contactInfo",
          "type": "string"
        },
        {
          "internalType": "string",
          "name": "_category",
          "type": "string"
        },
        {
          "internalType": "uint256",
          "name": "_unitQuantity",
          "type": "uint256"
        },
        {
          "internalType": "uint256",
          "name": "_quantityAvailable",
          "type": "uint256"
        },
        {
          "internalType": "uint256",
          "name": "_discount",
          "type": "uint256"
        }
      ],
      "name": "listProduct",
      "outputs": [],
      "stateMutability": "nonpayable",
      "type": "function"
    },
    {
      "inputs": [],
      "name": "owner",
      "outputs": [
        {
          "internalType": "address",
          "name": "",
          "type": "address"
        }
      ],
      "stateMutability": "view",
      "type": "function"
    },
    {
      "inputs": [],
      "name": "pause",
      "outputs": [],
      "stateMutability": "nonpayable",
      "type": "function"
    },
    {
      "inputs": [],
      "name": "paused",
      "outputs": [
        {
          "internalType": "bool",
          "name": "",
          "type": "bool"
        }
      ],
      "stateMutability": "view",
      "type": "function"
    },
    {
      "inputs": [
        {
          "internalType": "uint256",
          "name": "",
          "type": "uint256"
        }
      ],
      "name": "productIds",
      "outputs": [
        {
          "internalType": "string",
          "name": "",
          "type": "string"
        }
      ],
      "stateMutability": "view",
      "type": "function"
    },
    {
      "inputs": [
        {
          "internalType": "string",
          "name": "",
          "type": "string"
        }
      ],
      "name": "products",
      "outputs": [
        {
          "internalType": "string",
          "name": "id",
          "type": "string"
        },
        {
          "internalType": "address",
          "name": "seller",
          "type": "address"
        },
        {
          "internalType": "string",
          "name": "metadataURI",
          "type": "string"
        },
        {
          "internalType": "string",
          "name": "category",
          "type": "string"
        },
        {
          "internalType": "uint256",
          "name": "price",
          "type": "uint256"
        },
        {
          "internalType": "string",
          "name": "contactInfo",
          "type": "string"
        },
        {
          "internalType": "uint256",
          "name": "unitQuantity",
          "type": "uint256"
        },
        {
          "internalType": "uint256",
          "name": "quantityAvailable",
          "type": "uint256"
        },
        {
          "internalType": "uint256",
          "name": "discount",
          "type": "uint256"
        },
        {
          "internalType": "bool",
          "name": "isActive",
          "type": "bool"
        }
      ],
      "stateMutability": "view",
      "type": "function"
    },
    {
      "inputs": [],
      "name": "proxiableUUID",
      "outputs": [
        {
          "internalType": "bytes32",
          "name": "",
          "type": "bytes32"
        }
      ],
      "stateMutability": "view",
      "type": "function"
    },
    {
      "inputs": [
        {
          "internalType": "string",
          "name": "_productId",
          "type": "string"
        },
        {
          "internalType": "uint256",
          "name": "_quantityPurchased",
          "type": "uint256"
        }
      ],
      "name": "purchaseProduct",
      "outputs": [],
      "stateMutability": "nonpayable",
      "type": "function"
    },
    {
      "inputs": [],
      "name": "renounceOwnership",
      "outputs": [],
      "stateMutability": "nonpayable",
      "type": "function"
    },
    {
      "inputs": [
        {
          "internalType": "address",
          "name": "",
          "type": "address"
        },
        {
          "internalType": "uint256",
          "name": "",
          "type": "uint256"
        }
      ],
      "name": "sellerProducts",
      "outputs": [
        {
          "internalType": "string",
          "name": "",
          "type": "string"
        }
      ],
      "stateMutability": "view",
      "type": "function"
    },
    {
      "inputs": [
        {
          "internalType": "address",
          "name": "newOwner",
          "type": "address"
        }
      ],
      "name": "transferOwnership",
      "outputs": [],
      "stateMutability": "nonpayable",
      "type": "function"
    },
    {
      "inputs": [],
      "name": "unpause",
      "outputs": [],
      "stateMutability": "nonpayable",
      "type": "function"
    },
    {
      "inputs": [
        {
          "internalType": "address",
          "name": "newImplementation",
          "type": "address"
        },
        {
          "internalType": "bytes",
          "name": "data",
          "type": "bytes"
        }
      ],
      "name": "upgradeToAndCall",
      "outputs": [],
      "stateMutability": "payable",
      "type": "function"
    },
    {
      "inputs": [
        {
          "internalType": "uint256",
          "name": "",
          "type": "uint256"
        }
      ],
      "name": "validUnitQuantities",
      "outputs": [
        {
          "internalType": "uint256",
          "name": "",
          "type": "uint256"
        }
      ],
      "stateMutability": "view",
      "type": "function"
    },
    {
      "inputs": [],
      "name": "weedlToken",
      "outputs": [
        {
          "internalType": "contract IERC20",
          "name": "",
          "type": "address"
        }
      ],
      "stateMutability": "view",
      "type": "function"
    },
    {
      "inputs": [],
      "name": "withdrawFees",
      "outputs": [],
      "stateMutability": "nonpayable",
      "type": "function"
    }
  ],
  "bytecode": "0x60a080604052346100cc57306080527ff0c57e16840df040f15088dc2f81fe391c3923bec73e23a9662efc9c229c6a009081549060ff8260401c166100bd57506001600160401b036002600160401b031982821601610078575b60405161271d90816100d28239608051818181611562015261161b0152f35b6001600160401b031990911681179091556040519081527fc7f505b2f371ae2175ee4913f4499e1f2633a7b5936321eed1cdaeb6115181d290602090a1388080610059565b63f92ee8a960e01b8152600490fd5b600080fdfe6080604052600436101561001257600080fd5b60003560e01c80630186a42314611ba957806302ee3a5214611a375780633b9c8cfe14611a0e5780633f4ba83a14611997578063476343ee146118625780634ecf6894146117fa5780634f1ef286146115cc57806352d1902d1461154f578063553ab55c146115185780635c975abb146114e8578063715018a61461147e5780637217cba414610d32578063843068c914610c955780638456cb5914610c2e5780638da5cb5b14610bf8578063a20d9ebe14610bdd578063a525ad3c14610bc1578063ad3cb1cc14610b69578063ad9f20a614610b48578063baf0999c14610a3f578063c1302b34146109f2578063c4d66de81461074d578063cb51bba914610706578063e3495569146106ea578063e41ee46a146106cd578063e6a93e161461054a578063eca50ce7146101a7578063f2bc9a0e1461018b5763f2fde38b1461015b57600080fd5b3461018657602036600319011261018657610184610177611f95565b61017f612440565b6123cc565b005b600080fd5b3461018657600036600319011261018657602060405160648152f35b34610186576040366003190112610186576004356001600160401b038111610186576101d7903690600401611d58565b60249081356101e4612479565b6101ec6124a9565b6040519081835160209381610205869383858a01611d76565b8101600281520301902093600985019361022260ff86541661237e565b82156105065760078601838154106104c25760018701546001600160a01b039081169790939033891461048557856008600483015492015480610460575b5061026a916121a8565b93602a8502858104602a148615171561044b5761271090049861028d8a876123bf565b600054604051636eb1769f60e11b8152336004820152306024820152919291908416908a81604481855afa801561040e57899060009061041a575b6102d4925010156121bb565b8960405180966370a0823160e01b825233600483015281845afa801561040e578c956000916103c7575b50610351937f06c5efeff5c320943d265dc4e5f1af95ad523555ce0c1957e367dda5514572df9c969361036b9998969361033d8c610344951015612200565b3390612513565b3090339060005416612513565b61035c8682546123bf565b809155156103b9575b5061235e565b90604051928352838301527f46cb9a445bdbf7226e270f694cc6028862dd31e7cc36ac973160deb5d5b4f94060403393a36040519283523392a260016000805160206126c883398151915255005b805460ff1916905587610365565b809c96508b809250989795929394983d8311610407575b6103e88183611ce5565b810103126101865799519399949592948b9490939291906103516102fe565b503d6103de565b6040513d6000823e3d90fd5b50508a81813d8311610444575b6104318183611ce5565b8101031261018657886102d491516102c8565b503d610427565b82634e487b7160e01b60005260116004526000fd5b9050606403906064821161044b57606461047e61026a9389936121a8565b0491610260565b60405162461bcd60e51b8152600481018890526016818401527510d85b9b9bdd08189d5e481bdddb881c1c9bd91d58dd60521b6044820152606490fd5b60405162461bcd60e51b815260048101869052601f818501527f496e73756666696369656e74207175616e7469747920617661696c61626c65006044820152606490fd5b60405162461bcd60e51b815260048101859052601a818401527f496e76616c6964207175616e74697479207075726368617365640000000000006044820152606490fd5b3461018657602080600319360112610186576001600160a01b038061056d611f95565b16600052600482526040600020908154610586816120e6565b926105946040519485611ce5565b8184526000908152848120858086015b8484106106af575085856105b882516120fd565b9260005b835181101561069d57806105d260019286612194565b5160ff6009856105eb6040519485815193849201611d76565b8301928681600295868152030190206106266040519461060a86611cc9565b61061383611dd3565b8652898884015416898701528201611dd3565b604085015261063760038201611dd3565b60608501526004810154608085015261065260058201611dd3565b60a0850152600681015460c0850152600781015460e08501526008810154610100850152015416151561012082015261068b8288612194565b526106968187612194565b50016105bc565b604051806106ab8782611e9d565b0390f35b60019182916106bd85611dd3565b81520192019201919086906105a4565b346101865760003660031901126101865760206040516103e88152f35b3461018657600036600319011261018657602060405160328152f35b3461018657602036600319011261018657600435600354811015610186576107396107336106ab92611fab565b90612035565b604051918291602083526020830190611e78565b346101865760208060031936011261018657610767611f95565b7ff0c57e16840df040f15088dc2f81fe391c3923bec73e23a9662efc9c229c6a009081549260ff9060ff8560401c1615926001600160401b0390818716968715806109eb575b600180991490816109e1575b1590816109d8575b506109c65767ffffffffffffffff19811688178755856109a7575b506107e56125c3565b6107ed6125c3565b6107f6336123cc565b6107fe6125c3565b6108066125c3565b61080e6125c3565b866000805160206126c8833981519152556108276125c3565b6001600160a01b0316801561096a576bffffffffffffffffffffffff60a01b60005416176000556040519060808201908282109082111761095457604052858152600a6020820152603260408201526064606082015285546004875580600410610907575b5090856000528560005b600481106108e5575085856108a757005b805468ff0000000000000000191690556040519081527fc7f505b2f371ae2175ee4913f4499e1f2633a7b5936321eed1cdaeb6115181d290602090a1005b8285855116940193816000805160206126888339815191520155018690610896565b60008051602061268883398151915201867fb10e2d527612073b26eecdfd717e6a320cf44b4afac2b0732d9fcbe2b7fa0cfa5b82811061094857505061088c565b6000815501879061093a565b634e487b7160e01b600052604160045260246000fd5b60405162461bcd60e51b8152602060048201526015602482015274496e76616c696420746f6b656e206164647265737360581b6044820152606490fd5b68ffffffffffffffffff191668010000000000000001178655876107dc565b60405163f92ee8a960e01b8152600490fd5b905015896107c1565b303b1591506107b9565b50856107ad565b3461018657604036600319011261018657610a0b611f95565b6001600160a01b0316600090815260046020526040902080546024359081101561018657610733610739916106ab9361201d565b34610186576020366003190112610186576004356001600160401b03811161018657610a6f903690600401611d58565b610a77612479565b610a7f6124a9565b6040516020818351610a948183858801611d76565b60029082019081520301902060018101546001600160a01b03163303610b0e576009018054610ac560ff821661237e565b60ff19169055610ad5339161235e565b7fc11956163bdf05219c3bb514f430ab8158702a20dca9dd2e769a1fa0550210e9600080a360016000805160206126c883398151915255005b60405162461bcd60e51b81526020600482015260126024820152712737ba10383937b23ab1ba1039b2b63632b960711b6044820152606490fd5b34610186576000366003190112610186576020604051655af3107a40008152f35b346101865760003660031901126101865760405160408101908082106001600160401b03831117610954576106ab9160405260058152640352e302e360dc1b6020820152604051918291602083526020830190611e78565b34610186576000366003190112610186576020604051602a8152f35b34610186576000366003190112610186576020604051818152f35b3461018657600036600319011261018657600080516020612668833981519152546040516001600160a01b039091168152602090f35b3461018657600036600319011261018657610c47612440565b610c4f6124a9565b6000805160206126a8833981519152600160ff198254161790557f62e78cea01bee320cd4e420270b5ea74000d11b0c9f74754ebdbfc544b05a2586020604051338152a1005b34610186576000366003190112610186576040518060018054928381526020809101809460016000526000805160206126888339815191529060005b818110610d1f5750505083610ce7910384611ce5565b60405192818401908285525180915260408401949160005b828110610d0c5785870386f35b8351875295810195928101928401610cff565b8254845292840192918501918501610cd1565b3461018657610100366003190112610186576001600160401b0360043581811161018657610d64903690600401611d58565b60243582811161018657610d7c903690600401611d58565b9060643583811161018657610d95903690600401611d58565b9260843590811161018657610dae903690600401611d58565b90610db7612479565b610dbf6124a9565b80518015159081611472575b501561142d576040516001825191610de7838260208701611d76565b600283820152602081838060a01b03948101030190200154166113f757655af3107a4000604435106113c35760c4351515806113b5575b1561137057610e2e60a4356124d4565b1561133557603260e435116112f05760648451116112b35781511561127b5782511561123f57602a60443502936044358504602a14604435151715611229576127108504156111ec57600054604051636eb1769f60e11b81523360048201523060248201526001600160a01b0390911690602081604481855afa801561040e576000906111b8575b610ec79150612710880411156121bb565b6040516370a0823160e01b815233600482015290602082602481845afa91821561040e57600092611182575b50610f07610f169261271089041115612200565b61271087049030903390612513565b604051610f2281611cc9565b82815233602082015284604082015283606082015260443560808201528160a082015260a43560c082015260c43560e082015260e435610100820152600161012082015261012060096040516020818751610f808183858c01611d76565b81016002815203019020610f9584518261224c565b6001810160018060a01b036020860151166bffffffffffffffffffffffff60a01b825416179055610fcd60408501516002830161224c565b610fde60608501516003830161224c565b60808401516004820155610ff960a08501516005830161224c565b60c0840151600682015560e08401516007820155610100840151600882015501910151151560ff80198354169116179055600354600160401b811015610954578060016110499201600355611fab565b61116c57826110579161224c565b33600052600460205260406000208054600160401b811015610954576110829160018201815561201d565b91909161116c576110e96110c3846110be7f8fba32aff3c78c2f0d144b7b6cb4ea0d8d5cb6fd3409e3e83b23c29fbc3f1a77966110ff9661224c565b61235e565b946110db604051976101008952610100890190611e78565b908782036020890152611e78565b9060443560408701528582036060870152611e78565b9260a435608082015260c43560a082015260e43560c0820152612710850460e08201528033940390a3612710604051910481527f06c5efeff5c320943d265dc4e5f1af95ad523555ce0c1957e367dda5514572df60203392a260016000805160206126c883398151915255005b634e487b7160e01b600052600060045260246000fd5b91506020823d6020116111b0575b8161119d60209383611ce5565b8101031261018657905190610f07610ef3565b3d9150611190565b506020813d6020116111e4575b816111d260209383611ce5565b8101031261018657610ec79051610eb6565b3d91506111c5565b60405162461bcd60e51b81526020600482015260156024820152742332b29031b0b631bab630ba34b7b71032b93937b960591b6044820152606490fd5b634e487b7160e01b600052601160045260246000fd5b60405162461bcd60e51b8152602060048201526014602482015273496e76616c6964206d657461646174612055524960601b6044820152606490fd5b60405162461bcd60e51b815260206004820152601060248201526f496e76616c69642063617465676f727960801b6044820152606490fd5b60405162461bcd60e51b8152602060048201526015602482015274436f6e7461637420696e666f20746f6f206c6f6e6760581b6044820152606490fd5b60405162461bcd60e51b815260206004820152601860248201527f446973636f756e742065786365656473206d6178696d756d00000000000000006044820152606490fd5b60405162461bcd60e51b8152602060048201526013602482015272496e76616c6964556e69745175616e7469747960681b6044820152606490fd5b60405162461bcd60e51b815260206004820152601a60248201527f496e76616c6964207175616e7469747920617661696c61626c650000000000006044820152606490fd5b506103e860c4351115610e1e565b60405162461bcd60e51b815260206004820152600c60248201526b496e76616c6964507269636560a01b6044820152606490fd5b60405162461bcd60e51b815260206004820152600e60248201526d50726f647563744964496e55736560901b6044820152606490fd5b60405162461bcd60e51b815260206004820152601960248201527f496e76616c69642070726f64756374204944206c656e677468000000000000006044820152606490fd5b60209150111585610dcb565b3461018657600036600319011261018657611497612440565b60008051602061266883398151915280546001600160a01b031981169091556000906001600160a01b03167f8be0079c531659141344cd1fd0a4f28419497f9722a3daafe3b4186f6b6457e08280a3005b3461018657600036600319011261018657602060ff6000805160206126a883398151915254166040519015158152f35b346101865760203660031901126101865760043560015481101561018657611541602091611ff8565b90546040519160031b1c8152f35b34610186576000366003190112610186577f00000000000000000000000000000000000000000000000000000000000000006001600160a01b031630036115ba5760206040517f360894a13ba1a3210667c828492db98dca3e2076cc3735a920a3ca505d382bbc8152f35b60405163703e46dd60e11b8152600490fd5b6040366003190112610186576115e0611f95565b6024356001600160401b038111610186573660238201121561018657611610903690602481600401359101611d21565b906001600160a01b037f000000000000000000000000000000000000000000000000000000000000000081163081149081156117cc575b506115ba57611654612440565b6040516352d1902d60e01b8152908216916020918281600481875afa6000918161179d575b5061169757604051634c9c8ce360e01b815260048101859052602490fd5b9284937f360894a13ba1a3210667c828492db98dca3e2076cc3735a920a3ca505d382bbc908181036117855750823b1561176c5780546001600160a01b03191682179055604051907fbc7cd75a20ee27fd9adebab32041f755214dbc6bffa90cc0225b39da2e5c2d3b600080a28351156117525750600080848461018496519101845af4903d15611749573d61172c81611d06565b9061173a6040519283611ce5565b8152600081943d92013e612604565b60609250612604565b925050503461175d57005b63b398979f60e01b8152600490fd5b604051634c9c8ce360e01b815260048101839052602490fd5b60249060405190632a87526960e21b82526004820152fd5b9091508381813d83116117c5575b6117b58183611ce5565b8101031261018657519086611679565b503d6117ab565b9050817f360894a13ba1a3210667c828492db98dca3e2076cc3735a920a3ca505d382bbc5416141584611647565b34610186576020366003190112610186576004356001600160401b0381116101865761182c6020913690600401611d58565b6001826118426040519384815193849201611d76565b820191600283528381838060a01b03940301902001541615604051908152f35b346101865760003660031901126101865761187b612440565b611883612479565b6000546040516370a0823160e01b81523060048201526001600160a01b0391821691602091908282602481875afa91821561040e57600092611968575b50811561192d5760008051602061266883398151915254166040519263a9059cbb60e01b90840152602483015260448201526044815260808101918183106001600160401b038411176109545761191992604052612567565b60016000805160206126c883398151915255005b60405162461bcd60e51b81526004810184905260136024820152724e6f206665657320746f20776974686472617760681b6044820152606490fd5b9091508281813d8311611990575b6119808183611ce5565b81010312610186575190846118c0565b503d611976565b34610186576000366003190112610186576119b0612440565b6000805160206126a8833981519152805460ff8116156119fc5760ff191690557f5db9ee0a495bf2e6ff9c91a7834c1ba4fdd244a5e8aa4e537bd38aeae4b073aa6020604051338152a1005b604051638dfc202b60e01b8152600490fd5b34610186576000366003190112610186576000546040516001600160a01b039091168152602090f35b3461018657600036600319011261018657600380546000805b828110611b755750611a61906120fd565b916000805b838110611a7b57604051806106ab8782611e9d565b611a96611a8782611fab565b5060ff80916009938491612043565b015416611aa8575b5050600101611a66565b92611b6d918394611ac3611abd600196611fab565b50612043565b9160405192611ad184611cc9565b611ada81611dd3565b8452868060a01b0387820154166020850152611af860028201611dd3565b6040850152611b08898201611dd3565b606085015260048101546080850152611b2360058201611dd3565b60a0850152600681015460c0850152600781015460e085015260088101546101008501520154161515610120820152611b5c8289612194565b52611b678188612194565b506120d7565b919086611a9e565b60ff6009611b85611abd84611fab565b015416611b95575b600101611a50565b90611ba16001916120d7565b919050611b8d565b34610186576020366003190112610186576004356001600160401b03811161018657611c7b611bf56020611be281943690600401611d58565b8160405193828580945193849201611d76565b81016002815203019020611c0881611dd3565b9060018060a01b0360018201541690611c2360028201611dd3565b611cac611c3260038401611dd3565b600484015490611c99611c4760058701611dd3565b91611c8b60068801549960078901549760ff600960088c01549b0154169a6040519e8f9e8f94610140808752860190611e78565b9301528c820360408e0152611e78565b908a820360608c0152611e78565b91608089015287820360a0890152611e78565b9360c086015260e085015261010084015215156101208301520390f35b61014081019081106001600160401b0382111761095457604052565b90601f801991011681019081106001600160401b0382111761095457604052565b6001600160401b03811161095457601f01601f191660200190565b929192611d2d82611d06565b91611d3b6040519384611ce5565b829481845281830111610186578281602093846000960137010152565b9080601f8301121561018657816020611d7393359101611d21565b90565b60005b838110611d895750506000910152565b8181015183820152602001611d79565b90600182811c92168015611dc9575b6020831014611db357565b634e487b7160e01b600052602260045260246000fd5b91607f1691611da8565b90604051918260008254611de681611d99565b90818452602094600191600181169081600014611e565750600114611e17575b505050611e1592500383611ce5565b565b600090815285812095935091905b818310611e3e575050611e159350820101388080611e06565b85548884018501529485019487945091830191611e25565b92505050611e1594925060ff191682840152151560051b820101388080611e06565b90602091611e9181518092818552858086019101611d76565b601f01601f1916010190565b6020808201908083528351809252604092604081018260408560051b8401019601946000925b858410611ed4575050505050505090565b909192939495968580600192603f198582030187528a5190611f58611f3b611f28611f09610140865190808752860190611e78565b888060a01b038787015116878601528a8601518582038c870152611e78565b6060808601519085830390860152611e78565b6080808501519084015260a0808501519084830390850152611e78565b9160c0808201519083015260e080820151908301526101008082015190830152610120809101511515910152990194019401929594939190611ec3565b600435906001600160a01b038216820361018657565b600354811015611fe25760036000527fc2575a0e9e593c00f959f8c92f12db2869c3395a3b0502d05e2516446f71f85b0190600090565b634e487b7160e01b600052603260045260246000fd5b600154811015611fe25760016000526000805160206126888339815191520190600090565b8054821015611fe25760005260206000200190600090565b9061116c57611d7390611dd3565b60405190816000825461205581611d99565b936001918083169081156120bb575060011461207d575b505060209250600281520301902090565b9091506000526020906020600020906000915b8583106120a757505050506020918101388061206c565b805487840152869450918301918101612090565b92505050602093915060ff19168252801515028101388061206c565b60001981146112295760010190565b6001600160401b0381116109545760051b60200190565b90612107826120e6565b6040906121176040519182611ce5565b8381528093612128601f19916120e6565b019160005b83811061213a5750505050565b602090825161214881611cc9565b60608082528390600082840152808684015280808401526000608084015260a0830152600060c0830152600060e08301526000610100830152600061012083015282860101520161212d565b8051821015611fe25760209160051b010190565b8181029291811591840414171561122957565b156121c257565b60405162461bcd60e51b8152602060048201526016602482015275496e73756666696369656e7420616c6c6f77616e636560501b6044820152606490fd5b1561220757565b60405162461bcd60e51b815260206004820152601a60248201527f496e73756666696369656e7420574545444c2062616c616e63650000000000006044820152606490fd5b91909182516001600160401b038111610954576122698254611d99565b601f8111612314575b50602080601f83116001146122af5750819293946000926122a4575b50508160011b916000199060031b1c1916179055565b01519050388061228e565b90601f19831695846000526020600020926000905b8882106122fc575050836001959697106122e3575b505050811b019055565b015160001960f88460031b161c191690553880806122d9565b806001859682949686015181550195019301906122c4565b6000836000526020600020601f840160051c81019260208510612354575b601f0160051c01915b828110612349575050612272565b81815560010161233b565b9092508290612332565b61237690602060405192828480945193849201611d76565b810103902090565b1561238557565b60405162461bcd60e51b815260206004820152601260248201527150726f64756374206e6f742061637469766560701b6044820152606490fd5b9190820391821161122957565b6001600160a01b039081169081156124275760008051602061266883398151915280546001600160a01b031981168417909155167f8be0079c531659141344cd1fd0a4f28419497f9722a3daafe3b4186f6b6457e0600080a3565b604051631e4fbdf760e01b815260006004820152602490fd5b600080516020612668833981519152546001600160a01b0316330361246157565b60405163118cdaa760e01b8152336004820152602490fd5b6000805160206126c883398151915260028154146124975760029055565b604051633ee5aeb560e01b8152600490fd5b60ff6000805160206126a883398151915254166124c257565b60405163d93c066560e01b8152600490fd5b6000600191600154915b8281106124ee5750505050600090565b806124f98592611ff8565b90549060031b1c831461250c57016124de565b5050505090565b6040516323b872dd60e01b60208201526001600160a01b03928316602482015292909116604483015260648083019390935291815260a08101918183106001600160401b0384111761095457611e15926040525b906000602091828151910182855af11561040e576000513d6125ba57506001600160a01b0381163b155b6125985750565b604051635274afe760e01b81526001600160a01b039091166004820152602490fd5b60011415612591565b60ff7ff0c57e16840df040f15088dc2f81fe391c3923bec73e23a9662efc9c229c6a005460401c16156125f257565b604051631afcd79f60e31b8152600490fd5b9061262b575080511561261957602081519101fd5b60405163d6bda27560e01b8152600490fd5b8151158061265e575b61263c575090565b604051639996b31560e01b81526001600160a01b039091166004820152602490fd5b50803b1561263456fe9016d09d72d40fdae2fd8ceac6b6234c7706214fd39c1cd1e609a0528c199300b10e2d527612073b26eecdfd717e6a320cf44b4afac2b0732d9fcbe2b7fa0cf6cd5ed15c6e187e77e9aee88184c21f4f2182ab5827cb3b7e07fbedcd63f033009b779b17422d0df92223018b32b4d1fa46e071723d6817e2486d003becc55f00a2646970667358221220d911ac58bbd1d0e85102df4d8d673ac8f4828472744dd33e4511826d13acaf1d64736f6c63430008160033",
  "linkReferences": {},
  "deployedLinkReferences": {}
}