{
  "_format": "hh-sol-artifact-1",
  "contractName": "GreenFiLoan",
  "sourceName": "contracts/GreenFiLoan.sol",
  "abi": [
    {
      "inputs": [],
      "stateMutability": "nonpayable",
      "type": "constructor"
    },
    {
      "inputs": [
        {
          "internalType": "address",
          "name": "target",
          "type": "address"
        }
      ],
      "name": "AddressEmptyCode",
      "type": "error"
    },
    {
      "inputs": [
        {
          "internalType": "address",
          "name": "implementation",
          "type": "address"
        }
      ],
      "name": "ERC1967InvalidImplementation",
      "type": "error"
    },
    {
      "inputs": [],
      "name": "ERC1967NonPayable",
      "type": "error"
    },
    {
      "inputs": [],
      "name": "EnforcedPause",
      "type": "error"
    },
    {
      "inputs": [],
      "name": "ExpectedPause",
      "type": "error"
    },
    {
      "inputs": [],
      "name": "FailedCall",
      "type": "error"
    },
    {
      "inputs": [],
      "name": "InvalidInitialization",
      "type": "error"
    },
    {
      "inputs": [],
      "name": "NotInitializing",
      "type": "error"
    },
    {
      "inputs": [
        {
          "internalType": "address",
          "name": "owner",
          "type": "address"
        }
      ],
      "name": "OwnableInvalidOwner",
      "type": "error"
    },
    {
      "inputs": [
        {
          "internalType": "address",
          "name": "account",
          "type": "address"
        }
      ],
      "name": "OwnableUnauthorizedAccount",
      "type": "error"
    },
    {
      "inputs": [],
      "name": "ReentrancyGuardReentrantCall",
      "type": "error"
    },
    {
      "inputs": [
        {
          "internalType": "address",
          "name": "token",
          "type": "address"
        }
      ],
      "name": "SafeERC20FailedOperation",
      "type": "error"
    },
    {
      "inputs": [],
      "name": "UUPSUnauthorizedCallContext",
      "type": "error"
    },
    {
      "inputs": [
        {
          "internalType": "bytes32",
          "name": "slot",
          "type": "bytes32"
        }
      ],
      "name": "UUPSUnsupportedProxiableUUID",
      "type": "error"
    },
    {
      "anonymous": false,
      "inputs": [
        {
          "indexed": true,
          "internalType": "string",
          "name": "id",
          "type": "string"
        },
        {
          "indexed": true,
          "internalType": "address",
          "name": "lender",
          "type": "address"
        }
      ],
      "name": "CollateralClaimed",
      "type": "event"
    },
    {
      "anonymous": false,
      "inputs": [
        {
          "indexed": false,
          "internalType": "uint64",
          "name": "version",
          "type": "uint64"
        }
      ],
      "name": "Initialized",
      "type": "event"
    },
    {
      "anonymous": false,
      "inputs": [
        {
          "indexed": true,
          "internalType": "string",
          "name": "id",
          "type": "string"
        },
        {
          "indexed": true,
          "internalType": "address",
          "name": "grower",
          "type": "address"
        }
      ],
      "name": "LoanCanceled",
      "type": "event"
    },
    {
      "anonymous": false,
      "inputs": [
        {
          "indexed": true,
          "internalType": "string",
          "name": "id",
          "type": "string"
        },
        {
          "indexed": true,
          "internalType": "address",
          "name": "grower",
          "type": "address"
        },
        {
          "indexed": false,
          "internalType": "uint256",
          "name": "amount",
          "type": "uint256"
        },
        {
          "indexed": false,
          "internalType": "uint256",
          "name": "duration",
          "type": "uint256"
        },
        {
          "indexed": false,
          "internalType": "string",
          "name": "contactInfo",
          "type": "string"
        },
        {
          "indexed": false,
          "internalType": "uint256",
          "name": "fee",
          "type": "uint256"
        },
        {
          "indexed": false,
          "internalType": "string",
          "name": "growPurpose",
          "type": "string"
        },
        {
          "indexed": false,
          "internalType": "uint256",
          "name": "collateralAmount",
          "type": "uint256"
        },
        {
          "indexed": true,
          "internalType": "uint256",
          "name": "interestRate",
          "type": "uint256"
        }
      ],
      "name": "LoanCreated",
      "type": "event"
    },
    {
      "anonymous": false,
      "inputs": [
        {
          "indexed": true,
          "internalType": "string",
          "name": "id",
          "type": "string"
        },
        {
          "indexed": true,
          "internalType": "address",
          "name": "lender",
          "type": "address"
        },
        {
          "indexed": true,
          "internalType": "address",
          "name": "grower",
          "type": "address"
        }
      ],
      "name": "LoanFunded",
      "type": "event"
    },
    {
      "anonymous": false,
      "inputs": [
        {
          "indexed": true,
          "internalType": "string",
          "name": "id",
          "type": "string"
        },
        {
          "indexed": true,
          "internalType": "address",
          "name": "grower",
          "type": "address"
        },
        {
          "indexed": false,
          "internalType": "uint256",
          "name": "amount",
          "type": "uint256"
        },
        {
          "indexed": false,
          "internalType": "uint256",
          "name": "interest",
          "type": "uint256"
        }
      ],
      "name": "LoanRepaid",
      "type": "event"
    },
    {
      "anonymous": false,
      "inputs": [
        {
          "indexed": true,
          "internalType": "string",
          "name": "id",
          "type": "string"
        },
        {
          "indexed": false,
          "internalType": "string",
          "name": "status",
          "type": "string"
        }
      ],
      "name": "LoanStatusChanged",
      "type": "event"
    },
    {
      "anonymous": false,
      "inputs": [
        {
          "indexed": true,
          "internalType": "address",
          "name": "previousOwner",
          "type": "address"
        },
        {
          "indexed": true,
          "internalType": "address",
          "name": "newOwner",
          "type": "address"
        }
      ],
      "name": "OwnershipTransferred",
      "type": "event"
    },
    {
      "anonymous": false,
      "inputs": [
        {
          "indexed": false,
          "internalType": "address",
          "name": "account",
          "type": "address"
        }
      ],
      "name": "Paused",
      "type": "event"
    },
    {
      "anonymous": false,
      "inputs": [
        {
          "indexed": false,
          "internalType": "address",
          "name": "account",
          "type": "address"
        }
      ],
      "name": "Unpaused",
      "type": "event"
    },
    {
      "anonymous": false,
      "inputs": [
        {
          "indexed": true,
          "internalType": "address",
          "name": "implementation",
          "type": "address"
        }
      ],
      "name": "Upgraded",
      "type": "event"
    },
    {
      "inputs": [],
      "name": "FEE_BASIS_POINTS",
      "outputs": [
        {
          "internalType": "uint256",
          "name": "",
          "type": "uint256"
        }
      ],
      "stateMutability": "view",
      "type": "function"
    },
    {
      "inputs": [],
      "name": "MAX_INTEREST_RATE",
      "outputs": [
        {
          "internalType": "uint256",
          "name": "",
          "type": "uint256"
        }
      ],
      "stateMutability": "view",
      "type": "function"
    },
    {
      "inputs": [],
      "name": "MAX_LOAN_DURATION",
      "outputs": [
        {
          "internalType": "uint256",
          "name": "",
          "type": "uint256"
        }
      ],
      "stateMutability": "view",
      "type": "function"
    },
    {
      "inputs": [],
      "name": "MIN_COLLATERAL_RATIO",
      "outputs": [
        {
          "internalType": "uint256",
          "name": "",
          "type": "uint256"
        }
      ],
      "stateMutability": "view",
      "type": "function"
    },
    {
      "inputs": [],
      "name": "UPGRADE_INTERFACE_VERSION",
      "outputs": [
        {
          "internalType": "string",
          "name": "",
          "type": "string"
        }
      ],
      "stateMutability": "view",
      "type": "function"
    },
    {
      "inputs": [
        {
          "internalType": "string",
          "name": "_id",
          "type": "string"
        }
      ],
      "name": "cancelLoan",
      "outputs": [],
      "stateMutability": "nonpayable",
      "type": "function"
    },
    {
      "inputs": [
        {
          "internalType": "string",
          "name": "_id",
          "type": "string"
        }
      ],
      "name": "claimCollateral",
      "outputs": [],
      "stateMutability": "nonpayable",
      "type": "function"
    },
    {
      "inputs": [
        {
          "internalType": "string",
          "name": "_id",
          "type": "string"
        },
        {
          "internalType": "uint256",
          "name": "_amount",
          "type": "uint256"
        },
        {
          "internalType": "uint256",
          "name": "_duration",
          "type": "uint256"
        },
        {
          "internalType": "string",
          "name": "_contactInfo",
          "type": "string"
        },
        {
          "internalType": "uint256",
          "name": "_fee",
          "type": "uint256"
        },
        {
          "internalType": "string",
          "name": "_growPurpose",
          "type": "string"
        },
        {
          "internalType": "uint256",
          "name": "_collateralAmount",
          "type": "uint256"
        },
        {
          "internalType": "uint256",
          "name": "_interestRate",
          "type": "uint256"
        }
      ],
      "name": "createLoan",
      "outputs": [],
      "stateMutability": "nonpayable",
      "type": "function"
    },
    {
      "inputs": [
        {
          "internalType": "string",
          "name": "_id",
          "type": "string"
        }
      ],
      "name": "fundLoan",
      "outputs": [],
      "stateMutability": "nonpayable",
      "type": "function"
    },
    {
      "inputs": [],
      "name": "getAllLoanIds",
      "outputs": [
        {
          "internalType": "string[]",
          "name": "",
          "type": "string[]"
        }
      ],
      "stateMutability": "view",
      "type": "function"
    },
    {
      "inputs": [],
      "name": "getAllLoans",
      "outputs": [
        {
          "components": [
            {
              "internalType": "string",
              "name": "id",
              "type": "string"
            },
            {
              "internalType": "address",
              "name": "grower",
              "type": "address"
            },
            {
              "internalType": "uint256",
              "name": "amount",
              "type": "uint256"
            },
            {
              "internalType": "uint256",
              "name": "duration",
              "type": "uint256"
            },
            {
              "internalType": "bool",
              "name": "isActive",
              "type": "bool"
            },
            {
              "internalType": "string",
              "name": "contactInfo",
              "type": "string"
            },
            {
              "internalType": "uint256",
              "name": "fee",
              "type": "uint256"
            },
            {
              "internalType": "uint256",
              "name": "createdAt",
              "type": "uint256"
            },
            {
              "internalType": "string",
              "name": "growPurpose",
              "type": "string"
            },
            {
              "internalType": "string",
              "name": "status",
              "type": "string"
            },
            {
              "internalType": "uint256",
              "name": "collateralAmount",
              "type": "uint256"
            },
            {
              "internalType": "address",
              "name": "lender",
              "type": "address"
            },
            {
              "internalType": "uint256",
              "name": "repaidAmount",
              "type": "uint256"
            },
            {
              "internalType": "uint256",
              "name": "interestRate",
              "type": "uint256"
            }
          ],
          "internalType": "struct GreenFiLoan.CannabisLoan[]",
          "name": "",
          "type": "tuple[]"
        }
      ],
      "stateMutability": "view",
      "type": "function"
    },
    {
      "inputs": [
        {
          "internalType": "string",
          "name": "_id",
          "type": "string"
        }
      ],
      "name": "getLoan",
      "outputs": [
        {
          "components": [
            {
              "internalType": "string",
              "name": "id",
              "type": "string"
            },
            {
              "internalType": "address",
              "name": "grower",
              "type": "address"
            },
            {
              "internalType": "uint256",
              "name": "amount",
              "type": "uint256"
            },
            {
              "internalType": "uint256",
              "name": "duration",
              "type": "uint256"
            },
            {
              "internalType": "bool",
              "name": "isActive",
              "type": "bool"
            },
            {
              "internalType": "string",
              "name": "contactInfo",
              "type": "string"
            },
            {
              "internalType": "uint256",
              "name": "fee",
              "type": "uint256"
            },
            {
              "internalType": "uint256",
              "name": "createdAt",
              "type": "uint256"
            },
            {
              "internalType": "string",
              "name": "growPurpose",
              "type": "string"
            },
            {
              "internalType": "string",
              "name": "status",
              "type": "string"
            },
            {
              "internalType": "uint256",
              "name": "collateralAmount",
              "type": "uint256"
            },
            {
              "internalType": "address",
              "name": "lender",
              "type": "address"
            },
            {
              "internalType": "uint256",
              "name": "repaidAmount",
              "type": "uint256"
            },
            {
              "internalType": "uint256",
              "name": "interestRate",
              "type": "uint256"
            }
          ],
          "internalType": "struct GreenFiLoan.CannabisLoan",
          "name": "",
          "type": "tuple"
        }
      ],
      "stateMutability": "view",
      "type": "function"
    },
    {
      "inputs": [
        {
          "internalType": "address",
          "name": "_weedlToken",
          "type": "address"
        }
      ],
      "name": "initialize",
      "outputs": [],
      "stateMutability": "nonpayable",
      "type": "function"
    },
    {
      "inputs": [
        {
          "internalType": "uint256",
          "name": "",
          "type": "uint256"
        }
      ],
      "name": "loanIds",
      "outputs": [
        {
          "internalType": "string",
          "name": "",
          "type": "string"
        }
      ],
      "stateMutability": "view",
      "type": "function"
    },
    {
      "inputs": [
        {
          "internalType": "string",
          "name": "",
          "type": "string"
        }
      ],
      "name": "loans",
      "outputs": [
        {
          "internalType": "string",
          "name": "id",
          "type": "string"
        },
        {
          "internalType": "address",
          "name": "grower",
          "type": "address"
        },
        {
          "internalType": "uint256",
          "name": "amount",
          "type": "uint256"
        },
        {
          "internalType": "uint256",
          "name": "duration",
          "type": "uint256"
        },
        {
          "internalType": "bool",
          "name": "isActive",
          "type": "bool"
        },
        {
          "internalType": "string",
          "name": "contactInfo",
          "type": "string"
        },
        {
          "internalType": "uint256",
          "name": "fee",
          "type": "uint256"
        },
        {
          "internalType": "uint256",
          "name": "createdAt",
          "type": "uint256"
        },
        {
          "internalType": "string",
          "name": "growPurpose",
          "type": "string"
        },
        {
          "internalType": "string",
          "name": "status",
          "type": "string"
        },
        {
          "internalType": "uint256",
          "name": "collateralAmount",
          "type": "uint256"
        },
        {
          "internalType": "address",
          "name": "lender",
          "type": "address"
        },
        {
          "internalType": "uint256",
          "name": "repaidAmount",
          "type": "uint256"
        },
        {
          "internalType": "uint256",
          "name": "interestRate",
          "type": "uint256"
        }
      ],
      "stateMutability": "view",
      "type": "function"
    },
    {
      "inputs": [],
      "name": "owner",
      "outputs": [
        {
          "internalType": "address",
          "name": "",
          "type": "address"
        }
      ],
      "stateMutability": "view",
      "type": "function"
    },
    {
      "inputs": [],
      "name": "pause",
      "outputs": [],
      "stateMutability": "nonpayable",
      "type": "function"
    },
    {
      "inputs": [],
      "name": "paused",
      "outputs": [
        {
          "internalType": "bool",
          "name": "",
          "type": "bool"
        }
      ],
      "stateMutability": "view",
      "type": "function"
    },
    {
      "inputs": [],
      "name": "proxiableUUID",
      "outputs": [
        {
          "internalType": "bytes32",
          "name": "",
          "type": "bytes32"
        }
      ],
      "stateMutability": "view",
      "type": "function"
    },
    {
      "inputs": [],
      "name": "renounceOwnership",
      "outputs": [],
      "stateMutability": "nonpayable",
      "type": "function"
    },
    {
      "inputs": [
        {
          "internalType": "string",
          "name": "_id",
          "type": "string"
        },
        {
          "internalType": "uint256",
          "name": "_paymentAmount",
          "type": "uint256"
        }
      ],
      "name": "repayLoan",
      "outputs": [],
      "stateMutability": "nonpayable",
      "type": "function"
    },
    {
      "inputs": [
        {
          "internalType": "address",
          "name": "newOwner",
          "type": "address"
        }
      ],
      "name": "transferOwnership",
      "outputs": [],
      "stateMutability": "nonpayable",
      "type": "function"
    },
    {
      "inputs": [],
      "name": "unpause",
      "outputs": [],
      "stateMutability": "nonpayable",
      "type": "function"
    },
    {
      "inputs": [
        {
          "internalType": "address",
          "name": "newImplementation",
          "type": "address"
        },
        {
          "internalType": "bytes",
          "name": "data",
          "type": "bytes"
        }
      ],
      "name": "upgradeToAndCall",
      "outputs": [],
      "stateMutability": "payable",
      "type": "function"
    },
    {
      "inputs": [
        {
          "internalType": "string",
          "name": "",
          "type": "string"
        }
      ],
      "name": "usedLoanIds",
      "outputs": [
        {
          "internalType": "bool",
          "name": "",
          "type": "bool"
        }
      ],
      "stateMutability": "view",
      "type": "function"
    },
    {
      "inputs": [],
      "name": "weedlToken",
      "outputs": [
        {
          "internalType": "contract IERC20",
          "name": "",
          "type": "address"
        }
      ],
      "stateMutability": "view",
      "type": "function"
    }
  ],
  "bytecode": "0x60a080604052346100cd57306080527ff0c57e16840df040f15088dc2f81fe391c3923bec73e23a9662efc9c229c6a009081549060ff8260401c166100be57506001600160401b036002600160401b031982821601610079575b604051612c4f9081620000d38239608051818181611dc00152611e790152f35b6001600160401b031990911681179091556040519081527fc7f505b2f371ae2175ee4913f4499e1f2633a7b5936321eed1cdaeb6115181d290602090a1388080610059565b63f92ee8a960e01b8152600490fd5b600080fdfe608080604052600436101561001357600080fd5b60e060003560e01c9182630d0b2ca6146121155750816334855d14146120f85781633b9c8cfe146120cf5781633f4ba83a146120585781634f1ef28614611e2a57816352d1902d14611dad5781635c1bf86514611cc45781635c975abb14611c94578163715018a614611c2a5781637a9fffb714611c0e5781638456cb5914611ba75781638da5cb5b14611b71578163a525ad3c14611b55578163a5bfd16a1461198957508063ad3cb1cc14611943578063c47d25861461180f578063c4d66de814611645578063c6141f63146114f0578063c70f2e2b14611180578063de68dbd414610e57578063e287183a14610c2c578063eb4dc6fa14610465578063f2fde38b1461043a578063f8715a42146103d5578063f897eeba146101a65763fe6f8b761461014057600080fd5b346101a15760203660031901126101a1576004356001600160401b0381116101a15760ff61018b60206101788194369060040161230d565b81604051938285809451938492016121f2565b8101600281520301902054166040519015158152f35b600080fd5b346101a1576020806003193601126101a1576004356001600160401b0381116101a1576101d790369060040161230d565b906101e0612997565b6101e86129c2565b604051818184516101fc81838589016121f2565b810160018152030190209061021760ff600484015416612572565b600982019261026c6040518381019061024281610234848a6124da565b03601f19810183528261217f565b519020604051848101906327b832b760e11b82526004815261026381612164565b519020146125b3565b6000546040516370a0823160e01b81523360048201526001600160a01b0394909184908390602490829089165afa9182156103c957600092610386575b5091600080516020612b9a8339815191529461035f92610329856102d76002606099980193845411156127d5565b6102ea6102e48b5461232b565b8b612606565b65119d5b99195960d21b99600c8b019055600b8101336001600160601b0360a01b82541617905560018460005416910192848454169054913390612a41565b54163361033583612777565b7f74b5814fe355ba520ea013b8cd67e3a8da7f4db3d413c0bb58f4ad047713a8b9600080a4612777565b936006604051928084528301526040820152a26001600080516020612bfa83398151915255005b915092918282813d83116103c2575b61039f818361217f565b810103126101a15790519192909190600080516020612b9a8339815191526102a9565b503d610395565b6040513d6000823e3d90fd5b346101a15760203660031901126101a1576004356003548110156101a1576103fc9061240a565b6104245761040c61042091612365565b604051918291602083526020830190612215565b0390f35b634e487b7160e01b600052600060045260246000fd5b346101a15760203660031901126101a157610463610456612132565b61045e61295e565b6128ea565b005b346101a1576101003660031901126101a1576001600160401b036004358181116101a15761049790369060040161230d565b60649182358181116101a1576104b190369060040161230d565b9060a4359081116101a1576104ca90369060040161230d565b926104d3612997565b6104db6129c2565b60243515610bea57604435151580610bda575b15610b985782518015159081610b8c575b5015610b51578151818115159182610b46575b505015610b045783518015159081610af7575b5015610ab55760c43515610a5d5760e435151580610a4f575b15610a005760ff604051602081865161055a8183858b016121f2565b8101600281520301902054166109c757602a602435026024358104602a0361098157612710900460843503610997578060243502602435810482036109815781900460c4351061092557506000546040516370a0823160e01b8152336004820152906001600160a01b0316602082602481845afa9182156103c9576000926108ef575b50610605610623926105fe60c4356105f9608435602435612673565b612673565b11156127d5565b61061960c4356105f9608435602435612673565b9030903390612a41565b60405161062f81612148565b82815233602082015260243560408201526044356060820152600160808201528160a082015260843560c08201524260e08201528361010082015260405161067681612164565b600481526327b832b760e11b602082015261012082015260c4356101408201526000610160820152600061018082015260e4356101a0820152600d6101a060405160208187516106c98183858c016121f2565b81016001815203019020926106df815185612821565b6001840160018060a01b036020830151166001600160601b0360a01b82541617905560408101516002850155606081015160038501556080810151151560ff8019600487015416911617600485015561073f60a082015160058601612821565b60c0810151600685015560e0810151600785015561076561010082015160088601612821565b61077761012082015160098601612821565b610140810151600a850155600b840160018060a01b03610160830151166001600160601b0360a01b825416179055610180810151600c850155015191015560405160208184516107ca81838589016121f2565b81016002815203019020600160ff19825416179055600354680100000000000000008110156108d957806001610803920160035561240a565b939093610424576108178361089895612821565b61085f61082384612777565b91610849604051946024358652604435602087015260c0604087015260c0860190612215565b9060843560608601528482036080860152612215565b9060c43560a08401527f6a1780c00aed9fcdc5825db976efd498f34f26d67d2815f81f84c0db1a43e81e60e435938033940390a4612777565b600080516020612b9a833981519152606060405160208152600460208201526327b832b760e11b6040820152a26001600080516020612bfa83398151915255005b634e487b7160e01b600052604160045260246000fd5b91506020823d60201161091d575b8161090a6020938361217f565b810103126101a1579051906106056105dd565b3d91506108fd565b6084906e081bd9881b1bd85b88185b5bdd5b9d608a1b6040519162461bcd60e51b835260206004840152602f60248401527f436f6c6c61746572616c206d757374206265206174206c6561737420313030256044840152820152fd5b634e487b7160e01b600052601160045260246000fd5b60405162461bcd60e51b815260206004820152600b60248201526a496e76616c69642066656560a81b6044820152fd5b60405162461bcd60e51b8152602060048201526014602482015273131bd85b88125108185b1c9958591e481d5cd95960621b6044820152fd5b60849061282960f11b6040519162461bcd60e51b835260206004840152602260248401527f496e7465726573742072617465206d757374206265203020746f2035302520416044840152820152fd5b5061138860e435111561053e565b6084906a72207468616e207a65726f60a81b6040519162461bcd60e51b835260206004840152602b60248401527f436f6c6c61746572616c20616d6f756e74206d757374206265206772656174656044840152820152fd5b60405162461bcd60e51b815260206004820152601b60248201527f496e76616c69642067726f7720707572706f7365206c656e67746800000000006044820152fd5b6101009150111585610525565b60405162461bcd60e51b815260206004820152601b60248201527f496e76616c696420636f6e7461637420696e666f206c656e67746800000000006044820152fd5b111590508186610512565b60405162461bcd60e51b8152602060048201526016602482015275092dcecc2d8d2c840d8dec2dc40928840d8cadccee8d60531b6044820152fd5b602091501115856104ff565b60405162461bcd60e51b815260206004820152601e60248201527f4475726174696f6e206d757374206265203120746f20333635206461797300006044820152fd5b506301e1338060443511156104ee565b60405162461bcd60e51b815260206004820181905260248201527f416d6f756e74206d7573742062652067726561746572207468616e207a65726f6044820152fd5b346101a1576020806003193601126101a1576004356001600160401b0381116101a157610c5d90369060040161230d565b90610c66612997565b610c6e6129c2565b60405181818451610c8281838589016121f2565b81016001815203019020916004830192610c9f60ff855416612572565b600b8101546001600160a01b039081163303610e14576009820194610cfe60405186810190610cd281610234848c6124da565b5190206040518781019065119d5b99195960d21b825260068152610cf581612164565b51902014612797565b610d116007840154600385015490612673565b421115610dcf5792610d74600080516020612b9a8339815191529593600a610da894606097610d49610d438c5461232b565b8c612606565b68111959985d5b1d195960ba1b9a60128c01905560ff198154169055600054169101549033906129f2565b33610d7e82612777565b7f9d99ebbd63ad66bd41d937add2c439545d27de0cfce044c210a62e86d9ab200f600080a3612777565b936009604051928084528301526040820152a26001600080516020612bfa83398151915255005b60405162461bcd60e51b815260048101869052601960248201527f4c6f616e206475726174696f6e206e6f742065787069726564000000000000006044820152606490fd5b6064846040519062461bcd60e51b825280600483015260248201527f4f6e6c79206c656e6465722063616e20636c61696d20636f6c6c61746572616c6044820152fd5b346101a15760403660031901126101a1576004356001600160401b0381116101a157610e8790369060040161230d565b60243590610e93612997565b610e9b6129c2565b6040519081815160209381610eb48693838588016121f2565b810160018152030190209260048401610ed060ff825416612572565b6001850180546001600160a01b03969087163303611143576009810192610f2860405188810190610f0581610234848a6124da565b5190206040518981019065119d5b99195960d21b825260068152610cf581612164565b84156110ed576002820193845495610f6364496cebb800610f5b610f50600d8801548b612764565b600388015490612764565b048098612673565b81106110a85789600054166040516370a0823160e01b81523360048201528a81602481855afa9081156103c95760009161105f575b50600c9b61035f989561101e9585610fdf600080516020612b9a8339815191529f9d9a969760609f9c98610fd082600a9910156127d5565b86600b8a015416903390612a41565b8f860155610ff6610ff0825461232b565b82612606565b6514995c185a5960d21b9e8f01905560ff1981541690558060005416935416910154916129f2565b549061102983612777565b90604051928352858301527f3b62cc4e086a894a6c745362b81db744e8dd91af3eddccb44143e1f47ec952d060403393a3612777565b90508a81819a9793959b989499969c3d83116110a1575b611080818361217f565b810103126101a157519799959894979396919590949093909290600c610f98565b503d611076565b60405162461bcd60e51b8152600481018a9052601b60248201527f496e73756666696369656e74207061796d656e7420616d6f756e7400000000006044820152606490fd5b60405162461bcd60e51b815260048101889052602860248201527f5061796d656e7420616d6f756e74206d7573742062652067726561746572207460448201526768616e207a65726f60c01b6064820152608490fd5b60405162461bcd60e51b81526004810187905260156024820152744f6e6c792067726f7765722063616e20726570617960581b6044820152606490fd5b346101a1576020806003193601126101a1576004356001600160401b0381116101a1576111b190369060040161230d565b6111b9612997565b6111c16129c2565b60405191815191818101926111d78186866121f2565b84019382816001968781520301902092600484016111f860ff825416612572565b848601546001600160a01b039190821633036114b257908692916112bd60098801976112b5604051946112688b876112338d820180936124da565b0397611247601f19998a810183528261217f565b5190206040518c8101906327b832b760e11b82526004815261026381612164565b611275610d438c5461232b565b6710d85b98d95b195960c21b9a60108c01905560ff19948581541690556000541691600a6112ac6002830154600684015490612673565b91015490612673565b9033906129f2565b604051868187516112cf8183896121f2565b81016002815203019020908154169055826000905b61135a575b8387600080516020612b9a8339815191526060896113358a3361130b82612777565b7f64167c9f5767a6fa8b7008f5263e7f45d013dd7dd2213f2d254bec2da2bae1a7600080a3612777565b936008604051928084528301526040820152a2600080516020612bfa83398151915255005b60038054808310156114ab5761136f8361240a565b50604051611390816113848c820180956124da565b0387810183528261217f565b519020856040516113bc8b828c6113af838301968792519283916121f2565b810103808452018261217f565b519020146113ce5750508301836112e4565b935094959350905060001991828101908111610981576113f06113f79161240a565b509161240a565b9190916104245761140791612680565b8254801561149557019261141a8461240a565b91909161042457600080516020612b9a8339815191529460609483611442611335955461232b565b9081611455575b505055928692946112e9565b6000918b601f80831160011461147157505050555b8980611449565b839161148e9186949585528b8520950160051c85019085016125ef565b555561146a565b634e487b7160e01b600052603160045260246000fd5b50506112e9565b60405162461bcd60e51b815260048101869052601660248201527513db9b1e4819dc9bddd95c8818d85b8818d85b98d95b60521b6044820152606490fd5b346101a15760203660031901126101a1576004356001600160401b0381116101a15761152090369060040161230d565b6040518181809351602081930191611537926121f2565b81016001815203602001902061154c81612365565b600160a01b6001900380600184015416600284015493600381015491600482015460ff16906005830161157e90612365565b6006840154600785015461159460088701612365565b926115a160098801612365565b94600a88015499600b8901541696600c89015498600d0154996040519d8e809e6101c080835282016115d291612215565b9460208201526040015260608d0152151560808c01528a810360a08c01526115f991612215565b9160c08a015260e089015287810361010089015261161691612215565b86810361012088015261162891612215565b936101408601526101608501526101808401526101a08301520390f35b346101a15760203660031901126101a15761165e612132565b7ff0c57e16840df040f15088dc2f81fe391c3923bec73e23a9662efc9c229c6a009081549060ff8260401c1615916001600160401b03811680159081611807575b60011490816117fd575b1590816117f4575b506117e25767ffffffffffffffff1981166001178455826117c3575b506116d6612a99565b6116de612a99565b6116e7336128ea565b6116ef612a99565b6116f7612a99565b6116ff612a99565b611707612a99565b6001600080516020612bfa833981519152556001600160a01b0316801561177e576001600160601b0360a01b600054161760005561174157005b68ff00000000000000001981541690557fc7f505b2f371ae2175ee4913f4499e1f2633a7b5936321eed1cdaeb6115181d2602060405160018152a1005b60405162461bcd60e51b815260206004820152601b60248201527f496e76616c696420574545444c20746f6b656e206164647265737300000000006044820152606490fd5b68ffffffffffffffffff191668010000000000000001178355836116cd565b60405163f92ee8a960e01b8152600490fd5b905015856116b1565b303b1591506116a9565b84915061169f565b346101a1576020806003193601126101a1576004356001600160401b0381116101a1578161184461186092369060040161230d565b61184c61246e565b5081604051938285809451938492016121f2565b8101600181520301902090600d6040519261187a84612148565b61188381612365565b845260018101546001600160a01b03908116848601526002820154604086015260038201546060860152600482015460ff16151560808601526118c860058301612365565b60a0860152600682015460c0860152600782015460e08601526118ed60088301612365565b6101008601526118ff60098301612365565b610120860152600a820154610140860152600b82015416610160850152600c81015461018085015201546101a083015261042060405192828493845283019061223a565b346101a15760003660031901126101a15761042060405161196381612164565b60058152640352e302e360dc1b6020820152604051918291602083526020830190612215565b346101a15760003660031901126101a157600380546119a781612457565b916119b5604051938461217f565b8183526119c182612457565b60209490601f19018560005b828110611b3f5750505060005b838110611a3f57604080518781528651818901819052600092600582901b8301810191898b01918b9085015b828710611a135785850386f35b909192938280611a2f600193603f198a8203018652885161223a565b9601920196019592919092611a06565b80611a4b60019261240a565b50600d611a5b60405180936124da565b91898186948581520301902060405192611a7484612148565b611a7d82612365565b8452858060a01b038091830154168b8501526002820154604085015287820154606085015260ff60048301541615156080850152611abd60058301612365565b60a0850152600682015460c0850152600782015487850152611ae160088301612365565b610100850152611af360098301612365565b610120850152600a820154610140850152600b82015416610160840152600c81015461018084015201546101a0820152611b2d828861255e565b52611b38818761255e565b50016119da565b611b4761246e565b8282890101520186906119cd565b346101a15760003660031901126101a1576020604051602a8152f35b346101a15760003660031901126101a157600080516020612bba833981519152546040516001600160a01b039091168152602090f35b346101a15760003660031901126101a157611bc061295e565b611bc8612997565b600080516020612bda833981519152600160ff198254161790557f62e78cea01bee320cd4e420270b5ea74000d11b0c9f74754ebdbfc544b05a2586020604051338152a1005b346101a15760003660031901126101a157602060405160648152f35b346101a15760003660031901126101a157611c4361295e565b600080516020612bba83398151915280546001600160a01b031981169091556000906001600160a01b03167f8be0079c531659141344cd1fd0a4f28419497f9722a3daafe3b4186f6b6457e08280a3005b346101a15760003660031901126101a157602060ff600080516020612bda83398151915254166040519015158152f35b346101a15760003660031901126101a157600354611ce181612457565b90611cef604051928361217f565b808252602090818301908160036000527fc2575a0e9e593c00f959f8c92f12db2869c3395a3b0502d05e2516446f71f85b6000915b838310611d8b5750505050604051918083019381845251809452604083019360408160051b85010192916000955b828710611d5f5785850386f35b909192938280611d7b600193603f198a82030186528851612215565b9601920196019592919092611d52565b6001868192611d9c859a999a612365565b815201920192019190959495611d24565b346101a15760003660031901126101a1577f00000000000000000000000000000000000000000000000000000000000000006001600160a01b03163003611e185760206040517f360894a13ba1a3210667c828492db98dca3e2076cc3735a920a3ca505d382bbc8152f35b60405163703e46dd60e11b8152600490fd5b60403660031901126101a157611e3e612132565b6024356001600160401b0381116101a157366023820112156101a157611e6e9036906024816004013591016121bb565b906001600160a01b037f0000000000000000000000000000000000000000000000000000000000000000811630811490811561202a575b50611e1857611eb261295e565b6040516352d1902d60e01b8152908216916020918281600481875afa60009181611ffb575b50611ef557604051634c9c8ce360e01b815260048101859052602490fd5b9284937f360894a13ba1a3210667c828492db98dca3e2076cc3735a920a3ca505d382bbc90818103611fe35750823b15611fca5780546001600160a01b03191682179055604051907fbc7cd75a20ee27fd9adebab32041f755214dbc6bffa90cc0225b39da2e5c2d3b600080a2835115611fb05750600080848461046396519101845af4903d15611fa7573d611f8a816121a0565b90611f98604051928361217f565b8152600081943d92013e612b36565b60609250612b36565b9250505034611fbb57005b63b398979f60e01b8152600490fd5b604051634c9c8ce360e01b815260048101839052602490fd5b60249060405190632a87526960e21b82526004820152fd5b9091508381813d8311612023575b612013818361217f565b810103126101a157519086611ed7565b503d612009565b9050817f360894a13ba1a3210667c828492db98dca3e2076cc3735a920a3ca505d382bbc5416141584611ea5565b346101a15760003660031901126101a15761207161295e565b600080516020612bda833981519152805460ff8116156120bd5760ff191690557f5db9ee0a495bf2e6ff9c91a7834c1ba4fdd244a5e8aa4e537bd38aeae4b073aa6020604051338152a1005b604051638dfc202b60e01b8152600490fd5b346101a15760003660031901126101a1576000546040516001600160a01b039091168152602090f35b346101a15760003660031901126101a15760206040516113888152f35b346101a15760003660031901126101a157806301e1338060209252f35b600435906001600160a01b03821682036101a157565b6101c081019081106001600160401b038211176108d957604052565b604081019081106001600160401b038211176108d957604052565b90601f801991011681019081106001600160401b038211176108d957604052565b6001600160401b0381116108d957601f01601f191660200190565b9291926121c7826121a0565b916121d5604051938461217f565b8294818452818301116101a1578281602093846000960137010152565b60005b8381106122055750506000910152565b81810151838201526020016121f5565b9060209161222e815180928185528580860191016121f2565b601f01601f1916010190565b9061224f6101c0835190808452830190612215565b916122dc6122c86122a060208401519560018060a01b038097166020870152604085015160408701526060850151606087015260808501511515608087015260a085015186820360a0880152612215565b60c084015160c086015260e084015160e0860152610100808501519086830390870152612215565b610120808401519085830390860152612215565b9261014080830151908401526101609081830151169083015261018080820151908301526101a08091015191015290565b9080601f830112156101a157816020612328933591016121bb565b90565b90600182811c9216801561235b575b602083101461234557565b634e487b7160e01b600052602260045260246000fd5b91607f169161233a565b906040519182600082546123788161232b565b908184526020946001916001811690816000146123e857506001146123a9575b5050506123a79250038361217f565b565b600090815285812095935091905b8183106123d05750506123a79350820101388080612398565b855488840185015294850194879450918301916123b7565b925050506123a794925060ff191682840152151560051b820101388080612398565b6003548110156124415760036000527fc2575a0e9e593c00f959f8c92f12db2869c3395a3b0502d05e2516446f71f85b0190600090565b634e487b7160e01b600052603260045260246000fd5b6001600160401b0381116108d95760051b60200190565b6040519061247b82612148565b81606081526101a0600091826020820152826040820152826060820152826080820152606060a08201528260c08201528260e0820152606061010082015260606101208201528261014082015282610160820152826101808201520152565b6000929181546124e98161232b565b926001918083169081156125435750600114612506575b50505050565b9091929394506000526020906020600020906000915b8583106125325750505050019038808080612500565b80548584015291830191810161251c565b60ff1916845250505081151590910201915038808080612500565b80518210156124415760209160051b010190565b1561257957565b60405162461bcd60e51b81526020600482015260126024820152714c6f616e206973206e6f742061637469766560701b6044820152606490fd5b156125ba57565b60405162461bcd60e51b815260206004820152600d60248201526c2637b0b7103737ba1037b832b760991b6044820152606490fd5b8181106125fa575050565b600081556001016125ef565b90601f8111612613575050565b6123a791600052601f6020600020910160051c8101906125ef565b9190601f811161263d57505050565b6123a7926000526020600020906020601f840160051c83019310612669575b601f0160051c01906125ef565b909150819061265c565b9190820180921161098157565b9080821461276057612692815461232b565b906001600160401b0382116108d9576126b5826126af855461232b565b8561262e565b600090601f83116001146126f5576126e69291600091836126ea575b50508160011b916000199060031b1c19161790565b9055565b0154905038806126d1565b815260208082208483528183209291601f1985169083905b82821061274757505090846001959493921061272e575b505050811b019055565b015460001960f88460031b161c19169055388080612724565b849581929585015481556001809101960194019061270d565b5050565b8181029291811591840414171561098157565b61278f906020604051928284809451938492016121f2565b810103902090565b1561279e57565b60405162461bcd60e51b815260206004820152600f60248201526e131bd85b881b9bdd08199d5b991959608a1b6044820152606490fd5b156127dc57565b60405162461bcd60e51b815260206004820152601a60248201527f496e73756666696369656e7420574545444c2062616c616e63650000000000006044820152606490fd5b91909182516001600160401b0381116108d95761284881612842845461232b565b8461262e565b602080601f8311600114612886575081906126e693949560009261287b5750508160011b916000199060031b1c19161790565b0151905038806126d1565b90601f19831695846000526020600020926000905b8882106128d2575050836001959697106128b957505050811b019055565b015160001960f88460031b161c19169055388080612724565b8060018596829496860151815501950193019061289b565b6001600160a01b0390811690811561294557600080516020612bba83398151915280546001600160a01b031981168417909155167f8be0079c531659141344cd1fd0a4f28419497f9722a3daafe3b4186f6b6457e0600080a3565b604051631e4fbdf760e01b815260006004820152602490fd5b600080516020612bba833981519152546001600160a01b0316330361297f57565b60405163118cdaa760e01b8152336004820152602490fd5b60ff600080516020612bda83398151915254166129b057565b60405163d93c066560e01b8152600490fd5b600080516020612bfa83398151915260028154146129e05760029055565b604051633ee5aeb560e01b8152600490fd5b60405163a9059cbb60e01b60208201526001600160a01b03909216602483015260448083019390935291815260808101916001600160401b038311828410176108d9576123a792604052612ada565b6040516323b872dd60e01b60208201526001600160a01b03928316602482015292909116604483015260648083019390935291815260a08101918183106001600160401b038411176108d9576123a792604052612ada565b60ff7ff0c57e16840df040f15088dc2f81fe391c3923bec73e23a9662efc9c229c6a005460401c1615612ac857565b604051631afcd79f60e31b8152600490fd5b906000602091828151910182855af1156103c9576000513d612b2d57506001600160a01b0381163b155b612b0b5750565b604051635274afe760e01b81526001600160a01b039091166004820152602490fd5b60011415612b04565b90612b5d5750805115612b4b57602081519101fd5b60405163d6bda27560e01b8152600490fd5b81511580612b90575b612b6e575090565b604051639996b31560e01b81526001600160a01b039091166004820152602490fd5b50803b15612b6656fe8a7be6b6d998757cde134d68c5bc04568dbfd09aeda7c427b92e336502173fa49016d09d72d40fdae2fd8ceac6b6234c7706214fd39c1cd1e609a0528c199300cd5ed15c6e187e77e9aee88184c21f4f2182ab5827cb3b7e07fbedcd63f033009b779b17422d0df92223018b32b4d1fa46e071723d6817e2486d003becc55f00a2646970667358221220657d0657019a397a3996a1e60800f9e28dff05d80b19465437c78a43b6ca948964736f6c63430008160033",
  "linkReferences": {},
  "deployedLinkReferences": {}
}