{
  "_format": "hh-sol-artifact-1",
  "contractName": "GreenFiSeed",
  "sourceName": "contracts/GreenFiSeed.sol",
  "abi": [
    {
      "inputs": [],
      "stateMutability": "nonpayable",
      "type": "constructor"
    },
    {
      "inputs": [
        {
          "internalType": "address",
          "name": "target",
          "type": "address"
        }
      ],
      "name": "AddressEmptyCode",
      "type": "error"
    },
    {
      "inputs": [
        {
          "internalType": "address",
          "name": "implementation",
          "type": "address"
        }
      ],
      "name": "ERC1967InvalidImplementation",
      "type": "error"
    },
    {
      "inputs": [],
      "name": "ERC1967NonPayable",
      "type": "error"
    },
    {
      "inputs": [],
      "name": "EnforcedPause",
      "type": "error"
    },
    {
      "inputs": [],
      "name": "ExpectedPause",
      "type": "error"
    },
    {
      "inputs": [],
      "name": "FailedCall",
      "type": "error"
    },
    {
      "inputs": [],
      "name": "InvalidInitialization",
      "type": "error"
    },
    {
      "inputs": [],
      "name": "NotInitializing",
      "type": "error"
    },
    {
      "inputs": [
        {
          "internalType": "address",
          "name": "owner",
          "type": "address"
        }
      ],
      "name": "OwnableInvalidOwner",
      "type": "error"
    },
    {
      "inputs": [
        {
          "internalType": "address",
          "name": "account",
          "type": "address"
        }
      ],
      "name": "OwnableUnauthorizedAccount",
      "type": "error"
    },
    {
      "inputs": [],
      "name": "ReentrancyGuardReentrantCall",
      "type": "error"
    },
    {
      "inputs": [
        {
          "internalType": "address",
          "name": "token",
          "type": "address"
        }
      ],
      "name": "SafeERC20FailedOperation",
      "type": "error"
    },
    {
      "inputs": [],
      "name": "UUPSUnauthorizedCallContext",
      "type": "error"
    },
    {
      "inputs": [
        {
          "internalType": "bytes32",
          "name": "slot",
          "type": "bytes32"
        }
      ],
      "name": "UUPSUnsupportedProxiableUUID",
      "type": "error"
    },
    {
      "anonymous": false,
      "inputs": [
        {
          "indexed": true,
          "internalType": "address",
          "name": "payer",
          "type": "address"
        },
        {
          "indexed": false,
          "internalType": "uint256",
          "name": "feeAmount",
          "type": "uint256"
        }
      ],
      "name": "FeeCollected",
      "type": "event"
    },
    {
      "anonymous": false,
      "inputs": [
        {
          "indexed": false,
          "internalType": "uint64",
          "name": "version",
          "type": "uint64"
        }
      ],
      "name": "Initialized",
      "type": "event"
    },
    {
      "anonymous": false,
      "inputs": [
        {
          "indexed": true,
          "internalType": "address",
          "name": "previousOwner",
          "type": "address"
        },
        {
          "indexed": true,
          "internalType": "address",
          "name": "newOwner",
          "type": "address"
        }
      ],
      "name": "OwnershipTransferred",
      "type": "event"
    },
    {
      "anonymous": false,
      "inputs": [
        {
          "indexed": false,
          "internalType": "address",
          "name": "account",
          "type": "address"
        }
      ],
      "name": "Paused",
      "type": "event"
    },
    {
      "anonymous": false,
      "inputs": [
        {
          "indexed": true,
          "internalType": "string",
          "name": "seedId",
          "type": "string"
        },
        {
          "indexed": true,
          "internalType": "address",
          "name": "seller",
          "type": "address"
        }
      ],
      "name": "SeedDelisted",
      "type": "event"
    },
    {
      "anonymous": false,
      "inputs": [
        {
          "indexed": true,
          "internalType": "string",
          "name": "seedId",
          "type": "string"
        },
        {
          "indexed": true,
          "internalType": "address",
          "name": "seller",
          "type": "address"
        },
        {
          "indexed": false,
          "internalType": "string",
          "name": "metadataURI",
          "type": "string"
        },
        {
          "indexed": false,
          "internalType": "string",
          "name": "strain",
          "type": "string"
        },
        {
          "indexed": false,
          "internalType": "uint256",
          "name": "price",
          "type": "uint256"
        },
        {
          "indexed": false,
          "internalType": "string",
          "name": "contactInfo",
          "type": "string"
        },
        {
          "indexed": false,
          "internalType": "uint256",
          "name": "packSize",
          "type": "uint256"
        },
        {
          "indexed": false,
          "internalType": "uint256",
          "name": "packQuantity",
          "type": "uint256"
        },
        {
          "indexed": false,
          "internalType": "uint256",
          "name": "discount",
          "type": "uint256"
        },
        {
          "indexed": false,
          "internalType": "uint256",
          "name": "fee",
          "type": "uint256"
        }
      ],
      "name": "SeedListed",
      "type": "event"
    },
    {
      "anonymous": false,
      "inputs": [
        {
          "indexed": true,
          "internalType": "string",
          "name": "seedId",
          "type": "string"
        },
        {
          "indexed": true,
          "internalType": "address",
          "name": "buyer",
          "type": "address"
        },
        {
          "indexed": false,
          "internalType": "uint256",
          "name": "packQuantity",
          "type": "uint256"
        },
        {
          "indexed": false,
          "internalType": "uint256",
          "name": "totalPrice",
          "type": "uint256"
        }
      ],
      "name": "SeedPurchased",
      "type": "event"
    },
    {
      "anonymous": false,
      "inputs": [
        {
          "indexed": false,
          "internalType": "address",
          "name": "account",
          "type": "address"
        }
      ],
      "name": "Unpaused",
      "type": "event"
    },
    {
      "anonymous": false,
      "inputs": [
        {
          "indexed": true,
          "internalType": "address",
          "name": "implementation",
          "type": "address"
        }
      ],
      "name": "Upgraded",
      "type": "event"
    },
    {
      "inputs": [],
      "name": "FEE_BASIS_POINTS",
      "outputs": [
        {
          "internalType": "uint256",
          "name": "",
          "type": "uint256"
        }
      ],
      "stateMutability": "view",
      "type": "function"
    },
    {
      "inputs": [],
      "name": "MAX_CONTACT_LENGTH",
      "outputs": [
        {
          "internalType": "uint256",
          "name": "",
          "type": "uint256"
        }
      ],
      "stateMutability": "view",
      "type": "function"
    },
    {
      "inputs": [],
      "name": "MAX_DISCOUNT",
      "outputs": [
        {
          "internalType": "uint256",
          "name": "",
          "type": "uint256"
        }
      ],
      "stateMutability": "view",
      "type": "function"
    },
    {
      "inputs": [],
      "name": "MAX_QUANTITY",
      "outputs": [
        {
          "internalType": "uint256",
          "name": "",
          "type": "uint256"
        }
      ],
      "stateMutability": "view",
      "type": "function"
    },
    {
      "inputs": [],
      "name": "MAX_SEED_ID_LENGTH",
      "outputs": [
        {
          "internalType": "uint256",
          "name": "",
          "type": "uint256"
        }
      ],
      "stateMutability": "view",
      "type": "function"
    },
    {
      "inputs": [],
      "name": "MIN_PRICE",
      "outputs": [
        {
          "internalType": "uint256",
          "name": "",
          "type": "uint256"
        }
      ],
      "stateMutability": "view",
      "type": "function"
    },
    {
      "inputs": [],
      "name": "UPGRADE_INTERFACE_VERSION",
      "outputs": [
        {
          "internalType": "string",
          "name": "",
          "type": "string"
        }
      ],
      "stateMutability": "view",
      "type": "function"
    },
    {
      "inputs": [
        {
          "internalType": "string",
          "name": "_seedId",
          "type": "string"
        }
      ],
      "name": "delistSeed",
      "outputs": [],
      "stateMutability": "nonpayable",
      "type": "function"
    },
    {
      "inputs": [],
      "name": "getAllSeeds",
      "outputs": [
        {
          "components": [
            {
              "internalType": "string",
              "name": "id",
              "type": "string"
            },
            {
              "internalType": "address",
              "name": "seller",
              "type": "address"
            },
            {
              "internalType": "string",
              "name": "metadataURI",
              "type": "string"
            },
            {
              "internalType": "string",
              "name": "strain",
              "type": "string"
            },
            {
              "internalType": "uint256",
              "name": "price",
              "type": "uint256"
            },
            {
              "internalType": "string",
              "name": "contactInfo",
              "type": "string"
            },
            {
              "internalType": "uint256",
              "name": "packSize",
              "type": "uint256"
            },
            {
              "internalType": "uint256",
              "name": "packQuantity",
              "type": "uint256"
            },
            {
              "internalType": "uint256",
              "name": "discount",
              "type": "uint256"
            },
            {
              "internalType": "bool",
              "name": "isActive",
              "type": "bool"
            }
          ],
          "internalType": "struct GreenFiSeed.Seed[]",
          "name": "",
          "type": "tuple[]"
        }
      ],
      "stateMutability": "view",
      "type": "function"
    },
    {
      "inputs": [
        {
          "internalType": "address",
          "name": "_seller",
          "type": "address"
        }
      ],
      "name": "getSellerSeeds",
      "outputs": [
        {
          "components": [
            {
              "internalType": "string",
              "name": "id",
              "type": "string"
            },
            {
              "internalType": "address",
              "name": "seller",
              "type": "address"
            },
            {
              "internalType": "string",
              "name": "metadataURI",
              "type": "string"
            },
            {
              "internalType": "string",
              "name": "strain",
              "type": "string"
            },
            {
              "internalType": "uint256",
              "name": "price",
              "type": "uint256"
            },
            {
              "internalType": "string",
              "name": "contactInfo",
              "type": "string"
            },
            {
              "internalType": "uint256",
              "name": "packSize",
              "type": "uint256"
            },
            {
              "internalType": "uint256",
              "name": "packQuantity",
              "type": "uint256"
            },
            {
              "internalType": "uint256",
              "name": "discount",
              "type": "uint256"
            },
            {
              "internalType": "bool",
              "name": "isActive",
              "type": "bool"
            }
          ],
          "internalType": "struct GreenFiSeed.Seed[]",
          "name": "",
          "type": "tuple[]"
        }
      ],
      "stateMutability": "view",
      "type": "function"
    },
    {
      "inputs": [],
      "name": "getValidPackSizes",
      "outputs": [
        {
          "internalType": "uint256[]",
          "name": "",
          "type": "uint256[]"
        }
      ],
      "stateMutability": "view",
      "type": "function"
    },
    {
      "inputs": [
        {
          "internalType": "address",
          "name": "_weedlToken",
          "type": "address"
        }
      ],
      "name": "initialize",
      "outputs": [],
      "stateMutability": "nonpayable",
      "type": "function"
    },
    {
      "inputs": [
        {
          "internalType": "string",
          "name": "_seedId",
          "type": "string"
        }
      ],
      "name": "isSeedIdAvailable",
      "outputs": [
        {
          "internalType": "bool",
          "name": "",
          "type": "bool"
        }
      ],
      "stateMutability": "view",
      "type": "function"
    },
    {
      "inputs": [
        {
          "internalType": "string",
          "name": "_seedId",
          "type": "string"
        },
        {
          "internalType": "string",
          "name": "_metadataURI",
          "type": "string"
        },
        {
          "internalType": "uint256",
          "name": "_price",
          "type": "uint256"
        },
        {
          "internalType": "string",
          "name": "_contactInfo",
          "type": "string"
        },
        {
          "internalType": "string",
          "name": "_strain",
          "type": "string"
        },
        {
          "internalType": "uint256",
          "name": "_packSize",
          "type": "uint256"
        },
        {
          "internalType": "uint256",
          "name": "_packQuantity",
          "type": "uint256"
        },
        {
          "internalType": "uint256",
          "name": "_discount",
          "type": "uint256"
        }
      ],
      "name": "listSeed",
      "outputs": [],
      "stateMutability": "nonpayable",
      "type": "function"
    },
    {
      "inputs": [],
      "name": "owner",
      "outputs": [
        {
          "internalType": "address",
          "name": "",
          "type": "address"
        }
      ],
      "stateMutability": "view",
      "type": "function"
    },
    {
      "inputs": [],
      "name": "pause",
      "outputs": [],
      "stateMutability": "nonpayable",
      "type": "function"
    },
    {
      "inputs": [],
      "name": "paused",
      "outputs": [
        {
          "internalType": "bool",
          "name": "",
          "type": "bool"
        }
      ],
      "stateMutability": "view",
      "type": "function"
    },
    {
      "inputs": [],
      "name": "proxiableUUID",
      "outputs": [
        {
          "internalType": "bytes32",
          "name": "",
          "type": "bytes32"
        }
      ],
      "stateMutability": "view",
      "type": "function"
    },
    {
      "inputs": [
        {
          "internalType": "string",
          "name": "_seedId",
          "type": "string"
        },
        {
          "internalType": "uint256",
          "name": "_packQuantity",
          "type": "uint256"
        }
      ],
      "name": "purchaseSeed",
      "outputs": [],
      "stateMutability": "nonpayable",
      "type": "function"
    },
    {
      "inputs": [],
      "name": "renounceOwnership",
      "outputs": [],
      "stateMutability": "nonpayable",
      "type": "function"
    },
    {
      "inputs": [
        {
          "internalType": "uint256",
          "name": "",
          "type": "uint256"
        }
      ],
      "name": "seedIds",
      "outputs": [
        {
          "internalType": "string",
          "name": "",
          "type": "string"
        }
      ],
      "stateMutability": "view",
      "type": "function"
    },
    {
      "inputs": [
        {
          "internalType": "string",
          "name": "",
          "type": "string"
        }
      ],
      "name": "seeds",
      "outputs": [
        {
          "internalType": "string",
          "name": "id",
          "type": "string"
        },
        {
          "internalType": "address",
          "name": "seller",
          "type": "address"
        },
        {
          "internalType": "string",
          "name": "metadataURI",
          "type": "string"
        },
        {
          "internalType": "string",
          "name": "strain",
          "type": "string"
        },
        {
          "internalType": "uint256",
          "name": "price",
          "type": "uint256"
        },
        {
          "internalType": "string",
          "name": "contactInfo",
          "type": "string"
        },
        {
          "internalType": "uint256",
          "name": "packSize",
          "type": "uint256"
        },
        {
          "internalType": "uint256",
          "name": "packQuantity",
          "type": "uint256"
        },
        {
          "internalType": "uint256",
          "name": "discount",
          "type": "uint256"
        },
        {
          "internalType": "bool",
          "name": "isActive",
          "type": "bool"
        }
      ],
      "stateMutability": "view",
      "type": "function"
    },
    {
      "inputs": [
        {
          "internalType": "address",
          "name": "",
          "type": "address"
        },
        {
          "internalType": "uint256",
          "name": "",
          "type": "uint256"
        }
      ],
      "name": "sellerSeeds",
      "outputs": [
        {
          "internalType": "string",
          "name": "",
          "type": "string"
        }
      ],
      "stateMutability": "view",
      "type": "function"
    },
    {
      "inputs": [
        {
          "internalType": "address",
          "name": "newOwner",
          "type": "address"
        }
      ],
      "name": "transferOwnership",
      "outputs": [],
      "stateMutability": "nonpayable",
      "type": "function"
    },
    {
      "inputs": [],
      "name": "unpause",
      "outputs": [],
      "stateMutability": "nonpayable",
      "type": "function"
    },
    {
      "inputs": [
        {
          "internalType": "address",
          "name": "newImplementation",
          "type": "address"
        },
        {
          "internalType": "bytes",
          "name": "data",
          "type": "bytes"
        }
      ],
      "name": "upgradeToAndCall",
      "outputs": [],
      "stateMutability": "payable",
      "type": "function"
    },
    {
      "inputs": [
        {
          "internalType": "uint256",
          "name": "",
          "type": "uint256"
        }
      ],
      "name": "validPackSizes",
      "outputs": [
        {
          "internalType": "uint256",
          "name": "",
          "type": "uint256"
        }
      ],
      "stateMutability": "view",
      "type": "function"
    },
    {
      "inputs": [],
      "name": "weedlToken",
      "outputs": [
        {
          "internalType": "contract IERC20",
          "name": "",
          "type": "address"
        }
      ],
      "stateMutability": "view",
      "type": "function"
    },
    {
      "inputs": [],
      "name": "withdrawFees",
      "outputs": [],
      "stateMutability": "nonpayable",
      "type": "function"
    }
  ],
  "bytecode": "0x60a080604052346100cc57306080527ff0c57e16840df040f15088dc2f81fe391c3923bec73e23a9662efc9c229c6a009081549060ff8260401c166100bd57506001600160401b036002600160401b031982821601610078575b6040516126db90816100d282396080518181816110db01526111940152f35b6001600160401b031990911681179091556040519081527fc7f505b2f371ae2175ee4913f4499e1f2633a7b5936321eed1cdaeb6115181d290602090a1388080610059565b63f92ee8a960e01b8152600490fd5b600080fdfe6080604052600436101561001257600080fd5b60003560e01c80630d6f7e9c14611b22578063391f0bb4146117cd5780633b9c8cfe146117a45780633f4ba83a1461172d5780634728959714611627578063476343ee146114f25780634aa93dd2146113735780634f1ef2861461114557806352d1902d146110c85780635c975abb14611098578063635d5c101461106b578063715018a614611001578063833bb12914610f995780638456cb5914610f325780638da5cb5b14610efc578063a25b056114610d8a578063a525ad3c14610d6e578063a9b9636314610653578063ad3cb1cc146105fb578063ad9f20a6146105da578063c0116a69146105a3578063c0217e3a14610506578063c4d66de814610266578063e34955691461024a578063e41ee46a1461022d578063e42a924714610212578063e5b6addd146101a7578063f2bc9a0e1461018b5763f2fde38b1461015b57600080fd5b3461018657602036600319011261018657610184610177611e16565b61017f6124ad565b612386565b005b600080fd5b3461018657600036600319011261018657602060405160648152f35b34610186576040366003190112610186576101c0611e16565b6001600160a01b03166000908152600460205260409020805460243590811015610186576101f46101fa9161020e93611f96565b90611fae565b604051918291602083526020830190611df1565b0390f35b34610186576000366003190112610186576020604051818152f35b346101865760003660031901126101865760206040516103e88152f35b3461018657600036600319011261018657602060405160328152f35b346101865760208060031936011261018657610280611e16565b907ff0c57e16840df040f15088dc2f81fe391c3923bec73e23a9662efc9c229c6a009081549260ff808560401c1615926001600160401b0392838716968715806104ff575b600180991490816104f5575b1590816104ec575b506104da5767ffffffffffffffff19811688178755856104bb575b506102fd612581565b610305612581565b61030e33612386565b610316612581565b61031e612581565b610326612581565b866000805160206126868339815191525561033f612581565b6001600160a01b0316801561047e576bffffffffffffffffffffffff60a01b600054161760005560405192606084019084821090821117610468576040526003926003815260056020820152600a60408201528654600388558060031061041b575b5091866000528660005b8581106103f9575086866103bb57005b805468ff0000000000000000191690556040519081527fc7f505b2f371ae2175ee4913f4499e1f2633a7b5936321eed1cdaeb6115181d290602090a1005b83838651169501948160008051602061264683398151915201550187906103ab565b60008051602061264683398151915201877fb10e2d527612073b26eecdfd717e6a320cf44b4afac2b0732d9fcbe2b7fa0cf95b82811061045c5750506103a1565b6000815501889061044e565b634e487b7160e01b600052604160045260246000fd5b60405162461bcd60e51b8152602060048201526015602482015274496e76616c696420746f6b656e206164647265737360581b6044820152606490fd5b68ffffffffffffffffff191668010000000000000001178655876102f4565b60405163f92ee8a960e01b8152600490fd5b905015896102d9565b303b1591506102d1565b50856102c5565b34610186576000366003190112610186576040518060018054928381526020809101809460016000526000805160206126468339815191529060005b8181106105905750505083610558910384611c5e565b60405192818401908285525180915260408401949160005b82811061057d5785870386f35b8351875295810195928101928401610570565b8254845292840192918501918501610542565b3461018657602036600319011261018657600435600154811015610186576105cc602091611f71565b90546040519160031b1c8152f35b34610186576000366003190112610186576020604051655af3107a40008152f35b346101865760003660031901126101865760405160408101908082106001600160401b038311176104685761020e9160405260058152640352e302e360dc1b6020820152604051918291602083526020830190611df1565b3461018657610100366003190112610186576001600160401b0360043581811161018657610685903690600401611cd1565b6024358281116101865761069d903690600401611cd1565b90606435838111610186576106b6903690600401611cd1565b92608435908111610186576106cf903690600401611cd1565b906106d86123fa565b6106e061242a565b80518015159081610d62575b5015610d24576040516001825191610708838260208701611cef565b600283820152602081838060a01b0394810103019020015416610ce657655af3107a400060443510610cab5760c435151580610c9d575b61074890611ffa565b61075360a4356124e6565b15610c6457603260e43511610c1f576064845111610be257815115610bac57825115610b7057602a60443502936044358504602a14604435151715610b5a57612710850415610b1d57600054604051636eb1769f60e11b81523360048201523060248201526001600160a01b0390911690602081604481855afa8015610add57600090610ae9575b6107ec91506127108804111561205e565b6040516370a0823160e01b815233600482015290602082602481845afa918215610add57600092610aa7575b5061082c61083b92612710890411156120a3565b61271087049030903390612455565b60405161084781611c42565b82815233602082015284604082015283606082015260443560808201528160a082015260a43560c082015260c43560e082015260e4356101008201526001610120820152610120600960405160208187516108a58183858c01611cef565b810160028152030190206108ba845182612274565b6001810160018060a01b036020860151166bffffffffffffffffffffffff60a01b8254161790556108f2604085015160028301612274565b610903606085015160038301612274565b6080840151600482015561091e60a085015160058301612274565b60c0840151600682015560e08401516007820155610100840151600882015501910151151560ff80198354169116179055600354600160401b8110156104685780600161096e9201600355611f24565b610a91578261097c91612274565b33600052600460205260406000208054600160401b811015610468576109a791600182018155611f96565b919091610a9157610a0e6109e8846109e37fc78e9bba005a83d04b607f813d0c5bfec47851cb43fbd51a19acdf615c285d5f96610a2496612274565b6120ef565b94610a00604051976101008952610100890190611df1565b908782036020890152611df1565b9060443560408701528582036060870152611df1565b9260a435608082015260c43560a082015260e43560c0820152612710850460e08201528033940390a3612710604051910481527f06c5efeff5c320943d265dc4e5f1af95ad523555ce0c1957e367dda5514572df60203392a2600160008051602061268683398151915255005b634e487b7160e01b600052600060045260246000fd5b91506020823d602011610ad5575b81610ac260209383611c5e565b810103126101865790519061082c610818565b3d9150610ab5565b6040513d6000823e3d90fd5b506020813d602011610b15575b81610b0360209383611c5e565b81010312610186576107ec90516107db565b3d9150610af6565b60405162461bcd60e51b81526020600482015260156024820152742332b29031b0b631bab630ba34b7b71032b93937b960591b6044820152606490fd5b634e487b7160e01b600052601160045260246000fd5b60405162461bcd60e51b8152602060048201526014602482015273496e76616c6964206d657461646174612055524960601b6044820152606490fd5b60405162461bcd60e51b815260206004820152600e60248201526d24b73b30b634b21039ba3930b4b760911b6044820152606490fd5b60405162461bcd60e51b8152602060048201526015602482015274436f6e7461637420696e666f20746f6f206c6f6e6760581b6044820152606490fd5b60405162461bcd60e51b815260206004820152601860248201527f446973636f756e742065786365656473206d6178696d756d00000000000000006044820152606490fd5b60405162461bcd60e51b8152602060048201526011602482015270496e76616c6964207061636b2073697a6560781b6044820152606490fd5b506103e860c435111561073f565b60405162461bcd60e51b815260206004820152601360248201527250726963652062656c6f77206d696e696d756d60681b6044820152606490fd5b60405162461bcd60e51b81526020600482015260166024820152755365656420494420616c726561647920696e2075736560501b6044820152606490fd5b60405162461bcd60e51b8152602060048201526016602482015275092dcecc2d8d2c840e6cacac840928840d8cadccee8d60531b6044820152606490fd5b602091501115856106ec565b34610186576000366003190112610186576020604051602a8152f35b3461018657600036600319011261018657600380546000805b828110610ec85750610db490612126565b916000805b838110610dce576040518061020e8782611e2c565b610de9610dda82611f24565b5060ff809160099384916121d1565b015416610dfb575b5050600101610db9565b92610ec0918394610e16610e10600196611f24565b506121d1565b9160405192610e2484611c42565b610e2d81611d4c565b8452868060a01b0387820154166020850152610e4b60028201611d4c565b6040850152610e5b898201611d4c565b606085015260048101546080850152610e7660058201611d4c565b60a0850152600681015460c0850152600781015460e085015260088101546101008501520154161515610120820152610eaf82896121bd565b52610eba81886121bd565b50612265565b919086610df1565b60ff6009610ed8610e1084611f24565b015416610ee8575b600101610da3565b90610ef4600191612265565b919050610ee0565b3461018657600036600319011261018657600080516020612626833981519152546040516001600160a01b039091168152602090f35b3461018657600036600319011261018657610f4b6124ad565b610f5361242a565b600080516020612666833981519152600160ff198254161790557f62e78cea01bee320cd4e420270b5ea74000d11b0c9f74754ebdbfc544b05a2586020604051338152a1005b34610186576020366003190112610186576004356001600160401b03811161018657610fcb6020913690600401611cd1565b600182610fe16040519384815193849201611cef565b820191600283528381838060a01b03940301902001541615604051908152f35b346101865760003660031901126101865761101a6124ad565b60008051602061262683398151915280546001600160a01b031981169091556000906001600160a01b03167f8be0079c531659141344cd1fd0a4f28419497f9722a3daafe3b4186f6b6457e08280a3005b3461018657602036600319011261018657600435600354811015610186576101fa6101f461020e92611f24565b3461018657600036600319011261018657602060ff60008051602061266683398151915254166040519015158152f35b34610186576000366003190112610186577f00000000000000000000000000000000000000000000000000000000000000006001600160a01b031630036111335760206040517f360894a13ba1a3210667c828492db98dca3e2076cc3735a920a3ca505d382bbc8152f35b60405163703e46dd60e11b8152600490fd5b604036600319011261018657611159611e16565b6024356001600160401b038111610186573660238201121561018657611189903690602481600401359101611c9a565b906001600160a01b037f00000000000000000000000000000000000000000000000000000000000000008116308114908115611345575b50611133576111cd6124ad565b6040516352d1902d60e01b8152908216916020918281600481875afa60009181611316575b5061121057604051634c9c8ce360e01b815260048101859052602490fd5b9284937f360894a13ba1a3210667c828492db98dca3e2076cc3735a920a3ca505d382bbc908181036112fe5750823b156112e55780546001600160a01b03191682179055604051907fbc7cd75a20ee27fd9adebab32041f755214dbc6bffa90cc0225b39da2e5c2d3b600080a28351156112cb5750600080848461018496519101845af4903d156112c2573d6112a581611c7f565b906112b36040519283611c5e565b8152600081943d92013e6125c2565b606092506125c2565b92505050346112d657005b63b398979f60e01b8152600490fd5b604051634c9c8ce360e01b815260048101839052602490fd5b60249060405190632a87526960e21b82526004820152fd5b9091508381813d831161133e575b61132e8183611c5e565b81010312610186575190866111f2565b503d611324565b9050817f360894a13ba1a3210667c828492db98dca3e2076cc3735a920a3ca505d382bbc54161415846111c0565b3461018657602080600319360112610186576001600160a01b0380611396611e16565b166000526004825260406000209081546113af8161210f565b926113bd6040519485611c5e565b8184526000908152848120858086015b8484106114d4575085856113e18251612126565b9260005b83518110156114c657806113fb600192866121bd565b5160ff6009856114146040519485815193849201611cef565b83019286816002958681520301902061144f6040519461143386611c42565b61143c83611d4c565b8652898884015416898701528201611d4c565b604085015261146060038201611d4c565b60608501526004810154608085015261147b60058201611d4c565b60a0850152600681015460c0850152600781015460e0850152600881015461010085015201541615156101208201526114b482886121bd565b526114bf81876121bd565b50016113e5565b6040518061020e8782611e2c565b60019182916114e285611d4c565b81520192019201919086906113cd565b346101865760003660031901126101865761150b6124ad565b6115136123fa565b6000546040516370a0823160e01b81523060048201526001600160a01b0391821691602091908282602481875afa918215610add576000926115f8575b5081156115bd5760008051602061262683398151915254166040519263a9059cbb60e01b90840152602483015260448201526044815260808101918183106001600160401b03841117610468576115a992604052612525565b600160008051602061268683398151915255005b60405162461bcd60e51b81526004810184905260136024820152724e6f206665657320746f20776974686472617760681b6044820152606490fd5b9091508281813d8311611620575b6116108183611c5e565b8101031261018657519084611550565b503d611606565b34610186576020366003190112610186576004356001600160401b03811161018657611657903690600401611cd1565b61165f6123fa565b61166761242a565b604051602081835161167c8183858801611cef565b60029082019081520301902060018101546001600160a01b031633036116f65760090180546116ad60ff8216611fbc565b60ff191690556116bd33916120ef565b7fce7d5a374b88b2a64f2970516112d4977854b27c776377a92890c6b8d29cb114600080a3600160008051602061268683398151915255005b60405162461bcd60e51b815260206004820152600f60248201526e2737ba1039b2b2b21039b2b63632b960891b6044820152606490fd5b34610186576000366003190112610186576117466124ad565b600080516020612666833981519152805460ff8116156117925760ff191690557f5db9ee0a495bf2e6ff9c91a7834c1ba4fdd244a5e8aa4e537bd38aeae4b073aa6020604051338152a1005b604051638dfc202b60e01b8152600490fd5b34610186576000366003190112610186576000546040516001600160a01b039091168152602090f35b34610186576040366003190112610186576004356001600160401b038111610186576117fd903690600401611cd1565b602490813561180a6123fa565b61181261242a565b604051908183516020938161182b869383858a01611cef565b8101600281520301902093600985019361184860ff865416611fbc565b611853831515611ffa565b6007860183815410611ade5760018701546001600160a01b0390811697909390338914611aa457856008600483015492015480611a7f575b506118959161204b565b93602a8502858104602a1486151715611a6a576127109004986118b88a8761203e565b600054604051636eb1769f60e11b8152336004820152306024820152919291908416908a81604481855afa8015610add578990600090611a39575b6118ff9250101561205e565b8960405180966370a0823160e01b825233600483015281845afa8015610add578c956000916119f2575b5061197c937f06c5efeff5c320943d265dc4e5f1af95ad523555ce0c1957e367dda5514572df9c9693611996999896936119688c61196f9510156120a3565b3390612455565b3090339060005416612455565b61198786825461203e565b809155156119e4575b506120ef565b90604051928352838301527ff076f51bafb67bdc44d9949e6d7c35b30314795854f3d90b680b3b3f4572728e60403393a36040519283523392a2600160008051602061268683398151915255005b805460ff1916905587611990565b809c96508b809250989795929394983d8311611a32575b611a138183611c5e565b810103126101865799519399949592948b94909392919061197c611929565b503d611a09565b50508a81813d8311611a63575b611a508183611c5e565b8101031261018657886118ff91516118f3565b503d611a46565b82634e487b7160e01b60005260116004526000fd5b90506064039060648211611a6a576064611a9d61189593899361204b565b049161188b565b60405162461bcd60e51b8152600481018890526013818401527210d85b9b9bdd08189d5e481bdddb881cd95959606a1b6044820152606490fd5b60405162461bcd60e51b815260048101869052601a818501527f496e73756666696369656e74207061636b207175616e746974790000000000006044820152606490fd5b34610186576020366003190112610186576004356001600160401b03811161018657611bf4611b6e6020611b5b81943690600401611cd1565b8160405193828580945193849201611cef565b81016002815203019020611b8181611d4c565b9060018060a01b0360018201541690611b9c60028201611d4c565b611c25611bab60038401611d4c565b600484015490611c12611bc060058701611d4c565b91611c0460068801549960078901549760ff600960088c01549b0154169a6040519e8f9e8f94610140808752860190611df1565b9301528c820360408e0152611df1565b908a820360608c0152611df1565b91608089015287820360a0890152611df1565b9360c086015260e085015261010084015215156101208301520390f35b61014081019081106001600160401b0382111761046857604052565b90601f801991011681019081106001600160401b0382111761046857604052565b6001600160401b03811161046857601f01601f191660200190565b929192611ca682611c7f565b91611cb46040519384611c5e565b829481845281830111610186578281602093846000960137010152565b9080601f8301121561018657816020611cec93359101611c9a565b90565b60005b838110611d025750506000910152565b8181015183820152602001611cf2565b90600182811c92168015611d42575b6020831014611d2c57565b634e487b7160e01b600052602260045260246000fd5b91607f1691611d21565b90604051918260008254611d5f81611d12565b90818452602094600191600181169081600014611dcf5750600114611d90575b505050611d8e92500383611c5e565b565b600090815285812095935091905b818310611db7575050611d8e9350820101388080611d7f565b85548884018501529485019487945091830191611d9e565b92505050611d8e94925060ff191682840152151560051b820101388080611d7f565b90602091611e0a81518092818552858086019101611cef565b601f01601f1916010190565b600435906001600160a01b038216820361018657565b6020808201908083528351809252604092604081018260408560051b8401019601946000925b858410611e63575050505050505090565b909192939495968580600192603f198582030187528a5190611ee7611eca611eb7611e98610140865190808752860190611df1565b888060a01b038787015116878601528a8601518582038c870152611df1565b6060808601519085830390860152611df1565b6080808501519084015260a0808501519084830390850152611df1565b9160c0808201519083015260e080820151908301526101008082015190830152610120809101511515910152990194019401929594939190611e52565b600354811015611f5b5760036000527fc2575a0e9e593c00f959f8c92f12db2869c3395a3b0502d05e2516446f71f85b0190600090565b634e487b7160e01b600052603260045260246000fd5b600154811015611f5b5760016000526000805160206126468339815191520190600090565b8054821015611f5b5760005260206000200190600090565b90610a9157611cec90611d4c565b15611fc357565b60405162461bcd60e51b815260206004820152600f60248201526e53656564206e6f742061637469766560881b6044820152606490fd5b1561200157565b60405162461bcd60e51b8152602060048201526015602482015274496e76616c6964207061636b207175616e7469747960581b6044820152606490fd5b91908203918211610b5a57565b81810292918115918404141715610b5a57565b1561206557565b60405162461bcd60e51b8152602060048201526016602482015275496e73756666696369656e7420616c6c6f77616e636560501b6044820152606490fd5b156120aa57565b60405162461bcd60e51b815260206004820152601a60248201527f496e73756666696369656e7420574545444c2062616c616e63650000000000006044820152606490fd5b61210790602060405192828480945193849201611cef565b810103902090565b6001600160401b0381116104685760051b60200190565b906121308261210f565b6040906121406040519182611c5e565b8381528093612151601f199161210f565b019160005b8381106121635750505050565b602090825161217181611c42565b60608082528390600082840152808684015280808401526000608084015260a0830152600060c0830152600060e083015260006101008301526000610120830152828601015201612156565b8051821015611f5b5760209160051b010190565b6040519081600082546121e381611d12565b93600191808316908115612249575060011461220b575b505060209250600281520301902090565b9091506000526020906020600020906000915b8583106122355750505050602091810138806121fa565b80548784015286945091830191810161221e565b92505050602093915060ff1916825280151502810138806121fa565b6000198114610b5a5760010190565b91909182516001600160401b038111610468576122918254611d12565b601f811161233c575b50602080601f83116001146122d75750819293946000926122cc575b50508160011b916000199060031b1c1916179055565b0151905038806122b6565b90601f19831695846000526020600020926000905b8882106123245750508360019596971061230b575b505050811b019055565b015160001960f88460031b161c19169055388080612301565b806001859682949686015181550195019301906122ec565b6000836000526020600020601f840160051c8101926020851061237c575b601f0160051c01915b82811061237157505061229a565b818155600101612363565b909250829061235a565b6001600160a01b039081169081156123e15760008051602061262683398151915280546001600160a01b031981168417909155167f8be0079c531659141344cd1fd0a4f28419497f9722a3daafe3b4186f6b6457e0600080a3565b604051631e4fbdf760e01b815260006004820152602490fd5b60008051602061268683398151915260028154146124185760029055565b604051633ee5aeb560e01b8152600490fd5b60ff600080516020612666833981519152541661244357565b60405163d93c066560e01b8152600490fd5b6040516323b872dd60e01b60208201526001600160a01b03928316602482015292909116604483015260648083019390935291815260a08101918183106001600160401b0384111761046857611d8e92604052612525565b600080516020612626833981519152546001600160a01b031633036124ce57565b60405163118cdaa760e01b8152336004820152602490fd5b6000600191600154915b8281106125005750505050600090565b8061250b8592611f71565b90549060031b1c831461251e57016124f0565b5050505090565b906000602091828151910182855af115610add576000513d61257857506001600160a01b0381163b155b6125565750565b604051635274afe760e01b81526001600160a01b039091166004820152602490fd5b6001141561254f565b60ff7ff0c57e16840df040f15088dc2f81fe391c3923bec73e23a9662efc9c229c6a005460401c16156125b057565b604051631afcd79f60e31b8152600490fd5b906125e957508051156125d757602081519101fd5b60405163d6bda27560e01b8152600490fd5b8151158061261c575b6125fa575090565b604051639996b31560e01b81526001600160a01b039091166004820152602490fd5b50803b156125f256fe9016d09d72d40fdae2fd8ceac6b6234c7706214fd39c1cd1e609a0528c199300b10e2d527612073b26eecdfd717e6a320cf44b4afac2b0732d9fcbe2b7fa0cf6cd5ed15c6e187e77e9aee88184c21f4f2182ab5827cb3b7e07fbedcd63f033009b779b17422d0df92223018b32b4d1fa46e071723d6817e2486d003becc55f00a2646970667358221220dd72382c9707790ecac4dbc42115854c3dfbe5f4d46d6397b0472a4721c026cf64736f6c63430008160033",
  "linkReferences": {},
  "deployedLinkReferences": {}
}